:100000000C949D050C94C5050C94C5050C94C50570
:100010000C94C5050C94C5050C94C5050C94C50538
:100020000C94C5050C94C20B0C94C5050C94C50525
:100030000C94C5050C94C5050C94C5050C94C50518
:100040000C94C5050C94C5050C942A0B0C94040B58
:100050000C94C5050C94C5050C94C5050C94C505F8
:100060000C94D50C0C94C50534113711341137118B
:100070005611561156115611561156115611561148
:10008000561156115611561128112E1156112611BE
:100090002C11561156115611561156115611561152
:1000A000561156115611561156113B113F113B1165
:1000B0003F1156115611561156115611561156111F
:1000C000561156115611561145114B115111471128
:1000D0004D114711DB40A4A62EAFDA0281DA12815E
:1000E000DA02818F2000A1C8D300408DAED580A850
:1000F00000006000000000000000000000000000A0
:1001000000E000000000000000000000000000010E
:10011000E00000000000000000000000000001F00E
:100120000000000000000000000000000003F000DC
:1001300000000000000000000000000007F00000C8
:10014000000000000000000000000007F8000000B0
:10015000000000000000000000000FF80000000395
:10016000C0007E000001E0007F0FF800000003C027
:1001700000FE000001E000FFEFF800000003C000F7
:10018000FE000001E000FFFFF800000003C000F0E7
:100190000000000F007FFE7FC0000003C000F000E1
:1001A00000000F003FFE7FF83FF1FBCFFCFEF3BCE9
:1001B0003DEFE01FFE7FFF7FFBFFDFFEFEFFBC3D4C
:1001C000EFE01FC6FFFF7FFBFFDFFEFEFFBC3DEF42
:1001D000E00FE3C7FE787BC3DE1EF0FFBC3DEF00FF
:1001E00007FF87FC787BC3DE1EF0F83C3DEF000183
:1001F000FFFFF0007BC3C01EF0F03C3DEF0001F3B9
:100200007FE03FFBC3CFFEF0F03C3DEF0003E33F58
:10021000807FFBC3DFFEF0F03C3DEF0007E73C00D2
:10022000787BC3DE1EF0F03C3DEF0007FFBE007898
:100230007BC3DE1EF0F03C3DEF0007FFFE00787B45
:10024000C3DE1EF0F03C3DEF000FFFFE007FFBFF22
:10025000DFFEF0F03FFDEFE00FFFFF007FFBFFDF71
:10026000FEF0F03FFDEFE00FF9FF003E79F9CF9E81
:10027000F0F01F3DE7E01FF1FF000000000000006C
:1002800000000000001F80FF007FFFFFFFFFFFFF57
:10029000FFFFFFE01C007F007FFFFFFFFEB46D88C3
:1002A0008D18E000001F007FFFFFFFFE95AD7DB5BC
:1002B00077E000000F007FFFFFFFFEA5AD9D8D19C9
:1002C000E0000006007FFFFFFFFEB5ADEDB57EE06C
:1002D000000000000001800000000000000000009D
:1002E000038000000000000000000007C0000000C4
:1002F00000000000000007C0000000000000000037
:10030000000FC00000000000000000001FE000001F
:10031000000000000000001FE000000000000000DE
:1003200000003FE00000000000000000003FF0007F
:1003300000000000000000007FF00000000000004E
:10034000001FF87FF0000000000000003FFE7FF07B
:10035000000000000000003FFF7FF00000000000F0
:1003600000001FFFFBE0000000000000000FFFF98D
:10037000FFC00000000000000FFFF9FFF8000000C0
:1003800000000007FFF1FFFF00000000000003FC79
:1003900073FFFF80000000000001FE3FFFFF8000B0
:1003A0000000000000FF1E0FFF0000000000000022
:1003B0007FFE1FFC000000000000003FFFFFF80070
:1003C0000000000000000FDFFFE000000000000060
:1003D000001F19FFC0000000000000003F3CFF00AC
:1003E000000000000000007E7CF80000000000001B
:1003F00000007FFE7C0000000000000000FFFFFC0A
:100400000000000000000000FFFFFE0000000000F0
:10041000000000FFFFFE0000000000000001FFEFF1
:10042000FE0000000000000001FFCFFE0000000001
:1004300000000003FF07FE0000000000000003FCB6
:1004400007FE0000000000000003F003FE000000B3
:1004500000000000018000FE00000000000000001D
:1004600000007E000000000000000000003E0000D0
:1004700000000000000000000C0000000000000769
:100480008000FC000003C0000000078001FC0000A9
:1004900003C0000000078001FC000003C000000052
:1004A000078001E00000001E000000078001E0005E
:1004B00000001E007FE3F79FF9FDE7787BDFC0FFB8
:1004C000F7FFBFFDFDFF787BDFC0FFF7FFBFFDFD3E
:1004D000FF787BDFC0F0F787BC3DE1FF787BDE0073
:1004E000F0F787BC3DE1F0787BDE0000F787803DC8
:1004F000E1E0787BDE007FF7879FFDE1E0787BDE3F
:1005000000FFF787BFFDE1E0787BDE00F0F787BCF6
:100510003DE1E0787BDE00F0F787BC3DE1E0787BF1
:10052000DE00F0F787BC3DE1E0787BDE00FFF7FFFF
:10053000BFFDE1E07FFBDFC0FFF7FFBFFDE1E07F34
:10054000FBDFC07CF3F39F3DE1E03E7BCFC00000CA
:10055000000000000000000000FFFFFFFFFFFFFFA2
:10056000FFFFFFC0FFFFFFFFFD68DB111A31C0FF77
:10057000FFFFFFFD2B5AFB6AEFC0FFFFFFFFFD4BA4
:100580005B3B1A33C0FFFFFFFFFD6B5BDB6AFDC007
:100590005353443133303620616C6C6F636174693E
:1005A0006F6E206661696C65640048656C6C6F2CC9
:1005B00020776F726C642100000103070F1F3F7FDB
:1005C0000080C0E0F0F8FCFE00000000003E555145
:1005D000553E3E6B6F6B3E0C1E3C1E0C081C3E1CB9
:1005E000081C4A7F4A1C185C7F5C18001C1C1C00FD
:1005F0007F6363637F001C141C007F636B637F3029
:10060000484D3307062979290620503F020C607FA8
:1006100005353F2A1C771C2A007F3E1C08081C3E1B
:100620007F0014227F2214005F005F0006097F0113
:100630007F4A55555529606060606054627F6254FE
:1006400008047E040808103F100808082A1C08083F
:100650001C2A08081C101010101C3E083E1C303CC0
:100660003F3C30061E7E1E06000000000000005FBA
:1006700000000007000700147F147F14242A7F2A3B
:100680001223130864623649562050000007000008
:10069000001C2241000041221C0014083E081408DE
:1006A000083E080800A0600000080808080800606C
:1006B00060000020100804023E5149453E44427F3C
:1006C000404042615149462141454B311814127F47
:1006D0001027454545393C4A494930017109050310
:1006E0003649494936064949291E006C6C0000000C
:1006F000AC6C0000081422410014141414140041BE
:1007000022140802015109063E415D555E7C12111A
:10071000127C7F494949363E414141227F41412275
:100720001C7F494949417F090909013E4149497AEC
:100730007F0808087F00417F41002040413F017F42
:10074000081422417F404040607F020C027F7F04FA
:1007500008107F3E4141413E7F090909063E415153
:10076000215E7F09192946464949493103017F0124
:10077000033F4040403F1F2040201F3F403C403F40
:100780006314081463070870080761514945430062
:100790007F41410002040810200041417F00040213
:1007A0000102044040404040000102040020545433
:1007B00054787F4844443838444444483844444892
:1007C0007F3854545418087E090102085454583C88
:1007D0007F0804047800447D40002040443D007FB1
:1007E0001010284400417F40007C047804787C0885
:1007F00004047838444444387C141414080814144D
:100800000C7C7C080404084854545424043F44409D
:10081000203C4040207C1C2040201C3C4038403C78
:1008200044281028440C5050503C4464544C44001C
:100830000836410000007F00000041360800020138
:100840000204027048444870000E110E0000121F8E
:10085000100000121916000011150B000007041FEC
:10086000000017150900000E15090000011D030006
:10087000000A150A000012150E000004040400FF0F
:10088000FFFFFFFF3E000000003E3E0000003E3E36
:10089000003E003E3E003E3E8080808080C0C0C062
:1008A000C0C0D0D0D0D0D0D8D8D8D8D8DADADADA18
:1008B000DADBDBDBDBDB4000400040600040004077
:1008C000600070004060007000787C004000407C58
:1008D000007E00407C007E007F1C77414141414109
:1008E0004141414141417F001C77415D5D414141B2
:1008F0005D5D5D5D415D5D5D5D417F00221C141CA1
:100900002200081C08000000770000465D555D319C
:100910007C5554554408082A080800140814000897
:10092000142208147F4171311F03057F050322142F
:100930007F552202557D0502060909060044445FE1
:1009400044441C141C227F203E613E2020503F0264
:100950000C807C203C40443C047C440000080000A7
:1009600038555455187E08107F01081008040214E9
:10097000082214080E060A102020100A060E38302D
:1009800028040202042830387E1111117E7F494963
:1009900049317F494949367F01010103C07F417FC9
:1009A000C07F4949494177087F087741494949361D
:1009B0007F1008047F7C2112097C7F0814224140AB
:1009C0003E01017F7F020C027F7F0808087F3E41C5
:1009D00041413E7F0101017F7F090909063E4141F6
:1009E000412201017F0101074848483F0E117F1154
:1009F0000E63140814637F40407FC0070808087F17
:100A00007F407F407F7F407F40FF017F4848307FAD
:100A10004848307F7F48484830224149493E7F0856
:100A20003E413E462919097F20545454783C4A4A95
:100A300049317C545454287C0404040CC078447C10
:100A4000C038545454186C107C106C4454545428BE
:100A50007C2010087C7C4026107C7C1010284440B0
:100A60003804047C7C0810087C7C1010107C38440E
:100A70004444387C0404047C7C1414140838444432
:100A8000444804047C04040C5050503C1824FC24BA
:100A90001844281028447C40407CC00C1010107C66
:100AA0007C407C407C7C407C40FC047C5050207C22
:100AB0005050207C7C5050502028445454387C1096
:100AC000384438483414147C00404132F01110008E
:100AD00000202131000000000000000000000000A4
:100AE00024230000000000250028002B002E000019
:100AF000000000240027002A002D00040404040440
:100B000004040402020202020203030303030305B6
:100B100005050505050501020408102040800102B5
:100B2000040810200102040810200208010410200B
:100B3000402200FF2100021AF31911241FBECFEF3B
:100B4000D8E0DEBFCDBF23E0A6E6B1E001C01D9234
:100B5000A533B207E1F711E0A0E0B1E0E2EFF7E37F
:100B600002C005900D92A636B107D9F715E0CCE981
:100B7000D5E004C02197FE010E94B91ACB39D107F4
:100B8000C9F70E94CD140C94EC1B0C940000FC01DE
:100B9000918D828D981761F0828DDF01A80FB11DB4
:100BA0005D968C91928D9F5F9F73928F90E00895D8
:100BB0008FEF9FEF0895FC01918D828D981731F092
:100BC000828DE80FF11D858D90E008958FEF9FEFE6
:100BD0000895FC01918D228D892F90E0805C9F4FBC
:100BE000821B91098F739927089584E092E00E94F7
:100BF000E90521E0892B09F420E0822F0895FC010A
:100C0000848DDF01A80FB11DA35ABF4F2C91848D95
:100C100090E001968F739927848FA689B7892C93CA
:100C2000A089B1898C9180648C93938D848D981365
:100C300006C00288F389E02D80818F7D808308952E
:100C4000EF92FF920F931F93CF93DF93EC0181E01C
:100C5000888F9B8D8C8D981305C0E889F9898081D8
:100C600085FD24C0F62E0B8D10E00F5F1F4F0F7314
:100C70001127E02E8C8DE8120CC00FB607FCFACFBE
:100C8000E889F989808185FFF5CFCE010E94FF05B3
:100C9000F1CF8B8DFE01E80FF11DE35AFF4FF0827B
:100CA0000B8FEA89FB898081806207C0EE89FF890A
:100CB0006083E889F98980818064808381E090E0A5
:100CC000DF91CF911F910F91FF90EF900895CF93F7
:100CD000DF93EC01888D8823C9F0EA89FB89808144
:100CE00085FD05C0A889B9898C9186FD0FC00FB616
:100CF00007FCF5CF808185FFF2CFA889B9898C9157
:100D000085FFEDCFCE010E94FF05E7CFDF91CF91A8
:100D1000089580E090E0892B29F00E94F50581116B
:100D20000C94000008953FB7F8948091B50190911C
:100D3000B601A091B701B091B8012091B200B89B63
:100D400005C02F3F19F00196A11DB11D3FBFBA2F5D
:100D5000A92F982F8827820F911DA11DB11DBC01BD
:100D6000CD0142E0660F771F881F991F4A95D1F782
:100D70000895FC0177FDB9C08085918568177907D2
:100D80000CF0B3C057FDB1C0828593854817590751
:100D90000CF008958589823079F484819581DC0195
:100DA000A61BB70BBD016150710986819781DC01DB
:100DB000A41BB50BAD010EC0833009F084C06427BD
:100DC0007527CA0186279727682779274681578183
:100DD000481B590B415051092130310531F048F180
:100DE0002230310509F44AC00895CA0157FD07961B
:100DF0009C01A3E035952795AA95E1F7A481B581DB
:100E00002A9FC0012B9F900D3A9F900D1124680FCF
:100E1000791F068CF78DE02DE60FF71F47705527D9
:100E200081E090E001C0880F4A95EAF79081892B14
:100E300048C0CA0157FD07969C0193E03595279558
:100E40009A95E1F7A481B5812A9FC0012B9F900D4F
:100E50003A9F900D1124680F791F068CF78DE02DB5
:100E6000E60FF71F4770552781E090E001C0880F1B
:100E70004A95EAF780959081892323C0CA0157FDDE
:100E800007969C0183E0359527958A95E1F7A48123
:100E9000B5812A9FC0012B9F900D3A9F900D112480
:100EA000680F791F068CF78DE02DE60FF71F47704E
:100EB000552781E090E001C0880F4A95EAF79081BC
:100EC000892780830895813009F086CF64277527AC
:100ED000462757276427752784819581DC01A61B47
:100EE000B70BBD016150710977CF08950895EF9256
:100EF000FF920F931F93DC011A960D911C911B9783
:100F000018962D913C911997ED91FC910684F785E7
:100F1000E02D7B0140E050E060E070E009951F911A
:100F20000F91FF90EF9008956F927F928F929F9212
:100F3000AF92BF92CF92DF92EF92FF920F931F93E7
:100F4000CF93DF936C015A014801EB013B01620E24
:100F5000731EC615D70574F4D601ED91FC9100847B
:100F6000F185E02D87019401A501BE01C601099517
:100F70002196EFCFDF91CF911F910F91FF90EF90CE
:100F8000DF90CF90BF90AF909F908F907F906F90A9
:100F90000895EF92FF920F931F93260F371F215052
:100FA0003109DC01ED91FC910680F781E02D78019B
:100FB0008A0109951F910F91FF90EF900895EF928C
:100FC000FF920F931F93240F351F21503109DC012D
:100FD000ED91FC910680F781E02D780189019B015C
:100FE00009951F910F91FF90EF9008956F927F9256
:100FF0008F929F92AF92BF92CF92DF92EF92FF9229
:101000000F931F93CF93DF93EC014B015A016901BA
:101010003801E881F9810284F385E02D8701099583
:10102000A501460D571D41505109E881F9810284FF
:10103000F385E02D9601B401CE010995E881F9818F
:101040000084F185E02D9301A501B401CE0109953D
:10105000C80CD91CB60161507109E881F98100847E
:10106000F185E02D9301A501CE010995DF91CF9186
:101070001F910F91FF90EF90DF90CF90BF90AF90B6
:101080009F908F907F906F9008952F923F924F92F4
:101090005F926F927F928F929F92AF92BF92CF9208
:1010A000DF92EF92FF920F931F93CF93DF9300D0C5
:1010B00000D000D0CDB7DEB72C017E836D836A01EE
:1010C0005901C801FC82EB824801841A950A97FEF7
:1010D00003C091948194910835012D813E81621A5B
:1010E000730A77FE03C071946194710868147904DF
:1010F0005CF43A2D2B2D5C01832F922F3D812E81A4
:10110000DE82CD82C32ED22EAD81BE81AA16BB0651
:101110005CF43C2D2D2D6C01832F922F3D812E816F
:10112000BE82AD82A32EB22E85012D813E81021B8F
:10113000130B1C012C183D0837FE03C03194219479
:101140003108780117FF03C03FEFE31AF30AF59463
:10115000E794C816D9062CF08FEF9FEF9A83898306
:1011600004C0A1E0B0E0BA83A9832D813E81A2161C
:10117000B30624F1D201ED91FC910480F581E02DBC
:101180002B813C816814790424F44D815E81B60181
:1011900003C0A6016D817E81C2010995E218F308A2
:1011A000F7FE06C029813A81C20ED31EE00EF11E61
:1011B0008D819E8101969E838D83D7CF26960FB613
:1011C000F894DEBF0FBECDBFDF91CF911F910F917D
:1011D000FF90EF90DF90CF90BF90AF909F908F9057
:1011E0007F906F905F904F903F902F90089585ED86
:1011F0008093BC008091BC0084FDFCCF1092DF0185
:101200000895613298F42091DF01243089F46093CD
:101210008D01282FADE6B1E0FC018E2F821B8617D1
:1012200018F481918D93F9CF80E0089581E00895BD
:1012300082E00895089581E090E030916701209167
:101240006601321710F480E090E091958195910944
:1012500008958091670190916601891730F48F5F3E
:101260008093670180E090E008958FEF9FEF0895ED
:101270008091660190E020916701821B9109089599
:10128000CF92DF92EF92FF920F931F93CF93DF9352
:101290007C01CB018A012091E001222389F0EB013E
:1012A0006B01C40ED51ECC15DD0569F06991D7011F
:1012B000ED91FC910190F081E02DC7010995F3CFEC
:1012C000642F0E940109C801DF91CF911F910F91F6
:1012D000FF90EF90DF90CF900895CF93DF931F9210
:1012E000CDB7DEB769832091E0012223D1F02091B0
:1012F0000302203240F021E030E0FC0133832283FE
:1013000080E090E015C08091E101E82FF0E0EE511F
:10131000FE4F998190838F5F8093E1018093030258
:1013200005C061E0CE0101960E94010981E090E0D4
:101330000F90DF91CF9108950E94E01B0F931F93B0
:10134000CF93DF93DC015596EC915597E23071F025
:10135000E330E9F0E13079F5FB0114960D90BC9192
:10136000A02DA41BB50BA21BB30B18C0EC01EC8184
:10137000FD81E61BF70BBF0161507109EE81FF8112
:10138000DF01A41BB50BAD01421B530B14C0DA01E6
:10139000EC01EE81FF81E61BF70B3197F7FD0DC0E5
:1013A000EC014E815F81E417F5073CF4AF01BD010C
:1013B0000E94291302C00E949013DF91CF911F91C8
:1013C0000F9108950F931F93DC015596EC9155975B
:1013D000E23061F0E33009F1E13081F51496ED91EE
:1013E000FC911597E41BF50B319723C0DC01149693
:1013F000ED91FC911597DF01A61BB70BBD01DC0138
:101400001696ED91FC911797DF01A41BB50BAD016A
:1014100041505109621B730B11C0FA01DC01169691
:101420004D915C911797DA01A61BB70BBD01621BAA
:10143000730BAB01BF010E9490130CC057FD0AC093
:10144000DC011696ED91FC9117974E175F0714F487
:101450000E9429131F910F910895AF92BF92CF92CE
:10146000EF92FF920F931F93CF93DF93EC01262F00
:10147000888D998D009709F042C06A3069F42C89F3
:101480008E859F8538E0239F800D911D11249F87B5
:101490008E871D861C86ACC06D3009F4A9C08E896C
:1014A0008823C1F03C898C859D8546E0349F800D62
:1014B000911D112448855985841795075CF01D8678
:1014C0001C868E859F85E8E03E9F800D911D11242E
:1014D0009F878E87EA88FB88088919894E855F85F2
:1014E0006C857D85CC88CE010E9487112C898C85E6
:1014F0009D85F6E02F9F800D911D112441C06A301B
:1015000079F41D861C862C89FC013696E4918E8523
:101510009F852E9F800D911D11249F878E8768C007
:101520006D3009F465C0AC014C5F5F4FFA01349136
:10153000631708F45DC03196E491E61708F458C0CB
:10154000FA014491362F341BFC013296A590B490D9
:10155000F7E03F9FA00CB11C1124F50132963491A5
:101560003196E491332311F0E1110DC0F501349669
:10157000E4912C898C859D85E29F800D911D11241D
:101580009D878C8735C0F501359644915E8955233A
:1015900011F16C89E32FF0E0E40FF11D47FDFA959E
:1015A0006E9FD0016F9FB00D11244C855D854A0F51
:1015B0005B1FE885F9854E175F076CF01D861C865A
:1015C000FC013696E4918E859F856E9F800D911D5E
:1015D00011249F878E87EA88FB88088919894E85A0
:1015E0005F856C857D85CC88CE010E948711BECF3A
:1015F00081E090E0DF91CF911F910F91FF90EF90EC
:10160000CF90BF90AF9008951F920F920FB60F9298
:1016100011242F933F934F935F936F937F938F93F7
:101620009F93AF93BF93EF93FF9384E092E00E9468
:10163000FF05FF91EF91BF91AF919F918F917F91A6
:101640006F915F914F913F912F910F900FBE0F902F
:101650001F9018951F920F920FB60F9211242F937F
:101660008F939F93EF93FF93E0911402F0911502F3
:101670008081E0911A02F0911B0282FD12C09081DC
:1016800080911D028F5F8F7320911E02821751F08F
:10169000E0911D02F0E0EC5FFD4F958F80931D02FD
:1016A00001C08081FF91EF919F918F912F910F90B9
:1016B0000FBE0F901F90189590E0FC01EA5EF44F6A
:1016C0002491FC01E550F54FE491EE23A1F0F0E008
:1016D000EE0FFF1FED51F54FA591B4919FB7F89410
:1016E000611105C08C91E22FE095E82302C0EC91D6
:1016F000E22BEC939FBF08958F929F92AF92BF927F
:10170000CF92DF92EF92FF926B017C010E949306D1
:101710004B015C01C114D104E104F104F1F00E9419
:101720009306DC01CB0188199909AA09BB09883EF7
:101730009340A105B10570F321E0C21AD108E10878
:10174000F10888EE880E83E0981EA11CB11CC1141C
:10175000D104E104F10419F7DDCFFF90EF90DF90A1
:10176000CF90BF90AF909F908F9008952FB7F8942F
:101770006091B1017091B2018091B3019091B40177
:101780002FBF08951F920F920FB60F9211242F931F
:101790003F938F939F93AF93BF938091B1019091AB
:1017A000B201A091B301B091B4013091B00123E036
:1017B000230F2D3720F40196A11DB11D05C026E889
:1017C000230F0296A11DB11D2093B0018093B1019A
:1017D0009093B201A093B301B093B4018091B5018D
:1017E0009091B601A091B701B091B8010196A11DE9
:1017F000B11D8093B5019093B601A093B701B0934A
:10180000B801BF91AF919F918F913F912F910F9010
:101810000FBE0F901F90189508958EBD0000CE99B1
:10182000FECF8EB594E499BB08951F93CF93DF93B9
:10183000FC01848D958D009729F1162FEF0120A1D1
:1018400031E03093E001209302021092E101109206
:101850000302DC01ED91FC910190F081E02D60E04C
:1018600009958C8D9D8DDC01ED91FC910190F081AD
:10187000E02D612F09958C8D9D8DDF91CF911F916A
:101880000C94240EA4A5B5A59C9182A980958923CA
:101890008C93828D938D892B31F0862FDF91CF91A0
:1018A0001F910C940D0C28E030E080E8A0A5B1A5B4
:1018B00090A9462F482319F04C91942B03C04C91CA
:1018C000909594239C93A2A5B3A54C9191A9942B98
:1018D0009C93A2A5B3A54C9191A9909594239C9318
:1018E00086952150310911F7DF91CF911F9108950D
:1018F0008CBD9DBD08951F93CF93DF93EC01162FF0
:101900008C8D9D8D892BB1F02EA93FA948AD59AD85
:1019100060E074E284EF90E00E94971ADA01C90156
:101920004097A109B109B695A7959795879580939A
:10193000B8000FC08A8D9B8D892B21F08CA99DA9A1
:101940000E94780CEEA5FFA590818BA98095892334
:101950008083111102C066EA01C067EACE010E94CD
:10196000150C8C8D9D8D892BB1F02AAD3BAD4CAD06
:101970005DAD60E074E284EF90E00E94971ADA01B6
:10198000C9014097A109B109B695A7959795879583
:101990008093B80006C0EEA5FFA590818BA9892B86
:1019A0008083DF91CF911F9108951F920F920FB600
:1019B0000F9211242F933F934F935F936F937F93D5
:1019C0008F939F93AF93BF93EF93FF938091B90051
:1019D000887F803609F49CC068F5883209F45BC0C2
:1019E00090F4803109F454C038F4882309F4EDC030
:1019F000883009F44DC0EDC0883109F44CC0803204
:101A000009F45DC0E6C0803409F468C048F480334E
:101A100009F455C0883309F0DCC08093DD01CFC0E4
:101A2000803509F44FC0883509F45DC0883409F069
:101A3000D0C0CDC0883909F4BEC0A8F4883709F4F5
:101A400067C038F4883609F463C0803709F460C091
:101A5000C0C0883809F4AFC0803909F45FC080384D
:101A600009F0B7C05BC0803B09F47FC038F4803A0E
:101A700009F466C0883A09F478C0ABC0803C09F428
:101A80009EC0883C09F49BC0883B09F481C0A1C07A
:101A90008091BA0110C09091DC018091DB01981710
:101AA00070F5E091DC0181E08E0F8093DC01F0E0C5
:101AB000E554FE4F80818093BB0085EC7DC0809310
:101AC000DD0185C0E091DC0181E08E0F8093DC01B7
:101AD0008091BB00F0E0E554FE4F80839091DC01E3
:101AE0008091DB0165C0E091DC0181E08E0F809385
:101AF000DC018091BB00F0E0E554FE4F80838091D3
:101B0000DE01811164C081E08093B90184EA58C08C
:101B100083E08093DF011092AF01CFCF8091AF01BE
:101B2000803208F048C0E091AF0181E08E0F8093D1
:101B3000AF018091BB00F0E0E157FE4F8083BDCF45
:101B40008091AF01803230F4E091AF01F0E0E157D5
:101B5000FE4F10826091AF0170E08FE891E0E0E00D
:101B6000F0E009951092AF012AC084E08093DF0174
:101B700010928E0110928D01E0E0F0E009958091C5
:101B80008D01811105C081E080938D0110926D015E
:101B9000E0918E0181E08E0F80938E01F0E0E35999
:101BA000FE4F80818093BB0090918E0180918D01CA
:101BB000981708F482CF85E88093BC000AC085ECB2
:101BC0008093BC001092DF0104C01092DD010E94DE
:101BD000F708FF91EF91BF91AF919F918F917F9106
:101BE0006F915F914F913F912F910F900FBE0F908A
:101BF0001F901895CF92DF92EF92FF920F931F9351
:101C0000CF93DF936C017A018B01C0E0D0E0CE1559
:101C1000DF0581F0D8016D918D01D601ED91FC9128
:101C20000190F081E02DC6010995892B11F02196D4
:101C3000EECF7E01C701DF91CF911F910F91FF90F1
:101C4000EF90DF90CF90089530910302313208F089
:101C500045C08091DF018111FCCF9091020222E00A
:101C60002093DF0121E02093DE012FEF2093DD019F
:101C70001092DC013093DB01E2EEF1E0ABEBB1E07E
:101C800020E0321721F041914D932F5FFACF10924F
:101C9000BA012091BA01990F922B9093BA019091B9
:101CA000B901913031F41092B9019091BA01909339
:101CB000BB0095EE9093BC009091DF019230E1F370
:101CC0009091DD019F3F79F08091DD01803241F0FC
:101CD0008091DD01803331F084E005C081E003C0F4
:101CE00082E001C083E01092E101109203021092A1
:101CF000E0010895DF92EF92FF920F931F93CF932D
:101D0000DF93D82ED92FC62F80910303909104031F
:101D1000009709F454C02091070331E03093E001AB
:101D2000209302021092E10110920302DC01ED9176
:101D3000FC910190F081E02D60E00995ED2CFD2EE5
:101D400011E0D1E08091030390910403CC2371F161
:101D50001032C8F00E94240E80910703D093E00156
:101D6000809302021092E10110920302809103031A
:101D700090910403DC01ED91FC910190F081E02D44
:101D800060E0099511E08091030390910403F7014D
:101D90006491DC01ED91FC910190F081E02D0995B9
:101DA0001F5FC150BFEFEB1AFB0ACCCFDF91CF9181
:101DB0001F910F91FF90EF90DF900C94240EE09113
:101DC0001303F09114039081809119038095892366
:101DD00080830D2D1D2FCC2309F439C0F801849187
:101DE0002091010330910203232B31F00E940D0C4E
:101DF000C1500F5F1F4FEFCF28E030E040E8E09187
:101E00000F03F091100390911703582F542319F0EA
:101E10005081952B03C05081909595239083E0913C
:101E20001103F0911203508190911803952B908328
:101E3000E0911103F0911203508190911803909555
:101E400095239083469521503109C9F6D1CFDF9172
:101E5000CF911F910F91FF90EF90DF900895EF9237
:101E6000FF920F931F93CF93DF9380910303909181
:101E70000403892BD1F020911D0330911E03409162
:101E80001F035091200360E074E284EF90E00E9411
:101E9000971ADA01C9014097A109B109B695A7952A
:101EA000979587958093B80016C080910103909113
:101EB0000203892B31F080911B0390911C030E9437
:101EC000780CE0911503F0911603908180911A032C
:101ED00080958923808365E081E39BE00E947A0EF0
:101EE0006091EB02615087EE92E00E94150C209108
:101EF000ED023091EE02C901079697FD079633E097
:101F0000959587953A95E1F72091EB023091EC0297
:101F1000829F8001839F100D929F100D1124C0910C
:101F20000503D091060380910303909104030C0FE5
:101F30001D1F009709F44CC02091070331E0309336
:101F4000E001209302021092E10110920302DC01F1
:101F5000ED91FC910190F081E02D60E40995FF2462
:101F6000F394EE24E39480910303909104030C17FF
:101F70001D0759F1BFE1BF15D0F40E94240E8091D6
:101F80000703E092E001809302021092E1011092B7
:101F900003028091030390910403DC01ED91FC9115
:101FA0000190F081E02D60E40995FF24F394809185
:101FB0000303909104036991DC01ED91FC91019080
:101FC000F081E02D0995F394CECF0E94240E41C0FC
:101FD000E0911303F0911403908180911903892BF0
:101FE00080830C171D07A9F189912091010330917D
:101FF0000203232B19F00E940D0CF3CF28E030E0F0
:1020000040E8E0910F03F091100390911703582FCF
:10201000542319F05081952B03C05081909595233E
:102020009083E0911103F091120350819091180375
:10203000952B9083E0911103F091120350819091C0
:102040001803909595239083469521503109C9F640
:10205000C8CF8091030390910403892BD1F0209184
:10206000210330912203409123035091240360E027
:1020700074E284EF90E00E94971ADA01C901409758
:10208000A109B109B695A795979587958093B80052
:1020900017C0E0911503F0911603908180911A0307
:1020A000892B80838091010390910203892B41F059
:1020B000DF91CF911F910F91FF90EF900C940C0C3A
:1020C000DF91CF911F910F91FF90EF900895209194
:1020D000ED023091EE02C901079697FD079623E0C5
:1020E000959587952A95E1F72091EB023091EC02C6
:1020F000829FA001839F500D929F500D112460E09C
:1021000070E080910503909106030C94E51B2F92DB
:102110003F924F925F926F927F928F929F92AF9277
:10212000BF92CF92DF92EF92FF920F931F93CF93C4
:10213000DF9300D000D01F92CDB7DEB72C013B015A
:102140004A015901C901079697FD07969C0193E042
:10215000359527959A95E1F73B832A83C12CD12C9D
:10216000E12CF12CE016F1060CF03DC01D821C8222
:1021700013012E0C3F1C8C819D818A159B055CF5FB
:1021800087709927892B21F09981990F99830FC026
:10219000EC81FD81F7FD379683E0F595E7958A950B
:1021A000E1F7EC0DFD1DE80DF91D2491298339811E
:1021B00037FF0BC021E030E0A1016C817D81640D0F
:1021C000751D87EE92E00E94B9068C819D81019673
:1021D0009D838C83D0CF9FEFE91AF90A2A813B8136
:1021E000C20ED31EBFCF0F900F900F900F900F9085
:1021F000DF91CF911F910F91FF90EF90DF90CF90E3
:10220000BF90AF909F908F907F906F905F904F9016
:102210003F902F900895482F50E0FA01EA5EF44F66
:102220002491FA01E550F54F9491FA01E853F54FE6
:10223000E491EE23D9F14E2F50E0FA017097E63386
:10224000F105A0F5EC5CFF4F0C94B91A9D986D9ABE
:10225000309180003F7705C09C986C9A3091800047
:102260003F7D3093800022C034B53F7702C034B543
:102270003F7D34BD1BC03091B0003F7703C030912B
:10228000B0003F7D3093B00011C09998519A3091C1
:1022900090003F7709C09A98529A309190003F7D04
:1022A00003C030919000377F30939000843021F448
:1022B00083E08093A00014C03AEE380F323020F44F
:1022C0008FEF84BF84BF0CC08A3151F48091F0003D
:1022D00082608EBB80E88093F0008EB38093F00024
:1022E0009923A1F0892F90E0880F991FFC01E151FB
:1022F000F54FA591B491FC01ED51F54F8591949165
:102300008FB7F894EC91E22BEC938FBF08952F9246
:102310003F924F925F926F927F928F929F92AF9275
:10232000BF92CF92DF92EF92FF920F931F93CF93C2
:10233000DF93CDB7DEB76C970FB6F894DEBF0FBE54
:10234000CDBF4C015A8349831F830E83FD82EC82EB
:10235000CB82FC01408D518D4115510509F0A1C082
:1023600080859185681779070CF05AC1828593851D
:1023700049815A81481759070CF052C1D12CCB0121
:10238000AB8156E0A59F800D911D112418161906EA
:102390000CF046C1C60133E0880F991F3A95E1F76A
:1023A000E981FA818E0F9F1F181619060CF038C1AB
:1023B000D40157968C91811103C0203B08F02F5F08
:1023C000B5E02B9F900111247D876C875B01212C48
:1023D000F901E61BF70BF987E88729813A81285F25
:1023E0003F4F3B872A8735E0231641F0E885F98582
:1023F000EA0DFB1DE853FA4F349001C0312C69807F
:102400007A80230130FE12C0D401ED91FC91BB8192
:10241000B13031F40480F581E02D2E813F8116C06A
:102420000684F785E02DEE80FF801AC0EE81FF81E3
:102430002C813D81E217F307D1F0D401ED91FC919D
:10244000BB81B13041F40480F581E02DA301B501D9
:10245000C40109950CC00684F785E02DEC80FD8051
:1024600086019601A2016C857D85C401099536948B
:10247000EFEF6E1A7E0A4C0C5D1C2A853B856216B6
:10248000730609F0BFCF23943FEFA31AB30A4C851C
:102490005D854C0D5D1D5D874C8756E02512A3CFF1
:1024A000BFC0FA013496E4912E1BFA013296859151
:1024B0009491E7E02E9F800D911D1124FA01259142
:1024C00034913B8B2A8BFC0125903490FC01329691
:1024D00034913887319644914A873196E491FC01D2
:1024E000359654915E87319684919B81923048F065
:1024F000A52F550FBB0BE82F082E000CFF0BFD87F7
:10250000EC87FB81CF2ED12CAC9D9001AD9D300D81
:10251000BC9D300D1124A901460F571F598B488BC4
:102520001C82A12C5E85E52F550FFF0B3F01660E27
:10253000771E9885690F711DDB01AE0FBF1FB88F25
:10254000AF8BE981FA81E80FF11D87FDFA95FA8FCB
:10255000E98FFA85AF1608F063C08A2D90E04C85AC
:102560005D85480F591F4C9D90014D9D300D5C9D20
:10257000300D112449815A81420F531F5F874E87C6
:10258000488859887C8E6B8E5C8156195C8BA98D2E
:10259000BA8DA80FB91FBE8BAD8B8C89BB8D8B0FED
:1025A000EF89F88D2B8D3C8DE217F30799F1877039
:1025B00041F4C1010196EA89FB89E20DF31DB49053
:1025C0001C01B7FE1EC0D401ED91FC91BB81B1305E
:1025D00061F40480F581E02D2E813F814D895E8973
:1025E0006B8D7C8DC40109950CC00684F785E02DA8
:1025F000EE80FF80860196014E855F85B201C401A1
:102600000995BB0CEB8DFC8D3196FC8FEB8F4C0C40
:102610005D1CC3CFFC812885F20FFC83A39499CF66
:102620006C960FB6F894DEBF0FBECDBFDF91CF9191
:102630001F910F91FF90EF90DF90CF90BF90AF90E0
:102640009F908F907F906F905F904F903F902F90D2
:1026500008950F931F93CF93DF9377FF04C0260F46
:10266000371F60E070E0DC011496CD91DC91159786
:10267000FB01E20FF31FCE17DF071CF49E01261BA0
:10268000370B121613060CF046C0FA0157FD3796A9
:10269000DF01E3E0B595A795EA95E1F7AC9FF0017E
:1026A000AD9FF00DBC9FF00D11246E0F7F1FDC015C
:1026B0005E96ED91FC915F97E60FF71F47705527E7
:1026C00081E090E001C0880F4A95EAF7482F013079
:1026D000110539F078F002301105E9F42E0F3F1F93
:1026E00013C02E0F3F1FE217F307A9F08081842B40
:1026F0008193F9CF80952E0F3F1FE217F30759F012
:10270000908198239193F9CFE217F30721F080810C
:1027100084278193F9CFDF91CF911F910F91089575
:10272000EF92FF920F931F93CF93DF93EC0177FD0E
:10273000A5C0EC80FD806E157F050CF09FC057FF93
:1027400004C0240F351F40E050E08E819F81FA01C4
:10275000E20FF31F8E179F071CF49C01241B350BFF
:10276000121613060CF08AC0922F842F8695869538
:1027700086958E9DD0018F9DB00D11246A0F7B1F11
:10278000AE8DBF8DA60FB71F4770B1F188E0841BD7
:10279000482F682F70E0FB01E054FA4FE4912817AE
:1027A00098F4621B71092FEF30E002C03595279530
:1027B0006A95E2F7E2230130110549F078F0023022
:1027C000110509F05BC00EC00130110519F48C91A0
:1027D000E82B0AC00130110508F049C0E0958C9142
:1027E000E82302C08C91E827EC93941708F446C0C4
:1027F0002C813D81A20FB31FE92FE41BE830F8F0D4
:102800000230110561F48E2F9C9190959C932C8140
:102810003D81A20FB31F88508830B0F70FC081E010
:102820000115110509F480E081959E2F8C932C8170
:102830003D81A20FB31F98509830C0F7E770EE2388
:10284000E9F0F0E0E854FA4FE4910130110539F075
:1028500048F00230110591F48C91E82706C08C9164
:10286000E82B03C0E0958C91E823EC9307C002307D
:10287000110509F4B7CFAE0DBF1DBECFDF91CF91CB
:102880001F910F91FF90EF9008956115710579F0F8
:10289000FB0101900020E9F73197AF01461B570B70
:1028A000DC01ED91FC910280F381E02D099480E040
:1028B00090E008958F929F92AF92BF92EF92FF9215
:1028C0000F931F93CF93DF93CDB7DEB7A1970FB6CA
:1028D000F894DEBF0FBECDBF7C01FA01CB0119A277
:1028E000223008F42AE08E010F5D1F4F822E912CBA
:1028F000A12CB12CBF01A50194010E94971AF901E6
:10290000CA01015011096A3014F4605D01C0695CAC
:10291000D8016C93232B242B252B61F7B801C70119
:102920000E944514A1960FB6F894DEBF0FBECDBF2E
:10293000DF91CF911F910F91FF90EF90BF90AF90DB
:102940009F908F900895EF92FF920F931F93CF93D4
:10295000DF938C017B01C0E0D0E0F701EC0FFD1F9D
:102960006491662361F0D801ED91FC910190F081B2
:10297000E02DC8010995892B11F02196EECF6FE467
:1029800071E0C8010E9445148C0F9D1FDF91CF910B
:102990001F910F91FF90EF9008958091F200806158
:1029A0008EBB80E88093F2009EB39093F2008093F8
:1029B000610081E080936100789484B5826084BD79
:1029C00084B5816084BD85B5826085BD85B5816033
:1029D00085BD10928100809181008160809381008B
:1029E000809181008061809381008091800082606D
:1029F000809380008FE3809387009FEF9093860001
:102A00008091B10084608093B1008091B0008260B9
:102A10008093B0008091B00081608093B00080917D
:102A2000700081608093700080919100816080933C
:102A3000910080919100806180939100809190003D
:102A40008260809390009093960080917A008460D9
:102A500080937A0080917A00826080937A008091DE
:102A60007A00816080937A0080917A0080688093F8
:102A70007A001092C1001092E3021092E4021092C8
:102A8000E5021092E6021092A3021092A4021092A4
:102A9000A5021092A6020E94B60B6B017C014B01AD
:102AA0005C0128EB820E2BE0921EA11CB11C0E943F
:102AB000B60B6C157D058E059F0528F086169706CA
:102AC000A806B906A0F768EE73E080E090E00E94E7
:102AD0007C0BE0911402F091150282E08083E0917A
:102AE0001002F09111021082E0911202F091130293
:102AF00080E1808310921C02E0911802F09119028B
:102B000086E08083E0911602F09117028081806157
:102B10008083E0911602F0911702808188608083A3
:102B2000E0911602F0911702808180688083E09125
:102B30001602F091170280818F7D80830E94B60B70
:102B40006093A3027093A4028093A5029093A602BF
:102B500060E471E084E092E00E9445140E94B60BAC
:102B60006B017C014B015C013AE0830E911CA11CBE
:102B7000B11C0E94B60B6C157D058E059F0528F0D3
:102B800086169706A806B906A0F781E08093B702DB
:102B900020E030E080E80FB6F89480936100209345
:102BA00061000FBE8091050390910603892B41F5CA
:102BB0002091ED023091EE02C901079697FD07962C
:102BC00013E0959587951A95E1F72091EB023091E6
:102BD000EC02AC01429FC001439F900D529F900DAB
:102BE00011240E94BF1A9093060380930503892B3A
:102BF00039F460E975E084E092E00E94A314FFCF0D
:102C00000E9467102091ED023091EE028091EB025C
:102C10009091EC0221323105A4F0B90160547109A0
:102C200077FF02C06F5F7F4F759567958255910959
:102C300097FD019600E410E022E530E040ED52E01F
:102C400013C0B9016052710977FF02C06F5F7F4FF7
:102C5000759567958357910997FD019600E210E0FD
:102C600023E730E040EF50E0959587950E9487106C
:102C700082E0809308038091030390910403892BE1
:102C800081F18CE380930703109267011092660133
:102C90001092E1011092030280917E008F7C80935C
:102CA0007E001092DF0181E08093DE011092B90175
:102CB00061E082E10E945C0B61E083E10E945C0BB9
:102CC0008091B9008E7F8093B9008091B9008D7F8B
:102CD0008093B90088E48093B80085E48093BC00B9
:102CE000B6C080910C030E940B1180910D030E94CD
:102CF0000B1180910C03082E000C990BFC01E55080
:102D0000F54FE491F0E0EE0FFF1FED51F54F2591E7
:102D100034913093140320931303FC01EA5EF44FC3
:102D2000E491E093190380910D03082E000C990B98
:102D3000FC01E550F54FE491F0E0EE0FFF1FED517F
:102D4000F54FA591B491B0931603A0931503FC0120
:102D5000EA5EF44FE491E0931A038C91E82BEC9334
:102D60008091010390910203892B89F1CFB7F894E8
:102D700080916801811124C0E5E0FBE08491E0E2EC
:102D8000FBE09491E82FF0E0EE0FFF1FE151F54FCB
:102D9000A591B491EC91E92321F461E08AE00E94CD
:102DA0005C0B8AE00E940B118CB580618CBD8CB5E8
:102DB00080648CBD8DE00E940B118BE00E940B1192
:102DC000809168018F5F80936801CFBF40C0809180
:102DD0000A030E940B1180910B030E940B1180913A
:102DE0000A03082E000C990BFC01E550F54FE49105
:102DF000F0E0EE0FFF1FED51F54F25913491309328
:102E0000100320930F03FC01EA5EF44FE491E0937A
:102E1000170380910B03082E000C990BFC01E55061
:102E2000F54FE491F0E0EE0FFF1FED51F54FA59146
:102E3000B491B0931203A0931103FC01EA5EF44F26
:102E4000E491E09318038C91E095E823EC93809152
:102E50000E0387FD1DC00E940B1161E080910E03DF
:102E60000E945C0B61E070E080E090E00E947C0BCF
:102E700060E080910E030E945C0B6AE070E080E0ED
:102E800090E00E947C0B61E080910E030E945C0B3D
:102E90008091030390910403892BD1F020911D03AD
:102EA00030911E0340911F035091200360E074E2B3
:102EB00084EF90E00E94971ADA01C9014097A109B6
:102EC000B109B695A795979587958093B80016C0D8
:102ED0008091010390910203892B31F080911B03B3
:102EE00090911C030E94780CE0911503F091160359
:102EF000908180911A0380958923808364E08CEE11
:102F000090E00E947A0E6091ED02615087EE92E0AF
:102F10000E94150C64E088EE90E00E947A0E809189
:102F20000803813011F064E101C060E187EE92E0B6
:102F30000E94150C64E084EE90E00E947A0E80916D
:102F4000EB029091EC0280389105E9F48091ED025A
:102F50009091EE028032910531F464E080EE90E0D1
:102F60000E947A0E29C08034910531F563E08DED21
:102F700090E00E947A0E80910803813011F06FEC8E
:102F800017C06FE915C080369105B1F48091ED024C
:102F90009091EE02409781F463E08AED90E00E9408
:102FA0007A0E80910803813011F06FEA01C060E170
:102FB00087EE92E00E94150C69ED87EE92E00E9488
:102FC000150C80910803813011F061EF01C062E2BD
:102FD00087EE92E00E94150C66E084ED90E00E947E
:102FE0007A0E8091030390910403892BD1F02091F4
:102FF000210330912203409123035091240360E088
:1030000074E284EF90E00E94971ADA01C9014097B8
:10301000A109B109B695A795979587958093B800B2
:1030200011C0E0911503F0911603908180911A036D
:10303000892B80838091010390910203892B11F0E9
:103040000E940C0C64E670E080E090E00E947C0B33
:103050000E942F0F60ED77E080E090E00E947C0BF3
:103060000E94671021E030E04AE050E06AE070E042
:1030700087EE92E00E94B9060E942F0F84EF482E3F
:1030800055245394612C712C33243394C1E0D0E047
:1030900097E0292E09E110E00E94B60B672B682B00
:1030A000692B41F40E94B60B6230710581059105D0
:1030B00008F4FAC00E94B60BC0906901D0906A0172
:1030C000E0906B01F0906C016C157D058E059F05FD
:1030D00040F46093690170936A0180936B0190934F
:1030E0006C01C0906901D0906A01E0906B01F09092
:1030F0006C019B01AC012C193D094E095F09690166
:103100007A013AEFC316D104E104F10408F4CCC00B
:103110006093690170936A0180936B0190936C01D5
:103120004092AF025092B0026092B1027092B2022D
:103130001092B3021092B4021092B5021092B6022D
:103140008091A7029091A802A091A902B091AA0231
:103150008093AB029093AC02A093AD02B093AE0209
:103160000E94B60B6093A7027093A8028093A902F5
:103170009093AA020E94B60B6093A3027093A402DC
:103180008093A5029093A6020E94B60B6B017C016E
:1031900062E571E084E092E00E9445142AE041E09B
:1031A00050E060E070E084E092E00E945A1469E52B
:1031B00071E084E092E00E9445142AE0B701A60184
:1031C00084E092E00E945A146BE571E084E092E0A2
:1031D0000E9445148091A7029091A802A091A90293
:1031E000B091AA02B701A601481B590B6A0B7B0BD1
:1031F0002AE084E092E00E945A146BE571E084E0DA
:1032000092E00E9445144091A7025091A80260915B
:10321000A9027091AA028091AB029091AC02A09198
:10322000AD02B091AE02481B590B6A0B7B0B2AE032
:1032300084E092E00E945A146DE571E084E092E02F
:103240000E9445140E94B60BAB01BC012AE084E049
:1032500092E00E945A146FE571E084E092E00E94CF
:1032600045146FE471E084E092E00E9445140E94EE
:10327000B60B6B017C014B015C0142E0840E911C9A
:10328000A11CB11C0E94B60B6C157D058E059F0517
:1032900008F0A2C00E94B60B6093A7027093A80228
:1032A0008093A9029093AA020E9467100E9467105F
:1032B0003092FB02D093FA02C093F902D093F80245
:1032C000C093F7021092F4021092F3021092F602E9
:1032D0001092F5026AEA75E087EE92E00E94A3146C
:1032E0001092F8021092F702D093FA02C093F902FA
:1032F0002AE043E050E060E070E087EE92E00E9458
:103300005A146EE287EE92E00E942D0A2AE041E014
:1033100050E060E070E087EE92E00E945A142AE0EC
:1033200044E050E060E070E087EE92E00E945A14C2
:103330006FE471E087EE92E00E9445142092FB0258
:10334000D093FA02C093F902D093F802C093F70227
:10335000C0900001D09001010D2C000CEE08FF0878
:10336000F7FE0EC06DE287EE92E00E942D0A442720
:103370005527BA014C195D096E097F092AE003C07F
:103380002AE0B701A60187EE92E00E945A146FE48A
:1033900071E087EE92E00E944514809100019091C7
:1033A0000101019790930101809300010E942F0F6A
:1033B00060ED77E080E090E00E947C0B809100015E
:1033C00090910101813A910524F01093010100933D
:1033D00000010E94890660CE86169706A806B906E7
:1033E00008F050CF57CF8CE291E09093E8028093A1
:1033F000E7028091050390910603009711F00C9469
:10340000571B0895E4E0F2E01382128248EE53E085
:1034100060E070E044835583668377838CE091E0BD
:103420009183808385EC90E09587848784EC90E09D
:103430009787868780EC90E0918B808B81EC90E081
:10344000938B828B82EC90E0958B848B86EC90E062
:10345000978B868B118E128E138E148EE1EAF2E01A
:103460001682178210861186128613861486158698
:1034700016861786108A118A128A138A148A158A68
:10348000A5E2B3E013961C921E92129714964D93E8
:103490005D936D937C9317978CE191E011969C93CB
:1034A0008E93E7EEF2E01382128220E830E035835B
:1034B000248380E490E097838683318720879387F5
:1034C0008287158A158614861786168681E0848B76
:1034D0002FEF3FEF338B228B318B208B868B178A1C
:1034E000118E108E8CE291E091838083138E128E68
:1034F000B58FA48F178E168E8FEF83A384A385A319
:1035000086A384E087A380E584AB15AA80E89AE1CE
:10351000A6E0B0E086AB97ABA0AFB1AF80EA96E88B
:10352000A1E0B0E082AF93AFA4AFB5AF0895A1E240
:103530001A2EAA1BBB1BFD010DC0AA1FBB1FEE1F2D
:10354000FF1FA217B307E407F50720F0A21BB30B78
:10355000E40BF50B661F771F881F991F1A9469F7F4
:1035600060957095809590959B01AC01BD01CF0150
:103570000895EE0FFF1F0590F491E02D09940F932D
:103580001F93CF93DF938230910510F482E090E097
:10359000E0913303F091340320E030E0A0E0B0E0AC
:1035A000309719F1408151810281138148175907E1
:1035B000C8F08417950769F4109731F012960C93B0
:1035C000129713961C9327C0009333031093340370
:1035D00022C02115310519F04217530718F49A013A
:1035E000BD01EF01DF01F801DBCF21153105F9F055
:1035F000281B390B2430310580F48A819B816115A9
:10360000710521F0FB019383828304C090933403FE
:1036100080933303FE01329644C0FE01E20FF31F94
:103620008193919322503109398328833AC02091A4
:10363000310330913203232B41F420910401309166
:103640000501309332032093310320910201309120
:1036500003012115310541F42DB73EB74091060114
:1036600050910701241B350BE0913103F091320397
:10367000E217F307A0F42E1B3F0B2817390778F049
:10368000AC014E5F5F4F2417350748F04E0F5F1FA8
:1036900050933203409331038193919302C0E0E051
:1036A000F0E0CF01DF91CF911F910F910895CF935B
:1036B000DF93009709F481C0FC01329713821282D4
:1036C000A0913303B0913403109781F420813181AC
:1036D000820F931F2091310330913203281739074D
:1036E00051F5F0933203E093310367C0ED0120E020
:1036F00030E0CE17DF0740F44A815B819E0141151F
:103700005105F1F0EA01F5CFD383C28340815181A5
:10371000840F951FC817D90759F488819981840FA0
:10372000951F0296918380838A819B8193838283F4
:103730002115310529F4F0933403E09333033DC0A0
:10374000E901FB83EA8349915991C40FD51FEC1716
:10375000FD0761F480819181840F951F0296E90134
:1037600099838883828193819B838A83E0E0F0E060
:1037700012968D919C911397009719F0FD01DC0131
:10378000F7CF8D919C9111979D012E5F3F4F820F36
:10379000931F20913103309132032817390769F4C0
:1037A000309729F4109234031092330302C013822D
:1037B0001282B0933203A0933103DF91CF91089529
:1037C00081E090E0F8940C94EC1BDC0101C06D9357
:1037D00041505040E0F7089515E0CCE9D5E004C031
:1037E000FE010E94B91A2196CD39D107C9F7F89484
:0237F000FFCF09
:1037F2000A00000035038000000000002006FA0DD8
:10380200E905C705DB056706000000006D094009F0
:10381200380929091B091A09000000002D0AFA0DAE
:10382200B90645089E09E209F607940777077B0C5B
:10383200564D4450565F317C315F564D4450560DC3
:103842000A00564D4450455F003A323A007C005F10
:06385200564D44504500F4
:040000000C94003A22
:1074000011248FEF98E09EBF8DBF94B714BE892FD3
:107410008D7011F0892FE0D190E89093F20083E90C
:107420008093F2009093610081E08093610096BFA9
:107430008CE486BF85E08093810088E18093C10061
:1074400086E08093C20080E18093C4008DE0AED1DD
:10745000259A96E020E33CEF51E040E2309385002E
:107460002093840056BBB09BFECF85B1842785B99D
:10747000A895915099F7662477244301CC24DD2404
:1074800064E9A62E51E0252E312C412C512C7DD1C2
:10749000813461F47AD1182F8FD1123829F1113843
:1074A00011F485E001C083E068D164C1823411F435
:1074B00084E103C0853419F485E086D15BC185354C
:1074C00079F463D1E82EFF2460D1082F10E0102F4B
:1074D00000270E291F29000F111F6ED168014AC114
:1074E000863521F484E070D180E0DECF843609F067
:1074F000C5C04BD190E0F82EEE2447D1E80EF11C28
:1075000044D1B82EE70100E011E03FD1F8018193AA
:107510008F012197D1F711BC8D2D992782BD82B59E
:1075200086958695282FD401C301022E04C0B695F6
:10753000A795979587950A94D2F780FD15C0F6E434
:10754000BF1691F4D201C10104C0880F991FAA1F70
:10755000BB1F2A95D2F7682A792A8A2A9B2AAFBAB2
:1075600082E98FBB0000000027D1E5E4BE16B1F42C
:10757000960110C021BD2F5F3F4F832F992782BDF9
:10758000C050DF4F888180BDF4E0FFBB82E08FBB3D
:10759000CF5FD040CE15DF0568F3DBC0C114D10446
:1075A00009F04EC06091000170910101872F90E0B9
:1075B000982F8827262F30E0822B932B90938501DC
:1075C000809384014091020150910301852F90E046
:1075D000982F8827242F30E0822B932B90938701BC
:1075E00080938601209118018091190190E0982FD5
:1075F000882730E0822B932B909389018093880118
:1076000020911A0180911B0190E0982F882730E08B
:10761000822B932B90938B0180938A0160931801A6
:107620007093190140931A0150931B018CE08093D1
:107630000001A092010110920201EAE3E09303012C
:10764000E0E0F1E011BC808180BD81E081BD8181FD
:1076500080BD82E081BD828180BD83E081BD838168
:1076600080BD8E2F8C0D81BD84EA8FBB82EA8FBBDB
:10767000349681E0E038F80729F77CC0843709F0B8
:107680006BC083D090E0F82EEE247FD0E80EF11C82
:107690007CD0182F91D0153489F4E6018701C1BD43
:1076A00021968D2F992782BDE1E0EFBB00000000FD
:1076B00080B563D00150104091F74BC0E6018701BF
:1076C000209729F480918401909185013CC0C130BC
:1076D000D10529F480918401909185010FC0C230B9
:1076E000D10529F480918601909187012CC0C33087
:1076F000D10539F48091860190918701892F9927CE
:1077000022C0C831D10529F4809188019091890166
:107710001AC0C931D10529F480918801909189015D
:10772000EDCFCA31D10529F480918A0190918B0166
:107730000AC0CB31D10529F480918A0190918B0147
:10774000DDCFFE018491219618D00150104009F040
:10775000B7CFCE0CDF1C0EC0853739F42DD08EE1AB
:107760000CD085E90AD08FE09FCE813511F48CE0F2
:107770001DD022D080E101D08ACE982F8091C00008
:1077800085FFFCCF9093C60008958091C00087FFCD
:10779000FCCF8091C00084FD01C0A8958091C600F7
:1077A00008959AE29A95F1F708950895E0E6F0E0D9
:1077B00098E1908380830895E8DF803219F08DE0AE
:1077C000F5DFFFCF84E1D9CF1F93182FDEDF1150F3
:1077D000E9F7F2DF1F910895282E80E0E7DFECE063
:0477E000FF270994E2
:0277FE00000584
:040000030000740085
:00000001FF