:100000000C9463000C948B000C948B000C948B006C
:100010000C948B000C948B000C948B000C948B0034
:100020000C948B000C948B000C948B000C948B0024
:100030000C948B000C948B000C948B000C948B0014
:100040000C9416080C948B000C948B000C948B0071
:100050000C948B000C948B000C948B000C948B00F4
:100060000C9460080C948B00000000002300260014
:10007000290000000008000201000003040700003E
:1000800000000000000000000000250028002B00F8
:1000900000000000240027002A00040404040404D3
:1000A0000404020202020202030303030303010227
:1000B00004081020408001020408102001020408F6
:1000C00010207F09A00F11241FBECFEFD8E0DEBFA4
:1000D000CDBF24E0A0EFB1E001C01D92AB32B2076A
:1000E000E1F711E0A0E0B1E0E6E8F4E202C005903B
:1000F0000D92A03FB107D9F710E0C2E6D0E004C0EE
:100100002197FE010E943910C136D107C9F70E941C
:10011000290A0C9436120C9400002091B80281E058
:10012000213208F044C0809194028111FCCF80916B
:10013000B70292E09093940291E0909393029FEF24
:10014000909392021092910220939002A7E9B2E05C
:10015000E0E7F2E090E0291331C010926F02909135
:100160006F02880F892B80936F0280916E0281301D
:1001700049F510926E0280916F028093BB008091CE
:10018000BC0083FDF8CF85EC8093BC008091940285
:100190008230E1F3809192028F3FB1F08091920220
:1001A0008032A1F080919202803391F084E010922D
:1001B00096021092B8021092950208953D913193E3
:1001C0009F5FC9CF85EEE0CF80E0F1CF82E0EFCF37
:1001D00083E0EDCF08950895CF93DF9390E0FC0185
:1001E000E255FF4F249186569F4FFC01849188234E
:1001F000C1F090E0880F991FFC01E057FF4FC591B7
:10020000D491FC01EA57FF4FA591B4919FB7F894A0
:100210008881E22FE0958E2388838C91E823EC93EC
:100220009FBFDF91CF910895AF92BF92CF92DF929F
:10023000EF92FF920F931F93CF93DF936C017B019B
:100240008B01040F151FEB015E01AE18BF08C0172C
:10025000D10759F06991D601ED91FC910190F0819F
:10026000E02DC6010995892B79F7C501DF91CF9162
:100270001F910F91FF90EF90DF90CF90BF90AF90C4
:1002800008950895833081F028F4813099F0823008
:10029000A9F008958730A9F08830C9F08430B1F40E
:1002A000809180008F7D03C0809180008F77809344
:1002B0008000089584B58F7784BD089584B58F7DBF
:1002C000FBCF8091B0008F778093B000089580912C
:1002D000B0008F7DF9CFCF93DF93282F30E0F90165
:1002E000EE58FF4F8491F901E255FF4FD491F90187
:1002F000E656FF4FC491CC23A1F081110E94420128
:10030000EC2FF0E0EE0FFF1FE859FF4FA591B491DD
:10031000EC91ED2381E090E009F480E0DF91CF9152
:10032000089580E090E0FACF1F93CF93DF93282FBA
:1003300030E0F901EE58FF4F8491F901E255FF4F8B
:10034000D491F901E656FF4FC491CC23A9F0162FA2
:1003500081110E944201EC2FF0E0EE0FFF1FEA57DF
:10036000FF4FA591B4918FB7F894EC91111108C08B
:10037000D095DE23DC938FBFDF91CF911F9108953D
:10038000DE2BF8CF10926D0210926C021092960242
:100390001092B8021092940281E08093930210921E
:1003A0006E0261E082E10E94940161E083E10E94BB
:1003B0009401E9EBF0E080818E7F808380818D7FE6
:1003C000808388E48093B80085E48093BC008AEE43
:1003D00090E090936B0280936A028BEE90E0909392
:1003E00069028093680208953FB7F894809158029B
:1003F00090915902A0915A02B0915B0226B5A89B38
:1004000005C02F3F19F00196A11DB11D3FBFBA2FA6
:10041000A92F982F8827BC01CD01620F711D811D66
:10042000911D42E0660F771F881F991F4A95D1F7EB
:1004300008958F929F92AF92BF92CF92DF92EF92E8
:10044000FF926B017C010E94F4014B015C01C1141D
:10045000D104E104F104B9F00E94F40168197909AA
:100460008A099B09683E73408105910580F321E06C
:10047000C21AD108E108F10888EE880E83E0981EC0
:10048000A11CB11CE4CFFF90EF90DF90CF90BF9004
:10049000AF909F908F900895CF93DF93EC01E09100
:1004A000D902F091DA028081882359F088818F3F48
:1004B00041F08F5F88836AE070E080E090E00E9406
:1004C0001902E091DB02F091DC028081882369F05F
:1004D0008881882351F0815088836AE070E080E051
:1004E00090E0DF91CF910C941902DF91CF910895A4
:1004F0002FB7F89460915402709155028091560282
:10050000909157022FBF089521E001C0220F6A95F4
:10051000EAF7DC011C962C931C971A965C934E9379
:100520001997ED91FC910484F585E02D60E0099424
:10053000DC01ED91FC910684F785E02D41E0099501
:1005400081E090E00895DC01ED91FC910684F7854F
:10055000E02D40E009940F931F93CF93DF93CDB725
:10056000DEB728970FB6F894DEBF0FBECDBF00915F
:1005700006011091070120910801309109010D83B6
:100580001E832F83388700910A0110910B0120915F
:100590000C0130910D0109831A832B833C839091C8
:1005A0001504691710F06FEF690F262F30E04091A6
:1005B00016042C0F3D1FF901403199F4943089F451
:1005C0006181680F60688EE094E028960FB6F89419
:1005D000DEBF0FBECDBFDF91CF911F910F910C9465
:1005E000A3026581EECF61E00E94A3028BE39FE14D
:1005F0000197F1F70895E091D902F091DA02808134
:10060000882311F18091CB022091E7023091E8021A
:1006100082171306CCF49091CC029923A9F0909103
:10062000CD02911111C08F5F8093CB020E9478029E
:100630006093D3027093D4028093D5029093D60234
:100640008EE094E00E94F302E091DB02F091DC0284
:1006500080818823E9F08091CB028230C8F09091AC
:10066000CC029923A9F09091CD02911111C0815033
:100670008093CB020E9478026093D3027093D402DD
:100680008093D5029093D6028EE094E00E94F3020C
:10069000E091DD02F091DE028081882371F080918B
:1006A000CD0281110AC00E9478026093D302709338
:1006B000D4028093D5029093D6020E947802AB01B7
:1006C000BC018091D3029091D402A091D502B09147
:1006D000D60288539045AF4FBF4F84179507A607A2
:1006E000B70758F48091CD02811107C01092C8025B
:1006F0001092C90281E08093CB02E091D902F0917F
:10070000DA028081811107C0E091DB02F091DC0206
:100710008081882329F01092CC028091CB02089529
:1007200081E08093CC02F9CF0F931F93CF93DF9397
:10073000EC01423018F08C8188608C834F8368878D
:10074000222329F0413019F48C8184608C8364E683
:1007500070E080E090E00E9419026C8164FD57C057
:10076000E881F9810684F785E02D42E063E0CE015F
:1007700009958BE496E40197F1F7E881F981068405
:10078000F785E02D42E063E0CE01099503E512E034
:10079000C8010197F1F7E881F9810684F785E02D1A
:1007A00042E063E0CE010995C8010197F1F7E881C5
:1007B000F9810684F785E02D42E062E0CE010995DB
:1007C000C8010197F1F76C816062CE010E94A3021B
:1007D0008BEE90E00197F1F784E08D836CE0CE0121
:1007E0000E94A302CE010E94F30282E08E8366E0A3
:1007F000CE010E94A302E881F9810484F585E02DF1
:100800006FEFCE01DF91CF911F910F91099460623C
:10081000CE010E94A3028BE496E40197F1F76C816C
:100820006062CE010E94A30203E512E0C8010197B5
:10083000F1F76C816062CE010E94A302C1CF0895DE
:100840000895089585ED8093BC008091BC0084FDDF
:10085000FCCF10929402089520913002260F332786
:10086000331F21323105ECF420919402FC0190E019
:1008700080E0243069F082E00895A0913002219157
:10088000AC01405F5D4FA40FB52FB11D2C930196B5
:10089000861798F380913002680F6093300280E0F1
:1008A000089581E008950895E0916D0280916C02B1
:1008B000E81730F4F0E0E051FE4F808190E00895B9
:1008C0008FEF9FEF089590916D0280916C022FEF52
:1008D0003FEF981748F4E92FF0E0E051FE4F2081F8
:1008E00030E09F5F90936D02C901089580916C0282
:1008F00090916D02891B990B0895CF92DF92EF9230
:10090000FF920F931F93CF93DF937C01CB018A015A
:1009100020919502222389F0EB016B01C40ED51EB4
:10092000CC15DD0569F06991D701ED91FC9101903D
:10093000F081E02DC7010995F3CF642F0E942C04AC
:10094000C801DF91CF911F910F91FF90EF90DF9041
:10095000CF900895CF93DF931F92CDB7DEB7698311
:10096000209195022223F9F02091B802203258F00C
:1009700021E030E0FC013383228390E080E00F909F
:10098000DF91CF91089580919602E82FF0E0E9562B
:10099000FD4F998190838F5F809396028093B80278
:1009A00081E090E0ECCF61E0CE0101960E942C0442
:1009B000F7CFFC0123812223F1F0262F618160957E
:1009C00062236083828191E0909395028093B702C5
:1009D000109296021092B80289EB92E00E94AA044B
:1009E0000E948D00282F30E081E090E0232B11F051
:1009F00090E080E0089530E020E0F6CFEF92FF92A3
:100A00000F931F93CF938C01FC0184E0C0E0262F4D
:100A100030E060FF02C09589C92BB90175956795D3
:100A2000815031968111F3CF413011F4F80144899E
:100A3000F8016585C62BC42B7801FEE0EF0EF11C92
:100A4000F80162896C2BC7010E94D904F801628900
:100A500060956C23C701CF911F910F91FF90EF908C
:100A60000C94D9040F931F93CF93DF93062F0F702D
:100A7000423041F440E0602FDF91CF911F910F9100
:100A80000C94FE04142FEC0170E084E075956795DA
:100A90008A95E1F7CE010E94FE04412F602FCE011E
:100AA000EBCFFC0184858823A1F0218532852115B7
:100AB000310521F4611107C0158606C021303105CA
:100AC000D9F76111F9CF85876585CF010E960C9412
:100AD000D9040895EF92FF920F931F93CF93DF9362
:100AE000EC01062FF42EE22E8B85888B0E94C2012A
:100AF000888911E0109395028093B70210929602B4
:100B00001092B8020E948D0081111CC0198B89EBD4
:100B100092E00E9463048E878989882339F01F86BA
:100B20001C8260E0CE010E960E94D9042E2D4F2D1E
:100B3000602FCE01DF91CF911F910F91FF90EF9029
:100B40000C949403198AE8CF90E080E0089508950A
:100B5000FC0144815581608171818EE094E00C94A8
:100B600014010F931F93CF93DF9308EC12E0C1E0C1
:100B7000D0E00D5E1F4F8091E7029091E802C81708
:100B8000D9077CF48091E5029091E6028C0F9D1FBD
:100B90000E94EC0FD8019B96ED91FC9180832196E9
:100BA000E8CFDF91CF911F910F9108950F931F937D
:100BB000CF93DF93EC0188819981009759F02A81C6
:100BC0003B812617370730F081E0DF91CF911F91ED
:100BD0000F9108958B016F5F7F4F0E946411009702
:100BE00059F0998388831B830A832C813D81232BB1
:100BF00059F7FC011082E8CF80E0E7CFEF92FF9237
:100C00000F931F93CF93DF936115710541F480E03B
:100C1000DF91CF911F910F91FF90EF9008954115B3
:100C20005105B1F07B01EC010C811D81040F151FF2
:100C3000B8010E94D605882351F3288139818C811F
:100C40009D81B701820F931F0E942F121D830C8379
:100C500081E0DECFCF93DF93EC018881998100970B
:100C600011F00E94DB10198218821D821C821B82E7
:100C70001A82DF91CF910895CF93DF93EC01FB01AE
:100C800001900020E9F73197AF01461B570B0E94F6
:100C9000FE05811103C0CE010E942A06CE01DF911C
:100CA000CF910895CF93DF93EC01FB0144815581EF
:100CB000608171810E94FE05811103C0CE010E94F6
:100CC0002A06CE01DF91CF910895EF92FF920F9304
:100CD0001F93CF93DF93EC017B018A01BA010E943D
:100CE000D60581110BC0CE010E942A06CE01DF91EC
:100CF000CF911F910F91FF90EF9008951D830C836A
:100D0000B701888199810E942F12F0CFEF92FF9254
:100D10000F931F93CF93DF93CDB7DEB729970FB60D
:100D2000F894DEBF0FBECDBF8C01862FF801118273
:100D3000108213821282158214824AE09E012F5F74
:100D40003F4F7901B90190E00E94C20FF701019075
:100D50000020E9F73197AF014E195F09B701C801CB
:100D60000E94650629960FB6F894DEBF0FBECDBF70
:100D7000DF91CF911F910F91FF90EF900895CF9346
:100D8000DF93EC01FB018617970749F060817181C1
:100D90006115710541F0448155810E946506CE01BF
:100DA000DF91CF9108950E942A06F9CFFC011182AC
:100DB000108213821282158214820C94BF06FC01E9
:100DC000118210821382128215821482FB0101901B
:100DD0000020E9F73197AF01461B570B0C946506CD
:100DE000FC01808191810C94DB105F926F927F9265
:100DF0008F929F92AF92BF92CF92DF92EF92FF922B
:100E00000F931F93CF93DF93CDB7DEB72C970FB619
:100E1000F894DEBF0FBECDBF4C015B013A01502EEE
:100E200088ECE82E82E0F82EF701C78CD0A0B9013B
:100E3000CE0101960E94D606B301CE0107960E940C
:100E4000D60683E18C9D80018D9D100D1124C80173
:100E500088539D4F6C01FC0194A283A2BE01695F7F
:100E60007F4FC80183519D4F0E94BF06F601B4A673
:100E7000A3A653AABE016F5F7F4FC8018B509D4F41
:100E80000E94BF06CE0107960E94F006CE01019691
:100E90000E94F006F701878D90A1019690A3878F9D
:100EA0002C960FB6F894DEBF0FBECDBFDF91CF9169
:100EB0001F910F91FF90EF90DF90CF90BF90AF9078
:100EC0009F908F907F906F905F900895CF93DF9366
:100ED00000D000D000D0CDB7DEB764E371E0CE0122
:100EE00001960E94DF06CE0101960E94A805CE0160
:100EF00001960E94F00626960FB6F894DEBF0FBE4C
:100F0000CDBFDF91CF910895CF93DF9300D000D074
:100F100000D0CDB7DEB76AE371E0CE0101960E9442
:100F2000DF06CE0101960E94A805CE0101960E941F
:100F3000F00626960FB6F894DEBF0FBECDBFDF9148
:100F4000CF910895CF93DF9300D000D000D0CDB7DC
:100F5000DEB760E471E0CE0101960E94DF06CE01AB
:100F600001960E94A805CE0101960E94F0062696E1
:100F70000FB6F894DEBF0FBECDBFDF91CF910895BD
:100F8000CF93DF9300D000D000D0CDB7DEB761E0C3
:100F900080E00E94AB0267E471E0CE0101960E94FE
:100FA000DF06CE0101960E94A805CE0101960E949F
:100FB000F00626960FB6F894DEBF0FBECDBFDF91C8
:100FC000CF910895CF93DF9300D000D000D0CDB75C
:100FD000DEB76DE471E0CE0101960E94DF06CE011E
:100FE00001960E94A805CE0101960E94F006269661
:100FF0000FB6F894DEBF0FBECDBFDF91CF9108953D
:101000001F93CF93DF93EC01162F0E94EC0F18175C
:1010100049F0612FCE010E94F40F81E0DF91CF9162
:101020001F91089580E0FACF0E9421121F920F9223
:101030000FB60F9211242F933F938F939F93AF93EB
:10104000BF938091540290915502A0915602B091A5
:1010500057023091530223E0230F2D3758F50196A4
:10106000A11DB11D20935302809354029093550209
:10107000A0935602B0935702809158029091590262
:10108000A0915A02B0915B020196A11DB11D8093FF
:10109000580290935902A0935A02B0935B02BF91F9
:1010A000AF919F918F913F912F910F900FBE0F9015
:1010B0001F90189526E8230F0296A11DB11DD2CFCF
:1010C0001F920F920FB60F9211242F933F934F93BD
:1010D0005F936F937F938F939F93AF93BF93EF93A0
:1010E000FF938091B900887F803609F44AC0F0F5FB
:1010F000883209F4A7C018F5803109F49BC0B8F410
:10110000882309F4F9C0883009F494C0FF91EF9165
:10111000BF91AF919F918F917F916F915F914F910F
:101120003F912F910F900FBE0F901F90189588310F
:1011300009F488C0803251F78093920214C0803441
:1011400009F49DC040F48033B9F38833F9F68093F5
:10115000920285ECB0C0803509F485C0883509F469
:1011600096C0883499F60E942204D0CF883909F4B9
:101170008CC038F5883729F050F4883611F0803764
:1011800029F683E0809394021092520257C0883867
:1011900009F47BC0803919F0803809F0B7CF80910D
:1011A0005202803208F071C0E091520281E08E0F4D
:1011B000809352028091BB00F0E0EE5CFD4F808393
:1011C0003DC0803B39F0E0F4803A09F479C0883AB8
:1011D00009F09CCF84E08093940210923102109227
:1011E0003002E0916A02F0916B0209958091300221
:1011F00081110FC081E0809330021092100209C06B
:10120000803C09F4A6CF883C09F4A3CF883B09F0C1
:101210007DCFE091310281E08E0F80933102F0E0CA
:10122000E05FFD4F80818093BB00909131028091FF
:10123000300229C080916F028093BB0085EC8093BF
:10124000BC0064CF9091910280919002981758F55C
:10125000E091910281E08E0F80939102F0E0E059DD
:10126000FD4F8081E9CFE091910281E08E0F809364
:1012700091028091BB00F0E0E059FD4F8083909196
:101280009102809190029817C8F285E8D8CFE0913A
:10129000910281E08E0F809391028091BB00F0E07B
:1012A000E059FD4F80838091930281115CCF81E0F2
:1012B00080936E0284EA8093BC001092940226CF41
:1012C00085EC8093BC00109294028091520280328F
:1012D00030F4E0915202F0E0EE5CFD4F108260913C
:1012E000520270E0E0916802F091690282E392E0BC
:1012F0000995109252020ACF1092920234CFCF93E6
:10130000DF931092BC021092BB0288EE93E0A0E043
:10131000B0E08093BD029093BE02A093BF02B09351
:10132000C00282E191E09093BA028093B9021092D8
:1013300011041092100484E291E090930F048093C2
:101340000E0410921E048FEF80931D0410921C0453
:1013500010921F0487E28093190410921A041092CD
:101360001B04109218041092170484E08093200448
:1013700082E080932104C1E0C093220480E1809345
:10138000230480E28093240480E48093250480E891
:101390008093260450E040E063E08EE094E00E94F9
:1013A000840263E571E088E094E00E94DF06109219
:1013B000C8021092C9021092CA02C093CB021092C6
:1013C000CC021092CD021092CE021092D70210924F
:1013D000D8021092E1021092E4028AE090E0909329
:1013E000E6028093E50282E090E09093E802809329
:1013F000E70281E090E09093EA028093E902D0E076
:10140000C0E063E671E0CE0183519D4F0E94DF068C
:1014100063E671E0CE018B509D4F0E94DF0663961C
:10142000CD3181E0D80769F787EC92E09093DA023A
:101430008093D90286EC92E09093DC028093DB02E9
:1014400085EC92E09093DE028093DD02DF91CF91F4
:101450000895CF93DF93CDB7DEB7A4970FB6F89476
:10146000DEBF0FBECDBF789484B5826084BD84B5E5
:10147000816084BD85B5826085BD85B5816085BD8F
:1014800080916E00816080936E0010928100809147
:1014900081008260809381008091810081608093CF
:1014A0008100809180008160809380008091B100F4
:1014B00084608093B1008091B00081608093B0001F
:1014C00080917A00846080937A0080917A008260B3
:1014D00080937A0080917A00816080937A00809175
:1014E0007A00806880937A001092C1000E94C20145
:1014F0008CE08093B80064EF71E080E090E00E949F
:10150000190220E042E060E18EE094E00E946A056A
:1015100068EE73E080E090E00E94190220E042E073
:1015200060E18EE094E00E946A0564EF71E080E083
:1015300090E00E94190261E08EE094E00E94510563
:101540000E94B10564EF71E080E090E00E94190212
:1015500064E671E09E012F5F3F4F7901C9010E944F
:10156000DF066E0133E1C30ED11C68E671E0C601EF
:101570000E94DF0601E09701A60161E672E086E6BF
:1015800097E00E94F506C6010E94F006C7010E947E
:10159000F00664E671E0C7010E94DF066DE671E0C7
:1015A000C6010E94DF069701A60160E672E084E8AA
:1015B00097E00E94F506C6010E94F006C7010E944E
:1015C000F00663E771E0C7010E94DF0669E771E09A
:1015D000C6010E94DF069701A6016FE572E082EA6C
:1015E00097E00E94F506C6010E94F006C7010E941E
:1015F000F0066EE771E0C7010E94DF0662E871E065
:10160000C6010E94DF0600E09701A6016EE572E0C8
:1016100080EC97E00E94F506C6010E94F006C70123
:101620000E94F0066EE771E0C7010E94DF0669E8DC
:1016300071E0C6010E94DF0601E09701A6016DE599
:1016400072E082EE97E00E94F506C6010E94F00665
:10165000C7010E94F00664E671E0CE0149960E943F
:10166000DF066EE871E0CE014F960E94DF06A09083
:10167000E902B090EA02BE01675E7F4FC6010E9498
:10168000D606BE01615E7F4FC7010E94D60683E188
:101690008A9D80018B9D100D1124C80188539D4F98
:1016A0005C0181E491E0D50194969C938E9393978D
:1016B000B701C80183519D4F0E94BF068CE592E09F
:1016C000F50194A783A79924939493AAB601C8011E
:1016D0008B509D4F0E94BF06C7010E94F006C601B5
:1016E0000E94F006CE014F960E94F006CE01499668
:1016F0000E94F00687EA95E09093E3028093E2026D
:101700009092E4028EE00E94EC008CE00E94EC00DB
:101710008DE00E94EC0090E080E00E94EC0F8130B0
:1017200039F16AE971E0C7010E94DF06C7010E9432
:10173000A805C7010E94F00690E080E00E94EC0F2F
:10174000813029F061E090E080E00E94F40FE091A8
:10175000E202F091E3020995E091E002F091E102EA
:101760008091E5029091E602608101970E94000855
:101770000E94B1055524539413E120E0822E20E00D
:10178000922E01E08EE00E946B0121E0892B09F48A
:1017900020E02093C7028CE00E946B0121E0892B9E
:1017A00009F420E02093C6028DE00E946B0121E045
:1017B000892B09F420E02093C502E091DD02F0912D
:1017C000DE028081811105C08091C802882309F45E
:1017D000A8C30093C80280818111D2C08091C90240
:1017E0008111E8C0E091DD02F091DE02808181117B
:1017F0003BC30E947802AB01BC018091CF02909163
:10180000D002A091D102B091D2028A519F4FAF4F26
:10181000BF4F84179507A607B70738F4E091DD029C
:10182000F091DE028081811161C30E947802AB01D8
:10183000BC018091CF029091D002A091D102B091D1
:10184000D202845D9F44AF4FBF4F84179507A60710
:10185000B70708F44BC30093CA020093C8028091F3
:10186000CA02882309F463C160E080E00E94AB02F1
:101870002091E9023091EA02129FC001139F900D5E
:101880001124FC01E351FD4F5F016EED71E0C701D2
:101890000E94DF06B501C7010E945206BC01C601C5
:1018A0000E94D606C6010E94A805C6010E94F00645
:1018B000C7010E94F0068091E9029091EA02189F08
:1018C000F001199FF00D1124E853FD4F03A0F4A17E
:1018D000E02D09958091E9029091EA02189FF001AC
:1018E000199FF00D1124E853FD4F83A98823C1F1FE
:1018F00061E080E00E94AB028091E9029091EA02EF
:10190000189F5001199FB00C1124F501E853FD4FA9
:1019100003A4F4A5E02D6081C7010E948606B701EB
:10192000C6010E94D60662E671E0C6010E943C062E
:10193000B5016B507D4F0E945206BC01CE01499605
:101940000E94D606CE0149960E94A805CE0149966E
:101950000E94F006C6010E94F006C7010E94F00630
:101960008091E9029091EA02189FF001199FF00D11
:101970001124E853FD4F83A594A50E944C02D7C0C3
:101980000E947802AB01BC018091CF029091D002FD
:10199000A091D102B091D20288579C4EAF4FBF4F59
:1019A00084179507A607B70708F018CF8091CA02D9
:1019B000811114CF8091C902811108C08091CA029F
:1019C000811104C08EE094E00E94F3020E9478022C
:1019D000AB01BC018091CF029091D002A091D102C5
:1019E000B091D2028C59964EAF4FBF4F84179507D6
:1019F000A607B70738F4E091DD02F091DE0280819E
:101A00008111C9C00093C9020093C802E091DD02B0
:101A1000F091DE028081811105C08091C902882386
:101A200009F426C260E080E00E94AB020E94FB0243
:101A30002091E7023091E802821713065CF580914D
:101A4000CE02882309F4FAC00E94FB02682FC60167
:101A50000E94860666EA71E0C7010E94DF06B601B1
:101A6000C7010E94520660EE71E00E943C06BC0174
:101A7000CE0149960E94D606CE0149960E94A8053D
:101A8000CE0149960E94F006C7010E94F006C601E9
:101A90000E94F0068091CD02882309F4F0C01092D4
:101AA000CE028091E4028111F7C00E94FB0290E017
:101AB0000196189FB001199F700D112463517D4F3D
:101AC000C7010E94D606C7010E94A805C7010E944F
:101AD000F0068091CD02811136C10E94FB02209157
:101AE000E7023091E802821713065CF065ED71E0C1
:101AF000C7010E94DF06C7010E94A805C7010E9416
:101B0000F0060E94FB022091E7023091E80221508A
:101B100031098217130609F0A4C18091D8028111FE
:101B200004C08EE094E00E94F3020093D8028091FA
:101B3000C902882309F49CC10E947802AB01BC0150
:101B40008091620290916302A0916402B09165025B
:101B500088579C4EAF4FBF4F84179507A607B7070E
:101B600098F40E94780260936202709363028093FB
:101B700064029093650280916602909167020196DB
:101B800090936702809366028114910409F4FACD60
:101B90000E940000F7CD8091CD02882309F44BC04C
:101BA0000E94FB0288EC682E82E0782EAA24A3947F
:101BB000B12CF3E16F0E711C8091E7029091E80265
:101BC000A816B9068CF4D3019B96ED91FC918091F7
:101BD000E5029091E60260818A0D9B1D0E9400083B
:101BE000BFEFAB1ABB0AE5CF8EE094E00E94F30290
:101BF0006CE370E080E090E00E9419028091CD02D9
:101C000085258093CD020E94FB022091E70230914E
:101C1000E8028217130641F41092C8021092C9021A
:101C20000093CB021092CD0266EE70E080E090E06F
:101C30000E941902EBCE1092D802E0CF0E94FB0264
:101C4000682FC7010E948606B701C6010E94D6060A
:101C500068EA71E0C6010E943C06BC01CE014996CB
:101C60000E94D606CE0149960E94A805CE0149964B
:101C70000E94F006C6010E94F006C70109CF0E942B
:101C8000FB022091E7023091E802821713060CF064
:101C900006CF0093CE0205CF0E94FB022091E702FF
:101CA0003091E802215031098217130609F0FDCE68
:101CB00061E080E00E94AB026AEA71E0C7010E9425
:101CC000DF06C7010E94A805C7010E94F0068091A7
:101CD000CD02882309F401CF60E080E00E94AB02CE
:101CE0006BEB71E0C7010E94DF06C7010E94A805E7
:101CF000C7010E94F006E091D902F091DA028081DA
:101D0000882309F4EACE6DEC71E0C7010E94DF067A
:101D1000C7010E94A805C7010E94F006E091E202F7
:101D2000F091E302099560ED77E080E090E00E9499
:101D300019028091CD0285258093CD028EE094E03A
:101D40000E94F302CACE8091C902882309F4C5CE4D
:101D50000E94FB028A3008F082C087E060E00E94A7
:101D6000AB020E94FB0290E00196189FF001199FC0
:101D7000F00D1124E853FD4F03A0F4A1E02D0995C7
:101D80000E94FB0290E00196189FF001199FF00D50
:101D90001124E853FD4F83A9882309F450C061E062
:101DA00080E00E94AB020E94FB0290E00196189F27
:101DB000F001199FF00D1124E853FD4F03A4F4A581
:101DC000E02D70800E94FB0290E00196189FB00108
:101DD000199F700D11246B507D4FC7010E94D606CC
:101DE00063ED71E0C7010E943C065C014AE0B60168
:101DF000872D90E00E94B70FF60101900020E9F7CF
:101E00003197AF014C195D09B601C5010E94FE056D
:101E1000811103C0C5010E942A0661E671E0C50177
:101E20000E943C06BC01C6010E94D606C6010E9463
:101E3000A805C6010E94F006C7010E94F0060E9494
:101E4000FB0290E00196189FF001199FF00D1124FC
:101E5000E853FD4F83A594A50E944C023ECE84E03A
:101E60007DCF1092D80263CE8091CA028111C1CC7D
:101E70008091CA02811160CE61E00E94AB02809124
:101E80006602909167021C8A1B8A1E8A1D8A188E20
:101E90001F8A4AE0B7010E94B70FF70101900020A6
:101EA000E9F73197AF014E195F09B701C6010E94EA
:101EB000650662EE71E0CE0149960E94DF06B6012A
:101EC000CE0149960E945206BC01C7010E94D60667
:101ED000C7010E94A805C7010E94F006CE014996DD
:101EE0000E94F006C6010E94F00626CE1092CA0299
:101EF0001092C802E091E002F091E1028091E502C7
:101F00009091E602608101970E9400088EE094E0C3
:101F10000E94F30268EC70E080E090E00E941902F9
:101F20009ECC0E9478026093CF027093D00280937F
:101F3000D1029093D2021092CA021092C902F7CD38
:101F4000CF93DF93C8E0D4E06397CE010A960E9456
:101F5000F006CE0102960E94F00682E0CB3ED80742
:101F600099F788E094E0DF91CF910C94F006BB27BD
:101F70004A3031F4992322F4BDE2909581959F4F28
:101F80000C94C30FBB27FB015527AA27880F991F65
:101F9000AA1FA41710F0A41B83955051B9F7A05D98
:101FA000AA3308F0A95DA193009779F7B111B19315
:101FB0001192CB010C94DC0FDC01FC01672F7191B5
:101FC0007723E1F7329704C07C916D93708362911F
:101FD000AE17BF07C8F30895F999FECF92BD81BD32
:101FE000F89A992780B50895262FF999FECF1FBA40
:101FF00092BD81BD20BD0FB6F894FA9AF99A0FBE32
:10200000019608952F923F924F925F926F927F9226
:102010008F929F92AF92BF92CF92DF92EF92FF92F8
:102020000F931F93CF93DF93CDB7DEB7CA1BDB0BA4
:102030000FB6F894DEBF0FBECDBF09942A88398849
:1020400048885F846E847D848C849B84AA84B98450
:10205000C884DF80EE80FD800C811B81AA81B9815C
:10206000CE0FD11D0FB6F894DEBF0FBECDBFED0170
:102070000895EE0FFF1F0590F491E02D09940F9342
:102080001F93CF93DF938230910510F482E090E0AC
:10209000E0912904F0912A0430E020E0B0E0A0E0D3
:1020A000309799F42115310509F44AC0281B390BE2
:1020B00024303105D8F58A819B816115710589F13C
:1020C000FB0193838283FE0111C040815181028113
:1020D000138148175907E0F04817590799F41097EA
:1020E00061F012960C93129713961C933296CF01BF
:1020F000DF91CF911F910F910895009329041093C0
:102100002A04F4CF2115310551F04217530738F056
:10211000A901DB019A01BD01DF01F801C1CFEF0187
:10212000F9CF90932A0480932904CDCFFE01E20FCA
:10213000F31F819391932250310939832883D7CF9C
:102140002091270430912804232B41F4209102018F
:10215000309103013093280420932704209100013B
:10216000309101012115310541F42DB73EB7409161
:10217000040150910501241B350BE0912704F091D7
:102180002804E217F307A0F42E1B3F0B281739078A
:1021900078F0AC014E5F5F4F2417350748F04E0FC3
:1021A0005F1F5093280440932704819391939FCFFE
:1021B000F0E0E0E09CCFCF93DF930097E9F0FC01E3
:1021C000329713821282A0912904B0912A04ED0162
:1021D00030E020E01097A1F420813181820F931F1D
:1021E00020912704309128042817390709F061C08D
:1021F000F0932804E0932704DF91CF910895EA013A
:10220000CE17DF07E8F54A815B819E014115510534
:10221000B1F7E901FB83EA8349915991C40FD51FB6
:10222000EC17FD0761F4808191810296840F951F60
:10223000E90199838883828193819B838A83F0E07B
:10224000E0E012968D919C9113970097B9F52D912E
:102250003C911197CD010296820F931F2091270484
:10226000309128042817390739F6309751F5109224
:102270002A0410922904B0932804A0932704BCCF09
:10228000D383C28340815181840F951FC817D9071A
:1022900061F44E5F5F4F88819981480F591F5183C8
:1022A00040838A819B81938382832115310509F0C4
:1022B000B0CFF0932A04E09329049ECFFD01DC0106
:1022C000C0CF13821282D7CFB0E0A0E0EAE6F1E1FE
:1022D0000C9404108C01009751F4CB010E943F1024
:1022E0008C01C801CDB7DEB7E0E10C942010FC01F1
:1022F000E60FF71F9C0122503109E217F30708F49B
:102300009DC0D901CD91DC911197C617D70798F0E0
:10231000C530D10530F3CE0104978617970708F32F
:10232000C61BD70B2297C193D1936D937C93CF019A
:102330000E94DB10D6CF5B01AC1ABD0A4C018C0E9B
:102340009D1EA0912904B0912A04512C412CF12CFE
:10235000E12C109731F5809127049091280488157D
:10236000990509F05CC04616570608F058C08091E0
:10237000000190910101009741F48DB79EB7409103
:10238000040150910501841B950BE817F90708F02B
:1023900055C0F0932804E0932704F901718360830A
:1023A000A0CF8D919C91119712966C9012971396D5
:1023B0007C901397A815B90559F56C0142E0C40E3D
:1023C000D11CCA14DB0420F1AC014A195B09DA0103
:1023D0001296159780F06282738251834083D901EF
:1023E0006D937C93E114F10471F0D7011396FC9383
:1023F000EE93129776CF22968C0F9D1FF901918351
:102400008083F301EFCFF0932A04E093290469CF8E
:102410004816590608F42C017D01D3019ACFCB014F
:102420000E943F107C01009749F0AE01B8010E9464
:102430002612C8010E94DB10870153CF10E000E094
:1024400050CF81E090E0F8940C943612FB01DC014F
:1024500002C001900D9241505040D8F70895FB0101
:10246000DC0101900D920020E1F7089510E0C2E632
:10247000D0E004C0FE010E9439102196C336D10776
:06248000C9F7F894FFCF3C
:1024860000002B048000004014540040105000004F
:102496000000AA047D04A4055304760463045404CE
:1024A6000000000098021401A40521046A058402B4
:1024B60051053205736F72653100626F61743200C7
:1024C6007265616368330064616D6D3400626C75BA
:1024D60065350020202020202020202020202020BC
:1024E6002020200070736900766172310076617277
:1024F6002032006C2F6D696E007661723300766152
:102506006C00766172202034007661723500517558
:10251600696320416363657373004D454D4F52599E
:1025260020534554210050003E00526573657420C7
:10253600746F2064656661756C74005072657373A0
:1025460020757020746F2072657365740020446F67
:102556006E65003A00205B455849545D20005B2DAE
:102566005D0061726520776520746865726500009C
:00000001FF
