:100000000C946E000C9496000C9496000C94960040
:100010000C9496000C9496000C9496000C94960008
:100020000C9496000C9496000C9496000C949600F8
:100030000C9496000C9496000C9496000C949600E8
:100040000C94A7090C9496000C9475090C944F0914
:100050000C9496000C9496000C9496000C949600C8
:100060000C94F1090C949600000000002300260077
:1000700029002C00000000085002010000030407C2
:10008000000000000000000000000000000025004B
:1000900028002B002E0000000000240027002A006A
:1000A0002D000404040404040404020202020202F7
:1000B0000303030303030505050505050501020404
:1000C00008102040800102040810200102040810DA
:1000D0002002080104102040070BDE1111241FBE6E
:1000E000CFEFD8E0DEBFCDBF24E0A2E1B2E001C097
:1000F0001D92A13CB207E1F712E0A0E0B1E0E0ED13
:10010000F8E202C005900D92A231B107D9F710E0D4
:10011000CDE6D0E004C02197FE010E945E12CC36ED
:10012000D107C9F70E94EE0B0C945B140C940000ED
:1001300081BD917092BDF89A0000000080B50895CD
:100140000F931F93CF93DF9303E613E0C1E0D0E05A
:100150000D5E1F4F8091830390918403C817D907C8
:100160007CF480918103909182038C0F9D1F0E94EB
:100170009800D8019C96ED91FC9180832196E8CF60
:10018000DF91CF911F910F9108952091B60281E0E8
:10019000213208F040C0809192028111FCCF809101
:1001A000B50292E09093920291E0909391029FEFBA
:1001B0009093900210928F0220938E02A5E9B2E0F4
:1001C000EEE6F2E090E029132DC010926D029091BE
:1001D0006D02880F892B80936D0280916C028130B3
:1001E00031F410926C0280916D028093BB0085EE19
:1001F0008093BC00809192028230E1F38091900262
:100200008F3FA1F080919002803291F08091900216
:10021000803381F084E0109294021092B602109222
:10022000930208953D9131939F5FCDCF80E0F3CF4E
:1002300082E0F1CF83E0EFCFCF93DF93282F30E040
:10024000F901E354FF4F44912E553F4FF90124919A
:10025000843019F483E08093A0002223C9F0822F18
:1002600090E0880F991FFC01EA56FF4FC591D49189
:10027000FC01E657FF4FA591B4919FB7F894888190
:10028000E42FE0958E2388838C91E823EC939FBF25
:10029000DF91CF910895AF92BF92CF92DF92EF920C
:1002A000FF920F931F93CF93DF936C017B018B0120
:1002B000040F151FEB015E01AE18BF08C017D10770
:1002C00059F06991D601ED91FC910190F081E02DFA
:1002D000C6010995892B79F7C501DF91CF911F914F
:1002E0000F91FF90EF90DF90CF90BF90AF90089567
:1002F0000895FC01538D448D252F30E0842F90E02C
:10030000821B930B541710F0CF9608950197089510
:10031000FC01918D828D981761F0A28DAE0FBF2FD9
:10032000B11D5D968C91928D9F5F9F73928F90E02F
:1003300008958FEF9FEF0895FC01918D828D98179E
:1003400031F0828DE80FF11D858D90E008958FEFDB
:100350009FEF0895FC01918D228D892F90E0805CA4
:100360009F4F821B91098F739927089587EB92E025
:100370000E94AA0121E0892B09F420E0822F089530
:1003800080E090E0892B29F00E94B60181110C9445
:1003900000000895FC01A48DA80FB92FB11DA35A28
:1003A000BF4F2C91848D90E001968F739927848F95
:1003B000A689B7892C93A089B1898C9180648C938C
:1003C000938D848D981306C00288F389E02D808177
:1003D0008F7D80830895EF92FF920F931F93CF93A9
:1003E000DF93EC0181E0888F9B8D8C8D981316C074
:1003F000E889F989808185FF11C0EE89FF896083D2
:10040000E889F98980818064808381E090E0DF91D0
:10041000CF911F910F91FF90EF900895F62E0B8DC5
:1004200010E00F5F1F4F0F731127E02E8C8D8E1180
:100430000CC00FB607FCFACFE889F989808185FFE7
:10044000F5CFCE010E94CA01F1CFEB8DEC0FFD2F4D
:10045000F11DE35AFF4FF0820B8FEA89FB898081FF
:100460008062D2CFCF93DF93EC01888D8823B9F0DF
:10047000AA89BB89E889F9898C9185FD03C08081AF
:1004800086FD0DC00FB607FCF7CF8C9185FFF2CF2C
:10049000808185FFEDCFCE010E94CA01E9CFDF91B7
:1004A000CF91089581508B3088F5E82FF0E0E55A20
:1004B000FD4F0C945E127002740266026C0286029A
:1004C000860277027D02810287028B028091800082
:1004D0008F77809380000895809180008F7DF9CF81
:1004E00084B58F7784BD089584B58F7DFBCF8091CF
:1004F000B0008F778093B00008958091B0008F7D19
:10050000F9CF809190008F7780939000089580912B
:1005100090008F7DF9CF80919000877FF5CFCF93AA
:10052000DF93282F30E0F901EC58FF4F8491F90157
:10053000E354FF4FD491F901EE55FF4FC491CC2302
:10054000A1F081110E945202EC2FF0E0EE0FFF1F8C
:10055000E859FF4FA591B491EC91ED2381E090E033
:1005600009F480E0DF91CF91089580E090E0FACF28
:100570001F93CF93DF93282F30E0F901EC58FF4F02
:100580008491F901E354FF4FD491F901EE55FF4FE7
:10059000C491CC23A9F0162F81110E945202EC2F96
:1005A000F0E0EE0FFF1FE657FF4FA591B4918FB714
:1005B000F894EC91111108C0D095DE23DC938FBF25
:1005C000DF91CF911F910895DE2BF8CF10926B022F
:1005D00010926A02109294021092B602EEE7F0E0D6
:1005E00080818F7C80831092920281E080939102BF
:1005F00010926C0261E082E10E94B80261E083E146
:100600000E94B802E9EBF0E080818E7F80838081D8
:100610008D7F808388E48093B80085E48093BC005C
:1006200008953FB7F89480915A0290915B02A0918F
:100630005C02B0915D0226B5A89B05C02F3F19F062
:100640000196A11DB11D3FBFBA2FA92F982F882752
:10065000BC01CD01620F711D811D911D42E0660F2D
:10066000771F881F991F4A95D1F708958F929F92FF
:10067000AF92BF92CF92DF92EF92FF926B017C011B
:100680000E9411034B015C01C114D104E104F10487
:10069000B9F00E941103681979098A099B09683E1B
:1006A00073408105910580F321E0C21AD108E10869
:1006B000F10888EE880E83E0981EA11CB11CE4CFDF
:1006C000FF90EF90DF90CF90BF90AF909F908F9072
:1006D0000895CF93DF93EC01E0917503F0917603D9
:1006E0008081882359F088818F3F41F08F5F888314
:1006F0006AE070E080E090E00E943603E0917703CA
:10070000F09178038081882369F08881882351F0F3
:10071000815088836AE070E080E090E0DF91CF91C3
:100720000C943603DF91CF9108952FB7F894609120
:1007300056027091570280915802909159022FBF32
:10074000089521E001C0220F6A95EAF7DC011C96AA
:100750002C931C971A965C934E931997ED91FC91EC
:100760000484F585E02D60E00994DC01ED91FC91B5
:100770000684F785E02D41E0099581E090E0089539
:10078000DC01ED91FC910684F785E02D40E00994B1
:100790000F931F93CF93DF93CDB7DEB728970FB694
:1007A000F894DEBF0FBECDBF009106011091070186
:1007B00020910801309109010D831E832F83388712
:1007C00000910A0110910B0120910C0130910D0153
:1007D00009831A832B833C839091AB04691710F033
:1007E0006FEF690F262F30E04091AC042C0F3D1FB6
:1007F000F901403199F4943089F46181680F60689F
:1008000084EA94E028960FB6F894DEBF0FBECDBF01
:10081000DF91CF911F910F910C94C0036581EECFB2
:1008200061E00E94C0038BE39FE10197F1F7089517
:10083000E0917503F09176038081882311F1809116
:100840006703209183033091840382171306CCF44D
:10085000909168039923A9F090916903911111C0B7
:100860008F5F809367030E94950360936F0370937B
:100870007003809371039093720384EA94E00E9462
:100880001004E0917703F091780380818823E9F0E8
:10089000809167038230C8F0909168039923A9F092
:1008A00090916903911111C08150809367030E9458
:1008B000950360936F03709370038093710390931B
:1008C000720384EA94E00E941004E0917903F091AD
:1008D0007A038081882371F08091690381110AC0B5
:1008E0000E94950360936F0370937003809371036C
:1008F000909372030E949503AB01BC0180916F033A
:1009000090917003A0917103B09172038853904548
:10091000AF4FBF4F84179507A607B707D8F480914C
:100920006903811117C0109263031092640381E080
:10093000809367036AE070E080E090E00E943603F5
:1009400084EA94E00E9410046AE070E080E090E0A5
:100950000E943603E0917503F09176038081811146
:1009600007C0E0917703F09178038081882329F014
:100970001092680380916703089581E08093680373
:10098000F9CF0F931F93CF93DF93EC01423018F010
:100990008C8188608C834F836887222329F04130C3
:1009A00019F48C8184608C8364E670E080E090E0D0
:1009B0000E9436036C8164FD57C0E881F98106848A
:1009C000F785E02D42E063E0CE0109958BE496E4E3
:1009D0000197F1F7E881F9810684F785E02D42E07F
:1009E00063E0CE01099503E512E0C8010197F1F734
:1009F000E881F9810684F785E02D42E063E0CE01CD
:100A00000995C8010197F1F7E881F9810684F78516
:100A1000E02D42E062E0CE010995C8010197F1F7AF
:100A20006C816062CE010E94C0038BEE90E0019762
:100A3000F1F784E08D836CE0CE010E94C003CE010B
:100A40000E94100482E08E8366E0CE010E94C00303
:100A5000E881F9810484F585E02D6FEFCE01DF9107
:100A6000CF911F910F9109946062CE010E94C00343
:100A70008BE496E40197F1F76C816062CE010E94ED
:100A8000C00303E512E0C8010197F1F76C816062D1
:100A9000CE010E94C003C1CF08950895089585ED49
:100AA0008093BC008091BC0084FDFCCF1092920228
:100AB0000895613298F420919202243089F4609371
:100AC0003202282FA2E1B2E0FC018E2F821B861792
:100AD00010F080E0089581918D93F7CF81E0089523
:100AE00082E00895089581E090E030916B022091BA
:100AF0006A02321710F490E080E091958195910997
:100B0000089580916B0290916A02891730F48F5F8B
:100B100080936B0290E080E008958FEF9FEF08953F
:100B200080916A0290916B02891B990B0895CF9274
:100B3000DF92EF92FF920F931F93CF93DF937C018D
:100B4000CB018A0120919302222389F0EB016B01F2
:100B5000C40ED51ECC15DD0569F06991D701ED9164
:100B6000FC910190F081E02DC7010995F3CF642F2E
:100B70000E945905C801DF91CF911F910F91FF90FD
:100B8000EF90DF90CF900895CF93DF931F92CDB772
:100B9000DEB76983209193022223F9F02091B602F7
:100BA000203258F021E030E0FC013383228390E0D2
:100BB00080E00F90DF91CF91089580919402E82F0B
:100BC000F0E0EB56FD4F998190838F5F8093940204
:100BD0008093B60281E090E0ECCF61E0CE01019617
:100BE0000E945905F7CFFC0123812223F1F0262F23
:100BF0006181609562236083828191E0909393028A
:100C00008093B502109294021092B60284E593E0AC
:100C10000E94C4050E94C500282F30E081E090E0CA
:100C2000232B11F090E080E0089530E020E0F6CF33
:100C3000EF92FF920F931F93CF938C01FC0184E0FE
:100C4000C0E0262F30E060FF02C09589C92BB901B2
:100C500075956795815031968111F3CF413011F42C
:100C6000F8014489F8016585C62BC42B7801FEE0A4
:100C7000EF0EF11CF80162896C2BC7010E94F3058D
:100C8000F801628960956C23C701CF911F910F9184
:100C9000FF90EF900C94F3050F931F93CF93DF9386
:100CA000062F0F70423041F440E0602FDF91CF916A
:100CB0001F910F910C941806142FEC0170E084E042
:100CC000759567958A95E1F7CE010E941806412F28
:100CD000602FCE01EBCFFC0184858823A1F0218514
:100CE00032852115310521F4611107C0158606C032
:100CF00021303105D9F76111F9CF85876585CF019D
:100D00000E960C94F3050895EF92FF920F931F93A4
:100D1000CF93DF93EC01062FF42EE22E8B85888B88
:100D20000E94E602888911E0109393028093B50235
:100D3000109294021092B6020E94C50081111CC04C
:100D4000198B84E593E00E9481058E878989882329
:100D500039F01F861C8260E0CE010E960E94F305DA
:100D60002E2D4F2D602FCE01DF91CF911F910F912E
:100D7000FF90EF900C94C104198AE8CF90E080E0D6
:100D8000089508950895FC01448155816081718121
:100D900084EA94E00C944B011F93CF93DF93182FB8
:100DA000C92FD62F0E9498008D1781F08FB711BDE3
:100DB000C170C2BDD0BDF89494E09FBB92E09FBBD0
:100DC0008FBF81E0DF91CF911F91089580E0FACF2E
:100DD000CF93DF93FC0101900020E9F73197AF0139
:100DE000481B590BBC0184EA94E00E944B01EC01C2
:100DF00042E050E066E471E084EA94E00E944B0136
:100E00008C0F9D1FDF91CF91089589E491E00C94A0
:100E1000E8068FE491E00C94E8060F931F93CF93BC
:100E2000DF93EC0188819981009759F02A813B81F9
:100E30002617370730F081E0DF91CF911F910F9196
:100E400008958B016F5F7F4F0E948913009759F0BF
:100E5000998388831B830A832C813D81232B59F737
:100E6000FC011082E8CF80E0E7CFEF92FF920F9372
:100E70001F93CF93DF936115710541F480E0DF91FB
:100E8000CF911F910F91FF90EF900895411551055B
:100E9000B1F07B01EC010C811D81040F151FB8011D
:100EA0000E940D07882351F3288139818C819D810F
:100EB000B701820F931F0E9454141D830C8381E09D
:100EC000DECFEF92FF920F931F93CF93DF9300D06B
:100ED00000D0CDB7DEB77C01862F4AE08E010F5FD0
:100EE0001F4FB80190E00E94F211F801019000201C
:100EF000E9F73197AF01401B510BB801C7010E94C0
:100F000035070F900F900F900F90DF91CF911F91A9
:100F10000F91FF90EF900895CF93DF93EC018881BC
:100F20009981009711F00E940013198218821D8286
:100F30001C821B821A82DF91CF910895CF93DF9399
:100F4000EC01FB0101900020E9F73197AF01461B4E
:100F5000570B0E943507811103C0CE010E948C07F8
:100F6000CE01DF91CF910895CF93DF93EC01FB0188
:100F700044815581608171810E943507811103C0D0
:100F8000CE010E948C07CE01DF91CF910895EF92A0
:100F9000FF920F931F93CF93DF93EC017B018A01A4
:100FA000BA010E940D0781110BC0CE010E948C076F
:100FB000CE01DF91CF911F910F91FF90EF90089597
:100FC0001D830C83B701888199810E945414F0CF4E
:100FD000EF92FF920F931F93CF93DF93CDB7DEB7BE
:100FE00062970FB6F894DEBF0FBECDBF8C01CB0168
:100FF000F8011182108213821282158214824AE053
:101000009E012F5F3F4F7901B9010E94F211F70154
:1010100001900020E9F73197AF014E195F09B70140
:10102000C8010E94C70762960FB6F894DEBF0FBED4
:10103000CDBFDF91CF911F910F91FF90EF90089559
:10104000CF93DF93EC01FB018617970749F060818E
:1010500071816115710541F0448155810E94C70776
:10106000CE01DF91CF9108950E948C07F9CFFC014A
:101070001182108213821282158214820C9420082D
:10108000FC01118210821382128215821482FB01EC
:1010900001900020E9F73197AF01461B570B0C94E4
:1010A000C707FC01808191810C9400135F926F92BD
:1010B0007F928F929F92AF92BF92CF92DF92EF92E8
:1010C000FF920F931F93CF93DF93CDB7DEB72C978B
:1010D0000FB6F894DEBF0FBECDBF4C015B013A01E5
:1010E000502E83E6E82E83E0F82EF701C0A0D1A0B1
:1010F000B901CE0101960E943708B301CE010796CF
:101100000E94370883E18C9D80018D9D100D112474
:10111000C8018D599C4F6C01FC0195A284A2BE01AF
:10112000695F7F4FC80187579C4F0E942008F601D6
:10113000B5A6A4A654AABE016F5F7F4FC8018F5603
:101140009C4F0E942008CE0107960E945108CE01B4
:1011500001960E945108F70180A191A1019691A3E7
:1011600080A32C960FB6F894DEBF0FBECDBFDF91E3
:10117000CF911F910F91FF90EF90DF90CF90BF9094
:10118000AF909F908F907F906F905F900895CF93D6
:10119000DF9300D000D000D0CDB7DEB761E080E0B3
:1011A0000E94C80366E571E0CE0101960E944008E6
:1011B000CE0101960E94C306CE0101960E945108FD
:1011C00026960FB6F894DEBF0FBECDBFDF91CF914C
:1011D0000895CF93DF9300D000D000D0CDB7DEB715
:1011E0006CE571E0CE0101960E944008CE010196A7
:1011F0000E94C306CE0101960E94510826960FB6A2
:10120000F894DEBF0FBECDBFDF91CF910895CF938D
:10121000DF93CDB7DEB72C970FB6F894DEBF0FBEC5
:10122000CDBFFC01608370E0CE0107960E94E80705
:1012300062E671E0CE0101960E944008BE01695F3E
:101240007F4FCE0101960E94B40767E471E00E94CF
:101250009E07FC01448155816081718187EB92E09A
:101260000E944B01CE0101960E945108CE010796C3
:101270000E94510884EA94E00E9410046AE070E041
:1012800080E090E00E9436032C960FB6F894DEBF03
:101290000FBECDBFDF91CF9108950E9446141F92DB
:1012A0000F920FB60F9211242F933F934F935F939A
:1012B0006F937F938F939F93AF93BF93EF93FF931E
:1012C00087EB92E00E94CA01FF91EF91BF91AF912D
:1012D0009F918F917F916F915F914F913F912F914E
:1012E0000F900FBE0F901F9018951F920F920FB680
:1012F0000F9211242F938F939F93EF93FF93E0917D
:10130000C702F091C8028081E091CD02F091CE0237
:1013100082FD1BC090818091D0028F5F8F732091DE
:10132000D102821741F0E091D002F0E0E954FD4F84
:10133000958F8093D002FF91EF919F918F912F9184
:101340000F900FBE0F901F9018958081F4CF1F92C1
:101350000F920FB60F9211242F933F938F939F9369
:10136000AF93BF938091560290915702A09158027B
:10137000B09159023091550223E0230F2D3758F5D3
:101380000196A11DB11D20935502809356029093A2
:101390005702A0935802B093590280915A0290913B
:1013A0005B02A0915C02B0915D020196A11DB11D8E
:1013B00080935A0290935B02A0935C02B0935D020B
:1013C000BF91AF919F918F913F912F910F900FBE41
:1013D0000F901F90189526E8230F0296A11DB11DAE
:1013E000D2CF1F920F920FB60F9211242F933F93DB
:1013F0004F935F936F937F938F939F93AF93BF931D
:10140000EF93FF938091B900887F803609F44AC03A
:10141000F0F5883209F4A5C018F5803109F499C0B7
:10142000B8F4882309F4F0C0883009F492C0FF9121
:10143000EF91BF91AF919F918F917F916F915F914C
:101440004F913F912F910F900FBE0F901F901895C5
:10145000883109F486C0803251F78093900214C01D
:10146000803409F49BC040F48033B9F38833F9F633
:101470008093900285ECAEC0803509F483C0883536
:1014800009F494C0883499F60E944F05D0CF88396A
:1014900009F48AC038F5883729F050F4883611F0FD
:1014A000803729F683E0809392021092540255C04F
:1014B000883809F479C0803919F0803809F0B7CF3D
:1014C00080915402803208F06FC0E091540281E0B4
:1014D0008E0F809354028091BB00F0E0EC5CFD4FD6
:1014E00080833BC0803B39F0D0F4803A09F477C068
:1014F000883A09F09CCF84E08093920210923302E4
:1015000010923202F0E0E0E0099580913202811100
:101510000FC081E0809332021092120209C0803C19
:1015200009F4A8CF883C09F4A5CF883B09F07FCF08
:10153000E091330281E08E0F80933302F0E0EE5EA3
:10154000FD4F80818093BB009091330280913202E5
:1015500029C080916D028093BB0085EC8093BC0014
:1015600066CF90918F0280918E02981758F5E09186
:101570008F0281E08E0F80938F02F0E0E259FD4FE1
:101580008081E9CFE0918F0281E08E0F80938F02FE
:101590008091BB00F0E0E259FD4F808390918F0273
:1015A00080918E029817C8F285E8D8CFE0918F021B
:1015B00081E08E0F80938F028091BB00F0E0E259B2
:1015C000FD4F80838091910281115ECF81E08093F5
:1015D0006C0284EA8093BC001092920228CF809122
:1015E0005402803230F4E0915402F0E0EC5CFD4FA4
:1015F00010826091540270E084E392E0F0E0E0E059
:1016000009951092540236CF109290023DCFCF939D
:10161000DF931092BA021092B90248EE53E060E0F4
:1016200070E04093BB025093BC026093BD02709384
:10163000BE0282E191E09093B8028093B70285ECFC
:1016400090E09093C4028093C30284EC90E0909366
:10165000C6028093C50280EC90E09093C80280930C
:10166000C70281EC90E09093CA028093C90282EC99
:1016700090E09093CC028093CB0286EC90E0909324
:10168000CE028093CD021092D0021092D10210921D
:10169000D2021092D30280E886BF9CE496BF1092DB
:1016A0005703109256034093580350935903609385
:1016B0005A0370935B0324E231E030935503209387
:1016C00054031092A7041092A60426E331E030934D
:1016D000A5042093A4041092B4049FEF9093B30444
:1016E0001092B2041092B50497E29093AF04109256
:1016F000B0041092B1041092AE041092AD0494E0C4
:101700009093B60492E09093B704C1E0C093B804FC
:1017100090E19093B90490E29093BA0490E490938E
:10172000BB048093BC0450E040E063E084EA94E0B2
:101730000E94A10310926303109264031092650348
:1017400010926603C09367031092680310926903B6
:1017500010926A03109273031092740310927D0327
:10176000109280038AE090E090938203809381033B
:1017700082E090E0909384038093830381E090E083
:101780009093860380938503D0E0C0E068E471E025
:10179000CE0187579C4F0E94400868E471E0CE015B
:1017A0008F569C4F0E9440086396CD3181E0D80748
:1017B00069F782E693E0909376038093750381E660
:1017C00093E0909378038093770380E693E090937F
:1017D0007A0380937903DF91CF910895CF93DF93BC
:1017E000CDB7DEB76B970FB6F894DEBF0FBECDBF97
:1017F0008091F20080618EBB80E88093F2009EB3FE
:101800009093F2008093610011E01093610078944E
:1018100084B5826084BD84B5816084BD85B58260F5
:1018200085BD85B5816085BD80916E0081608093A6
:101830006E0010928100809181008260809381000F
:10184000809181008160809381008091800081601F
:10185000809380008091B10084608093B10080917A
:10186000B00081608093B00080919100826080938D
:10187000910080919100816080939100809190000F
:1018800081608093900080917A00846080937A00D8
:1018900080917A00826080937A0080917A008160E2
:1018A00080937A0080917A00806880937A00109209
:1018B000C1000E94E6028CE08093B80064EF71E002
:1018C00080E090E00E94360320E042E060E184EA9C
:1018D00094E00E94840668EE73E080E090E00E944D
:1018E000360320E042E060E184EA94E00E9484064E
:1018F00064EF71E080E090E00E94360361E084EAEA
:1019000094E00E946B060E94A00064EF71E080E00A
:1019100090E00E94360368E771E09E012F5F3F4F21
:101920007901C9010E9440086CE771E0CE010A9676
:101930000E94400801E09701AE01465F5F4F63E6F9
:1019400072E082EC96E00E945608CE010A960E9450
:101950005108C7010E94510868E771E0C7010E9461
:10196000400866E971E0CE010A960E94400897019E
:10197000AE01465F5F4F62E672E085E097E00E944D
:101980005608CE010A960E945108C7010E945108CC
:101990006CE971E0C7010E94400862EA71E0CE0183
:1019A0000A960E9440089701AE01465F5F4F61E6CC
:1019B00072E089E097E00E945608CE010A960E94E4
:1019C0005108C7010E94510867EA71E0C7010E94EF
:1019D00040086BEA71E0CE010A960E94400800E0E0
:1019E0009701AE01465F5F4F60E672E087EC98E0DA
:1019F0000E945608CE010A960E945108C7010E9413
:101A0000510867EA71E0C7010E94400862EB71E08B
:101A1000CE010A960E94400801E09701AE01465FA0
:101A20005F4F6FE572E089EE98E00E945608CE01A4
:101A30000A960E945108C7010E94510868E771E0A8
:101A4000CE0140960E94400867EB71E0CE014696B9
:101A50000E944008A0908503B0908603BE01605F9D
:101A60007F4FCE010A960E943708BE016A5E7F4F03
:101A7000C7010E94370883E18A9D60018B9DD00CCD
:101A80001124C6018D599C4F5C0188E791E0D50176
:101A900095969C938E939497B701C60187579C4F58
:101AA0000E9420088EE592E0F50195A784A714AB6B
:101AB000BE01665F7F4FC6018F569C4F0E94200873
:101AC000C7010E945108CE010A960E945108CE011A
:101AD00046960E945108CE0140960E94510881EC22
:101AE00096E090937F0380937E031093800386E0BB
:101AF0000E941C0185E00E941C0184E00E941C01E0
:101B000090E080E00E949800813061F164EC71E027
:101B1000C7010E944008C7010E94C306C7010E9476
:101B2000510890E080E00E949800813051F08FB71A
:101B300011BC12BC10BDF89494E09FBB92E09FBB17
:101B40008FBFE0917E03F0917F030995E0917C03C4
:101B5000F0917D03809181039091820360810197D0
:101B60000E94CC060E94A000E091C702F091C8023A
:101B700082E08083E091C302F091C4021082E09180
:101B8000C502F091C60280E180831092CF02E091FD
:101B9000CB02F091CC0286E08083E091C902F09103
:101BA000CA02808180618083E091C902F091CA02FB
:101BB000808188608083E091C902F091CA028081AF
:101BC00080688083E091C902F091CA0280818F7D94
:101BD00080837724739413E120E0C22E20E0D22E7C
:101BE00001E086E00E948F0221E0892B09F020E0CD
:101BF0002093620385E00E948F0221E0892B09F087
:101C000020E02093610384E00E948F0221E0892B71
:101C100009F020E020936003E0917903F0917A03CA
:101C20008081811105C080916303882309F4AEC3CC
:101C30000093630380818111E2C08091640381116C
:101C4000F8C0E0917903F0917A038081811150C34B
:101C50000E949503AB01BC0180916B0390916C03D2
:101C6000A0916D03B0916E038A519F4FAF4FBF4F4C
:101C700084179507A607B70738F4E0917903F09128
:101C80007A038081811167C30E949503AB01BC0177
:101C900080916B0390916C03A0916D03B0916E03E2
:101CA000845D9F44AF4FBF4F84179507A607B707C2
:101CB00008F451C3009365030093630380916503A7
:101CC000882309F49EC180916603882329F060E08F
:101CD00086E693E00E94070960E080E00E94C80366
:101CE0002091850330918603129FC001139F900DB0
:101CF0001124FC01E757FC4F5F0167E072E0C70168
:101D00000E944008B501C7010E94B407BC01CE0182
:101D10000A960E943708CE010A960E94C306CE0199
:101D20000A960E945108C7010E94510880918503BC
:101D300090918603189FF001199FF00D1124ED5921
:101D4000FC4F04A0F5A1E02D0995809185039091A9
:101D50008603189FF001199FF00D1124ED59FC4FD7
:101D600084A98823E1F161E080E00E94C8038091AA
:101D7000850390918603189FB001199F700D11245F
:101D8000FB01ED59FC4F04A4F5A5E02D90806F56A2
:101D90007C4FC7010E94370866E771E0C7010E94C7
:101DA0009E075C01692D0E946107811103C0C50176
:101DB0000E948C0765E072E0C5010E949E07BC018D
:101DC000CE010A960E943708CE010A960E94C306E9
:101DD000CE010A960E945108C7010E9451088091C5
:101DE000850390918603189FF001199FF00D11242F
:101DF000ED59FC4F84A595A50E94690302C10E947C
:101E00009503AB01BC0180916B0390916C03A09191
:101E10006D03B0916E0388579C4EAF4FBF4F841730
:101E20009507A607B70708F008CF809165038111D1
:101E300004CF80916403811108C0809165038111F2
:101E400004C084EA94E00E9410040E949503AB0150
:101E5000BC0180916B0390916C03A0916D03B091D4
:101E60006E038C59964EAF4FBF4F84179507A60748
:101E7000B70738F4E0917903F0917A0380818111FA
:101E8000F9C00093640300936303E0917903F09138
:101E90007A038081811105C080916403882309F44D
:101EA0002BC260E080E00E94C8030E9418042091C9
:101EB000830330918403821713060CF041C0809194
:101EC0006A038823E9F10E9418041B861A861D867E
:101ED0001C861F861E864AE0B70190E00E94FD1115
:101EE000F70101900020E9F73197AF014E195F0922
:101EF000B701CE010A960E94C70760ED71E0C701E5
:101F00000E944008BE01665F7F4FC7010E94B40770
:101F100069E072E00E949E07BC01CE0140960E94DB
:101F20003708CE0140960E94C306CE0140960E941B
:101F30005108C7010E945108CE010A960E9451081B
:101F400080916903882309F4E8C010926A038091A4
:101F500080038111EFC00E94180490E00196189F41
:101F6000B001199F700D112467577C4FC7010E9463
:101F70003708C7010E94C306C7010E94510880911B
:101F8000690381112EC10E941804209183033091AE
:101F9000840382171306FCF06BEF71E0C7010E9407
:101FA0004008C7010E94C306C7010E9451088091E2
:101FB0006903882381F06AE070E080E090E00E948D
:101FC000360384EA94E00E9410046AE070E080E046
:101FD00090E00E9436030E94180420918303309100
:101FE0008403215031098217130609F07EC18091C4
:101FF0007403811104C084EA94E00E9410040093E9
:10200000740380916403882309F476C10E949503C8
:10201000AB01BC018091640290916502A0916602BF
:10202000B091670288579C4EAF4FBF4F84179507FA
:10203000A607B70798F40E94950360936402709313
:102040006502809366029093670280916802909186
:10205000690201969093690280936802C114D104C9
:1020600009F4BFCD0E94B601882309F4BACD0E94BD
:102070000000B7CD80916903882309F44BC00E940A
:10208000180483E6882E83E0982EAA24A394B12C0A
:10209000F3E18F0E911C8091830390918403A81625
:1020A000B9068CF4D4019C96ED91FC91809181034A
:1020B0009091820360818A0D9B1D0E94CC06BFEF28
:1020C000AB1ABB0AE5CF84EA94E00E9410046CE3EB
:1020D00070E080E090E00E943603809169038725DC
:1020E000809369030E941804209183033091840334
:1020F0008217130641F41092630310926403009355
:1021000067031092690366EE70E080E090E00E9441
:102110003603BBCE10927403E0CF0E9418042091C6
:10212000830330918403821713060CF00ECF0093C3
:102130006A030DCF0E941804209183033091840319
:10214000215031098217130609F005CF61E080E0C4
:102150000E94C80362ED71E0C7010E944008C701F8
:102160000E94C306C7010E94510880916903882319
:1021700009F409CF60E080E00E94C80363EE71E0DB
:10218000C7010E944008C7010E94C306C7010E9400
:102190005108E0917503F09176038081882309F45A
:1021A000F2CE65EF71E0C7010E944008C7010E94AE
:1021B000C306C7010E945108E0917E03F0917F039E
:1021C000099560ED77E080E090E00E943603809111
:1021D000690387258093690384EA94E00E941004D0
:1021E000D2CE80916403882309F4CDCE809166031A
:1021F000882329F060E086E693E00E94070960E00A
:1022000080E00E94C8030E94180490E00196189F85
:10221000F001199FF00D1124ED59FC4F04A0F5A118
:10222000E02D09950E94180490E00196189FF00196
:10223000199FF00D1124ED59FC4F84A9882309F44E
:1022400044C061E080E00E94C8030E94180490E04E
:102250000196189FF001199FF00D1124ED59FC4FC4
:1022600004A4F5A5E02D90800E94180490E001964A
:10227000189FB001199F700D11246F567C4FC70134
:102280000E94370866E771E0C7010E949E075C0163
:10229000692D0E946107811103C0C5010E948C074E
:1022A00065E072E0C5010E949E07BC01CE010A965E
:1022B0000E943708CE010A960E94C306CE010A96F4
:1022C0000E945108C7010E9451080E94180490E022
:1022D0000196189FF001199FF00D1124ED59FC4F44
:1022E00084A595A50E9469034ECE1092740389CEF1
:1022F000809165038111ACCC80916503811186CEFC
:1023000061E00E94C8036091680270916902CE0189
:102310000A960E94E8076BE072E0CE0140960E94A8
:102320004008BE01665F7F4FCE0140960E94B40711
:10233000BC01C7010E943708C7010E94C306C7013C
:102340000E945108CE0140960E945108CE010A9683
:102350000E9451085BCE1092650310926303E091D6
:102360007C03F0917D0380918103909182036081D1
:1023700001970E94CC0684EA94E00E94100468EC65
:1023800070E080E090E00E94360398CC0E949503B4
:1023900060936B0370936C0380936D0390936E0353
:1023A0001092650310926403809166038111A4CF9B
:1023B00061E086E693E00E94070923CECF93DF9386
:1023C000C4EAD4E06397CE010A960E945108CE0178
:1023D00002960E94510883E0C738D80799F7DF9129
:1023E000CF910895BB274A3031F4992322F4BDE2FE
:1023F000909581959F4F0C94FE11BB27FB015527AB
:10240000AA27880F991FAA1FA41710F0A41B839551
:102410005051B9F7A05DAA3308F0A95DA1930097C8
:1024200079F7B111B1931192CB010C941712DC0121
:10243000FC01672F71917723E1F7329704C07C91FB
:102440006D9370836291AE17BF07C8F308952F9202
:102450003F924F925F926F927F928F929F92AF9234
:10246000BF92CF92DF92EF92FF920F931F93CF9381
:10247000DF93CDB7DEB7CA1BDB0B0FB6F894DEBF18
:102480000FBECDBF09942A88398848885F846E843E
:102490007D848C849B84AA84B984C884DF80EE8088
:1024A000FD800C811B81AA81B981CE0FD11D0FB691
:1024B000F894DEBF0FBECDBFED010895EE0FFF1FF4
:1024C0000590F491E02D09940F931F93CF93DF9320
:1024D0008230910510F482E090E0E091BF04F09129
:1024E000C00430E020E0B0E0A0E0309799F421157E
:1024F000310509F44AC0281B390B24303105D8F5C1
:102500008A819B816115710589F1FB019383828327
:10251000FE0111C040815181028113814817590782
:10252000E0F04817590799F4109761F012960C9350
:10253000129713961C933296CF01DF91CF911F9182
:102540000F9108950093BF041093C004F4CF211598
:10255000310551F04217530738F0A901DB019A0108
:10256000BD01DF01F801C1CFEF01F9CF9093C004A5
:102570008093BF04CDCFFE01E20FF31F81939193AF
:102580002250310939832883D7CF2091BD0430915F
:10259000BE04232B41F420910201309103013093BA
:1025A000BE042093BD04209100013091010121154A
:1025B000310541F42DB73EB740910401509105011A
:1025C000241B350BE091BD04F091BE04E217F30724
:1025D000A0F42E1B3F0B2817390778F0AC014E5F93
:1025E0005F4F2417350748F04E0F5F1F5093BE040E
:1025F0004093BD04819391939FCFF0E0E0E09CCFA6
:10260000CF93DF930097E9F0FC0132971382128297
:10261000A091BF04B091C004ED0130E020E010971C
:10262000A1F420813181820F931F2091BD0430914C
:10263000BE042817390709F061C0F093BE04E09387
:10264000BD04DF91CF910895EA01CE17DF07E8F5C9
:102650004A815B819E0141155105B1F7E901FB8378
:10266000EA8349915991C40FD51FEC17FD0761F416
:10267000808191810296840F951FE9019983888357
:10268000828193819B838A83F0E0E0E012968D91B2
:102690009C9113970097B9F52D913C911197CD011D
:1026A0000296820F931F2091BD043091BE0428171B
:1026B000390739F6309751F51092C0041092BF04D3
:1026C000B093BE04A093BD04BCCFD383C28340812A
:1026D0005181840F951FC817D90761F44E5F5F4F72
:1026E00088819981480F591F518340838A819B813A
:1026F000938382832115310509F0B0CFF093C00494
:10270000E093BF049ECFFD01DC01C0CF1382128293
:10271000D7CFB0E0A0E0EFE8F3E10C9429128C01F0
:10272000009751F4CB010E9464128C01C801CDB70F
:10273000DEB7E0E10C944512FC01E60FF71F9C01A7
:1027400022503109E217F30708F49DC0D901CD9159
:10275000DC911197C617D70798F0C530D10530F333
:10276000CE0104978617970708F3C61BD70B22974D
:10277000C193D1936D937C93CF010E940013D6CF68
:102780005B01AC1ABD0A4C018C0E9D1EA091BF04CA
:10279000B091C004512C412CF12CE12C109731F553
:1027A0008091BD049091BE048815990509F05CC024
:1027B0004616570608F058C080910001909101011B
:1027C000009741F48DB79EB74091040150910501E7
:1027D000841B950BE817F90708F055C0F093BE0469
:1027E000E093BD04F90171836083A0CF8D919C912A
:1027F000119712966C90129713967C901397A815C8
:10280000B90559F56C0142E0C40ED11CCA14DB04B1
:1028100020F1AC014A195B09DA011296159780F094
:102820006282738251834083D9016D937C93E1145A
:10283000F10471F0D7011396FC93EE93129776CFC3
:1028400022968C0F9D1FF90191838083F301EFCFB6
:10285000F093C004E093BF0469CF4816590608F40A
:102860002C017D01D3019ACFCB010E9464127C011F
:10287000009749F0AE01B8010E944B14C8010E94B4
:102880000013870153CF10E000E050CF81E090E0CB
:10289000F8940C945B14FB01DC0102C001900D92D2
:1028A00041505040D8F70895FB01DC0101900D9292
:1028B0000020E1F7089510E0CDE6D0E004C0FE016D
:1028C0000E945E122196CE36D107C9F7F894FFCF49
:1028D0000000C1048000004014540040105000006B
:1028E0000000EB014B0179013202AA0188019C0131
:1028F00000000000C4059705BE067205900581051D
:10290000730500000000B5034B01BE064E058406AA
:10291000A1036B064C060D0A00626F6174320072EF
:1029200065616368330064616D6D3400626C756568
:102930003500626F6F6C436C6561724166746572DD
:1029400053657442746E3A00707369007661723137
:102950005F5465737454657374546573745465730C
:102960007454657374007661722032006C2F6D6947
:102970006E00766172330076616C007661722020A1
:1029800034007661723500517569636B2041636371
:10299000657373004D454D4F5259205345542100E6
:1029A0005000526573657420746F206465666175AC
:1029B0006C7400507265737320757020746F207290
:1029C000657365740020446F6E6500202020205BD5
:1029D000455849545D20005B2D5D00536F7573654C
:0229E0000000F5
:00000001FF
