:100000000C940D010C9435010C9435010C943501C0
:100010000C9435010C9435010C9435010C94350188
:100020000C9435010C9435010C9435010C94350178
:100030000C9435010C9435010C9435010C94350168
:100040000C94B0140C9435010C947E140C94581438
:100050000C9435010C9435010C9435010C94350148
:100060000C94FA140C94350108000000BE92244947
:10007000123EABAAAA2ABECDCCCC4C3E00000080DA
:10008000BEABAAAAAA3E00000000BF000000803F4D
:100090000000000000084178D3BB4387D1133D190D
:1000A0000E3CC3BD4282AD2B3E68EC8276BED98F3A
:1000B000E1A93E4C80EFFFBE01C4FF7F3F0000007E
:1000C000000000407A10F35A00A0724E1809001088
:1000D000A5D4E80000E87648170000E40B540200BD
:1000E00000CA9A3B000000E1F505000080969800E8
:1000F000000040420F000000A08601000000102711
:1001000000000000E80300000000640000000000A0
:100110000A00000000000100000000002C76D888D2
:10012000DC674F0823DFC1DFAE59E1B1B796E5E3E5
:10013000E453C63AE651997696E8E6C28426EB89FE
:100140008C9B62ED407C6FFCEFBC9C9F40F2BAA59B
:100150006FA5F490055A2AF75C936B6CF9676DC133
:100160001BFCE0E40D47FEF520E6B500D0ED902E37
:100170000300943577050080841E080000204E0A95
:10018000000000C80C333333330F986E12831141D3
:10019000EF8D2114893BE65516CFFEE6DB18D1849E
:1001A0004B381BF77C1D901DA4BBE42420328472C5
:1001B0005E228100C9F124ECA1E53D27000000008A
:1001C000240027002A0000000000250028002B0042
:1001D0000000000023002600290004040404040495
:1001E00004040202020202020303030303030102E6
:1001F00004081020408001020408102001020408B5
:1002000010200000000800020100000304070000A5
:1002100000000000000034163B1D11241FBECFEF6C
:10022000D8E0DEBFCDBF26E0A8EBB3E001C01D9251
:10023000AD3DB207E1F713E0A0E0B1E0E6E5FAE496
:1002400002C005900D92A83BB107D9F711E0CCE0B0
:10025000D1E004C02197FE010E941823CB30D107C2
:10026000C9F70E94D1180C941E250C94000020910F
:100270008B0481E0213208F044C080916704811131
:10028000FCCF80918A0492E09093670491E0909370
:1002900066049FEF909365041092640420936304B6
:1002A000AAE6B4E0E3E4F4E090E0291331C0109250
:1002B000420490914204880F892B809342048091DC
:1002C0004104813049F510924104809142048093A9
:1002D000BB008091BC0083FDF8CF85EC8093BC000F
:1002E000809167048230E1F3809165048F3FB1F023
:1002F000809165048032A1F080916504803391F093
:1003000084E01092690410928B041092680408959E
:100310003D9131939F5FC9CF85EEE0CF80E0F1CF73
:1003200082E0EFCF83E0EDCF08950895AF92BF92C2
:10033000CF92DF92EF92FF920F931F93CF93DF93B1
:100340006C017B018B01040F151FEB015E01AE18E0
:10035000BF08C017D10759F06991D601ED91FC9102
:100360000190F081E02DC6010995892B79F7C5012F
:10037000DF91CF911F910F91FF90EF90DF90CF9081
:10038000BF90AF900895FC014481558160817181D7
:1003900080EC96E00C949601109225040895FC01DF
:1003A000538D448D252F30E0842F90E0821B930BDA
:1003B000541710F0CF96089501970895FC01918D80
:1003C000828D981761F0A28DAE0FBF2FB11D5D9683
:1003D0008C91928D9F5F9F73928F90E008958FEF25
:1003E0009FEF0895FC01918D828D981731F0828DD9
:1003F000E80FF11D858D90E008958FEF9FEF089530
:10040000FC01918D228D892F90E0805C9F4F821B93
:1004100091098F73992708958CE894E00E94000257
:1004200021E0892B09F420E0822F089580E090E0FC
:10043000892B29F00E940C0281110C940000089570
:10044000FC01A48DA80FB92FB11DA35ABF4F2C9149
:10045000848D90E001968F739927848FA689B78940
:100460002C93A089B1898C91837080648C93938D37
:10047000848D981306C00288F389E02D80818F7DDA
:1004800080830895EF92FF920F931F93CF93DF9392
:10049000EC0181E0888F9B8D8C8D98131AC0E889C0
:1004A000F989808185FF15C09FB7F894EE89FF898F
:1004B0006083E889F98980818370806480839FBF2D
:1004C00081E090E0DF91CF911F910F91FF90EF902D
:1004D0000895F62E0B8D10E00F5F1F4F0F7311273D
:1004E000E02E8C8D8E110CC00FB607FCFACFE88978
:1004F000F989808185FFF5CFCE010E942002F1CFDE
:10050000EB8DEC0FFD2FF11DE35AFF4FF0829FB7EB
:10051000F8940B8FEA89FB8980818062CFCFCF93DB
:10052000DF93EC01888D8823B9F0AA89BB89E8891B
:10053000F9898C9185FD03C0808186FD0DC00FB6C1
:1005400007FCF7CF8C9185FFF2CF808185FFEDCF3F
:10055000CE010E942002E9CFDF91CF910895833030
:1005600081F028F4813099F08230A9F00895873025
:10057000A9F08830C9F08430B1F4809180008F7D7B
:1005800003C0809180008F7780938000089584B5A8
:100590008F7784BD089584B58F7DFBCF8091B000A7
:1005A0008F778093B00008958091B0008F7DF9CF50
:1005B000CF93DF93282F30E0F901EE5FFD4F849158
:1005C000F901E251FE4FD491F901E652FE4FC49178
:1005D000CC23A1F081110E94AF02EC2FF0E0EE0FCE
:1005E000FF1FE053FE4FA591B491EC91ED2381E004
:1005F00090E009F480E0DF91CF91089580E090E0F1
:10060000FACF1F93CF93DF93282F30E0F901EE5FED
:10061000FD4F8491F901E251FE4FD491F901E65268
:10062000FE4FC491CC23A9F0162F81110E94AF0276
:10063000EC2FF0E0EE0FFF1FEA53FE4FA591B491AF
:100640008FB7F894EC91111108C0D095DE23DC939C
:100650008FBFDF91CF911F910895DE2BF8CF1092BD
:10066000400410923F041092690410928B0410927F
:10067000670481E0809366041092410461E082E1A6
:100680000E94010361E083E10E940103E9EBF0E0D5
:1006900080818E7F808380818D7F808388E48093BA
:1006A000B80085E48093BC0084E991E090933E0417
:1006B00080933D0485E991E090933C0480933B0452
:1006C0000895CF93DF9390E0FC01E251FE4F249117
:1006D00086529E4FFC0184918823C9F090E0880FD8
:1006E000991FFC01E454FE4FA591B491FC01EA531B
:1006F000FE4FC591D49161110DC09FB7F8948C91B4
:10070000209582238C938881282328839FBFDF91A3
:10071000CF910895623051F49FB7F8943C91822FA5
:10072000809583238C93E8812E2BEFCF8FB7F8949D
:10073000EC912E2B2C938FBFEACF1F93CF93DF9397
:10074000182FEB0161E00E946103209739F460E00B
:10075000812FDF91CF911F910C940103CF3FD105E1
:1007600011F461E0F5CFE12FF0E0EE5FFD4FE49191
:10077000E33031F140F4E130B1F0E230E1F0C03883
:10078000D1057CF7E4CFE73029F1E83059F1E430C6
:10079000B1F780918000806280938000D0938B00BD
:1007A000C0938A0004C084B5806884BDC7BDDF9152
:1007B000CF911F91089584B5806284BDC8BDF7CFE5
:1007C00080918000806880938000D0938900C093DE
:1007D0008800EDCF8091B00080688093B000C09316
:1007E000B300E5CF8091B00080628093B000C093E9
:1007F000B400DDCF8E3008F08E5087708064809317
:100800007C0080917A00806480937A0080917A00E5
:1008100086FDFCCF809178009091790008953FB7D4
:10082000F8948091210490912204A0912304B09126
:10083000240426B5A89B05C02F3F19F00196A11DE1
:10084000B11D3FBFBA2FA92F982F8827BC01CD011A
:10085000620F711D811D911D42E0660F771F881F79
:10086000991F4A95D1F708958F929F92AF92BF92A8
:10087000CF92DF92EF92FF926B017C010E940F04F6
:100880004B015C01C114D104E104F104B9F00E94F0
:100890000F04681979098A099B09683E734081052C
:1008A000910580F321E0C21AD108E108F10888EE31
:1008B000880E83E0981EA11CB11CE4CFFF90EF903E
:1008C000DF90CF90BF90AF909F908F90089521E0E0
:1008D00001C0220F6A95EAF7DC011C962C931C9745
:1008E0001A965C934E931997ED91FC910484F585CB
:1008F000E02D60E00994DC01ED91FC910684F78520
:10090000E02D41E0099581E090E00895DC01ED9152
:10091000FC910684F785E02D40E00994CF93DF93A6
:10092000CDB7DEB728970FB6F894DEBF0FBECDBFA8
:100930004091090150910A0160910B0170910C01E5
:100940004D835E836F83788740910D0150910E0136
:1009500060910F017091100149835A836B837C83EE
:100960002091C706821710F08FEF820F90E0309130
:10097000C8068C0F9D1FFC01303181F4243071F4C6
:100980006181606880EC96E028960FB6F894DEBF2F
:100990000FBECDBFDF91CF910C9486046581F1CF5E
:1009A00061E00E9486048BE39FE10197F1F70895CF
:1009B0000F931F93CF93DF938C01EB0180EC96E0B4
:1009C0000E94D00480E00E948E04C8010E94C301EE
:1009D00064EF71E080E090E00E94340481E00E94C6
:1009E0008E04CE010E94C30168E47DE080E090E0C7
:1009F000DF91CF911F910F910C9434040F931F93AB
:100A0000CF93DF93EC01423018F08C8188608C83A7
:100A10004F836887222329F0413019F48C81846048
:100A20008C8364E670E080E090E00E9434046C8186
:100A300064FD57C0E881F9810684F785E02D42E026
:100A400063E0CE0109958BE496E40197F1F7E88124
:100A5000F9810684F785E02D42E063E0CE01099537
:100A600003E512E0C8010197F1F7E881F9810684F6
:100A7000F785E02D42E063E0CE010995C8010197BA
:100A8000F1F7E881F9810684F785E02D42E062E024
:100A9000CE010995C8010197F1F76C816062CE0122
:100AA0000E9486048BEE90E00197F1F784E08D833D
:100AB0006CE0CE010E948604CE010E94D00482E048
:100AC0008E8366E0CE010E948604E881F981048469
:100AD000F585E02D6FEFCE01DF91CF911F910F9142
:100AE00009946062CE010E9486048BE496E401972B
:100AF000F1F76C816062CE010E94860403E512E08A
:100B0000C8010197F1F76C816062CE010E948604F2
:100B1000C1CF08950895089585ED8093BC0080911C
:100B2000BC0084FDFCCF1092670408952091F90366
:100B3000260F3327331F21323105ECF4209167044F
:100B4000FC0190E080E0243069F082E00895A091FB
:100B5000F9032191AC0147525C4FA40FB52FB11D91
:100B60002C930196861798F38091F903680F609390
:100B7000F90380E0089581E008950895E09140042C
:100B800080913F04E81730F4F0E0E754FC4F808197
:100B900090E008958FEF9FEF089590914004809129
:100BA0003F042FEF3FEF981748F4E92FF0E0E754A8
:100BB000FC4F208130E09F5F90934004C90108956D
:100BC00080913F0490914004891B990B0895CF9226
:100BD000DF92EF92FF920F931F93CF93DF937C01ED
:100BE000CB018A0120916804222389F0EB016B017B
:100BF000C40ED51ECC15DD0569F06991D701ED91C4
:100C0000FC910190F081E02DC7010995F3CF642F8D
:100C10000E949605C801DF91CF911F910F91FF901F
:100C2000EF90DF90CF900895CF93DF931F92CDB7D1
:100C3000DEB76983209168042223F9F020918B04A8
:100C4000203258F021E030E0FC013383228390E031
:100C500080E00F90DF91CF91089580916904E82F93
:100C6000F0E0E659FB4F998190838F5F8093690490
:100C700080938B0481E090E0ECCF61E0CE0101969F
:100C80000E949605F7CFFC0123812223F1F0262F45
:100C90006181609562236083828191E09093680412
:100CA00080938A041092690410928B048FE695E079
:100CB0000E9414060E943701282F30E081E090E066
:100CC000232B11F090E080E0089530E020E0F6CF93
:100CD000EF92FF920F931F93CF938C01FC0184E05E
:100CE000C0E0262F30E060FF02C09589C92BB90112
:100CF00075956795815031968111F3CF413011F48C
:100D0000F8014489F8016585C62BC42B7801FEE003
:100D1000EF0EF11CF80162896C2BC7010E9443069B
:100D2000F801628960956C23C701CF911F910F91E3
:100D3000FF90EF900C9443060F931F93CF93DF9394
:100D4000062F0F70423041F440E0602FDF91CF91C9
:100D50001F910F910C946806142FEC0170E084E051
:100D6000759567958A95E1F7CE010E946806412F37
:100D7000602FCE01EBCFFC0184858823A1F0218573
:100D800032852115310521F4611107C0158606C091
:100D900021303105D9F76111F9CF85876585CF01FC
:100DA0000E960C9443060895EF92FF920F931F93B3
:100DB000CF93DF93EC01062FF42EE22E8B85888BE8
:100DC0000E942F03888911E01093680480938A049D
:100DD0001092690410928B040E94370181111CC08B
:100DE000198B8FE695E00E94CD058E87898988232F
:100DF00039F01F861C8260E0CE010E960E944306E9
:100E00002E2D4F2D602FCE01DF91CF911F910F918D
:100E1000FF90EF900C94FE04198AE8CF90E080E0F8
:100E200008950895809176069091770661E0892B68
:100E300009F460E080EC96E00C94BB0660915606E5
:100E4000709157068AE00C949D0360915E06709144
:100E50005F068AE00C949D0360911306709114065E
:100E60008AE00C949D03089570E060E08BE00E949E
:100E70009D038091440680933F06109227041092B0
:100E8000260408950895CF93DF93D82FC0E08D2FC7
:100E90000E94D8021816190644F462E370E080E05C
:100EA00090E00E943404C1E0F2CFCC23E1F061E095
:100EB0008DE00E9461036EE170E080E090E00E94AE
:100EC000340461E08DE00E9401036EE170E080E097
:100ED00090E00E94340460E08DE00E94010360E035
:100EE0008DE00E9461038C2FDF91CF9108958F9246
:100EF0009F92AF92BF92CF92DF92EF92FF92CF93E9
:100F0000DF930E944422CAE7D6E07B836A83072EE0
:100F1000000C880B990B0E94FB1F9B01AC0160E049
:100F200070EC8FE794E40E94D22120E030E040E8AA
:100F30005FE30E9465212D853E854F8558890E947B
:100F40005A206D8B7E8B8F8B988F0E9487226B012E
:100F50007C01C98ADA8AEB8AFC8A29A13AA14BA1D1
:100F60005CA10E945A202D8D3E8D4F8D58A10E946C
:100F700066214B015C012DA13EA14FA158A5C701DF
:100F8000B6010E945A20A70196010E945A20A7018B
:100F900096010E945A209B01AC01C501B4010E9438
:100FA00066219B01AC0160E070E080E89FE30E9455
:100FB000D221698F7A8F8B8F9C8F23E333E948E8A6
:100FC00053E40E946521DF91CF91FF90EF90DF9075
:100FD000CF90BF90AF909F908F900895CF93DF9365
:100FE000EB010E94202166E470E080E090E00E9426
:100FF0003404CE01DF91CF910895CF93DF93EC01BC
:101000006E817F818A819B810E94EE078E819F8104
:101010009D838C83DF91CF91089582E796E00E94B3
:10102000FD078AE696E00E94FD0782E696E00E94B0
:10103000FD078AE496E00E94FD078AE596E00E949B
:10104000FD0782E596E00E94FD0787E396E00E9497
:10105000FD078FE296E00E94FD0787E296E00E947E
:10106000FD078FE196E00E94FD0787E196E00E9470
:10107000FD078FE096E00E94FD0780E496E00C9467
:10108000FD070F931F93CF93DF93EC0128813981E4
:101090008C819D812817390749F08B018A819B81BA
:1010A0000E94EE071D830C8319830883DF91CF9183
:1010B0001F910F910895FC0101900020E9F73197ED
:1010C000AF01481B590BBC0180EC96E00C949601D3
:1010D000FF920F931F93CF93DF938C0164EF71E026
:1010E00080E090E00E943404C0E08EE00E94D802CC
:1010F000F82E8CE00E94D802D82F64E670E080E0E1
:1011000090E00E9434048DE00E94D802F1101DC0CE
:10111000D11130C0882339F08C2FDF91CF911F91EE
:101120000F91FF90089580EC96E00E94D004C801D2
:101130000E94C30181E00E948E04CC23B1F089E4B7
:1011400091E00E945B08C1E0D0CFD11113C0882389
:10115000A9F0C1E0E1CF80EC96E00E94D004C80184
:101160000E94C30181E00E948E048EE491E00E94FF
:101170005B08BACF882379F3C0E0CECF80EC96E04D
:101180000E94D004C8010E94C30181E00E948E0425
:10119000D6CFFC0124813581232B39F421E0FB01DA
:1011A0008081882349F020E007C0808191810E94DE
:1011B0000E2521E0892BB9F7822F08950F931F93F5
:1011C000CF93DF93EC0188819981009759F02A81B0
:1011D0003B812617370730F081E0DF91CF911F91D7
:1011E0000F9108958B016F5F7F4F0E9443240097FA
:1011F00059F0998388831B830A832C813D81232B9B
:1012000059F7FC011082E8CF80E0E7CFEF92FF9220
:101210000F931F93CF93DF936115710541F480E025
:10122000DF91CF911F910F91FF90EF90089541159D
:101230005105B1F07B01EC010C811D81040F151FDC
:10124000B8010E94DE08882351F3288139818C81FE
:101250009D81B701820F931F0E9417251D830C8368
:1012600081E0DECFCF93DF93EC01888199810097F5
:1012700011F00E94BA23198218821D821C821B82DF
:101280001A82DF91CF910895CF93DF93EC01FB0198
:1012900001900020E9F73197AF01461B570B0E94E0
:1012A0000609811103C0CE010E943209CE01DF91EF
:1012B000CF910895CF93DF93EC01FB0144815581D9
:1012C000608171810E940609811103C0CE010E94D4
:1012D0003209CE01DF91CF910895EF92FF920F93E3
:1012E0001F93CF93DF93EC017B018A01BA010E9427
:1012F000DE0881110BC0CE010E943209CE01DF91C0
:10130000CF911F910F91FF90EF9008951D830C8353
:10131000B701888199810E941725F0CFFB010190C8
:101320000020E9F73197AF01461B570B0C946D096C
:101330000F931F93CF93DF93CDB7DEB762970FB6AE
:10134000F894DEBF0FBECDBF8C01CB01F801118236
:10135000108213821282158214824AE0BE016F5FEE
:101360007F4F0E94881DBE016F5F7F4FC8010E94A2
:101370008E0962960FB6F894DEBF0FBECDBFDF9127
:10138000CF911F910F910895CF93DF93EC01FB0153
:101390008617970749F0608171816115710541F0E9
:1013A000448155810E946D09CE01DF91CF9108954E
:1013B0000E943209F9CFFC0111821082138212823D
:1013C000158214820C94C4090F931F93CF93DF935B
:1013D000EC018901FC0161937193CF01BA010E9474
:1013E000C409B801CE010896DF91CF911F910F91EA
:1013F0000C94C409FC01118210821382128215829E
:101400001482FB0101900020E9F73197AF01461BE0
:10141000570B0C946D09FC01808191810C94BA23C7
:101420000F931F93CF93DF9300D000D000D0CDB7A0
:10143000DEB70E94340761E571E0CE0101960E949B
:10144000FA09CE0101960E946808182FCE01019674
:101450000E940B0A80EC96E01123D9F10E94D0047F
:1014600081E00E948E0483E096E00E94C30180E048
:101470000E948E0400E110E064E670E080E090E0FD
:101480000E94340481E691E00E945B08015011093A
:1014900099F781E00E948E0483E096E00E94C301E8
:1014A00068EC70E080E090E00E9434040E940D0837
:1014B00060ED77E080E090E00E94340426960FB65D
:1014C000F894DEBF0FBECDBFDF91CF911F910F917A
:1014D00008950E94D00481E00E948E046CE271E0C5
:1014E00080E090E00E94340480E00E948E0483E655
:1014F00091E00E945B0868E47DE080E090E0DCCF52
:101500002F923F924F925F926F927F928F929F9213
:10151000AF92BF92CF92DF92EF92FF920F931F9301
:10152000CF93DF93CDB7DEB76B970FB6F894DEBFDE
:101530000FBECDBF3C016B012A013B8F2A8F62E4B5
:1015400072E0CE0144960E94FA0964EF71E080E0F7
:1015500090E00E943404CE0101964C018EE00E947E
:10156000D802B82E8CE00E94D802282E64E670E0E3
:1015700080E090E00E9434048DE00E94D802382E72
:10158000BB2009F406C1F601A480B580FFEFEF1679
:10159000FF0601F161E771E0C8010E94C9088111ED
:1015A00093C169E771E0C8010E94C908882321F04E
:1015B000AE14BF0408F4E4C0EA14FB04A8F4B701B5
:1015C000C6010E94410862E472E0CE0144960E9486
:1015D0008E090AC08EEFA816B10430F49FEFA91A45
:1015E000B90AF601B582A48261E771E0C8010E94E0
:1015F000C9088823A1F0F601848195818E159F0585
:1016000070F4FFEFEF16FF0651F0B701C6010E941C
:10161000410862E472E0CE0144960E948E0969E7B7
:1016200071E0C8010E94C908882309F4B2C0F6011C
:1016300084819581E816F90608F0ABC0FFEFEF163C
:10164000FF0609F43EC1B701C6010E94410862E4E9
:1016500072E0CE0144960E948E092220A9F069E72B
:1016600071E0C8010E94C90881119BC0F601A480E5
:10167000B58061E771E0C8010E94C9088111B8C056
:10168000EA14FB0408F4BFC080EC96E00E94D0048A
:10169000C3010E94C30181E00E948E046091C506CF
:1016A000862F81608093C506696080EC96E00E9479
:1016B0008604BE016C5E7F4FCE0108960E94DB0956
:1016C000F601A480B580B201CE010E960E94DB091E
:1016D0004AE0B401C5010E94931DF401019000206D
:1016E000E9F73197AF0148195909B401CE010E96B7
:1016F0000E940609811104C0CE010E960E94320993
:10170000BE01685F7F4FCE010E960E945A090E946B
:10171000C301CE010E960E940B0ACE0108960E94CC
:101720000B0AEA8DFB8D099513140CF017CF69E7AE
:1017300071E0C8010E94C908F601A480B580882321
:1017400039F0EA14FB0420F4FFEFEF16FF0689F4EA
:1017500061E771E0C8010E94C908882309F45EC0EE
:10176000AE14BF0408F05AC08FEFE816F80609F46B
:1017700055C06FE571E0CE0144960E948E09EECE11
:10178000FEEFAF16B10408F02FCF8FEFA81AB80AFA
:1017900028CF222009F478CF8FEFE816F80609F059
:1017A0005ECFF60184819581009719F001979583AA
:1017B000848369E771E0C8010E94C908882309F49D
:1017C00063CFF60184819581E816F90608F05CCFB5
:1017D000FFEFEF16FF0609F457CFB701C6010E94CD
:1017E000410862E472E0CE0144960E948E094CCF1B
:1017F000EA14FB0408F048CFF1E0AF1AB108F60193
:10180000B582A482D6CFB701C6010E94410862E426
:1018100072E0CE0144960E948E09CBCFF601808102
:101820009181A816B90651F0B501828193810E9479
:10183000EE07F60184819581918380836091C506CE
:101840006E7F6093C506686080EC96E00E94860417
:1018500061E08DE00E9461036EE170E080E090E065
:101860000E94340461E08DE00E9401036EE170E0AB
:1018700080E090E00E94340460E08DE00E9401036B
:1018800060E08DE00E946103CE0144960E940B0A45
:101890006B960FB6F894DEBF0FBECDBFDF91CF9130
:1018A0001F910F91FF90EF90DF90CF90BF90AF907E
:1018B0009F908F907F906F905F904F903F902F9070
:1018C000089521106ECFE0CEFEEFAF16B10408F4FC
:1018D00085CE91CEEF92FF920F931F93CF93DF931C
:1018E000CDB7DEB762970FB6F894DEBF0FBECDBF9F
:1018F0000E94340780913B0690913C06823091050E
:10190000A1F08330910509F466C0019709F06CC01D
:101910006EE771E0CE0107960E94FA0969E076E071
:10192000CE0101960E94DB093AC069E771E0CE0161
:101930000D960E94FA0966EF72E0CE0107960E94AA
:10194000FA096BE871E0CE0101960E94FA09EE24D3
:10195000EA94FE2C8E01035F1F4F21E137E0AE01B8
:10196000495F5F4F62E676E0CE0101960E94800AF1
:10197000CE0101960E940B0ACE0107960E940B0A27
:10198000C8010E940B0A6CE971E0CE0107960E9423
:10199000FA0967EA71E0CE0101960E94FA09BE01D8
:1019A000695F7F4FCE0101960E94D804CE01019657
:1019B0000E940B0ACE0107960E940B0A62960FB690
:1019C000F894DEBF0FBECDBFDF91CF911F910F9175
:1019D000FF90EF9008956EE771E0CE0107960E94A8
:1019E000FA0967EB71E0D7CF6DEF75E0CE0107968E
:1019F0000E94DB0993CFEF92FF920F931F93CF9337
:101A0000DF93CDB7DEB762970FB6F894DEBF0FBE97
:101A1000CDBF0E94340769E771E0CE010D960E94A8
:101A2000FA0967EF75E0CE0107960E94DB096BECBF
:101A300071E0CE0101960E94FA09EE24EA94FE2C90
:101A40008E01035F1F4F2CE237E0AE01495F5F4F0D
:101A50006FE076E0CE0101960E94800ACE010196E9
:101A60000E940B0ACE0107960E940B0AC8010E9431
:101A70000B0A69E771E0C8010E94FA0961E172E0AE
:101A8000CE0107960E94FA0968ED71E0CE01019639
:101A90000E94FA0921E137E0AE01495F5F4F6FE133
:101AA00076E0CE0101960E94800ACE0101960E9446
:101AB0000B0ACE0107960E940B0AC8010E940B0A6E
:101AC00007E316E061E070E0F801828193810E94F3
:101AD000EE0781E090E0F801958384839183808311
:101AE0006CE971E0CE0107960E94FA0967EA71E09D
:101AF000CE0101960E94FA09BE01695F7F4FCE01B7
:101B000001960E94D804CE0101960E940B0ACE01D4
:101B100007960E940B0A62960FB6F894DEBF0FBEBE
:101B2000CDBFDF91CF911F910F91FF90EF9008955E
:101B3000EF92FF920F931F93CF93DF93CDB7DEB752
:101B400062970FB6F894DEBF0FBECDBF0E94340778
:101B500069E771E0CE010D960E94FA0965EE71E029
:101B6000CE0107960E94FA0968EE71E0CE01019657
:101B70000E94FA09EE24EA94FE2C8E01035F1F4FA7
:101B800022E137E0AE01495F5F4F62E776E0CE01C8
:101B900001960E94800ACE0101960E940B0ACE0196
:101BA00007960E940B0AC8010E940B0A66EF71E0BB
:101BB000CE0101960E94FA09CE0101960E946808A2
:101BC000F82ECE0101960E940B0AFF2009F4BEC038
:101BD00069E771E0C8010E94FA096DEF71E0CE017A
:101BE00007960E94FA0960E072E0CE0101960E9419
:101BF000FA09EE24EA94FE2C21E137E0AE01495FB8
:101C00005F4F67E276E0CE0101960E94800ACE0126
:101C100001960E940B0ACE0107960E940B0AC8018A
:101C20000E940B0A69E771E0C8010E94FA096CE0A2
:101C300072E0CE0107960E94FA0966E172E0CE01D9
:101C400001960E94FA0921E137E0AE01495F5F4F3A
:101C50006FE276E0CE0101960E94800ACE010196E5
:101C60000E940B0ACE0107960E940B0AC8010E942F
:101C70000B0AE0903306F090340669E771E0C80182
:101C80000E94FA0961E272E0CE0107960E94FA0909
:101C900064E272E0CE0101960E94FA0923E337E084
:101CA000AE01495F5F4F60E476E0CE0101960E948D
:101CB000800ACE0101960E940B0ACE0107960E946F
:101CC0000B0AC8010E940B0A69E771E0C8010E9473
:101CD000FA0961E172E0CE0107960E94FA0964E315
:101CE00072E0CE0101960E94FA09EE24EA94FE2CDD
:101CF00021E137E0AE01495F5F4F6AE476E0CE0153
:101D000001960E94800ACE0101960E940B0ACE0124
:101D100007960E940B0AC8010E940B0A8091440694
:101D200090914506029790F461E070E08091420640
:101D3000909143060E94EE0781E090E09093450663
:101D40008093440690934106809340066CE971E0CD
:101D5000CE0107960E94FA0967EA71E0CE0101966A
:101D60000E94FA09BE01695F7F4FCE0101960E9471
:101D7000D804CE0101960E940B0ACE0107960E945C
:101D80000B0A62960FB6F894DEBF0FBECDBFDF918F
:101D9000CF911F910F91FF90EF900895EF92FF92D6
:101DA0000F931F93CF93DF93CDB7DEB76E970FB628
:101DB000F894DEBF0FBECDBF0E94340780913B0672
:101DC00090913C0669E771E0019709F054C0CE019B
:101DD0000D960E94FA0967EF75E0CE0107960E9402
:101DE000DB096BEC71E0CE0101960E94FA09EE244A
:101DF000EA94FE2C8E01035F1F4F2CE237E0AE0108
:101E0000495F5F4F6FE076E0CE0101960E94800A45
:101E1000CE0101960E940B0ACE0107960E940B0A82
:101E2000C8010E940B0A6CE971E0CE0107960E947E
:101E3000FA0967EA71E0CE0101960E94FA09BE0133
:101E4000695F7F4FCE0101960E94D804CE010196B2
:101E50000E940B0ACE0107960E940B0A6E960FB6DF
:101E6000F894DEBF0FBECDBFDF91CF911F910F91D0
:101E7000FF90EF900895CE0149960E94FA096DE314
:101E800072E0CE010D960E94FA0967EF75E0CE016F
:101E90000D960E945A09BC01CE0143960E94DB09AF
:101EA00063E472E0CE0101960E94FA0961EF75E0E9
:101EB000CE0101960E945A0962E472E00E94440930
:101EC000BC01CE0107960E94DB09EE24EA94FE2CA9
:101ED0008E01075E1F4F2EE137E0AE014D5E5F4F72
:101EE00062E576E0CE0107960E94800ACE01079651
:101EF0000E940B0ACE0101960E940B0ACE01439666
:101F00000E940B0ACE010D960E940B0AC8010E9486
:101F10000B0AE0905606F090570681E0E81AF108A7
:101F200069E771E0C8010E94FA096DE372E0CE0131
:101F30000D960E94FA0967EF75E0CE010D960E949A
:101F40005A09BC01CE0143960E94DB0963E472E0AA
:101F5000CE0101960E94FA096BEE75E0CE01019662
:101F60000E945A0962E472E00E944409BC01CE0159
:101F700007960E94DB0925E237E0AE014D5E5F4F18
:101F80006AE576E0CE0107960E94800ACE010796A8
:101F90000E940B0ACE0101960E940B0ACE014396C5
:101FA0000E940B0ACE010D960E940B0A39CFEF92C8
:101FB000FF920F931F93CF93DF93CDB7DEB76E974A
:101FC0000FB6F894DEBF0FBECDBF0E94340769E79D
:101FD00071E0CE0149960E94FA0965EE75E0CE01E6
:101FE0000D960E94DB096AE472E0CE010D960E9414
:101FF0004409BC01CE0143960E94DB0960E572E012
:10200000CE0101960E94FA096BEE75E0CE010196B1
:102010000E945A09BC01CE0107960E94DB09EE24FA
:10202000EA94FE2C8E01075E1F4F21E137E0AE01DE
:102030004D5E5F4F67E176E0CE0107960E94800A11
:10204000CE0107960E940B0ACE0101960E940B0A50
:10205000CE0143960E940B0ACE010D960E940B0AF8
:10206000C8010E940B0AE0901B06F0901C0681E05C
:10207000E81AF10869E771E0C8010E94FA0965EE03
:1020800075E0CE010D960E94DB096AE472E0CE0194
:102090000D960E944409BC01CE0143960E94DB09C3
:1020A00060E572E0CE0101960E94FA0961EF75E0E9
:1020B000CE0101960E945A09BC01CE0107960E94EA
:1020C000DB0922E437E0AE014D5E5F4F6FE176E061
:1020D000CE0107960E94800ACE0107960E940B0A45
:1020E000CE0101960E940B0ACE0143960E940B0A74
:1020F000CE010D960E940B0AC8010E940B0A69E7E7
:1021000071E0C8010E94FA0965EE75E0CE010D96F6
:102110000E94DB0961E472E0CE010D960E94440941
:1021200067EF75E00E945A09BC01CE0143960E94F8
:10213000DB0963E472E0CE0101960E94FA0961EFC7
:1021400075E0CE0101960E945A09BC01CE010796A6
:102150000E94DB09EE24EA94FE2C2EE137E0AE016A
:102160004D5E5F4F62E576E0CE0107960E94800AE1
:10217000CE0107960E940B0ACE0101960E940B0A1F
:10218000CE0143960E940B0ACE010D960E940B0AC7
:10219000C8010E940B0AE0905606F0905706E1E055
:1021A000EE1AF10869E771E0C8010E94FA0965EECC
:1021B00075E0CE010D960E94DB0961E472E0CE016C
:1021C0000D960E94440967EF75E00E945A09BC0110
:1021D000CE0143960E94DB0963E472E0CE010196D2
:1021E0000E94FA096BEE75E0CE0101960E945A0931
:1021F000BC01CE0107960E94DB0925E237E0AE0163
:102200004D5E5F4F6AE576E0CE0107960E94800A38
:10221000CE0107960E940B0ACE0101960E940B0A7E
:10222000CE0143960E940B0ACE010D960E940B0A26
:10223000C8010E940B0A69E771E0CE010D960E9469
:10224000FA0966E572E0CE0107960E94FA0962E695
:1022500072E0CE0101960E94FA09EE24EA94FE2C67
:102260000C50110921E137E0AE01495F5F4F62E692
:1022700076E0CE0101960E94800ACE0101960E946E
:102280000B0ACE0107960E940B0AC8010E940B0A96
:1022900007E316E062E070E0F801828193810E941A
:1022A000EE0782E090E0F801958384839183808338
:1022B0006CE971E0CE0107960E94FA096EE672E0C1
:1022C000CE0101960E94FA09BE01695F7F4FCE01DF
:1022D00001960E94D804CE0101960E940B0ACE01FD
:1022E00007960E940B0A6E960FB6F894DEBF0FBEDB
:1022F000CDBFDF91CF911F910F91FF90EF90089587
:10230000FF920F931F93CF93DF93CDB7DEB7629702
:102310000FB6F894DEBF0FBECDBF1091810580ECE3
:1023200096E00E94D0046FE772E0CE010D960E9405
:10233000FA09612F012E000C770B6F5F7F4FCE01E2
:1023400001960E949809BE016F5F7F4FCE010796EC
:102350000E94DB09BE01635F7F4FCE0107960E949A
:102360005A092EE0F22E2F2D1202B00111246B57C4
:102370007A4F0E945A090E94C301CE0107960E941B
:102380000B0ACE0101960E940B0ACE010D960E9407
:102390000B0A81E00E948E04809181059091820554
:1023A000F89E8001F99E100D112405571A4F62E422
:1023B00072E0C8010E94C908811103C0C8010E94CF
:1023C000C30162960FB6F894DEBF0FBECDBFDF919A
:1023D000CF911F910F91FF9008950E940025FF92C9
:1023E0000F931F93CF93DF93CDB7DEB7AD970FB6A3
:1023F000F894DEBF0FBECDBFF82E80EC96E00E94B1
:10240000D0048091B803833009F479C13CF5813060
:1024100009F487C0823009F4E0C08091B8038630A7
:102420001CF081E08093B803809102018F3F11F08E
:10243000FF2041F086E4809302018091B8038F5F12
:102440008093B803AD960FB6F894DEBF0FBECDBF34
:10245000DF91CF911F910F91FF900895843009F47F
:10246000B1C18530D1F680913B0690913C06813018
:10247000910509F4E7C1029709F0ADC160913F06EB
:10248000062E000C770BCE0188960E949809609169
:10249000260470912704CE0182960E94980962E377
:1024A00073E0CE0101960E94FA09BE016E5D7F4F76
:1024B000CE0101960E945A096AE373E00E94440922
:1024C000BE01685D7F4F0E945A090E94C301CE0180
:1024D00001960E940B0ACE0182960E940B0ACE0141
:1024E00088960E940B0A81E00E948E048091000170
:1024F0009091010161EF75E0019611F06BEE75E0CE
:10250000CE0101960E94DB096CE373E0CE010196D7
:102510000E9444090E94C301CE0101960E940B0A49
:102520007CCF81E892E00E945B0881E00E948E04EB
:1025300080913B0690913C068130910571F5609148
:10254000390470913A046F3F7607E1F0CE0182962C
:102550000E94980960E972E0CE0101960E94FA0992
:10256000BE016E5D7F4FCE0101960E945A090E9406
:10257000C301CE0101960E940B0ACE0182960E94F1
:102580000B0A4BCF6091370470913804CE018296CC
:102590000E9498096AE972E0DFCF0297C9F460915E
:1025A000390470913A046F3F760739F0CE01829674
:1025B0000E94980965EA72E0CFCF6091370470916C
:1025C0003804CE0182960E9498096FEA72E0C4CF67
:1025D0008AEB92E00E945B0820CF84EC92E00E949C
:1025E0005B0881E00E948E0480913B0690913C063E
:1025F0008130910589F0029789F1609135047091DD
:102600003604161617060CF008CFCE0182960E94EB
:1026100098096CEE72E0A0CF6091310470913204A1
:10262000CE0182960E94980963ED72E0CE01019678
:102630000E94FA0967EF75E0CE0101960E945A09DF
:10264000BE016E5D7F4F0E945A090E94C301CE01F8
:1026500001960E940B0ACE01829635C06091480611
:1026600070914906161617068CF5CE0188960E94C1
:1026700098096091310470913204CE0182960E94D3
:10268000980967EF75E0CE0101960E94DB09BE0153
:102690006E5D7F4FCE0101960E945A096EED72E089
:1026A0000E944409BE01685D7F4F0E945A090E9442
:1026B000C301CE0101960E940B0ACE0182960E94B0
:1026C0000B0ACE0188960E940B0A97CF60913104C5
:1026D00070913204809156069091570668177907D9
:1026E00039F4CE0182960E94980962EE72E09ECF84
:1026F000CE0182960E94980967EE72E097CF6091B2
:10270000A3067091A4068091A5069091A6061BA22F
:102710001AA21DA21CA21FA21EA28E010F5F1F4F94
:1027200022E044E00E946A1D009709F443C0BC0106
:10273000CE0182960E948E0960EF72E0CE01019672
:102740000E94FA09BE016E5D7F4FCE0101960E9484
:102750005A090E94C301CE0101960E940B0ACE01C4
:1027600082960E940B0A81E00E948E0480913B06B3
:1027700090913C068130910511F1029709F04DCE00
:1027800080916606909167061BA21AA21DA21CA248
:102790001FA21EA24AE0BE016F5F7F4F0E94931DE1
:1027A000BE016F5F7F4FCE0182960E948E096EEF51
:1027B00072E0D2CECE0182960E943209BDCF8AEF5E
:1027C00092E008CF80913B0690913C0681309105C4
:1027D00049F00297F9F08DEF95E00E94C30184E281
:1027E00093E0F8CE66E073E0CE0101960E94FA090C
:1027F0006DEF75E0CE0101960E945A090E94C30157
:10280000CE0101960E940B0A81E00E948E0489E0AD
:1028100093E0E0CE65E173E0CE0101960E94FA09F3
:102820006DEF75E0CE0101960E945A090E94C30126
:10283000CE0101960E940B0A81E00E948E0488E17D
:1028400093E0C8CE60913F06062E000C770BCE01B8
:1028500088960E9498096091260470912704CE0101
:1028600082960E94980962E373E0CE0101960E946D
:10287000FA09BE016E5D7F4FCE0101960E945A0992
:102880006AE373E00E944409BE01685D7F4F0E94C5
:102890005A090E94C301CE0101960E940B0ACE0183
:1028A00082960E940B0ACE0188960E940B0AACCF3A
:1028B0001F920F920FB60F9211242F933F934F93B5
:1028C0005F936F937F938F939F93AF93BF93EF9398
:1028D000FF938CE894E00E942002FF91EF91BF915A
:1028E000AF919F918F917F916F915F914F913F91A8
:1028F0002F910F900FBE0F901F9018951F920F925F
:102900000FB60F9211242F938F939F93EF93FF9302
:10291000E0919C04F0919D048081E091A204F091EB
:10292000A30482FD1BC090818091A5048F5F8F73EB
:102930002091A604821741F0E091A504F0E0E4574D
:10294000FB4F958F8093A504FF91EF919F918F91FD
:102950002F910F900FBE0F901F9018958081F4CF8C
:102960001F920F920FB60F9211242F933F938F93C4
:102970009F93AF93BF9380911D0490911E04A091EB
:102980001F04B091200430911C0423E0230F2D3745
:1029900058F50196A11DB11D20931C0480931D04C0
:1029A00090931E04A0931F04B093200480912104EF
:1029B00090912204A0912304B09124040196A11DBA
:1029C000B11D8093210490932204A0932304B0931B
:1029D0002404BF91AF919F918F913F912F910F90C0
:1029E0000FBE0F901F90189526E8230F0296A11D89
:1029F000B11DD2CF1F920F920FB60F9211242F93B9
:102A00003F934F935F936F937F938F939F93AF9376
:102A1000BF93EF93FF938091B900887F803609F4CC
:102A20004AC0F0F5883209F4A7C018F5803109F4DE
:102A30009BC0B8F4882309F4F9C0883009F494C025
:102A4000FF91EF91BF91AF919F918F917F916F9186
:102A50005F914F913F912F910F900FBE0F901F905C
:102A60001895883109F488C0803251F78093650445
:102A700014C0803409F49DC040F48033B9F3883326
:102A8000F9F68093650485ECB0C0803509F485C003
:102A9000883509F496C0883499F60E948C05D0CF09
:102AA000883909F48CC038F5883729F050F4883615
:102AB00011F0803729F683E08093670410921B049D
:102AC00057C0883809F47BC0803919F0803809F084
:102AD000B7CF80911B04803208F071C0E0911B04D5
:102AE00081E08E0F80931B048091BB00F0E0E550E5
:102AF000FC4F80833DC0803B39F0E0F4803A09F41C
:102B000079C0883A09F09CCF84E0809367041092E2
:102B1000FA031092F903E0913D04F0913E04099507
:102B20008091F90381110FC081E08093F903109225
:102B3000D90309C0803C09F4A6CF883C09F4A3CF8F
:102B4000883B09F07DCFE091FA0381E08E0F8093FE
:102B5000FA03F0E0E752FC4F80818093BB00909134
:102B6000FA038091F90329C0809142048093BB004D
:102B700085EC8093BC0064CF9091640480916304E1
:102B8000981758F5E091640481E08E0F80936404F7
:102B9000F0E0ED5BFB4F8081E9CFE091640481E0E0
:102BA0008E0F809364048091BB00F0E0ED5BFB4FDF
:102BB000808390916404809163049817C8F285E83B
:102BC000D8CFE091640481E08E0F809364048091FB
:102BD000BB00F0E0ED5BFB4F8083809166048111C8
:102BE0005CCF81E08093410484EA8093BC00109222
:102BF000670426CF85EC8093BC0010926704809117
:102C00001B04803230F4E0911B04F0E0E550FC4FEF
:102C1000108260911B0470E0E0913B04F0913C0451
:102C20008BEF93E0099510921B040ACF1092650474
:102C300034CF0F931F93CF93DF93EC010A811B8155
:102C4000C8010E94182190E08F3F910531F460E0A7
:102C5000C8010E94202190E080E09D838C83DF9159
:102C6000CF911F910F910895AF92BF92CF92DF92B3
:102C7000EF92FF920F931F93CF93DF9310928F04E5
:102C800010928E0488EE93E0A0E0B0E08093900470
:102C900090939104A0939204B093930425E131E0C2
:102CA00030938D0420938C0425EC30E0309399040C
:102CB0002093980424EC30E030939B0420939A04F2
:102CC00020EC30E030939D0420939C0421EC30E014
:102CD00030939F0420939E0422EC30E03093A104B3
:102CE0002093A00426EC30E03093A3042093A204A8
:102CF0001092A5041092A6041092A7041092A804A2
:102D000010922F0510923005109231051092320565
:102D10001092330510923405109235051092360545
:102D200010923705109238051092390510923A0525
:102D300010923B0510923C0510923D0510923E0505
:102D4000109272051092710580937305909374052B
:102D5000A0937505B093760587E291E09093700596
:102D600080936F051092C3061092C20689E391E02A
:102D70009093C1068093C0061092D0068FEF809387
:102D8000CF061092CE061092D1068FE38093CB0629
:102D90001092CC061092CD061092CA061092C90667
:102DA00084E08093D20682E08093D30681E0809312
:102DB000D40680E18093D50680E28093D60680E435
:102DC0008093D70680E88093D80650E040E063E027
:102DD00080EC96E00E9467048EE090E09093A80655
:102DE0008093A7069CE0E92EF12CF092AA06E092CF
:102DF000A90662E00E94610362E08CE00E94610328
:102E000083E08093AB061092AC061092AD06109250
:102E1000AE061092AF061092B0061092B106109254
:102E2000B2061092B3061092B4061092B506109234
:102E3000B6061092B70610927E0610927F06109288
:102E400080061092810680E090E0A0E8BFEB8093BE
:102E5000820690938306A0938406B0938506109211
:102E600086068BEC98E4A4E8BAE3809397069093E7
:102E70009806A0939906B0939A0686ED94E6A9E782
:102E8000B9E380939B0690939C06A0939D06B09314
:102E90009E068CE69FECA8E5B4E380939F06909392
:102EA000A006A093A106B093A2061092A3061092CA
:102EB000A4061092A5061092A60621E1C22ED12CDE
:102EC000D0927B06C0927A0680E090E9A8E0B6E452
:102ED0008093870690938806A0938906B0938A060C
:102EE000109275061092740682E796E00E941916F9
:102EF000CFEFDFEFD0937306C093720601E010E0CE
:102F0000109379060093780610936D0600936C0673
:102F10008AE696E00E941916D0936B06C0936A0663
:102F2000D0927106C092700682E090E090936506A0
:102F30008093640682E696E00E941916D093630699
:102F4000C09362068DE190E09093690680936806D5
:102F500083E090E090935D0680935C068AE596E0BE
:102F60000E941916D0935B06C0935A0633E2C32E13
:102F7000D12CD0926106C092600684E090E09093DC
:102F800055068093540682E596E00E941916D09368
:102F90005306C093520686E990E0909359068093B9
:102FA000580645E0A42EB12CB0924D06A0924C06D6
:102FB0008AE496E00E941916D0934B06C0934A0605
:102FC0008CE390E0909351068093500620914E063A
:102FD00030914F064AE0429FC001439F900D11245B
:102FE00090934906809348068DE090E090934306C5
:102FF0008093420680E496E00E941916D093410621
:10300000C0934006B0924706A092460680914406BF
:1030100080933F0687E090E090933A0680933906CC
:1030200087E396E00E941916D0933806C0933706BE
:1030300010933E0600933D0688E090E090933206A0
:10304000809331068FE296E00E941916D0933006E5
:10305000C0932F060AE010E0109336060093350661
:1030600089E090E090932A068093290687E296E013
:103070000E941916D0932806C0932706D0922E06D8
:10308000C0922D0610932206009321068FE196E050
:103090000E941916D0932006C0931F068EE190E07F
:1030A00090932606809325068BE090E090931A0675
:1030B0008093190687E196E00E941916D0931806AE
:1030C000C093170680E590E090931E0680931D063E
:1030D000F0921206E09211068FE096E00E94191617
:1030E000D0931006C0930F0686E490E090931606E6
:1030F0008093150662E473E089E096E00E94FA0985
:1031000061E573E083E096E00E94FA096BE573E005
:103110008DEF95E00E94FA0967E673E087EF95E08E
:103120000E94FA096CE673E081EF95E00E94FA09CB
:1031300064E773E08BEE95E00E94FA096BE773E0B9
:1031400085EE95E00E94FA09D0E0C0E062E472E00A
:10315000CE018B579A4F0E94FA0962E472E0CE01C9
:1031600085579A4F0E94FA092E96C236D10571F7FB
:1031700010928205109281058CE291E090937E0579
:1031800080937D0590937C0580937B05DF91CF91A3
:103190001F910F91FF90EF90DF90CF90BF90AF9075
:1031A0000895CF93DF93CDB7DEB72D970FB6F89480
:1031B000DEBF0FBECDBF789484B5826084BD84B578
:1031C000816084BD85B5826085BD85B5816085BD22
:1031D00080916E00816080936E00109281008091DA
:1031E0008100826080938100809181008160809362
:1031F0008100809180008160809380008091B10087
:1032000084608093B1008091B00081608093B000B1
:1032100080917A00846080937A0080917A00826045
:1032200080937A0080917A00816080937A00809107
:103230007A00806880937A001092C1000E942F0368
:1032400064EF71E080E090E00E94340420E042E00E
:1032500060E180EC96E00E94D40668EE73E080E0C6
:1032600090E00E94340420E042E060E180EC96E0CF
:103270000E94D40664EF71E080E090E00E94340484
:1032800061E08AE00E94610361E08BE00E946103DB
:1032900060E08DE00E94610360E08CE00E946103C9
:1032A00060E08EE00E94610361E08AE00E946103B9
:1032B00061E08BE00E94610360E081E10E946103B4
:1032C00064EF71E080E090E00E94340462E472E018
:1032D000CE0101960E94FA0962E672E0CE010796DD
:1032E0000E94FA099E012F5F3F4FAE01495F5F4F79
:1032F0006AE67CE083E895E00E94E409CE01079647
:103300000E940B0ACE0101960E940B0A62E472E051
:10331000CE0101960E94FA0964EC72E0CE01079694
:103320000E94FA099E012F5F3F4FAE01495F5F4F38
:103330006EEC7EE081E995E00E94E409CE010796FB
:103340000E940B0ACE0101960E940B0A63E873E00B
:10335000CE0101960E94FA096DEF75E0CE01079645
:103360000E94DB099E012F5F3F4FAE01495F5F4F17
:103370006BEF7CE08FE995E00E94E409CE010796AF
:103380000E940B0ACE0101960E940B0A68E173E0CD
:10339000CE0101960E94FA096DEF75E0CE01079605
:1033A0000E94DB099E012F5F3F4FAE01495F5F4FD7
:1033B00067ED7FE08DEA95E00E94E409CE01079673
:1033C0000E940B0ACE0101960E940B0A62E472E091
:1033D000CE0101960E94FA0968EE71E0CE010796CF
:1033E0000E94FA099E012F5F3F4FAE01495F5F4F78
:1033F00068E97DE08BEB95E00E94E409CE01079639
:103400000E940B0ACE0101960E940B0A63E973E049
:10341000CE0101960E94FA0964EA73E0CE01079694
:103420000E94FA099E012F5F3F4FAE01495F5F4F37
:1034300060E17AE089EC95E00E94E409CE0107960C
:103440000E940B0ACE0101960E940B0A62E472E010
:10345000CE0101960E94FA0961EB73E0CE01079656
:103460000E94FA099E012F5F3F4FAE01495F5F4FF7
:103470006CEC71E087ED95E00E94E409CE010796BF
:103480000E940B0ACE0101960E940B0A87E090E091
:103490009093800580937F058091760690917706C2
:1034A00061E0892B09F460E080EC96E00E94BB06A5
:1034B00088EE93E00E9418218F3F39F40E940D0896
:1034C00060E088EE93E00E9420211AE001E08EEF98
:1034D000A82EBB24BA9488248A94982C80917A06CA
:1034E0000E94FA03BC01990F880B990B0E94FB1FE5
:1034F00020917E0630917F06409180065091810692
:103500000E9466216B017C01C0927E06D0927F06EC
:10351000E0928006F092810620E030E046E154E43B
:103520006091820670918306809184069091850651
:103530000E947A2287FD24C0109282061092830690
:10354000109284061092850620E030E046E154E4B3
:10355000C701B6010E94D2210E9477076093A3069B
:103560007093A4068093A5069093A60610927E06FB
:1035700010927F06109280061092810600938606B4
:1035800020E030E040E85FEB6091820670918306B6
:1035900080918406909185060E94F41F811114C0C9
:1035A00080917A060E94FA03BC01990F880B990B4F
:1035B0000E94FB1F0E9477076093A3067093A406E6
:1035C0008093A5069093A60620E030E040E85FE3F4
:1035D00060918206709183068091840690918506A1
:1035E0000E9466216093820670938306809384060E
:1035F000909385068EE00E94D8028D878CE00E9411
:10360000D802682E8DE00E94D802782E0E94120700
:103610008091390490913A0497FD05C001979093E9
:103620003A0480933904809137049091380497FDCF
:1036300005C0019790933804809337048091350436
:103640009091360497FD05C00197909336048093BE
:1036500035048091020187FD03C0815080930201EF
:10366000809148069091490697FD05C00197909377
:1036700049068093480680913B0690913C06813034
:10368000910589F1029709F444C080913904909121
:103690003A04019609F004C12091330630913406B2
:1036A0008091370490913804019641F4809133045D
:1036B00090913404909338048093370480913704B8
:1036C00090913804892B09F4E7C070E060E08BE04A
:1036D0000E949D038091440680933F061092270428
:1036E000109226040BC12091230630912406129FCC
:1036F000C001139F900D11249093340480933304E0
:1037000080911306909114069093320480933104B3
:10371000BCCFF0903004609166067091670690E02F
:1037200080E00E94F91F9B01AC016091A30670919B
:10373000A4068091A5069091A6060E94F41F87FF1B
:1037400084C02091230630912406129FC001139F4C
:10375000900D11249093340480933304F1103EC0F3
:1037600080914E0690914F06189F6001199FD00CD2
:103770001124D0924906C0924806E0905E06F0906F
:103780005F0660915606709157066E197F0990E0AA
:1037900080E00E94F91F1B012C01B601DD0C880B93
:1037A000990B0E94FB1F9B01AC01C201B1010E9459
:1037B000D22160932C0470932D0480932E04909357
:1037C0002F04B70190E080E00E94F91F6093280465
:1037D0007093290480932A0490932B0480914806C7
:1037E00090914906181619063CF520912C04309149
:1037F0002D0440912E0450912F0460912804709163
:10380000290480912A0490912B040E9466216093E0
:1038100028047093290480932A0490932B040E9417
:1038200044227093320460933104009330049092E8
:1038300001018092000129CF809156069091570690
:103840009093320480933104F0CF20911B06309185
:103850001C06129FC001139F900D112490933404F5
:1038600080933304FF2079F020914E0630914F066B
:10387000129FC001139F900D1124909336048093E2
:10388000350410923004B0920101A09200018091A1
:103890005E0690915F0638CF30933A042093390446
:1038A0008091390490913A0497FD0FCF80913F06A3
:1038B00020912B0630912C0618160CF0BAC08150BE
:1038C00080933F066091440670914506C9010E94AD
:1038D00004238091260490912704680F791F2617EE
:1038E000370708F4A6C070932704609326046091FC
:1038F0002604709127048BE00E949D03809135047B
:103900009091360460915606709157061816190664
:1039100024F060913104709132048AE00E949D038A
:1039200080912504882309F48CC00E948011809125
:103930007B0590917C05181619060CF07FC0019745
:1039400090937C0580937B058D85882311F1809170
:1039500081059091820520917F053091800521504D
:103960003109821793072CF4019690938205809376
:1039700081050E9480118EE090E00E9443078091B3
:103980007D0590917E0590937C0580937B05009347
:103990002504662009F459C0809181059091820523
:1039A000181619062CF401979093820580938105CF
:1039B0000E9480118CE090E00E94430780917D0579
:1039C00090917E0590937C0580937B050093250460
:1039D000772009F443C06091C506862F81608093EB
:1039E000C506696080EC96E00E948604809181059E
:1039F000909182052EE0289FF001299FF00D11245F
:103A0000ED57FA4F0190F081E02D09956091C506C0
:103A10006E7F6093C506686080EC96E00E94860425
:103A20008091250481111AC010928205109281059F
:103A300012C0309327042093260459CF10922504F6
:103A400083CF80E00E94EF117FCF772039F0809103
:103A500025048111C0CF81E00E94EF1180E090E049
:103A6000892B09F43BCD0E940C02882309F436CD42
:103A70000E94000033CDCF93DF93C5EED5E02E97A3
:103A8000CE0108960E940B0ACE0102960E940B0AF4
:103A900085E0C338D80799F785EE95E00E940B0AB8
:103AA0008BEE95E00E940B0A81EF95E00E940B0AD5
:103AB00087EF95E00E940B0A8DEF95E00E940B0ABC
:103AC00083E096E00E940B0A89E096E0DF91CF91B7
:103AD0000C940B0AEF920F931F93CF93DF93E8019F
:103AE00034E047FD34E1042E000C550B57FF03C0B2
:103AF000519541955109E32E022F242FAE010E94CA
:103B0000AD1DCE01DF91CF911F910F91EF900895E0
:103B1000BB274A3031F4992322F4BDE29095819578
:103B20009F4F0C94941DBB27FB015527AA27880F94
:103B3000991FAA1FA41710F0A41B83955051B9F721
:103B4000A05DAA3308F0A95DA193009779F7B111A0
:103B5000B1931192CB010C94E41FA9E0B0E0E3EB28
:103B6000FDE10C9434216A01F22EB02E102FFBE3FC
:103B7000AF2EA01608F41BE31F5F012F27E0AE0154
:103B80004F5F5F4F0E940C1FBC018981982F997075
:103B9000913009F43FC09BE2E1FC04C09E2D91707E
:103BA000E0FC3AC05E2D5071E82FE87083FF46C0FC
:103BB00084E0911101C083E0EF2DE81B8F1508F020
:103BC000E0E0D6018E2F20E2552351F1992329F010
:103BD000D6019C93C60101966C0196012D5F3F4F63
:103BE000E2FE24C08EE4D6018C9391E411969C935E
:103BF000119712968C93D9018E2F90E281111BC0E0
:103C0000E20FF32FF11D10828EEF9FEF2996ECE06B
:103C10000C9450219DE2C6CF90E2C4CF2D938150E9
:103C20008111FCCFCE0ED11CE0E0D0CF8EE6D601C4
:103C30008C9391E6DBCF9D938150E0CF482F447069
:103C400082FF3DC084E0911101C083E08F1510F424
:103C5000EF2DE81BD6018E2F20E2552309F1992381
:103C600029F0D6019C93C60101966C0196012D5F47
:103C70003F4FE2FE1BC089E4D6018C938EE411967F
:103C80008C93119786E412968C93D9018E2F90E233
:103C9000882309F4B5CF9D938150FACF2D9381509D
:103CA0008111FCCFCE0ED11CE0E0D9CF89E6D60140
:103CB0008C938EE611968C93119786E6E4CF9B0148
:103CC00077FF02C030E020E0A1E0B0E0911102C037
:103CD000B0E0A0E0F9013196AE0FBF1F8B2C912C04
:103CE000BB2009F461C05401EFEFAE1ABE0AAA0D61
:103CF000BB1DFA161B0619F014F04F2D4A1B51116B
:103D000088C0E3FC59C07601A42FB0E2A1114FC0D6
:103D1000C40ED11C992309F45BC040E0D601119672
:103D2000F60190836D01552309F448C0012F060F59
:103D30009A81582F507184FF03C0913309F40150C8
:103D400010160CF047C0093008F008E0EEE2FE2E35
:103D50005B01A01AB10885019194819491082F3FCD
:103D6000320729F4D601FC92F60131966F016217F1
:103D7000730794F1021713077CF5DB01A21BB30B49
:103D8000AA24A394B12CAC0EBD1EAA0DBB1D119686
:103D90008C9121503109D601119628153905F4F07E
:103DA000F60180836D01DBCFB12CA12CA0CFF701F0
:103DB000B1937F01A150AACF9111B0CFD601942F1A
:103DC00050E302C05D9391509111FCCFC40ED11C01
:103DD00040E0ACCF01E0BACF80E3DBCF62177307DE
:103DE00031F4963388F4953311F4552369F0F601D4
:103DF0008083FD01842F90E2811108C0A40FB11DC2
:103E00001C9290E080E002CF81E3F1CF919381504A
:103E1000F3CF911183CF8ACF283008F027E03327E2
:103E2000DA01990F311D87FD9160009661057105DA
:103E300039F432602E5F3D9330E32A95E1F708951F
:103E40009F3F30F080387105610509F03C5F3C5FB1
:103E50003D93913008F08068911DDF93CF931F93BD
:103E60000F93FF92EF92192F987F9695E92F9695D1
:103E70009695E90FFF27E45EFE4F99273327EE243E
:103E8000FF24A701E70105900894079428F4360F52
:103E9000E71EF81E491F511D660F771F881F991FC7
:103EA0000694A1F70590079428F4E70EF81E491F21
:103EB000561FC11D770F881F991F661F0694A1F713
:103EC0000590079428F4F80E491F561FC71FD11DEF
:103ED000880F991F661F771F0694A1F70590079416
:103EE00020F4490F561FC71FD81F990F661F771F51
:103EF000881F0694A9F784911095177041F0D69504
:103F0000C79557954795F794E7941A95C1F7E2EC52
:103F1000F0E0689415901591359165919591059013
:103F20007FE27395E118F10A430B560BC90BD009D8
:103F3000C0F7E10CF11E431F561FC91FD01D7EF4B0
:103F4000703311F48A95E6CFE894015030F0080FF1
:103F50000AF40027021708F4202F2395022F7A3342
:103F600028F079E37D932A95E9F710C07D932A958F
:103F700089F6069497956795379517951794E118E4
:103F8000F10A430B560BC90BD00998F023957E918B
:103F900073957A3308F070E37C932013B8F77E9121
:103FA00070617D9330F0839571E37D9370E32A9582
:103FB000E1F71124EF90FF900F911F91CF91DF91C6
:103FC000992787FD90950895DC01FC01672F719179
:103FD0007723E1F7329704C07C916D9370836291EF
:103FE000AE17BF07C8F308950E94362008F481E099
:103FF0000895E89409C097FB3EF4909580957095DC
:1040000061957F4F8F4F9F4F9923A9F0F92F96E924
:10401000BB279395F695879577956795B795F11199
:10402000F8CFFAF4BB0F11F460FF1BC06F5F7F4F36
:104030008F4F9F4F16C0882311F096E911C0772348
:1040400021F09EE8872F762F05C0662371F096E851
:10405000862F70E060E02AF09A95660F771F881F20
:10406000DAF7880F9695879597F90895990F0008C4
:10407000550FAA0BE0E8FEEF16161706E807F9073A
:10408000C0F012161306E407F50798F0621B730BD5
:10409000840B950B39F40A2661F0232B242B252B56
:1040A00021F408950A2609F4A140A6958FEF811DF9
:1040B000811D08950E946D200C94DE200E94D02066
:1040C00038F00E94D72020F0952311F00C94C720DF
:1040D0000C94CD2011240C9412210E94EF2070F337
:1040E000959FC1F3950F50E0551F629FF001729F9D
:1040F000BB27F00DB11D639FAA27F00DB11DAA1FAC
:10410000649F6627B00DA11D661F829F2227B00DF8
:10411000A11D621F739FB00DA11D621F839FA00D83
:10412000611D221F749F3327A00D611D231F849FD3
:10413000600D211D822F762F6A2F11249F5750402A
:104140009AF0F1F088234AF0EE0FFF1FBB1F661FA5
:10415000771F881F91505040A9F79E3F510580F06E
:104160000C94C7200C9412215F3FE4F3983ED4F3E3
:10417000869577956795B795F795E7959F5FC1F712
:10418000FE2B880F911D9695879597F9089597F9BD
:104190009F6780E870E060E008959FEF80EC0895ED
:1041A00000240A9416161706180609060895002416
:1041B0000A9412161306140605060895092E039490
:1041C000000C11F4882352F0BB0F40F4BF2B11F404
:1041D00060FF04C06F5F7F4F8F4F9F4F089557FD63
:1041E0009058440F551F59F05F3F71F04795880F65
:1041F00097FB991F61F09F3F79F0879508951216FC
:1042000013061406551FF2CF4695F1DF08C01616A7
:1042100017061806991FF1CF869571056105089458
:104220000895E894BB2766277727CB0197F908956F
:10423000F999FECF92BD81BDF89A992780B508956E
:10424000262FF999FECF1FBA92BD81BD20BD0FB6B2
:10425000F894FA9AF99A0FBE019608952F923F9218
:104260004F925F926F927F928F929F92AF92BF9286
:10427000CF92DF92EF92FF920F931F93CF93DF9332
:10428000CDB7DEB7CA1BDB0B0FB6F894DEBF0FBE8F
:10429000CDBF09942A88398848885F846E847D84DC
:1042A0008C849B84AA84B984C884DF80EE80FD80DE
:1042B0000C811B81AA81B981CE0FD11D0FB6F89454
:1042C000DEBF0FBECDBFED0108955058BB27AA2712
:1042D0000E947D210C94DE200E94D02038F00E94A4
:1042E000D72020F039F49F3F19F426F40C94CD2008
:1042F0000EF4E095E7FB0C94C720E92F0E94EF2015
:1043000058F3BA17620773078407950720F079F40A
:10431000A6F50C9411210EF4E0950B2EBA2FA02DCA
:104320000B01B90190010C01CA01A0011124FF2762
:10433000591B99F0593F50F4503E68F11A16F0405D
:10434000A22F232F342F4427585FF3CF469537955C
:104350002795A795F0405395C9F77EF41F16BA0B21
:10436000620B730B840BBAF09150A1F0FF0FBB1FCF
:10437000661F771F881FC2F70EC0BA0F621F731F18
:10438000841F48F4879577956795B795F7959E3F75
:1043900008F0B0CF9395880F08F09927EE0F979506
:1043A000879508950E94E6210C94DE200E94D72074
:1043B00058F00E94D02040F029F45F3F29F00C947F
:1043C000C72051110C9412210C94CD200E94EF2093
:1043D00068F39923B1F3552391F3951B550BBB2734
:1043E000AA2762177307840738F09F5F5F4F220F79
:1043F000331F441FAA1FA9F335D00E2E3AF0E0E870
:1044000032D091505040E695001CCAF72BD0FE2FB9
:1044100029D0660F771F881FBB1F2617370748074D
:10442000AB07B0E809F0BB0B802DBF01FF27935805
:104430005F4F3AF09E3F510578F00C94C7200C94E2
:1044400012215F3FE4F3983ED4F386957795679504
:10445000B795F7959F5FC9F7880F911D969587953A
:1044600097F90895E1E0660F771F881FBB1F621759
:1044700073078407BA0720F0621B730B840BBA0B17
:10448000EE1F88F7E09508950E944B226894B111C1
:104490000C94122108950E94F72088F09F5798F0FD
:1044A000B92F9927B751B0F0E1F0660F771F881F39
:1044B000991F1AF0BA95C9F714C0B13091F00E9453
:1044C0001121B1E008950C941121672F782F8827CE
:1044D000B85F39F0B93FCCF3869577956795B3957A
:1044E000D9F73EF490958095709561957F4F8F4FE9
:1044F0009F4F08950E94362008F48FEF089516F01C
:104500000C94CF220C94CD2068940C94C7200E9468
:10451000F720A8F39923C1F3AEF3DF93CF931F9352
:104520000F93FF92C92FDD2788232AF02197660F6A
:10453000771F881FDAF720E030E040E85FEB9FE369
:10454000883920F0803E38F021968F770E946621CE
:10455000E8E6F0E004C00E946621E5E9F0E00E9490
:10456000DD228B01BE01EC01FB2E6F5771097595A1
:10457000771F880B990B0E94FB1F28E132E741E36C
:104580005FE30E946D20AF2D9801AE01FF900F9167
:104590001F91CF91DF910E947D210C94DE209F3FDF
:1045A00031F0915020F4879577956795B795880FEE
:1045B000911D9695879597F90895DF93CF931F9353
:1045C0000F93FF92EF92DF927B018C01689406C0FB
:1045D000DA2EEF010E946D20FE01E894A59125914D
:1045E000359145915591A6F3EF010E947D21FE0181
:1045F0009701A801DA9469F7DF90EF90FF900F918F
:104600001F91CF91DF910895AA1BBB1B51E107C0F9
:10461000AA1FBB1FA617B70710F0A61BB70B881F52
:10462000991F5A95A9F780959095BC01CD010895E1
:10463000EE0FFF1F0590F491E02D09940F931F9347
:10464000CF93DF938230910510F482E090E0E09107
:10465000DB06F091DC0630E020E0B0E0A0E030972F
:1046600099F42115310509F44AC0281B390B24306F
:104670003105D8F58A819B816115710589F1FB01AE
:1046800093838283FE0111C0408151810281138195
:1046900048175907E0F04817590799F4109761F047
:1046A00012960C93129713961C933296CF01DF91BA
:1046B000CF911F910F9108950093DB061093DC06B4
:1046C000F4CF2115310551F04217530738F0A901F5
:1046D000DB019A01BD01DF01F801C1CFEF01F9CF84
:1046E0009093DC068093DB06CDCFFE01E20FF31F33
:1046F000819391932250310939832883D7CF209118
:10470000D9063091DA06232B41F42091050130912E
:1047100006013093DA062093D906209103013091E7
:1047200004012115310541F42DB73EB74091070131
:1047300050910801241B350BE091D906F091DA065F
:10474000E217F307A0F42E1B3F0B2817390778F068
:10475000AC014E5F5F4F2417350748F04E0F5F1FC7
:104760005093DA064093D906819391939FCFF0E05E
:10477000E0E09CCFCF93DF930097E9F0FC01329704
:1047800013821282A091DB06B091DC06ED0130E0CD
:1047900020E01097A1F420813181820F931F209196
:1047A000D9063091DA062817390709F061C0F0936D
:1047B000DA06E093D906DF91CF910895EA01CE178A
:1047C000DF07E8F54A815B819E0141155105B1F78C
:1047D000E901FB83EA8349915991C40FD51FEC1776
:1047E000FD0761F4808191810296840F951FE90194
:1047F00099838883828193819B838A83F0E0E0E0C0
:1048000012968D919C9113970097B9F52D913C913B
:104810001197CD010296820F931F2091D9063091F6
:10482000DA062817390739F6309751F51092DC0669
:104830001092DB06B093DA06A093D906BCCFD383DF
:10484000C28340815181840F951FC817D90761F435
:104850004E5F5F4F88819981480F591F5183408374
:104860008A819B81938382832115310509F0B0CF22
:10487000F093DC06E093DB069ECFFD01DC01C0CFA8
:1048800013821282D7CFB0E0A0E0E9E4F4E20C9406
:1048900030218C01009751F4CB010E941E238C0122
:1048A000C801CDB7DEB7E0E10C944C21FC01E60F66
:1048B000F71F9C0122503109E217F30708F49DC04D
:1048C000D901CD91DC911197C617D70798F0C53063
:1048D000D10530F3CE0104978617970708F3C61B5E
:1048E000D70B2297C193D1936D937C93CF010E94F4
:1048F000BA23D6CF5B01AC1ABD0A4C018C0E9D1EAB
:10490000A091DB06B091DC06512C412CF12CE12C5E
:10491000109731F58091D9069091DA06881599059E
:1049200009F05CC04616570608F058C08091030194
:1049300090910401009741F48DB79EB74091070113
:1049400050910801841B950BE817F90708F055C032
:10495000F093DA06E093D906F90171836083A0CF62
:104960008D919C91119712966C90129713967C9052
:104970001397A815B90559F56C0142E0C40ED11C76
:10498000CA14DB0420F1AC014A195B09DA01129662
:10499000159780F06282738251834083D9016D93B1
:1049A0007C93E114F10471F0D7011396FC93EE931C
:1049B000129776CF22968C0F9D1FF90191838083E9
:1049C000F301EFCFF093DC06E093DB0669CF4816E6
:1049D000590608F42C017D01D3019ACFCB010E9426
:1049E0001E237C01009749F0AE01B8010E94052505
:1049F000C8010E94BA23870153CF10E000E050CFD6
:104A000081E090E0F8940C941E25FB01DC0102C0CB
:104A100001900D9241505040D8F70895FB01DC0100
:104A20008D91019080190110D9F3990B0895FB0124
:104A3000DC0101900D920020E1F7089511E0CCE037
:104A4000D1E004C0FE010E9418232196CD30D10789
:064A5000C9F7F894FFCF46
:104A5600FDFFFF0000DD06800000401454004010FA
:104A6600500000000042029601CF018F020002DED4
:104A760001F201000000001406E7050E07BD05E07F
:104A860005CD05BE05000000007B0496010E078BD0
:104A960005D4066704BB069C0674616970006E65E2
:104AA6000041722074696B72616920746169703F9C
:104AB600003E004275766F2041747361756B7461B8
:104AC6000047726561746572004C657373007465A6
:104AD6006D706572617475726F73004D61782074C4
:104AE600656D706572617475726120004E757374C0
:104AF6006174696D6169004973736175676F746983
:104B0600206E61756A690049736A756E67746920FB
:104B16006E7573746174796D61690046616E6F209C
:104B260047726569746973004772616E2E4E6576C9
:104B360065696B7300503A00456B72616E6F205366
:104B46007669657361002550726F6725004A3A00E1
:104B56004772616E2E2047616C6961006D696C6CED
:104B6600697365633A004772616E2E5665696B73A9
:104B760000253A004772616E2E536F66742E537489
:104B86006172740046616E2E49646567004465670C
:104B96002E200046616E61732000205365633A0043
:104BA6004772616E2E004D6178696D756D20432ADE
:104BB6003A0054656D706572617475726100477272
:104BC600616E2E204D696E206F72204D617800292E
:104BD600004772616E2E7374756D696B6C69730034
:104BE600436C6F636B3E6F6E3A00436C6F636B3E54
:104BF6006F66663A00496A756E677461733A004972
:104C0600736A756E677461733A0049736A756E6785
:104C160074612E004F726F205075742E2046656E9B
:104C26006173004C61696B6D617469732000207358
:104C36003A006D617820006D696E20002C483A00BC
:104C460054656D702E20432A3A002D2D2D00432ADF
:104C5600206D61783A00312D00506167616C204CFF
:104C660061696B6100322D00506167616C2054658B
:104C76006D702E004E7573742E4E65706176796B6D
:104C86006F00427573656E613A002C0020446567BB
:104C96002E004E657261206E75737461747974614D
:104CA600004E7573746174797461005665696B2E74
:104CB6002042756461730052504D3A004B61727325
:104CC6007461730053616C74617300446567696D48
:104CD6006173005669656E6F646173204C61696B20
:104CE60061730047616D696B2E506172616D657409
:104CF60072616900507261642E4E757374797469BD
:084D060000497365697469003E
:107800000C94343C0C94513C0C94513C0C94513CE1
:107810000C94513C0C94513C0C94513C0C94513CB4
:107820000C94513C0C94513C0C94513C0C94513CA4
:107830000C94513C0C94513C0C94513C0C94513C94
:107840000C94513C0C94513C0C94513C0C94513C84
:107850000C94513C0C94513C0C94513C0C94513C74
:107860000C94513C0C94513C11241FBECFEFD8E036
:10787000DEBFCDBF11E0A0E0B1E0ECE9FFE702C060
:1078800005900D92A230B107D9F712E0A2E0B1E065
:1078900001C01D92AD30B107E1F70E942D3D0C945F
:1078A000CC3F0C94003C982F959595959595959582
:1078B000905D8F708A307CF0282F295A8091C0000B
:1078C00085FFFCCF9093C6008091C00085FFFCCF60
:1078D0002093C6000895282F205DF0CF982F809127
:1078E000C00085FFFCCF9093C6000895EF92FF92F1
:1078F0000F931F93EE24FF2487018091C00087FD22
:1079000017C00894E11CF11C011D111D81E4E8164B
:1079100082E4F8068FE0080780E0180770F3E09132
:107920000401F091050109958091C00087FFE9CF1E
:107930008091C6001F910F91FF90EF9008950E94D3
:10794000763C982F8091C00085FFFCCF9093C600B5
:1079500091362CF490330CF09053892F089597555D
:10796000892F08951F930E949F3C182F0E949F3CCF
:107970001295107F810F1F9108951F93182F882350
:1079800021F00E94763C1150E1F71F9108951F935A
:10799000182F0E94763C803249F0809103018F5F5E
:1079A000809303018530C1F01F9108958091C0003C
:1079B00085FFFCCF84E18093C6008091C00085FFE5
:1079C000FCCF1093C6008091C00085FFFCCF80E102
:1079D0008093C6001F910895E0910401F091050184
:1079E00009951F9108950E94763C803241F0809164
:1079F00003018F5F80930301853081F008958091AA
:107A0000C00085FFFCCF84E18093C6008091C00058
:107A100085FFFCCF80E18093C6000895E0910401CA
:107A2000F09105010995089540E951E08823A1F0FE
:107A30002D9A28EE33E0FA013197F1F721503040CA
:107A4000D1F72D9828EE33E0FA013197F1F7215064
:107A50003040D1F7815061F708953F924F925F9285
:107A60006F927F928F929F92AF92BF92CF92DF924E
:107A7000EF92FF920F931F93CF93DF93000080E16B
:107A80008093C4001092C50088E18093C10086E015
:107A90008093C2005098589A259A81E00E94143D24
:107AA00024E1F22E9EE1E92E85E9D82E0FE0C02ECA
:107AB00010E1B12EAA24A394B1E49B2EA6E58A2E50
:107AC000F2E57F2EE0E26E2E79E4572E63E5462E36
:107AD00050E5352E0E94763C8033B1F18133B9F107
:107AE000803409F46FC0813409F476C0823409F41B
:107AF00085C0853409F488C0803531F1823521F1A3
:107B0000813511F1853509F485C0863509F48DC0BC
:107B1000843609F496C0843709F403C1853709F423
:107B200072C1863709F466C0809103018F5F80932C
:107B30000301853079F6E0910401F0910501099582
:107B40000E94763C803351F60E94F33CC3CF0E94E2
:107B5000763C803249F78091C00085FFFCCFF092DF
:107B6000C6008091C00085FFFCCF9092C600809136
:107B7000C00085FFFCCF8092C6008091C00085FFC9
:107B8000FCCF7092C6008091C00085FFFCCF609250
:107B9000C6008091C00085FFFCCF5092C600809146
:107BA000C00085FFFCCF4092C6008091C00085FFD9
:107BB000FCCF3092C6008091C00085FFFCCFB09210
:107BC000C60088CF0E94763C863808F4BDCF0E945C
:107BD000763C0E94F33C7ECF0E94763C803809F4CC
:107BE0009CC0813809F40BC1823809F43CC1883942
:107BF00009F48FC080E00E94C73C6CCF84E10E94F2
:107C0000BD3C0E94F33C66CF85E00E94BD3C0E94D3
:107C1000F33C60CF0E94763C809306010E94763C44
:107C2000809307010E94F33C55CF0E94763C80333D
:107C300009F41DC183E00E94BD3C80E00E94C73C66
:107C400049CF0E94763C809309020E94763C809343
:107C5000080280910C028E7F80930C020E94763C79
:107C6000853409F415C18091080290910902892B8D
:107C700089F000E010E00E94763CF801E85FFE4FDA
:107C800080830F5F1F4F80910802909109020817AF
:107C9000190788F30E94763C803209F045CF809125
:107CA0000C0280FF01C16091060170910701660F0F
:107CB000771F7093070160930601A0910802B091AD
:107CC00009021097C9F0E8E0F1E09B01AD014E0F09
:107CD0005F1FF999FECF32BD21BD819180BDFA9A17
:107CE000F99A2F5F3F4FE417F50799F76A0F7B1F4B
:107CF00070930701609306018091C00085FFFCCF5F
:107D0000F092C6008091C00085FFFCCFB092C60003
:107D1000E1CE83E00E94C73CDDCE82E00E94C73CFA
:107D2000D9CE0E94763C809309020E94763C8093D3
:107D300008028091060190910701880F991F909386
:107D40000701809306010E94763C853409F4A6C0A1
:107D500080910C028E7F80930C020E94763C8032D0
:107D600009F0B8CE8091C00085FFFCCFF092C6002C
:107D7000609108027091090261157105B9F140E046
:107D800050E080910C02A82FA170B82FB27011C0E2
:107D9000BB2309F45CC0E0910601F0910701319624
:107DA000F0930701E09306014F5F5F4F46175707B7
:107DB000E8F4AA2369F3F999FECF209106013091E6
:107DC000070132BD21BDF89A90B58091C00085FFB2
:107DD000FCCF9093C6002F5F3F4F30930701209355
:107DE00006014F5F5F4F4617570718F38091C00099
:107DF00085FDE5CE8091C00085FFF8CFE0CE81E023
:107E00000E94C73C67CE0E94763C803209F08CCE3F
:107E10008091C00085FFFCCFF092C6008091C00029
:107E200085FFFCCFE092C6008091C00085FFFCCFAB
:107E3000D092C6008091C00085FFFCCFC092C600E2
:107E40008091C00085FFFCCFB092C60043CEE09188
:107E50000601F091070194918091C00085FFFCCF4D
:107E60009093C6009CCF80E10E94C73C33CE0E9415
:107E7000763C0E94763C182F0E94763C112309F430
:107E800083C0113009F484C08FE00E94C73C22CE29
:107E900080910C02816080930C02E5CE80910C02EF
:107EA000816080930C0259CF809107018823880F4D
:107EB000880B8A2180930B02809106019091070123
:107EC000880F991F90930701809306018091080203
:107ED00080FF09C080910802909109020196909359
:107EE000090280930802F894F999FECF1127E091D6
:107EF0000601F0910701C8E0D1E08091080290915D
:107F00000902103091F40091570001700130D9F34B
:107F100003E000935700E89500915700017001308D
:107F2000D9F301E100935700E89509901990009169
:107F3000570001700130D9F301E000935700E89534
:107F40001395103498F011270091570001700130FB
:107F5000D9F305E000935700E895009157000170B0
:107F60000130D9F301E100935700E895329602976A
:107F700009F0C7CF103011F00296E5CF112480919F
:107F8000C00085FFB9CEBCCE8EE10E94C73CA2CD19
:0C7F900085E90E94C73C9ECDF894FFCF0D
:027F9C00800063
:040000030000780081
:00000001FF