:100000000C940D010C9435010C9435010C943501C0
:100010000C9435010C9435010C9435010C94350188
:100020000C9435010C9435010C9435010C94350178
:100030000C9435010C9435010C9435010C94350168
:100040000C94840C0C9435010C9435010C943501FE
:100050000C9435010C9435010C9435010C94350148
:100060000C945F120C94350108000000BE922449E4
:10007000123EABAAAA2ABECDCCCC4C3E00000080DA
:10008000BEABAAAAAA3E00000000BF000000803F4D
:100090000000000000084178D3BB4387D1133D190D
:1000A0000E3CC3BD4282AD2B3E68EC8276BED98F3A
:1000B000E1A93E4C80EFFFBE01C4FF7F3F0000007E
:1000C000000000407A10F35A00A0724E1809001088
:1000D000A5D4E80000E87648170000E40B540200BD
:1000E00000CA9A3B000000E1F505000080969800E8
:1000F000000040420F000000A08601000000102711
:1001000000000000E80300000000640000000000A0
:100110000A00000000000100000000002C76D888D2
:10012000DC674F0823DFC1DFAE59E1B1B796E5E3E5
:10013000E453C63AE651997696E8E6C28426EB89FE
:100140008C9B62ED407C6FFCEFBC9C9F40F2BAA59B
:100150006FA5F490055A2AF75C936B6CF9676DC133
:100160001BFCE0E40D47FEF520E6B500D0ED902E37
:100170000300943577050080841E080000204E0A95
:10018000000000C80C333333330F986E12831141D3
:10019000EF8D2114893BE65516CFFEE6DB18D1849E
:1001A0004B381BF77C1D901DA4BBE42420328472C5
:1001B0005E228100C9F124ECA1E53D27000000008A
:1001C000240027002A0000000000250028002B0042
:1001D0000000000023002600290004040404040495
:1001E00004040202020202020303030303030102E6
:1001F00004081020408001020408102001020408B5
:1002000010200000000800020100000304070000A5
:100210000000000000004618FC1911241FBECFEF9B
:10022000D8E0DEBFCDBF26E0A0ECB4E001C01D9257
:10023000AE38B207E1F714E0A0E0B1E0ECE1F4E49D
:1002400002C005900D92A03CB107D9F711E0CCE0B7
:10025000D1E004C02197FE010E94E61FCB30D107F8
:10026000C9F70E94AA130C9401220C94000010926A
:10027000C3040895089508956091D9057091DA0531
:100280008AE00C94EB0B6091E1057091E2058AE045
:100290000C94EB0BEF92FF920F931F93CF93DF938E
:1002A000CDB7DEB762970FB6F894DEBF0FBECDBFF5
:1002B00060E070E08BE00E94EB0B60E371E0CE0148
:1002C0000D960E94E50E65E371E0CE0107960E944F
:1002D000E50E6DE371E0CE0101960E94E50EEE247D
:1002E000EA94FE2C8E01035F1F4F28E931E0AE0136
:1002F000495F5F4F65EF75E0CE0101960E94FA0EEF
:10030000CE0101960E94B40ECE0107960E94B40E53
:10031000C8010E94B40E62960FB6F894DEBF0FBEFD
:10032000CDBFDF91CF911F910F91FF90EF90089576
:1003300060E070E08BE00E94EB0B8091F9059091FA
:10034000FA05892B11F061E001C060E08AE296E0D5
:100350000C94DD0AEF92FF920F931F93CF93DF93DC
:10036000CDB7DEB762970FB6F894DEBF0FBECDBF34
:1003700060E070E08BE00E94EB0B60E371E0CE0187
:100380000D960E94E50E69E772E0CE0107960E9485
:10039000E50E68E471E0CE0101960E94E50EEE24C0
:1003A000EA94FE2C8E01035F1F4F2CE331E0AE0177
:1003B000495F5F4F65ED75E0CE0101960E94FA0E30
:1003C000CE0101960E94B40ECE0107960E94B40E93
:1003D000C8010E94B40EE090D905F090DA0581E0E2
:1003E000E81AF10860E371E0C8010E94E50E69E7D0
:1003F00072E0CE0107960E94E50E65E571E0CE0140
:1004000001960E94E50E23E431E0AE01495F5F4FA3
:100410006DED75E0CE0101960E94FA0ECE010196B7
:100420000E94B40ECE0107960E94B40EC8010E942D
:10043000B40E60E371E0C8010E94E50E62E572E06F
:10044000CE0107960E94E50E63E671E0CE010196AB
:100450000E94E50EEE24EA94FE2C2AE331E0AE0180
:10046000495F5F4F6DEC75E0CE0101960E94FA0E78
:10047000CE0101960E94B40ECE0107960E94B40EE2
:10048000C8010E94B40E61E771E0CE0107960E9498
:10049000E50E6CE771E0CE0101960E94E50EBE010B
:1004A000695F7F4FCE0101960E94150ECE01019625
:1004B0000E94B40ECE0107960E94B40E62960FB64B
:1004C000F894DEBF0FBECDBFDF91CF911F910F918A
:1004D000FF90EF900895EF92FF920F931F93CF93A9
:1004E000DF93CDB7DEB762970FB6F894DEBF0FBECD
:1004F000CDBF8091C7059091C8058230910579F0F4
:100500008330910561F1019709F084C06CE871E0D6
:10051000CE0107960E94E50E69E971E083C060E3B1
:1005200071E0CE010D960E94E50E65E573E0CE0107
:1005300007960E94E50E68EA71E0CE0101960E94DE
:10054000E50EEE24EA94FE2C8E01035F1F4F2AE392
:1005500031E0AE01495F5F4F65EE75E04DC060E38D
:1005600071E0CE010D960E94E50E69EB71E0CE01BF
:1005700007960E94E50E6DEB71E0CE0101960E9498
:10058000E50EEE24EA94FE2C8E01035F1F4F2AE352
:1005900031E0AE01495F5F4F65EE75E0CE01019637
:1005A0000E94FA0ECE0101960E94B40ECE0107966B
:1005B0000E94B40EC8010E94B40EE090E905F090CC
:1005C000EA0581E0E81AF10860E371E0C8010E94E1
:1005D000E50E65E573E0CE0107960E94E50E6DEC31
:1005E00071E0CE0101960E94E50E2BE331E0AE01F1
:1005F000495F5F4F6DEE75E0CE0101960E94FA0EE5
:10060000CE0101960E94B40ECE0107960E94B40E50
:10061000C80119C06EED71E0CE0107960E94E50E8B
:100620006CEE71E0CE0101960E94E50EBE01695F9D
:100630007F4FCE0101960E94150ECE0101960E94B9
:10064000B40ECE0107960E94B40E62960FB6F894CF
:10065000DEBF0FBECDBFDF91CF911F910F91FF90F5
:10066000EF900895EF92FF920F931F93CF93DF9334
:10067000CDB7DEB762970FB6F894DEBF0FBECDBF21
:1006800060E070E08BE00E94EB0B60E371E0CE0174
:100690000D960E94E50E69E772E0CE0107960E9472
:1006A000E50E6BEF71E0CE0101960E94E50EEE249F
:1006B000EA94FE2C8E01035F1F4F2AE331E0AE0166
:1006C000495F5F4F63EB75E0CE0101960E94FA0E21
:1006D000CE0101960E94B40ECE0107960E94B40E80
:1006E000C8010E94B40E60E371E0C8010E94E50EEB
:1006F00069E072E0CE0107960E94E50E63E172E0C8
:10070000CE0101960E94E50E2AE331E0AE01495F79
:100710005F4F6BEB75E0CE0101960E94FA0ECE01A1
:1007200001960E94B40ECE0107960E94B40EC80135
:100730000E94B40E60E371E0C8010E94E50E6EE015
:1007400072E0CE0107960E94E50E62E272E0CE01F1
:1007500001960E94E50E2AE331E0AE01495F5F4F4A
:100760006DEC75E0CE0101960E94FA0ECE01019665
:100770000E94B40ECE0107960E94B40EC8010E94DA
:10078000B40E60E371E0C8010E94E50E60E372E020
:10079000CE0107960E94E50E6DE372E0CE01019650
:1007A0000E94E50E2AE331E0AE01495F5F4F63EA44
:1007B00075E0CE0101960E94FA0ECE0101960E94CC
:1007C000B40ECE0107960E94B40EC8010E94B40E6A
:1007D000E090A705F090A80581E0E81AF10860E331
:1007E00071E0C8010E94E50E6AE472E0CE0107964E
:1007F0000E94E50E6DE372E0CE0101960E94E50EC7
:100800002BE331E0AE01495F5F4F6BEA75E0CE014B
:1008100001960E94FA0ECE0101960E94B40ECE01FE
:1008200007960E94B40EC8010E94B40E60E371E006
:10083000C8010E94E50E67E572E0CE0107960E94AE
:10084000E50E64E672E0CE0101960E94E50EEE240C
:10085000EA94FE2C2AE331E0AE01495F5F4F65ED7B
:1008600075E0CE0101960E94FA0ECE0101960E941B
:10087000B40ECE0107960E94B40EC8010E94B40EB9
:10088000E090D905F090DA05E1E0EE1AF10860E3B6
:1008900071E0C8010E94E50E61E772E0CE010796A3
:1008A0000E94E50E64E672E0CE0101960E94E50E1C
:1008B0002BE331E0AE01495F5F4F6DED75E0CE0196
:1008C00001960E94FA0ECE0101960E94B40ECE014E
:1008D00007960E94B40EC8010E94B40E60E371E056
:1008E000C8010E94E50E6EE772E0CE0107960E94F5
:1008F000E50E6AE872E0CE0101960E94E50EEE2454
:10090000EA94FE2C2AE331E0AE01495F5F4F65EEC9
:1009100075E0CE0101960E94FA0ECE0101960E946A
:10092000B40ECE0107960E94B40EC8010E94B40E08
:1009300003EC15E062E0F801828193810E948D133F
:1009400066E470E080E090E00E944A0C82E090E073
:10095000F801958384839183808361E771E0CE0100
:1009600007960E94E50E66E972E0CE0101960E94AC
:10097000E50EBE01695F7F4FCE0101960E94150E04
:10098000CE0101960E94B40ECE0107960E94B40ECD
:1009900062960FB6F894DEBF0FBECDBFDF91CF9148
:1009A0001F910F91FF90EF900895EF92FF920F9398
:1009B0001F93CF93DF93CDB7DEB762970FB6F8944E
:1009C000DEBF0FBECDBF60E070E08BE00E94EB0B9E
:1009D00060E371E0CE010D960E94E50E69E772E0DA
:1009E000CE0107960E94E50E6BEF71E0CE010196F5
:1009F0000E94E50EEE24EA94FE2C8E01035F1F4F49
:100A00002AE331E0AE01495F5F4F63EB75E0CE0151
:100A100001960E94FA0ECE0101960E94B40ECE01FC
:100A200007960E94B40EC8010E94B40E60E371E004
:100A3000C8010E94E50E69E072E0CE0107960E94AF
:100A4000E50E63E172E0CE0101960E94E50E2AE315
:100A500031E0AE01495F5F4F6BEB75E0CE0101966F
:100A60000E94FA0ECE0101960E94B40ECE010796A6
:100A70000E94B40EC8010E94B40E60E371E0C80188
:100A80000E94E50E67EA72E0CE0107960E94E50E2D
:100A900061EB72E0CE0101960E94E50E2AE331E09F
:100AA000AE01495F5F4F6BEA75E0CE0101960E948F
:100AB000FA0ECE0101960E94B40ECE0107960E9456
:100AC000B40EC8010E94B40E03EC15E061E0F80119
:100AD000828193810E948D1366E470E080E090E053
:100AE0000E944A0C81E090E0F80195838483918311
:100AF000808361E771E0CE0107960E94E50E6CE706
:100B000071E0CE0101960E94E50EBE01695F7F4F44
:100B1000CE0101960E94150ECE0101960E94B40EE0
:100B2000CE0107960E94B40E62960FB6F894DEBF0F
:100B30000FBECDBFDF91CF911F910F91FF90EF902E
:100B40000895CF93DF93EC016E818A819B810E948F
:100B50008D1366E470E080E090E00E944A0C8E8184
:100B60009F819D838C83DF91CF910895FF920F9396
:100B70001F93CF93DF93CDB7DEB7AD970FB6F89441
:100B8000DEBF0FBECDBFF82E8AE296E00E94D60CE3
:100B90009091C004933009F473C134F4913059F04A
:100BA000923009F4DAC03CC2943009F4C2C19530E5
:100BB00009F4E4C135C281EC92E00E94030E81E0A9
:100BC0000E946F0D2091C7053091C8052130310575
:100BD00089F56091CA047091CB046F3F2FEF7207C3
:100BE00041F04AE0CE0182960E94B90E60ED72E0BB
:100BF0000BC06091C8047091C9044AE0CE0182968E
:100C00000E94B90E6AED72E0CE0101960E94E50ED7
:100C1000BE016E5D7F4FCE0101960E94730E0E9451
:100C2000660DCE0101960E94B40ECE0182960E94FE
:100C3000B40EF6C12230310591F56091CA0470916D
:100C4000CB0480910001909101016F3F2FEF72075B
:100C500089F04AE0019639F4CE0182960E94B90EDD
:100C600065EE72E0D1CFCE0182960E94B90E60EFA0
:100C700072E0CACF6091C8047091C9044AE001963D
:100C800039F4CE0182960E94B90E69EF72E0BCCFB2
:100C9000CE0182960E94B90E65E073E0B5CF233095
:100CA000310509F057C06091CA047091CB046F3FC1
:100CB0008FEF7807E1F04AE0CE0188960E94B90EE6
:100CC0004AE060E070E0CE0182960E94B90E6BE5CA
:100CD00073E0CE0101960E94E50EBE016E5D7F4F6E
:100CE000CE0101960E94730E6FE073E01FC0609109
:100CF000C8047091C9044AE0CE0188960E94B90EDA
:100D00004AE060E070E0CE0182960E94B90E6BE589
:100D100073E0CE0101960E94E50EBE016E5D7F4F2D
:100D2000CE0101960E94730E65E173E00E945A0E97
:100D3000BE01685D7F4F0E94730E0E94660DCE015A
:100D400001960E94B40ECE0182960E94B40ECE018E
:100D500088966DCF8CE193E061C186E293E00E94BA
:100D6000030E81E00E946F0D8091C7059091C80528
:100D70008130910519F0029769F072C06091C40446
:100D80007091C5044AE0CE0182960E94B90E69E7CF
:100D900072E051C06091CB057091CC051616170614
:100DA0008CF54AE0CE0188960E94B90E6091C40489
:100DB0007091C5044AE0CE0182960E94B90E69E79F
:100DC00072E0CE0101960E94E50EBE016E5D7F4F7E
:100DD000CE0101960E94730E65E373E00E945A0EE5
:100DE000BE01685D7F4F0E94730E0E94660DCE01AA
:100DF00001960E94B40ECE0182960E94B40ECE01DE
:100E000088962CC06091C4047091C5048091D90566
:100E10009091DA054AE06817790739F4CE01829695
:100E20000E94B90E69E373E006C0CE0182960E946B
:100E3000B90E62E473E0CE0101960E94E50EBE0198
:100E40006E5D7F4FCE0101960E94730E0E94660D6B
:100E5000CE0101960E94B40ECE0182960E94B40E7D
:100E60006091C6047091C704161617060CF0D8C01E
:100E70004AE0CE0182960E94B90E6BE473E0C4CEC4
:100E80006091260670912706809128069091290688
:100E90001BA21AA21DA21CA21FA21EA28E010F5FDE
:100EA0001F4F22E044E00E94101ABC01CE0182963E
:100EB0000E94860E6FE473E0C8010E94E50EBE0139
:100EC0006E5D7F4FC8010E94730E0E94660DC801BF
:100ED0000E94B40ECE0182960E94B40E81E00E9460
:100EE0006F0D2091C7053091C80521303105F1F013
:100EF0002230310509F094C08091E9059091EA050E
:100F00001BA21AA21DA21CA21FA21EA24AE0BE0181
:100F10006F5F7F4F0E94461ABE016F5F7F4FCE0109
:100F200082960E94860E6DE573E06ECE89E593E0B1
:100F300075C02091C7053091C8052230310551F0A8
:100F40002330310589F02130310509F061C085E693
:100F500093E023C081E893E00E94030E81E00E94A9
:100F60006F0D81E993E05AC080EA93E00E94030E7E
:100F700081E00E946F0D80EB93E050C02091C70587
:100F80003091C8052230310581F02330310501F15F
:100F900021303105E9F58DEC93E00E94030E81E0EC
:100FA0000E946F0D85E793E039C08DEC93E00E94BD
:100FB000030E81E00E946F0D80910001909101016C
:100FC000019619F488ED93E029C088EE93E026C0DD
:100FD00087EF93E00E94030E81E00E946F0D4AE0CC
:100FE00060E070E0CE0182960E94B90E6BE573E07E
:100FF000CE0101960E94E50EBE016E5D7F4FCE01CF
:1010000001960E94730E61E074E00E945A0E07CEB2
:1010100087E693E00E94030E8FEB93E00E94030E9D
:101020008091C00486301CF081E08093C0048091E0
:1010300002018F3F11F0FF2041F086E4809302010E
:101040008091C0048F5F8093C004AD960FB6F89472
:10105000DEBF0FBECDBFDF91CF911F910F91FF90EB
:101060000895FF920F931F93CF93DF93CDB7DEB711
:1010700062970FB6F894DEBF0FBECDBF00913F055B
:101080008AE296E00E94D60C002E000C110B69E05B
:1010900074E0CE010D960E94E50EB8016F5F7F4FA0
:1010A0004AE0CE0101960E94B90E18861F821A8668
:1010B00019861C861B86BE016F5F7F4FCE01079687
:1010C0000E949D0EBE01635F7F4FCE0107960E9476
:1010D000730E2EE0F22EF09EB001F19E700D1124E1
:1010E0006D5B7A4F0E94730E0E94660DCE010796CB
:1010F0000E94B40ECE0101960E94B40ECE010D9650
:101100000E94B40E81E00E946F0D80913F05909186
:101110004005F89E8001F99E100D1124075B1A4FBF
:101120006CEB71E0C8010E943B0E811103C0C80145
:101130000E94660D62960FB6F894DEBF0FBECDBF5B
:10114000DF91CF911F910F91FF90089585EF95E06A
:101150000E94A1058DEE95E00E94A10585EE95E027
:101160000E94A1058DEC95E00E94A1058DED95E012
:101170000E94A10585ED95E00E94A10583EC95E014
:101180000E94A1058BEB95E00E94A10583EB95E001
:101190000E94A1058BEA95E00E94A10583EA95E0F3
:1011A0000C94A105FF920F931F93CF93DF9300D070
:1011B00000D000D0CDB7DEB760E070E08BE00E94D9
:1011C000EB0B6BE074E0CE0101960E94E50E64EF3C
:1011D00071E080E090E00E944A0C10E08CE00E94F8
:1011E000F70A082F8EE00E94F70AF82E8DE00E9481
:1011F000F70AF11089C0811110E00023C1F0CE017F
:1012000001960E94B40E112309F44EC08AE296E0C2
:101210000E94D60C81E00E946F0D83E294E00E9450
:10122000030E80E00E946F0D00E110E01BC08AE217
:1012300096E00E94D60CCE0101960E94660D81E0D8
:101240000E946F0D112319F08BE194E002C080E23F
:1012500094E00E94030E64E670E080E090E00E945B
:101260004A0CBCCF64E670E080E090E00E944A0C3B
:101270008FE294E00E94030E0150110999F781E07A
:101280000E946F0D81E394E00E94030E68EC70E011
:1012900080E090E00E944A0C81E00E94A60860ED88
:1012A00077E080E090E022C08AE296E00E94D60CCF
:1012B00081E00E946F0D6CE271E080E090E00E949E
:1012C0004A0C81E494E00E94030E60E273E080E047
:1012D00090E00E944A0C80E00E946F0D84E494E04C
:1012E0000E94030E68EE73E080E090E00E944A0CDA
:1012F00026960FB6F894DEBF0FBECDBFDF91CF911B
:101300001F910F91FF90089511E075CFCF93DF9358
:10131000D82FC0E08D2F0E94F70A1816190644F442
:1013200062E370E080E090E00E944A0CC1E0F2CFFE
:10133000CC23E1F061E08DE00E94AF0B6EE170E044
:1013400080E090E00E944A0C61E08DE00E94200B5A
:101350006EE170E080E090E00E944A0C60E08DE079
:101360000E94200B60E08DE00E94AF0B8C2FDF917C
:10137000CF9108950F931F93CF93DF93EC018901D1
:10138000FC0161937193BA01CF010E949D0EB801D7
:10139000CE010896DF91CF911F910F910C949D0E75
:1013A0000F931F93CF93DF93EC01288139818C81B8
:1013B0009D812817390781F0072F162F8A819B817D
:1013C0000E948D1366E470E080E090E00E944A0C79
:1013D0001C830D8318830983DF91CF911F910F9197
:1013E0000895CF92DF92EF92FF920F931F93CF93C6
:1013F000DF936C017A018B01C0E0D0E0CE15DF05F0
:1014000089F0D8016D918D01D601ED91FC9101908B
:10141000F081E02DC6010995892B11F47E0102C0EF
:101420002196ECCFC701DF91CF911F910F91FF90D3
:10143000EF90DF90CF900895833081F028F48130D1
:1014400099F08230A1F008958730A9F08830B9F082
:101450008430D1F4809180008F7D03C08091800022
:101460008F7780938000089584B58F7702C084B50C
:101470008F7D84BD08958091B0008F7703C08091E7
:10148000B0008F7D8093B00008953FB7F8948091AD
:10149000D1049091D204A091D304B091D40426B584
:1014A000A89B05C02F3F19F00196A11DB11D3FBF9C
:1014B000BA2FA92F982F8827820F911DA11DB11D2A
:1014C000BC01CD0142E0660F771F881F991F4A9526
:1014D000D1F7089521E001C0220F6A95EAF7DC01F7
:1014E0001C962C931C971A965C934E931997ED912A
:1014F000FC910484F585E02D60E00994DC01ED9118
:10150000FC910684F785E02D41E0099581E090E0AB
:1015100008950E94E321EF92FF920F931F93CF93C0
:101520008C01FC01759684E0C0E060FF02C09081F0
:10153000C92B6695815031968111F7CF413011F456
:10154000F8014489F8018585C82BC42B7801FEE099
:10155000EF0EF11CF80162896C2BC7010E943B124F
:10156000F801628960956C23C701CF911F910F919B
:10157000FF90EF900C943B120F931F93CF93DF9348
:10158000062F0F70423019F440E0602F10C0142F66
:10159000262FEC0130E0B90184E0759567958A95B6
:1015A000E1F7CE010E948B0A412F602FCE01DF911F
:1015B000CF911F910F910C948B0AFC018485882395
:1015C000A9F0218532852115310519F4611106C074
:1015D00007C02130310521F4611102C0858701C0A7
:1015E00015866585CF010E960C943B120895CF9316
:1015F000DF93282F30E0F901EE5FFD4F8491F90170
:10160000E251FE4FD491F901E652FE4FC491CC2332
:1016100091F081110E941C0AEC2FF0E0EE0FFF1FE9
:10162000E053FE4FA591B491EC91ED2381E090E061
:1016300021F480E002C080E090E0DF91CF91089536
:101640001F93CF93DF93282F30E0F901EE5FFD4F1A
:101650008491F901E251FE4FD491F901E652FE4F17
:10166000C491CC23C9F0162F81110E941C0AEC2FC3
:10167000F0E0EE0FFF1FEA53FE4FA591B4918FB734
:10168000F894111105C09C91ED2FE095E92302C05B
:10169000EC91ED2BEC938FBFDF91CF911F910895CB
:1016A000EF92FF920F931F93CF93DF93EC01062FDE
:1016B000F42EE22E8B85888B1092C2041092C10406
:1016C00010920A0510922C051092080511E0109353
:1016D00007051092E20461E082E10E94200B61E0C4
:1016E00083E10E94200B8091B9008E7F8093B90026
:1016F0008091B9008D7F8093B90088E48093B80011
:1017000085E48093BC0088891093090580932B059C
:1017100010920A0510922C050E94A60D91E08111ED
:1017200090E0998B992329F08DE295E00E94361183
:101730008E878989882339F01F861C8260E0CE015C
:101740000E960E943B122E2D4F2D602FCE01DF9161
:10175000CF911F910F91FF90EF900C94B011CF9308
:10176000DF9390E0FC01E251FE4F2491FC01E65230
:10177000FE4F8491882361F190E0880F991FFC014E
:10178000E454FE4FC591D491FC01EA53FE4FA5915C
:10179000B491611109C09FB7F89488812095822384
:1017A0008883EC912E230BC0623061F49FB7F894CC
:1017B0003881822F809583238883EC912E2B2C9364
:1017C0009FBF06C08FB7F894E8812E2B28838FBF68
:1017D000DF91CF9108951F93CF93DF93182FEB01E3
:1017E00061E00E94AF0B209711F460E004C0CF3F8E
:1017F000D10539F461E0812FDF91CF911F910C94D5
:10180000200BE12FF0E0EE5FFD4FE491E330F9F0C3
:1018100048F4E130B9F0E230A1F584B5806284BDCE
:10182000C8BD34C0E730E9F0E83019F1E43049F5DB
:1018300080918000806280938000D0938B00C09361
:101840008A0024C084B5806884BDC7BD1FC0809154
:101850008000806880938000D0938900C0938800C6
:1018600015C08091B00080688093B000C093B30031
:101870000DC08091B00080628093B000C093B4002E
:1018800005C0C038D1050CF0B5CFAFCFDF91CF91F7
:101890001F9108958F929F92AF92BF92CF92DF9245
:1018A000EF92FF926B017C010E94450A4B015C01A3
:1018B000C114D104E104F104F1F00E94450ADC01F5
:1018C000CB0188199909AA09BB09883E9340A10553
:1018D000B10570F321E0C21AD108E108F10888EEE1
:1018E000880E83E0981EA11CB11CC114D104E10430
:1018F000F10419F7DDCFFF90EF90DF90CF90BF900C
:10190000AF909F908F9008951F920F920FB60F92F5
:1019100011242F933F938F939F93AF93BF93809105
:10192000CD049091CE04A091CF04B091D004309119
:10193000CC0423E0230F2D3720F40196A11DB11D07
:1019400005C026E8230F0296A11DB11D2093CC04EB
:101950008093CD049093CE04A093CF04B093D00491
:101960008091D1049091D204A091D304B091D40479
:101970000196A11DB11D8093D1049093D204A09330
:10198000D304B093D404BF91AF919F918F913F91B5
:101990002F910F900FBE0F901F901895DC01ED91C5
:1019A000FC910684F785E02D40E0099461E00E94F7
:1019B000CE0C8BE39FE10197F1F708950F931F93EE
:1019C000CF93DF93EC0188819981009729F02A81D8
:1019D0003B812617370788F48B016F5F7F4F0E948A
:1019E0001921009761F0998388831B830A832C81D6
:1019F0003D81232B11F4FC01108281E001C080E0C5
:101A0000DF91CF911F910F910895EF92FF920F9365
:101A10001F93CF93DF93FC012481358161157105FC
:101A200011F480E019C041155105A9F07B01EC01CA
:101A30008A01020F131FB8010E94DE0C882389F36C
:101A4000288139818C819D81B701820F931F0E946B
:101A5000FA211D830C8381E0DF91CF911F910F91BB
:101A6000FF90EF900895CF93DF93EC0188819981E7
:101A7000009711F00E948120198218821D821C8219
:101A80001B821A82DF91CF910895EF92FF920F93FC
:101A90001F93CF93DF93EC017B018A01BA010E946F
:101AA000DE0C811104C0CE010E94330D07C01D83DE
:101AB0000C83B701888199810E94FA21CE01DF91C0
:101AC000CF911F910F91FF90EF900895FC014481F9
:101AD0005581608171818AE296E00C94F109CF937F
:101AE000DF93CDB7DEB728970FB6F894DEBF0FBEF1
:101AF000CDBF1D8290E49E8324E12F8324E52887B7
:101B000019829A8390E19B8390E59C832091310612
:101B1000821710F08FEF820F3091320690E0FE01B5
:101B2000E80FF91F303121F4243011F4618101C034
:101B3000658160688AE296E028960FB6F894DEBF69
:101B40000FBECDBFDF91CF910C94CE0C20912C0510
:101B500090912B05213208F04AC08091080581112F
:101B6000FCCF32E03093080531E0309307053FEFBA
:101B7000309306051092050520930405ABE0B5E00F
:101B800044EE54E0FA013E2F341B321718F43D9115
:101B90003193F9CF1092E3042091E304990F922B33
:101BA0009093E3049091E204913061F41092E20486
:101BB0009091E3049093BB009091BC0093FDF8CF0B
:101BC00095EC01C095EE9093BC0090910805923081
:101BD000E1F3909106059F3F79F0809106058032F0
:101BE00041F080910605803331F084E005C081E04A
:101BF00003C082E001C083E010920A0510922C0518
:101C0000109209050895009769F0FC0101900020E9
:101C1000E9F73197AF01481B590BBC018AE296E006
:101C20000C94F10980E090E008950F931F93CF93F7
:101C3000DF938C01EB018AE296E00E94D60C80E0F3
:101C40000E946F0DC8010E94660D64EF71E080E094
:101C500090E00E944A0C81E00E946F0DCE010E942C
:101C6000660D68E775E080E090E0DF91CF911F910D
:101C70000F910C944A0CFC0124813581232B31F403
:101C800021E061157105A1F0FB0108C0FC01808114
:101C900091816115710531F421E0FC018081882377
:101CA00039F005C00E94F12121E0892B09F020E0E4
:101CB000822F0895CF93DF93EC016115710561F0D8
:101CC000FB0101900020E9F73197AF01461B570B4C
:101CD0000E94050D811103C0CE010E94330DCE017B
:101CE000DF91CF910895CF93DF93EC01FB01448105
:101CF0005581608171810E94050D811103C0CE0163
:101D00000E94330DCE01DF91CF910895CF93DF93E1
:101D1000EC016115710559F0FB0101900020E9F714
:101D20003197AF01461B570B0E94450D02C00E9420
:101D3000330DCE01DF91CF910895CF93DF93EC0166
:101D4000FB018617970761F060817181611571054C
:101D500029F0448155810E94450D02C00E94330D37
:101D6000CE01DF91CF910895FC01808191810C9487
:101D700081200F931F93CF93DF93CDB7DEB7629788
:101D80000FB6F894DEBF0FBECDBF8C01CB01F801BA
:101D900011821082138212821582148250E0BE01D9
:101DA0006F5F7F4F0E94301ABE016F5F7F4FC80187
:101DB0000E94860E62960FB6F894DEBF0FBECDBFAE
:101DC000DF91CF911F910F910895FC011182108234
:101DD00013821282158214826115710551F0FB0184
:101DE00001900020E9F73197AF01461B570B0C9487
:101DF000450D08952F923F924F925F926F927F927E
:101E00008F929F92AF92BF92CF92DF92EF92FF920A
:101E10000F931F93CF93DF93CDB7DEB76B970FB6BA
:101E2000F894DEBF0FBECDBF5C016B013A013B8F62
:101E30002A8F6CEB71E0CE0144960E94E50E64EFB0
:101E400071E080E090E00E944A0CCE0101964C01C6
:101E50008CE00E94F70A382E8EE00E94F70A582E76
:101E60008DE00E94F70A282E552039F1F6014480B2
:101E70005580FFEFEF16FF0641F068EB74E0C801F4
:101E80000E943B0E882309F4E0C0FEEF4F16510478
:101E900030F48FEF481A580AF6015582448268EBF5
:101EA00074E0C8010E943B0E8111C3C060E371E081
:101EB000C8010E943B0E81110EC0222049F18FEF14
:101EC000E816F806A9F060E371E0C8010E943B0E35
:101ED00081110EC00BC1F60184819581E816F906C7
:101EE00060F7FFEFEF16FF0609F0DCC0222081F05B
:101EF000F60184819581009721F00197F601958381
:101F0000848360E371E0C8010E943B0E8111D7C059
:101F10008AE296E00E94D60CC5010E94660D81E01F
:101F20000E946F0D60912F06862F816080932F068F
:101F300069608AE296E00E94CE0C198618861B869C
:101F40001A861D861C86BE016C5E7F4FCE010896E8
:101F50000E949D0EF601448055801F861E86198AB8
:101F6000188A1B8A1A8AB301CE010E960E949D0E12
:101F70004AE0B401C2010E94461AF4010190002017
:101F8000E9F73197AF0148195909B401CE010E960E
:101F90000E94050D811104C0CE010E960E94330DE2
:101FA000BE01685F7F4FCE010E960E94730E0E94A5
:101FB000660DCE010E960E94B40ECE0108960E94C8
:101FC000B40EEA8DFB8D099564E670E080E090E048
:101FD0000E944A0C13140CF03BCF60E371E0C8017F
:101FE0000E943B0E882351F0F60184819581E8160A
:101FF000F90620F4FFEFEF16FF06A1F468EB74E09A
:10200000C8010E943B0E882309F492C0F601848126
:1020100095818E159F0508F08BC0FFEFEF16FF0628
:1020200009F486C069E174E0CE0144960E94860EF0
:102030000FCFF601848195818E159F0508F036CF6C
:10204000FFEFEF16FF0619F531CF60E371E0C8012D
:102050000E943B0E882361F04E145F0448F48EEF1B
:102060004816510408F01BCFFFEF4F1A5F0A14CF38
:10207000E414F50408F013CFB701C6010E94D0099B
:102080006CEB71E0CE0144960E94860E08CFB7013A
:10209000C6010E94D0096CEB71E0CE0144960E940B
:1020A000860E04CFB701C6010E94D0096CEB71E027
:1020B000CE0144960E94860E211005CF29CFF6014D
:1020C00084819581E816F90608F022CFFFEFEF161C
:1020D000FF0609F41DCFB701C6010E94D0096CEBC1
:1020E00071E0CE0144960E94860E12CF68EB74E038
:1020F000C8010E943B0EF60124813581882349F0F6
:10210000E216F30630F421503109F60135832483B9
:10211000F8CEE216F30608F0F4CEB701C6010E942D
:10212000D0096CEB71E0CE0144960E94860EE9CE98
:10213000F60164817581808191818617970781F00E
:10214000F601828193810E948D1366E470E080E045
:1021500090E00E944A0CF6018481958191838083EE
:1021600060912F066E7F60932F0668608AE296E08A
:102170000E94CE0C61E08DE00E94AF0B6EE170E03A
:1021800080E090E00E944A0C61E08DE00E94200B0C
:102190006EE170E080E090E00E944A0C60E08DE02B
:1021A0000E94200B60E08DE00E94AF0BCE014496B0
:1021B0000E94B40E6B960FB6F894DEBF0FBECDBF73
:1021C000DF91CF911F910F91FF90EF90DF90CF9013
:1021D000BF90AF909F908F907F906F905F904F9047
:1021E0003F902F9008950895089585ED8093BC0049
:1021F0008091BC0084FDFCCF1092080508954091A9
:102200006506262F30E0240F311D21323105DCF424
:10221000209108052430C9F4FC0180E090E0861785
:1022200058F4309165062191DC01AD5BB94FA30FE5
:10223000B11D2C930196F3CF80916506680F6093D2
:10224000650680E0089581E0089582E0089508958C
:1022500081E090E03091C2042091C104321710F463
:1022600080E090E091958195910908958091C20454
:102270009091C104891730F48F5F8093C20480E08D
:1022800090E008958FEF9FEF08958091C10490E052
:102290002091C204821B91090895CF92DF92EF92A0
:1022A000FF920F931F93CF93DF937C01262F972FDD
:1022B0008A0180910905882391F0C62FD72F6E01DE
:1022C000C40ED51ECC15DD0571F06991D701ED91D5
:1022D000FC910190F081E02DC7010995F3CF642FA7
:1022E000822F0E94FF10C801DF91CF911F910F91A3
:1022F000FF90EF90DF90CF900895CF93DF931F92E0
:10230000CDB7DEB76983209109052223D1F0209152
:102310002C05203240F021E030E0FC0133832283A1
:1023200080E090E015C080910A05E82FF0E0E55FBD
:10233000FA4F998190838F5F80930A0580932C05D3
:1023400005C061E0CE0101960E94FF1081E090E09F
:102350000F90DF91CF910895089580E090E0089567
:102360000F931F93CF93DF93EC01423018F08C81D1
:1023700088608C834F836887222329F0413019F4C9
:102380008C8184608C8364E670E080E090E00E9441
:102390004A0C6C8164FD31C0E881F9810684F785BF
:1023A000E02D42E063E0CE0109958BE496E40197CD
:1023B000F1F7E881F9810684F785E02D42E063E0DA
:1023C000CE01099503E512E0C8010197F1F7E88114
:1023D000F9810684F785E02D42E063E0CE0109959E
:1023E000C8010197F1F7E881F9810684F785E02DAE
:1023F00042E062E0CE01099517C06062CE010E9402
:10240000CE0C8BE496E40197F1F76C816062CE010B
:102410000E94CE0C03E512E0C8010197F1F76C8130
:102420006062CE010E94CE0CC8010197F1F76C8169
:102430006062CE010E94CE0C8BEE90E00197F1F726
:1024400084E08D836CE0CE010E94CE0CCE010E9410
:10245000D60C82E08E8366E0CE010E94CE0CE8812D
:10246000F9810484F585E02D6FEFCE01DF91CF91E6
:102470001F910F910994FC0123812223B9F09181CE
:10248000909569236083828191E090930905809300
:102490002B0510920A0510922C058DE295E00E9402
:1024A0007D110E94A60D282F30E002C020E030E010
:1024B00081E090E0232B11F080E090E008951F92DE
:1024C0000F920FB60F9211242F933F934F935F9368
:1024D0006F937F938F939F93AF93BF93EF93FF93EC
:1024E0008091B900887F803609F49CC068F58832F5
:1024F00009F45BC090F4803109F454C038F48823A7
:1025000009F4F6C0883009F44DC0F6C0883109F4EA
:102510004CC0803209F45DC0EFC0803409F468C05B
:1025200048F4803309F455C0883309F0E5C080933E
:102530000605D8C0803509F44FC0883509F45DC060
:10254000883409F0D9C0D6C0883909F4C7C0A8F4C6
:10255000883709F467C038F4883609F463C08037D7
:1025600009F460C0C9C0883809F4B8C0803909F4DA
:102570005FC0803809F0C0C05BC0803B09F486C0F2
:1025800038F4803A09F466C0883A09F47FC0B4C0D0
:10259000803C09F4A7C0883C09F4A4C0883B09F436
:1025A0008AC0AAC08091E30410C090910505809173
:1025B0000405981770F5E091050581E08E0F809372
:1025C0000505F0E0EC51FB4F80818093BB0085EC6A
:1025D00086C0809306058EC0E091050581E08E0FD0
:1025E000809305058091BB00F0E0EC51FB4F8083A8
:1025F00090910505809104056EC0E091050581E08C
:102600008E0F809305058091BB00F0E0EC51FB4FED
:1026100080838091070581116DC081E08093E20481
:1026200084EA61C083E08093080510928906CFCFC9
:1026300080918906803208F051C0E091890681E0DE
:102640008E0F809389068091BB00F0E0E759F94F27
:102650008083BDCF85EC8093BC00109208058091EB
:102660008906803230F4E0918906F0E0E759F94FAD
:1026700010826091890670E0E0916706F09168062B
:1026800089E696E009951092890636C084E0809329
:1026900008051092660610926506E0916306F091B7
:1026A0006406099580916506811105C081E08093DB
:1026B000650610924306E091660681E08E0F8093D6
:1026C0006606F0E0ED5BF94F80818093BB0090914E
:1026D000660680916506981708F479CF85E880939F
:1026E000BC000AC085EC8093BC001092080504C0B1
:1026F000109206050E94F510FF91EF91BF91AF91E6
:102700009F918F917F916F915F914F913F912F9109
:102710000F900FBE0F901F9018950C94021E0F93F0
:102720001F93CF93DF93EC010A811B81C8010E94A4
:10273000FA1D90E08F3F910531F460E0C8010E94DE
:102740008D1380E090E09D838C83DF91CF911F916A
:102750000F910895CF93DF93CDB7DEB72D970FB6C6
:10276000F894DEBF0FBECDBF789484B5826084BD7F
:1027700084B5816084BD85B5826085BD85B5816085
:1027800085BD80916E00816080936E001092810003
:1027900080918100826080938100809181008160BE
:1027A000809381008091800081608093800080917F
:1027B000B10084608093B1008091B000816080930B
:1027C000B00080917A00846080937A0080917A00D2
:1027D000826080937A0080917A00816080937A0091
:1027E00080917A00806880937A001092C10020E086
:1027F00042E060E18AE296E00E94500B61E08AE0EC
:102800000E94AF0B61E08BE00E94AF0B60E08CE0B8
:102810000E94AF0B60E08DE00E94AF0B60E08EE0A5
:102820000E94AF0B61E08AE00E94AF0B61E08BE099
:102830000E94AF0B60E081E10E94AF0B64EF71E09A
:1028400080E090E00E944A0C6CEB71E0CE010196B2
:102850000E94E50E6AE872E0CE0107960E94E50E3E
:102860009E012F5F3F4FAE01495F5F4F6BE672E005
:1028700081E495E00E94BA09CE0107960E94B40E49
:10288000CE0101960E94B40E6CEB71E0CE01019670
:102890000E94E50E66E273E0CE0107960E94E50E07
:1028A0009E012F5F3F4FAE01495F5F4F6AEA71E0C3
:1028B0008FE495E00E94BA09CE0107960E94B40EFB
:1028C000CE0101960E94B40E64E574E0CE0101963B
:1028D0000E94E50E65E673E0CE0107960E94E50EC4
:1028E0009E012F5F3F4FAE01495F5F4F65ED74E082
:1028F0008DE595E00E94BA09CE0107960E94B40EBC
:10290000CE0101960E94B40E63E674E0CE010196FA
:102910000E94E50E61E873E0CE0107960E94E50E85
:102920009E012F5F3F4FAE01495F5F4F62E373E04F
:102930008BE695E00E94BA09CE0107960E94B40E7C
:10294000CE0101960E94B40E65E774E0CE010196B7
:102950000E94E50E66E874E0CE0107960E94E50E3F
:102960009E012F5F3F4FAE01495F5F4F6AE471E008
:1029700089E795E00E94BA09CE0107960E94B40E3D
:10298000CE0101960E94B40E63E974E0CE01019677
:102990000E94E50E64EA74E0CE0107960E94E50EFF
:1029A0009E012F5F3F4FAE01495F5F4F62ED78E0C0
:1029B00087E895E00E94BA09CE0107960E94B40EFE
:1029C000CE0101960E94B40E6CEB71E0CE0101962F
:1029D0000E94E50E61EB74E0CE0107960E94E50EC1
:1029E0009E012F5F3F4FAE01495F5F4F67E371E08C
:1029F00085E995E00E94BA09CE0107960E94B40EBF
:102A0000CE0101960E94B40E87E090E090933E05BF
:102A100080933D058091F9059091FA05892B11F07D
:102A200061E001C060E08AE296E00E94DD0A88EE83
:102A300093E00E94FA1D8F3F41F480E00E94A608B7
:102A400060E088EE93E00E948D131AE001E08EEFC3
:102A5000A82EBB24BA9488248A94982C8091FD05D2
:102A60008E3008F08E508770806480937C00809157
:102A70007A00806480937A0080917A0086FDFCCF92
:102A8000609178008091790070E0782B072E000C1F
:102A9000880B990B0E94DD1C2091010630910206E3
:102AA00040910306509104060E94481E6B017C0170
:102AB00060930106709302068093030690930406C8
:102AC00020E030E046E154E460910506709106068E
:102AD00080910706909108060E945C1F87FD8CC0BC
:102AE000109205061092060610920706109208062C
:102AF000A701960160E070EC8FE794E40E94B41E99
:102B000020E030E040E85FE30E94471E20910A0683
:102B100030910B0640910C0650910D060E943C1D11
:102B20006093120670931306809314069093150613
:102B30000E94691F6B017C0160930E0670930F0663
:102B4000809310069093110620911E0630911F0667
:102B500040912006509121060E943C1D20911A06AA
:102B600030911B0640911C0650911D060E94481E84
:102B70002B013C012091220630912306409124062E
:102B800050912506C701B6010E943C1DA701960180
:102B90000E943C1DA70196010E943C1D9B01AC01B7
:102BA000C301B2010E94481E9B01AC0160E070E0CD
:102BB00080E89FE30E94B41E609316067093170688
:102BC000809318069093190623E333E948E853E409
:102BD0000E94471E6093260670932706809328065E
:102BE0009093290610920106109202061092030695
:102BF0001092040600930906C0900506D0900606C0
:102C0000E0900706F090080620E030E040E85FEB37
:102C1000C701B6010E94D61C811116C025ED38E708
:102C200046EA51E460910106709102068091030624
:102C3000909104060E94B41E6093260670932706A6
:102C4000809328069093290620E030E040E85FE377
:102C5000C701B6010E94481E6093050670930606E0
:102C600080930706909308066AE570E080E090E0A4
:102C70000E944A0C0E9498018091CA049091CB0452
:102C800097FD05C001979093CB048093CA0480916F
:102C9000C8049091C90497FD05C001979093C90499
:102CA0008093C8048091C6049091C70497FD05C025
:102CB00001979093C7048093C6048091020187FD19
:102CC00003C08150809302018091CB059091CC0587
:102CD00097FD05C001979093CC058093CB058CE0C0
:102CE0000E94F70AD82E8EE00E94F70AC82E8DE0C7
:102CF0000E94F70A8D878091C7059091C8058130A1
:102D0000910519F0029779F0D4C02091AF05309168
:102D1000B005129FC001139F900D11249093E10400
:102D20008093E004BEC06091E9057091EA0580E0FF
:102D300090E00E94DB1C9B01AC0160912606709123
:102D4000270680912806909129060E94D61C909112
:102D5000DF0487FF84C04091AF055091B005149FF8
:102D60009001159F300D11243093E1042093E0046D
:102D700091113EC08091D1059091D205189F3001EC
:102D8000199F700C11247092CC056092CB05E090D5
:102D9000E105F090E2056091D9057091DA056E19B0
:102DA0007F0980E090E00E94DB1C1B012C01B30135
:102DB000770C880B990B0E94DD1C9B01AC01C201B2
:102DC000B1010E94B41E6093DB047093DC04809315
:102DD000DD049093DE04B70180E090E00E94DB1CEC
:102DE0006093D7047093D8048093D9049093DA0445
:102DF0008091CB059091CC05181619060CF5209101
:102E0000DB043091DC044091DD045091DE046091DC
:102E1000D7047091D8048091D9049091DA040E946B
:102E2000481E6093D7047093D8048093D90490937C
:102E3000DA040E94261F7093C5046093C40408C07E
:102E40008091D9059091DA059093C5048093C404CC
:102E50000093DF0490920101809200012AC040910A
:102E6000A7055091A805149F9001159F300D1124BE
:102E70003093E1042093E004992379F02091D10567
:102E80003091D205129FC001139F900D1124909391
:102E9000C7048093C6041092DF04B0920101A0928F
:102EA00000018091E1059091E2059093C504809323
:102EB000C4048091BF059091C0059093D60480937F
:102EC000D5042091CA043091CB042F3F3F4FC9F461
:102ED0002091C8043091C9042F3F3F4F41F4209105
:102EE000E0043091E1043093C9042093C804209198
:102EF000C8043091C904232B21F49093CB04809310
:102F0000CA048091CA049091CB0497FD05C06091DA
:102F1000B7057091B80502C060E070E08BE00E94D8
:102F2000EB0B8091C6049091C704181619062CF477
:102F30006091D9057091DA0504C06091C404709164
:102F4000C5048AE00E94EB0B8091C304882391F0B2
:102F50000E9431088091390590913A05181619069A
:102F600034F4019790933A058093390506C0109286
:102F7000C30403C080E00E94B605CC2011F180910B
:102F80003F059091400520913D0530913E0521502F
:102F90003109821793072CF4019690934005809392
:102FA0003F050E9431088EE090E00E9486098091E2
:102FB0003B0590913C0590933A0580933905009329
:102FC000C3048D85882309F44CC080913F059091FE
:102FD0004005181619062CF401979093400580932C
:102FE0003F050E9431088DE090E00E9486098091A3
:102FF0003B0590913C0590933A05809339050093E9
:10300000C304DD20D9F160912F06862F8160809363
:103010002F0669608AE296E00E94CE0C80913F05FF
:10302000909140052EE0289FF001299FF00D11247A
:10303000EF5BFA4F0190F081E02D099560912F062A
:103040006E7F60932F0668608AE296E00E94CE0C45
:103050008091C30481110BC01092400510923F056E
:1030600006C0DD2059F08091C3048111CCCF80913E
:10307000C304811103C081E00E94B60580E090E0A6
:10308000892B09F4EBCC0E940000E8CCEF92FF9270
:103090000F931F93CF93DF931092300510922F055B
:1030A00088EE93E0A0E0B0E0809331059093320584
:1030B000A0933305B09334058DE091E090932E05F5
:1030C00080932D0510922D0610922C068FE191E031
:1030D00090932B0680932A0610923A068FEF8093E6
:1030E00039061092380610923B0687E28093350627
:1030F000109236061092370610923406109233065C
:1031000084E080933C0682E080933D0681E08093DA
:103110003E0680E180933F0680E28093400680E493
:103120008093410680E88093420640E050E063E0EF
:103130008AE296E00E946A0A109201061092020644
:10314000109203061092040680E090E0A0E8BFEB26
:103150008093050690930606A0930706B093080691
:10316000109209068BEC98E4A4E8BAE380931A065F
:1031700090931B06A0931C06B0931D0686ED94E663
:10318000A9E7B9E380931E0690931F06A09320063B
:10319000B09321068CE69FECA8E5B4E38093220669
:1031A00090932306A0932406B0932506109226063A
:1031B00010922706109228061092290681E1E82E27
:1031C000F12CF092FE05E092FD0580E090E4ACE188
:1031D000B6E480930A0690930B06A0930C06B09376
:1031E0000D061092F8051092F70585EF95E00E9404
:1031F0008F13CFEFDFEFD093F605C093F50501E015
:1032000010E01093FC050093FB051093F00500936C
:10321000EF058DEE95E00E948F13D093EE05C093DD
:10322000ED05F092F405E092F30582E090E09093D2
:10323000E8058093E70585EE95E00E948F13D09313
:10324000E605C093E50587E190E09093EC05809357
:10325000EB0583E090E09093E0058093DF058DED32
:1032600095E00E948F13D093DE05C093DD0583E2C5
:1032700090E09093E4058093E30584E090E09093E0
:10328000D8058093D70585ED95E00E948F13D093E4
:10329000D605C093D50586E990E09093DC05809330
:1032A000DB0585E090E09093D0058093CF058DEC11
:1032B00095E00E948F13D093CE05C093CD058CE38B
:1032C00090E09093D4058093D3052091D10530915F
:1032D000D2054AE0429FC001439F900D1124909374
:1032E000CC058093CB0587E090E09093C605809352
:1032F000C50583EC95E00E948F13D093C405C0935D
:10330000C3051093CA050093C90588E090E0909327
:10331000BE058093BD058BEB95E00E948F13D09383
:10332000BC05C093BB050AE010E01093C2050093F2
:10333000C10589E090E09093B6058093B50583EBD5
:1033400095E00E948F13D093B405C093B30584E138
:1033500090E09093BA058093B9051093AE05009361
:10336000AD058BEA95E00E948F13D093AC05C09316
:10337000AB0580E590E09093B2058093B1058BE0BA
:1033800090E09093A6058093A50583EA95E00E94BE
:103390008F13D093A405C093A3058CE890E090937D
:1033A000AA058093A905C0E0D0E06CEB71E0CE01E6
:1033B0008D5B9A4F0E94E50E6CEB71E0CE01875B4E
:1033C0009A4F0E94E50E2E96C236D10571F71092E3
:1033D000400510923F058CE291E090933C0580936C
:1033E0003B0590933A0580933905DF91CF911F916A
:1033F0000F91FF90EF900895CF93DF93C3EAD5E04C
:103400002E97CE0108960E94B40ECE0102960E941D
:10341000B40E85E0C134D80799F7DF91CF910895B4
:10342000EF920F931F93CF93DF93E80147FD02C004
:1034300034E001C034E1E42F440FFF0BF7FF03C079
:10344000F195E195F109E32E022F2E2FAE010E9496
:10345000601ACE01DF91CF911F910F91EF900895E7
:103460004532510520F4423010F00C943B1AFB0118
:103470001082CB010895BB274A3031F4992322F4FE
:10348000BDE2909581959F4F0C94471ABB27FB0195
:103490005527AA27880F991FAA1FA41710F0A41B4D
:1034A00083955051B9F7A05DAA3308F0A95DA193A7
:1034B000009779F7B111B1931192CB010C94C61C0E
:1034C0004F925F926F927F929F92AF92BF92CF92F4
:1034D000DF92EF92FF920F931F93CF93DF93CDB7BD
:1034E000DEB729970FB6F894DEBF0FBECDBF6A01D5
:1034F000122FB02E2BE3201720F0FF24F394F00EB0
:1035000002C0BCE3FB2E0F2D27E0AE014F5F5F4FE3
:103510000E94EE1BAC018981982F9970913031F097
:10352000E1FC06C0E0FE06C090E205C09DE203C0DB
:103530009BE201C090E0EE2DE07183FF3CC0911151
:1035400002C083E001C084E0811718F4212F281BFA
:1035500001C020E0E1110BC0F601822F30E2882388
:1035600019F031938150FBCFC20ED11C20E099237A
:1035700029F0D6019C93F60131966F01C60103969E
:10358000E2FE0AC03EE4D6013C9341E411964C931E
:10359000119712963C9306C03EE6F601308341E651
:1035A00041833283FC01322F40E2332309F442C0CD
:1035B00041933150FACF82FF44C0911102C083E0A1
:1035C00001C084E0811718F4212F281B01C020E0DE
:1035D000E1110BC0F601822F30E2882319F03193FC
:1035E0008150FBCFC20ED11C20E0992329F0D601D7
:1035F0009C93F60131966F01C6010396E2FE0BC063
:1036000039E4D6013C933EE411963C93119736E49D
:1036100012963C9307C039E6F60130833EE63183CB
:1036200036E63283FC01322F40E2332319F0419316
:103630003150FBCFFC01E20FF11D10828EEF9FEFA6
:10364000B7C0F1E0911101C0F0E06F2F70E01416E7
:10365000150624F49A012F5F3F4F02C021E030E0AD
:10366000260F371FBB2029F06B2D70E06F5F7F4F57
:1036700002C060E070E0260F371F612F70E0261750
:1036800037071CF4121B212F01C020E03E2D38719A
:1036900059F4D601322F60E2332319F06D93315083
:1036A000FBCFC20ED11C20E0FF2331F0D6019C934A
:1036B000B6016F5F7F4F6B01E1110BC0F601922FD6
:1036C00030E3992319F031939150FBCFC20ED11CF6
:1036D00020E09F2D940F3A81782F7071A72E84FFE0
:1036E00003C0313309F49150191624F4993018F0BD
:1036F00098E001C091E0E42F852F57FF02C0E0E081
:1037000080E06E2F782FE0E0F0E0AEE29A2E3A01F2
:10371000691A71082A01461A570A0B2D10E01195F3
:10372000019511096F3F8FEF780729F4D6019C921C
:10373000C60101966C014617570784F06616770696
:103740006CF47F01E40CF51CA1E0B0E0AC0FBD1FF0
:10375000EA0EFB1ED7011196BC9002C090E3B92E71
:10376000615071093196C60101967C01601771079D
:1037700024F0D601BC926C01D5CF6417750741F4D3
:10378000363320F4353321F4A11002C081E3B82E82
:10379000F601B082F701822F90E2882319F091930D
:1037A0008150FBCFF701E20FF11D108280E090E025
:1037B00029960FB6F894DEBF0FBECDBFDF91CF9133
:1037C0001F910F91FF90EF90DF90CF90BF90AF903F
:1037D0009F907F906F905F904F900895283008F0F1
:1037E00027E03327DA01990F311D87FD916000969C
:1037F0006105710539F432602E5F3D9330E32A95FF
:10380000E1F708959F3F30F080387105610509F0B8
:103810003C5F3C5F3D93913008F08068911DDF93E1
:10382000CF931F930F93FF92EF92192F987F969546
:10383000E92F96959695E90FFF27E45EFE4F9927AD
:103840003327EE24FF24A701E7010590089407948D
:1038500028F4360FE71EF81E491F511D660F771F0B
:10386000881F991F0694A1F70590079428F4E70E86
:10387000F81E491F561FC11D770F881F991F661F0D
:103880000694A1F70590079428F4F80E491F561FD7
:10389000C71FD11D880F991F661F771F0694A1F7B8
:1038A0000590079420F4490F561FC71FD81F990F82
:1038B000661F771F881F0694A9F7849110951770CB
:1038C00041F0D695C79557954795F794E7941A9583
:1038D000C1F7E2ECF0E0689415901591359165918F
:1038E000959105907FE27395E118F10A430B560B11
:1038F000C90BD009C0F7E10CF11E431F561FC91FA9
:10390000D01D7EF4703311F48A95E6CFE89401500F
:1039100030F0080F0AF40027021708F4202F23952F
:10392000022F7A3328F079E37D932A95E9F710C0C6
:103930007D932A9589F606949795679537951795FF
:103940001794E118F10A430B560BC90BD00998F0F4
:1039500023957E9173957A3308F070E37C9320135E
:10396000B8F77E9170617D9330F0839571E37D931C
:1039700070E32A95E1F71124EF90FF900F911F91CA
:10398000CF91DF91992787FD90950895DC01FC0187
:10399000672F71917723E1F7329704C07C916D9383
:1039A00070836291AE17BF07C8F308950E94181D77
:1039B00008F481E00895E89409C097FB3EF49095DF
:1039C0008095709561957F4F8F4F9F4F9923A9F0F8
:1039D000F92F96E9BB279395F69587957795679587
:1039E000B795F111F8CFFAF4BB0F11F460FF1BC0CB
:1039F0006F5F7F4F8F4F9F4F16C0882311F096E95E
:103A000011C0772321F09EE8872F762F05C066230B
:103A100071F096E8862F70E060E02AF09A95660FC4
:103A2000771F881FDAF7880F9695879597F908957D
:103A3000990F0008550FAA0BE0E8FEEF16161706BF
:103A4000E807F907C0F012161306E407F50798F027
:103A5000621B730B840B950B39F40A2661F0232B40
:103A6000242B252B21F408950A2609F4A140A695BC
:103A70008FEF811D811D08950E944F1D0C94C01D64
:103A80000E94B21D38F00E94B91D20F0952311F05C
:103A90000C94A91D0C94AF1D11240C94F41D0E94CC
:103AA000D11D70F3959FC1F3950F50E0551F629F94
:103AB000F001729FBB27F00DB11D639FAA27F00D87
:103AC000B11DAA1F649F6627B00DA11D661F829FAE
:103AD0002227B00DA11D621F739FB00DA11D621F93
:103AE000839FA00D611D221F749F3327A00D611DB0
:103AF000231F849F600D211D822F762F6A2F112492
:103B00009F5750409AF0F1F088234AF0EE0FFF1FC4
:103B1000BB1F661F771F881F91505040A9F79E3F1B
:103B2000510580F00C94A91D0C94F41D5F3FE4F343
:103B3000983ED4F3869577956795B795F795E79571
:103B40009F5FC1F7FE2B880F911D9695879597F97A
:103B5000089597F99F6780E870E060E008959FEF0F
:103B600080EC089500240A94161617061806090614
:103B7000089500240A9412161306140605060895E3
:103B8000092E0394000C11F4882352F0BB0F40F46B
:103B9000BF2B11F460FF04C06F5F7F4F8F4F9F4FAB
:103BA000089557FD9058440F551F59F05F3F71F02D
:103BB0004795880F97FB991F61F09F3F79F0879594
:103BC0000895121613061406551FF2CF4695F1DF1D
:103BD00008C0161617061806991FF1CF86957105AD
:103BE000610508940895E894BB2766277727CB01E1
:103BF00097F90895F999FECF92BD81BDF89A99275A
:103C000080B50895262FF999FECF1FBA92BD81BDC8
:103C100020BD0FB6F894FA9AF99A0FBE019608954E
:103C20002F923F924F925F926F927F928F929F92CC
:103C3000AF92BF92CF92DF92EF92FF920F931F93BA
:103C4000CF93DF93CDB7DEB7CA1BDB0B0FB6F8946B
:103C5000DEBF0FBECDBF09942A88398848885F84AB
:103C60006E847D848C849B84AA84B984C884DF801C
:103C7000EE80FD800C811B81AA81B981CE0FD11D00
:103C80000FB6F894DEBF0FBECDBFED0108955058BA
:103C9000BB27AA270E945F1E0C94C01D0E94B21D64
:103CA00038F00E94B91D20F039F49F3F19F426F432
:103CB0000C94AF1D0EF4E095E7FB0C94A91DE92FC1
:103CC0000E94D11D58F3BA1762077307840795073E
:103CD00020F079F4A6F50C94F31D0EF4E0950B2E6C
:103CE000BA2FA02D0B01B90190010C01CA01A0014E
:103CF0001124FF27591B99F0593F50F4503E68F1A9
:103D00001A16F040A22F232F342F4427585FF3CFE9
:103D1000469537952795A795F0405395C9F77EF4BA
:103D20001F16BA0B620B730B840BBAF09150A1F003
:103D3000FF0FBB1F661F771F881FC2F70EC0BA0F89
:103D4000621F731F841F48F4879577956795B79511
:103D5000F7959E3F08F0B0CF9395880F08F099270C
:103D6000EE0F9795879508950E94C81E0C94C01D6C
:103D70000E94B91D58F00E94B21D40F029F45F3F27
:103D800029F00C94A91D51110C94F41D0C94AF1D35
:103D90000E94D11D68F39923B1F3552391F3951B2C
:103DA000550BBB27AA2762177307840738F09F5F5C
:103DB0005F4F220F331F441FAA1FA9F335D00E2EC9
:103DC0003AF0E0E832D091505040E695001CCAF736
:103DD0002BD0FE2F29D0660F771F881FBB1F2617F9
:103DE00037074807AB07B0E809F0BB0B802DBF01D0
:103DF000FF2793585F4F3AF09E3F510578F00C949F
:103E0000A91D0C94F41D5F3FE4F3983ED4F386950E
:103E100077956795B795F7959F5FC9F7880F911DBF
:103E20009695879597F90895E1E0660F771F881FAB
:103E3000BB1F621773078407BA0720F0621B730B5E
:103E4000840BBA0BEE1F88F7E09508950E942D1F92
:103E50006894B1110C94F41D08950E94D91D88F046
:103E60009F5798F0B92F9927B751B0F0E1F0660F3E
:103E7000771F881F991F1AF0BA95C9F714C0B1307F
:103E800091F00E94F31DB1E008950C94F31D672F8B
:103E9000782F8827B85F39F0B93FCCF386957795AE
:103EA0006795B395D9F73EF4909580957095619597
:103EB0007F4F8F4F9F4F08950E94181D08F48FEF7A
:103EC000089516F00C94B11F0C94AF1D68940C94D7
:103ED000A91D0E94D91DA8F39923C1F3AEF3DF9366
:103EE000CF931F930F93FF92C92FDD2788232AF0CA
:103EF0002197660F771F881FDAF720E030E040E84F
:103F00005FEB9FE3883920F0803E38F021968F7771
:103F10000E94481EE8E6F0E004C00E94481EE5E961
:103F2000F0E00E94BF1F8B01BE01EC01FB2E6F571A
:103F300071097595771F880B990B0E94DD1C28E18C
:103F400032E741E35FE30E944F1DAF2D9801AE01C0
:103F5000FF900F911F91CF91DF910E945F1E0C94F3
:103F6000C01D9F3F31F0915020F48795779567955C
:103F7000B795880F911D9695879597F90895DF93CA
:103F8000CF931F930F93FF92EF92DF927B018C01EF
:103F9000689406C0DA2EEF010E944F1DFE01E894DE
:103FA000A5912591359145915591A6F3EF010E9478
:103FB0005F1EFE019701A801DA9469F7DF90EF9088
:103FC000FF900F911F91CF91DF910895EE0FFF1F8A
:103FD0000590F491E02D0994CF93DF938230910501
:103FE00010F482E090E0E0918C06F0918D0620E0E4
:103FF00030E0C0E0D0E0309711F1408151814817A6
:104000005907C0F04817590761F4828193812097BE
:1040100019F09B838A832BC090938D0680938C0626
:1040200026C02115310519F04217530718F49A01DB
:10403000BE01DF01EF010280F381E02DDCCF21150D
:10404000310509F1281B390B2430310590F4129603
:104050008D919C9113976115710521F0FB0193835C
:10406000828304C090938D0680938C06FD01329666
:1040700044C0FD01E20FF31F819391932250310957
:104080002D933C933AC020918A0630918B06232BC6
:1040900041F4209105013091060130938B06209365
:1040A0008A0620910301309104012115310541F464
:1040B0002DB73EB74091070150910801241B350BE5
:1040C000E0918A06F0918B06E217F307A0F42E1B0D
:1040D0003F0B2817390778F0AC014E5F5F4F24176C
:1040E000350748F04E0F5F1F50938B0640938A06AA
:1040F0008193919302C0E0E0F0E0CF01DF91CF9196
:1041000008950F931F93CF93DF93009709F48CC00A
:10411000FC0132971382128200918C0610918D0659
:104120000115110581F420813181820F931F2091A7
:104130008A0630918B062817390779F5F0938B069C
:10414000E0938A0671C0D80140E050E0AE17BF0787
:1041500050F412962D913C911397AD012115310524
:1041600009F1D901F3CF9D01DA0133832283608104
:104170007181860F971F8217930769F4EC012881DC
:104180003981260F371F2E5F3F4F318320838A816D
:104190009B8193838283452B29F4F0938D06E093D2
:1041A0008C0642C01396FC93EE931297ED01499151
:1041B00059919E01240F351FE217F30771F4808196
:1041C0009181840F951F029611969C938E93828104
:1041D000938113969C938E931297E0E0F0E0D801C0
:1041E00012968D919C911397009719F0F8018C010C
:1041F000F6CF8D919C9198012E5F3F4F820F931FB8
:1042000020918A0630918B062817390769F4309778
:1042100029F410928D0610928C0602C0138212822D
:1042200010938B0600938A06DF91CF911F910F9117
:104230000895A0E0B0E0EFE1F1E20C94141EEC016F
:10424000009721F4CB010E94EC1FB8C0FC01E60FDF
:10425000F71F9C0122503109E217F30708F4ACC0A4
:10426000D9010D911C91119706171707B0F0053071
:10427000110508F49FC0C80104978617970708F432
:1042800099C002501109061B170B019311936D93EE
:104290007C93CF010E9481208DC05B01A01AB10ADE
:1042A0004C01800E911EA0918C06B0918D0640E0CD
:1042B00050E0E12CF12C109709F44AC0A815B9057B
:1042C000D1F56D907C901197630182E0C80ED11CEE
:1042D000CA14DB0480F1A3014A195B096A0182E078
:1042E000C80ED11C1296BC9012971396AC91B5E0F3
:1042F000CB16D10440F0B282A38351834083D9010D
:104300006D937C930AC00E5F1F4FC301800F911FF6
:10431000F90191838083EB2DFA2FE114F10431F040
:10432000D7011396FC93EE93129744C0F0938D0639
:10433000E0938C063FC08D919C91119748175907C7
:1043400008F4AC017D0112960D90BC91A02DB3CF65
:1043500080918A0690918B0688159905E1F446179D
:104360005707C8F48091030190910401009741F42C
:104370008DB79EB74091070150910801841B950BA2
:10438000E817F907C8F4F0938B06E0938A06F90161
:10439000718360830FC0CB010E94EC1F7C010097EA
:1043A00059F0A801BE010E94E821CE010E9481209F
:1043B000C70104C0CE0102C080E090E0CDB7DEB7F7
:1043C000EEE00C94301E81E090E0F8940C94012211
:1043D000FB01DC0102C001900D9241505040D8F722
:1043E0000895FB01DC018D91019080190110D9F332
:1043F000990B0895FB01DC0101900D920020E1F77B
:10440000089511E0CCE0D1E004C0FE010E94E61F57
:0C4410002196CD30D107C9F7F894FFCFFA
:10441C00FDFFFF00008E068000000000007D114DA6
:10442C0011AD112711451136112811000000007E25
:10443C000AF109AD11AC11500B6A0ADD0ABC0A0A6B
:10444C004C657373006F6E2F6F66663A004C434475
:10445C0020537669657361004D61782E2046616E3C
:10446C002052504D004D696E2E2046616E205250E8
:10447C004D200046616E20486F6C642F5269736545
:10448C00004E7573746174696D6169004973736171
:10449C0075676F7469206E61756A690074656D70FB
:1044AC006572617475726F73004E657261206E6116
:1044BC0075646F6A616D61004D61782074656D7013
:1044CC00657261747572652000432A20004D617815
:1044DC002074656D7065726174757265004D696EDE
:1044EC002074656D70657261747572652000566517
:1044FC00696B696D6F204275646F21004E65726146
:10450C00204E7573746174797461004772616E2EFC
:10451C002047726569746973006D696C6C697365A9
:10452C00633A004772616E2E5665696B2E6D6C7323
:10453C00630046616E2E486F6C642F526973650080
:10454C004D6178696D756D205365633A00477261F2
:10455C006E2E4C61756B696120004D696E696D75CD
:10456C006D205365633A004D6178696D756D20520D
:10457C00504D3A0046616E6F2047726569746973DD
:10458C00004D696E696D756D2052504D3A004D614C
:10459C0078696D756D20432A3A0054656D706572AB
:1045AC006174757261004772616E2E204D696E20C8
:1045BC006F72204D617800736563756E6465733A34
:1045CC00004772616E2E4E657665696B2E5365637E
:1045DC00004772616E2E7374756D696B6C69730034
:1045EC00436C6F636B3E6F6E3A00436C6F636B3E54
:1045FC006F66663A002D48494748543E6F6E3A0044
:10460C004C4F572D3E6F6E3A002D48494748543E4B
:10461C006F66663A004C4F572D3E6F66663A002522
:10462C003E6F6E3A00253E6F66663A0049736A75B6
:10463C006E6774612E004F726F205075742E204679
:10464C00656E61730020733A006D61782052504D95
:10465C003A006D696E2052504D3A002C483A005485
:10466C00656D702E20432A3A002D2D2D00432A20F3
:10467C006D61783A00312D5665696B696D6F20421A
:10468C007564617300506167616C204C61696B618A
:10469C0000322D5665696B696D6F204275646173CC
:1046AC000054656D702E4D696E202D204D61780083
:1046BC00332D5665696B696D6F20427564617300AB
:1046CC0054656D702E4D696E2025204D6178004E1D
:1046DC007573742E4E65706176796B6F0047616CE3
:1046EC00696E67756D617300482E44617567696109
:1046FC0075204B75726F2E004C2E4D617A69617569
:10470C00204B75726F2E004E6175646F6A616D611E
:10471C000025206B75726F2E002900417220746980
:10472C006B72616920746169703F0074616970001B
:10473C006E650044656661756C7420776173003E2C
:10474C000044656661756C742077617320736574C1
:10475C00004F6B0044656661756C74204E6F74205D
:10476C00536574005669656E6F646173204C6169A2
:10477C006B610054656D702E4D696E2061726261C3
:10478C00204D617800496A6E672E61726261204922
:10479C00736A756E6700456B726E6F205376696530
:1047AC0073610047616D696B2E506172616D657448
:1047BC0072616900507261642E4E757374797469FC
:1047CC0000497365697469004772656174657200AC
:00000001FF
