:100000000C94E0000C9408010C9408010C94080175
:100010000C9408010C9408010C9408010C9408013C
:100020000C9408010C9408010C9408010C9408012C
:100030000C9408010C9408010C9408010C9408011C
:100040000C94420E0C9408010C9408010C940801C5
:100050000C9408010C9408010C9408010C940801FC
:100060000C9462140C94080100407A10F35A00A01A
:10007000724E18090010A5D4E80000E87648170071
:1000800000E40B54020000CA9A3B000000E1F505B1
:10009000000080969800000040420F000000A086FB
:1000A00001000000102700000000E803000000002D
:1000B0006400000000000A000000000001000000D1
:1000C00000002C76D888DC674F0823DFC1DFAE59EB
:1000D000E1B1B796E5E3E453C63AE651997696E87E
:1000E000E6C28426EB898C9B62ED407C6FFCEFBC02
:1000F0009C9F40F2BAA56FA5F490055A2AF75C932D
:100100006B6CF9676DC11BFCE0E40D47FEF520E662
:10011000B500D0ED902E0300943577050080841E45
:10012000080000204E0A000000C80C333333330FA0
:10013000986E12831141EF8D2114893BE65516CF3D
:10014000FEE6DB18D1844B381BF77C1D901DA4BB49
:10015000E424203284725E228100C9F124ECA1E5FE
:100160003D2700000000240027002A0000000000B6
:10017000250028002B000000000023002600290095
:10018000040404040404040402020202020203033D
:100190000303030301020408102040800102040845
:1001A00010200102040810200000000800020100D5
:1001B000000304070000000000000000F31AA91C5F
:1001C00011241FBECFEFD8E0DEBFCDBF26E0AEEBDF
:1001D000B4E001C01D92A03AB207E1F714E0A0E03C
:1001E000B1E0EAEAF8E402C005900D92AE3BB10737
:1001F000D9F710E0CFEDD0E004C02197FE010E94B6
:100200002D22CE3DD107C9F70E94AD150C9448248C
:100210000C9400001092C10408950895089560910F
:10022000F3057091F4058AE00C94A90DEF92FF920A
:100230000F931F93CF93DF93CDB7DEB762970FB6BF
:10024000F894DEBF0FBECDBF60E070E08BE00E948F
:10025000A90D60E371E0CE010D960E94F41065E3F4
:1002600071E0CE0107960E94F4106DE371E0CE01BB
:1002700001960E94F410EE24EA94FE2C8E01035F96
:100280001F4F24E631E0AE01495F5F4F67E076E043
:10029000CE0101960E940911CE0101960E948E1096
:1002A000CE0107960E948E10C8010E948E106296A1
:1002B0000FB6F894DEBF0FBECDBFDF91CF911F9177
:1002C0000F91FF90EF90089560E070E08BE00E9446
:1002D000A90D80910B0690910C06892B11F061E01D
:1002E00001C060E08CE396E00C949B0CEF92FF92CF
:1002F0000F931F93CF93DF93CDB7DEB762970FB6FF
:10030000F894DEBF0FBECDBF60E070E08BE00E94CE
:10031000A90D60E371E0CE010D960E94F4106FE725
:1003200072E0CE0107960E94F41068E471E0CE01FD
:1003300001960E94F410EE24EA94FE2C8E01035FD5
:100340001F4F2FE031E0AE01495F5F4F67EE75E070
:10035000CE0101960E940911CE0101960E948E10D5
:10036000CE0107960E948E10C8010E948E10E09068
:10037000EB05F090EC0560E371E0C8010E94F41019
:100380006FE772E0CE0107960E94F41065E571E018
:10039000CE0101960E94F4102FE031E0AE01495FDA
:1003A0005F4F6FEE75E0CE0101960E940911CE01FC
:1003B00001960E948E10CE0107960E948E10C801F1
:1003C0000E948E1060E371E0C8010E94F41068E59D
:1003D00072E0CE0107960E94F41063E671E0CE0150
:1003E00001960E94F410EE24EA94FE2C2DE031E0F8
:1003F000AE01495F5F4F6FED75E0CE0101960E943F
:100400000911CE0101960E948E10CE0107960E941E
:100410008E10C8010E948E1066E771E0CE0107962B
:100420000E94F41061E871E0CE0101960E94F41080
:10043000BE01695F7F4FCE0101960E94EF0FCE0192
:1004400001960E948E10CE0107960E948E10629631
:100450000FB6F894DEBF0FBECDBFDF91CF911F91D5
:100460000F91FF90EF900895EF92FF920F931F93DB
:10047000CF93DF93CDB7DEB762970FB6F894DEBFA8
:100480000FBECDBF8091D9059091DA0582309105DC
:1004900079F08330910561F1019709F081C061E93C
:1004A00071E0CE0107960E94F4106EE971E080C001
:1004B00060E371E0CE010D960E94F4106EE773E0E8
:1004C000CE0107960E94F4106DEA71E0CE0101960C
:1004D0000E94F410EE24EA94FE2C8E01035F1F4F5D
:1004E0002DE031E0AE01495F5F4F67EF75E04AC034
:1004F00060E371E0CE010D960E94F4106EEB71E0A6
:10050000CE0107960E94F41062EC71E0CE010196D4
:100510000E94F410EE24EA94FE2C8E01035F1F4F1C
:100520002DE031E0AE01495F5F4F67EF75E0CE012E
:1005300001960E940911CE0101960E948E10CE01F3
:1005400007960E948E10C8010E948E10E090FB0555
:10055000F090FC0560E371E0C8010E94F4106EE7C2
:1005600073E0CE0107960E94F41062ED71E0CE01B7
:1005700001960E94F4102EE031E0AE01495F5F4F1A
:100580006FEF75E0CE0101960E940911CE01019630
:100590000E948E10CE0107960E948E10C80119C0CD
:1005A00063EE71E0CE0107960E94F41061EF71E0F6
:1005B000CE0101960E94F410BE01695F7F4FCE010B
:1005C00001960E94EF0FCE0101960E948E10CE017F
:1005D00007960E948E1062960FB6F894DEBF0FBE8B
:1005E000CDBFDF91CF911F910F91FF90EF900895B4
:1005F000EF92FF920F931F93CF93DF93CDB7DEB7A8
:1006000062970FB6F894DEBF0FBECDBF60E070E01A
:100610008BE00E94A90D60E371E0CE010D960E946F
:10062000F4106FE772E0CE0107960E94F41060E0CC
:1006300072E0CE0101960E94F410EE24EA94FE2CA2
:100640008E01035F1F4F2DE031E0AE01495F5F4F28
:1006500065EC75E0CE0101960E940911CE0101966C
:100660000E948E10CE0107960E948E10C8010E9433
:100670008E1060E371E0C8010E94F4106EE072E039
:10068000CE0107960E94F41068E172E0CE01019657
:100690000E94F4102DE031E0AE01495F5F4F6DEC38
:1006A00075E0CE0101960E940911CE0101960E94CB
:1006B0008E10CE0107960E948E10C8010E948E10E7
:1006C00060E371E0C8010E94F41063E172E0CE01C2
:1006D00007960E94F41067E272E0CE0101960E9434
:1006E000F4102DE031E0AE01495F5F4F6FED75E032
:1006F000CE0101960E940911CE0101960E948E1032
:10070000CE0107960E948E10C8010E948E1060E3F1
:1007100071E0C8010E94F41065E372E0CE01079613
:100720000E94F41062E472E0CE0101960E94F4107F
:100730002DE031E0AE01495F5F4F65EB75E0CE0122
:1007400001960E940911CE0101960E948E10CE01E1
:1007500007960E948E10C8010E948E10E090B90585
:10076000F090BA0560E371E0C8010E94F41060E502
:1007700072E0CE0107960E94F41062E472E0CE01AE
:1007800001960E94F4102EE031E0AE01495F5F4F08
:100790006DEB75E0CE0101960E940911CE01019624
:1007A0000E948E10CE0107960E948E10C8010E94F2
:1007B0008E1060E371E0C8010E94F4106DE572E0F4
:1007C000CE0107960E94F4106AE672E0CE0101960F
:1007D0000E94F410EE24EA94FE2C2DE031E0AE01EC
:1007E000495F5F4F67EE75E0CE0101960E940911E7
:1007F000CE0101960E948E10CE0107960E948E10A7
:10080000C8010E948E10E090EB05F090EC0560E3CB
:1008100071E0C8010E94F41067E772E0CE0107960C
:100820000E94F4106AE672E0CE0101960E94F41074
:100830002EE031E0AE01495F5F4F6FEE75E0CE0113
:1008400001960E940911CE0101960E948E10CE01E0
:1008500007960E948E10C8010E948E1060E371E01E
:10086000C8010E94F41064E872E0CE0107960E946D
:10087000F41060E972E0CE0101960E94F410EE24BB
:10088000EA94FE2C2DE031E0AE01495F5F4F67EF47
:1008900075E0CE0101960E940911CE0101960E94D9
:1008A0008E10CE0107960E948E10C8010E948E10F5
:1008B000E090FB05F090FC0560E371E0C8010E9448
:1008C000F4106CE972E0CE0107960E94F41060E922
:1008D00072E0CE0101960E94F4102EE031E0AE01EC
:1008E000495F5F4F6FEF75E0CE0101960E940911DD
:1008F000CE0101960E948E10CE0107960E948E10A6
:10090000C8010E948E1083E090E00E94240F66E7E9
:1009100071E0CE0107960E94F41068EA72E0CE0101
:1009200001960E94F410BE01695F7F4FCE010196CF
:100930000E94EF0FCE0101960E948E10CE01079605
:100940000E948E1062960FB6F894DEBF0FBECDBF28
:10095000DF91CF911F910F91FF90EF900895EF924B
:10096000FF920F931F93CF93DF93CDB7DEB76297BC
:100970000FB6F894DEBF0FBECDBF60E070E08BE035
:100980000E94A90D60E371E0CE010D960E94F41063
:100990006FE772E0CE0107960E94F41060E072E00B
:1009A000CE0101960E94F410EE24EA94FE2C8E01F2
:1009B000035F1F4F2DE031E0AE01495F5F4F65ECF3
:1009C00075E0CE0101960E940911CE0101960E94A8
:1009D0008E10CE0107960E948E10C8010E948E10C4
:1009E00060E371E0C8010E94F4106EE072E0CE0195
:1009F00007960E94F41068E172E0CE0101960E9411
:100A0000F4102DE031E0AE01495F5F4F6DEC75E011
:100A1000CE0101960E940911CE0101960E948E100E
:100A2000CE0107960E948E10C8010E948E1060E3CE
:100A300071E0C8010E94F41063E172E0CE010796F4
:100A40000E94F41067E272E0CE0101960E94F41059
:100A50002DE031E0AE01495F5F4F6FED75E0CE01F3
:100A600001960E940911CE0101960E948E10CE01BE
:100A700007960E948E10C8010E948E1060E371E0FC
:100A8000C8010E94F41065E372E0CE0107960E944F
:100A9000F41062E472E0CE0101960E94F4102DE0A1
:100AA00031E0AE01495F5F4F65EB75E0CE01019625
:100AB0000E940911CE0101960E948E10CE01079668
:100AC0000E948E10C8010E948E10E090B905F0902F
:100AD000BA0560E371E0C8010E94F41060E572E0BD
:100AE000CE0107960E94F41062E472E0CE010196F6
:100AF0000E94F4102EE031E0AE01495F5F4F6DEBD4
:100B000075E0CE0101960E940911CE0101960E9466
:100B10008E10CE0107960E948E10C8010E948E1082
:100B200060E371E0C8010E94F4106DE572E0CE014F
:100B300007960E94F4106AE672E0CE0101960E94C8
:100B4000F410EE24EA94FE2C2DE031E0AE01495F72
:100B50005F4F67EE75E0CE0101960E940911CE014C
:100B600001960E948E10CE0107960E948E10C80139
:100B70000E948E10E090EB05F090EC0560E371E0D0
:100B8000C8010E94F41067E772E0CE0107960E9448
:100B9000F4106AE672E0CE0101960E94F4102EE095
:100BA00031E0AE01495F5F4F6FEE75E0CE01019617
:100BB0000E940911CE0101960E948E10CE01079667
:100BC0000E948E10C8010E948E1060E371E0C8017F
:100BD0000E94F41064E872E0CE0107960E94F410BF
:100BE00060E972E0CE0101960E94F410EE24EA94CE
:100BF000FE2C2DE031E0AE01495F5F4F67EF75E0FD
:100C0000CE0101960E940911CE0101960E948E101C
:100C1000CE0107960E948E10C8010E948E1082E0BD
:100C200090E00E94240F66E771E0CE0107960E94D3
:100C3000F41069EB72E0CE0101960E94F410BE013F
:100C4000695F7F4FCE0101960E94EF0FCE010196A2
:100C50000E948E10CE0107960E948E1062960FB6EB
:100C6000F894DEBF0FBECDBFDF91CF911F910F91E2
:100C7000FF90EF900895EF92FF920F931F93CF9301
:100C8000DF93CDB7DEB762970FB6F894DEBF0FBE25
:100C9000CDBF60E070E08BE00E94A90D60E371E0E1
:100CA000CE010D960E94F4106FE772E0CE01079618
:100CB0000E94F41060E072E0CE0101960E94F410F0
:100CC000EE24EA94FE2C8E01035F1F4F2DE031E0ED
:100CD000AE01495F5F4F65EC75E0CE0101960E9461
:100CE0000911CE0101960E948E10CE0107960E9436
:100CF0008E10C8010E948E1060E371E0C8010E944E
:100D0000F4106EE072E0CE0107960E94F41068E1E4
:100D100072E0CE0101960E94F4102DE031E0AE01A8
:100D2000495F5F4F6DEC75E0CE0101960E9409119D
:100D3000CE0101960E948E10CE0107960E948E1061
:100D4000C8010E948E1060E371E0C8010E94F41097
:100D50006AEC72E0CE0107960E94F41064ED72E036
:100D6000CE0101960E94F4102DE031E0AE01495F02
:100D70005F4F6DEB75E0CE0101960E940911CE0127
:100D800001960E948E10CE0107960E948E10C80117
:100D90000E948E1081E090E00E94240F66E771E0CF
:100DA000CE0107960E94F41061E871E0CE01019631
:100DB0000E94F410BE01695F7F4FCE0101960E9430
:100DC000EF0FCE0101960E948E10CE0107960E9471
:100DD0008E1062960FB6F894DEBF0FBECDBFDF91C6
:100DE000CF911F910F91FF90EF900895CF93DF93D4
:100DF000EC016E818A819B810E94901566E470E00F
:100E000080E090E00E94080E8E819F819D838C83FC
:100E1000DF91CF910895FF920F931F93CF93DF93AC
:100E2000CDB7DEB7AD970FB6F894DEBF0FBECDBF1E
:100E3000F82E8CE396E00E94940E9091BE049330BD
:100E400009F4B1C134F4913059F0923009F4DCC0A6
:100E5000ABC2943009F42AC2953009F44CC2A4C242
:100E600084EE92E00E94DD0F81E00E94490F8091A4
:100E7000D9059091DA058130910589F56091CC040E
:100E80007091CD046F3F2FEF720741F04AE0CE0121
:100E900082960E94BF1063EF72E00BC06091CA049B
:100EA0007091CB044AE0CE0182960E94BF106DEF94
:100EB00072E0CE0101960E94F410BE016E5D7F4F7C
:100EC000CE0101960E944D100E94400FCE01019666
:100ED0000E948E10CE0182960E948E1065C28230D2
:100EE000910591F56091CC047091CD048091000141
:100EF000909101016F3F2FEF720789F04AE0019650
:100F000039F4CE0182960E94BF1068E073E0D1CF21
:100F1000CE0182960E94BF1063E173E0CACF609158
:100F2000CA047091CB044AE0019639F4CE0182964E
:100F30000E94BF106CE173E0BCCFCE0182960E948C
:100F4000BF1068E273E0B5CF039709F05AC0209153
:100F5000C4043091C5044AE0429FC001439F900DF4
:100F600011246091B9057091BA050E94192204E616
:100F700010E0061B170B6091CC047091CD046F3FFD
:100F80008FEF7807A1F0CE0188960E94BF104AE04B
:100F9000B801CE0101960E94BF10BE016F5F7F4F66
:100FA000CE0182960E94EB1062E373E018C060915C
:100FB000CA047091CB044AE0CE0188960E94BF100B
:100FC0004AE0B801CE0101960E94BF10BE016F5FDA
:100FD0007F4FCE0182960E94EB1068E373E0CE0152
:100FE00082960E943410BE01685D7F4F0E944D10B2
:100FF0000E94400FCE0182960E948E10CE01019673
:1010000050C18FE393E0CEC189E493E00E94DD0FED
:1010100081E00E94490F8091D9059091DA058230D4
:10102000910599F08330910509F470C0019709F09A
:10103000AAC06091C6047091C7044AE0CE018296AE
:101040000E94BF106FE772E04DC06091DD057091A6
:10105000DE05161617066CF54AE0CE0188960E944A
:10106000BF106091C6047091C7044AE0CE01829619
:101070000E94BF106FE772E0CE0101960E94F4104B
:10108000BE016E5D7F4FCE0101960E944D1068E556
:1010900073E00E943410BE01685D7F4F0E944D10C6
:1010A0000E94400FCE0101960E948E10CE018296C2
:1010B00064C06091C6047091C7048091EB05909163
:1010C000EC054AE06817790739F4CE0182960E9450
:1010D000BF106CE573E006C0CE0182960E94BF107F
:1010E00065E673E0CE0101960E94F410BE016E5DCC
:1010F0007F4FCE0101960E944D100E94400FCE01FD
:1011000001960E948E10CE0182963BC02091C604AB
:101110003091C70444E6429FC001439F900D1124C3
:101120006091EB057091EC050E9419228B014AE059
:10113000B901CE0188960E94BF104AE0B801CE01E5
:1011400001960E94BF10BE016F5F7F4FCE01829655
:101150000E94EB106EE673E0CE0182960E9434107E
:10116000BE01685D7F4F0E944D100E94400FCE016E
:1011700082960E948E10CE0101960E948E10CE01A2
:1011800088960E948E106091C8047091C90416164A
:1011900017060CF009C14AE0CE0182960E94BF10EA
:1011A00064E773E086CE60913806709139068091CD
:1011B0003A0690913B061BA21AA21DA21CA21FA2D6
:1011C0001EA28E010F5F1F4F22E044E00E94BD1C53
:1011D000BC01CE0182960E94601068E773E0C801EE
:1011E0000E94F410BE016E5D7F4FC8010E944D1039
:1011F0000E94400FC8010E948E10CE0182960E946C
:101200008E1081E00E94490F2091D9053091DA05B6
:101210002230310551F02330310599F0213031056C
:1012200009F0C2C082E893E0BDC06091FB057091F7
:10123000FC054AE0CE0182960E94931066E873E0B6
:1012400038CE6091FB057091FC054AE0CE0188968E
:101250000E94931060910306709104064AE0CE014B
:1012600082960E9493106EE873E0CE0101960E9470
:10127000F410BE016E5D7F4FCE0101960E944D10AD
:1012800068E873E00E943410BE01685D7F4F0E94E1
:101290004D100E94400FCE0101960E948E10CE018B
:1012A00082960E948E10CE01889616CE2091D90586
:1012B0003091DA052230310551F02330310589F0C3
:1012C0002130310509F068C086E993E024C082EB43
:1012D00093E00E94DD0F81E00E94490F82EC93E0D1
:1012E00061C081ED93E00E94DD0F81E00E94490F13
:1012F00081EE93E057C02091D9053091DA05223074
:10130000310589F02330310509F12130310509F02B
:1013100043C08EEF93E00E94DD0F81E00E94490FF1
:1013200086EA93E03FC08EEF93E00E94DD0F81E0FC
:101330000E94490F8091000190910101019619F4DA
:1013400089E094E02FC089E194E02CC088E294E029
:101350000E94DD0F81E00E94490F6091C2047091EC
:10136000C3044AE0CE0101960E94BF10BE016F5F28
:101370007F4FCE0182960E94EB1062E374E0CE01B3
:1013800082960E9434100E94400FCE0182960E94E5
:101390008E10CE010196A0CD88E993E00E94DD0F6A
:1013A00080EF93E00E94DD0F8091BE0486301CF038
:1013B00081E08093BE04809102018F3F11F0FF20F5
:1013C00041F086E4809302018091BE048F5F809398
:1013D000BE04AD960FB6F894DEBF0FBECDBFDF9151
:1013E000CF911F910F91FF900895FF920F931F933C
:1013F000CF93DF93CDB7DEB762970FB6F894DEBF19
:101400000FBECDBF009143058CE396E00E94940E81
:10141000002E000C110B6AE374E0CE010D960E94C1
:10142000F410B8016F5F7F4F4AE0CE0101960E9431
:10143000BF10BE016F5F7F4FCE0107960E94EB1079
:10144000BE01635F7F4FCE0107960E944D102EE0D4
:10145000F22EF09EB001F19E700D1124695B7A4F5F
:101460000E944D100E94400FCE0107960E948E10E0
:10147000CE0101960E948E10CE010D960E948E1014
:1014800081E00E94490F8091430590914405F89EA8
:101490008001F99E100D1124035B1A4F61EC71E07D
:1014A000C8010E941510811103C0C8010E94400F9D
:1014B00062960FB6F894DEBF0FBECDBFDF91CF911D
:1014C0001F910F91FF90089587E096E00E94F60625
:1014D0008FEF95E00E94F60687EF95E00E94F606F2
:1014E0008FED95E00E94F6068FEE95E00E94F606DD
:1014F00087EE95E00E94F60685ED95E00E94F606DF
:101500008DEC95E00E94F60685EC95E00E94F606CB
:101510008DEB95E00E94F60685EB95E00C94F606BF
:10152000FF920F931F93CF93DF9300D000D000D092
:10153000CDB7DEB760E070E08BE00E94A90D6CE3F0
:1015400074E0CE0101960E94F41064EF71E080E037
:1015500090E00E94080E10E08CE00E94B50C082F6D
:101560008EE00E94B50CF82E8DE00E94B50CF110B3
:1015700089C0811110E00023C1F0CE0101960E94C4
:101580008E10112309F44EC08CE396E00E94940E55
:1015900081E00E94490F84E594E00E94DD0F80E025
:1015A0000E94490F00E110E01BC08CE396E00E940E
:1015B000940ECE0101960E94400F81E00E94490FD7
:1015C000112319F08CE494E002C081E594E00E94BC
:1015D000DD0F64E670E080E090E00E94080EBCCF72
:1015E00064E670E080E090E00E94080E80E694E0FF
:1015F0000E94DD0F0150110999F781E00E94490F07
:1016000082E694E00E94DD0F68EC70E080E090E0FC
:101610000E94080E81E00E94640A60ED77E080E09D
:1016200090E022C08CE396E00E94940E81E00E943C
:10163000490F6CE271E080E090E00E94080E82E7C2
:1016400094E00E94DD0F60E273E080E090E00E9491
:10165000080E80E00E94490F85E794E00E94DD0FAC
:1016600068EE73E080E090E00E94080E26960FB6C8
:10167000F894DEBF0FBECDBFDF91CF911F910F91C8
:10168000FF90089511E075CFCF93DF93D82FC0E07E
:101690008D2F0E94B50C1816190644F462E370E011
:1016A00080E090E00E94080EC1E0F2CFCC23E1F090
:1016B00061E08DE00E946D0D6EE170E080E090E0F1
:1016C0000E94080E61E08DE00E94DE0C6EE170E089
:1016D00080E090E00E94080E60E08DE00E94DE0C49
:1016E00060E08DE00E946D0D8C2FDF91CF91089509
:1016F0000F931F93CF93DF93EC018901FC0161935A
:101700007193BA01CF010E947710B801CE010896FB
:10171000DF91CF911F910F910C9477100F931F932E
:10172000CF93DF93EC01288139818C819D8128172B
:10173000390781F0072F162F8A819B810E9490150F
:1017400066E470E080E090E00E94080E1C830D8348
:1017500018830983DF91CF911F910F910895CF9244
:10176000DF92EF92FF920F931F93CF93DF936C0161
:101770007A018B01C0E0D0E0CE15DF0589F0D801F9
:101780006D918D01D601ED91FC910190F081E02DDC
:10179000C6010995892B11F47E0102C02196ECCF78
:1017A000C701DF91CF911F910F91FF90EF90DF90D4
:1017B000CF900895833081F028F4813099F0823001
:1017C000A1F008958730A9F08830B9F08430D1F4C1
:1017D000809180008F7D03C0809180008F778093FF
:1017E0008000089584B58F7702C084B58F7D84BD55
:1017F00008958091B0008F7703C08091B0008F7DF5
:101800008093B00008953FB7F8948091D3049091ED
:10181000D404A091D504B091D60426B5A89B05C0E8
:101820002F3F19F00196A11DB11D3FBFBA2FA92F5F
:10183000982F8827820F911DA11DB11DBC01CD01DC
:1018400042E0660F771F881F991F4A95D1F70895C8
:1018500021E001C0220F6A95EAF7DC011C962C9367
:101860001C971A965C934E931997ED91FC91048402
:10187000F585E02D60E00994DC01ED91FC91068492
:10188000F785E02D41E0099581E090E008950E9400
:101890002A24EF92FF920F931F93CF938C01FC01A8
:1018A000759684E0C0E060FF02C09081C92B669508
:1018B000815031968111F7CF413011F4F8014489FC
:1018C000F8018585C82BC42B7801FEE0EF0EF11CD2
:1018D000F80162896C2BC7010E943E14F8016289ED
:1018E00060956C23C701CF911F910F91FF90EF90EE
:1018F0000C943E140F931F93CF93DF93062F0F701A
:10190000423019F440E0602F10C0142F262FEC0154
:1019100030E0B90184E0759567958A95E1F7CE01CD
:101920000E94490C412F602FCE01DF91CF911F9172
:101930000F910C94490CFC0184858823A9F0218522
:1019400032852115310519F4611106C007C0213017
:10195000310521F4611102C0858701C015866585B6
:10196000CF010E960C943E140895CF93DF93282F49
:1019700030E0F901E855FE4F8491F901EC56FE4F35
:10198000D491F901E058FE4FC491CC2391F081111C
:101990000E94DA0BEC2FF0E0EE0FFF1FEA58FE4F2B
:1019A000A591B491EC91ED2381E090E021F480E0E9
:1019B00002C080E090E0DF91CF9108951F93CF9314
:1019C000DF93282F30E0F901E855FE4F8491F901AB
:1019D000EC56FE4FD491F901E058FE4FC491CC2350
:1019E000C9F0162F81110E94DA0BEC2FF0E0EE0FF8
:1019F000FF1FE459FE4FA591B4918FB7F8941111D0
:101A000005C09C91ED2FE095E92302C0EC91ED2BF0
:101A1000EC938FBFDF91CF911F910895EF92FF92CA
:101A20000F931F93CF93DF93EC01062FF42EE22E3A
:101A30008B85888B1092C0041092BF0410920E0503
:101A40001092300510920C0511E010930B051092C6
:101A5000E60461E082E10E94DE0C61E083E10E9425
:101A6000DE0C8091B9008E7F8093B9008091B9001F
:101A70008D7F8093B90088E48093B80085E48093DB
:101A8000BC00888910930D0580932F0510920E05D8
:101A9000109230050E94800F91E0811190E0998BA7
:101AA000992329F081E395E00E9439138E87898973
:101AB000882339F01F861C8260E0CE010E960E94BA
:101AC0003E142E2D4F2D602FCE01DF91CF911F910F
:101AD0000F91FF90EF900C94B313CF93DF9390E0AE
:101AE000FC01EC56FE4F2491FC01E058FE4F84911E
:101AF000882361F190E0880F991FFC01EE59FE4F99
:101B0000C591D491FC01E459FE4FA591B4916111A6
:101B100009C09FB7F8948881209582238883EC912F
:101B20002E230BC0623061F49FB7F8943881822F66
:101B3000809583238883EC912E2B2C939FBF06C026
:101B40008FB7F894E8812E2B28838FBFDF91CF9138
:101B500008951F93CF93DF93182FEB0161E00E944C
:101B60006D0D209711F460E004C0CF3FD10539F42A
:101B700061E0812FDF91CF911F910C94DE0CE12F5A
:101B8000F0E0E855FE4FE491E330F9F048F4E1303D
:101B9000B9F0E230A1F584B5806284BDC8BD34C01F
:101BA000E730E9F0E83019F1E43049F58091800040
:101BB000806280938000D0938B00C0938A0024C001
:101BC00084B5806884BDC7BD1FC0809180008068D7
:101BD00080938000D0938900C093880015C08091C5
:101BE000B00080688093B000C093B3000DC08091B6
:101BF000B00080628093B000C093B40005C0C038CC
:101C0000D1050CF0B5CFAFCFDF91CF911F910895E3
:101C10008F929F92AF92BF92CF92DF92EF92FF92FC
:101C20006B017C010E94030C4B015C01C114D104C7
:101C3000E104F104F1F00E94030CDC01CB018819EE
:101C40009909AA09BB09883E9340A105B10570F323
:101C500021E0C21AD108E108F10888EE880E83E07D
:101C6000981EA11CB11CC114D104E104F10419F7A0
:101C7000DDCFFF90EF90DF90CF90BF90AF909F901F
:101C80008F9008951F920F920FB60F9211242F93E9
:101C90003F938F939F93AF93BF938091CF04909185
:101CA000D004A091D104B091D2043091CE0423E0AD
:101CB000230F2D3720F40196A11DB11D05C026E884
:101CC000230F0296A11DB11D2093CE048093CF0453
:101CD0009093D004A093D104B093D2048091D30404
:101CE0009091D404A091D504B091D6040196A11D81
:101CF000B11D8093D3049093D404A093D504B093E2
:101D0000D604BF91AF919F918F913F912F910F90EA
:101D10000FBE0F901F901895DC01ED91FC91068489
:101D2000F785E02D40E0099461E00E948C0E8BE382
:101D30009FE10197F1F708950F931F93CF93DF93DE
:101D4000EC0188819981009729F02A813B8126172F
:101D5000370788F48B016F5F7F4F0E9460230097E5
:101D600061F0998388831B830A832C813D81232B17
:101D700011F4FC01108281E001C080E0DF91CF917D
:101D80001F910F910895EF92FF920F931F93CF939E
:101D9000DF93FC01248135816115710511F480E028
:101DA00019C041155105A9F07B01EC018A01020F10
:101DB000131FB8010E949C0E882389F32881398162
:101DC0008C819D81B701820F931F0E9441241D8346
:101DD0000C8381E0DF91CF911F910F91FF90EF90E5
:101DE0000895CF93DF93EC0188819981009711F0DA
:101DF0000E94C822198218821D821C821B821A82AC
:101E0000DF91CF910895EF92FF920F931F93CF939D
:101E1000DF93EC017B018A01BA010E949C0E8111C3
:101E200004C0CE010E94F10E07C01D830C83B701D0
:101E3000888199810E944124CE01DF91CF911F9129
:101E40000F91FF90EF9008950F931F93CF93DF931F
:101E5000182F092FC5EDD5E0682F8A819B810E943C
:101E6000901566E470E080E090E00E94080E1C830C
:101E70000D8318830983DF91CF911F910F910895EE
:101E8000FC0144815581608171818CE396E00C9462
:101E9000AF0BCF93DF93CDB7DEB728970FB6F8948B
:101EA000DEBF0FBECDBF1D8290E49E8324E12F8351
:101EB00024E5288719829A8390E19B8390E59C838F
:101EC00020914306821710F08FEF820F3091440665
:101ED00090E0FE01E80FF91F303121F4243011F4B5
:101EE000618101C0658160688CE396E028960FB639
:101EF000F894DEBF0FBECDBFDF91CF910C948C0E56
:101F00002091300590912F05213208F04AC0809130
:101F10000C058111FCCF32E030930C0531E0309399
:101F20000B053FEF30930A05109209052093080531
:101F3000AFE0B5E048EE54E0FA013E2F341B321713
:101F400018F43D913193F9CF1092E7042091E70402
:101F5000990F922B9093E7049091E604913061F4ED
:101F60001092E6049091E7049093BB009091BC001E
:101F700093FDF8CF95EC01C095EE9093BC00909145
:101F80000C059230E1F390910A059F3F79F0809122
:101F90000A05803241F080910A05803331F084E0F7
:101FA00005C081E003C082E001C083E010920E050D
:101FB0001092300510920D050895009769F0FC010C
:101FC00001900020E9F73197AF01481B590BBC0184
:101FD0008CE396E00C94AF0B80E090E008950F93B3
:101FE0001F93CF93DF938C01EB018CE396E00E946B
:101FF000940E80E00E94490FC8010E94400F64EFD8
:1020000071E080E090E00E94080E81E00E94490F9C
:10201000CE010E94400F68E775E080E090E0DF911C
:10202000CF911F910F910C94080EFC0124813581F2
:10203000232B31F421E061157105A1F0FB0108C0EB
:10204000FC01808191816115710531F421E0FC0171
:102050008081882339F005C00E94382421E0892B33
:1020600009F020E0822F0895CF93DF93EC016115F2
:10207000710561F0FB0101900020E9F73197AF0194
:10208000461B570B0E94C30E811103C0CE010E9454
:10209000F10ECE01DF91CF910895CF93DF93EC0144
:1020A000FB0144815581608171810E94C30E8111C1
:1020B00003C0CE010E94F10ECE01DF91CF910895B1
:1020C000CF93DF93EC016115710559F0FB0101908D
:1020D0000020E9F73197AF01461B570B0E94030F11
:1020E00002C00E94F10ECE01DF91CF910895CF93EF
:1020F000DF93EC01FB018617970761F06081718126
:102100006115710529F0448155810E94030F02C0B9
:102110000E94F10ECE01DF91CF910895FC018081E4
:1021200091810C94C8220F931F93CF93DF93CDB767
:10213000DEB761970FB6F894DEBF0FBECDBF8C013E
:10214000CB01F8011182108213821282158214824F
:1021500050E0BE016F5F7F4F0E94F31CBE016F5FB6
:102160007F4FC8010E94601061960FB6F894DEBFE1
:102170000FBECDBFDF91CF911F910F9108950F93A7
:102180001F93CF93DF93CDB7DEB762970FB6F89466
:10219000DEBF0FBECDBF8C01CB01F80111821082D2
:1021A000138212821582148250E0BE016F5F7F4F4E
:1021B0000E94DD1CBE016F5F7F4FC8010E9460104E
:1021C00062960FB6F894DEBF0FBECDBFDF91CF9100
:1021D0001F910F910895FC011182108213821282C7
:1021E000158214820C947710FC01118210821382E4
:1021F0001282158214826115710551F0FB01019064
:102200000020E9F73197AF01461B570B0C94030FE1
:1022100008952F923F924F925F926F927F928F928A
:102220009F92AF92BF92CF92DF92EF92FF920F9365
:102230001F93CF93DF93CDB7DEB76B970FB6F894AC
:10224000DEBF0FBECDBF5C016B013A013B8F2A8F11
:1022500061EC71E0CE0144960E94F41064EF71E0ED
:1022600080E090E00E94080ECE0101964C018CE0C7
:102270000E94B50C382E8EE00E94B50C582E8DE0D1
:102280000E94B50C282E552039F1F6014480558066
:10229000FFEFEF16FF0641F066EB74E0C8010E9405
:1022A0001510882309F4D4C0FEEF4F16510430F402
:1022B0008FEF481A580AF6015582448266EB74E0A3
:1022C000C8010E9415108111B7C060E371E0C80118
:1022D0000E94151081110EC0222049F18FEFE816DF
:1022E000F806A9F060E371E0C8010E9415108111A1
:1022F0000EC0FFC0F60184819581E816F90660F7EB
:10230000FFEFEF16FF0609F0D0C0222081F0F601A2
:1023100084819581009721F00197F601958384834C
:1023200060E371E0C8010E9415108111CBC08CE3FD
:1023300096E00E94940EC5010E94400F81E00E9429
:10234000490F60914106862F816080934106696044
:102350008CE396E00E948C0EBE016C5E7F4FCE0136
:1023600008960E94EB10F60144805580B301CE011F
:102370000E960E94EB104AE0B401C2010E94FE1CBE
:10238000F40101900020E9F73197AF01481959098C
:10239000B401CE010E960E94C30E811104C0CE017D
:1023A0000E960E94F10EBE01685F7F4FCE010E9621
:1023B0000E944D100E94400FCE010E960E948E107A
:1023C000CE0108960E948E10EA8DFB8D099564E679
:1023D00070E080E090E00E94080E13140CF047CFEC
:1023E00060E371E0C8010E941510882351F0F601E6
:1023F00084819581E816F90620F4FFEFEF16FF06B9
:10240000A1F466EB74E0C8010E941510882309F45A
:1024100092C0F601848195818E159F0508F08BC0CE
:10242000FFEFEF16FF0609F486C06AE474E0CE0100
:1024300044960E9460101BCFF601848195818E1511
:102440009F0508F042CFFFEFEF16FF0619F53DCFCD
:1024500060E371E0C8010E941510882361F04E14FA
:102460005F0448F48EEF4816510408F027CFFFEFC1
:102470004F1A5F0A20CFE414F50408F01FCFB7010C
:10248000C6010E948E0B61EC71E0CE0144960E9461
:10249000601014CFB701C6010E948E0B61EC71E091
:1024A000CE0144960E94601010CFB701C6010E9471
:1024B0008E0B61EC71E0CE0144960E9460102110F9
:1024C00011CF35CFF60184819581E816F90608F021
:1024D0002ECFFFEFEF16FF0609F429CFB701C60193
:1024E0000E948E0B61EC71E0CE0144960E94601058
:1024F0001ECF66EB74E0C8010E941510F60124811E
:102500003581882349F0E216F30630F42150310971
:10251000F6013583248304CFE216F30608F000CFDA
:10252000B701C6010E948E0B61EC71E0CE014496AA
:102530000E946010F5CEF6016481758180819181E1
:102540008617970781F0F601828193810E9490158A
:1025500066E470E080E090E00E94080EF60184815D
:10256000958191838083609141066E7F60934106DF
:1025700068608CE396E00E948C0E61E08DE00E9422
:102580006D0D6EE170E080E090E00E94080E61E069
:102590008DE00E94DE0C6EE170E080E090E00E9431
:1025A000080E60E08DE00E94DE0C60E08DE00E948D
:1025B0006D0DCE0144960E948E106B960FB6F89466
:1025C000DEBF0FBECDBFDF91CF911F910F91FF9066
:1025D000EF90DF90CF90BF90AF909F908F907F90C3
:1025E0006F905F904F903F902F90089508950895B9
:1025F00085ED8093BC008091BC0084FDFCCF1092DF
:102600000C05089540917706262F30E0240F311DE8
:1026100021323105DCF420910C052430C9F4FC0191
:1026200080E090E0861758F4309177062191DC0124
:10263000AB5AB94FA30FB11D2C930196F3CF8091E4
:102640007706680F6093770680E0089581E008952B
:1026500082E00895089581E090E03091C0042091D7
:10266000BF04321710F480E090E0919581959109B4
:1026700008958091C0049091BF04891730F48F5F52
:102680008093C00480E090E008958FEF9FEF08955D
:102690008091BF0490E02091C004821B91090895AD
:1026A000CF92DF92EF92FF920F931F93CF93DF931E
:1026B0007C01262F972F8A0180910D05882391F0A8
:1026C000C62FD72F6E01C40ED51ECC15DD0571F0B7
:1026D0006991D701ED91FC910190F081E02DC70146
:1026E0000995F3CF642F822F0E940213C801DF9156
:1026F000CF911F910F91FF90EF90DF90CF900895B1
:10270000CF93DF931F92CDB7DEB7698320910D057C
:102710002223D1F020913005203240F021E030E03A
:10272000FC013383228380E090E015C080910E0588
:10273000E82FF0E0E15FFA4F998190838F5F8093FB
:102740000E058093300505C061E0CE0101960E9420
:10275000021381E090E00F90DF91CF9108950895EA
:1027600080E090E008950F931F93CF93DF93EC01E7
:10277000423018F08C8188608C834F8368872223D5
:1027800029F0413019F48C8184608C8364E670E018
:1027900080E090E00E94080E6C8164FD31C0E88109
:1027A000F9810684F785E02D42E063E0CE010995CA
:1027B0008BE496E40197F1F7E881F9810684F785C7
:1027C000E02D42E063E0CE01099503E512E0C80187
:1027D0000197F1F7E881F9810684F785E02D42E061
:1027E00063E0CE010995C8010197F1F7E881F9810D
:1027F0000684F785E02D42E062E0CE01099517C01E
:102800006062CE010E948C0E8BE496E40197F1F792
:102810006C816062CE010E948C0E03E512E0C8015B
:102820000197F1F76C816062CE010E948C0EC801A5
:102830000197F1F76C816062CE010E948C0E8BEEE5
:1028400090E00197F1F784E08D836CE0CE010E9467
:102850008C0ECE010E94940E82E08E8366E0CE0143
:102860000E948C0EE881F9810484F585E02D6FEFDC
:10287000CE01DF91CF911F910F910994FC0123812B
:102880002223B9F09181909569236083828191E040
:1028900090930D0580932F0510920E051092300530
:1028A00081E395E00E9480130E94800F282F30E082
:1028B00002C020E030E081E090E0232B11F080E0C6
:1028C00090E008951F920F920FB60F9211242F934C
:1028D0003F934F935F936F937F938F939F93AF93A8
:1028E000BF93EF93FF938091B900887F803609F4FE
:1028F0009CC068F5883209F45BC090F4803109F41B
:1029000054C038F4882309F4F6C0883009F44DC067
:10291000F6C0883109F44CC0803209F45DC0EFC0C4
:10292000803409F468C048F4803309F455C0883312
:1029300009F0E5C080930A05D8C0803509F44FC07E
:10294000883509F45DC0883409F0D9C0D6C088390B
:1029500009F4C7C0A8F4883709F467C038F488368A
:1029600009F463C0803709F460C0C9C0883809F42D
:10297000B8C0803909F45FC0803809F0C0C05BC0BE
:10298000803B09F486C038F4803A09F466C0883A7E
:1029900009F47FC0B4C0803C09F4A7C0883C09F4A6
:1029A000A4C0883B09F48AC0AAC08091E70410C083
:1029B0009091090580910805981770F5E091090537
:1029C00081E08E0F80930905F0E0E851FB4F808194
:1029D0008093BB0085EC86C080930A058EC0E09191
:1029E000090581E08E0F809309058091BB00F0E01E
:1029F000E851FB4F808390910905809108056EC0D6
:102A0000E091090581E08E0F809309058091BB005C
:102A1000F0E0E851FB4F808380910B0581116DC080
:102A200081E08093E60484EA61C083E080930C0532
:102A300010929B06CFCF80919B06803208F051C048
:102A4000E0919B0681E08E0F80939B068091BB00F6
:102A5000F0E0E558F94F8083BDCF85EC8093BC0052
:102A600010920C0580919B06803230F4E0919B0619
:102A7000F0E0E558F94F108260919B0670E0E0911C
:102A80007906F0917A068BE796E0099510929B06FD
:102A900036C084E080930C05109278061092770679
:102AA000E0917506F091760609958091770681117F
:102AB00005C081E08093770610925506E091780674
:102AC00081E08E0F80937806F0E0EB5AF94F808119
:102AD0008093BB009091780680917706981708F450
:102AE00079CF85E88093BC000AC085EC8093BC0058
:102AF00010920C0504C010920A050E94F812FF9172
:102B0000EF91BF91AF919F918F917F916F915F9165
:102B10004F913F912F910F900FBE0F901F901895DE
:102B20000C94BA200F931F93CF93DF93EC010A818B
:102B30001B81C8010E94B22090E08F3F910531F4C3
:102B400060E0C8010E94901580E090E09D838C8336
:102B5000DF91CF911F910F910895CF93DF93CDB760
:102B6000DEB72F970FB6F894DEBF0FBECDBF7894B7
:102B700084B5826084BD84B5816084BD85B5826082
:102B800085BD85B5816085BD80916E008160809333
:102B90006E0010928100809181008260809381009C
:102BA00080918100816080938100809180008160AC
:102BB000809380008091B10084608093B100809107
:102BC000B00081608093B00080917A00846080932F
:102BD0007A0080917A00826080937A0080917A00F6
:102BE000816080937A0080917A00806880937A0077
:102BF0001092C10020E042E060E18CE396E00E9488
:102C00000E0D61E08AE00E946D0D61E08BE00E9494
:102C10006D0D60E08CE00E946D0D60E08DE00E9423
:102C20006D0D60E08EE00E946D0D61E08AE00E9413
:102C30006D0D61E08BE00E946D0D60E081E10E940E
:102C40006D0D64EF71E080E090E00E94080E61EC91
:102C500071E0CE0101960E94F41060E972E0CE01AD
:102C600007960E94F4109E012F5F3F4FAE01495F0F
:102C70005F4F64E372E085E495E00E94780BCE013B
:102C800007960E948E10CE0101960E948E1061EC74
:102C900071E0CE0101960E94F41069E473E0CE0168
:102CA00007960E94F4109E012F5F3F4FAE01495FCF
:102CB0005F4F66E771E083E595E00E94780BCE01F7
:102CC00007960E948E10CE0101960E948E1066EA31
:102CD00073E0CE0101960E94F41066E973E0CE0124
:102CE00007960E94F4109E012F5F3F4FAE01495F8F
:102CF0005F4F6BE376E081E695E00E94780BCE01B2
:102D000007960E948E10CE0101960E948E1062ECF2
:102D100073E0CE0101960E94F41062EB73E0CE01E5
:102D200007960E94F4109E012F5F3F4FAE01495F4E
:102D30005F4F6FEA74E08FE695E00E94780BCE015A
:102D400007960E948E10CE0101960E948E1061EEB1
:102D500073E0CE0101960E94F41061ED73E0CE01A4
:102D600007960E94F4109E012F5F3F4FAE01495F0E
:102D70005F4F68EF72E08DE795E00E94780BCE011F
:102D800007960E948E10CE0101960E948E1065E873
:102D900074E0CE0101960E94F41061E471E0CE016E
:102DA00007960E94F4109E012F5F3F4FAE01495FCE
:102DB0005F4F66E171E08BE895E00E94780BCE01F1
:102DC00007960E948E10CE0101960E948E106FE829
:102DD00074E0CE0101960E94F41060EA74E0CE0126
:102DE00007960E94F4109E012F5F3F4FAE01495F8E
:102DF0005F4F60E97AE089E995E00E94780BCE01A7
:102E000007960E948E10CE0101960E948E1061ECF2
:102E100071E0CE0101960E94F4106FEA74E0CE01D9
:102E200007960E94F4109E012F5F3F4FAE01495F4D
:102E30005F4F6AE071E087EA95E00E94780BCE016F
:102E400007960E948E10CE0101960E948E1088E097
:102E500090E0909342058093410580910B069091FC
:102E60000C06892B11F061E001C060E08CE396E074
:102E70000E949B0C88EE93E00E94B2208F3F41F4A9
:102E800080E00E94640A60E088EE93E00E94901562
:102E90001AE084E6E82EF12C01E080910F068E30D6
:102EA00008F08E508770806480937C0080917A0057
:102EB000806480937A0080917A0086FDFCCF6091D7
:102EC00078008091790070E0782B072E000C880B39
:102ED000990B0E94951F2091130630911406409182
:102EE0001506509116060E9400212B013C016093AB
:102EF000130670931406809315069093160620E02F
:102F000030E046E154E46091170670911806809114
:102F1000190690911A060E94142287FD28C010926B
:102F20001706109218061092190610921A0620E041
:102F300030E046E154E4C301B2010E946C2125ED6A
:102F400038E746EA51E40E946C216093380670939A
:102F5000390680933A0690933B061092130610921E
:102F60001406109215061092160600931B06409048
:102F70001706509018066090190670901A0620E007
:102F800030E040E85FEBC301B2010E948E1F811167
:102F900016C025ED38E746EA51E4609113067091BA
:102FA000140680911506909116060E946C2160937C
:102FB00038067093390680933A0690933B0620E0DA
:102FC00030E040E85FE3C301B2010E94002160935A
:102FD0001706709318068093190690931A066AE5EF
:102FE00070E080E090E00E94080E0E9464018091F1
:102FF000CC049091CD0497FD05C001979093CD042A
:103000008093CC048091CA049091CB0497FD05C0B5
:1030100001979093CB048093CA048091C804909147
:10302000C90497FD05C001979093C9048093C80413
:103030008091020187FD03C081508093020180913D
:10304000DD059091DE0597FD05C001979093DE05A3
:103050008093DD058CE00E94B50C8D878EE00E9488
:10306000B50C8E878DE00E94B50C8F872090D90516
:103070003090DA0522E022163104C1F083E02816F0
:10308000310409F4D1C091E02916310409F084C15A
:103090002091C1053091C205129FC001139F900D70
:1030A00011249093E5048093E404B9C06091FB057A
:1030B0007091FC0580E090E00E94931F9B01AC01A1
:1030C000609138067091390680913A0690913B06DE
:1030D0000E948E1F9091E30487FF7DC04091C1053F
:1030E0005091C205149F9001159F300D112430930B
:1030F000E5042093E404911135C02091E30530915B
:10310000E405129FC001139F900D11249093DE05DA
:103110008093DD05C090F305D090F4056091EB0538
:103120007091EC056C197D0980E090E00E94931F7E
:1031300020E030E0A9010E946C216093DF047093CD
:10314000E0048093E1049093E204B60180E090E013
:103150000E94931F6093DB047093DC048093DD0472
:103160009093DE048091DD059091DE051816190616
:103170000CF52091DF043091E0044091E10450917E
:10318000E2046091DB047091DC048091DD04909195
:10319000DE040E9400216093DB047093DC048093C2
:1031A000DD049093DE040E94DE217093C7046093D7
:1031B000C60408C08091EB059091EC059093C7047C
:1031C0008093C6040093E3048FEF9FEF9093010177
:1031D00080930001E1C04091B9055091BA05149F58
:1031E0009001159F300D11243093E5042093E404E1
:1031F000992379F02091E3053091E405129FC001F5
:10320000139F900D11249093C9048093C8041092C9
:10321000E3048EEF9FEF9093010180930001809172
:10322000F3059091F405B4C04090380650903906EB
:1032300060903A0670903B06C0900306D09004065A
:10324000B60180E090E00E94931F4B015C019B015E
:10325000AC01C301B2010E948E1F18163CF084E637
:1032600090E09093DA048093D90424C0A5019401DE
:10327000C301B2010E94FF202B013C016091FB05BC
:103280007091FC056C197D0980E090E00E94931F0D
:103290009B01AC01C301B2010E946C2120E030E02F
:1032A00048EC52E40E94F41F0E94DE217093DA047D
:1032B0006093D9048091D9049091DA048536910500
:1032C00034F084E690E09093DA048093D90420915E
:1032D000B9053091BA05129FC001139F900D1124BA
:1032E000B7010E9419228091D9049091DA04689F55
:1032F000A001699F500D789F500D11245093E50453
:103300004093E4046091C1057091C205169FC0010D
:10331000179F900D11244817590720F49093E50446
:103320008093E4048091C4049091C504892BA1F595
:103330004091E4045091E5045093C5044093C404C3
:10334000149FC001159F900D1124B9010E941922EC
:103350009701261B370B3093C3042093C20440917E
:10336000EB055091EC05249FC001259F900D349FE3
:10337000900D1124B7010E9419227093C704609325
:10338000C6048091F3059091F4056817790720F43D
:103390009093C7048093C604E091D105F091D205C3
:1033A000F093D804E093D7048091CC049091CD049D
:1033B000019609F050C08091CA049091CB04019607
:1033C00009F03FC02091E4043091E50483E0281621
:1033D000310499F53093C5042093C404129FC001B1
:1033E000139F900D11246091B9057091BA050E9448
:1033F0001922A701461B570B5093C3044093C204E4
:103400006091EB057091EC05469FC001479F900DC0
:10341000569F900D1124B7010E9419227093C70482
:103420006093C6048091F3059091F40568177907BD
:1034300020F49093C7048093C6043093CB04209368
:10344000CA048091CA049091CB04892B21F4F09393
:10345000CD04E093CC048091CC049091CD0497FDF1
:1034600005C06091C9057091CA0502C060E070E0B6
:103470008BE00E94A90D8091C8049091C904181690
:1034800019062CF46091EB057091EC0504C0609175
:10349000C6047091C7048AE00E94A90D8091C104FE
:1034A000882391F00E94F50980913D0590913E0599
:1034B0001816190634F4019790933E0580933D0544
:1034C00006C01092C10403C080E00E940B079E85D5
:1034D000992311F180914305909144052091410574
:1034E0003091420521503109821793072CF401963F
:1034F00090934405809343050E94F5098EE090E087
:103500000E94440B80913F059091400590933E05A9
:1035100080933D050093C1042F85222309F44DC0FB
:103520008091430590914405181619062CF40197D3
:1035300090934405809343050E94F5098DE090E047
:103540000E94440B80913F059091400590933E0569
:1035500080933D050093C1048D858823E1F160913E
:103560004106862F81608093410669608CE396E076
:103570000E948C0E80914305909144052EE0289F77
:10358000F001299FF00D1124EB5BFA4F0190F081BF
:10359000E02D0995609141066E7F60934106686059
:1035A0008CE396E00E948C0E8091C10481110CC0C6
:1035B000109244051092430507C09D85992359F048
:1035C0008091C1048111CBCF8091C104811103C0CE
:1035D00081E00E940B0780E090E0892B09F45DCC2C
:1035E0000E9400005ACCEF92FF920F931F93CF934B
:1035F000DF93109234051092330588EE93E0A0E03B
:10360000B0E08093350590933605A0933705B093CD
:1036100038058DE091E0909332058093310510924A
:103620003F0610923E068FE191E090933D06809315
:103630003C0610924C068FEF80934B0610924A0680
:1036400010924D0687E2809347061092480610922A
:103650004906109246061092450684E080934E0675
:1036600082E080934F0681E08093500680E1809352
:10367000510680E28093520680E48093530680E8EE
:103680008093540640E050E063E08CE396E00E94B3
:10369000280C109213061092140610921506109220
:1036A000160680E090E0A0E8BFEB809317069093A9
:1036B0001806A0931906B0931A0610921B068BECFD
:1036C00098E4A4E8BAE380932C0690932D06A09387
:1036D0002E06B0932F0686ED94E6A9E7B9E3809312
:1036E000300690933106A0933206B09333068CE6F1
:1036F0009FECA8E5B4E38093340690933506A0933D
:103700003606B0933706109238061092390610929A
:103710003A0610923B0681E1E82EF12CF092100659
:10372000E0920F0680E090E4ACE1B6E480931C06E2
:1037300090931D06A0931E06B0931F0610920A06D2
:103740001092090687E096E00E949215CFEFDFEF16
:10375000D0930806C093070601E010E010930E0610
:1037600000930D0610930206009301068FEF95E07B
:103770000E949215D0930006C093FF05F0920606B2
:10378000E092050682E090E09093FA058093F905B7
:1037900087EF95E00E949215D093F805C093F70546
:1037A00087E190E09093FE058093FD0583E090E033
:1037B0009093F2058093F1058FEE95E00E949215AB
:1037C000D093F005C093EF058AE590E09093F6055D
:1037D0008093F50584E090E09093EA058093E905F5
:1037E00087EE95E00E949215D093E805C093E70517
:1037F00086E990E09093EE058093ED0585E090E0FA
:103800009093E2058093E1058FED95E00E9492157B
:10381000D093E005C093DF0588E290E09093E60541
:103820008093E5052091E3053091E4054AE0429F4D
:10383000C001439F900D11249093DE058093DD0518
:1038400087E090E09093D8058093D70585ED95E0CB
:103850000E949215D093D605C093D5051093DC0530
:103860000093DB0588E090E09093D0058093CF052E
:103870008DEC95E00E949215D093CE05C093CD05B6
:103880000AE010E01093D4050093D30589E090E09E
:103890009093C8058093C70585EC95E00E9492152A
:1038A000D093C605C093C50584E190E09093CC0504
:1038B0008093CB051093C0050093BF058DEB95E079
:1038C0000E949215D093BE05C093BD0584E690E09A
:1038D0009093C4058093C3058BE090E09093B80566
:1038E0008093B70585EB95E00E949215D093B605BD
:1038F000C093B5058CE890E09093BC058093BB0520
:10390000C0E0D0E061EC71E0CE01895B9A4F0E948B
:10391000F41061EC71E0CE01835B9A4F0E94F410C9
:103920002E96C037D10571F71092440510924305C9
:103930008CE291E09093400580933F0590933E0583
:1039400080933D05DF91CF911F910F91FF90EF90F4
:103950000895CF93DF93C5EBD5E02E97CE0108965F
:103960000E948E10CE0102960E948E1085E0C53412
:10397000D80799F7DF91CF910895EF920F931F9396
:10398000CF93DF93E80147FD02C034E001C034E18A
:10399000E42F440FFF0BF7FF03C0F195E195F10908
:1039A000E32E022F2E2FAE010E94181DCE01DF91B3
:1039B000CF911F910F91EF9008954532510520F45A
:1039C000423010F00C94E81CFB011082CB010895EA
:1039D000BB274A3031F4992322F4BDE290958195BA
:1039E0009F4F0C94FF1C4532510520F4423010F0DB
:1039F0000C94FE1CFB011082CB010895BB27FB0138
:103A00005527AA27880F991FAA1FA41710F0A41BD7
:103A100083955051B9F7A05DAA3308F0A95DA19331
:103A2000009779F7B111B1931192CB010C947E1FDD
:103A30004F925F926F927F929F92AF92BF92CF927E
:103A4000DF92EF92FF920F931F93CF93DF93CDB747
:103A5000DEB729970FB6F894DEBF0FBECDBF6A015F
:103A6000122FB02E2BE3201720F0FF24F394F00E3A
:103A700002C0BCE3FB2E0F2D27E0AE014F5F5F4F6E
:103A80000E94A61EAC018981982F9970913031F067
:103A9000E1FC06C0E0FE06C090E205C09DE203C066
:103AA0009BE201C090E0EE2DE07183FF3CC09111DC
:103AB00002C083E001C084E0811718F4212F281B85
:103AC00001C020E0E1110BC0F601822F30E2882313
:103AD00019F031938150FBCFC20ED11C20E0992305
:103AE00029F0D6019C93F60131966F01C601039629
:103AF000E2FE0AC03EE4D6013C9341E411964C93A9
:103B0000119712963C9306C03EE6F601308341E6DB
:103B100041833283FC01322F40E2332309F442C057
:103B200041933150FACF82FF44C0911102C083E02B
:103B300001C084E0811718F4212F281B01C020E068
:103B4000E1110BC0F601822F30E2882319F0319386
:103B50008150FBCFC20ED11C20E0992329F0D60161
:103B60009C93F60131966F01C6010396E2FE0BC0ED
:103B700039E4D6013C933EE411963C93119736E428
:103B800012963C9307C039E6F60130833EE6318356
:103B900036E63283FC01322F40E2332319F04193A1
:103BA0003150FBCFFC01E20FF11D10828EEF9FEF31
:103BB000B7C0F1E0911101C0F0E06F2F70E0141672
:103BC000150624F49A012F5F3F4F02C021E030E038
:103BD000260F371FBB2029F06B2D70E06F5F7F4FE2
:103BE00002C060E070E0260F371F612F70E02617DB
:103BF00037071CF4121B212F01C020E03E2D387125
:103C000059F4D601322F60E2332319F06D9331500D
:103C1000FBCFC20ED11C20E0FF2331F0D6019C93D4
:103C2000B6016F5F7F4F6B01E1110BC0F601922F60
:103C300030E3992319F031939150FBCFC20ED11C80
:103C400020E09F2D940F3A81782F7071A72E84FF6A
:103C500003C0313309F49150191624F4993018F047
:103C600098E001C091E0E42F852F57FF02C0E0E00B
:103C700080E06E2F782FE0E0F0E0AEE29A2E3A017D
:103C8000691A71082A01461A570A0B2D10E011957E
:103C9000019511096F3F8FEF780729F4D6019C92A7
:103CA000C60101966C014617570784F06616770621
:103CB0006CF47F01E40CF51CA1E0B0E0AC0FBD1F7B
:103CC000EA0EFB1ED7011196BC9002C090E3B92EFC
:103CD000615071093196C60101967C016017710728
:103CE00024F0D601BC926C01D5CF6417750741F45E
:103CF000363320F4353321F4A11002C081E3B82E0D
:103D0000F601B082F701822F90E2882319F0919397
:103D10008150FBCFF701E20FF11D108280E090E0AF
:103D200029960FB6F894DEBF0FBECDBFDF91CF91BD
:103D30001F910F91FF90EF90DF90CF90BF90AF90C9
:103D40009F907F906F905F904F900895283008F07B
:103D500027E03327DA01990F311D87FD9160009626
:103D60006105710539F432602E5F3D9330E32A9589
:103D7000E1F708959F3F30F080387105610509F043
:103D80003C5F3C5F3D93913008F08068911DDF936C
:103D9000CF931F930F93FF92EF92192F987F9695D1
:103DA000E92F96959695E90FFF27EE53FF4F992738
:103DB0003327EE24FF24A701E70105900894079418
:103DC00028F4360FE71EF81E491F511D660F771F96
:103DD000881F991F0694A1F70590079428F4E70E11
:103DE000F81E491F561FC11D770F881F991F661F98
:103DF0000694A1F70590079428F4F80E491F561F62
:103E0000C71FD11D880F991F661F771F0694A1F742
:103E10000590079420F4490F561FC71FD81F990F0C
:103E2000661F771F881F0694A9F784911095177055
:103E300041F0D695C79557954795F794E7941A950D
:103E4000C1F7E8E6F0E06894159015913591659119
:103E5000959105907FE27395E118F10A430B560B9B
:103E6000C90BD009C0F7E10CF11E431F561FC91F33
:103E7000D01D7EF4703311F48A95E6CFE89401509A
:103E800030F0080F0AF40027021708F4202F2395BA
:103E9000022F7A3328F079E37D932A95E9F710C051
:103EA0007D932A9589F6069497956795379517958A
:103EB0001794E118F10A430B560BC90BD00998F07F
:103EC00023957E9173957A3308F070E37C932013E9
:103ED000B8F77E9170617D9330F0839571E37D93A7
:103EE00070E32A95E1F71124EF90FF900F911F9155
:103EF000CF91DF91992787FD90950895DC01FC0112
:103F0000672F71917723E1F7329704C07C916D930D
:103F100070836291AE17BF07C8F308950E94D01F47
:103F200008F481E00895E89409C097FB3EF4909569
:103F30008095709561957F4F8F4F9F4F9923A9F082
:103F4000F92F96E9BB279395F69587957795679511
:103F5000B795F111F8CFFAF4BB0F11F460FF1BC055
:103F60006F5F7F4F8F4F9F4F16C0882311F096E9E8
:103F700011C0772321F09EE8872F762F05C0662396
:103F800071F096E8862F70E060E02AF09A95660F4F
:103F9000771F881FDAF7880F9695879597F9089508
:103FA000990F0008550FAA0BE0E8FEEF161617064A
:103FB000E807F907C0F012161306E407F50798F0B2
:103FC000621B730B840B950B39F40A2661F0232BCB
:103FD000242B252B21F408950A2609F4A140A69547
:103FE0008FEF811D811D08950E9407200C94782079
:103FF0000E946A2038F00E94712020F0952311F071
:104000000C9461200C94672011240C94AC200E9425
:10401000892070F3959FC1F3950F50E0551F629F63
:10402000F001729FBB27F00DB11D639FAA27F00D11
:10403000B11DAA1F649F6627B00DA11D661F829F38
:104040002227B00DA11D621F739FB00DA11D621F1D
:10405000839FA00D611D221F749F3327A00D611D3A
:10406000231F849F600D211D822F762F6A2F11241C
:104070009F5750409AF0F1F088234AF0EE0FFF1F4F
:10408000BB1F661F771F881F91505040A9F79E3FA6
:10409000510580F00C9461200C94AC205F3FE4F358
:1040A000983ED4F3869577956795B795F795E795FC
:1040B0009F5FC1F7FE2B880F911D9695879597F905
:1040C000089597F99F6780E870E060E008959FEF9A
:1040D00080EC089500240A9416161706180609069F
:1040E000089500240A94121613061406050608956E
:1040F000092E0394000C11F4882352F0BB0F40F4F6
:10410000BF2B11F460FF04C06F5F7F4F8F4F9F4F35
:10411000089557FD9058440F551F59F05F3F71F0B7
:104120004795880F97FB991F61F09F3F79F087951E
:104130000895121613061406551FF2CF4695F1DFA7
:1041400008C0161617061806991FF1CF8695710537
:10415000610508940895E894BB2766277727CB016B
:1041600097F90895F999FECF92BD81BDF89A9927E4
:1041700080B50895262FF999FECF1FBA92BD81BD53
:1041800020BD0FB6F894FA9AF99A0FBE01960895D9
:104190002F923F924F925F926F927F928F929F9257
:1041A000AF92BF92CF92DF92EF92FF920F931F9345
:1041B000CF93DF93CDB7DEB7CA1BDB0B0FB6F894F6
:1041C000DEBF0FBECDBF09942A88398848885F8436
:1041D0006E847D848C849B84AA84B984C884DF80A7
:1041E000EE80FD800C811B81AA81B981CE0FD11D8B
:1041F0000FB6F894DEBF0FBECDBFED010895505845
:10420000BB27AA270E9417210C9478200E946A20BD
:1042100038F00E94712020F039F49F3F19F426F401
:104220000C9467200EF4E095E7FB0C946120E92FD5
:104230000E94892058F3BA1762077307840795070D
:1042400020F079F4A6F50C94AB200EF4E0950B2E3B
:10425000BA2FA02D0B01B90190010C01CA01A001D8
:104260001124FF27591B99F0593F50F4503E68F133
:104270001A16F040A22F232F342F4427585FF3CF74
:10428000469537952795A795F0405395C9F77EF445
:104290001F16BA0B620B730B840BBAF09150A1F08E
:1042A000FF0FBB1F661F771F881FC2F70EC0BA0F14
:1042B000621F731F841F48F4879577956795B7959C
:1042C000F7959E3F08F0B0CF9395880F08F0992797
:1042D000EE0F9795879508950E9480210C94782081
:1042E0000E94712058F00E946A2040F029F45F3F3C
:1042F00029F00C94612051110C94AC200C9467208F
:104300000E94892068F39923B1F3552391F3951BFB
:10431000550BBB27AA2762177307840738F09F5FE6
:104320005F4F220F331F441FAA1FA9F335D00E2E53
:104330003AF0E0E832D091505040E695001CCAF7C0
:104340002BD0FE2F29D0660F771F881FBB1F261783
:1043500037074807AB07B0E809F0BB0B802DBF015A
:10436000FF2793585F4F3AF09E3F510578F00C9429
:1043700061200C94AC205F3FE4F3983ED4F3869523
:1043800077956795B795F7959F5FC9F7880F911D4A
:104390009695879597F90895E1E0660F771F881F36
:1043A000BB1F621773078407BA0720F0621B730BE9
:1043B000840BBA0BEE1F88F7E09508950E94E52163
:1043C0006894B1110C94AC2008950E94912088F05B
:1043D0009F5798F0B92F9927B751B0F0E1F0660FC9
:1043E000771F881F991F1AF0BA95C9F714C0B1300A
:1043F00091F00E94AB20B1E008950C94AB20672FA0
:10440000782F8827B85F39F0B93FCCF38695779538
:104410006795B395D9F73EF4909580957095619521
:104420007F4F8F4F9F4F08950E94D01F08F48FEF4A
:104430000895AA1BBB1B51E107C0AA1FBB1FA617EB
:10444000B70710F0A61BB70B881F991F5A95A9F73D
:1044500080959095BC01CD010895EE0FFF1F05904A
:10446000F491E02D0994CF93DF938230910510F4FD
:1044700082E090E0E0919E06F0919F0620E030E01F
:10448000C0E0D0E0309711F14081518148175907C1
:10449000C0F04817590761F482819381209719F081
:1044A0009B838A832BC090939F0680939E0626C091
:1044B0002115310519F04217530718F49A01BE016E
:1044C000DF01EF010280F381E02DDCCF2115310502
:1044D00009F1281B390B2430310590F412968D9187
:1044E0009C9113976115710521F0FB0193838283E1
:1044F00004C090939F0680939E06FD01329644C0AF
:10450000FD01E20FF31F81939193225031092D9306
:104510003C933AC020919C0630919D06232B41F498
:10452000209105013091060130939D0620939C0651
:1045300020910301309104012115310541F42DB77B
:104540003EB74091070150910801241B350BE091C3
:104550009C06F0919D06E217F307A0F42E1B3F0B7B
:104560002817390778F0AC014E5F5F4F24173507E5
:1045700048F04E0F5F1F50939D0640939C06819319
:10458000919302C0E0E0F0E0CF01DF91CF91089578
:104590000F931F93CF93DF93009709F48CC0FC0116
:1045A00032971382128200919E0610919F06011588
:1045B000110581F420813181820F931F20919C0687
:1045C00030919D062817390779F5F0939D06E09301
:1045D0009C0671C0D80140E050E0AE17BF0750F410
:1045E00012962D913C911397AD012115310509F1DA
:1045F000D901F3CF9D01DA01338322836081718178
:10460000860F971F8217930769F4EC01288139817F
:10461000260F371F2E5F3F4F318320838A819B8176
:1046200093838283452B29F4F0939F06E0939E06A3
:1046300042C01396FC93EE931297ED014991599164
:104640009E01240F351FE217F30771F480819181D9
:10465000840F951F029611969C938E93828193816D
:1046600013969C938E931297E0E0F0E0D801129697
:104670008D919C911397009719F0F8018C01F6CF5A
:104680008D919C9198012E5F3F4F820F931F209137
:104690009C0630919D062817390769F4309729F454
:1046A00010929F0610929E0602C0138212821093EF
:1046B0009D0600939C06DF91CF911F910F91089565
:1046C000A0E0B0E0E6E6F3E20C94CC20EC01009729
:1046D00021F4CB010E943322B8C0FC01E60FF71F82
:1046E0009C0122503109E217F30708F4ACC0D9014C
:1046F0000D911C91119706171707B0F005301105A1
:1047000008F49FC0C80104978617970708F499C05A
:1047100002501109061B170B019311936D937C93A3
:10472000CF010E94C8228DC05B01A01AB10A4C01C2
:10473000800E911EA0919E06B0919F0640E050E031
:10474000E12CF12C109709F44AC0A815B905D1F550
:104750006D907C901197630182E0C80ED11CCA1441
:10476000DB0480F1A3014A195B096A0182E0C80EEB
:10477000D11C1296BC9012971396AC91B5E0CB1653
:10478000D10440F0B282A38351834083D9016D9359
:104790007C930AC00E5F1F4FC301800F911FF90168
:1047A00091838083EB2DFA2FE114F10431F0D701CE
:1047B0001396FC93EE93129744C0F0939F06E093F8
:1047C0009E063FC08D919C9111974817590708F498
:1047D000AC017D0112960D90BC91A02DB3CF8091BC
:1047E0009C0690919D0688159905E1F44617570798
:1047F000C8F48091030190910401009741F48DB7B2
:104800009EB74091070150910801841B950BE81752
:10481000F907C8F4F0939D06E0939C06F9017183B3
:1048200060830FC0CB010E9433227C01009759F0B6
:10483000A801BE010E942F24CE010E94C822C701F8
:1048400004C0CE0102C080E090E0CDB7DEB7EEE05C
:104850000C94E82081E090E0F8940C944824FB014B
:10486000DC0102C001900D9241505040D8F70895EC
:10487000FB01DC018D91019080190110D9F3990B96
:104880000895FB01DC0101900D920020E1F70895ED
:1048900010E0CFEDD0E004C0FE010E942D22219651
:0A48A000C03ED107C9F7F894FFCF1E
:1048AA00FDFFFF0000A006800000000000801350FA
:1048BA0013B0132A13481339132B13000000003CBA
:1048CA000CAF0BB013AF130E0D280C9B0C7A0C0A0D
:1048DA004C657373006F6E2F6F66663A004C4344E3
:1048EA0020537669657361004D61782E2046616EAA
:1048FA002052504D004D696E2E2046616E20525056
:10490A004D200046616E20486F6C642F52697365B2
:10491A002054696D65004E7573746174696D6169BF
:10492A00004973736175676F7469206E61756A698E
:10493A000074656D706572617475726F73004E658F
:10494A007261206E6175646F6A616D61004D617894
:10495A002074656D70657261747572652000432AF2
:10496A0020004D61782074656D706572617475728E
:10497A0065004D696E2074656D706572617475723B
:10498A006520005665696B696D6F204275646F21F9
:10499A00004E657261204E7573746174797461009A
:1049AA004772616E2E2047726569746973006D697A
:1049BA006C6C697365633A004772616E2E5665695D
:1049CA006B2E6D6C73630046616E2E486F6C642E9D
:1049DA0054696D65004D6178696D756D2053656325
:1049EA003A00446172626F206C61696B61732000E6
:1049FA004D696E696D756D205365633A004D617836
:104A0A00696D756D2052504D3A0046616E6F2047B0
:104A1A00726569746973004D696E696D756D2052AE
:104A2A00504D3A004D6178696D756D20432A3A0000
:104A3A0054656D7065726174757261004D696E6955
:104A4A006D756D20432A3A004772616E2E205072AE
:104A5A006F63656E74616765004772616E2E204DE3
:104A6A00696E206F72204D617800736563756E649C
:104A7A0065733A004772616E2E4E657665696B2ED4
:104A8A00536563004772616E2E7374756D696B6C42
:104A9A00697300436C6F636B3E6F6E3A00436C6FD1
:104AAA00636B3E6F66663A002D48494748543E6F2D
:104ABA006E3A004C4F572D3E6F6E3A002D484947CB
:104ACA0048543E6F66663A004C4F572D3E6F6666F5
:104ADA003A00253E6F6E3A00253E6F66663A0049F7
:104AEA00736A756E6774612E004F726F2050757409
:104AFA002E2046656E61730020733A006D6178203E
:104B0A0052504D3A006D696E2052504D3A0025526E
:104B1A00504D3A002C483A0054656D702E20432AB5
:104B2A003A002D2D2D00432A206D61783A00432A40
:104B3A00206D696E3A00312D5665696B696D6F207B
:104B4A00427564617300506167616C204C61696BE6
:104B5A006100322D5665696B696D6F20427564611B
:104B6A00730054656D702E4D696E202D204D61784D
:104B7A0000332D5665696B696D6F204275646173E8
:104B8A000054656D702E4D696E2025204D617800A8
:104B9A004E7573742E4E65706176796B6F0047613E
:104BAA006C696E67756D617300482E44617567693B
:104BBA006175204B75726F2E004C2E4D617A6961BA
:104BCA0075204B75726F2E004E6175646F6A616D48
:104BDA00610025206B75726F2000290041722074D4
:104BEA00696B72616920746169703F0074616970F0
:104BFA00006E650044656661756C742077617300A8
:104C0A003E0044656661756C742077617320736534
:104C1A0074004F6B0044656661756C74204E6F7446
:104C2A0020536574004F6E206F72204F66660047EE
:104C3A00616D696B2E506172616D65747261690094
:104C4A0053657420746F2044656661756C740049FD
:0E4C5A00736569746900477265617465720064
:107800000C94343C0C94513C0C94513C0C94513CE1
:107810000C94513C0C94513C0C94513C0C94513CB4
:107820000C94513C0C94513C0C94513C0C94513CA4
:107830000C94513C0C94513C0C94513C0C94513C94
:107840000C94513C0C94513C0C94513C0C94513C84
:107850000C94513C0C94513C0C94513C0C94513C74
:107860000C94513C0C94513C11241FBECFEFD8E036
:10787000DEBFCDBF11E0A0E0B1E0ECE9FFE702C060
:1078800005900D92A230B107D9F712E0A2E0B1E065
:1078900001C01D92AD30B107E1F70E942D3D0C945F
:1078A000CC3F0C94003C982F959595959595959582
:1078B000905D8F708A307CF0282F295A8091C0000B
:1078C00085FFFCCF9093C6008091C00085FFFCCF60
:1078D0002093C6000895282F205DF0CF982F809127
:1078E000C00085FFFCCF9093C6000895EF92FF92F1
:1078F0000F931F93EE24FF2487018091C00087FD22
:1079000017C00894E11CF11C011D111D81E4E8164B
:1079100082E4F8068FE0080780E0180770F3E09132
:107920000401F091050109958091C00087FFE9CF1E
:107930008091C6001F910F91FF90EF9008950E94D3
:10794000763C982F8091C00085FFFCCF9093C600B5
:1079500091362CF490330CF09053892F089597555D
:10796000892F08951F930E949F3C182F0E949F3CCF
:107970001295107F810F1F9108951F93182F882350
:1079800021F00E94763C1150E1F71F9108951F935A
:10799000182F0E94763C803249F0809103018F5F5E
:1079A000809303018530C1F01F9108958091C0003C
:1079B00085FFFCCF84E18093C6008091C00085FFE5
:1079C000FCCF1093C6008091C00085FFFCCF80E102
:1079D0008093C6001F910895E0910401F091050184
:1079E00009951F9108950E94763C803241F0809164
:1079F00003018F5F80930301853081F008958091AA
:107A0000C00085FFFCCF84E18093C6008091C00058
:107A100085FFFCCF80E18093C6000895E0910401CA
:107A2000F09105010995089540E951E08823A1F0FE
:107A30002D9A28EE33E0FA013197F1F721503040CA
:107A4000D1F72D9828EE33E0FA013197F1F7215064
:107A50003040D1F7815061F708953F924F925F9285
:107A60006F927F928F929F92AF92BF92CF92DF924E
:107A7000EF92FF920F931F93CF93DF93000080E16B
:107A80008093C4001092C50088E18093C10086E015
:107A90008093C2005098589A259A81E00E94143D24
:107AA00024E1F22E9EE1E92E85E9D82E0FE0C02ECA
:107AB00010E1B12EAA24A394B1E49B2EA6E58A2E50
:107AC000F2E57F2EE0E26E2E79E4572E63E5462E36
:107AD00050E5352E0E94763C8033B1F18133B9F107
:107AE000803409F46FC0813409F476C0823409F41B
:107AF00085C0853409F488C0803531F1823521F1A3
:107B0000813511F1853509F485C0863509F48DC0BC
:107B1000843609F496C0843709F403C1853709F423
:107B200072C1863709F466C0809103018F5F80932C
:107B30000301853079F6E0910401F0910501099582
:107B40000E94763C803351F60E94F33CC3CF0E94E2
:107B5000763C803249F78091C00085FFFCCFF092DF
:107B6000C6008091C00085FFFCCF9092C600809136
:107B7000C00085FFFCCF8092C6008091C00085FFC9
:107B8000FCCF7092C6008091C00085FFFCCF609250
:107B9000C6008091C00085FFFCCF5092C600809146
:107BA000C00085FFFCCF4092C6008091C00085FFD9
:107BB000FCCF3092C6008091C00085FFFCCFB09210
:107BC000C60088CF0E94763C863808F4BDCF0E945C
:107BD000763C0E94F33C7ECF0E94763C803809F4CC
:107BE0009CC0813809F40BC1823809F43CC1883942
:107BF00009F48FC080E00E94C73C6CCF84E10E94F2
:107C0000BD3C0E94F33C66CF85E00E94BD3C0E94D3
:107C1000F33C60CF0E94763C809306010E94763C44
:107C2000809307010E94F33C55CF0E94763C80333D
:107C300009F41DC183E00E94BD3C80E00E94C73C66
:107C400049CF0E94763C809309020E94763C809343
:107C5000080280910C028E7F80930C020E94763C79
:107C6000853409F415C18091080290910902892B8D
:107C700089F000E010E00E94763CF801E85FFE4FDA
:107C800080830F5F1F4F80910802909109020817AF
:107C9000190788F30E94763C803209F045CF809125
:107CA0000C0280FF01C16091060170910701660F0F
:107CB000771F7093070160930601A0910802B091AD
:107CC00009021097C9F0E8E0F1E09B01AD014E0F09
:107CD0005F1FF999FECF32BD21BD819180BDFA9A17
:107CE000F99A2F5F3F4FE417F50799F76A0F7B1F4B
:107CF00070930701609306018091C00085FFFCCF5F
:107D0000F092C6008091C00085FFFCCFB092C60003
:107D1000E1CE83E00E94C73CDDCE82E00E94C73CFA
:107D2000D9CE0E94763C809309020E94763C8093D3
:107D300008028091060190910701880F991F909386
:107D40000701809306010E94763C853409F4A6C0A1
:107D500080910C028E7F80930C020E94763C8032D0
:107D600009F0B8CE8091C00085FFFCCFF092C6002C
:107D7000609108027091090261157105B9F140E046
:107D800050E080910C02A82FA170B82FB27011C0E2
:107D9000BB2309F45CC0E0910601F0910701319624
:107DA000F0930701E09306014F5F5F4F46175707B7
:107DB000E8F4AA2369F3F999FECF209106013091E6
:107DC000070132BD21BDF89A90B58091C00085FFB2
:107DD000FCCF9093C6002F5F3F4F30930701209355
:107DE00006014F5F5F4F4617570718F38091C00099
:107DF00085FDE5CE8091C00085FFF8CFE0CE81E023
:107E00000E94C73C67CE0E94763C803209F08CCE3F
:107E10008091C00085FFFCCFF092C6008091C00029
:107E200085FFFCCFE092C6008091C00085FFFCCFAB
:107E3000D092C6008091C00085FFFCCFC092C600E2
:107E40008091C00085FFFCCFB092C60043CEE09188
:107E50000601F091070194918091C00085FFFCCF4D
:107E60009093C6009CCF80E10E94C73C33CE0E9415
:107E7000763C0E94763C182F0E94763C112309F430
:107E800083C0113009F484C08FE00E94C73C22CE29
:107E900080910C02816080930C02E5CE80910C02EF
:107EA000816080930C0259CF809107018823880F4D
:107EB000880B8A2180930B02809106019091070123
:107EC000880F991F90930701809306018091080203
:107ED00080FF09C080910802909109020196909359
:107EE000090280930802F894F999FECF1127E091D6
:107EF0000601F0910701C8E0D1E08091080290915D
:107F00000902103091F40091570001700130D9F34B
:107F100003E000935700E89500915700017001308D
:107F2000D9F301E100935700E89509901990009169
:107F3000570001700130D9F301E000935700E89534
:107F40001395103498F011270091570001700130FB
:107F5000D9F305E000935700E895009157000170B0
:107F60000130D9F301E100935700E895329602976A
:107F700009F0C7CF103011F00296E5CF112480919F
:107F8000C00085FFB9CEBCCE8EE10E94C73CA2CD19
:0C7F900085E90E94C73C9ECDF894FFCF0D
:027F9C00800063
:040000030000780081
:00000001FF