:100000000C946E010C94900A0C94690A0C9496015D
:100010000C9496010C9496010C9496010C94960104
:100020000C9496010C9496010C9496010C949601F4
:100030000C9496010C9496010C9496010C949601E4
:100040000C941F0A0C9496010C9496010C94960142
:100050000C9496010C9496010C9496010C949601C4
:100060000C94B70A0C949601AED580A83FD30040FB
:100070008D142002A1C8DA12817FD9F1DB40A4A639
:10008000AF00030C0F30333C3FC0C3CCCFF0F3FCC8
:10009000FF00000000240027002A000000000023C9
:1000A0000026002900000005072060000000000075
:1000B00000005F00000007000700147F147F142475
:1000C0002A7F2A12231308646236495620500008FA
:1000D000070300001C2241000041221C002A1C7F53
:1000E0001C2A08083E08080080703000080808082C
:1000F00008000060600020100804023E5149453E9F
:1001000000427F400072494949462141494D331818
:1001100014127F1027454545393C4A494931412150
:100120001109073649494936464949291E00001434
:10013000000000403400000008142241141414147C
:1001400014004122140802015909063E415D594E2E
:100150007C1211127C7F494949363E414141227F40
:100160004141413E7F494949417F090909013E41D9
:100170004151737F0808087F00417F4100204041C2
:100180003F017F081422417F404040407F021C0213
:100190007F7F0408107F3E4141413E7F09090906E7
:1001A0003E4151215E7F09192946264949493203BA
:1001B000017F01033F4040403F1F2040201F3F4040
:1001C00038403F63140814630304780403615949F9
:1001D0004D43007F4141410204081020004141414C
:1001E0007F04020102044040404040000307080031
:1001F00020545478407F28444438384444442838B4
:100200004444287F385454541800087E090218A426
:10021000A49C787F0804047800447D40002040407E
:100220003D007F1028440000417F40007C0478049A
:10023000787C080404783844444438FC1824241892
:1002400018242418FC7C080404084854545424043A
:10025000043F44243C4040207C1C2040201C3C4067
:1002600030403C44281028444C9090907C44645486
:100270004C44000836410000007700000041360879
:100280000002010204023C2623263C68001980403B
:100290000000000000250028002B000404040404D2
:1002A0000404040202020202020303030303030123
:1002B00002040810204080010204081020010204FA
:1002C00008102000000008000201000003040700DD
:1002D0000000000000000000D60B931311241FBE85
:1002E000CFEFD8E0DEBFCDBF24E0A0E4B2E001C094
:1002F0001D92A138B207E1F712E0A0E0B1E0E8EB0F
:10030000FCE202C005900D92A034B107D9F711E0CC
:10031000CDE6D1E004C02197FE010E945214CC36F4
:10032000D107C9F70E94630C0C944F160C9400007F
:1003300020910D0381E0213208F044C08091E90250
:100340008111FCCF80910C0392E09093E90291E03F
:100350009093E8029FEF9093E7021092E6022093B9
:10036000E502ACEEB2E0E5ECF2E090E0291331C03A
:100370001092C4029091C402880F892B8093C4020A
:100380008091C302813049F51092C3028091C4026A
:100390008093BB008091BC0083FDF8CF85EC8093F7
:1003A000BC008091E9028230E1F38091E7028F3F47
:1003B000B1F08091E7028032A1F08091E7028033B2
:1003C00091F084E01092EB0210920D031092EA0279
:1003D00008953D9131939F5FC9CF85EEE0CF80E0D6
:1003E000F1CF82E0EFCF83E0EDCFAF92BF92CF921B
:1003F000DF92EF92FF920F931F93CF93DF936C01E5
:100400007B018B01040F151FEB015E01AE18BF08C5
:10041000C017D10759F06991D601ED91FC91019077
:10042000F081E02DC6010995892B79F7C501DF918F
:10043000CF911F910F91FF90EF90DF90CF90BF90E1
:10044000AF900895089508950895833081F028F4B9
:10045000813099F08230A9F008958730A9F0883072
:10046000C9F08430B1F4809180008F7D03C0809109
:1004700080008F7780938000089584B58F7784BD46
:10048000089584B58F7DFBCF8091B0008F778093E6
:10049000B00008958091B0008F7DF9CFCF93DF93A6
:1004A000282F30E0F901ED53FD4F8491F901E1551A
:1004B000FD4FD491F901E556FD4FC491CC2389F04D
:1004C00081110E942502EC2FF0E0EE0FFF1FEF5686
:1004D000FD4FA591B4918FB7F894EC91DE2BDC938E
:1004E0008FBFDF91CF910895CF93DF93282F30E016
:1004F000F901ED53FD4F8491F901E155FD4FD49180
:10050000F901E556FD4FC491CC23A1F081110E9461
:100510002502EC2FF0E0EE0FFF1FE556FF4FA591EF
:10052000B491EC91ED2381E090E009F480E0DF915B
:10053000CF91089580E090E0FACFCF93DF9390E0E1
:10054000FC01E155FD4F249185569D4FFC0184919E
:100550008823D1F090E0880F991FFC01EF56FF4FE0
:10056000A591B491FC01EF56FD4FC591D491611155
:100570000EC09FB7F8948C91E22FE0958E238C9358
:100580002881E223E8839FBFDF91CF9108958FB741
:10059000F894EC91E22BEC938FBFF6CF3FB7F89431
:1005A0008091A8029091A902A091AA02B091AB02F9
:1005B00026B5A89B05C02F3F19F00196A11DB11DBE
:1005C0003FBFBA2FA92F982F8827BC01CD01620FFA
:1005D000711D811D911D42E0660F771F881F991FB5
:1005E0004A95D1F708958F929F92AF92BF92CF9282
:1005F000DF92EF92FF926B017C010E94CE024B01D1
:100600005C01C114D104E104F104B9F00E94CE02EE
:10061000681979098A099B09683E7340810591052B
:1006200080F321E0C21AD108E108F10888EE880EB3
:1006300083E0981EA11CB11CE4CFFF90EF90DF90E7
:10064000CF90BF90AF909F908F900895CF93DF93FE
:10065000EC01E0912E03F0912F038081882359F063
:1006600088818F3F41F08F5F88836AE070E080E08F
:1006700090E00E94F302E0913003F0913103808119
:10068000882369F08881882351F0815088836AE04B
:1006900070E080E090E0DF91CF910C94F302DF9165
:1006A000CF9108952FB7F8946091A4027091A5029C
:1006B0008091A6029091A7022FBF0895E0912E038A
:1006C000F0912F0380818823F9F0809120032091FD
:1006D0003C0330913D038217130609F0ACF490916E
:1006E0002103992389F09091220391110DC08F5F0E
:1006F000809320030E945203609328037093290380
:1007000080932A0390932B03E0913003F0913103FF
:1007100080818823C9F0809120038230A8F09091D5
:100720002103992389F09091220391110DC08150EA
:10073000809320030E94520360932803709329033F
:1007400080932A0390932B03E0913203F0913303BB
:100750008081882371F08091220381110AC00E9458
:100760005203609328037093290380932A03909384
:100770002B030E945203AB01BC018091280390918E
:100780002903A0912A03B0912B0388559E49AF4FAE
:10079000BF4F84179507A607B70758F48091220327
:1007A000811107C010921D0310921E0381E08093F7
:1007B0002003E0912E03F0912F038081811107C067
:1007C000E0913003F09131038081882329F0109269
:1007D000210380912003089581E080932103F9CFC4
:1007E0000895CF93DF93EC018D85882329F0815004
:1007F0008D87DF91CF9108959C818E819817C8F7DE
:1008000088896827E881F9810084F185E02D42E03C
:10081000CE0109958C818F5F8C83EBCFDC01ED914C
:10082000FC910084F185E02D40E009940F931F9323
:10083000CF938C01FC016483C085C60F6C2F6F7051
:100840000E940E046C2F62956F706061C801CF9199
:100850001F910F910C940E04FC012781269526957B
:100860002695621738F465832385620F6770606B85
:100870000C940E0408951F93CF93DF93EC01142F73
:100880008E81681718F4CE010E941604612FCE01E4
:10089000DF91CF911F910C942C04CF92DF92EF92B5
:1008A000FF920F931F93CF93DF93EC01F62EC42E8C
:1008B000D22E1D868F81869586958695081710F015
:1008C0000FEF080F1D2D011780F0412F6F2DCE0166
:1008D0000E943B04EF2CCE1430F06889CE010E94B8
:1008E000F103E394F8CF1F5FEECF4D2D6F2DCE01B6
:1008F000DF91CF911F910F91FF90EF90DF90CF90FC
:100900000C943B040F93CF93DF93C9E6D4E01B868E
:100910001A8660E4CE010E940E040F8106950695AA
:10092000069501504E81415020E060E0CE010E94CA
:100930004D04DF91CF910F9108952F923F924F92E6
:100940005F926F927F928F929F92AF92BF92CF925F
:10095000DF92EF92FF920F931F93CF93DF9300D01C
:1009600000D000D0CDB7DEB7DC011E962D913C91B2
:100970002115310509F478C19E838D83F9013296E2
:10098000649031964491E42EF12CB7E0EB0EF11C0B
:1009900053E0F594E7945A95E1F7E9823196549142
:1009A0003196E491651748F08E2F90E0FC01E50F39
:1009B000F11D6E171F060CF492C06D3031F5ED81FC
:1009C000FE81868181111BC081E090E026960FB6E2
:1009D000F894DEBF0FBECDBFDF91CF911F910F9175
:1009E000FF90EF90DF90CF90BF90AF909F908F904F
:1009F0007F906F905F904F903F902F90089560E0B0
:100A00008D819E810E941604DFCF6A3009F02CC1CF
:100A1000AD81BE8116968C911697882321F060E0F7
:100A2000CD010E941604ED81FE8101890E9DE02C0E
:100A3000112465816E0D8485882349F027812695D0
:100A4000269526958E2D821B860F18162CF08D81EB
:100A50009E810E942C04B8CFAD81BE811B969C91D3
:100A60001B97890F87701B968C931B972E191596D1
:100A70002C9315971E96ED91FC91309771F133965A
:100A8000E491F0E0379633E0F595E7953A95E1F794
:100A90000E9F002D1124EFEFE20F0E0FED81FE816E
:100AA000468141506481CF010E944D04AD81BE81D9
:100AB0001C968C911C97813009F086CF1B966C9107
:100AC0001B97660F660F660F6F731A966C931A97D3
:100AD0006064CD010E940E0477CF00E0DCCF890175
:100AE0000A5F1F4F651BED81FE8171855189759FDE
:100AF000502D11245C83F90154912F5F3F4FF90170
:100B00002491352F2230310508F070C06E9CC00151
:100B10006F9C900D1124689FF001699FF00D1124C6
:100B20000E0F1F1F512CAD81BE811496BC91BA834C
:100B3000ED81FE812580F585FB83862C912CAA24EE
:100B4000A394B12C312C8981381608F08BC0412C2C
:100B5000AD81BE8151968C915197481608F07BC0AB
:100B6000EB811D96EC93311002C0442051F0AD8111
:100B7000BE8115964C9115974F5F6A81CD010E94F9
:100B80003B04D12CC12CC61408F058C0F801EC0D60
:100B9000FD1D7490552061F0EA14FB0449F4E72D23
:100BA000F0E0052C02C0F595E7950A94E2F77E2E59
:100BB000ED81FE818189823081F4442009F43AC0BC
:100BC00072948FE07822E72DF0E0EF57FF4F74909A
:100BD000672D8D819E810E94F103672D8D819E81FD
:100BE0000E94F1038FEFC81AD80ACDCF477028E0D2
:100BF000522E541A411101C0512CF801612C30E0E1
:100C000020E0661631F04491240F311D6394319633
:100C1000F8CF600E712E711CF3016490E29EF0011A
:100C2000E39EF00DF29EF00D11248E0F9F1F080F12
:100C3000191F79CFF72DFF707F2EC5CFD12CAC8136
:100C4000DA1639F060E08D819E810E94F103D39421
:100C5000F6CF43947DCF3394080D191DBFEFAB1A27
:100C6000BB0A71CF622DF3CE90E080E0AFCE85ED70
:100C70008093BC008091BC0084FDFCCF1092E902FF
:100C8000089520918002260F3327331F213231052A
:100C9000ECF42091E902FC0190E080E0243069F05E
:100CA00082E00895A09180022191AC01405A5D4FED
:100CB000A40FB52FB11D2C930196861798F3809140
:100CC0008002680F6093800280E0089581E00895BB
:100CD0000895E091B1028091B002E81730F4F0E09D
:100CE000E05CFD4F808190E008958FEF9FEF0895C5
:100CF0009091B1028091B0022FEF3FEF981748F426
:100D0000E92FF0E0E05CFD4F208130E09F5F9093A1
:100D1000B102C90108958091B0029091B102891B7E
:100D2000990B0895CF92DF92EF92FF920F931F934A
:100D3000CF93DF937C01CB018A012091EA02222329
:100D400089F0EB016B01C40ED51ECC15DD0569F0F1
:100D50006991D701ED91FC910190F081E02DC701DF
:100D60000995F3CF642F0E944106C801DF91CF910E
:100D70001F910F91FF90EF90DF90CF900895CF9348
:100D8000DF931F92CDB7DEB769832091EA02222359
:100D9000F9F020910D03203258F021E030E0FC0101
:100DA0003383228390E080E00F90DF91CF9108950C
:100DB0008091EB02E82FF0E0E451FD4F99819083A0
:100DC0008F5F8093EB0280930D0381E090E0ECCF86
:100DD00061E0CE0101960E944106F7CF08950F937E
:100DE0001F93CF93DF93EC01062F142F8B89813152
:100DF00020F4882329F0411103C00E9498011B8A26
:100E00008B89811112C08A8991E09093EA028093C4
:100E10000C031092EB0210920D0360E4111101C05B
:100E200060E08EE093E00E94BF06602F8EE093E0CA
:100E30000E94BF06123041F48B898F5F8B8BDF914C
:100E4000CF911F910F9108950E9498011B8AF7CFAF
:100E5000089590E080E008958F929F92AF92BF92A4
:100E60000F931F93CF93DF93CDB7DEB7A1970FB644
:100E7000F894DEBF0FBECDBF19A2423008F44AE09D
:100E80008E010F5D1F4F842E912CB12CA12CA5013A
:100E900094010E943014E62FB901CA01EA3044F5EA
:100EA000E05DD801EE938D01232B242B252B79F7C0
:100EB00090E080E0109769F0FD0101900020E9F7D3
:100EC0003197AF014A1B5B0BBD0189E694E00E949C
:100ED000F501A1960FB6F894DEBF0FBECDBFDF912E
:100EE000CF911F910F91BF90AF909F908F900895D9
:100EF000E95CD7CFFC01448155816081718189E62D
:100F000094E00E94F501E3E6F4E0448155816081BC
:100F1000718189E694E00E94F50142E050E06CE2C4
:100F200071E089E694E00C94F5010F931F93CF9341
:100F3000DF93EC0188819981009759F02A813B81E8
:100F40002617370730F081E0DF91CF911F910F9185
:100F500008958B016F5F7F4F0E947D15009759F0B8
:100F6000998388831B830A832C813D81232B59F726
:100F7000FC011082E8CF80E0E7CFCF93DF93EC0154
:100F800088819981009711F00E94F41419821882C7
:100F90001D821C821B821A82DF91CF9108950F93CC
:100FA0001F93CF93DF93EC010C811D810F5F1F4FC7
:100FB000B8010E949507882391F0288139818C819E
:100FC0009D816CE272E0820F931F0E9448161D8380
:100FD0000C83CE01DF91CF911F910F910895CE0127
:100FE0000E94BD07F6CFEF92FF920F931F93CF930E
:100FF000DF93EC01FB01E080F180E114F10411F1D9
:101000000481158101151105A9F08C819D81080FBE
:10101000191FB801CE010E949507882399F02881F5
:1010200039818C819D81B701820F931F0E944816E0
:101030001D830C83CE01DF91CF911F910F91FF9003
:10104000EF900895CE010E94BD07F4CFEF92FF927A
:101050000F931F93CF93DF93EC017B018A01BA01B9
:101060000E94950781110BC0CE010E94BD07CE01E1
:10107000DF91CF911F910F91FF90EF9008951D8305
:101080000C83B701888199810E944816F0CFEF92B6
:10109000FF920F931F93CF93DF93CDB7DEB72997BE
:1010A0000FB6F894DEBF0FBECDBF8C01862FF801BE
:1010B0001182108213821282158214824AE09E01EC
:1010C0002F5F3F4F7901B90190E00E94B913F701FA
:1010D00001900020E9F73197AF014E195F09B70180
:1010E000C8010E94260829960FB6F894DEBF0FBEED
:1010F000CDBFDF91CF911F910F91FF90EF90089599
:10110000CF93DF93EC01FB018617970749F06081CD
:1011100071816115710541F0448155810E94260855
:10112000CE01DF91CF9108950E94BD07F9CFFC0158
:101130001182108213821282158214820C9480080C
:10114000FC01118210821382128215821482FB012B
:1011500001900020E9F73197AF01461B570B0C9423
:101160002608FC01808191810C94F4145F926F92A7
:101170007F928F929F92AF92BF92CF92DF92EF9227
:10118000FF920F931F93CF93DF93CDB7DEB72C97CA
:101190000FB6F894DEBF0FBECDBF4C015B013A0124
:1011A000502E8DE1E82E83E0F82EF701C78CD0A0F9
:1011B000B901CE0101960E949708B301CE010796AE
:1011C0000E94970883E18C9D80018D9D100D112454
:1011D000C801835E9C4F6C01FC0194A283A2BE01F6
:1011E000695F7F4FC8018E5B9C4F0E948008F601AB
:1011F000B4A6A3A653AABE016F5F7F4FC801865B4A
:101200009C4F0E948008CE0107960E94B108CE0133
:1012100001960E94B108F701878D90A1019690A3D5
:10122000878F2C960FB6F894DEBF0FBECDBFDF912F
:10123000CF911F910F91FF90EF90DF90CF90BF90D3
:10124000AF909F908F907F906F905F900895CF9315
:10125000DF9300D000D000D0CDB7DEB76FE271E0F1
:10126000CE0101960E94A008CE0101960E947A0745
:10127000CE0101960E94B10826960FB6F894DEBF03
:101280000FBECDBFDF91CF910895CF93DF9300D0F4
:1012900000D000D0CDB7DEB765E371E0CE01019696
:1012A0000E94A008CE0101960E947A07CE01019605
:1012B0000E94B10826960FB6F894DEBF0FBECDBFD0
:1012C000DF91CF910895CF93DF9300D000D000D06D
:1012D000CDB7DEB76BE371E0CE0101960E94A008A6
:1012E000CE0101960E947A07CE0101960E94B108B4
:1012F00026960FB6F894DEBF0FBECDBFDF91CF911B
:1013000008950F931F93CF93DF9300D000D000D0A8
:10131000CDB7DEB761E471E0CE0101960E94A0086E
:10132000CE0101960E947A07CE0101960E94B10873
:1013300009E614E082E0F801818B60E571E0CE01FE
:1013400001960E94A008CE0101960E947A07CE0164
:1013500001960E94B10881E0F801818B26960FB6B4
:10136000F894DEBF0FBECDBFDF91CF911F910F91DB
:101370000895CF93DF9300D000D000D0CDB7DEB773
:1013800066E571E0CE0101960E94A008CE010196AB
:101390000E947A07CE0101960E94B10866E571E0CD
:1013A000CE0101960E94A008CE0101960E947A0704
:1013B000CE0101960E94B10826960FB6F894DEBFC2
:1013C0000FBECDBFDF91CF910895CF93DF9300D0B3
:1013D00000D000D0CDB7DEB76CE571E0CE0101964C
:1013E0000E94A008CE0101960E947A07CE010196C4
:1013F0000E94B10860ED77E080E090E00E94F30287
:1014000026960FB6F894DEBF0FBECDBFDF91CF9109
:1014100008951F93CF93DF93EC01162F0E94E313DF
:10142000181749F0612FCE010E94EB1381E0DF9184
:10143000CF911F91089580E0FACF0E943A161F9233
:101440000F920FB60F9211242F933F938F939F9378
:10145000AF93BF938091A4029091A502A091A602A0
:10146000B091A7023091A30223E0230F2D3758F546
:101470000196A11DB11D2093A3028093A402909315
:10148000A502A093A602B093A7028091A802909112
:10149000A902A091AA02B091AB020196A11DB11DB3
:1014A0008093A8029093A902A093AA02B093AB02E2
:1014B000BF91AF919F918F913F912F910F900FBE50
:1014C0000F901F90189526E8230F0296A11DB11DBD
:1014D000D2CF1F920F920FB60F9211242F933F93EA
:1014E0004F935F936F937F938F939F93AF93BF932C
:1014F000EF93FF93E0910401F09105010995FF91AD
:10150000EF91BF91AF919F918F917F916F915F917B
:101510004F913F912F910F900FBE0F901F901895F4
:101520001F920F920FB60F9211242F933F934F9358
:101530005F936F937F938F939F93AF93BF93EF933B
:10154000FF93E0910201F09103010995FF91EF9162
:10155000BF91AF919F918F917F916F915F914F91CB
:101560003F912F910F900FBE0F901F9018951F92D3
:101570000F920FB60F9211242F933F934F935F93C7
:101580006F937F938F939F93AF93BF93EF93FF934B
:101590008091B900887F803609F44AC0F0F588321E
:1015A00009F4A7C018F5803109F49BC0B8F488236A
:1015B00009F4F9C0883009F494C0FF91EF91BF910C
:1015C000AF919F918F917F916F915F914F913F91DB
:1015D0002F910F900FBE0F901F901895883109F42E
:1015E00088C0803251F78093E70214C0803409F438
:1015F0009DC040F48033B9F38833F9F68093E70255
:1016000085ECB0C0803509F485C0883509F496C0F2
:10161000883499F60E943706D0CF883909F48CC0F7
:1016200038F5883729F050F4883611F0803729F6DC
:1016300083E08093E9021092A20257C0883809F42F
:101640007BC0803919F0803809F0B7CF8091A202B1
:10165000803208F071C0E091A20281E08E0F809389
:10166000A2028091BB00F0E0EE57FD4F80833DC0A9
:10167000803B39F0E0F4803A09F479C0883A09F007
:101680009CCF84E08093E902109281021092800244
:10169000E091AE02F091AF02099580918002811134
:1016A0000FC081E0809380021092600209C0803CEC
:1016B00009F4A6CF883C09F4A3CF883B09F07DCF7D
:1016C000E091810281E08E0F80938102F0E0E05A88
:1016D000FD4F80818093BB009091810280918002B8
:1016E00029C08091C4028093BB0085EC8093BC002C
:1016F00064CF9091E6028091E502981758F5E09149
:10170000E60281E08E0F8093E602F0E0EB53FD4F9E
:101710008081E9CFE091E60281E08E0F8093E602BE
:101720008091BB00F0E0EB53FD4F80839091E60287
:101730008091E5029817C8F285E8D8CFE091E602DB
:1017400081E08E0F8093E6028091BB00F0E0EB53C6
:10175000FD4F80838091E80281115CCF81E080930E
:10176000C30284EA8093BC001092E90226CF85EC84
:101770008093BC001092E9028091A202803230F482
:10178000E091A202F0E0EE57FD4F10826091A202BC
:1017900070E0E091AC02F091AD0282E892E0099530
:1017A0001092A2020ACF1092E70234CFCF93DF93B8
:1017B000109211031092100388EE93E0A0E0B0E0C5
:1017C0008093120390931303A0931403B093150313
:1017D00080E191E090930F0380930E0310926C04CC
:1017E00010926B0410927504109276041092780493
:1017F0001092770410927904C1E0C0937A0482E2D7
:1018000091E090936A048093690465E671E083E651
:1018100094E00E94A0086EE271E08DE594E00E94E1
:10182000A00810921D0310921E0310921F03C09374
:10183000200310922103109222031092230310928E
:101840002C0310922D0310923603109239038AE074
:1018500090E090933B0380933A0382E090E0909372
:101860003D0380933C0381E090E090933F0380939D
:101870003E03D0E0C0E06EE271E0CE018E5B9C4F93
:101880000E94A0086EE271E0CE01865B9C4F0E9430
:10189000A0086396CD3181E0D80769F78CE193E029
:1018A00090932F0380932E038BE193E09093310369
:1018B000809330038AE193E0909333038093320363
:1018C000DF91CF910895CF93DF93CDB7DEB7A49783
:1018D0000FB6F894DEBF0FBECDBF789484B582609A
:1018E00084BD84B5816084BD85B5826085BD85B5C4
:1018F000816085BD80916E00816080936E00109242
:1019000081008091810082608093810080918100BC
:10191000816080938100809180008160809380004D
:101920008091B10084608093B1008091B0008160AB
:101930008093B00080917A00846080937A008091D7
:101940007A00826080937A0080917A00816080932F
:101950007A0080917A00806880937A001092C100AA
:101960006EE771E09E012F5F3F4F7901C9010E9430
:10197000A00862E871E0CE0143960E94A00801E051
:101980009701AE014D5E5F4F66EB72E087E299E032
:101990000E94B608CE0143960E94B108C7010E947A
:1019A000B1086EE771E0C7010E94A00860E971E02C
:1019B000CE0143960E94A0089701AE014D5E5F4F95
:1019C00065EB72E085E499E00E94B608CE0143968B
:1019D0000E94B108C7010E94B1086EE971E0C70119
:1019E0000E94A00864EA71E0CE0143960E94A0081C
:1019F0009701AE014D5E5F4F64EB72E083E699E0C4
:101A00000E94B608CE0143960E94B108C7010E9409
:101A1000B10861EB71E0C7010E94A00865EB71E0BD
:101A2000CE0143960E94A00800E09701AE014D5EF2
:101A30005F4F63EB72E081E899E00E94B608CE0147
:101A400043960E94B108C7010E94B10861EB71E0A2
:101A5000C7010E94A00861EC71E0CE0143960E948C
:101A6000A00801E09701AE014D5E5F4F63EB72E0AD
:101A700081E899E00E94B608CE0143960E94B10821
:101A8000C7010E94B1086EE771E0CE0149960E943D
:101A9000A0086FEC71E0CE014F960E94A008009163
:101AA0003E0310913F03BE01675E7F4FCE01439618
:101AB0000E949708BE01615E7F4FC7010E94970890
:101AC00083E1809F6001819FD00C1124C601835E59
:101AD0009C4F5C0189EB99E0D50194969C938E9381
:101AE0009397B701C6018E5B9C4F0E94800882EBE2
:101AF00092E0F50194A783A711E013ABBE016D5EE0
:101B00007F4FC601865B9C4F0E948008C7010E94E0
:101B1000B108CE0143960E94B108CE014F960E94B3
:101B2000B108CE0149960E94B10885EE99E09093E4
:101B3000380380933703109339031092B102109247
:101B4000B0021092EB0210920D031092E902109372
:101B5000E8021092C30282E10E944E0283E10E94D9
:101B60004E028091B9008E7F8093B9008091B900B8
:101B70008D7F8093B90088E48093B80085E48093DA
:101B8000BC0083E292E09093AF028093AE0284E2C5
:101B900092E09093AD028093AC0282E08093B80013
:101BA00010927C048CE380937B0410926D0410925D
:101BB0006E04EBE8F2E085919491C82EEDE8F2E036
:101BC000D490EEE8F2E0E491E0936F04EFE8F2E005
:101BD000E491E0937004E0E9F2E0E491E0937104B1
:101BE0008C01802F8C198D1548F4F801649189E6D9
:101BF00094E00E940E040F5F1F4FF3CF0E948204F7
:101C0000E5EAF0E0F0937804E09377048491E6EA63
:101C1000F0E0E491F82F319709F0D0C010927204EF
:101C200060E085E00E949D0260E086E00E949D02E7
:101C300060E084E00E949D0260E083E00E949D02DB
:101C400060E082E00E949D0261E089E00E949D02C6
:101C500061E088E00E949D0260E08BE00E949D02AE
:101C600060E080E10E949D0260E081E10E949D02AF
:101C700060E08CE00E949D0260E08AE00E949D028C
:101C80008EEE96E0909305018093040180916900A7
:101C9000837F886080936900E99A82E292E0909362
:101CA000030180930201809169008C7F82608093A0
:101CB0006900E89A90E080E00E94E313813039F1F6
:101CC0006BED71E0C7010E94A008C7010E947A076E
:101CD000C7010E94B10890E080E00E94E3138130C8
:101CE00029F061E090E080E00E94EB13E09137037F
:101CF000F09138030995E0913503F0913603809116
:101D00003A0390913B03608101970E94090A5DE1CB
:101D1000C52E53E0D52E01E010E0F3E1CF0ED11C2B
:101D200080913C0390913D03081719070CF44AC0B9
:101D30006624639420E4522E03E130E0832E30E0E9
:101D4000932E11E042E0742E40E060E089E694E0DA
:101D50000E943B0486E00E94740221E0892B09F472
:101D600020E020931A0385E00E94740221E0892B71
:101D700009F420E020931B0384E00E94740221E018
:101D8000892B09F420E020931C036EE271E0C70167
:101D90000E94A0088091B70290911C03811109C094
:101DA00080911B03992309F486C3811102C010930B
:101DB000B702992309F482C3D12C88C381E08093B0
:101DC00072042ECF80913A0390913B03800F911FB4
:101DD0000E94E313D6019B96ED91FC9180830F5FE7
:101DE0001F4F9BCFE2E0DE127EC38091C2028F5F65
:101DF00078C30E945203AB01BC01809124039091EF
:101E00002503A0912603B091270388579C4EAF4F1E
:101E1000BF4F84179507A607B70708F0BEC3809188
:101E20001F038111BAC30E945203AB01BC01809110
:101E3000240390912503A0912603B09127038A568D
:101E4000964EAF4FBF4F84179507A607B70708F404
:101E5000D8C010931E0310931D03E0913203F0913C
:101E600033038081811105C080911E03882309F40A
:101E700084C240E060E089E694E00E943B04109355
:101E80007A040E945E0320913C0330913D03821747
:101E9000130644F50E945E03682FCE0143960E940C
:101EA000470867EE71E0C7010E94A008BE016D5EA1
:101EB0007F4FC7010E94F3070E94CF07BC01CE01EC
:101EC00049960E949708CE0149960E947A07CE0152
:101ED00049960E94B108C7010E94B108CE014396FD
:101EE0000E94B10880912203882309F469C11092ED
:101EF00023038091390381117BC10E945E0390E02E
:101F00000196089FB001099F700D11246E5B7C4FF4
:101F1000C7010E949708C7010E947A07C7010E9463
:101F2000B10880912203882309F4B0C10E945E03A6
:101F300090E00196089FF001099FF00D1124E35EE7
:101F4000FC4F03A0F4A1E02D099570927A040E9441
:101F50005E0390E00196089FF001099FF00D1124A7
:101F6000E35EFC4F83A98823E1F10E945E0390E0C9
:101F70000196089FF001099FF00D1124E35EFC4FCC
:101F800003A4F4A5E02D608170E090E080E04AE0D9
:101F90000E942C0710937A040E945E03D82E6CE7EF
:101FA00071E0C7010E94A0088D2D90E00196089F66
:101FB000B001099F700D1124665B7C4FC7010E9420
:101FC000F307BC01CE0143960E949708CE014396C9
:101FD0000E947A07CE0143960E94B108C7010E9471
:101FE000B1080E945E0390E00196089FF001099FEE
:101FF000F00D1124E35EFC4F83A594A50E942603F7
:1020000045C1E0913203F09133038081882309F4C4
:1020100020CF80912203882309F4CFC00E945E0361
:102020008DE1A82E83E0B82ECC24C394D12C33E1CB
:10203000A30EB11C80913C0390913D03C816D906B4
:102040008CF4D5019B96ED91FC9180913A0390918F
:102050003B0360818C0D9D1D0E94090ABFEFCB1AC6
:10206000DB0AE5CF80912D03811180C010937A04A3
:102070000E945E0320913C0330913D0382171306BA
:1020800044F50E945E03682FCE0143960E944708E4
:1020900067EE71E0C7010E94A008BE016D5E7F4F30
:1020A000C7010E94F3070E94CF07BC01CE014996E9
:1020B0000E949708CE0149960E947A07CE01499660
:1020C0000E94B108C7010E94B108CE0143960E9448
:1020D000B1086EE271E0C7010E94A008C7010E942A
:1020E0007A07C7010E94B1086EE271E0C7010E9441
:1020F000A008C7010E947A07C7010E94B1086EE2DA
:1021000071E0C7010E94A008C7010E947A07C701B9
:102110000E94B1086EE271E0C7010E94A008C701E9
:102120000E947A07C7010E94B1086EE271E0C70100
:102130000E94A008C7010E947A07C7010E94B10847
:102140006EE271E0C7010E94A008C7010E947A07F1
:10215000C7010E94B1086EE271E0C7010E94A008A9
:10216000C7010E947A07C7010E94B10810932D038E
:102170006CE370E080E090E00E94F3028091220323
:102180008625809322030E945E0320913C033091B8
:102190003D038217130651F410921D0310921E0383
:1021A000109320031092220310937A0462E870E0E7
:1021B00080E090E00E94F30250CE10922D03DECF1B
:1021C0000E945E0320913C0330913D038217130669
:1021D0000CF08DCE109323036AEE71E0C7010E94CC
:1021E000A008C7010E947A07C7010E94B10881CEEA
:1021F0000E945E0320913C0330913D032150310940
:102200008217130609F079CE66EF71E0C7010E94CC
:10221000A008C7010E947A07C7010E94B1088091F7
:102220002203882399F169E072E0C7010E94A008A7
:10223000C7010E947A07C7010E94B108E0912E03EE
:10224000F0912F038081882309F170927A046BE169
:1022500072E0C7010E94A008C7010E947A07C70167
:102260000E94B10810937A04E0913703F09138038B
:10227000099560ED77E080E090E00E94F3028091A4
:1022800022038625809322030E9482040E945E031B
:1022900020913C0330913D038217130644F140E046
:1022A00060E089E694E00E943B0470927A046EE25A
:1022B00071E0C7010E94A008C7010E947A07C70108
:1022C0000E94B10861E272E0C7010E94A008C70144
:1022D0000E947A07C7010E94B108809122038823D7
:1022E00031F010921E0310921F030E9482040E947C
:1022F0005E0320913C0330913D0321503109821748
:102300001306A1F580912D03811121C06EE271E0C9
:10231000C7010E94A008C7010E947A07C7010E9456
:10232000B1086EE271E0C7010E94A008C7010E94D7
:102330007A07C7010E94B1086EE271E0C7010E94EE
:10234000A008C7010E947A07C7010E94B108109334
:102350002D0310937A0480911E03882371F0811459
:10236000910409F4F1CC0E940000EECC10922D03F0
:10237000F0CF80911F0381111BC180911F03811138
:10238000EECF50927C0080917A00806480937A0036
:1023900080917A0086FDFCCF809178009091790041
:1023A0001C8A1B8A1E8A1D8A188E1F8A4AE0B70162
:1023B0000E94AE13F70101900020E9F73197AF01B9
:1023C0004E195F09B701CE0143960E9426086EE2BE
:1023D00072E0CE0149960E94A008BE016D5E7F4F5B
:1023E000CE0149960E94F307BC01C7010E949708DD
:1023F000C7010E947A07C7010E94B108CE01499621
:102400000E94B108CE0143960E94B1086EE271E0CD
:10241000C7010E94A008C7010E947A07C7010E9455
:10242000B1086EE271E0C7010E94A008C7010E94D6
:102430007A07C7010E94B1086EE271E0C7010E94ED
:10244000A008C7010E947A07C7010E94B1086EE286
:1024500071E0C7010E94A008C7010E947A07C70166
:102460000E94B1087CCF10921F0310921D03E091CF
:102470003503F091360380913A0390913B036081DC
:1024800001970E94090A0E94820464E670E080E0DD
:1024900090E00E94F302C2C00E94520360932403A2
:1024A00070932503809326039093270310921F03B4
:1024B00010921E0350CF81117092B70280911B03BE
:1024C00081117ACCD090B7021092B702C7010E9456
:1024D000B108B1E0DB1286CC8091C202882319F0EA
:1024E00081508093C202A090BE02B090BF02C09003
:1024F000C002D090C102F0E6AF0EFAEEBF1EC11CC2
:10250000D11C0E945203A616B706C806D906A8F425
:102510000E9452036093BE027093BF028093C00278
:102520009093C1028091BC029091BD02019690935C
:10253000BD028093BC020E948204A090B802B090B9
:10254000B902C090BA02D090BB0228E5A20E22E0E8
:10255000B21EC11CD11C0E945203A616B706C806A3
:10256000D90650F40E9452036093B8027093B902E6
:102570008093BA029093BB02E0913203F09133034F
:102580008081811105C080911D03882309F484CFC7
:1025900010931D03808181112CCC80911E03811129
:1025A00042CCE0913203F091330380818111E1CE7E
:1025B0000E945203AB01BC0180912403909125033A
:1025C000A0912603B09127038A519F4FAF4FBF4F71
:1025D00084179507A607B70738F4E0913203F09106
:1025E0003303808181113FCF0E945203AB01BC01B4
:1025F0008091240390912503A0912603B091270395
:10260000845D9F44AF4FBF4F84179507A607B70758
:1026100008F429CF10931F0310931D0380911F030B
:10262000882309F498CE6AE272E0C7010E94A008EC
:10263000C7010E947A07C7010E94B10880913E033A
:1026400090913F03089FB001099F700D11246E5BAC
:102650007C4FC7010E949708C7010E947A07C701F3
:102660000E94B10880913E0390913F03089FF001C2
:10267000099FF00D1124E35EFC4F03A0F4A1E02DAF
:10268000099580913E0390913F03089FF001099FB7
:10269000F00D1124E35EFC4F83A98823A1F1709211
:1026A0007A0403A4F4A5E02D608170E090E080E05E
:1026B0004AE00E942C0710937A0420913E03309147
:1026C0003F03029FC001039F900D1124FC01E65BB4
:1026D000FC4F6F016CE771E0C7010E94A008B601D2
:1026E000C7010E94F307BC01CE0143960E949708E0
:1026F000CE0143960E947A07CE0143960E94B1080C
:10270000C7010E94B10880913E0390913F03089F4A
:10271000F001099FF00D1124E35EFC4F83A594A501
:102720000E94260318CECF93DF93CDE5D4E06397C4
:10273000CE010A960E94B108CE0102960E94B1080D
:1027400083E0C034D80799F78DE594E00E94B10882
:1027500083E694E0DF91CF910C94B108BB274A3017
:1027600031F4992322F4BDE2909581959F4F0C940A
:10277000BA13BB27FB015527AA27880F991FAA1F49
:10278000A41710F0A41B83955051B9F7A05DAA338C
:1027900008F0A95DA193009779F7B111B193119257
:1027A000CB010C94D313DC01FC01672F71917723CB
:1027B000E1F7329704C07C916D9370836291AE17FC
:1027C000BF07C8F30895F999FECF92BD81BDF89A6D
:1027D000992780B50895262FF999FECF1FBA92BD8B
:1027E00081BD20BD0FB6F894FA9AF99A0FBE0196F2
:1027F00008952F923F924F925F926F927F928F92A5
:102800009F92AF92BF92CF92DF92EF92FF920F937F
:102810001F93CF93DF93CDB7DEB7CA1BDB0B0FB689
:10282000F894DEBF0FBECDBF09942A883988488846
:102830005F846E847D848C849B84AA84B984C884DC
:10284000DF80EE80FD800C811B81AA81B981CE0FD3
:10285000D11D0FB6F894DEBF0FBECDBFED010895B8
:10286000A1E21A2EAA1BBB1BFD010DC0AA1FBB1F94
:10287000EE1FFF1FA217B307E407F50720F0A21B06
:10288000B30BE40BF50B661F771F881F991F1A9473
:1028900069F760957095809590959B01AC01BD019D
:1028A000CF010895EE0FFF1F0590F491E02D0994DC
:1028B0000F931F93CF93DF938230910510F482E042
:1028C00090E0E0917F04F091800430E020E0B0E0FF
:1028D000A0E0309799F42115310509F44AC0281B6E
:1028E000390B24303105D8F58A819B81611571053A
:1028F00089F1FB0193838283FE0111C040815181E4
:102900000281138148175907E0F04817590799F4D5
:10291000109761F012960C93129713961C933296AF
:10292000CF01DF91CF911F910F91089500937F0404
:1029300010938004F4CF2115310551F0421753074D
:1029400038F0A901DB019A01BD01DF01F801C1CF17
:10295000EF01F9CF9093800480937F04CDCFFE01E7
:10296000E20FF31F81939193225031093983288319
:10297000D7CF20917D0430917E04232B41F4209108
:1029800008013091090130937E0420937D04209149
:102990000601309107012115310541F42DB73EB7ED
:1029A00040910A0150910B01241B350BE0917D04ED
:1029B000F0917E04E217F307A0F42E1B3F0B2817BB
:1029C000390778F0AC014E5F5F4F2417350748F0A8
:1029D0004E0F5F1F50937E0440937D04819391932B
:1029E0009FCFF0E0E0E09CCFCF93DF930097E9F03A
:1029F000FC01329713821282A0917F04B09180046F
:102A0000ED0130E020E01097A1F420813181820FA8
:102A1000931F20917D0430917E042817390709F017
:102A200061C0F0937E04E0937D04DF91CF9108951F
:102A3000EA01CE17DF07E8F54A815B819E01411567
:102A40005105B1F7E901FB83EA8349915991C40F1C
:102A5000D51FEC17FD0761F4808191810296840FE8
:102A6000951FE90199838883828193819B838A835F
:102A7000F0E0E0E012968D919C9113970097B9F5E4
:102A80002D913C911197CD010296820F931F2091B9
:102A90007D0430917E042817390739F6309751F5B7
:102AA0001092800410927F04B0937E04A0937D0462
:102AB000BCCFD383C28340815181840F951FC81737
:102AC000D90761F44E5F5F4F88819981480F591F84
:102AD000518340838A819B819383828321153105B1
:102AE00009F0B0CFF0938004E0937F049ECFFD0106
:102AF000DC01C0CF13821282D7CFB0E0A0E0E3E8C0
:102B0000F5E10C94FB138C01009751F4CB010E946A
:102B100058148C01C801CDB7DEB7E0E10C9417144E
:102B2000FC01E60FF71F9C0122503109E217F30761
:102B300008F49DC0D901CD91DC911197C617D70734
:102B400098F0C530D10530F3CE010497861797076A
:102B500008F3C61BD70B2297C193D1936D937C9337
:102B6000CF010E94F414D6CF5B01AC1ABD0A4C0110
:102B70008C0E9D1EA0917F04B0918004512C412C9D
:102B8000F12CE12C109731F580917D0490917E0419
:102B90008815990509F05CC04616570608F058C01C
:102BA0008091060190910701009741F48DB79EB77F
:102BB00040910A0150910B01841B950BE817F9070E
:102BC00008F055C0F0937E04E0937D04F901718311
:102BD0006083A0CF8D919C91119712966C90129763
:102BE00013967C901397A815B90559F56C0142E02E
:102BF000C40ED11CCA14DB0420F1AC014A195B09D4
:102C0000DA011296159780F06282738251834083B5
:102C1000D9016D937C93E114F10471F0D7011396FF
:102C2000FC93EE93129776CF22968C0F9D1FF9019D
:102C300091838083F301EFCFF0938004E0937F04CE
:102C400069CF4816590608F42C017D01D3019ACFAB
:102C5000CB010E9458147C01009749F0AE01B801E5
:102C60000E943F16C8010E94F414870153CF10E060
:102C700000E050CF81E090E0F8940C944F16FB01F7
:102C8000DC0102C001900D9241505040D8F70895E8
:102C9000FB01DC0101900D920020E1F7089511E0A5
:102CA000CDE6D1E004C0FE010E9452142196CE363A
:082CB000D107C9F7F894FFCF2A
:102CB8003200F003F00300008104800000000000EF
:102CC800BF069206290768068B0678066906000083
:102CD80000009D04F50129072807EF060D0A006684
:102CE800756E63310066756E63320066756E6333A8
:102CF8000034416C69656A617573205265696B00BF
:102D080044414241520066756E633700484559593F
:102D1800204445460020202020202020202020205C
:102D28002020202020202020202020202000707318
:102D380069005761746572204D496E696D756D0043
:102D48005761746572206D6158696D756D006C2FDF
:102D58006D696E00466C6F77206D696E696D756D73
:102D68000076616C0053656E736F72204772616202
:102D78000046617267657220506F7461746F00510C
:102D880075696320416363657373004D454D4F5208
:102D9800592053455421005B50002020202020203A
:102DA8004D454E4955003C526573657420746F203B
:102DB80064656661756C743E005072657373207546
:102DC8007020746F2072657365740020446F6E659F
:102DD8000020205B455849545D005B2D5D0042751D
:102DE80074746F6E5F45787465726E616C20000054
:00000001FF
