:100000000C946E010C94080B0C94E10A0C9496016C
:100010000C9496010C9496010C9496010C94960104
:100020000C9496010C9496010C9496010C949601F4
:100030000C9496010C9496010C9496010C949601E4
:100040000C94970A0C9496010C9496010C949601CA
:100050000C9496010C9496010C9496010C949601C4
:100060000C942F0B0C949601AED580A83FD3004082
:100070008D142002A1C8DA12817FD9F1DB40A4A639
:10008000AF00030C0F30333C3FC0C3CCCFF0F3FCC8
:10009000FF00000000240027002A000000000023C9
:1000A0000026002900000005072060000000000075
:1000B00000005F00000007000700147F147F142475
:1000C0002A7F2A12231308646236495620500008FA
:1000D000070300001C2241000041221C002A1C7F53
:1000E0001C2A08083E08080080703000080808082C
:1000F00008000060600020100804023E5149453E9F
:1001000000427F400072494949462141494D331818
:1001100014127F1027454545393C4A494931412150
:100120001109073649494936464949291E00001434
:10013000000000403400000008142241141414147C
:1001400014004122140802015909063E415D594E2E
:100150007C1211127C7F494949363E414141227F40
:100160004141413E7F494949417F090909013E41D9
:100170004151737F0808087F00417F4100204041C2
:100180003F017F081422417F404040407F021C0213
:100190007F7F0408107F3E4141413E7F09090906E7
:1001A0003E4151215E7F09192946264949493203BA
:1001B000017F01033F4040403F1F2040201F3F4040
:1001C00038403F63140814630304780403615949F9
:1001D0004D43007F4141410204081020004141414C
:1001E0007F04020102044040404040000307080031
:1001F00020545478407F28444438384444442838B4
:100200004444287F385454541800087E090218A426
:10021000A49C787F0804047800447D40002040407E
:100220003D007F1028440000417F40007C0478049A
:10023000787C080404783844444438FC1824241892
:1002400018242418FC7C080404084854545424043A
:10025000043F44243C4040207C1C2040201C3C4067
:1002600030403C44281028444C9090907C44645486
:100270004C44000836410000007700000041360879
:100280000002010204023C2623263C68001980403B
:100290000000000000250028002B000404040404D2
:1002A0000404040202020202020303030303030123
:1002B00002040810204080010204081020010204FA
:1002C00008102000000008000201000003040700DD
:1002D00000000000000000004E0C581211241FBE48
:1002E000CFEFD8E0DEBFCDBF23E0A0E1B2E001C098
:1002F0001D92A63BB207E1F712E0A0E0B1E0EAE30D
:10030000FAE202C005900D92A031B107D9F711E0D1
:10031000CDE6D1E004C02197FE010E941313CC3634
:10032000D107C9F70E94D10C0C9410150C94000051
:100330002091DE0281E0213208F044C08091BA02AF
:100340008111FCCF8091DD0292E09093BA0291E09E
:100350009093B9029FEF9093B8021092B702209346
:10036000B602ADEBB2E0E6E9F2E090E0291331C06D
:100370001092950290919502880F892B8093950297
:1003800080919402813049F51092940280919502F7
:100390008093BB008091BC0083FDF8CF85EC8093F7
:1003A000BC008091BA028230E1F38091B8028F3FA5
:1003B000B1F08091B8028032A1F08091B802803310
:1003C00091F084E01092BC021092DE021092BB0207
:1003D00008953D9131939F5FC9CF85EEE0CF80E0D6
:1003E000F1CF82E0EFCF83E0EDCFAF92BF92CF921B
:1003F000DF92EF92FF920F931F93CF93DF936C01E5
:100400007B018B01040F151FEB015E01AE18BF08C5
:10041000C017D10759F06991D601ED91FC91019077
:10042000F081E02DC6010995892B79F7C501DF918F
:10043000CF911F910F91FF90EF90DF90CF90BF90E1
:10044000AF900895089508950895833081F028F4B9
:10045000813099F08230A9F008958730A9F0883072
:10046000C9F08430B1F4809180008F7D03C0809109
:1004700080008F7780938000089584B58F7784BD46
:10048000089584B58F7DFBCF8091B0008F778093E6
:10049000B00008958091B0008F7DF9CFCF93DF93A6
:1004A000282F30E0F901ED53FD4F8491F901E1551A
:1004B000FD4FD491F901E556FD4FC491CC2389F04D
:1004C00081110E942502EC2FF0E0EE0FFF1FEF5686
:1004D000FD4FA591B4918FB7F894EC91DE2BDC938E
:1004E0008FBFDF91CF910895CF93DF93282F30E016
:1004F000F901ED53FD4F8491F901E155FD4FD49180
:10050000F901E556FD4FC491CC23A1F081110E9461
:100510002502EC2FF0E0EE0FFF1FE556FF4FA591EF
:10052000B491EC91ED2381E090E009F480E0DF915B
:10053000CF91089580E090E0FACFCF93DF9390E0E1
:10054000FC01E155FD4F249185569D4FFC0184919E
:100550008823D1F090E0880F991FFC01EF56FF4FE0
:10056000A591B491FC01EF56FD4FC591D491611155
:100570000EC09FB7F8948C91E22FE0958E238C9358
:100580002881E223E8839FBFDF91CF9108958FB741
:10059000F894EC91E22BEC938FBFF6CF3FB7F89431
:1005A0008091780290917902A0917A02B0917B02B9
:1005B00026B5A89B05C02F3F19F00196A11DB11DBE
:1005C0003FBFBA2FA92F982F8827BC01CD01620FFA
:1005D000711D811D911D42E0660F771F881F991FB5
:1005E0004A95D1F708958F929F92AF92BF92CF9282
:1005F000DF92EF92FF926B017C010E94CE024B01D1
:100600005C01C114D104E104F104B9F00E94CE02EE
:10061000681979098A099B09683E7340810591052B
:1006200080F321E0C21AD108E108F10888EE880EB3
:1006300083E0981EA11CB11CE4CFFF90EF90DF90E7
:10064000CF90BF90AF909F908F900895CF93DF93FE
:10065000EC01E091FE02F091FF028081882359F0C5
:1006600088818F3F41F08F5F88836AE070E080E08F
:1006700090E00E94F302E0910003F0910103808179
:10068000882369F08881882351F0815088836AE04B
:1006900070E080E090E0DF91CF910C94F302DF9165
:1006A000CF9108952FB7F8946091740270917502FC
:1006B00080917602909177022FBF0895E091FE021B
:1006C000F091FF0280818823F1F08091F102209166
:1006D0000C0330910D0382171306ACF49091F202D3
:1006E000992389F09091F30291110DC08F5F80934F
:1006F000F1020E9452036093F9027093FA02809310
:10070000FB029093FC02E0910003F09101038081D1
:100710008823C9F08091F1028230A8F09091F20212
:10072000992389F09091F30291110DC0815080932B
:10073000F1020E9452036093F9027093FA028093CF
:10074000FB029093FC02E0910203F091030380818D
:10075000882371F08091F30281110AC00E94520334
:100760006093F9027093FA028093FB029093FC026B
:100770000E945203AB01BC018091F9029091FA02F0
:10078000A091FB02B091FC0288559E49AF4FBF4F2C
:1007900084179507A607B70758F48091F3028111D3
:1007A00007C01092EE021092EF0281E08093F102F6
:1007B000E091FE02F091FF028081811107C0E0917B
:1007C0000003F09101038081882329F01092F20246
:1007D0008091F102089581E08093F202F9CF0895AB
:1007E000CF93DF93EC018D85882329F081508D878D
:1007F000DF91CF9108959C818E819817C8F78889E1
:100800006827E881F9810084F185E02D42E0CE017E
:1008100009958C818F5F8C83EBCFDC01ED91FC918E
:100820000084F185E02D40E009940F931F93CF934E
:100830008C01FC016483C085C60F6C2F6F700E9411
:100840000D046C2F62956F706061C801CF911F918C
:100850000F910C940D04FC01278126952695269571
:10086000621738F465832385620F6770606B0C94A0
:100870000D0408951F93CF93DF93EC01142F8E8105
:10088000681718F4CE010E941504612FCE01DF9184
:10089000CF911F910C942B04CF92DF92EF92FF9295
:1008A0000F931F93CF93DF93EC01F62EC42ED22E1D
:1008B0001D868F81869586958695081710F00FEF17
:1008C000080F1D2D011780F0412F6F2DCE010E94C2
:1008D0003A04EF2CCE1430F06889CE010E94F00368
:1008E000E394F8CF1F5FEECF4D2D6F2DCE01DF913A
:1008F000CF911F910F91FF90EF90DF90CF900C94CC
:100900003A040F93CF93DF93CEE9D3E01B861A8688
:1009100060E4CE010E940D040F81069506950695B0
:1009200001504E81415020E060E0CE010E944C0415
:10093000DF91CF910F9108952F923F924F925F9246
:100940006F927F928F929F92AF92BF92CF92DF92DF
:10095000EF92FF920F931F93CF93DF9300D000D0BD
:1009600000D0CDB7DEB7DC011E962D913C9121154C
:10097000310509F478C19E838D83F9013296649024
:1009800031964491E42EF12CB7E0EB0EF11C53E0CC
:10099000F594E7945A95E1F7E982319654913196AE
:1009A000E491651748F08E2F90E0FC01E50FF11DF2
:1009B0006E171F060CF492C06D3031F5ED81FE818B
:1009C000868181111BC081E090E026960FB6F894D5
:1009D000DEBF0FBECDBFDF91CF911F910F91FF9072
:1009E000EF90DF90CF90BF90AF909F908F907F90CF
:1009F0006F905F904F903F902F90089560E08D81B1
:100A00009E810E941504DFCF6A3009F02CC1AD81B0
:100A1000BE8116968C911697882321F060E0CD0157
:100A20000E941504ED81FE8101890E9DE02C1124A8
:100A300065816E0D8485882349F02781269526954A
:100A400026958E2D821B860F18162CF08D819E8187
:100A50000E942B04B8CFAD81BE811B969C911B9741
:100A6000890F87701B968C931B972E1915962C93C4
:100A700015971E96ED91FC91309771F13396E491A4
:100A8000F0E0379633E0F595E7953A95E1F70E9F5C
:100A9000002D1124EFEFE20F0E0FED81FE81468154
:100AA00041506481CF010E944C04AD81BE811C96EF
:100AB0008C911C97813009F086CF1B966C911B9707
:100AC000660F660F660F6F731A966C931A976064C1
:100AD000CD010E940D0477CF00E0DCCF89010A5FD1
:100AE0001F4F651BED81FE8171855189759F502DCA
:100AF00011245C83F90154912F5F3F4FF901249138
:100B0000352F2230310508F070C06E9CC0016F9CFB
:100B1000900D1124689FF001699FF00D11240E0FB4
:100B20001F1F512CAD81BE811496BC91BA83ED81FB
:100B3000FE812580F585FB83862C912CAA24A39425
:100B4000B12C312C8981381608F08BC0412CAD8135
:100B5000BE8151968C915197481608F07BC0EB816D
:100B60001D96EC93311002C0442051F0AD81BE813E
:100B700015964C9115974F5F6A81CD010E943A04FA
:100B8000D12CC12CC61408F058C0F801EC0DFD1D85
:100B90007490552061F0EA14FB0449F4E72DF0E06D
:100BA000052C02C0F595E7950A94E2F77E2EED81BB
:100BB000FE818189823081F4442009F43AC0729424
:100BC0008FE07822E72DF0E0EF57FF4F7490672D0C
:100BD0008D819E810E94F003672D8D819E810E94F0
:100BE000F0038FEFC81AD80ACDCF477028E0522EF5
:100BF000541A411101C0512CF801612C30E020E061
:100C0000661631F04491240F311D63943196F8CF6C
:100C1000600E712E711CF3016490E29EF001E39E60
:100C2000F00DF29EF00D11248E0F9F1F080F191F5B
:100C300079CFF72DFF707F2EC5CFD12CAC81DA167E
:100C400039F060E08D819E810E94F003D394F6CF4D
:100C500043947DCF3394080D191DBFEFAB1ABB0A27
:100C600071CF622DF3CE90E080E0AFCE85ED809322
:100C7000BC008091BC0084FDFCCF1092BA020895A4
:100C800020915002260F3327331F21323105ECF417
:100C90002091BA02FC0190E080E0243069F082E00B
:100CA0000895A09150022191AC01405D5D4FA40FC9
:100CB000B52FB11D2C930196861798F380915002A1
:100CC000680F6093500280E0089581E008950895D0
:100CD000E091810280918002E81730F4F0E0E05F5B
:100CE000FD4F808190E008958FEF9FEF08959091E0
:100CF0008102809180022FEF3FEF981748F4E92F8F
:100D0000F0E0E05FFD4F208130E09F5F9093810233
:100D1000C90108958091800290918102891B990BED
:100D20000895CF92DF92EF92FF920F931F93CF938C
:100D3000DF937C01CB018A012091BB02222389F041
:100D4000EB016B01C40ED51ECC15DD0569F0699170
:100D5000D701ED91FC910190F081E02DC70109953B
:100D6000F3CF642F0E944006C801DF91CF911F91FD
:100D70000F91FF90EF90DF90CF900895CF93DF9386
:100D80001F92CDB7DEB769832091BB022223F9F011
:100D90002091DE02203258F021E030E0FC01338364
:100DA000228390E080E00F90DF91CF9108958091B1
:100DB000BC02E82FF0E0E354FD4F998190838F5FF0
:100DC0008093BC028093DE0281E090E0ECCF61E092
:100DD000CE0101960E944006F7CF089508950F9323
:100DE0001F93CF93DF93EC01062F142F8B89813152
:100DF00020F4882329F0411103C00E9498011B8A26
:100E00008B89811112C08A8991E09093BB028093F3
:100E1000DD021092BC021092DE0260E4111101C0EA
:100E200060E08FED92E00E94BE06602F8FED92E0B1
:100E30000E94BE06123041F48B898F5F8B8BDF914D
:100E4000CF911F910F9108950E9498011B8AF7CFAF
:100E5000089590E080E00895CF93DF93E8E9F3E010
:100E600044815581608171818EE993E00E94F50192
:100E7000EC0142E050E06CE271E08EE993E00E9408
:100E8000F5018C0F9D1FDF91CF910895CF92DF92D6
:100E9000EF92FF920F931F93CF93DF93CDB7DEB7FF
:100EA000A1970FB6F894DEBF0FBECDBF282F30E05C
:100EB00050E040E019A28E010F5D1F4F8AE0C82E5E
:100EC000D12CE12CF12CCA01B901A70196010E9495
:100ED000F112605DF80162938F0121153105410522
:100EE000510589F7309761F001900020E9F73197BB
:100EF000AF01401B510BB8018EE993E00E94F50150
:100F00000E942C07A1960FB6F894DEBF0FBECDBF8E
:100F1000DF91CF911F910F91FF90EF90DF90CF90D5
:100F20000895FC0144815581608171818EE993E0CF
:100F30000E94F5010C942C070F931F93CF93DF931E
:100F4000EC0188819981009759F02A813B8126170D
:100F5000370730F081E0DF91CF911F910F91089515
:100F60008B016F5F7F4F0E943E14009759F0998369
:100F700088831B830A832C813D81232B59F7FC0135
:100F80001082E8CF80E0E7CFEF92FF920F931F939C
:100F9000CF93DF936115710541F480E0DF91CF912C
:100FA0001F910F91FF90EF90089541155105B1F0F9
:100FB0007B01EC010C811D81040F151FB8010E94FB
:100FC0009C07882351F3288139818C819D81B70149
:100FD000820F931F0E9409151D830C8381E0DECFD1
:100FE000CF93DF93EC0188819981009711F00E94E3
:100FF000B513198218821D821C821B821A82DF910E
:10100000CF910895CF93DF93EC01FB010190002075
:10101000E9F73197AF01461B570B0E94C4078111B6
:1010200003C0CE010E94F007CE01DF91CF91089559
:10103000CF93DF93EC01FB01448155816081718185
:101040000E94C407811103C0CE010E94F007CE01A7
:10105000DF91CF910895EF92FF920F931F93CF935B
:10106000DF93EC017B018A01BA010E949C07811188
:101070000BC0CE010E94F007CE01DF91CF911F91EE
:101080000F91FF90EF9008951D830C83B701888125
:1010900099810E940915F0CFEF92FF920F931F9351
:1010A000CF93DF93CDB7DEB762970FB6F894DEBF6C
:1010B0000FBECDBF8C01CB01F801118210821382CB
:1010C0001282158214824AE09E012F5F3F4F790100
:1010D000B9010E946F12F70101900020E9F73197E2
:1010E000AF014E195F09B701C8010E942B08629633
:1010F0000FB6F894DEBF0FBECDBFDF91CF911F9129
:101100000F91FF90EF900895EF92FF920F931F932E
:10111000CF93DF93CDB7DEB729970FB6F894DEBF34
:101120000FBECDBF8C01862FF80111821082138271
:101130001282158214824AE09E012F5F3F4F79018F
:10114000B90190E00E947A12F70101900020E9F7BE
:101150003197AF014E195F09B701C8010E942B08F2
:1011600029960FB6F894DEBF0FBECDBFDF91CF91A9
:101170001F910F91FF90EF900895CF93DF93EC01B3
:10118000FB018617970749F0608171816115710530
:1011900041F0448155810E942B08CE01DF91CF910F
:1011A00008950E94F007F9CFFC011182108213828A
:1011B0001282158214820C94BD08FC0111821082E7
:1011C0001382128215821482FB0101900020E9F73C
:1011D0003197AF01461B570B0C942B08FC01808103
:1011E00091810C94B5139F92AF92BF92CF92DF92F0
:1011F000EF92FF920F931F93CF93DF9300D000D015
:1012000000D0CDB7DEB75C016B01922E0EEE12E07E
:10121000F801E68CF78CBA01CE0101960E94D40841
:101220002DE02E9DC0012F9D900D11249C01225177
:101230003D4F7901F901B3A2A2A2BE016F5F7F4FBA
:101240008E5E9C4F0E94BD08F701D3A6C2A694A64D
:10125000CE0101960E94EE08F801868D978D0196C9
:10126000978F868F26960FB6F894DEBF0FBECDBF40
:10127000DF91CF911F910F91FF90EF90DF90CF9072
:10128000BF90AF909F900895CF93DF9300D000D090
:1012900000D0CDB7DEB76FE271E0CE0101960E94BB
:1012A000DD08CE0101960E949107CE0101960E94B1
:1012B000EE0826960FB6F894DEBF0FBECDBFDF91C5
:1012C000CF910895CF93DF9300D000D000D0CDB759
:1012D000DEB765E371E0CE0101960E94DD08CE0124
:1012E00001960E949107CE0101960E94EE08269673
:1012F0000FB6F894DEBF0FBECDBFDF91CF9108953A
:10130000CF93DF9300D000D000D0CDB7DEB76BE332
:1013100071E0CE0101960E94DD08CE0101960E9487
:101320009107CE0101960E94EE0826960FB6F8941A
:10133000DEBF0FBECDBFDF91CF9108950F931F93F6
:10134000CF93DF9300D000D000D0CDB7DEB761E4FB
:1013500071E0CE0101960E94DD08CE0101960E9447
:101360009107CE0101960E94EE080EE913E082E09B
:10137000F801818B60E571E0CE0101960E94DD08E5
:10138000CE0101960E949107CE0101960E94EE08BF
:1013900081E0F801818B26960FB6F894DEBF0FBE70
:1013A000CDBFDF91CF911F910F910895CF93DF9320
:1013B00000D000D000D0CDB7DEB766E571E0CE0139
:1013C00001960E94DD08CE0101960E949107CE0190
:1013D00001960E94EE0860ED77E080E090E00E94C8
:1013E000F30226960FB6F894DEBF0FBECDBFDF9195
:1013F000CF910895BF92CF92DF92EF92FF920F9319
:101400001F93CF93DF93CDB7DEB76E970FB6F894E7
:10141000DEBF0FBECDBF0EEE12E0EE24E394F12C42
:1014200080910C0390910D03E816F9060CF067C04B
:10143000D801D796ED91FC91B080C0900A03D0906E
:101440000B03CE0CDF1CC6010E94A412B81621F0BB
:101450006B2DC6010E94AC12D801D796ED91FC917C
:101460006081CE0107960E948408F80162AD73ADD9
:10147000CE010D960E944C08B701CE0149960E94FC
:101480004C08BE01675E7F4FCE0143960E94D40890
:101490006FE571E0CE0143960E940208BE01635FD2
:1014A0007F4F0E9418086FE571E00E940208BE019C
:1014B000695F7F4F0E941808BC01CE0101960E940F
:1014C000D408CE0101960E949107CE0101960E9498
:1014D000EE08CE0143960E94EE08CE0149960E9486
:1014E000EE08CE010D960E94EE08CE0107960E94EE
:1014F000EE08FFEFEF1AFF0A035F1F4F91CF68EE70
:1015000073E080E090E00E94F3026E960FB6F894CC
:10151000DEBF0FBECDBFDF91CF911F910F91FF9026
:10152000EF90DF90CF90BF9008950E94FB141F9220
:101530000F920FB60F9211242F933F938F939F9387
:10154000AF93BF938091740290917502A09176023F
:10155000B09177023091730223E0230F2D3758F5B5
:101560000196A11DB11D2093730280937402909384
:101570007502A0937602B0937702809178029091E1
:101580007902A0917A02B0917B020196A11DB11D52
:101590008093780290937902A0937A02B0937B02B1
:1015A000BF91AF919F918F913F912F910F900FBE5F
:1015B0000F901F90189526E8230F0296A11DB11DCC
:1015C000D2CF1F920F920FB60F9211242F933F93F9
:1015D0004F935F936F937F938F939F93AF93BF933B
:1015E000EF93FF93E0910401F09105010995FF91BC
:1015F000EF91BF91AF919F918F917F916F915F918B
:101600004F913F912F910F900FBE0F901F90189503
:101610001F920F920FB60F9211242F933F934F9367
:101620005F936F937F938F939F93AF93BF93EF934A
:10163000FF93E0910201F09103010995FF91EF9171
:10164000BF91AF919F918F917F916F915F914F91DA
:101650003F912F910F900FBE0F901F9018951F92E2
:101660000F920FB60F9211242F933F934F935F93D6
:101670006F937F938F939F93AF93BF93EF93FF935A
:101680008091B900887F803609F44AC0F0F588322D
:1016900009F4A7C018F5803109F49BC0B8F4882379
:1016A00009F4F9C0883009F494C0FF91EF91BF911B
:1016B000AF919F918F917F916F915F914F913F91EA
:1016C0002F910F900FBE0F901F901895883109F43D
:1016D00088C0803251F78093B80214C0803409F476
:1016E0009DC040F48033B9F38833F9F68093B80293
:1016F00085ECB0C0803509F485C0883509F496C002
:10170000883499F60E943606D0CF883909F48CC007
:1017100038F5883729F050F4883611F0803729F6EB
:1017200083E08093BA021092720257C0883809F49D
:101730007BC0803919F0803809F0B7CF80917202F0
:10174000803208F071C0E091720281E08E0F8093C8
:1017500072028091BB00F0E0EE5AFD4F80833DC0E5
:10176000803B39F0E0F4803A09F479C0883A09F016
:101770009CCF84E08093BA021092510210925002E2
:10178000E0917E02F0917F020995809150028111D3
:101790000FC081E0809350021092300209C0803C5B
:1017A00009F4A6CF883C09F4A3CF883B09F07DCF8C
:1017B000E091510281E08E0F80935102F0E0E05DF4
:1017C000FD4F80818093BB00909151028091500227
:1017D00029C0809195028093BB0085EC8093BC006A
:1017E00064CF9091B7028091B602981758F5E091B6
:1017F000B70281E08E0F8093B702F0E0EA56FD4F0A
:101800008081E9CFE091B70281E08E0F8093B7022B
:101810008091BB00F0E0EA56FD4F80839091B702C3
:101820008091B6029817C8F285E8D8CFE091B70248
:1018300081E08E0F8093B7028091BB00F0E0EA5602
:10184000FD4F80838091B90281115CCF81E080934C
:10185000940284EA8093BC001092BA0226CF85ECF1
:101860008093BC001092BA0280917202803230F4F0
:10187000E0917202F0E0EE5AFD4F10826091720228
:1018800070E0E0917C02F0917D0282E592E00995A2
:10189000109272020ACF1092B80234CFCF93DF9326
:1018A0001092E2021092E10288EE93E0A0E0B0E034
:1018B0008093E3029093E402A093E502B093E602E2
:1018C00080E191E09093E0028093DF021092A10307
:1018D0001092A0031092AA031092AB031092AD03D2
:1018E0001092AC031092AE03C1E0C093AF0382E24A
:1018F00091E090939F0380939E0362E671E088E9F4
:1019000093E00E94DD086EE271E082E993E00E94BC
:10191000DD081092EE021092EF021092F002C093D6
:10192000F1021092F2021092F3021092F40210925D
:10193000FD0210920603109209038AE090E0909352
:101940000B0380930A0382E090E090930D03809351
:101950000C0381E090E090930F0380930E03D0E09E
:10196000C0E06EE271E0CE018E5E9C4F0E94DD0809
:101970002D96C238D105A9F78DEE92E09093FF0223
:101980008093FE028CEE92E090930103809300031B
:101990008BEE92E09093030380930203DF91CF914B
:1019A0000895CF93DF93CDB7DEB762970FB6F89463
:1019B000DEBF0FBECDBF789484B5826084BD84B590
:1019C000816084BD85B5826085BD85B5816085BD3A
:1019D00080916E00816080936E00109281008091F2
:1019E000810082608093810080918100816080937A
:1019F0008100809180008160809380008091B1009F
:101A000084608093B1008091B00081608093B000C9
:101A100080917A00846080937A0080917A0082605D
:101A200080937A0080917A00816080937A0080911F
:101A30007A00806880937A001092C1006BE771E0B1
:101A4000CE0101960E94DD0821E0AE014F5F5F4F9D
:101A500066E872E084E499E00E94F308CE01019602
:101A60000E94EE0869E871E0CE0101960E94DD084F
:101A700020E0AE014F5F5F4F65E872E082E699E0DB
:101A80000E94F308CE0101960E94EE0867E971E01A
:101A9000CE0101960E94DD0821E0AE014F5F5F4F4D
:101AA00064E872E080E899E00E94F308CE010196B4
:101AB0000E94EE0864EA71E0CE0101960E94DD0802
:101AC00021E0AE014F5F5F4F63E872E08EE999E07D
:101AD0000E94F308CE0101960E94EE0860EB71E0CF
:101AE000CE0107960E94DD0800910E0310910F03AE
:101AF000BE01695F7F4FCE0101960E94D4082DE0A0
:101B0000209FC001219F900D11249C0122513D4F27
:101B100079012EEE36E0D70193963C932E9392975F
:101B2000BE016F5F7F4F8E5E9C4F0E94BD0882E8B2
:101B300092E0F70193A782A711E014A7CE010196C6
:101B40000E94EE08CE0107960E94EE0886ED99E00D
:101B50009093080380930703109309031092810266
:101B6000109280021092BC021092DE021092BA0211
:101B70001093B9021092940282E10E944E0283E116
:101B80000E944E028091B9008E7F8093B9008091AF
:101B9000B9008D7F8093B90088E48093B80085E414
:101BA0008093BC0083E292E090937F0280937E0258
:101BB00084E292E090937D0280937C0282E08093A5
:101BC000B8001092B1038CE38093B0031092A2038B
:101BD0001092A303EBE8F2E085919491E82EEDE8F2
:101BE000F2E0F490EEE8F2E0E491E093A403EFE891
:101BF000F2E0E491E093A503E0E9F2E0E491E09300
:101C0000A6038C01802F8E198F1548F4F80164917A
:101C10008EE993E00E940D040F5F1F4FF3CF0E94E7
:101C20008104E5EAF0E0F093AD03E093AC03849126
:101C3000E6EAF0E0E491F82F319709F098C01092AD
:101C4000A70360E085E00E949D0260E086E00E94BC
:101C50009D0260E084E00E949D0260E083E00E94BB
:101C60009D0260E082E00E949D0261E089E00E94A6
:101C70009D0261E088E00E949D0260E08BE00E948E
:101C80009D0260E080E10E949D0260E081E10E948F
:101C90009D0260E08FE00E949D028DEE96E09093A1
:101CA00005018093040180916900837F886080939F
:101CB0006900E99A82E292E0909303018093020125
:101CC000809169008C7F826080936900E89A90E03F
:101CD00080E00E94A4128130C9F06CEB71E0CE016B
:101CE00001960E94DD08CE0101960E949107CE0167
:101CF00001960E94EE0890E080E00E94A4128130DC
:101D000029F061E090E080E00E94AC122EEEE22E1D
:101D100022E0F22E01E010E0FDE0EF0EF11C8091D8
:101D20000C0390910D03081719072CF580910A03F5
:101D300090910B03800F911F0E94A412D7019A96D5
:101D4000ED91FC919B9780839A96ED91FC91608137
:101D5000CE0101960E948408CE0101960E9491074F
:101D6000CE0101960E94EE080F5F1F4FD5CF81E094
:101D70008093A70366CF68E873E180E090E00E945B
:101D8000F302DD24D3940DE080E0E82E80E0F82E0D
:101D900011E092E0C92E40E060E08EE993E00E94FD
:101DA0003A0486E00E94740221E0892B09F420E0C5
:101DB0002093EB0285E00E94740221E0892B09F454
:101DC00020E02093EC0284E00E94740221E0892B41
:101DD00009F420E02093ED026EE271E0CE0101965D
:101DE0000E94DD08809187029091ED02811109C067
:101DF0008091EC02992309F443C2811102C010932F
:101E00008702992309F43FC2B12C45C2E2E0BE1219
:101E100054C280919302811150C2809192028F5FCF
:101E20004AC20E945203AB01BC018091F50290911D
:101E3000F602A091F702B091F80288579C4EAF4F7E
:101E4000BF4F84179507A607B70708F09FC2809178
:101E5000F00281119BC20E945203AB01BC01809130
:101E6000F5029091F602A091F702B091F8028A561D
:101E7000964EAF4FBF4F84179507A607B70708F4D4
:101E8000A7C01093EF021093EE02E0910203F091CD
:101E900003038081811105C08091EF02882309F43A
:101EA000BEC140E060E08EE993E00E943A041093E6
:101EB000AF030E945E0390E0019620910C033091E5
:101EC0000D03821793076CF50E945E03682FCE0105
:101ED00007960E94840868EC71E0CE0101960E948A
:101EE000DD08BE01695F7F4FCE0101960E94180890
:101EF00069E072E00E940208BC01CE010D960E94CA
:101F0000D408CE010D960E949107CE010D960E9435
:101F1000EE08CE0101960E94EE08CE0107960E94BF
:101F2000EE088091F302882309F47CC01092F40239
:101F300080910903811193C00E945E0390E0019695
:101F4000089FB001099F700D11246E5E7C4FCE0179
:101F500001960E94D408CE0101960E949107CE01FD
:101F600001960E94EE088091F302882309F4C8C00C
:101F70000E945E0390E00196089FF001099FF00D1A
:101F80001124E251FD4F02A0F3A1E02D09950E941A
:101F90005E0390E00196089FF001099FF00D112467
:101FA000E251FD4F82A593A50E9426030E945E0385
:101FB00090E00196089FF001099FF00D1124E25175
:101FC000FD4F02A4F3A5E02D80810E94460798C032
:101FD000E0910203F09103038081882309F451CF3B
:101FE0008091F30281110E94FA098091F3028D25FC
:101FF0008093F3020E945E0320910C0330910D0345
:102000008217130641F41092EE021092EF02109321
:10201000F1021092F3026FE670E080E090E00E941F
:10202000F30233CF0E945E0390E0019620910C03EF
:1020300030910D03821793070CF078CF1093F402C0
:102040006BEC71E0CE0101960E94DD08CE01019695
:102050000E949107CE0101960E94EE0869CF0E946E
:102060005E0390E0029620910C0330910D038217DD
:10207000930709F061CF67ED71E0CE0101960E94F0
:10208000DD08CE0101960E949107CE0101960E94C3
:10209000EE088091F302882399F16AEE71E0CE0197
:1020A00001960E94DD08CE0101960E949107CE01A3
:1020B00001960E94EE08E091FE02F091FF028081FD
:1020C0008823F1F06CEF71E0CE0101960E94DD08EB
:1020D000CE0101960E949107CE0101960E94EE0862
:1020E000E0910703F0910803099560ED77E080E047
:1020F00090E00E94F3028091F3028D258093F30219
:102100000E945E0390E0019620910C0330910D0334
:102110008217930774F140E060E08EE993E00E943B
:102120003A04C092AF036EE271E0CE0101960E94C4
:10213000DD08CE0101960E949107CE0101960E9412
:10214000EE0862E072E0CE0101960E94DD08CE0149
:1021500001960E949107CE0101960E94EE0880919F
:10216000F302882331F01092EF021092F0020E94E5
:1021700081048091EF02882309F451C06EE271E07E
:10218000CE0101960E94DD08CE0101960E949107C2
:10219000CE0101960E94EE086EE271E0CE0101963A
:1021A0000E94DD08CE0101960E949107CE010196A2
:1021B0000E94EE086EE271E0CE0101960E94DD08F9
:1021C000CE0101960E949107CE0101960E94EE0871
:1021D0006EE271E0CE0101960E94DD08CE0101960B
:1021E0000E949107CE0101960E94EE086EE271E016
:1021F000CE0101960E94DD08CE0101960E94910752
:10220000CE0101960E94EE08E114F10409F4C3CD59
:102210000E940000C0CD8091F0028111C2C0809167
:10222000F0028111ABCF6BE072E0CE0101960E940B
:10223000DD08CE0101960E949107CE0101960E9411
:10224000EE089CCF1092F0021092EE020E94FA0962
:102250000E94810464E670E080E090E00E94F30256
:10226000D6C00E9452036093F5027093F6028093E9
:10227000F7029093F8021092F0021092EF0279CFD9
:102280008111C09287028091EC028111BDCDB09086
:10229000870210928702CE0101960E94EE08B1E0FB
:1022A000BB12B4CD80919302811107C0809192023C
:1022B000882319F081508093920280908E02909032
:1022C0008F02A0909002B0909102F0E68F0EFAEE8D
:1022D0009F1EA11CB11C0E94520386169706A806D9
:1022E000B906A8F40E94520360938E0270938F0285
:1022F000809390029093910280918C0290918D0234
:10230000019690938D0280938C020E9481048090AC
:10231000880290908902A0908A02B0908B0228E5F2
:10232000820E22E0921EA11CB11C0E94520386164E
:102330009706A806B90650F40E94520360938802DB
:102340007093890280938A0290938B028091EB02B2
:10235000882359F0809193028D258093930268E53C
:1023600072E080E090E00E94F302E0910203F091BD
:1023700003038081811105C08091EE02882309F456
:1023800070CF1093EE02808181114BCD8091EF02CE
:10239000811161CDE0910203F091030380818111ED
:1023A0003ACF0E945203AB01BC018091F50290919B
:1023B000F602A091F702B091F8028A519F4FAF4FF9
:1023C000BF4F84179507A607B70738F4E0910203BB
:1023D000F09103038081811135CF0E945203AB013C
:1023E000BC018091F5029091F602A091F702B091A4
:1023F000F802845D9F44AF4FBF4F84179507A6072F
:10240000B70708F41FCF1093F0021093EE028091EB
:10241000F002882309F4ADCE80910E0390910F0352
:10242000089FB001099F700D11246E5E7C4FCE0194
:1024300001960E94D408CE0101960E949107CE0118
:1024400001960E94EE0880910E0390910F03089F61
:10245000F001099FF00D1124E251FD4F02A0F3A1FC
:10246000E02D099580910E0390910F03089FF001D4
:10247000099FF00D1124E251FD4F82A593A50E9402
:10248000260380910E0390910F03089FF001099F8E
:10249000F00D1124E251FD4F84A5882331F002A4F0
:1024A000F3A5E02D80810E9446071093AF0361CE13
:1024B000CF93DF93C2E9D3E02D97CE0102960E941D
:1024C000EE0883E0C031D807B9F782E993E00E94B3
:1024D000EE0888E993E0DF91CF910C94EE08BB27DA
:1024E0004A3031F4992322F4BDE2909581959F4FB3
:1024F0000C947B12BB27FB015527AA27880F991F35
:10250000AA1FA41710F0A41B83955051B9F7A05D22
:10251000AA3308F0A95DA193009779F7B111B1939F
:102520001192CB010C949412DC01FC01672F719184
:102530007723E1F7329704C07C916D9370836291A9
:10254000AE17BF07C8F30895F999FECF92BD81BDBC
:10255000F89A992780B50895262FF999FECF1FBACA
:1025600092BD81BD20BD0FB6F894FA9AF99A0FBEBC
:10257000019608952F923F924F925F926F927F92B1
:102580008F929F92AF92BF92CF92DF92EF92FF9283
:102590000F931F93CF93DF93CDB7DEB7CA1BDB0B2F
:1025A0000FB6F894DEBF0FBECDBF09942A883988D4
:1025B00048885F846E847D848C849B84AA84B984DB
:1025C000C884DF80EE80FD800C811B81AA81B981E7
:1025D000CE0FD11D0FB6F894DEBF0FBECDBFED01FB
:1025E0000895A1E21A2EAA1BBB1BFD010DC0AA1F54
:1025F000BB1FEE1FFF1FA217B307E407F50720F06C
:10260000A21BB30BE40BF50B661F771F881F991FE6
:102610001A9469F760957095809590959B01AC012F
:10262000BD01CF010895EE0FFF1F0590F491E02D3D
:1026300009940F931F93CF93DF938230910510F489
:1026400082E090E0E091B403F091B50330E020E047
:10265000B0E0A0E0309799F42115310509F44AC0A3
:10266000281B390B24303105D8F58A819B816115EF
:10267000710589F1FB0193838283FE0111C04081C2
:1026800051810281138148175907E0F04817590713
:1026900099F4109761F012960C93129713961C936D
:1026A0003296CF01DF91CF911F910F910895009342
:1026B000B4031093B503F4CF2115310551F042173F
:1026C000530738F0A901DB019A01BD01DF01F801D0
:1026D000C1CFEF01F9CF9093B5038093B403CDCF71
:1026E000FE01E20FF31F8193919322503109398348
:1026F0002883D7CF2091B2033091B303232B41F429
:1027000020910801309109013093B3032093B20363
:1027100020910601309107012115310541F42DB7B3
:102720003EB740910A0150910B01241B350BE091FB
:10273000B203F091B303E217F307A0F42E1B3F0B93
:102740002817390778F0AC014E5F5F4F2417350723
:1027500048F04E0F5F1F5093B3034093B203819331
:1027600091939FCFF0E0E0E09CCFCF93DF93009771
:10277000E9F0FC01329713821282A091B403B09168
:10278000B503ED0130E020E01097A1F42081318104
:10279000820F931F2091B2033091B303281739079A
:1027A00009F061C0F093B303E093B203DF91CF91DE
:1027B0000895EA01CE17DF07E8F54A815B819E01A3
:1027C00041155105B1F7E901FB83EA83499159911C
:1027D000C40FD51FEC17FD0761F48081918102962B
:1027E000840F951FE90199838883828193819B835C
:1027F0008A83F0E0E0E012968D919C911397009708
:10280000B9F52D913C911197CD010296820F931F3E
:102810002091B2033091B3032817390739F6309766
:1028200051F51092B5031092B403B093B303A09383
:10283000B203BCCFD383C28340815181840F951FE3
:10284000C817D90761F44E5F5F4F88819981480F9F
:10285000591F518340838A819B81938382832115F1
:10286000310509F0B0CFF093B503E093B4039ECFE8
:10287000FD01DC01C0CF13821282D7CFB0E0A0E00F
:10288000E4E4F4E10C94BC128C01009751F4CB0108
:102890000E9419138C01C801CDB7DEB7E0E10C949A
:1028A000D812FC01E60FF71F9C0122503109E217F4
:1028B000F30708F49DC0D901CD91DC911197C6179B
:1028C000D70798F0C530D10530F3CE0104978617AD
:1028D000970708F3C61BD70B2297C193D1936D932B
:1028E0007C93CF010E94B513D6CF5B01AC1ABD0A11
:1028F0004C018C0E9D1EA091B403B091B503512CD8
:10290000412CF12CE12C109731F58091B20390917C
:10291000B3038815990509F05CC04616570608F000
:1029200058C08091060190910701009741F48DB73E
:102930009EB740910A0150910B01841B950BE8173B
:10294000F90708F055C0F093B303E093B203F9011F
:1029500071836083A0CF8D919C91119712966C909A
:10296000129713967C901397A815B90559F56C0129
:1029700042E0C40ED11CCA14DB0420F1AC014A1998
:102980005B09DA011296159780F062827382518397
:102990004083D9016D937C93E114F10471F0D70168
:1029A0001396FC93EE93129776CF22968C0F9D1F71
:1029B000F90191838083F301EFCFF093B503E093A6
:1029C000B40369CF4816590608F42C017D01D301E0
:1029D0009ACFCB010E9419137C01009749F0AE01F8
:1029E000B8010E940015C8010E94B513870153CF9A
:1029F00010E000E050CF81E090E0F8940C941015C6
:102A0000FB01DC0102C001900D9241505040D8F70B
:102A10000895FB01DC0101900D920020E1F708957B
:102A200011E0CDE6D1E004C0FE010E94131321960F
:0A2A3000CE36D107C9F7F894FFCFA6
:102A3A003200EF03EF030000B6038000000000003D
:102A4A00BE069106290767068A0677066806000009
:102A5A0000009C04F50129072807EF060D0A006605
:102A6A00756E63310066756E63320066756E633328
:102A7A000034416C69656A617573205265696B003F
:102A8A004441424152004845595920444546002C88
:102A9A00200020202020202020202020202020204C
:102AAA0020202020202020202020005761746572D9
:102ABA00206D696E696D756D005761746572206D60
:102ACA00616E696D756D00466C6F77206D696E6910
:102ADA006D756D0053656E736F7220477261620087
:102AEA005175696320416363657373004D454D4FAA
:102AFA0052592053455421005B50002020202020A9
:102B0A00204D454E4955003C526573657420746FDB
:102B1A002064656661756C743E005072657373203B
:102B2A00757020746F2072657365740020446F6E2F
:102B3A00650020205B455849545D0048455900000E
:107E0000112484B714BE81FFF0D085E080938100F7
:107E100082E08093C00088E18093C10086E0809377
:107E2000C20080E18093C4008EE0C9D0259A86E02C
:107E300020E33CEF91E0309385002093840096BBD3
:107E4000B09BFECF1D9AA8958150A9F7CC24DD24C4
:107E500088248394B5E0AB2EA1E19A2EF3E0BF2EE7
:107E6000A2D0813461F49FD0082FAFD0023811F036
:107E7000013811F484E001C083E08DD089C08234E0
:107E800011F484E103C0853419F485E0A6D080C0E4
:107E9000853579F488D0E82EFF2485D0082F10E0AE
:107EA000102F00270E291F29000F111F8ED06801E7
:107EB0006FC0863521F484E090D080E0DECF843638
:107EC00009F040C070D06FD0082F6DD080E0C81688
:107ED00080E7D80618F4F601B7BEE895C0E0D1E017
:107EE00062D089930C17E1F7F0E0CF16F0E7DF06D8
:107EF00018F0F601B7BEE89568D007B600FCFDCFD4
:107F0000A601A0E0B1E02C9130E011968C91119780
:107F100090E0982F8827822B932B1296FA010C0160
:107F200087BEE89511244E5F5F4FF1E0A038BF0790
:107F300051F7F601A7BEE89507B600FCFDCF97BE46
:107F4000E89526C08437B1F42ED02DD0F82E2BD052
:107F50003CD0F601EF2C8F010F5F1F4F84911BD097
:107F6000EA94F801C1F70894C11CD11CFA94CF0C13
:107F7000D11C0EC0853739F428D08EE10CD085E9AC
:107F80000AD08FE07ACF813511F488E018D01DD067
:107F900080E101D065CF982F8091C00085FFFCCF94
:107FA0009093C60008958091C00087FFFCCF809118
:107FB000C00084FD01C0A8958091C6000895E0E648
:107FC000F0E098E1908380830895EDDF803219F02E
:107FD00088E0F5DFFFCF84E1DECF1F93182FE3DFCA
:107FE0001150E9F7F2DF1F91089580E0E8DFEE27F6
:047FF000FF270994CA
:027FFE00040479
:0400000300007E007B
:00000001FF