:100000000C946E010C94E20A0C94BB0A0C949601B9
:100010000C9496010C9496010C9496010C94960104
:100020000C9496010C9496010C9496010C949601F4
:100030000C9496010C9496010C9496010C949601E4
:100040000C94710A0C9496010C9496010C949601F0
:100050000C9496010C9496010C9496010C949601C4
:100060000C94090B0C949601AED580A83FD30040A8
:100070008D142002A1C8DA12817FD9F1DB40A4A639
:10008000AF00030C0F30333C3FC0C3CCCFF0F3FCC8
:10009000FF00000000240027002A000000000025C7
:1000A0000028002B00000000002300260029000487
:1000B000040404040404040202020202020303030F
:1000C0000303030102040810204080010204081009
:1000D00020010204081020000000080002010000B6
:1000E00003040700000000000000000000050720D6
:1000F00060000000000000005F0000000700070033
:10010000147F147F14242A7F2A1223130864623672
:10011000495620500008070300001C2241000041FE
:10012000221C002A1C7F1C2A08083E080800807038
:10013000300008080808080000606000201008046B
:10014000023E5149453E00427F40007249494946BE
:100150002141494D331814127F1027454545393C3C
:100160004A49493141211109073649494936464929
:1001700049291E000014000000403400000008144B
:1001800022411414141414004122140802015909C4
:10019000063E415D594E7C1211127C7F4949493619
:1001A0003E414141227F4141413E7F494949417F92
:1001B000090909013E414151737F0808087F004148
:1001C0007F41002040413F017F081422417F404091
:1001D00040407F021C027F7F0408107F3E41414166
:1001E0003E7F090909063E4151215E7F09192946D2
:1001F000264949493203017F01033F4040403F1FE8
:100200002040201F3F4038403F631408146303041C
:100210007804036159494D43007F4141410204087C
:100220001020004141417F0402010204404040404F
:1002300040000307080020545478407F2844443885
:100240003844444428384444287F385454541800CF
:10025000087E090218A4A49C787F0804047800444E
:100260007D40002040403D007F1028440000417F39
:1002700040007C047804787C0804047838444444C2
:1002800038FC1824241818242418FC7C08040408BA
:10029000485454542404043F44243C4040207C1CD3
:1002A0002040201C3C4030403C44281028444C90C6
:1002B00090907C4464544C44000836410000007720
:1002C0000000004136080002010204023C262326F9
:1002D0003C68001980400000280C0B1511241FBE3B
:1002E000CFEFD8E0DEBFCDBF24E0A4E8B2E001C08C
:1002F0001D92AC3CB207E1F712E0A0E0B1E0E8EA01
:10030000FFE202C005900D92A438B107D9F711E0C1
:10031000CDE6D1E004C02197FE010E94CA15CC367B
:10032000D107C9F70E94B50C0C94C7170C940000B4
:100330002091580381E0213208F044C080913403B9
:100340008111FCCF8091570392E09093340391E0A8
:10035000909333039FEF90933203109231032093D5
:100360003003A7E3B3E0E0E1F3E090E0291331C00C
:1003700010920F0390910F03880F892B80930F0326
:1003800080910E03813049F510920E0380910F0386
:100390008093BB008091BC0083FDF8CF85EC8093F7
:1003A000BC00809134038230E1F3809132038F3FAF
:1003B000B1F0809132038032A1F08091320380331A
:1003C00091F084E010923603109258031092350396
:1003D00008953D9131939F5FC9CF85EEE0CF80E0D6
:1003E000F1CF82E0EFCF83E0EDCFAF92BF92CF921B
:1003F000DF92EF92FF920F931F93CF93DF936C01E5
:100400007B018B01040F151FEB015E01AE18BF08C5
:10041000C017D10759F06991D601ED91FC91019077
:10042000F081E02DC6010995892B79F7C501DF918F
:10043000CF911F910F91FF90EF90DF90CF90BF90E1
:10044000AF900895089508950895833081F028F4B9
:10045000813099F08230A9F008958730A9F0883072
:10046000C9F08430B1F4809180008F7D03C0809109
:1004700080008F7780938000089584B58F7784BD46
:10048000089584B58F7DFBCF8091B0008F778093E6
:10049000B00008958091B0008F7DF9CFCF93DF93A6
:1004A000282F30E0F901E952FF4F8491F901ED5313
:1004B000FF4FD491F901E155FF4FC491CC23A1F036
:1004C00081110E942502EC2FF0E0EE0FFF1FEB558B
:1004D000FF4FA591B491EC91ED2381E090E009F4F8
:1004E00080E0DF91CF91089580E090E0FACF1F93F4
:1004F000CF93DF93282F30E0F901E952FF4F849129
:10050000F901ED53FF4FD491F901E155FF4FC4912B
:10051000CC23A9F0162F81110E942502EC2FF0E0C8
:10052000EE0FFF1FE556FF4FA591B4918FB7F894DA
:10053000EC91111108C0D095DE23DC938FBFDF91C1
:10054000CF911F910895DE2BF8CFCF93DF9390E0EA
:10055000FC01ED53FF4F249181559F4FFC01849185
:100560008823D1F090E0880F991FFC01EF56FF4FD0
:10057000A591B491FC01E556FF4FC591D49161114D
:100580000EC09FB7F8948C91E22FE0958E238C9348
:100590002881E223E8839FBFDF91CF9108958FB731
:1005A000F894EC91E22BEC938FBFF6CF8E508064E1
:1005B00080937C0080917A00806480937A0080919F
:1005C0007A0086FDFCCF80917800909179000895A3
:1005D0003FB7F8948091EC029091ED02A091EE0269
:1005E000B091EF0226B5A89B05C02F3F19F00196E8
:1005F000A11DB11D3FBFBA2FA92F982F8827BC017D
:10060000CD01620F711D811D911D42E0660F771FA4
:10061000881F991F4A95D1F708958F929F92AF92A4
:10062000BF92CF92DF92EF92FF926B017C010E940A
:10063000E8024B015C01C114D104E104F104B9F0FA
:100640000E94E802681979098A099B09683E73408B
:100650008105910580F321E0C21AD108E108F10873
:1006600088EE880E83E0981EA11CB11CE4CFFF9099
:10067000EF90DF90CF90BF90AF909F908F900895B4
:10068000CF93DF93EC01E0917903F0917A038081BD
:10069000882359F088818F3F41F08F5F88836AE01B
:1006A00070E080E090E00E940D03E0917B03F09108
:1006B0007C038081882369F08881882351F08150F0
:1006C00088836AE070E080E090E0DF91CF910C9445
:1006D0000D03DF91CF9108952FB7F8946091E80250
:1006E0007091E9028091EA029091EB022FBF089588
:1006F000E0917903F0917A0380818823F9F0809169
:100700006B0320918703309188038217130609F049
:10071000ACF490916C03992389F090916D03911141
:100720000DC08F5F80936B030E946C036093730313
:10073000709374038093750390937603E0917B0329
:10074000F0917C0380818823C9F080916B03823013
:10075000A8F090916C03992389F090916D03911109
:100760000DC0815080936B030E946C0360937303F0
:10077000709374038093750390937603E0917D03E7
:10078000F0917E038081882371F080916D03811147
:100790000AC00E946C036093730370937403809388
:1007A0007503909376030E946C03AB01BC018091AA
:1007B000730390917403A0917503B09176038855EB
:1007C0009E49AF4FBF4F84179507A607B70758F448
:1007D00080916D03811107C0109268031092690324
:1007E00081E080936B03E0917903F0917A0380813B
:1007F000811107C0E0917B03F0917C038081882305
:1008000029F010926C0380916B03089581E080932E
:100810006C03F9CF0895CF93DF93EC018D85882386
:1008200029F081508D87DF91CF9108959C818E8131
:100830009817C8F788896827E881F9810084F185CD
:10084000E02D42E0CE0109958C818F5F8C83EBCF48
:10085000DC01ED91FC910084F185E02D40E00994EC
:100860000F931F93CF938C01FC016483C085C60F47
:100870006C2F6F700E9428046C2F62956F706061FE
:10088000C801CF911F910F910C942804FC0127817E
:10089000269526952695621738F465832385620F81
:1008A0006770606B0C94280408951F93CF93DF93B7
:1008B000EC01142F8E81681718F4CE010E943004C9
:1008C000612FCE01DF91CF911F910C944604CF92FE
:1008D000DF92EF92FF920F931F93CF93DF93EC0180
:1008E000F62EC42ED22E1D868F81869586958695EE
:1008F000081710F00FEF080F1D2D011780F0412F82
:100900006F2DCE010E945504EF2CCE1430F0688973
:10091000CE010E940B04E394F8CF1F5FEECF4D2D64
:100920006F2DCE01DF91CF911F910F91FF90EF902E
:10093000DF90CF900C9455040F93CF93DF93C4EBCB
:10094000D4E01B861A8660E4CE010E9428040F8141
:1009500006950695069501504E81415020E060E0D5
:10096000CE010E946704DF91CF910F9108952F92DD
:100970003F924F925F926F927F928F929F92AF922F
:10098000BF92CF92DF92EF92FF920F931F93CF937C
:10099000DF9300D000D000D0CDB7DEB7DC011E96CB
:1009A0002D913C912115310509F478C19E838D83E9
:1009B000F9013296649031964491E42EF12CB7E01F
:1009C000EB0EF11C53E0F594E7945A95E1F7E982B8
:1009D000319654913196E491651748F08E2F90E04E
:1009E000FC01E50FF11D6E171F060CF492C06D306F
:1009F00031F5ED81FE81868181111BC081E090E09F
:100A000026960FB6F894DEBF0FBECDBFDF91CF9113
:100A10001F910F91FF90EF90DF90CF90BF90AF901C
:100A20009F908F907F906F905F904F903F902F900E
:100A3000089560E08D819E810E943004DFCF6A308E
:100A400009F02CC1AD81BE8116968C911697882332
:100A500021F060E0CD010E943004ED81FE8101892A
:100A60000E9DE02C112465816E0D8485882349F04C
:100A700027812695269526958E2D821B860F181682
:100A80002CF08D819E810E944604B8CFAD81BE813D
:100A90001B969C911B97890F87701B968C931B97B5
:100AA0002E1915962C9315971E96ED91FC91309763
:100AB00071F13396E491F0E0379633E0F595E795E0
:100AC0003A95E1F70E9F002D1124EFEFE20F0E0F84
:100AD000ED81FE81468141506481CF010E9467040F
:100AE000AD81BE811C968C911C97813009F086CF18
:100AF0001B966C911B97660F660F660F6F731A96A5
:100B00006C931A976064CD010E94280477CF00E0AF
:100B1000DCCF89010A5F1F4F651BED81FE81718566
:100B20005189759F502D11245C83F90154912F5FD9
:100B30003F4FF9012491352F2230310508F070C064
:100B40006E9CC0016F9C900D1124689FF001699FFD
:100B5000F00D11240E0F1F1F512CAD81BE81149674
:100B6000BC91BA83ED81FE812580F585FB83862CBF
:100B7000912CAA24A394B12C312C8981381608F029
:100B80008BC0412CAD81BE8151968C9151974816F6
:100B900008F07BC0EB811D96EC93311002C044201D
:100BA00051F0AD81BE8115964C9115974F5F6A81CA
:100BB000CD010E945504D12CC12CC61408F058C098
:100BC000F801EC0DFD1D7490552061F0EA14FB0452
:100BD00049F4E72DF0E0052C02C0F595E7950A945D
:100BE000E2F77E2EED81FE818189823081F44420FE
:100BF00009F43AC072948FE07822E72DF0E0EF57C5
:100C0000FF4F7490672D8D819E810E940B04672D8C
:100C10008D819E810E940B048FEFC81AD80ACDCF18
:100C2000477028E0522E541A411101C0512CF8018E
:100C3000612C30E020E0661631F04491240F311D24
:100C400063943196F8CF600E712E711CF30164909D
:100C5000E29EF001E39EF00DF29EF00D11248E0F46
:100C60009F1F080F191F79CFF72DFF707F2EC5CF5B
:100C7000D12CAC81DA1639F060E08D819E810E9422
:100C80000B04D394F6CF43947DCF3394080D191DF4
:100C9000BFEFAB1ABB0A71CF622DF3CE90E080E0BC
:100CA000AFCE85ED8093BC008091BC0084FDFCCF6D
:100CB0001092340308952091C402260F3327331F66
:100CC00021323105ECF420913403FC0190E080E006
:100CD000243069F082E00895A091C4022191AC0112
:100CE0004C555D4FA40FB52FB11D2C93019686175F
:100CF00098F38091C402680F6093C40280E0089565
:100D000081E008950895E091F5028091F402E817DA
:100D100030F4F0E0EC57FD4F808190E008958FEFC4
:100D20009FEF08959091F5028091F4022FEF3FEF2D
:100D3000981748F4E92FF0E0EC57FD4F208130E0A0
:100D40009F5F9093F502C90108958091F4029091FC
:100D5000F502891B990B0895CF92DF92EF92FF92D3
:100D60000F931F93CF93DF937C01CB018A012091D6
:100D70003503222389F0EB016B01C40ED51ECC157F
:100D8000DD0569F06991D701ED91FC910190F08149
:100D9000E02DC7010995F3CF642F0E945B06C801BF
:100DA000DF91CF911F910F91FF90EF90DF90CF9047
:100DB0000895CF93DF931F92CDB7DEB7698320915B
:100DC00035032223F9F020915803203258F021E016
:100DD00030E0FC013383228390E080E00F90DF91CC
:100DE000CF91089580913603E82FF0E0E95CFC4F45
:100DF000998190838F5F809336038093580381E0BD
:100E000090E0ECCF61E0CE0101960E945B06F7CF47
:100E100008950F931F93CF93DF93EC01062F142FA8
:100E20008B89813120F4882329F0411103C00E946D
:100E300098011B8A8B89811112C08A8991E0909355
:100E4000350380935703109236031092580360E4E1
:100E5000111101C060E089E593E00E94D906602F7E
:100E600089E593E00E94D906123041F48B898F5FA7
:100E70008B8BDF91CF911F910F9108950E94980164
:100E80001B8AF7CF089590E080E008958F929F929B
:100E9000AF92BF920F931F93CF93DF93CDB7DEB77F
:100EA000A1970FB6F894DEBF0FBECDBF19A2423096
:100EB00008F44AE08E010F5D1F4F842E912CB12C57
:100EC000A12CA50194010E94A815E62FB901CA0121
:100ED000EA3044F5E05DD801EE938D01232B242BFD
:100EE000252B79F790E080E0109769F0FD010190E3
:100EF0000020E9F73197AF014A1B5B0BBD0184EB82
:100F000094E00E94F501A1960FB6F894DEBF0FBEE3
:100F1000CDBFDF91CF911F910F91BF90AF909F9068
:100F20008F900895E95CD7CFFC01448155816081A1
:100F3000718184EB94E00E94F501EEEAF4E04481D3
:100F400055816081718184EB94E00E94F50142E05B
:100F500050E06CE271E084EB94E00C94F5010F93A7
:100F60001F93CF93DF93EC0188819981009759F00B
:100F70002A813B812617370730F081E0DF91CF913E
:100F80001F910F9108958B016F5F7F4F0E94F5169F
:100F9000009759F0998388831B830A832C813D81B4
:100FA000232B59F7FC011082E8CF80E0E7CFCF93E5
:100FB000DF93EC0188819981009711F00E946C16F3
:100FC000198218821D821C821B821A82DF91CF91A6
:100FD00008950F931F93CF93DF93EC010C811D8134
:100FE0000F5F1F4FB8010E94AF07882391F028813F
:100FF00039818C819D816CE272E0820F931F0E9487
:10100000C0171D830C83CE01DF91CF911F910F91EB
:101010000895CE010E94D707F6CFEF92FF920F936B
:101020001F93CF93DF93EC01FB01E080F180E1148B
:10103000F10411F10481158101151105A9F08C81CC
:101040009D81080F191FB801CE010E94AF078823A8
:1010500099F0288139818C819D81B701820F931F7E
:101060000E94C0171D830C83CE01DF91CF911F9189
:101070000F91FF90EF900895CE010E94D707F4CF13
:10108000EF92FF920F931F93CF93DF93EC017B01BD
:101090008A01BA010E94AF0781110BC0CE010E94E4
:1010A000D707CE01DF91CF911F910F91FF90EF9065
:1010B00008951D830C83B701888199810E94C01710
:1010C000F0CFEF92FF920F931F93CF93DF93CDB7A3
:1010D000DEB729970FB6F894DEBF0FBECDBF8C01E7
:1010E000862FF801118210821382128215821482D7
:1010F0004AE09E012F5F3F4F7901B90190E00E94C5
:101100003115F70101900020E9F73197AF014E1931
:101110005F09B701C8010E94400829960FB6F894EC
:10112000DEBF0FBECDBFDF91CF911F910F91FF901A
:10113000EF900895EF92FF920F931F93CF93DF9359
:10114000CDB7DEB762970FB6F894DEBF0FBECDBF46
:101150008C01CB01F8011182108213821282158258
:1011600014824AE09E012F5F3F4F7901B9010E942E
:101170002615F70101900020E9F73197AF014E19CC
:101180005F09B701C8010E94400862960FB6F89443
:10119000DEBF0FBECDBFDF91CF911F910F91FF90AA
:1011A000EF900895CF93DF93EC01FB01861797072B
:1011B00049F0608171816115710541F0448155816B
:1011C0000E944008CE01DF91CF9108950E94D70779
:1011D000F9CFFC01118210821382128215821482CF
:1011E0000C94D208FC0111821082138212821582A3
:1011F0001482FB0101900020E9F73197AF01461BF3
:10120000570B0C944008FC01808191810C946C1662
:101210005F926F927F928F929F92AF92BF92CF9286
:10122000DF92EF92FF920F931F93CF93DF93CDB78F
:10123000DEB72C970FB6F894DEBF0FBECDBF4C01C2
:101240005B013A01502E88E6E82E83E0F82EF70184
:10125000C78CD0A0B901CE0101960E94E908B30164
:10126000CE0107960E94E90883E18C9D80018D9D47
:10127000100D1124C80188599C4F6C01FC0194A2E7
:1012800083A2BE01695F7F4FC80183579C4F0E94B4
:10129000D208F601B4A6A3A653AABE016F5F7F4F82
:1012A000C8018B569C4F0E94D208CE0107960E941F
:1012B0000309CE0101960E940309F701878D90A1D1
:1012C000019690A3878F2C960FB6F894DEBF0FBEC1
:1012D000CDBFDF91CF911F910F91FF90EF90DF90E5
:1012E000CF90BF90AF909F908F907F906F905F90C6
:1012F0000895CF93DF9300D000D000D0CDB7DEB7F4
:101300006FE271E0CE0101960E94F208CE010196D3
:101310000E949407CE0101960E94030926960FB6FB
:10132000F894DEBF0FBECDBFDF91CF910895CF936C
:10133000DF9300D000D000D0CDB7DEB765E371E019
:10134000CE0101960E94F208CE0101960E949407F8
:10135000CE0101960E94030926960FB6F894DEBFCF
:101360000FBECDBFDF91CF910895CF93DF9300D013
:1013700000D000D0CDB7DEB76BE371E0CE010196AF
:101380000E94F208CE0101960E949407CE010196B8
:101390000E94030926960FB6F894DEBF0FBECDBF9C
:1013A000DF91CF9108950F931F93CF93DF9300D0D8
:1013B00000D000D0CDB7DEB761E471E0CE01019678
:1013C0000E94F208CE0101960E949407CE01019678
:1013D0000E94030904EB14E082E0F801818B60E5D0
:1013E00071E0CE0101960E94F208CE0101960E94A2
:1013F0009407CE0101960E94030981E0F801818BD8
:1014000026960FB6F894DEBF0FBECDBFDF91CF9109
:101410001F910F910895CF93DF9300D000D000D09B
:10142000CDB7DEB766E571E0CE0101960E94F20805
:10143000CE0101960E949407CE0101960E940309F5
:1014400066E571E0CE0101960E94F208CE01019698
:101450000E949407CE0101960E94030926960FB6BA
:10146000F894DEBF0FBECDBFDF91CF910895CF932B
:10147000DF9300D000D000D0CDB7DEB76CE571E0CF
:10148000CE0101960E94F208CE0101960E949407B7
:10149000CE0101960E94030960ED77E080E090E0C4
:1014A0000E940D0326960FB6F894DEBF0FBECDBF87
:1014B000DF91CF9108951F93CF93DF93EC01162F07
:1014C0000E945B15181749F0612FCE010E94631529
:1014D00081E0DF91CF911F91089580E0FACF0E94C3
:1014E000B2171F920F920FB60F9211242F933F93B2
:1014F0008F939F93AF93BF938091E8029091E902FD
:10150000A091EA02B091EB023091E70223E0230FB1
:101510002D3758F50196A11DB11D2093E702809348
:10152000E8029093E902A093EA02B093EB02809163
:10153000EC029091ED02A091EE02B091EF020196C3
:10154000A11DB11D8093EC029093ED02A093EE02D9
:10155000B093EF02BF91AF919F918F913F912F91E7
:101560000F900FBE0F901F90189526E8230F02963C
:10157000A11DB11DD2CF1F920F920FB60F92112451
:101580002F933F934F935F936F937F938F939F938B
:10159000AF93BF93EF93FF93E0910401F0910501A6
:1015A0000995FF91EF91BF91AF919F918F917F919D
:1015B0006F915F914F913F912F910F900FBE0F90C0
:1015C0001F9018951F920F920FB60F9211242F9310
:1015D0003F934F935F936F937F938F939F93AF93BB
:1015E000BF93EF93FF93E0910201F09103010995FE
:1015F000FF91EF91BF91AF919F918F917F916F91EB
:101600005F914F913F912F910F900FBE0F901F90C0
:1016100018951F920F920FB60F9211242F933F939C
:101620004F935F936F937F938F939F93AF93BF93EA
:10163000EF93FF938091B900887F803609F44AC008
:10164000F0F5883209F4A7C018F5803109F49BC081
:10165000B8F4882309F4F9C0883009F494C0FF91E4
:10166000EF91BF91AF919F918F917F916F915F911A
:101670004F913F912F910F900FBE0F901F90189593
:10168000883109F488C0803251F78093320314C046
:10169000803409F49DC040F48033B9F38833F9F6FF
:1016A0008093320385ECB0C0803509F485C088355D
:1016B00009F496C0883499F60E945106D0CF883933
:1016C00009F48CC038F5883729F050F4883611F0C9
:1016D000803729F683E0809334031092E60257C0E6
:1016E000883809F47BC0803919F0803809F0B7CF09
:1016F0008091E602803208F071C0E091E60281E05C
:101700008E0F8093E6028091BB00F0E0EA53FD4F1C
:1017100080833DC0803B39F0E0F4803A09F479C021
:10172000883A09F09CCF84E0809334031092C5027C
:101730001092C402E091F202F091F30209958091B7
:10174000C40281110FC081E08093C4021092A402F0
:1017500009C0803C09F4A6CF883C09F4A3CF883B9C
:1017600009F07DCFE091C50281E08E0F8093C50224
:10177000F0E0EC55FD4F80818093BB009091C50255
:101780008091C40229C080910F038093BB0085EC37
:101790008093BC0064CF90913103809130039817FF
:1017A00058F5E091310381E08E0F80933103F0E032
:1017B000E05FFC4F8081E9CFE091310381E08E0F43
:1017C000809331038091BB00F0E0E05FFC4F8083A9
:1017D00090913103809130039817C8F285E8D8CFF3
:1017E000E091310381E08E0F809331038091BB0043
:1017F000F0E0E05FFC4F80838091330381115CCF88
:1018000081E080930E0384EA8093BC00109234033D
:1018100026CF85EC8093BC00109234038091E602C1
:10182000803230F4E091E602F0E0EA53FD4F10829E
:101830006091E60270E0E091F002F091F10286EC36
:1018400092E009951092E6020ACF1092320334CF4B
:10185000CF93DF9310925C0310925B0388EE93E0CA
:10186000A0E0B0E080935D0390935E03A0935F03DC
:10187000B093600380E191E090935A038093590301
:101880001092B7041092B6041092C0041092C104D2
:101890001092C3041092C2041092C404C1E0C09319
:1018A000C50482E291E09093B5048093B40465E6A8
:1018B00071E08EEA94E00E94F2086EE271E088EA3C
:1018C00094E00E94F208109268031092690310924B
:1018D0006A03C0936B0310926C0310926D03109215
:1018E0006E03109277031092780310928103109286
:1018F00084038AE090E0909386038093850382E0DE
:1019000090E0909388038093870381E090E0909328
:101910008A0380938903D0E0C0E06EE271E0CE01DB
:1019200083579C4F0E94F2086EE271E0CE018B5605
:101930009C4F0E94F2086396CD3181E0D80769F789
:1019400087E693E090937A038093790386E693E0A9
:1019500090937C0380937B0385E693E090937E03D2
:1019600080937D03DF91CF910895CF93DF93CDB71F
:10197000DEB768970FB6F894DEBF0FBECDBF789480
:1019800084B5826084BD84B5816084BD85B5826084
:1019900085BD85B5816085BD80916E008160809335
:1019A0006E0010928100809181008260809381009E
:1019B00080918100816080938100809180008160AE
:1019C000809380008091B10084608093B100809109
:1019D000B00081608093B00080917A008460809331
:1019E0007A0080917A00826080937A0080917A00F8
:1019F000816080937A0080917A00806880937A0079
:101A00001092C1006EE771E0CE0101960E94F208CB
:101A100062E871E0CE0107960E94F20801E09E01A3
:101A20002F5F3F4FAE01495F5F4F6AEF72E089E77A
:101A300099E00E940809CE0107960E940309CE0191
:101A400001960E9403096EE771E0CE0101960E94A3
:101A5000F20860E971E0CE0107960E94F2089E014B
:101A60002F5F3F4FAE01495F5F4F69EF72E087E93B
:101A700099E00E940809CE0107960E940309CE0151
:101A800001960E9403096EE971E0CE0101960E9461
:101A9000F20864EA71E0CE0107960E94F2089E0106
:101AA0002F5F3F4FAE01495F5F4F68EF72E085EBFC
:101AB00099E00E940809CE0107960E940309CE0111
:101AC00001960E94030961EB71E0CE0101960E942C
:101AD000F20865EB71E0CE0107960E94F20800E083
:101AE0009E012F5F3F4FAE01495F5F4F67EF72E08E
:101AF00083ED99E00E940809CE0107960E94030930
:101B0000CE0101960E94030961EB71E0CE010196BE
:101B10000E94F20861EC71E0CE0107960E94F20883
:101B200001E09E012F5F3F4FAE01495F5F4F67EFBE
:101B300072E083ED99E00E940809CE0107960E94A9
:101B40000309CE0101960E9403096EE771E0CE0100
:101B50000D960E94F2086FEC71E0CE0143960E9450
:101B6000F2080091890310918A03BE01635F7F4FE1
:101B7000CE0107960E94E908BE016D5E7F4FCE013F
:101B800001960E94E90883E1809F7001819FF00C1B
:101B90001124970128593C4F69018BE09AE0D90143
:101BA00094969C938E939397BE016F5F7F4FC7016E
:101BB00083579C4F0E94D20886EF92E0F60194A7CB
:101BC00083A711E013ABBE01695F7F4FC7018B563E
:101BD0009C4F0E94D208CE0101960E940309CE01BB
:101BE00007960E940309CE0143960E940309CE0185
:101BF0000D960E94030987E39AE0909383038093F4
:101C00008203109384031092F5021092F402109252
:101C1000360310925803109234031093330310923A
:101C20000E0361E082E10E94770261E083E10E949D
:101C300077028091B9008E7F8093B9008091B900BE
:101C40008D7F8093B90088E48093B80085E4809309
:101C5000BC0083E292E09093F3028093F20284E26C
:101C600092E09093F1028093F00282E08093B800BA
:101C70001092C7048CE38093C6041092B8041092AB
:101C8000B904E1EDF2E085919491E82EE3EDF2E004
:101C9000F490E4EDF2E0E491E093BA04E5EDF2E0D3
:101CA000E491E093BB04E6EDF2E0E491E093BC0440
:101CB0008C01802F8E198F1548F4F801649184EB04
:101CC00094E00E9428040F5F1F4FF3CF0E949C04F2
:101CD000EBEEF0E0F093C304E093C2048491ECEEE9
:101CE000F0E0E491F82F319709F003C11092BD04A0
:101CF00060E085E00E94A50260E086E00E94A50207
:101D000060E084E00E94A50260E083E00E94A502FA
:101D100060E082E00E94A50261E089E00E94A502E5
:101D200061E088E00E94A50260E08BE00E94A502CD
:101D300060E080E10E94A50260E081E10E94A502CE
:101D400060E08CE00E94A50260E08AE00E94A502AB
:101D500061E08DE00E94A50260E08DE00E947702C4
:101D600088E097E0909305018093040180916900D9
:101D7000837F886080936900E99A82E292E0909381
:101D8000030180930201809169008C7F82608093BF
:101D90006900E89A90E080E00E945B15813051F183
:101DA0006BED71E0CE0101960E94F208CE01019622
:101DB0000E949407CE0101960E94030990E080E002
:101DC0000E945B15813029F061E090E080E00E9484
:101DD0006315E0918203F09183030995E0918003FC
:101DE000F091810380918503909186036081019732
:101DF0000E945B0A48E6E42E43E0F42E01E010E086
:101E0000F3E1EF0EF11C809187039091880308178E
:101E100019070CF472C0BB24B39403E120E0C22E76
:101E200020E0D22E11E032E0F32E40E060E084EBBF
:101E300094E00E94550486E00E944E0221E0892B26
:101E400009F420E02093650385E00E944E0221E022
:101E5000892B09F420E02093660384E00E944E025F
:101E600021E0892B09F420E0209367038CE00E9495
:101E70004E0221E0892B09F420E020930D038BE032
:101E80000E944E0221E0892B09F420E020930C03EC
:101E90008AE00E944E0221E0892B09F420E0209381
:101EA0000B0381E10E94D60290930A0380930903F9
:101EB00080E10E94D60290930803809307036EE2AC
:101EC00071E0CE0101960E94F2088091FB02909190
:101ED0006703811109C080916603992309F459C4ED
:101EE000811102C01093FB02992309F455C4E12C1F
:101EF0005BC481E08093BD04FBCE8091850390910B
:101F00008603800F911F0E945B15D7019B96ED9170
:101F1000FC9180830F5F1F4F73CFE2E0EE1252C43B
:101F2000809106038F5F4CC40E946C03AB01BC011F
:101F300080916F0390917003A0917103B09172032F
:101F400088579C4EAF4FBF4F84179507A607B7071A
:101F500008F092C480916A0381118EC40E946C03C0
:101F6000AB01BC0180916F0390917003A09171034C
:101F7000B09172038A56964EAF4FBF4F84179507A4
:101F8000A607B70708F4E2C010936903109368032B
:101F9000E0917D03F0917E038081811105C08091E5
:101FA0006903882309F4C1C240E060E084EB94E057
:101FB0000E9455041093C5040E9478032091870362
:101FC00030918803821713065CF50E947803682F0E
:101FD000CE0107960E94610867EE71E0CE0101967E
:101FE0000E94F208BE01695F7F4FCE0101960E94F8
:101FF0000D080E94E907BC01CE010D960E94E90878
:10200000CE010D960E949407CE010D960E94030901
:10201000CE0101960E940309CE0107960E94030992
:1020200080916D03882309F488C110926E0380911A
:10203000840381119DC10E94780390E00196089F5E
:10204000B001099F700D112463577C4FCE0101969A
:102050000E94E908CE0101960E949407CE010196E4
:102060000E94030980916D03882309F4D8C10E945E
:10207000780390E00196089FF001099FF00D11246C
:10208000E859FC4F03A0F4A1E02D0995F092C50496
:102090000E94780390E00196089FF001099FF00DDF
:1020A0001124E859FC4F83A9882309F43FC00E94FA
:1020B000780390E00196089FF001099FF00D11242C
:1020C000E859FC4F03A4F4A5E02D608170E090E096
:1020D00080E04AE00E9446071093C5040E947803FE
:1020E000E82E6CE771E0CE0101960E94F2088E2D79
:1020F00090E00196089FB001099F700D11246B5666
:102100007C4FCE0101960E940D08BC01CE010796BE
:102110000E94E908CE0107960E949407CE01079617
:102120000E940309CE0101960E9403090E947803D0
:1021300090E00196089FF001099FF00D1124E859E5
:10214000FC4F83A594A50E94400369C1E0917D03E3
:10215000F0917E038081882309F416CF80916D036E
:10216000882309F4E7C00E94780388E6682E83E09C
:10217000782E88248394912C33E1630E711C809116
:10218000870390918803881699068CF4D3019B9657
:10219000ED91FC9180918503909186036081880D7B
:1021A000991D0E945B0ABFEF8B1A9B0AE5CF8091B5
:1021B0007803811198C01093C5040E947803209180
:1021C000870330918803821713065CF50E94780319
:1021D000682FCE0107960E94610867EE71E0CE017C
:1021E00001960E94F208BE01695F7F4FCE01019601
:1021F0000E940D080E94E907BC01CE010D960E94C5
:10220000E908CE010D960E949407CE010D960E941A
:102210000309CE0101960E940309CE0107960E9490
:1022200003096EE271E0CE0101960E94F208CE0130
:1022300001960E949407CE0101960E9403096EE266
:1022400071E0CE0101960E94F208CE0101960E9433
:102250009407CE0101960E9403096EE271E0CE015F
:1022600001960E94F208CE0101960E949407CE01C9
:1022700001960E9403096EE271E0CE0101960E9470
:10228000F208CE0101960E949407CE0101960E94A9
:1022900003096EE271E0CE0101960E94F208CE01C0
:1022A00001960E949407CE0101960E9403096EE2F6
:1022B00071E0CE0101960E94F208CE0101960E94C3
:1022C0009407CE0101960E9403096EE271E0CE01EF
:1022D00001960E94F208CE0101960E949407CE0159
:1022E00001960E940309109378036CE370E080E08C
:1022F00090E00E940D0380916D038B2580936D0308
:102300000E94780320918703309188038217130677
:1023100051F4109268031092690310936B031092AA
:102320006D031093C50462E870E080E090E00E94C5
:102330000D032ECE10927803DECF0E9478032091F9
:10234000870330918803821713060CF06ECE10932A
:102350006E036AEE71E0CE0101960E94F208CE0192
:1023600001960E949407CE0101960E9403095FCE58
:102370000E9478032091870330918803215031090E
:102380008217130609F057CE66EF71E0CE01019671
:102390000E94F208CE0101960E949407CE01019698
:1023A0000E94030980916D038823C9F169E072E0FE
:1023B000CE0101960E94F208CE0101960E94940778
:1023C000CE0101960E940309E0917903F0917A030E
:1023D0008081882321F1F092C5046BE172E0CE0187
:1023E00001960E94F208CE0101960E949407CE0148
:1023F00001960E9403091093C504E0918203F091B5
:102400008303099560ED77E080E090E00E940D0382
:1024100080916D038B2580936D030E949C040E9424
:10242000780320918703309188038217130674F193
:1024300040E060E084EB94E00E945504F092C50413
:102440006EE271E0CE0101960E94F208CE01019683
:102450000E949407CE0101960E94030961E272E096
:10246000CE0101960E94F208CE0101960E949407C7
:10247000CE0101960E94030980916D03882331F0FB
:102480001092690310926A030E949C040E947803D0
:102490002091870330918803215031098217130658
:1024A000E9F58091780381112AC06EE271E0CE01D6
:1024B00001960E94F208CE0101960E949407CE0177
:1024C00001960E9403096EE271E0CE0101960E941E
:1024D000F208CE0101960E949407CE0101960E9457
:1024E00003096EE271E0CE0101960E94F208CE016E
:1024F00001960E949407CE0101960E940309109351
:1025000078031093C50480916903882371F0C11486
:10251000D10409F48ACC0E94000087CC1092780381
:10252000F0CF80916A038111B2C180916A03811159
:10253000EECF60910D0370E0CE0107960E949A08DD
:102540006EE272E0CE010D960E94F208BE01695F54
:102550007F4FCE010D960E940D08BC01CE01019661
:102560000E94E908CE0101960E949407CE010196CF
:102570000E940309CE010D960E940309CE01079621
:102580000E94030960910C0370E0CE0107960E943F
:102590009A0862E472E0CE010D960E94F208BE0134
:1025A000695F7F4FCE010D960E940D08BC01CE01E0
:1025B00001960E94E908CE0101960E949407CE017F
:1025C00001960E940309CE010D960E940309CE01D7
:1025D00007960E94030960910B0370E0CE010796F5
:1025E0000E949A0867E572E0CE010D960E94F208FB
:1025F000BE01695F7F4FCE010D960E940D08BC01A0
:10260000CE0101960E94E908CE0101960E9494072E
:10261000CE0101960E940309CE010D960E94030986
:10262000CE0107960E9403096091090370910A0385
:10263000CE0107960E949A0868E672E0CE010D96D8
:102640000E94F208BE01695F7F4FCE010D960E9485
:102650000D08BC01CE0101960E94E908CE01019649
:102660000E949407CE0101960E940309CE010D96A7
:102670000E940309CE0107960E9403096091070397
:1026800070910803CE0107960E949A0868E772E0ED
:10269000CE010D960E94F208BE01695F7F4FCE0108
:1026A0000D960E940D08BC01CE0101960E94E9081A
:1026B000CE0101960E949407CE0101960E94030963
:1026C000CE010D960E940309CE0107960E940309D0
:1026D0006EE271E0CE0101960E94F208CE010196F1
:1026E0000E949407CE0101960E9403096EE271E0F8
:1026F000CE0101960E94F208CE0101960E94940735
:10270000CE0101960E9403096EE271E0CE010196AE
:102710000E94F208CE0101960E949407CE01019614
:102720000E9403096EE271E0CE0101960E94F20858
:10273000CE0101960E949407CE0101960E940309E2
:10274000E6CE10926A0310926803E0918003F09144
:1027500081038091850390918603608101970E9497
:102760005B0A0E949C0464E670E080E090E00E94B6
:102770000D03C3C00E946C0360936F0370937003DA
:10278000809371039093720310926A03109269030D
:10279000BACE8111F092FB02809166038111A7CB22
:1027A000E090FB021092FB02CE0101960E94030909
:1027B000B1E0EB12B2CB80910603882319F081506F
:1027C000809306034090020350900303609004033B
:1027D00070900503F0E64F0EFAEE5F1E611C711C4F
:1027E0000E946C034616570668067906A8F40E94F4
:1027F0006C0360930203709303038093040390932C
:1028000005038091000390910103019690930103C9
:10281000809300030E949C044090FC025090FD02B3
:102820006090FE027090FF0228E5420E22E0521EE8
:10283000611C711C0E946C034616570668067906D7
:1028400050F40E946C036093FC027093FD0280932D
:10285000FE029093FF02E0917D03F0917E03808160
:10286000811105C080916803882309F483CF1093F8
:1028700068038081811158CB8091690381116ECBEF
:10288000E0917D03F0917E03808181114ACE0E9408
:102890006C03AB01BC0180916F0390917003A09118
:1028A0007103B09172038A519F4FAF4FBF4F84178E
:1028B0009507A607B70738F4E0917D03F0917E03F2
:1028C000808181113ECF0E946C03AB01BC018091DD
:1028D0006F0390917003A0917103B0917203845DB6
:1028E0009F44AF4FBF4F84179507A607B70708F45B
:1028F00028CF10936A031093680380916A0388239A
:1029000009F401CE6AE272E0CE0101960E94F2085B
:10291000CE0101960E949407CE0101960E94030900
:102920008091890390918A03089FB001099F700DDF
:10293000112463577C4FCE0101960E94E908CE0115
:1029400001960E949407CE0101960E94030980918E
:10295000890390918A03089FF001099FF00D1124CB
:10296000E859FC4F03A0F4A1E02D0995809189035B
:1029700090918A03089FF001099FF00D1124E859F6
:10298000FC4F83A98823B9F1F092C50403A4F4A5F0
:10299000E02D608170E090E080E04AE00E94460710
:1029A0001093C5042091890330918A03029FC001CE
:1029B000039F900D1124FC01EB56FC4F4F016CE777
:1029C00071E0CE0101960E94F208B401CE01019699
:1029D0000E940D08BC01CE0107960E94E908CE01B5
:1029E00007960E949407CE0107960E940309CE0124
:1029F00001960E9403098091890390918A03089FA0
:102A0000F001099FF00D1124E859FC4F83A594A50E
:102A10000E94400378CDCF93DF93C8EAD4E0639758
:102A2000CE010A960E940309CE0102960E94030974
:102A300083E0CB38D80799F788EA94E00E9403092D
:102A40008EEA94E0DF91CF910C940309BB274A30C2
:102A500031F4992322F4BDE2909581959F4F0C9417
:102A60003215BB27FB015527AA27880F991FAA1FDC
:102A7000A41710F0A41B83955051B9F7A05DAA3399
:102A800008F0A95DA193009779F7B111B193119264
:102A9000CB010C944B15DC01FC01672F719177235E
:102AA000E1F7329704C07C916D9370836291AE1709
:102AB000BF07C8F30895F999FECF92BD81BDF89A7A
:102AC000992780B50895262FF999FECF1FBA92BD98
:102AD00081BD20BD0FB6F894FA9AF99A0FBE0196FF
:102AE00008952F923F924F925F926F927F928F92B2
:102AF0009F92AF92BF92CF92DF92EF92FF920F938D
:102B00001F93CF93DF93CDB7DEB7CA1BDB0B0FB696
:102B1000F894DEBF0FBECDBF09942A883988488853
:102B20005F846E847D848C849B84AA84B984C884E9
:102B3000DF80EE80FD800C811B81AA81B981CE0FE0
:102B4000D11D0FB6F894DEBF0FBECDBFED010895C5
:102B5000A1E21A2EAA1BBB1BFD010DC0AA1FBB1FA1
:102B6000EE1FFF1FA217B307E407F50720F0A21B13
:102B7000B30BE40BF50B661F771F881F991F1A9480
:102B800069F760957095809590959B01AC01BD01AA
:102B9000CF010895EE0FFF1F0590F491E02D0994E9
:102BA0000F931F93CF93DF938230910510F482E04F
:102BB00090E0E091CA04F091CB0430E020E0B0E076
:102BC000A0E0309799F42115310509F44AC0281B7B
:102BD000390B24303105D8F58A819B816115710547
:102BE00089F1FB0193838283FE0111C040815181F1
:102BF0000281138148175907E0F04817590799F4E3
:102C0000109761F012960C93129713961C933296BC
:102C1000CF01DF91CF911F910F9108950093CA04C6
:102C20001093CB04F4CF2115310551F0421753070F
:102C300038F0A901DB019A01BD01DF01F801C1CF24
:102C4000EF01F9CF9093CB048093CA04CDCFFE015E
:102C5000E20FF31F81939193225031093983288326
:102C6000D7CF2091C8043091C904232B41F420917F
:102C70000801309109013093C9042093C8042091C0
:102C80000601309107012115310541F42DB73EB7FA
:102C900040910A0150910B01241B350BE091C804AF
:102CA000F091C904E217F307A0F42E1B3F0B28177D
:102CB000390778F0AC014E5F5F4F2417350748F0B5
:102CC0004E0F5F1F5093C9044093C80481939193A2
:102CD0009FCFF0E0E0E09CCFCF93DF930097E9F047
:102CE000FC01329713821282A091CA04B091CB04E6
:102CF000ED0130E020E01097A1F420813181820FB6
:102D0000931F2091C8043091C9042817390709F08E
:102D100061C0F093C904E093C804DF91CF91089596
:102D2000EA01CE17DF07E8F54A815B819E01411574
:102D30005105B1F7E901FB83EA8349915991C40F29
:102D4000D51FEC17FD0761F4808191810296840FF5
:102D5000951FE90199838883828193819B838A836C
:102D6000F0E0E0E012968D919C9113970097B9F5F1
:102D70002D913C911197CD010296820F931F2091C6
:102D8000C8043091C9042817390739F6309751F52E
:102D90001092CB041092CA04B093C904A093C80443
:102DA000BCCFD383C28340815181840F951FC81744
:102DB000D90761F44E5F5F4F88819981480F591F91
:102DC000518340838A819B819383828321153105BE
:102DD00009F0B0CFF093CB04E093CA049ECFFD017D
:102DE000DC01C0CF13821282D7CFB0E0A0E0EBEFBE
:102DF000F6E10C9473158C01009751F4CB010E94FD
:102E0000D0158C01C801CDB7DEB7E0E10C948F1569
:102E1000FC01E60FF71F9C0122503109E217F3076E
:102E200008F49DC0D901CD91DC911197C617D70741
:102E300098F0C530D10530F3CE0104978617970777
:102E400008F3C61BD70B2297C193D1936D937C9344
:102E5000CF010E946C16D6CF5B01AC1ABD0A4C01A3
:102E60008C0E9D1EA091CA04B091CB04512C412C14
:102E7000F12CE12C109731F58091C8049091C90490
:102E80008815990509F05CC04616570608F058C029
:102E90008091060190910701009741F48DB79EB78C
:102EA00040910A0150910B01841B950BE817F9071B
:102EB00008F055C0F093C904E093C804F901718388
:102EC0006083A0CF8D919C91119712966C90129770
:102ED00013967C901397A815B90559F56C0142E03B
:102EE000C40ED11CCA14DB0420F1AC014A195B09E1
:102EF000DA011296159780F06282738251834083C3
:102F0000D9016D937C93E114F10471F0D70113960C
:102F1000FC93EE93129776CF22968C0F9D1FF901AA
:102F200091838083F301EFCFF093CB04E093CA0445
:102F300069CF4816590608F42C017D01D3019ACFB8
:102F4000CB010E94D0157C01009749F0AE01B80179
:102F50000E94B717C8010E946C16870153CF10E07A
:102F600000E050CF81E090E0F8940C94C717FB018B
:102F7000DC0102C001900D9241505040D8F70895F5
:102F8000FB01DC0101900D920020E1F7089511E0B2
:102F9000CDE6D1E004C0FE010E94CA152196CE36CE
:082FA000D107C9F7F894FFCF37
:102FA80032000A040A040000CC048000000000007B
:102FB800D906AC0643078206A506920683060000DA
:102FC8000000B704F5014307420709070D0A006628
:102FD800756E63310066756E63320066756E6333B5
:102FE8000034416C69656A617573205265696B00CC
:102FF80044414241520066756E633700484559594D
:103008002044454600202020202020202020202069
:103018002020202020202020202020202000707325
:1030280069005761746572204D496E696D756D0050
:103038005761746572206D6158696D756D006C2FEC
:103048006D696E00466C6F77206D696E696D756D80
:103058000076616C0053656E736F7220477261620F
:103068000046617267657220506F7461746F005119
:1030780075696320416363657373004D454D4F5215
:10308800592053455421005B500020202020202047
:103098004D454E4955003C526573657420746F2048
:1030A80064656661756C743E005072657373207553
:1030B8007020746F2072657365740020446F6E65AC
:1030C8000020205B455849545D005B2D5D004D692B
:1030D8006E696D756D2057656C6C205761746572EB
:1030E80020004578657074696F6E5F536F75726301
:1030F800655F56696E2000427574746F6E5F45781F
:103108007465726E616C200057415445525F50528D
:10311800454153555245200057415445525F464C4E
:043128004F572000DD
:00000001FF
