:100000000C946E010C94BA170C9493170C949601EF
:100010000C9496010C9496010C9496010C94960104
:100020000C9496010C9496010C9496010C949601F4
:100030000C9496010C9496010C9496010C949601E4
:100040000C9449170C9496010C9496010C9496010B
:100050000C9496010C9496010C9496010C949601C4
:100060000C94E1170C949601AED580A83FD30040C4
:100070008D142002A1C8DA12817FD9F1DB40A4A639
:10008000AF00030C0F30333C3FC0C3CCCFF0F3FCC8
:10009000FF00000000240027002A000000000025C7
:1000A0000028002B00000000002300260029000487
:1000B000040404040404040202020202020303030F
:1000C0000303030102040810204080010204081009
:1000D00020010204081020000000080002010000B6
:1000E00003040700000000000000000000050720D6
:1000F00060000000000000005F0000000700070033
:10010000147F147F14242A7F2A1223130864623672
:10011000495620500008070300001C2241000041FE
:10012000221C002A1C7F1C2A08083E080800807038
:10013000300008080808080000606000201008046B
:10014000023E5149453E00427F40007249494946BE
:100150002141494D331814127F1027454545393C3C
:100160004A49493141211109073649494936464929
:1001700049291E000014000000403400000008144B
:1001800022411414141414004122140802015909C4
:10019000063E415D594E7C1211127C7F4949493619
:1001A0003E414141227F4141413E7F494949417F92
:1001B000090909013E414151737F0808087F004148
:1001C0007F41002040413F017F081422417F404091
:1001D00040407F021C027F7F0408107F3E41414166
:1001E0003E7F090909063E4151215E7F09192946D2
:1001F000264949493203017F01033F4040403F1FE8
:100200002040201F3F4038403F631408146303041C
:100210007804036159494D43007F4141410204087C
:100220001020004141417F0402010204404040404F
:1002300040000307080020545478407F2844443885
:100240003844444428384444287F385454541800CF
:10025000087E090218A4A49C787F0804047800444E
:100260007D40002040403D007F1028440000417F39
:1002700040007C047804787C0804047838444444C2
:1002800038FC1824241818242418FC7C08040408BA
:10029000485454542404043F44243C4040207C1CD3
:1002A0002040201C3C4030403C44281028444C90C6
:1002B00090907C4464544C44000836410000007720
:1002C0000000004136080002010204023C262326F9
:1002D0003C680019804000000019451C11241FBE15
:1002E000CFEFD8E0DEBFCDBF14E0A0E0B1E0E2ED9B
:1002F000FEE302C005900D92AC38B107D9F726E0B5
:10030000ACE8B4E001C01D92A138B207E1F711E0FA
:10031000CDE6D1E004C02197FE010E945F1DCC36DE
:10032000D107C9F70E948A190C945C1F0C94000035
:100330002091700581E0213208F044C080914C0585
:100340008111FCCF80916F0592E090934C0591E074
:1003500090934B059FEF90934A0510924905209387
:100360004805AFE4B5E0E8E2F5E090E0291331C0DC
:100370001092270590912705880F892B80932705D8
:1003800080912605813049F5109226058091270538
:100390008093BB008091BC0083FDF8CF85EC8093F7
:1003A000BC0080914C058230E1F380914A058F3F7B
:1003B000B1F080914A058032A1F080914A058033E6
:1003C00091F084E010924E051092700510924D0548
:1003D00008953D9131939F5FC9CF85EEE0CF80E0D6
:1003E000F1CF82E0EFCF83E0EDCFAF92BF92CF921B
:1003F000DF92EF92FF920F931F93CF93DF936C01E5
:100400007B018B01040F151FEB015E01AE18BF08C5
:10041000C017D10759F06991D601ED91FC91019077
:10042000F081E02DC6010995892B79F7C501DF918F
:10043000CF911F910F91FF90EF90DF90CF90BF90E1
:10044000AF900895FC01448155816081718189E6F6
:1004500096E00C94F501CF93DF9383E696E00E943B
:100460002202EC0142E050E06CE271E089E696E0A5
:100470000E94F5018C0F9D1FDF91CF910895089583
:1004800008950895833081F028F4813099F0823006
:10049000A9F008958730A9F08830C9F08430B1F40C
:1004A000809180008F7D03C0809180008F77809342
:1004B0008000089584B58F7784BD089584B58F7DBD
:1004C000FBCF8091B0008F778093B000089580912A
:1004D000B0008F7DF9CFCF93DF93282F30E0F90163
:1004E000E952FF4F8491F901ED53FF4FD491F90187
:1004F000E155FF4FC491CC23A1F081110E9442022B
:10050000EC2FF0E0EE0FFF1FEB55FF4FA591B491DC
:10051000EC91ED2381E090E009F480E0DF91CF9150
:10052000089580E090E0FACF1F93CF93DF93282FB8
:1005300030E0F901E952FF4F8491F901ED53FF4F8B
:10054000D491F901E155FF4FC491CC23A9F0162FA6
:1005500081110E944202EC2FF0E0EE0FFF1FE556E2
:10056000FF4FA591B4918FB7F894EC91111108C089
:10057000D095DE23DC938FBFDF91CF911F9108953B
:10058000DE2BF8CFCF93DF9390E0FC01ED53FF4FCC
:10059000249181559F4FFC0184918823D1F090E0F4
:1005A000880F991FFC01EF56FF4FA591B491FC01F4
:1005B000E556FF4FC591D49161110EC09FB7F894D5
:1005C0008C91E22FE0958E238C932881E223E8839F
:1005D0009FBFDF91CF9108958FB7F894EC91E22BF4
:1005E000EC938FBFF6CF8E50806480937C00809117
:1005F0007A00806480937A0080917A0086FDFCCF37
:10060000809178009091790008953FB7F894809197
:10061000110590911205A0911305B091140526B50E
:10062000A89B05C02F3F19F00196A11DB11D3FBF2A
:10063000BA2FA92F982F8827BC01CD01620F711DF9
:10064000811D911D42E0660F771F881F991F4A95F3
:10065000D1F708958F929F92AF92BF92CF92DF927F
:10066000EF92FF926B017C010E9405034B015C013C
:10067000C114D104E104F104B9F00E940503681922
:1006800079098A099B09683E73408105910580F3C9
:1006900021E0C21AD108E108F10888EE880E83E053
:1006A000981EA11CB11CE4CFFF90EF90DF90CF907B
:1006B000BF90AF909F908F900895CF93DF93EC0100
:1006C000E0919305F09194058081882359F0888109
:1006D0008F3F41F08F5F88836AE070E080E090E0B8
:1006E0000E942A03E0919505F09196058081882368
:1006F00069F08881882351F0815088836AE070E036
:1007000080E090E0DF91CF910C942A03DF91CF91AC
:1007100008952FB7F89460910D0570910E058091A2
:100720000F05909110052FBF0895E0919305F0916A
:10073000940580818823F9F0809183052091A30599
:100740003091A4058217130609F0ACF4909184054A
:10075000992389F09091850591110DC08F5F809349
:1007600083050E94890360938B0570938C058093A9
:100770008D0590938E05E0919505F0919605808109
:100780008823C9F0809183058230A8F09091840578
:10079000992389F09091850591110DC08150809326
:1007A00083050E94890360938B0570938C05809369
:1007B0008D0590938E05E0919705F09198058081C5
:1007C000882371F08091850581110AC00E948903F8
:1007D00060938B0570938C0580938D0590938E05A7
:1007E0000E948903AB01BC0180918B0590918C051F
:1007F000A0918D05B0918E0588559E49AF4FBF4F92
:1008000084179507A607B70768F4809185058111BD
:1008100009C0109280051092810581E080938305C4
:1008200010929105E0919305F091940580818111DA
:1008300007C0E0919505F09196058081882329F005
:100840001092840580918305089581E0809384054A
:10085000F9CF0895CF93DF93EC018D85882329F09C
:1008600081508D87DF91CF9108959C818E8198175B
:10087000C8F788896827E881F9810084F185E02D2F
:1008800042E0CE0109958C818F5F8C83EBCFDC0138
:10089000ED91FC910084F185E02D40E009940F93E7
:1008A0001F93CF938C01FC016483C085C60F6C2F0E
:1008B0006F700E9447046C2F62956F706061C80171
:1008C000CF911F910F910C944704FC01278126952D
:1008D00026952695621738F465832385620F677025
:1008E000606B0C94470408951F93CF93DF93EC0142
:1008F000142F8E81681718F4CE010E944F04612FC7
:10090000CE01DF91CF911F910C946504CF92DF92BD
:10091000EF92FF920F931F93CF93DF93EC01F62E8C
:10092000C42ED22E1D868F818695869586950817B2
:1009300010F00FEF080F1D2D011780F0412F6F2DC4
:10094000CE010E947404EF2CCE1430F06889CE01E1
:100950000E942A04E394F8CF1F5FEECF4D2D6F2D38
:10096000CE01DF91CF911F910F91FF90EF90DF901B
:10097000CF900C9474040F93CF93DF93C9E6D6E025
:100980001B861A8660E4CE010E9447040F810695FB
:100990000695069501504E81415020E060E0CE0161
:1009A0000E948604DF91CF910F9108952F923F927C
:1009B0004F925F926F927F928F929F92AF92BF926F
:1009C000CF92DF92EF92FF920F931F93CF93DF931B
:1009D00000D000D000D0CDB7DEB7DC011E962D913F
:1009E0003C912115310509F478C19E838D83F9016D
:1009F0003296649031964491E42EF12CB7E0EB0EE0
:100A0000F11C53E0F594E7945A95E1F7E9823196A9
:100A100054913196E491651748F08E2F90E0FC01D7
:100A2000E50FF11D6E171F060CF492C06D3031F505
:100A3000ED81FE81868181111BC081E090E02696C8
:100A40000FB6F894DEBF0FBECDBFDF91CF911F91DF
:100A50000F91FF90EF90DF90CF90BF90AF909F905D
:100A60008F907F906F905F904F903F902F90089560
:100A700060E08D819E810E944F04DFCF6A3009F0D3
:100A80002CC1AD81BE8116968C911697882321F0DA
:100A900060E0CD010E944F04ED81FE8101890E9D31
:100AA000E02C112465816E0D8485882349F027810F
:100AB0002695269526958E2D821B860F18162CF0CE
:100AC0008D819E810E946504B8CFAD81BE811B9649
:100AD0009C911B97890F87701B968C931B972E19DF
:100AE00015962C9315971E96ED91FC91309771F108
:100AF0003396E491F0E0379633E0F595E7953A9533
:100B0000E1F70E9F002D1124EFEFE20F0E0FED81A4
:100B1000FE81468141506481CF010E948604AD81EF
:100B2000BE811C968C911C97813009F086CF1B9654
:100B30006C911B97660F660F660F6F731A966C9316
:100B40001A976064CD010E94470477CF00E0DCCFA4
:100B500089010A5F1F4F651BED81FE8171855189F7
:100B6000759F502D11245C83F90154912F5F3F4FE5
:100B7000F9012491352F2230310508F070C06E9CA8
:100B8000C0016F9C900D1124689FF001699FF00DCA
:100B900011240E0F1F1F512CAD81BE811496BC91E4
:100BA000BA83ED81FE812580F585FB83862C912C0F
:100BB000AA24A394B12C312C8981381608F08BC05B
:100BC000412CAD81BE8151968C915197481608F009
:100BD0007BC0EB811D96EC93311002C0442051F094
:100BE000AD81BE8115964C9115974F5F6A81CD01FD
:100BF0000E947404D12CC12CC61408F058C0F8010E
:100C0000EC0DFD1D7490552061F0EA14FB0449F4CD
:100C1000E72DF0E0052C02C0F595E7950A94E2F780
:100C20007E2EED81FE818189823081F4442009F499
:100C30003AC072948FE07822E72DF0E0EF57FF4F33
:100C40007490672D8D819E810E942A04672D8D816D
:100C50009E810E942A048FEFC81AD80ACDCF477010
:100C600028E0522E541A411101C0512CF801612C78
:100C700030E020E0661631F04491240F311D63947A
:100C80003196F8CF600E712E711CF3016490E29ED4
:100C9000F001E39EF00DF29EF00D11248E0F9F1FC8
:100CA000080F191F79CFF72DFF707F2EC5CFD12CDC
:100CB000AC81DA1639F060E08D819E810E942A04B1
:100CC000D394F6CF43947DCF3394080D191DBFEF15
:100CD000AB1ABB0A71CF622DF3CE90E080E0AFCEAD
:100CE00085ED8093BC008091BC0084FDFCCF109208
:100CF0004C0508952091E904260F3327331F213234
:100D00003105ECF420914C05FC0190E080E02430AA
:100D100069F082E00895A091E9042191AC01475364
:100D20005B4FA40FB52FB11D2C930196861798F336
:100D30008091E904680F6093E90480E0089581E000
:100D400008950895E0911A0580911905E81730F487
:100D5000F0E0E755FB4F808190E008958FEF9FEF23
:100D6000089590911A05809119052FEF3FEF98177C
:100D700048F4E92FF0E0E755FB4F208130E09F5F1A
:100D800090931A05C90108958091190590911A054B
:100D9000891B990B0895CF92DF92EF92FF920F93E8
:100DA0001F93CF93DF937C01CB018A0120914D05E6
:100DB000222389F0EB016B01C40ED51ECC15DD0595
:100DC00069F06991D701ED91FC910190F081E02DDE
:100DD000C7010995F3CF642F0E947A06C801DF91FD
:100DE000CF911F910F91FF90EF90DF90CF900895DA
:100DF000CF93DF931F92CDB7DEB7698320914D0566
:100E00002223F9F020917005203258F021E030E0E3
:100E1000FC013383228390E080E00F90DF91CF913B
:100E2000089580914E05E82FF0E0E15BFA4F99813B
:100E300090838F5F80934E058093700581E090E0F2
:100E4000ECCF61E0CE0101960E947A06F7CF80E1F7
:100E50000E94F3029093920480939104813591054E
:100E60006CF080918C0481110EC0809195048F5F8D
:100E70008093950481E080938C04089580359105DA
:100E800011F010928C04089580911B0590911C051F
:100E900020919604211104C020919704222309F186
:100EA000181619062CF4019790931C0580931B05C6
:100EB00080911B0590911C05892B19F481E080938A
:100EC0008F048091000181110BC080911D05882342
:100ED00039F090918F04911103C0815080931D05CA
:100EE000089520911F054AE0249F90011124821744
:100EF00093073CF720918F042111E3CF0296909342
:100F00001C0580931B05DDCF88E28093250586E3D1
:100F10008093240585E08093230591E0909322053A
:100F20002CE020931F05909305018093210584E117
:100F30008093200510929D0410921E0508950E9432
:100F400022020C942B020F931F93CF93DF93EC019B
:100F5000062F142F8B89813120F4882329F0411129
:100F600003C00E9498011B8A8B89811112C08A8953
:100F700091E090934D0580936F0510924E0510926D
:100F8000700560E4111101C060E081E795E00E9406
:100F9000F806602F81E795E00E94F806123041F4D0
:100FA0008B898F5F8B8BDF91CF911F910F9108956C
:100FB0000E9498011B8AF7CF089590E080E0089581
:100FC0000F931F93CF93DF9300E815E0C1E0D0E0CB
:100FD0000D5E1F4F8091A3059091A405C817D907F6
:100FE0007CF480919F059091A0058C0F9D1F0E941D
:100FF000C21CD8019D96ED91FC9180832196E8CF8B
:10100000DF91CF911F910F91089590E080E00E94B1
:10101000C21C813039F061E090E080E00E94CA1C7F
:1010200081E0089580E008951F93CF93DF93EC0152
:10103000162F0E94C21C181749F0612FCE010E9482
:10104000CA1C81E0DF91CF911F91089580E0FACF13
:101050000F931F93CF93DF9300E815E0C1E0D0E03A
:101060000D5E1F4F8091A3059091A405C817D90765
:101070007CF4D8019D96ED91FC9180919F05909113
:10108000A00560818C0F9D1F0E9414082196E8CF57
:10109000DF91CF911F910F9108950F931F93CF93DD
:1010A000DF93EC0188819981009759F02A813B8177
:1010B0002617370730F081E0DF91CF911F910F9114
:1010C00008958B016F5F7F4F0E948A1E009759F031
:1010D000998388831B830A832C813D81232B59F7B5
:1010E000FC011082E8CF80E0E7CFEF92FF920F93F0
:1010F0001F93CF93DF936115710541F480E0DF9179
:10110000CF911F910F91FF90EF90089541155105D8
:10111000B1F07B01EC010C811D81040F151FB8019A
:101120000E944D08882351F3288139818C819D814B
:10113000B701820F931F0E94551F1D830C8381E00E
:10114000DECFCF93DF93EC0188819981009711F076
:101150000E94011E198218821D821C821B821A8223
:10116000DF91CF910895CF93DF93EC01FB010190C4
:101170000020E9F73197AF01461B570B0E94750815
:10118000811103C0CE010E94A108CE01DF91CF9151
:101190000895CF93DF93EC01FB0144815581608179
:1011A00071810E947508811103C0CE010E94A108BF
:1011B000CE01DF91CF910895EF92FF920F931F938D
:1011C000CF93DF93EC017B018A01BA010E944D08A5
:1011D00081110BC0CE010E94A108CE01DF91CF91F9
:1011E0001F910F91FF90EF9008951D830C83B7011D
:1011F000888199810E94551FF0CFFB01019000204A
:10120000E9F73197AF01461B570B0C94DC080F939D
:101210001F93CF93DF93CDB7DEB762970FB6F894E5
:10122000DEBF0FBECDBF8C01CB01F8011182108251
:1012300013821282158214824AE0BE016F5F7F4FD3
:101240000E945C1CBE016F5F7F4FC8010E94FD08B9
:1012500062960FB6F894DEBF0FBECDBFDF91CF917F
:101260001F910F9108950F931F93CF93DF93CDB7E5
:10127000DEB729970FB6F894DEBF0FBECDBF8C0145
:10128000862FF80111821082138212821582148235
:101290004AE0BE016F5F7F4F90E00E94981CBE0144
:1012A0006F5F7F4FC8010E94FD0829960FB6F89422
:1012B000DEBF0FBECDBFDF91CF911F910F9108957B
:1012C0000F931F93CF93DF93CDB7DEB7A2970FB6DF
:1012D000F894DEBF0FBECDBF8C01CB01BA01F8017F
:1012E0001182108213821282158214822AE0AE01CA
:1012F0004F5F5F4F0E94671CBE016F5F7F4FC80149
:101300000E94FD08A2960FB6F894DEBF0FBECDBFB7
:10131000DF91CF911F910F910895CF93DF93EC014F
:10132000FB018617970749F060817181611571058E
:1013300041F0448155810E94DC08CE01DF91CF91BC
:1013400008950E94A108F9CFFC0111821082138236
:101350001282158214820C948D09FC011182108274
:101360001382128215821482FB0101900020E9F79A
:101370003197AF01461B570B0C94DC08CF93DF93DA
:10138000EC016F3F11F460910501613069F030F0BC
:10139000623069F0CE01DF91CF9108956FE271E084
:1013A000CE010E94AD09F6CF64E371E0F9CF6FE39F
:1013B00071E0F6CFFC01808191810C94011E5F9257
:1013C0006F927F928F929F92AF92BF92CF92DF9255
:1013D000EF92FF920F931F93CF93DF93CDB7DEB7BA
:1013E0002C970FB6F894DEBF0FBECDBF4C015B014A
:1013F0003A01502E80E8E82E85E0F82EF701C3A0D0
:10140000D4A0B901CE0101960E94A409B301CE0176
:1014100007960E94A40983E18C9D80018D9D100D8B
:101420001124C80180589A4F6C01FC0196A285A234
:10143000BE01695F7F4FC80189559A4F0E948D098F
:10144000F601B6A6A5A655AABE016F5F7F4FC801DB
:1014500081559A4F0E948D09CE0107960E94DA09A4
:10146000CE0101960E94DA09F70183A194A10196A9
:1014700094A383A32C960FB6F894DEBF0FBECDBF06
:10148000DF91CF911F910F91FF90EF90DF90CF9060
:10149000BF90AF909F908F907F906F905F900895D6
:1014A000CF93DF9300D000D000D0CDB7DEB76AE491
:1014B00071E0CE0101960E94AD09CE0101960E9415
:1014C0009F07CE0101960E94DA096FE571E0CE0117
:1014D00001960E94AD09CE0101960E949F07CE01A0
:1014E00001960E94DA0926960FB6F894DEBF0FBE69
:1014F000CDBFDF91CF910895CF93DF9300D000D07F
:1015000000D0CDB7DEB76AE671E0CE0101960E9449
:10151000AD09CE0101960E949F07CE0101960E945F
:10152000DA0960E871E0CE0101960E94AD09CE01B2
:1015300001960E949F07CE0101960E94DA09269625
:101540000FB6F894DEBF0FBECDBFDF91CF910895E7
:10155000CF93DF9300D000D000D0CDB7DEB780911D
:101560001E05823018F081E080931E0561E971E06C
:10157000CE0101960E94AD09CE0101960E949F07FF
:10158000CE0101960E94DA0982E080937A0680916A
:101590001E056FE971E0811102C064EA71E0CE01BD
:1015A00001960E94AD09CE0101960E949F07CE01CF
:1015B00001960E94DA0981E080937A0626960FB69A
:1015C000F894DEBF0FBECDBFDF91CF910895CF93CA
:1015D000DF9300D000D000D0CDB7DEB780910501F9
:1015E000833018F082E08093050182E080937A06D0
:1015F0006FEFCE0101960E94BE09CE0101960E94B6
:101600009F07CE0101960E94DA0981E080937A0655
:1016100026960FB6F894DEBF0FBECDBFDF91CF91F7
:101620000895CF93DF9300D000D000D0CDB7DEB7C0
:10163000BC01CE0101960E94A40980919005811100
:1016400006C0CE0101960E9422020E942B02CE010A
:1016500001960E94DA0926960FB6F894DEBF0FBEF7
:10166000CDBFDF91CF91089520919F04222331F0C7
:1016700020919E04211102C00C94110B0895209119
:101680009F04222331F020919E04223011F40C9407
:10169000110B089520919F04222331F020919E0484
:1016A000213011F40C94110B089520919F04211105
:1016B0000C94110B0895CF93DF9300D000D000D08D
:1016C000CDB7DEB720919F042223A9F020919E047C
:1016D000211111C0BC01CE0101960E94A409809184
:1016E0009005811104C0CE0101960E942202CE0114
:1016F00001960E94DA0926960FB6F894DEBF0FBE57
:10170000CDBFDF91CF910895CF93DF9300D000D06C
:1017100000D0CDB7DEB780912205833018F083E08A
:1017200080932205809122056AEA71E0882361F0A6
:1017300062EB71E0813041F060EC71E0823021F0C9
:10174000833071F46FEC71E0CE0101960E94AD0917
:10175000CE0101960E949F07CE0101960E94DA09F0
:1017600026960FB6F894DEBF0FBECDBFDF91CF91A6
:1017700008951F93CF93DF93CDB7DEB762970FB66F
:10178000F894DEBF0FBECDBF2091830530E02F5F00
:101790003F4F13E1129FF001139FF00D1124E05809
:1017A000FA4F25A9211144C0BC0182E080937A063A
:1017B000CE010D960E940709BE01635F7F4FCE01E7
:1017C00007960E94A40966ED73E0CE0107960E9479
:1017D000B308BC01CE0101960E94A409CE01019676
:1017E0000E942202CE0101960E94DA09CE010796DC
:1017F0000E94DA09CE010D960E94DA0981E08093F9
:101800007A068091830590E00196189FB001199F98
:10181000700D112461557A4FCE0101960E94A409E2
:10182000CE0101960E949F07CE0101960E94DA091F
:1018300062960FB6F894DEBF0FBECDBFDF91CF9199
:101840001F910895CF92DF92EF92FF92CF93DF9393
:1018500000D000D000D0CDB7DEB720912405809114
:101860002505821720F08FEF820F8093250530E049
:10187000AFEFB3E00E94501DC12CD12C7601CA9469
:10188000A70196010E94D81CBA01A901CE010196B8
:101890000E946009CE0101960E949F07CE01019629
:1018A0000E94DA092091250530E0AFEFB3E00E94F5
:1018B000501DA70196010E94D81CC9010E94B90BB6
:1018C00026960FB6F894DEBF0FBECDBFDF91CF9145
:1018D000FF90EF90DF90CF900895CF92DF92EF923C
:1018E000FF92CF93DF9300D000D000D0CDB7DEB70A
:1018F0002091250580912405281720F081E0820F92
:101900008093240530E0AFEFB3E00E94501DC12C5E
:10191000D12C7601CA94A70196010E94D81CBA0165
:10192000A901CE0101960E946009CE0101960E9494
:101930009F07CE0101960E94DA092091240530E02C
:10194000AFEFB3E00E94501DA70196010E94D81C82
:10195000C9010E94B90B26960FB6F894DEBF0FBEE0
:10196000CDBFDF91CF91FF90EF90DF90CF900895A2
:101970001F93CF93DF9300D000D000D0CDB7DEB758
:1019800080911F05811103C081E080931F05809124
:101990001F051AE0819FC001112490931C058093BC
:1019A0001B056FED71E0CE0101960E94AD09CE01DD
:1019B00001960E949F07CE0101960E94DA0964EF0A
:1019C00071E0CE0101960E94AD09CE0101960E9400
:1019D0009F07CE0101960E94DA0980911F05819F21
:1019E000C00111240E94B90B26960FB6F894DEBFF1
:1019F0000FBECDBFDF91CF911F910895CF92DF929F
:101A0000EF92FF921F93CF93DF93CDB7DEB76E9720
:101A10000FB6F894DEBF0FBECDBF40E060E089E6B0
:101A200096E00E94740486E00E946B0221E0892BFC
:101A300009F420E020937D0582E00E946B0221E002
:101A4000892B09F420E020937E0584E00E946B023C
:101A500021E0892B09F420E020937F058CE00E948F
:101A60006B0221E0892B09F420E02093A8048BE08D
:101A70000E946B0221E0892B09F420E02093A70447
:101A80008AE00E946B0221E0892B09F420E0209378
:101A9000A60481E10E94F3029093A5048093A4041C
:101AA000C090A004D090A104E090A204F090A30400
:101AB00020E6C20E2AEED21EE11CF11C0E94890310
:101AC000C616D706E806F906B8F40E9489036093A3
:101AD000A0047093A1048093A2049093A3040E9495
:101AE000BB0481E080939F0410929E0480919D042A
:101AF000811102C00E944407C0909904D0909A04BA
:101B0000E0909B04F0909C0488EEC80E83E0D81E01
:101B1000E11CF11C0E948903C616D706E806F906E7
:101B2000C8F50E9489036093990470939A04809386
:101B30009B0490939C0481E080939F0480917F0597
:101B4000882371F08091980481110AC080919E04CD
:101B5000823008F039C18F5F80939E040E94BB04DD
:101B600080919704882319F0815080939704809185
:101B70009604882319F081508093960480919504EF
:101B8000809394041092950480919D04813011F407
:101B90000E9444070E942707809198048093930431
:101BA00040E060E089E696E00E947404E0919705C9
:101BB000F09198058081811105C080919205811175
:101BC000109292058081811105C080918005882343
:101BD00009F4F7C381E0809380058091850588230F
:101BE00021F0808181111092910580818111EFC0D7
:101BF00080918105811105C1E0919705F0919805CB
:101C000080818111C7C30E948903AB01BC0180910F
:101C1000870590918805A0918905B0918A058A5E13
:101C20009C4FAF4FBF4F84179507A607B70738F4EF
:101C3000E0919705F091980580818111B1C30E94D0
:101C40008903AB01BC018091870590918805A09123
:101C50008905B0918A05845D9F44AF4FBF4F8417BB
:101C60009507A607B70708F49BC381E08093820518
:101C70008093800580918205882309F49BC180911F
:101C80009105811105C081E0809391050E94BB04FC
:101C900064E572E0CE0101960E94AD09CE01019685
:101CA0000E949F07CE0101960E94DA098091A1054A
:101CB0009091A20513E1189FB001199F700D112496
:101CC00069557A4FCE0101960E94A409CE01019672
:101CD0000E949F07CE0101960E94DA098091A1051A
:101CE0009091A205189FF001199FF00D1124E05862
:101CF000FA4F05A0F6A1E02D09958091A1059091DC
:101D0000A205189FF001199FF00D1124E058FA4F19
:101D100085A9882309F447C082E080937A0605A448
:101D2000F6A5E02D6081CE0101960E943309BE0127
:101D30006F5F7F4FCE0107960E94A40966ED73E0A6
:101D4000CE0107960E94B308BC01CE010D960E94F9
:101D5000A409CE010D960E942202CE010D960E948A
:101D6000DA09CE0107960E94DA09CE0101960E9497
:101D7000DA0981E080937A068091A1059091A2050D
:101D8000189FB001199F700D112461557A4FCE0133
:101D900001960E94A409CE0101960E949F07CE01E0
:101DA00001960E94DA098091A1059091A20523E194
:101DB000289FF001299FF00D1124E058FA4F85A5C6
:101DC00096A50E945D03F6C010929E04C9CE0E94A3
:101DD0008903AB01BC018091870590918805A09192
:101DE0008905B0918A0588579C4EAF4FBF4F841725
:101DF0009507A607B70708F0FBCE809182058111F1
:101E0000F7CE80919105811105C081E08093910505
:101E10000E94BB040E948903AB01BC01809187052D
:101E200090918805A0918905B0918A058A56964EB1
:101E3000AF4FBF4F84179507A607B70708F423C114
:101E400081E08093810580938005E0919705F09172
:101E500098058081811105C080918105882309F44E
:101E6000A9C040E060E089E696E00E94740481E049
:101E700080937A060E9495032091A3053091A405D2
:101E8000821713066CF50E949503682FCE01079602
:101E90000E94330962E172E0CE0101960E94AD0911
:101EA000BE01695F7F4FCE0101960E94C9086FEAAB
:101EB00072E00E94B308BC01CE010D960E94A409F5
:101EC000CE010D960E949F07CE010D960E94DA0961
:101ED000CE0101960E94DA09CE0107960E94DA0926
:101EE00080918505882309F455C11092860580915B
:101EF0009E0581116BC10E94950390E0019613E14C
:101F0000189FB001199F700D112469557A4FCE01A9
:101F100001960E94A409CE0101960E949F07CE015E
:101F200001960E94DA09809185058111B9C10E944C
:101F300095032091A3053091A40582171306BCF1E7
:101F400040E060E089E696E00E94740482E08093BD
:101F50007A066EE271E0CE0101960E94AD09CE01D3
:101F600001960E949F07CE0101960E94DA096BE458
:101F700072E0CE0101960E94AD09CE0101960E9449
:101F80009F07CE0101960E94DA098091850588237A
:101F900071F01092810510928205109291050E94B5
:101FA000BB0440E060E089E696E00E94740481E0B2
:101FB00080937A0680918105811105C090918205F8
:101FC000992309F40DC291E09093900581110BC201
:101FD00080918205811107C2109298048091930428
:101FE000882309F403C281E080939F046EE271E0CC
:101FF000CE0101960E94AD09CE0101960E949F0775
:10200000CE0101960E94DA096EE271E0CE010196DE
:102010000E94AD09CE0101960E949F07CE01019654
:102020000E94DA096EE271E0CE0101960E94AD09CC
:10203000CE0101960E949F07CE0101960E94DA0907
:102040006EE271E0CE0101960E94AD09CE010196CB
:102050000E949F07CE0101960E94DA096EE271E0AC
:10206000CE0101960E94AD09CE0101960E949F0704
:10207000CE0101960E94DA0940E060E089E696E030
:102080000E947404B3C1E0919705F0919805808196
:10209000882309F4D5CE80918505882309F451C0A1
:1020A0000E94950390E0019623E1289FF001299F6B
:1020B000F00D1124E058FA4F05A4F6A5E02D20916B
:1020C0009F053091A0056081820F931F0E94140824
:1020D00081E080937A060E9495032091A3053091B8
:1020E000A405821713066CF50E949503682FCE0194
:1020F00007960E94330962E172E0CE0101960E94C8
:10210000AD09BE01695F7F4FCE0101960E94C908EB
:102110006FEA72E00E94B308BC01CE010D960E94E6
:10212000A409CE010D960E949F07CE010D960E9434
:10213000DA09CE0101960E94DA09CE0107960E94C3
:10214000DA0980919205811108C08091850591E09E
:10215000892780938505909392050E94950320918D
:10216000A3053091A4058217130669F41092800527
:102170001092810581E0809383051092850510926D
:10218000910580937A0662E870E080E090E00E941A
:102190002A035BCE0E9495032091A3053091A405EC
:1021A000821713060CF0A1CE81E08093860565E1CD
:1021B00072E0CE0101960E94AD09CE0101960E9407
:1021C0009F07CE0101960E94DA0991CE0E949503E5
:1021D0002091A3053091A4052150310982171306DF
:1021E00009F089CE60E272E0CE0101960E94AD094D
:1021F000CE0101960E949F07CE0101960E94DA0946
:102200006EE271E0CE0101960E94AD09CE01019609
:102210000E949F07CE0101960E94DA0980918505F0
:10222000882309F484CE63E372E0CE0101960E9414
:10223000AD09CE0101960E949F07CE0101960E9432
:10224000DA09E0919305F09194058081882309F4DF
:102250006ECE82E080937A0665E472E0CE0101964C
:102260000E94AD09CE0101960E949F07CE01019602
:102270000E94DA0911E010937A06E0919C05F09132
:102280009D05099560ED77E080E090E00E942A03CB
:10229000809185058127809385050E94BB0447CEE8
:1022A00080919205811143CE8091830590E0019643
:1022B000189FF001199FF00D1124E058FA4F05A066
:1022C000F6A1E02D099582E080937A06809183053E
:1022D00090E00196189FF001199FF00D1124E0582D
:1022E000FA4F85A9882309F444C005A4F6A5E02D7A
:1022F0006081CE0101960E943309BE016F5F7F4F5E
:10230000CE0107960E94A40966ED73E0CE01079600
:102310000E94B308BC01CE010D960E94A409CE0113
:102320000D960E942202CE010D960E94DA09CE017E
:1023300007960E94DA09CE0101960E94DA0981E02F
:1023400080937A068091830590E00196189FB001F2
:10235000199F700D112461557A4FCE0101960E948C
:10236000A409CE0101960E949F07CE0101960E940A
:10237000DA098091830590E0019623E1289FF0011E
:10238000299FF00D1124E058FA4F85A596A50E94CB
:102390005D03CDCD80918205882309F40BCE33CC2B
:1023A0001092820510928005109291050E942808D3
:1023B0000E94BB0464E670E080E090E00E942A0383
:1023C00059CC0E9489036093870570938805809398
:1023D000890590938A051092820510928105EACDB5
:1023E00010929005F5CD81E08093980480919F0430
:1023F000882309F480C180919E04813009F0F6C1E0
:102400006091A80470E0CE0107960E94070968E574
:1024100072E0CE0101960E94AD09BE01695F7F4F57
:10242000CE0101960E94C908BC01CE010D960E9402
:10243000A409CE010D960E944A0BCE010D960E9472
:10244000DA09CE0101960E94DA09CE0107960E94B0
:10245000DA096091A70470E0CE0107960E9407098F
:102460006CE672E0CE0101960E94AD09BE01695F83
:102470007F4FCE0101960E94C908BC01CE010D9686
:102480000E94A409CE010D960E944A0BCE010D9622
:102490000E94DA09CE0101960E94DA09CE01079660
:1024A0000E94DA096091A60470E0CE0107960E94AE
:1024B000070961E872E0CE0101960E94AD09BE01F4
:1024C000695F7F4FCE0101960E94C908BC01CE0111
:1024D0000D960E94A409CE010D960E944A0BCE01D2
:1024E0000D960E94DA09CE0101960E94DA09CE010A
:1024F00007960E94DA096091910470919204CE01CE
:102500000D960E94070960919404CE0107960E94DF
:10251000330962E972E0CE0101960E94AD09BE0165
:10252000695F7F4FCE0101960E94C9086AE972E097
:102530000E94B308BE01635F7F4F0E94C9086DE926
:1025400072E00E94B308BC01CE0143960E94A40928
:10255000CE0143960E944A0BCE0143960E94DA09AF
:10256000CE0101960E94DA09CE0107960E94DA098F
:10257000CE010D960E94DA096091900470E0CE01C0
:102580000D960E9407096091A4047091A504CE01E4
:1025900007960E9407096FE972E0CE0101960E943A
:1025A000AD09BE01695F7F4FCE0101960E94C90847
:1025B0006BEA72E00E94B308BE01635F7F4F0E9426
:1025C000C9086EEA72E00E94B308BC01CE014396CE
:1025D0000E94A409CE0143960E944A0BCE01439665
:1025E0000E94DA09CE0101960E94DA09CE0107960F
:1025F0000E94DA09CE010D960E94DA0960911D054C
:10260000CE0107960E94330961EB72E0CE0101967C
:102610000E94AD09BE01695F7F4FCE0101960E9405
:10262000C908BC01CE010D960E94A409CE010D96E9
:102630000E944A0BCE010D960E94DA09CE01019646
:102640000E94DA09CE0107960E94DA0960911F05FF
:102650002AE0629FB0011124CE0143960E9407092F
:1026600060911B0570911C05CE010D960E94070913
:1026700060918F0470E0CE0101960E940709BE01AF
:102680006F5F7F4FCE0107960E94A40962EC72E053
:10269000CE0107960E94B308BE01635F7F4F0E9480
:1026A000C9086CEC72E00E94B308BE016D5E7F4FFA
:1026B0000E94C90861EF73E00E94B308BC01CE011B
:1026C00049960E94A409CE0149960E944A0BCE0168
:1026D00049960E94DA09CE0107960E94DA09CE01D6
:1026E00001960E94DA09CE010D960E94DA09CE0108
:1026F00043960E94DA0990912305809194049817DB
:1027000060F480911E05811104C080910001811147
:1027100004C080918E048111F0C0109290048091C9
:102720009604882309F406C18091A4049091A5041D
:10273000C3970CF4DAC26EE271E0CE0101960E94FA
:10274000AD09CE0101960E944A0BCE0101960E946E
:10275000DA0980919004C090A404D090A50481115E
:1027600018C02091250530E0AFEFB3E00E94501D66
:102770002FEF30E040E050E00E94D81CC6010D2C45
:10278000000CAA0BBB0B281739074A075B070CF094
:10279000D8C00D2C000CEE08FF082091240530E075
:1027A000AFEFB3E00E94501D2FEF30E040E050E06B
:1027B0000E94D81CC216D306E406F5060CF4D6C057
:1027C00067E073E0CE0101960E94AD09CE0101964B
:1027D0000E94340BCE0101960E94DA0981E08093B9
:1027E00000018091200580931D05C0C0823009F052
:1027F00082CF6091A8046F5FCE0107960E94BE0948
:102800006EEC72E0CE0101960E94AD09BE01695FD7
:102810007F4FCE0101960E94C908BC01CE010D96E2
:102820000E94A409CE010D960E943F0BCE010D9689
:102830000E94DA09CE0101960E94DA09CE010796BC
:102840000E94DA09809100016FE971E0811102C0F4
:1028500064EA71E0CE0107960E94AD0963ED72E073
:10286000CE0101960E94AD09BE01695F7F4FCE0186
:1028700001960E94C908BC01CE010D960E94A409D0
:10288000CE010D960E943F0BCE010D960E94DA09F3
:10289000CE0101960E94DA09CE0107960E94DA095C
:1028A00080911E056FE971E0811102C064EA71E058
:1028B000CE0107960E94AD0963EE72E0CE0101964B
:1028C0000E94AD09BE01695F7F4FCE0101960E9453
:1028D000C908BC01CE010D960E94A409CE010D9637
:1028E0000E943F0BCE010D960E94DA09CE0101969F
:1028F0000E94DA09CE010796FCCE62EF72E0CE01AB
:1029000001960E94AD09CE0101960E94340BCE01C2
:1029100001960E94DA0981E080939004809120055D
:1029200080931D0580911E05882309F4FDCE109229
:102930000001FACE809197048111F6CE10928E0498
:10294000F3CE6AEF72E0CE0101960E94AD09CE018E
:1029500001960E94340BCE0101960E94DA0981E0B3
:10296000809390041092000180938E048091A704BC
:10297000811117C081E08093900410920001809132
:102980008D0481110EC060E373E0CE0101960E94B8
:10299000AD09CE0101960E945B0BCE0101960E940B
:1029A000DA098091A604882309F400C266E473E082
:1029B000CE0101960E94AD09CE0101960E945B0BEB
:1029C000CE0101960E94DA091091220511119EC1D3
:1029D0006EE473E0CE0101960E94AD09CE0101962E
:1029E0000E94340BCE0101960E94DA0960911D0508
:1029F0006111E2C11092900468E673E0CE01019685
:102A00000E94AD09CE0101960E94340BCE010196C1
:102A10000E94DA0980911B0590911C051816190671
:102A20000CF008C260911F052AE0629FB0011124DA
:102A3000681B790BCE010D960E94070980918F04C7
:102A40006EE072E0811102C06EE271E0CE0101968B
:102A50000E94AD09BE016F5F7F4FCE0107960E94B5
:102A6000A4096BE873E0CE0107960E94B308BE018B
:102A7000635F7F4F0E94C90866E873E00E94B30855
:102A8000BC01CE0143960E94A409CE0143960E9448
:102A9000340BCE0143960E94DA09CE0107960E94BC
:102AA000DA09CE0101960E94DA09CE010D960E9444
:102AB000DA0980919004882351F0809105018130DA
:102AC00009F4D2C108F4C7C1823009F4D2C182E04E
:102AD00080937A0660919604662309F4CDC1CE01F5
:102AE00007960E9433096BEA73E0CE0101960E94BB
:102AF000AD09BE01695F7F4FCE0101960E94C908F2
:102B00006EE774E00E94B308BC01CE010D960E94EE
:102B1000A409CE010D960E94340BCE010D960E94A1
:102B2000DA09CE0101960E94DA09CE0107960E94C9
:102B3000DA0961E088E00E949402609197046623BC
:102B400009F49CC1CE0107960E94330961EB73E042
:102B5000CE0101960E94AD09BE01695F7F4FCE0193
:102B600001960E94C9086EE774E00E94B308BC0198
:102B7000CE010D960E94A409CE010D960E94340B41
:102B8000CE010D960E94DA09CE0101960E94DA0963
:102B9000CE0107960E94DA0961E089E00E94940262
:102BA00081E080937A0680911B0590911C05892B0A
:102BB00021F080911D05811163C1809197048111DD
:102BC0005FC18091960481115BC16EE271E0CE011C
:102BD00001960E94AD09CE0101960E94340BCE01F0
:102BE00001960E94DA0982E080937A0667EB73E02F
:102BF000CE0101960E94AD09CE0101960E94340BD0
:102C0000CE0101960E94DA0911E010937A0661E084
:102C10008DE00E94940210938D0480919E04811196
:102C200054C06EE271E0CE0101960E94AD09CE0162
:102C300001960E94550BCE0101960E94DA096EE2C0
:102C400071E0CE0101960E94AD09CE0101960E946D
:102C5000550BCE0101960E94DA096EE271E0CE01B9
:102C600001960E94AD09CE0101960E94550BCE013E
:102C700001960E94DA096EE271E0CE0101960E948F
:102C8000AD09CE0101960E94550BCE0101960E941E
:102C9000DA096EE271E0CE0101960E94AD09CE0123
:102CA00001960E94550BCE0101960E94DA096EE250
:102CB00071E0CE0101960E94AD09CE0101960E94FD
:102CC000550BCE0101960E94DA0910929F046E9670
:102CD0000FB6F894DEBF0FBECDBFDF91CF911F912D
:102CE000FF90EF90DF90CF90089568E173E0CE0100
:102CF00001960E94AD09CE0101960E944A0BCE01B9
:102D000001960E94DA091092900430CE113009F534
:102D100066E573E0CE0101960E94AD09CE010196F1
:102D20000E94340BCE0101960E94DA0980912005A1
:102D300080931D051093000180911F052AE0829F5A
:102D4000C001112490931C0580931B0510928F04E1
:102D50004DCE1230A1F465EC71E0CE0101960E94D7
:102D6000AD09CE0101960E94340BCE0101960E945E
:102D7000DA0981E0809390041092000137CE13307D
:102D800009F034CE64ED71E0CE0101960E94AD09E8
:102D9000CE0101960E94340BCE0101960E94DA0901
:102DA0001092900481E08093000120CE8091220552
:102DB000833009F01BCEDDCFCE010D960E94330982
:102DC000809100016EE271E0811102C06AE072E060
:102DD000CE0101960E94AD09BE016F5F7F4FCE010B
:102DE00007960E94A4096FE773E0CE0107960E9440
:102DF000B308BE01635F7F4F0E94C90866E873E0B5
:102E00000E94B308BC01CE0143960E94A409CE01E2
:102E100043960E94340BCE0143960E94DA09CE01FC
:102E200007960E94DA09CE0101960E94DA09CE01C6
:102E30000D96EECD65E973E0CE0101960E94AD09D5
:102E4000CE0101960E94340BCE0101960E94DA0950
:102E5000109290042ECE809121059091A804992380
:102E600029F08093970433CE8091210580939604B6
:102E70002ECE80912105F5CF60E05CCE60E08DCE56
:102E800010928D0460E08DE00E949402C6CE0E94F4
:102E9000471F1F920F920FB60F9211242F933F934B
:102EA0008F939F93AF93BF9380910D0590910E05E3
:102EB000A0910F05B091100530910C0523E0230F70
:102EC0002D3758F50196A11DB11D20930C05809357
:102ED0000D0590930E05A0930F05B09310058091FA
:102EE000110590911205A0911305B091140501965A
:102EF000A11DB11D8093110590931205A093130598
:102F0000B0931405BF91AF919F918F913F912F91F5
:102F10000F900FBE0F901F90189526E8230F029672
:102F2000A11DB11DD2CF1F920F920FB60F92112487
:102F30002F933F934F935F936F937F938F939F93C1
:102F4000AF93BF93EF93FF93E0910301F0910401DE
:102F50000995FF91EF91BF91AF919F918F917F91D3
:102F60006F915F914F913F912F910F900FBE0F90F6
:102F70001F9018951F920F920FB60F9211242F9346
:102F80003F934F935F936F937F938F939F93AF93F1
:102F9000BF93EF93FF93E0910101F0910201099536
:102FA000FF91EF91BF91AF919F918F917F916F9121
:102FB0005F914F913F912F910F900FBE0F901F90F7
:102FC00018951F920F920FB60F9211242F933F93D3
:102FD0004F935F936F937F938F939F93AF93BF9321
:102FE000EF93FF938091B900887F803609F44AC03F
:102FF000F0F5883209F4A7C018F5803109F49BC0B8
:10300000B8F4882309F4F9C0883009F494C0FF911A
:10301000EF91BF91AF919F918F917F916F915F9150
:103020004F913F912F910F900FBE0F901F901895C9
:10303000883109F488C0803251F780934A0514C062
:10304000803409F49DC040F48033B9F38833F9F635
:1030500080934A0585ECB0C0803509F485C0883579
:1030600009F496C0883499F60E947006D0CF88394A
:1030700009F48CC038F5883729F050F4883611F0FF
:10308000803729F683E080934C0510920B0557C0DA
:10309000883809F47BC0803919F0803809F0B7CF3F
:1030A00080910B05803208F071C0E0910B0581E042
:1030B0008E0F80930B058091BB00F0E0E551FB4F34
:1030C00080833DC0803B39F0E0F4803A09F479C058
:1030D000883A09F09CCF84E080934C051092EA0472
:1030E0001092E904E0911705F09118050995809177
:1030F000E90481110FC081E08093E9041092C904B2
:1031000009C0803C09F4A6CF883C09F4A3CF883BD2
:1031100009F07DCFE091EA0481E08E0F8093EA040C
:10312000F0E0E753FB4F80818093BB009091EA046D
:103130008091E90429C0809127058093BB0085EC2C
:103140008093BC0064CF9091490580914805981701
:1031500058F5E091490581E08E0F80934905F0E034
:10316000E85DFA4F8081E9CFE091490581E08E0F5B
:10317000809349058091BB00F0E0E85DFA4F8083C1
:1031800090914905809148059817C8F285E8D8CFF5
:10319000E091490581E08E0F809349058091BB0045
:1031A000F0E0E85DFA4F808380914B0581115CCFA0
:1031B00081E08093260584EA8093BC0010924C0540
:1031C00026CF85EC8093BC0010924C0580910B05B6
:1031D000803230F4E0910B05F0E0E551FB4F1082B6
:1031E00060910B0570E0E0911505F09116058BEEEE
:1031F00094E0099510920B050ACF10924A0534CF3E
:10320000CF93DF93109274051092730588EE93E0CC
:10321000A0E0B0E08093750590937605A0937705C4
:10322000B093780580E191E09093720580937105E9
:1032300010926C0610926B0610927506109276062C
:10324000109278061092770610927906C1E0C0932A
:103250007A0682E291E090936A06809369066FEBAA
:1032600073E083E696E00E94AD091092800510920B
:10327000810510928205C0938305109284051092F7
:1032800085051092860510928F0510929005109278
:1032900091051092920510929B0510929E058AE06E
:1032A00090E09093A00580939F0581E090E090933B
:1032B000A2058093A10582E090E09093A4058093FD
:1032C000A305D0E0C0E06EE271E0CE0189559A4FCF
:1032D0000E94AD096EE271E0CE0181559A4F0E94C5
:1032E000AD096396CE3BD10571F78FE795E09093DA
:1032F0009405809393058EE795E0909396058093CF
:1033000095058DE795E09093980580939705DF915B
:10331000CF910895CF93DF93CDB7DEB768970FB6FF
:10332000F894DEBF0FBECDBF789484B5826084BDB3
:1033300084B5816084BD85B5826085BD85B58160B9
:1033400085BD80916E00816080936E001092810037
:1033500080918100826080938100809181008160F2
:1033600080938100809180008160809380008091B3
:10337000B10084608093B1008091B000816080933F
:10338000B00080917A00846080937A0080917A0006
:10339000826080937A0080917A00816080937A00C5
:1033A00080917A00806880937A001092C10068ED65
:1033B00073E0CE0101960E94AD096CED73E0CE0181
:1033C00007960E94AD0900E09E012F5F3F4FAE01BE
:1033D000495F5F4F65E275E082E29CE00E94DF0991
:1033E000CE0107960E94DA09CE0101960E94DA0901
:1033F00068ED73E0CE0101960E94AD0963EF73E0C2
:10340000CE0107960E94AD099E012F5F3F4FAE018E
:10341000495F5F4F64E275E08DE69CE00E94DF0942
:10342000CE0107960E94DA09CE0101960E94DA09C0
:103430006AE074E0CE0101960E94AD0960E174E09B
:10344000CE0107960E94AD0901E09E012F5F3F4F1C
:10345000AE01495F5F4F63E275E08FE392E00E9447
:10346000DF09CE0107960E94DA09CE0101960E947B
:10347000DA096EE271E0CE0101960E94AD0962E2C6
:1034800074E0CE0107960E94AD099E012F5F3F4F69
:10349000AE01495F5F4F62E275E084E89BE00E9405
:1034A000DF09CE0107960E94DA09CE0101960E943B
:1034B000DA096CE074E0CE0101960E94AD0967E381
:1034C00074E0CE0107960E94AD099E012F5F3F4F29
:1034D000AE01495F5F4F61E275E080E59AE00E94CE
:1034E000DF09CE0107960E94DA09CE0101960E94FB
:1034F000DA0967E873E0CE0101960E94AD0966E43F
:1035000074E0CE0107960E94AD099E012F5F3F4FE8
:10351000AE01495F5F4F60E275E08CE79AE00E9480
:10352000DF09CE0107960E94DA09CE0101960E94BA
:10353000DA0967E873E0CE0101960E94AD0968E5FB
:1035400074E0CE0107960E94AD0900E09E012F5F56
:103550003F4FAE01495F5F4F6FE175E088EB9CE044
:103560000E94DF09CE0107960E94DA09CE0101967A
:103570000E94DA096EE271E0CE0101960E94AD0967
:1035800068E674E0CE0107960E94AD099E012F5FA8
:103590003F4FAE01495F5F4F6EE175E088EA9AE008
:1035A0000E94DF09CE0107960E94DA09CE0101963A
:1035B0000E94DA096EE271E0CE010D960E94AD091B
:1035C0006AE774E0CE0143960E94AD09E090A10540
:1035D000F090A205BE01635F7F4FCE0107960E9467
:1035E000A409BE016D5E7F4FCE0101960E94A40921
:1035F00083E18E9D80018F9D100D1124C80180589C
:103600009A4F7C0187EE9AE0F70196A385A3BE014D
:103610006F5F7F4FC80189559A4F0E948D0985E0E1
:1036200091E0F70196A785A715AABE01695F7F4FB4
:10363000C80181559A4F0E948D09CE0101960E94C2
:10364000DA09CE0107960E94DA09CE0143960E945C
:10365000DA09CE010D960E94DA0984E897E090938A
:103660009D0580939C0581E080939E0510921A052C
:103670001092190510924E051092700510924C058B
:1036800080934B051092260561E082E10E9494022E
:1036900061E083E10E9494028091B9008E7F809363
:1036A000B9008091B9008D7F8093B90088E4809340
:1036B000B80085E48093BC0080E492E09093180504
:1036C0008093170581E492E0909316058093150589
:1036D00082E08093B80010927C068CE380937B0696
:1036E00010926D0610926E06E1EDF2E085919491D4
:1036F000E82EE3EDF2E0F490E4EDF2E0E491E09303
:103700006F06E5EDF2E0E491E0937006E6EDF2E09D
:10371000E491E09371068C01802F8E198F1548F487
:10372000F801649189E696E00E9447040F5F1F4FFD
:10373000F3CF0E94BB04EBEEF0E0F0937806E09349
:1037400077068491ECEEF0E0E491F82F319709F0E0
:1037500098C01092720690E080E00E94C21C8130F6
:10376000B9F060E874E0CE0101960E94AD09CE0187
:1037700001960E949F07CE0101960E94DA090E94DD
:103780000508E0919C05F0919D0509950E94280887
:103790000E94E00760E082E00E94C20260E086E0F2
:1037A0000E94C20260E084E00E94C20261E08DE0FB
:1037B0000E94C20261E089E00E94C20261E088E0EA
:1037C0000E94C20260E08BE00E94C20260E080E1E1
:1037D0000E94C20260E081E10E94C20260E08CE0CF
:1037E0000E94C20260E08AE00E94C20261E08DE0B5
:1037F0000E94C20260E08DE00E94940287E297E09E
:10380000909302018093010180916900836080930D
:103810006900E89A90E080E00E94C21C8130B9F013
:1038200060E874E0CE0101960E94AD09CE010196D8
:103830000E949F07CE0101960E94DA090E940508A6
:10384000E0919C05F0919D0509950E9428080E9431
:10385000E0078091200580931D0580911F05FAE007
:103860008F9FC001112490931C0580931B0500E0DD
:1038700010E00E94FE0C01151105D9F30E94000012
:10388000F8CF81E08093720666CFCF93DF93C3E6D3
:10389000D6E06397CE010A960E94DA09CE0102961D
:1038A0000E94DA0985E0C53AD80799F783E696E0E1
:1038B000DF91CF910C94DA09BB274A3031F4992378
:1038C00022F4BDE2909581959F4F0C94991CBB27E3
:1038D0002A3051F4992342F4BDE290958095709579
:1038E00061957F4F8F4F9F4F0C94771CBB27FA0138
:1038F000A62F6217710581059105330B30FB66F029
:10390000AA27660F771F881F991FAA1FA21710F0FA
:10391000A21B63953850A9F7A05DAA3308F0A95DF2
:10392000A19336F7B111B1931082CA010C94B21C65
:10393000BB27FB015527AA27880F991FAA1FA41789
:1039400010F0A41B83955051B9F7A05DAA3308F07D
:10395000A95DA193009779F7B111B1931192CB01B1
:103960000C94B21CDC01FC01672F71917723E1F705
:10397000329704C07C916D9370836291AE17BF073C
:10398000C8F30895F999FECF92BD81BDF89A9927A1
:1039900080B50895262FF999FECF1FBA92BD81BD3B
:1039A00020BD0FB6F894FA9AF99A0FBE01960895C1
:1039B000052E97FB1EF400940E94EF1C57FD07D0C4
:1039C0000E942E1D07FC03D04EF40C94EF1C509562
:1039D0004095309521953F4F4F4F5F4F08959095FB
:1039E0008095709561957F4F8F4F9F4F08952F92CF
:1039F0003F924F925F926F927F928F929F92AF927F
:103A0000BF92CF92DF92EF92FF920F931F93CF93CB
:103A1000DF93CDB7DEB7CA1BDB0B0FB6F894DEBF62
:103A20000FBECDBF09942A88398848885F846E8488
:103A30007D848C849B84AA84B984C884DF80EE80D2
:103A4000FD800C811B81AA81B981CE0FD11D0FB6DB
:103A5000F894DEBF0FBECDBFED010895A1E21A2E8E
:103A6000AA1BBB1BFD010DC0AA1FBB1FEE1FFF1F22
:103A7000A217B307E407F50720F0A21BB30BE40B72
:103A8000F50B661F771F881F991F1A9469F76095B9
:103A90007095809590959B01AC01BD01CF01089573
:103AA000A29FB001B39FC001A39F700D811D11247F
:103AB000911DB29F700D811D1124911D0895EE0F6F
:103AC000FF1F0590F491E02D09940F931F93CF935E
:103AD000DF938230910510F482E090E0E0917F0660
:103AE000F091800630E020E0B0E0A0E0309799F45B
:103AF0002115310509F44AC0281B390B2430310542
:103B0000D8F58A819B816115710589F1FB01938349
:103B10008283FE0111C040815181028113814817C7
:103B20005907E0F04817590799F4109761F0129679
:103B30000C93129713961C933296CF01DF91CF917D
:103B40001F910F91089500937F0610938006F4CF84
:103B50002115310551F04217530738F0A901DB0157
:103B60009A01BD01DF01F801C1CFEF01F9CF9093B8
:103B7000800680937F06CDCFFE01E20FF31F819375
:103B800091932250310939832883D7CF20917D0624
:103B900030917E06232B41F42091080130910901D8
:103BA00030937E0620937D06209106013091070117
:103BB0002115310541F42DB73EB740910A015091CE
:103BC0000B01241B350BE0917D06F0917E06E21778
:103BD000F307A0F42E1B3F0B2817390778F0AC0130
:103BE0004E5F5F4F2417350748F04E0F5F1F50930D
:103BF0007E0640937D06819391939FCFF0E0E0E0B5
:103C00009CCFCF93DF930097E9F0FC0132971382AA
:103C10001282A0917F06B0918006ED0130E020E095
:103C20001097A1F420813181820F931F20917D068E
:103C300030917E062817390709F061C0F0937E069F
:103C4000E0937D06DF91CF910895EA01CE17DF075B
:103C5000E8F54A815B819E0141155105B1F7E90103
:103C6000FB83EA8349915991C40FD51FEC17FD07D7
:103C700061F4808191810296840F951FE9019983F7
:103C80008883828193819B838A83F0E0E0E01296AF
:103C90008D919C9113970097B9F52D913C911197B7
:103CA000CD010296820F931F20917D0630917E06F2
:103CB0002817390739F6309751F51092800610927F
:103CC0007F06B0937E06A0937D06BCCFD383C283CC
:103CD00040815181840F951FC817D90761F44E5F49
:103CE0005F4F88819981480F591F518340838A8192
:103CF0009B81938382832115310509F0B0CFF09326
:103D00008006E0937F069ECFFD01DC01C0CF1382C9
:103D10001282D7CFB0E0A0E0E0E9FEE10C94F91CFC
:103D20008C01009751F4CB010E94651D8C01C801E4
:103D3000CDB7DEB7E0E10C94151DFC01E60FF71FCF
:103D40009C0122503109E217F30708F49DC0D90104
:103D5000CD91DC911197C617D70798F0C530D105E2
:103D600030F3CE0104978617970708F3C61BD70BCD
:103D70002297C193D1936D937C93CF010E94011E32
:103D8000D6CF5B01AC1ABD0A4C018C0E9D1EA091D2
:103D90007F06B0918006512C412CF12CE12C10971C
:103DA00031F580917D0690917E068815990509F080
:103DB0005CC04616570608F058C0809106019091E5
:103DC0000701009741F48DB79EB740910A015091C9
:103DD0000B01841B950BE817F90708F055C0F09309
:103DE0007E06E0937D06F90171836083A0CF8D91FB
:103DF0009C91119712966C90129713967C90139742
:103E0000A815B90559F56C0142E0C40ED11CCA14BD
:103E1000DB0420F1AC014A195B09DA01129615970F
:103E200080F06282738251834083D9016D937C93C9
:103E3000E114F10471F0D7011396FC93EE931297FD
:103E400076CF22968C0F9D1FF90191838083F30119
:103E5000EFCFF0938006E0937F0669CF48165906AE
:103E600008F42C017D01D3019ACFCB010E94651D7E
:103E70007C01009749F0AE01B8010E944C1FC801B7
:103E80000E94011E870153CF10E000E050CF81E077
:103E900090E0F8940C945C1FFB01DC0102C00190DF
:103EA0000D9241505040D8F70895FB01DC0101907C
:103EB0000D920020E1F7089511E0CDE6D1E004C0B5
:103EC000FE010E945F1D2196CE36D107C9F7F894F6
:023ED000FFCF22
:103ED200012904290401000081068000000000007D
:103EE200F806CB06DD07A106C406B106A20600004D
:103EF2000000D604F501DD07DC07A3070D0A004127
:103F020075746F0043697479205761746572005744
:103F1200656C6C2057617465720046696C746572D9
:103F22002066616C73652073656E736F72730066D1
:103F32006C69636B6572696E67004966206E6F74A7
:103F42002073656520666C6F7720776174657200F7
:103F52007468656E206F6E2C74696D656F75742E52
:103F620000416E7920666C6F7720776F726B0074F8
:103F72007275650066616C73650049676E6F726584
:103F82002E005265736574206572726F72732E0013
:103F92005475726E206F6E2077617465722E0054B4
:103FA20075726E206F66662077617465722E00549A
:103FB200696D6572207768656E20736F6D657468D0
:103FC200696E670074616B6520746F206C6F6E6739
:103FD20020746F2066696C6C2E00213E3A0021210C
:103FE2003E005B50002020202020204D454E5500F1
:103FF2003C526573657420746F2064656661756CEC
:10400200743E00507265737320757020746F207255
:10401200657365740020446F6E650020205B45580F
:1040220049545D005B2D5D004D696E696D756D20B3
:1040320057656C6C20576174657220004578657015
:1040420074696F6E5F536F757263655F56696E2038
:1040520000427574746F6E5F45787465726E616C40
:104062002000575F464C4F573A002028002900573E
:104072005F50524553535552453A005B2000205D34
:1040820000466C6F772074696D65206C6566743AC2
:10409200200046696C6C2063616E3A002F00555314
:1040A200453A0063616E57617465725475726E4F62
:1040B2006E3A00416E7920666C6F7720776F726B73
:1040C2003A00466C6F77204F6E00507265737375BD
:1040D2007265204C6F77005072657373757265203C
:1040E20052656163686564004E65726120536C6558
:1040F20067696F2073656E736F72696175732100F2
:10410200536F7572636520627574746F6E3A4F6E89
:10411200202020202000427574746F6E3A00696777
:104122006E6F72652E00726573657420616C6C200F
:104132006572726F72732E004572726F72206E6FAB
:1041420020666C6F77696E672077617465720046CE
:104152006C6F773A2000206D696E0046696C6C695D
:104162006E673A20004572726F722046696C6C6904
:104172006E6720746F206C6F6E67004369747920DC
:104182000057656C6C20004B4C4149444121002092
:10419200202020202020202020202020202020201D
:1041A2002020202020202000707369005761746550
:1041B20072207072657373757265206D696E696DB8
:1041C200756D0057617465722070726573737572D4
:1041D20065206D6178696D756D00752F736563007B
:1041E200466C6F77206D696E696D756D20726174B2
:1041F20065005468656E2045787465726E616C2046
:10420200427574746F6E0044656C6179204F6E2044
:104212005761746572004E6F74205375636B696EDB
:104222006720576174657200576F726B696E672001
:10423200746F206C6F6E6700576F726B20546865E5
:104242006E204D617820505349004D6F64657300B4
:0C4252004D454D4F52592053455421005A
:00000001FF
