:100000000C946E010C9496010C9496010C9496013C
:100010000C9496010C9496010C9496010C94960104
:100020000C9496010C9496010C9496010C949601F4
:100030000C9496010C9496010C9496010C949601E4
:100040000C9406160C9496010C9496010C9496014F
:100050000C9496010C9496010C9496010C949601C4
:100060000C9450160C949601AED580A83FD3004056
:100070008D142002A1C8DA12817FD9F1DB40A4A639
:10008000AF00030C0F30333C3FC0C3CCCFF0F3FCC8
:10009000FF00000000240027002A000000000025C7
:1000A0000028002B00000000002300260029000487
:1000B000040404040404040202020202020303030F
:1000C0000303030102040810204080010204081009
:1000D00020010204081020000000080002010000B6
:1000E00003040700000000000000000000050720D6
:1000F00060000000000000005F0000000700070033
:10010000147F147F14242A7F2A1223130864623672
:10011000495620500008070300001C2241000041FE
:10012000221C002A1C7F1C2A08083E080800807038
:10013000300008080808080000606000201008046B
:10014000023E5149453E00427F40007249494946BE
:100150002141494D331814127F1027454545393C3C
:100160004A49493141211109073649494936464929
:1001700049291E000014000000403400000008144B
:1001800022411414141414004122140802015909C4
:10019000063E415D594E7C1211127C7F4949493619
:1001A0003E414141227F4141413E7F494949417F92
:1001B000090909013E414151737F0808087F004148
:1001C0007F41002040413F017F081422417F404091
:1001D00040407F021C027F7F0408107F3E41414166
:1001E0003E7F090909063E4151215E7F09192946D2
:1001F000264949493203017F01033F4040403F1FE8
:100200002040201F3F4038403F631408146303041C
:100210007804036159494D43007F4141410204087C
:100220001020004141417F0402010204404040404F
:1002300040000307080020545478407F2844443885
:100240003844444428384444287F385454541800CF
:10025000087E090218A4A49C787F0804047800444E
:100260007D40002040403D007F1028440000417F39
:1002700040007C047804787C0804047838444444C2
:1002800038FC1824241818242418FC7C08040408BA
:10029000485454542404043F44243C4040207C1CD3
:1002A0002040201C3C4030403C44281028444C90C6
:1002B00090907C4464544C44000836410000007720
:1002C0000000004136080002010204023C262326F9
:1002D0003C680019804000006F178C1A11241FBE63
:1002E000CFEFD8E0DEBFCDBF14E0A0E0B1E0E0E6A4
:1002F000FBE302C005900D92A832B107D9F726E0C2
:10030000A8E2B4E001C01D92AD31B207E1F711E0FF
:10031000CDE6D1E004C02197FE010E94A61BCC3699
:10032000D107C9F70E94F9170C94A31D0C94000083
:1003300020910C0581E0213208F044C08091E8044E
:100340008111FCCF80910B0592E09093E80491E03D
:100350009093E7049FEF9093E6041092E5042093B6
:10036000E404ABEEB4E0E4ECF4E090E0291331C037
:100370001092C3049091C304880F892B8093C30407
:100380008091C204813049F51092C2048091C30467
:100390008093BB008091BC0083FDF8CF85EC8093F7
:1003A000BC008091E8048230E1F38091E6048F3F45
:1003B000B1F08091E6048032A1F08091E6048033B0
:1003C00091F084E01092EA0410920C051092E90476
:1003D00008953D9131939F5FC9CF85EEE0CF80E0D6
:1003E000F1CF82E0EFCF83E0EDCFAF92BF92CF921B
:1003F000DF92EF92FF920F931F93CF93DF936C01E5
:100400007B018B01040F151FEB015E01AE18BF08C5
:10041000C017D10759F06991D601ED91FC91019077
:10042000F081E02DC6010995892B79F7C501DF918F
:10043000CF911F910F91FF90EF90DF90CF90BF90E1
:10044000AF900895FC01448155816081718185E000
:1004500096E00C94F501CF93DF938FEF95E00E9427
:100460002202EC0142E050E06AE271E085E096E0B1
:100470000E94F5018C0F9D1FDF91CF910895089583
:1004800008950895833081F028F4813099F0823006
:10049000A9F008958730A9F08830C9F08430B1F40C
:1004A000809180008F7D03C0809180008F77809342
:1004B0008000089584B58F7784BD089584B58F7DBD
:1004C000FBCF8091B0008F778093B000089580912A
:1004D000B0008F7DF9CFCF93DF93282F30E0F90163
:1004E000E952FF4F8491F901ED53FF4FD491F90187
:1004F000E155FF4FC491CC23A1F081110E9442022B
:10050000EC2FF0E0EE0FFF1FEB55FF4FA591B491DC
:10051000EC91ED2381E090E009F480E0DF91CF9150
:10052000089580E090E0FACF1F93CF93DF93282FB8
:1005300030E0F901E952FF4F8491F901ED53FF4F8B
:10054000D491F901E155FF4FC491CC23A9F0162FA6
:1005500081110E944202EC2FF0E0EE0FFF1FE556E2
:10056000FF4FA591B4918FB7F894EC91111108C089
:10057000D095DE23DC938FBFDF91CF911F9108953B
:10058000DE2BF8CFCF93DF9390E0FC01ED53FF4FCC
:10059000249181559F4FFC0184918823D1F090E0F4
:1005A000880F991FFC01EF56FF4FA591B491FC01F4
:1005B000E556FF4FC591D49161110EC09FB7F894D5
:1005C0008C91E22FE0958E238C932881E223E8839F
:1005D0009FBFDF91CF9108958FB7F894EC91E22BF4
:1005E000EC938FBFF6CF8E50806480937C00809117
:1005F0007A00806480937A0080917A0086FDFCCF37
:10060000809178009091790008953FB7F894809197
:10061000AE049091AF04A091B004B091B10426B59E
:10062000A89B05C02F3F19F00196A11DB11D3FBF2A
:10063000BA2FA92F982F8827BC01CD01620F711DF9
:10064000811D911D42E0660F771F881F991F4A95F3
:10065000D1F708958F929F92AF92BF92CF92DF927F
:10066000EF92FF926B017C010E9405034B015C013C
:10067000C114D104E104F104B9F00E940503681922
:1006800079098A099B09683E73408105910580F3C9
:1006900021E0C21AD108E108F10888EE880E83E053
:1006A000981EA11CB11CE4CFFF90EF90DF90CF907B
:1006B000BF90AF909F908F900895CF93DF93EC0100
:1006C000E0912F05F09130058081882359F08881D1
:1006D0008F3F41F08F5F88836AE070E080E090E0B8
:1006E0000E942A03E0913105F09132058081882330
:1006F00069F08881882351F0815088836AE070E036
:1007000080E090E0DF91CF910C942A03DF91CF91AC
:1007100008952FB7F8946091AA047091AB0480916A
:10072000AC049091AD042FBF0895E0912F05F09196
:10073000300580818823F9F080911F0520913F05C5
:10074000309140058217130609F0ACF49091200512
:10075000992389F09091210591110DC08F5F8093AD
:100760001F050E94890360932705709328058093D5
:10077000290590932A05E0913105F0913205808199
:100780008823C9F080911F058230A8F09091200540
:10079000992389F09091210591110DC0815080938A
:1007A0001F050E9489036093270570932805809395
:1007B000290590932A05E0913305F0913405808155
:1007C000882371F08091210581110AC00E9489035C
:1007D00060932705709328058093290590932A0537
:1007E0000E948903AB01BC018091270590912805E7
:1007F000A0912905B0912A0588559E49AF4FBF4F5A
:1008000084179507A607B70768F480912105811121
:1008100009C010921C0510921D0581E080931F05F0
:1008200010922D05E0912F05F09130058081811106
:1008300007C0E0913105F09132058081882329F0CD
:100840001092200580911F05089581E08093200576
:10085000F9CFCF93DF93EC018D85882329F0815068
:100860008D87DF91CF9108959C818E819817C8F76D
:1008700088896827E881F9810084F185E02D42E0CC
:10088000CE0109958C818F5F8C83EBCFDC01ED91DC
:10089000FC910084F185E02D40E009940F931F93B3
:1008A000CF938C01FC016483C085C60F6C2F6F70E1
:1008B0000E9446046C2F62956F706061C801CF91F1
:1008C0001F910F910C944604FC01278126952695D3
:1008D0002695621738F465832385620F6770606B15
:1008E0000C94460408951F93CF93DF93EC01142FCB
:1008F0008E81681718F4CE010E944E04612FCE013C
:10090000DF91CF911F910C946404CF92DF92EF920C
:10091000FF920F931F93CF93DF93EC01F62EC42E1B
:10092000D22E1D868F81869586958695081710F0A4
:100930000FEF080F1D2D011780F0412F6F2DCE01F5
:100940000E947304EF2CCE1430F06889CE010E940F
:100950002904E394F8CF1F5FEECF4D2D6F2DCE010C
:10096000DF91CF911F910F91FF90EF90DF90CF908B
:100970000C9473040F93CF93DF93C5E0D6E01B86EE
:100980001A8660E4CE010E9446040F810695069502
:10099000069501504E81415020E060E0CE010E945A
:1009A0008504DF91CF910F9108952F923F924F923E
:1009B0005F926F927F928F929F92AF92BF92CF92EF
:1009C000DF92EF92FF920F931F93CF93DF9300D0AC
:1009D00000D000D0CDB7DEB7DC011E962D913C9142
:1009E0002115310509F478C19E838D83F901329672
:1009F000649031964491E42EF12CB7E0EB0EF11C9B
:100A000053E0F594E7945A95E1F7E98231965491D1
:100A10003196E491651748F08E2F90E0FC01E50FC8
:100A2000F11D6E171F060CF492C06D3031F5ED818B
:100A3000FE81868181111BC081E090E026960FB671
:100A4000F894DEBF0FBECDBFDF91CF911F910F9104
:100A5000FF90EF90DF90CF90BF90AF909F908F90DE
:100A60007F906F905F904F903F902F90089560E03F
:100A70008D819E810E944E04DFCF6A3009F02CC127
:100A8000AD81BE8116968C911697882321F060E087
:100A9000CD010E944E04ED81FE8101890E9DE02C66
:100AA000112465816E0D8485882349F02781269560
:100AB000269526958E2D821B860F18162CF08D817B
:100AC0009E810E946404B8CFAD81BE811B969C912B
:100AD0001B97890F87701B968C931B972E19159661
:100AE0002C9315971E96ED91FC91309771F13396EA
:100AF000E491F0E0379633E0F595E7953A95E1F724
:100B00000E9F002D1124EFEFE20F0E0FED81FE81FD
:100B1000468141506481CF010E948504AD81BE8130
:100B20001C968C911C97813009F086CF1B966C9196
:100B30001B97660F660F660F6F731A966C931A9762
:100B40006064CD010E94460477CF00E0DCCF8901CC
:100B50000A5F1F4F651BED81FE8171855189759F6D
:100B6000502D11245C83F90154912F5F3F4FF901FF
:100B70002491352F2230310508F070C06E9CC001E1
:100B80006F9C900D1124689FF001699FF00D112456
:100B90000E0F1F1F512CAD81BE811496BC91BA83DC
:100BA000ED81FE812580F585FB83862C912CAA247E
:100BB000A394B12C312C8981381608F08BC0412CBC
:100BC000AD81BE8151968C915197481608F07BC03B
:100BD000EB811D96EC93311002C0442051F0AD81A1
:100BE000BE8115964C9115974F5F6A81CD010E9489
:100BF0007304D12CC12CC61408F058C0F801EC0DB8
:100C0000FD1D7490552061F0EA14FB0449F4E72DB2
:100C1000F0E0052C02C0F595E7950A94E2F77E2EE8
:100C2000ED81FE818189823081F4442009F43AC04B
:100C300072948FE07822E72DF0E0EF57FF4F749029
:100C4000672D8D819E810E942904672D8D819E8153
:100C50000E9429048FEFC81AD80ACDCF477028E028
:100C6000522E541A411101C0512CF801612C30E070
:100C700020E0661631F04491240F311D63943196C3
:100C8000F8CF600E712E711CF3016490E29EF001AA
:100C9000E39EF00DF29EF00D11248E0F9F1F080FA2
:100CA000191F79CFF72DFF707F2EC5CFD12CAC81C6
:100CB000DA1639F060E08D819E810E942904D39478
:100CC000F6CF43947DCF3394080D191DBFEFAB1AB7
:100CD000BB0A71CF622DF3CE90E080E0AFCE85ED00
:100CE0008093BC008091BC0084FDFCCF1092E8048E
:100CF000089520918604260F3327331F21323105B2
:100D0000ECF42091E804FC0190E080E0243069F0EC
:100D100082E00895A09186042191AC014A595B4F6D
:100D2000A40FB52FB11D2C930196861798F38091CF
:100D30008604680F6093860480E0089581E008953A
:100D40000895E091B7048091B604E81730F4F0E01C
:100D5000EA5BFB4F808190E008958FEF9FEF08954D
:100D60009091B7048091B6042FEF3FEF981748F4A5
:100D7000E92FF0E0EA5BFB4F208130E09F5F90932A
:100D8000B704C90108958091B6049091B704891BF6
:100D9000990B0895CF92DF92EF92FF920F931F93DA
:100DA000CF93DF937C01CB018A012091E9042223B8
:100DB00089F0EB016B01C40ED51ECC15DD0569F081
:100DC0006991D701ED91FC910190F081E02DC7016F
:100DD0000995F3CF642F0E947906C801DF91CF9166
:100DE0001F910F91FF90EF90DF90CF900895CF93D8
:100DF000DF931F92CDB7DEB769832091E9042223E8
:100E0000F9F020910C05203258F021E030E0FC018F
:100E10003383228390E080E00F90DF91CF9108959B
:100E20008091EA04E82FF0E0E551FB4F998190832F
:100E30008F5F8093EA0480930C0581E090E0ECCF13
:100E400061E0CE0101960E947906F7CF88E2809397
:100E5000C1048AE28093C00489E18093BF0481E0E9
:100E60008093BE049EE19093BB048093030185E0D0
:100E70008093BD0484E18093BC0408950E94220203
:100E80000C942B020F931F93CF93DF93EC01062F4B
:100E9000142F8B89813120F4882329F0411103C05C
:100EA0000E9498011B8A8B89811112C08A8991E066
:100EB0009093E90480930B051092EA0410920C05BC
:100EC00060E4111101C060E08DE095E00E94F7063A
:100ED000602F8DE095E00E94F706123041F48B8977
:100EE0008F5F8B8BDF91CF911F910F9108950E949F
:100EF00098011B8AF7CF089590E080E008950F9342
:100F00001F93CF93DF930CE115E0C1E0D0E00D5EBD
:100F10001F4F80913F0590914005C817D9077CF479
:100F200080913B0590913C058C0F9D1F0E94091BF1
:100F3000D8019D96ED91FC9180832196E8CFDF91B9
:100F4000CF911F910F91089590E080E00E94091BBE
:100F5000813039F061E090E080E00E94111B81E077
:100F6000089580E008951F93CF93DF93EC01162F2F
:100F70000E94091B181749F0612FCE010E94111B16
:100F800081E0DF91CF911F91089580E0FACF0F9318
:100F90001F93CF93DF930CE115E0C1E0D0E00D5E2D
:100FA0001F4F80913F0590914005C817D9077CF4E9
:100FB000D8019D96ED91FC9180913B0590913C0567
:100FC00060818C0F9D1F0E94B3072196E8CFDF91AF
:100FD000CF911F910F9108950F931F93CF93DF939C
:100FE000EC0188819981009759F02A813B8126176D
:100FF000370730F081E0DF91CF911F910F91089575
:101000008B016F5F7F4F0E94D11C009759F099832D
:1010100088831B830A832C813D81232B59F7FC0194
:101020001082E8CF80E0E7CFEF92FF920F931F93FB
:10103000CF93DF936115710541F480E0DF91CF918B
:101040001F910F91FF90EF90089541155105B1F058
:101050007B01EC010C811D81040F151FB8010E945A
:10106000EC07882351F3288139818C819D81B70158
:10107000820F931F0E949C1D1D830C8381E0DECF95
:10108000CF93DF93EC0188819981009711F00E9442
:10109000481C198218821D821C821B821A82DF91D1
:1010A000CF910895CF93DF93EC01FB0101900020D5
:1010B000E9F73197AF01461B570B0E9414088111C5
:1010C00003C0CE010E944008CE01DF91CF91089568
:1010D000CF93DF93EC01FB014481558160817181E5
:1010E0000E941408811103C0CE010E944008CE0165
:1010F000DF91CF910895EF92FF920F931F93CF93BB
:10110000DF93EC017B018A01BA010E94EC07811197
:101110000BC0CE010E944008CE01DF91CF911F91FC
:101120000F91FF90EF9008951D830C83B701888184
:1011300099810E949C1DF0CFFB0101900020E9F7EE
:101140003197AF01461B570B0C947B080F931F93ED
:10115000CF93DF93CDB7DEB762970FB6F894DEBFBB
:101160000FBECDBF8C01CB01F8011182108213821A
:101170001282158214824AE0BE016F5F7F4F0E9487
:10118000A31ABE016F5F7F4FC8010E949C08629640
:101190000FB6F894DEBF0FBECDBFDF91CF911F9188
:1011A0000F9108950F931F93CF93DF93CDB7DEB7C1
:1011B00029970FB6F894DEBF0FBECDBF8C01862FE6
:1011C000F8011182108213821282158214824AE081
:1011D000BE016F5F7F4F90E00E94DF1ABE016F5F1C
:1011E0007F4FC8010E949C0829960FB6F894DEBF75
:1011F0000FBECDBFDF91CF911F910F9108950F9337
:101200001F93CF93DF93CDB7DEB7A2970FB6F894B5
:10121000DEBF0FBECDBF8C01CB01BA01F801118238
:10122000108213821282158214822AE0AE014F5F6F
:101230005F4F0E94AE1ABE016F5F7F4FC8010E94D0
:101240009C08A2960FB6F894DEBF0FBECDBFDF910B
:10125000CF911F910F910895CF93DF93EC01FB0184
:101260008617970749F0608171816115710541F01A
:10127000448155810E947B08CE01DF91CF91089572
:101280000E944008F9CFFC01118210821382128261
:10129000158214820C942C09FC0111821082138295
:1012A000128215821482FB0101900020E9F7319728
:1012B000AF01461B570B0C947B08FC018081918188
:1012C0000C94481C5F926F927F928F929F92AF9284
:1012D000BF92CF92DF92EF92FF920F931F93CF9323
:1012E000DF93CDB7DEB72C970FB6F894DEBF0FBEF5
:1012F000CDBF4C015B013A01502E8CE1E82E85E018
:10130000F82EF701C3A0D4A0B901CE0101960E9426
:101310004309B301CE0107960E94430983E18C9DE6
:1013200080018D9D100D1124C801845E9A4F6C01BF
:10133000FC0196A285A2BE01695F7F4FC8018D5B4B
:101340009A4F0E942C09F601B6A6A5A655AABE0181
:101350006F5F7F4FC801855B9A4F0E942C09CE01B9
:1013600007960E945D09CE0101960E945D09F70172
:1013700083A194A1019694A383A32C960FB6F8940D
:10138000DEBF0FBECDBFDF91CF911F910F91FF90B8
:10139000EF90DF90CF90BF90AF909F908F907F9015
:1013A0006F905F900895CF93DF9300D000D000D06E
:1013B000CDB7DEB76DE271E0CE0101960E944C0917
:1013C000CE0101960E943E07CE0101960E945D0962
:1013D00062E471E0CE0101960E944C09CE010196B3
:1013E0000E943E07CE0101960E945D0926960FB627
:1013F000F894DEBF0FBECDBFDF91CF910895CF939C
:10140000DF9300D000D000D0CDB7DEB76DE471E03F
:10141000CE0101960E944C09CE0101960E943E0722
:10142000CE0101960E945D0963E671E0CE0101964E
:101430000E944C09CE0101960E943E07CE01019602
:101440000E945D0926960FB6F894DEBF0FBECDBF91
:10145000DF91CF910895CF93DF9300D000D000D0DB
:10146000CDB7DEB780910301833018F082E080931E
:10147000030182E080931606809103018130F1F030
:1014800070F08230F1F081E08093160626960FB658
:10149000F894DEBF0FBECDBFDF91CF91089564E712
:1014A00071E0CE0101960E944C09CE0101960E9486
:1014B0003E07CE0101960E945D09E5CF69E771E024
:1014C000F0CF64E871E0EDCFCF93DF9300D000D090
:1014D00000D0CDB7DEB7BC01CE0101960E94430912
:1014E00080912C05811106C0CE0101960E94220236
:1014F0000E942B02CE0101960E945D0926960FB62E
:10150000F894DEBF0FBECDBFDF91CF91089520913B
:101510003A04222331F020913904211102C00C94A5
:10152000640A089520913A04222329F02091390475
:1015300021110C94640A089520913A0421110C940D
:10154000640A0895CF93DF9300D000D000D0CDB7C8
:10155000DEB78091BE04823018F082E08093BE0432
:101560008091BE046FE871E0882341F067E971E083
:10157000813021F0823071F465EA71E0CE0101968C
:101580000E944C09CE0101960E943E07CE010196B1
:101590000E945D0926960FB6F894DEBF0FBECDBF40
:1015A000DF91CF9108951F93CF93DF93CDB7DEB72F
:1015B00062970FB6F894DEBF0FBECDBF20911F0516
:1015C00030E02F5F3F4F13E1129FF001139FF00DAA
:1015D0001124E45EFA4F25A9211144C0BC0182E028
:1015E00080931606CE010D960E94A608BE01635F89
:1015F0007F4FCE0107960E94430964E873E0CE0155
:1016000007960E945208BC01CE0101960E94430930
:10161000CE0101960E942202CE0101960E945D0930
:10162000CE0107960E945D09CE010D960E945D09CC
:1016300081E08093160680911F0590E00196189F27
:10164000B001199F700D1124655B7A4FCE01019690
:101650000E944309CE0101960E943E07CE010196E9
:101660000E945D0962960FB6F894DEBF0FBECDBF33
:10167000DF91CF911F910895CF92DF92EF92FF9269
:10168000CF93DF9300D000D000D0CDB7DEB720914C
:10169000C0048091C104821720F08FEF820F8093E5
:1016A000C10430E0AFEFB3E00E94971BC12CD12CF6
:1016B0007601CA94A70196010E941F1BBA01A901D5
:1016C000CE0101960E94FF08CE0101960E943E07BE
:1016D000CE0101960E945D092091C10430E0AFEF78
:1016E000B3E00E94971BA70196010E941F1BC9012E
:1016F0000E94D30A26960FB6F894DEBF0FBECDBF68
:10170000DF91CF91FF90EF90DF90CF900895CF922F
:10171000DF92EF92FF92CF93DF9300D000D000D002
:10172000CDB7DEB72091C1048091C004281720F006
:1017300081E0820F8093C00430E0AFEFB3E00E94FD
:10174000971BC12CD12C7601CA94A70196010E9447
:101750001F1BBA01A901CE0101960E94FF08CE010C
:1017600001960E943E07CE0101960E945D092091DC
:10177000C00430E0AFEFB3E00E94971BA7019601D1
:101780000E941F1BC9010E94D30A26960FB6F89427
:10179000DEBF0FBECDBFDF91CF91FF90EF90DF9006
:1017A000CF9008951F93CF93DF9300D000D000D047
:1017B000CDB7DEB78091BB04811103C081E0809377
:1017C000BB048091BB041AE0819FC0011124909357
:1017D000B9048093B80464EB71E0CE0101960E94D5
:1017E0004C09CE0101960E943E07CE0101960E944F
:1017F0005D0969EC71E0CE0101960E944C09CE01B1
:1018000001960E943E07CE0101960E945D098091DB
:10181000BB04819FC00111240E94D30A26960FB6F3
:10182000F894DEBF0FBECDBFDF91CF911F91089519
:10183000CF92DF92EF92FF921F93CF93DF93CDB7BA
:10184000DEB76E970FB6F894DEBF0FBECDBF40E097
:1018500060E085E096E00E94730486E00E946B02DF
:1018600021E0892B09F420E02093190585E00E94EE
:101870006B0221E0892B09F420E020931A0584E013
:101880000E946B0221E0892B09F420E020931B05C4
:101890008CE00E946B0221E0892B09F420E0209368
:1018A00045048BE00E946B0221E0892B09F420E0C3
:1018B000209344048AE00E946B0221E0892B09F402
:1018C00020E02093430481E10E94F30290934204BC
:1018D0008093410480E10E94F3029093400480933E
:1018E0003F04C0903B04D0903C04E0903D04F09055
:1018F0003E0420E6C20E2AEED21EE11CF11C0E941C
:101900008903C616D706E806F906F0F50E94890392
:1019100060933B0470933C0480933D0490933E0499
:101920000E94BA0481E080933A0410923904209115
:1019300032048091B8049091B904211105C020911E
:101940003304222309F4ACC1181619062CF40197AC
:101950009093B9048093B8048091B8049091B9042D
:10196000892B19F481E0809329048091020181116F
:101970000BC08091BA04882339F090912904911109
:1019800003C081508093BA04C0903504D0903604CF
:10199000E0903704F090380488EEC80E83E0D81E3B
:1019A000E11CF11C0E94890310913404C616D7066D
:1019B000E806F90660F50E94890360933504709388
:1019C0003604809337049093380491E090933A045E
:1019D00080911B05882339F0111105C080913904CD
:1019E00089278093390480913304882319F081502A
:1019F0008093330480913204882319F081508093BE
:101A00003204809131048093300410923104C090EC
:101A10002C04D0902D04E0902E04F0902F0428EE9A
:101A2000C20E23E0D21EE11CF11C0E948903C616DF
:101A3000D706E806F90650F40E94890360932C0447
:101A400070932D0480932E0490932F0480913F0473
:101A500090914004813591050CF436C180912804A1
:101A6000811108C0809131048F5F8093310481E03F
:101A70008093280410932B0440E060E085E096E01A
:101A80000E947304E0913305F09134058081811147
:101A900005C080912E05811110922E058081811143
:101AA00005C080911C05882309F40FC481E0809350
:101AB0001C0580912105882321F0808181111092DD
:101AC0002D058081811107C180911D0581111DC1E6
:101AD000E0913305F091340580818111DFC30E94CC
:101AE0008903AB01BC018091230590912405A0914D
:101AF0002505B09126058A5E9C4FAF4FBF4F8417D6
:101B00009507A607B70738F4E0913305F09134053F
:101B100080818111C9C30E948903AB01BC018091FE
:101B2000230590912405A0912505B0912605845D9B
:101B30009F44AF4FBF4F84179507A607B70708F418
:101B4000B3C381E080931E0580931C0580911E0520
:101B5000882309F4B3C180912D05811105C081E06E
:101B600080932D050E94BA0468E272E0CE010196CE
:101B70000E944C09CE0101960E943E07CE010196BB
:101B80000E945D0980913D0590913E0513E1189FEB
:101B9000B001199F700D11246D5B7A4FCE01019633
:101BA0000E944309CE0101960E943E07CE01019694
:101BB0000E945D0980913D0590913E05189FF001BE
:101BC000199FF00D1124E45EFA4F05A0F6A1E02D57
:101BD000099580913D0590913E05189FF001199F50
:101BE000F00D1124E45EFA4F85A9882309F447C05B
:101BF00082E08093160605A4F6A5E02D6081CE0153
:101C000001960E94D208BE016F5F7F4FCE010796FA
:101C10000E94430964E873E0CE0107960E945208CF
:101C2000BC01CE010D960E944309CE010D960E9483
:101C30002202CE010D960E945D09CE0107960E94F8
:101C40005D09CE0101960E945D0981E08093160630
:101C500080913D0590913E05189FB001199F700D30
:101C60001124655B7A4FCE0101960E944309CE0193
:101C700001960E943E07CE0101960E945D09809167
:101C80003D0590913E0523E1289FF001299FF00D2D
:101C90001124E45EFA4F85A596A50E945D030EC14E
:101CA0002091BB044AE0249F9001112482179307DE
:101CB0000CF05BCE20912904211157CE029690930F
:101CC000B9048093B80451CE8035910509F4D2CE81
:101CD00010922804CFCE0E948903AB01BC018091F1
:101CE000230590912405A0912505B09126058857DC
:101CF0009C4EAF4FBF4F84179507A607B70708F054
:101D0000E3CE80911E058111DFCE80912D058111DA
:101D100005C081E080932D050E94BA040E948903CA
:101D2000AB01BC018091230590912405A09125056C
:101D3000B09126058A56964EAF4FBF4F8417950730
:101D4000A607B70708F423C181E080931D0580939F
:101D50001C05E0913305F09134058081811105C0A7
:101D600080911D05882309F4A9C040E060E085E06A
:101D700096E00E94730481E0809316060E9495030A
:101D800020913F0530914005821713066CF50E94A3
:101D90009503682FCE0107960E94D20866EE71E087
:101DA000CE0101960E944C09BE01695F7F4FCE01B2
:101DB00001960E94680863E872E00E945208BC0124
:101DC000CE010D960E944309CE010D960E943E075A
:101DD000CE010D960E945D09CE0101960E945D091B
:101DE000CE0107960E945D0980912105882309F4A0
:101DF00055C11092220580913A0581116BC10E9454
:101E0000950390E0019613E1189FB001199F700DA2
:101E100011246D5B7A4FCE0101960E944309CE01D9
:101E200001960E943E07CE0101960E945D098091B5
:101E300021058111B9C10E94950320913F05309180
:101E4000400582171306BCF140E060E085E096E0B3
:101E50000E94730482E0809316066CE271E0CE016A
:101E600001960E944C09CE0101960E943E07CE01C8
:101E700001960E945D096FE172E0CE0101960E9419
:101E80004C09CE0101960E943E07CE0101960E94A8
:101E90005D0980912105882371F010921D05109233
:101EA0001E0510922D050E94BA0440E060E085E016
:101EB00096E00E94730481E08093160680911D05D0
:101EC000811105C090911E05992309F40DC291E07E
:101ED00090932C0581110BC280911E05811107C2C0
:101EE0001092340480912B04882309F403C281E00A
:101EF00080933A046CE271E0CE0101960E944C0995
:101F0000CE0101960E943E07CE0101960E945D0916
:101F10006CE271E0CE0101960E944C09CE0101965F
:101F20000E943E07CE0101960E945D096CE271E0BD
:101F3000CE0101960E944C09CE0101960E943E07F7
:101F4000CE0101960E945D096CE271E0CE0101961E
:101F50000E944C09CE0101960E943E07CE010196D7
:101F60000E945D096CE271E0CE0101960E944C096D
:101F7000CE0101960E943E07CE0101960E945D09A6
:101F800040E060E085E096E00E947304B3C1E09118
:101F90003305F09134058081882309F4D5CE8091F2
:101FA0002105882309F451C00E94950390E0019611
:101FB00023E1289FF001299FF00D1124E45EFA4FE0
:101FC00005A4F6A5E02D20913B0530913C056081EC
:101FD000820F931F0E94B30781E0809316060E9430
:101FE000950320913F0530914005821713066CF54B
:101FF0000E949503682FCE0107960E94D20866EED4
:1020000071E0CE0101960E944C09BE01695F7F4FCD
:10201000CE0101960E94680863E872E00E945208AF
:10202000BC01CE010D960E944309CE010D960E947F
:102030003E07CE010D960E945D09CE0101960E94D9
:102040005D09CE0107960E945D0980912E058111E0
:1020500008C08091210591E0892780932105909304
:102060002E050E94950320913F053091400582176F
:10207000130669F410921C0510921D0581E08093EF
:102080001F051092210510922D058093160662E817
:1020900070E080E090E00E942A035BCE0E949503EE
:1020A00020913F0530914005821713060CF0A1CE18
:1020B00081E08093220569EE71E0CE0101960E94D5
:1020C0004C09CE0101960E943E07CE0101960E9466
:1020D0005D0991CE0E94950320913F053091400506
:1020E000215031098217130609F089CE64EF71E09F
:1020F000CE0101960E944C09CE0101960E943E0736
:10210000CE0101960E945D096CE271E0CE0101965C
:102110000E944C09CE0101960E943E07CE01019615
:102120000E945D0980912105882309F484CE67E02F
:1021300072E0CE0101960E944C09CE0101960E94E8
:102140003E07CE0101960E945D09E0912F05F091B6
:1021500030058081882309F46ECE82E080931606D4
:1021600069E172E0CE0101960E944C09CE01019610
:102170000E943E07CE0101960E945D0911E0109376
:102180001606E0913805F0913905099560ED77E084
:1021900080E090E00E942A038091210581278093AE
:1021A00021050E94BA0447CE80912E05811143CEAD
:1021B00080911F0590E00196189FF001199FF00D86
:1021C0001124E45EFA4F05A0F6A1E02D099582E006
:1021D0008093160680911F0590E00196189FF001EC
:1021E000199FF00D1124E45EFA4F85A9882309F4A4
:1021F00044C005A4F6A5E02D6081CE0101960E94A1
:10220000D208BE016F5F7F4FCE0107960E9443093F
:1022100064E873E0CE0107960E945208BC01CE012B
:102220000D960E944309CE010D960E942202CE0116
:102230000D960E945D09CE0107960E945D09CE01B0
:1022400001960E945D0981E08093160680911F052A
:1022500090E00196189FB001199F700D1124655BE5
:102260007A4FCE0101960E944309CE0101960E9449
:102270003E07CE0101960E945D0980911F0590E006
:10228000019623E1289FF001299FF00D1124E45EBF
:10229000FA4F85A596A50E945D03CDCD80911E05C0
:1022A000882309F40BCE1BCC10921E0510921C053E
:1022B00010922D050E94C7070E94BA0464E670E0E0
:1022C00080E090E00E942A0341CC0E948903609341
:1022D000230570932405809325059093260510927D
:1022E0001E0510921D05EACD10922C05F5CD81E05A
:1022F000809334046091450470E0CE0107960E94FB
:10230000A6086CE272E0CE0101960E944C09BE0163
:10231000695F7F4FCE0101960E946808BC01CE0123
:102320000D960E944309CE010D960E94920ACE019D
:102330000D960E945D09CE0101960E945D09CE01B5
:1023400007960E945D096091440470E0CE010796F3
:102350000E94A60860E472E0CE0101960E944C093A
:10236000BE01695F7F4FCE0101960E946808BC01E3
:10237000CE010D960E944309CE010D960E94920A4D
:10238000CE010D960E945D09CE0101960E945D0965
:10239000CE0107960E945D096091430470E0CE0172
:1023A00007960E94A60865E572E0CE0101960E949C
:1023B0004C09BE01695F7F4FCE0101960E946808FB
:1023C000BC01CE010D960E944309CE010D960E94DC
:1023D000920ACE010D960E945D09CE0101960E94DF
:1023E0005D09CE0107960E945D0960913F047091DE
:1023F0004004CE010D960E94A60860913004CE01E3
:1024000007960E94D20866E672E0CE0101960E940D
:102410004C09BE01695F7F4FCE0101960E9468089A
:102420006EE672E00E945208BE01635F7F4F0E9419
:10243000680861E772E00E945208BC01CE01439631
:102440000E944309CE0143960E94920ACE01439610
:102450000E945D09CE0101960E945D09CE0107969A
:102460000E945D09CE010D960E945D0960912A04CB
:1024700070E0CE010D960E94A60860914104709113
:102480004204CE0107960E94A60863E772E0CE01DF
:1024900001960E944C09BE01695F7F4FCE010196F3
:1024A0000E9468086FE772E00E945208BE01635FF5
:1024B0007F4F0E94680862E872E00E945208BC01E7
:1024C000CE0143960E944309CE0143960E94920A90
:1024D000CE0143960E945D09CE0101960E945D09DE
:1024E000CE0107960E945D09CE010D960E945D09FE
:1024F0006091BA04CE010D960E94D208609102014B
:1025000070E0CE0101960E94A608BE016F5F7F4F6A
:10251000CE0107960E94430965E872E0CE01079656
:102520000E945208BE01635F7F4F0E94680866E9FF
:1025300072E00E945208BC01CE0143960E944309FA
:10254000CE0143960E94920ACE0143960E945D09F5
:10255000CE0107960E945D09CE0101960E945D0999
:10256000CE010D960E945D096091BB044AE0649F14
:10257000B0011124CE0143960E94A6086091B804D0
:102580007091B904CE010D960E94A60860912904AD
:1025900070E0CE0101960E94A608BE016F5F7F4FDA
:1025A000CE0107960E9443096BE972E0CE010796BF
:1025B0000E945208BE01635F7F4F0E94680865EA6F
:1025C00072E00E945208BE016D5E7F4F0E94680853
:1025D0006FE973E00E945208BC01CE0149960E9447
:1025E0004309CE0149960E94920ACE0149960E9463
:1025F0005D09CE0107960E945D09CE0101960E94F9
:102600005D09CE010D960E945D09CE0143960E94A0
:102610005D099091BF0480913004981708F019C2A9
:1026200080910201811115C281E080932A0480917A
:10263000BC048093BA0467EA72E0CE0101960E945E
:102640004C09CE0101960E94870ACE0101960E9494
:102650005D09C0904104D090420483E3C816D104C0
:102660000CF425C20D2C000CEE08FF0880912A0402
:102670008111F2C12091C10430E0AFEFB3E00E94BC
:10268000971B2FEF30E040E050E00E941F1B2C15FD
:102690003D054E055F050CF4DFC16FEA72E0CE0127
:1026A00001960E944C09CE0101960E94870ACE0134
:1026B00001960E945D0981E080932A041092020134
:1026C00080914404811111C081E080932A0465EE59
:1026D00072E0CE0101960E944C09CE0101960E9443
:1026E000870ACE0101960E945D09809143048823E8
:1026F000B9F166EF72E0CE0107960E944C09809115
:102700003A048823B9F080913904811113C0BE01C5
:10271000695F7F4FCE0101960E94430980912C058D
:10272000811104C0CE0101960E942202CE010196C1
:102730000E945D09CE0107960E945D091091BE04BA
:102740001111C6C16EEF72E0CE0101960E944C09D4
:10275000CE0101960E94870ACE0101960E945D0972
:102760006091BA046111ECC110922A0468E173E02F
:10277000CE0101960E944C09CE0101960E94870A63
:10278000CE0101960E945D098091B8049091B90430
:10279000181619060CF012C26091BB044AE0649F3F
:1027A000B0011124681B790BCE010D960E94A6087A
:1027B0008091290462EE71E0811102C06CE271E047
:1027C000CE0101960E944C09BE016F5F7F4FCE0182
:1027D00007960E94430969E373E0CE0107960E94C1
:1027E0005208BE01635F7F4F0E94680867E972E08C
:1027F0000E945208BC01CE0143960E944309CE01BB
:1028000043960E94870ACE0143960E945D09CE013D
:1028100007960E945D09CE0101960E945D09CE01D6
:102820000D960E945D0980912A04882351F08091C1
:102830000301813009F4DCC108F4D1C1823009F40C
:10284000DCC182E08093160660913204662309F4AD
:10285000D7C1CE0107960E94D20869E573E0CE0188
:1028600001960E944C09BE01695F7F4FCE0101961F
:102870000E9468086AE174E00E945208BC01CE011F
:102880000D960E944309CE010D960E94870ACE0143
:102890000D960E945D09CE0101960E945D09CE0150
:1028A00007960E945D0961E088E00E9494026091B1
:1028B0003304662309F4A6C1CE0107960E94D2080C
:1028C0006FE573E0CE0101960E944C09BE01695F7D
:1028D0007F4FCE0101960E9468086AE174E00E9471
:1028E0005208BC01CE010D960E944309CE010D96FF
:1028F0000E94870ACE010D960E945D09CE010196C5
:102900000E945D09CE0107960E945D0961E089E0A1
:102910000E94940281E0809316068091B804909101
:10292000B904892B21F08091BA0481112AC08091C9
:102930003304811126C080913204811122C06CE2DF
:1029400071E0CE0101960E944C09CE0101960E94D1
:10295000870ACE0101960E945D0982E080931606E7
:1029600065E673E0CE0101960E944C09CE01019606
:102970000E94870ACE0101960E945D0981E0809342
:10298000160680913904811154C06CE271E0CE01C9
:1029900001960E944C09CE0101960E949C0ACE012C
:1029A00001960E945D096CE271E0CE0101960E94E1
:1029B0004C09CE0101960E949C0ACE0101960E940C
:1029C0005D096CE271E0CE0101960E944C09CE01D6
:1029D00001960E949C0ACE0101960E945D096CE25C
:1029E00071E0CE0101960E944C09CE0101960E9431
:1029F0009C0ACE0101960E945D096CE271E0CE0155
:102A000001960E944C09CE0101960E949C0ACE01BB
:102A100001960E945D096CE271E0CE0101960E9470
:102A20004C09CE0101960E949C0ACE0101960E949B
:102A30005D0910923A046E960FB6F894DEBF0FBE91
:102A4000CDBFDF91CF911F91FF90EF90DF90CF909E
:102A5000089510922A04FDCD2091C00430E0AFEF1C
:102A6000B3E00E94971B2FEF30E040E050E00E945F
:102A70001F1BC216D306E406F5060CF421CE6CEB40
:102A800072E0CE0101960E944C09CE0101960E948F
:102A9000870ACE0101960E945D0910922A0481E006
:102AA000809302018091BC048093BA0409CE6DEC3E
:102AB00072E0CE0101960E944C09CE0101960E945F
:102AC000920ACE0101960E945D0910922A04F8CD67
:102AD000113009F566E073E0CE0101960E944C09C1
:102AE000CE0101960E94870ACE0101960E945D09DF
:102AF0008091BC048093BA04109302018091BB04BE
:102B00002AE0829FC00111249093B9048093B804F5
:102B10001092290425CE123009F022CE6AEA71E023
:102B2000CE0101960E944C09CE0101960E94870AAF
:102B3000CE0101960E945D0981E080932A0410CEA7
:102B4000CE010D960E94D208809102016CE271E0E4
:102B5000811102C06FED71E0CE0101960E944C0917
:102B6000BE016F5F7F4FCE0107960E9443096FE25F
:102B700073E0CE0107960E945208BE01635F7F4F4B
:102B80000E94680866E972E00E945208BC01CE010A
:102B900043960E944309CE0143960E94870ACE01C4
:102BA00043960E945D09CE0107960E945D09CE0101
:102BB00001960E945D09CE010D96E4CD63E473E0B9
:102BC000CE0101960E944C09CE0101960E94870A0F
:102BD000CE0101960E945D0910922A0424CE8091B4
:102BE000BD0490914504992329F08093330429CEA4
:102BF0008091BD048093320424CE8091BD04F5CF32
:102C000060E052CE60E083CE0E948E1D1F920F9234
:102C10000FB60F9211242F933F938F939F93AF93EF
:102C2000BF938091AA049091AB04A091AC04B091A1
:102C3000AD043091A90423E0230F2D3758F50196F8
:102C4000A11DB11D2093A9048093AA049093AB0405
:102C5000A093AC04B093AD048091AE049091AF0406
:102C6000A091B004B091B1040196A11DB11D809353
:102C7000AE049093AF04A093B004B093B104BF919D
:102C8000AF919F918F913F912F910F900FBE0F9019
:102C90001F90189526E8230F0296A11DB11DD2CFD3
:102CA0001F920F920FB60F9211242F933F934F93C1
:102CB0005F936F937F938F939F93AF93BF93EF93A4
:102CC000FF938091B900887F803609F44AC0F0F5FF
:102CD000883209F4A7C018F5803109F49BC0B8F414
:102CE000882309F4F9C0883009F494C0FF91EF916A
:102CF000BF91AF919F918F917F916F915F914F9114
:102D00003F912F910F900FBE0F901F901895883113
:102D100009F488C0803251F78093E60414C08034EF
:102D200009F49DC040F48033B9F38833F9F68093F9
:102D3000E60485ECB0C0803509F485C0883509F417
:102D400096C0883499F60E946F06D0CF883909F46E
:102D50008CC038F5883729F050F4883611F0803768
:102D600029F683E08093E8041092A80457C08838BD
:102D700009F47BC0803919F0803809F0B7CF809111
:102D8000A804803208F071C0E091A80481E08E0FA1
:102D90008093A8048091BB00F0E0E857FB4F80834C
:102DA0003DC0803B39F0E0F4803A09F479C0883ABC
:102DB00009F09CCF84E08093E8041092870410927D
:102DC0008604E091B404F091B504099580918604DD
:102DD00081110FC081E0809386041092660409C0BF
:102DE000803C09F4A6CF883C09F4A3CF883B09F0C6
:102DF0007DCFE091870481E08E0F80938704F0E01F
:102E0000EA59FB4F80818093BB00909187048091A9
:102E1000860429C08091C3048093BB0085EC809315
:102E2000BC0064CF9091E5048091E404981758F5B4
:102E3000E091E50481E08E0F8093E504F0E0EC532F
:102E4000FB4F8081E9CFE091E50481E08E0F809314
:102E5000E5048091BB00F0E0EC53FB4F8083909140
:102E6000E5048091E4049817C8F285E8D8CFE09192
:102E7000E50481E08E0F8093E5048091BB00F0E0D3
:102E8000EC53FB4F80838091E70481115CCF81E09C
:102E90008093C20484EA8093BC001092E80426CF99
:102EA00085EC8093BC001092E8048091A8048032E5
:102EB00030F4E091A804F0E0E857FB4F10826091F5
:102EC000A80470E0E091B204F091B30488E894E0C3
:102ED00009951092A8040ACF1092E60434CFCF933C
:102EE000DF931092100510920F0588EE93E0A0E09A
:102EF000B0E08093110590931205A0931305B09351
:102F000014058EE091E090930E0580930D051092CC
:102F100008061092070610921106109212061092DF
:102F200014061092130610921506C1E0C0931606FF
:102F300080E291E090930606809305066DE673E0CB
:102F40008FEF95E00E944C0910921C0510921D0510
:102F500010921E05C0931F051092200510922105A6
:102F60001092220510922B0510922C0510922D051F
:102F700010922E051092370510923A058AE090E0E3
:102F800090933C0580933B0581E090E090933E0553
:102F900080933D0582E090E09093400580933F054B
:102FA000D0E0C0E06CE271E0CE018D5B9A4F0E94F0
:102FB0004C096CE271E0CE01855B9A4F0E944C098E
:102FC0006396CE3BD10571F78BE195E09093300588
:102FD00080932F058AE195E0909332058093310527
:102FE00089E195E09093340580933305DF91CF918B
:102FF0000895CF93DF93CDB7DEB768970FB6F894F7
:10300000DEBF0FBECDBF789484B5826084BD84B529
:10301000816084BD85B5826085BD85B5816085BDD3
:1030200080916E00816080936E001092810080918B
:103030008100826080938100809181008160809313
:103040008100809180008160809380008091B10038
:1030500084608093B1008091B00081608093B00063
:1030600080917A00846080937A0080917A008260F7
:1030700080937A0080917A00816080937A008091B9
:103080007A00806880937A001092C10066E873E04D
:10309000CE0101960E944C096AE873E0CE010796C2
:1030A0000E944C0900E09E012F5F3F4FAE01495F37
:1030B0005F4F61EC74E08CE39BE00E946209CE01FB
:1030C00007960E945D09CE0101960E945D0966E89F
:1030D00073E0CE0101960E944C0961EA73E0CE01D3
:1030E00007960E944C099E012F5F3F4FAE01495F3A
:1030F0005F4F60EC74E087E89BE00E946209CE01BC
:1031000007960E945D09CE0101960E945D0968EB59
:1031100073E0CE0101960E944C096EEB73E0CE0184
:1031200007960E944C0901E09E012F5F3F4FAE01C0
:10313000495F5F4F6FEB74E08FE392E00E9462099A
:10314000CE0107960E945D09CE0101960E945D099D
:103150006CE271E0CE0101960E944C0960ED73E0D3
:10316000CE0107960E944C099E012F5F3F4FAE0192
:10317000495F5F4F6EEB74E082EA9AE00E94620959
:10318000CE0107960E945D09CE0101960E945D095D
:103190006AEB73E0CE0101960E944C0965EE73E084
:1031A000CE0107960E944C099E012F5F3F4FAE0152
:1031B000495F5F4F6DEB74E083ED99E00E94620917
:1031C000CE0107960E945D09CE0101960E945D091D
:1031D00067E972E0CE0101960E944C0964EF73E04A
:1031E000CE0107960E944C099E012F5F3F4FAE0112
:1031F000495F5F4F6CEB74E08FEF99E00E946209CA
:10320000CE0107960E945D09CE0101960E945D09DC
:1032100067E972E0CE0101960E944C0966E074E015
:10322000CE0107960E944C0900E09E012F5F3F4FA0
:10323000AE01495F5F4F6BEB74E082ED9BE00E9453
:103240006209CE0107960E945D09CE0101960E9497
:103250005D096CE271E0CE010D960E944C0966E1B9
:1032600074E0CE0143960E944C09E0903D05F09039
:103270003E05BE01635F7F4FCE0107960E94430962
:10328000BE016D5E7F4FCE0101960E94430983E12E
:103290008E9D80018F9D100D1124C801845E9A4F70
:1032A0007C018BE29AE0F70196A385A3BE016F5FD4
:1032B0007F4FC8018D5B9A4F0E942C0983E091E0FB
:1032C000F70196A785A715AABE01695F7F4FC801C0
:1032D000855B9A4F0E942C09CE0101960E945D09E0
:1032E000CE0107960E945D09CE0143960E945D09BA
:1032F000CE010D960E945D0986E297E09093390514
:103300008093380581E080933A051092B7041092BB
:10331000B6041092EA0410920C051092E80480930F
:10332000E7041092C20461E082E10E94940261E02D
:1033300083E10E9494028091B9008E7F8093B9004E
:103340008091B9008D7F8093B90088E48093B800A4
:1033500085E48093BC0080E492E09093B504809370
:10336000B40481E492E09093B3048093B20482E0C9
:103370008093B800109218068CE380931706109281
:10338000090610920A06E1EDF2E085919491E82E8B
:10339000E3EDF2E0F490E4EDF2E0E491E0930B066B
:1033A000E5EDF2E0E491E0930C06E6EDF2E0E49165
:1033B000E0930D068C01802F8E198F1548F4F801CB
:1033C000649185E096E00E9446040F5F1F4FF3CFA3
:1033D0000E94BA04EBEEF0E0F0931406E0931306BB
:1033E0008491ECEEF0E0E491F82F319709F090C071
:1033F00010920E0690E080E00E94091B8130B9F027
:103400006CE174E0CE0101960E944C09CE01019658
:103410000E943E07CE0101960E945D090E94A4070A
:10342000E0913805F091390509950E94C7070E947F
:103430007F0760E085E00E94C20260E086E00E94B3
:10344000C20260E084E00E94C20260E083E00E9469
:10345000C20260E082E00E94C20261E089E00E9454
:10346000C20261E088E00E94C20260E08BE00E943C
:10347000C20260E080E10E94C20260E081E10E943D
:10348000C20260E08CE00E94C20260E08AE00E941A
:10349000C20261E08DE00E94C20260E08DE00E9405
:1034A000940290E080E00E94091B8130B9F06CE149
:1034B00074E0CE0101960E944C09CE0101960E9453
:1034C0003E07CE0101960E945D090E94A407E0918B
:1034D0003805F091390509950E94C7070E947F07BA
:1034E0008091BC048093BA048091BB04FAE08F9F62
:1034F000C00111249093B9048093B80400E010E057
:103500000E94180C01151105D9F30E940000F8CF94
:1035100081E080930E066ECFCF93DF93CFEFD5E09F
:103520006397CE010A960E945D09CE0102960E9421
:103530005D0985E0C134D80799F78FEF95E0DF91F9
:10354000CF910C945D09BB274A3031F4992322F4C2
:10355000BDE2909581959F4F0C94E01ABB272A30CD
:1035600051F4992342F4BDE2909580957095619550
:103570007F4F8F4F9F4F0C94BE1ABB27FA01A62F87
:103580006217710581059105330B30FB66F0AA27A0
:10359000660F771F881F991FAA1FA21710F0A21B82
:1035A00063953850A9F7A05DAA3308F0A95DA193EF
:1035B00036F7B111B1931082CA010C94F91ABB27E6
:1035C000FB015527AA27880F991FAA1FA41710F0DF
:1035D000A41B83955051B9F7A05DAA3308F0A95DEB
:1035E000A193009779F7B111B1931192CB010C948B
:1035F000F91ADC01FC01672F71917723E1F732970B
:1036000004C07C916D9370836291AE17BF07C8F3BD
:103610000895F999FECF92BD81BDF89A992780B59A
:103620000895262FF999FECF1FBA92BD81BD20BD06
:103630000FB6F894FA9AF99A0FBE01960895052EDE
:1036400097FB1EF400940E94361B57FD07D00E9482
:10365000751B07FC03D04EF40C94361B5095409517
:10366000309521953F4F4F4F5F4F0895909580952E
:10367000709561957F4F8F4F9F4F08952F923F9286
:103680004F925F926F927F928F929F92AF92BF9272
:10369000CF92DF92EF92FF920F931F93CF93DF931E
:1036A000CDB7DEB7CA1BDB0B0FB6F894DEBF0FBE7B
:1036B000CDBF09942A88398848885F846E847D84C8
:1036C0008C849B84AA84B984C884DF80EE80FD80CA
:1036D0000C811B81AA81B981CE0FD11D0FB6F89440
:1036E000DEBF0FBECDBFED010895A1E21A2EAA1BC9
:1036F000BB1BFD010DC0AA1FBB1FEE1FFF1FA217A2
:10370000B307E407F50720F0A21BB30BE40BF50B9E
:10371000661F771F881F991F1A9469F76095709527
:10372000809590959B01AC01BD01CF010895A29FAA
:10373000B001B39FC001A39F700D811D1124911D85
:10374000B29F700D811D1124911D0895EE0FFF1F72
:103750000590F491E02D09940F931F93CF93DF937D
:103760008230910510F482E090E0E0911B06F09128
:103770001C0630E020E0B0E0A0E0309799F421157D
:10378000310509F44AC0281B390B24303105D8F51E
:103790008A819B816115710589F1FB019383828385
:1037A000FE0111C0408151810281138148175907E0
:1037B000E0F04817590799F4109761F012960C93AE
:1037C000129713961C933296CF01DF91CF911F91E0
:1037D0000F91089500931B0610931C06F4CF21153A
:1037E000310551F04217530738F0A901DB019A0166
:1037F000BD01DF01F801C1CFEF01F9CF90931C06A5
:1038000080931B06CDCFFE01E20FF31F81939193AE
:103810002250310939832883D7CF2091190630915E
:103820001A06232B41F420910601309107013093B1
:103830001A062093190620910401309105012115E3
:10384000310541F42DB73EB740910801509109016F
:10385000241B350BE0911906F0911A06E217F307C5
:10386000A0F42E1B3F0B2817390778F0AC014E5FF0
:103870005F4F2417350748F04E0F5F1F50931A060D
:1038800040931906819391939FCFF0E0E0E09CCFA5
:10389000CF93DF930097E9F0FC01329713821282F5
:1038A000A0911B06B0911C06ED0130E020E01097BE
:1038B000A1F420813181820F931F2091190630914C
:1038C0001A062817390709F061C0F0931A06E09329
:1038D0001906DF91CF910895EA01CE17DF07E8F5C9
:1038E0004A815B819E0141155105B1F7E901FB83D6
:1038F000EA8349915991C40FD51FEC17FD0761F474
:10390000808191810296840F951FE90199838883B4
:10391000828193819B838A83F0E0E0E012968D910F
:103920009C9113970097B9F52D913C911197CD017A
:103930000296820F931F2091190630911A062817BC
:10394000390739F6309751F510921C0610921B0674
:10395000B0931A06A0931906BCCFD383C2834081CB
:103960005181840F951FC817D90761F44E5F5F4FCF
:1039700088819981480F591F518340838A819B8197
:10398000938382832115310509F0B0CFF0931C0693
:10399000E0931B069ECFFD01DC01C0CF1382128293
:1039A000D7CFB0E0A0E0E7EDFCE10C94401B8C0128
:1039B000009751F4CB010E94AC1B8C01C801CDB71C
:1039C000DEB7E0E10C945C1BFC01E60FF71F9C01E5
:1039D00022503109E217F30708F49DC0D901CD91B7
:1039E000DC911197C617D70798F0C530D10530F391
:1039F000CE0104978617970708F3C61BD70B2297AB
:103A0000C193D1936D937C93CF010E94481CD6CF74
:103A10005B01AC1ABD0A4C018C0E9D1EA0911B06C9
:103A2000B0911C06512C412CF12CE12C109731F552
:103A30008091190690911A068815990509F05CC0C5
:103A40004616570608F058C0809104019091050170
:103A5000009741F48DB79EB740910801509109013C
:103A6000841B950BE817F90708F055C0F0931A0668
:103A7000E0931906F90171836083A0CF8D919C9129
:103A8000119712966C90129713967C901397A81525
:103A9000B90559F56C0142E0C40ED11CCA14DB040F
:103AA00020F1AC014A195B09DA011296159780F0F2
:103AB0006282738251834083D9016D937C93E114B8
:103AC000F10471F0D7011396FC93EE93129776CF21
:103AD00022968C0F9D1FF90191838083F301EFCF14
:103AE000F0931C06E0931B0669CF4816590608F4AC
:103AF0002C017D01D3019ACFCB010E94AC1B7C012C
:103B0000009749F0AE01B8010E94931DC8010E94C0
:103B1000481C870153CF10E000E050CF81E090E0D7
:103B2000F8940C94A31DFB01DC0102C001900D92DE
:103B300041505040D8F70895FB01DC0101900D92EF
:103B40000020E1F7089511E0CDE6D1E004C0FE01C8
:103B50000E94A61B2196CE36D107C9F7F894FFCF55
:103B60003200010100001D06800000000000F70681
:103B7000CA067C07A006C306B006A1060000000026
:103B8000D504F5017C077B0742070D0A0046696CE6
:103B90007465722066616C73652073656E736F72F5
:103BA0007300666C69636B6572696E6700496620B5
:103BB0006E6F742073656520666C6F772077617413
:103BC0006572007468656E206F6E2C74696D656F28
:103BD00075742E004175746F0043697479205761C4
:103BE0007465720057656C6C20576174657200498A
:103BF000676E6F72652E0052657365742065727210
:103C00006F72732E005475726E206F6E2077617420
:103C100065722E0054696D6572207768656E207339
:103C20006F6D657468696E670074616B6520746F91
:103C3000206C6F6E6720746F2066696C6C2E003F7D
:103C40003E0021213E005B50002020202020204DFE
:103C5000454E55003C526573657420746F20646551
:103C60006661756C743E00507265737320757020C8
:103C7000746F2072657365740020446F6E65002058
:103C8000205B455849545D005B2D5D004D696E69B0
:103C90006D756D2057656C6C2057617465722000DE
:103CA0004578657074696F6E5F536F757263655F99
:103CB00056696E2000427574746F6E5F4578746546
:103CC000726E616C2000575F464C4F573A002028B7
:103CD000002900575F50524541535552453A005B09
:103CE0002000205D00466C6F772074696D65206C44
:103CF0006566743A2000206D696E0046696C6C2020
:103D000063616E3A002F00464C6F77204F4E005093
:103D100072657373757265204C6F770050726573AE
:103D2000737572652052656163686564004E6572E3
:103D30006120536C6567696F2073656E736F72697C
:103D40006175732100536F757263652062757474B9
:103D50006F6E3A4F6E00427574746F6E3A00696709
:103D60006E6F72652E00726573657420616C6C20D5
:103D70006572726F72732E004572726F72206E6F71
:103D800020666C6F77696E67207761746572004991
:103D90007320666C6F773A200046696C6C696E67B9
:103DA0003A20004572726F722046696C6C696E67CA
:103DB00020746F206C6F6E67004369747920005720
:103DC000656C6C20004B4C4149444121002020206F
:103DD00020202020202020202020202020202020E3
:103DE00020202020200070736900576174657220C4
:103DF0007072657373757265206D696E696D756D2E
:103E000000576174657220707265737375726520F6
:103E10006D6178696D756D00752F73656300466C13
:103E20006F77206D696E696D756D207261746500C4
:103E30005468656E2045787465726E616C204275B9
:103E400074746F6E0044656C6179204F6E20576109
:103E5000746572004E6F74205375636B696E6720D2
:103E6000576174657200576F726B696E6720746F6B
:103E7000206C6F6E67004D6F646573004D454D4F4C
:083E8000525920534554210062
:00000001FF
