:100000000C946E000C9496000C9496000C94960040
:100010000C9496000C9496000C9496000C94960008
:100020000C9496000C9496000C9496000C949600F8
:100030000C9496000C9496000C9496000C949600E8
:100040000C949B070C9496000C9496000C949600CC
:100050000C9496000C9496000C9496000C949600C8
:100060000C94E5070C949600000000002300260085
:1000700029002C00000000085002010000030407C2
:10008000000000000000000000000000000025004B
:1000900028002B002E0000000000240027002A006A
:1000A0002D000404040404040404020202020202F7
:1000B0000303030303030505050505050501020404
:1000C00008102040800102040810200102040810DA
:1000D0002002080104102040FB088A0F11241FBED3
:1000E000CFEFD8E0DEBFCDBF23E0A2EAB1E001C090
:1000F0001D92AD3AB207E1F711E0A0E0B1E0E6E50C
:10010000F4E202C005900D92A23AB107D9F710E0CF
:10011000CDE6D0E004C02197FE010E942110CC362C
:10012000D107C9F70E94A2090C941E120C9400007A
:100130002091400281E0213208F040C080911C02F1
:100140008111FCCF80913F0292E090931C0291E0DC
:1001500090931B029FEF90931A0210921902209322
:100160001802AFE1B2E0E8EFF1E090E029132DC012
:100170001092F7019091F701880F892B8093F70176
:100180008091F601813031F41092F6018091F701EF
:100190008093BB0085EE8093BC0080911C0282306E
:1001A000E1F380911A028F3FA1F080911A02803210
:1001B00091F080911A02803381F084E010921E0247
:1001C0001092400210921D0208953D9131939F5F5D
:1001D000CDCF80E0F3CF82E0F1CF83E0EFCFCF93BC
:1001E000DF93EBECF0E02491E0EBF0E084918823E6
:1001F000C1F090E0880F991FFC01EA56FF4FC591AE
:10020000D491FC01E657FF4FA591B4919FB7F894A4
:100210008881E22FE0958E2388838C91E823EC93EC
:100220009FBFDF91CF910895AF92BF92CF92DF929F
:10023000EF92FF920F931F93CF93DF936C017B019B
:100240008B01040F151FEB015E01AE18BF08C0172C
:10025000D10759F06991D601ED91FC910190F0819F
:10026000E02DC6010995892B79F7C501DF91CF9162
:100270001F910F91FF90EF90DF90CF90BF90AF90C4
:100280000895089581508B3088F5E82FF0E0E55B04
:10029000FE4F0C9421106001640156015C0176014F
:1002A000760167016D01710177017B01809180000A
:1002B0008F77809380000895809180008F7DF9CFA3
:1002C00084B58F7784BD089584B58F7DFBCF8091F1
:1002D000B0008F778093B00008958091B0008F7D3B
:1002E000F9CF809190008F7780939000089580914E
:1002F00090008F7DF9CF80919000877FF5CFCF93CD
:10030000DF93282F30E0F901EC58FF4F8491F90179
:10031000E354FF4FD491F901EE55FF4FC491CC2324
:10032000A1F081110E944201EC2FF0E0EE0FFF1FBF
:10033000E859FF4FA591B491EC91ED2381E090E055
:1003400009F480E0DF91CF91089580E090E0FACF4A
:100350001F93CF93DF93282F30E0F901EC58FF4F24
:100360008491F901E354FF4FD491F901EE55FF4F09
:10037000C491CC23A9F0162F81110E944201EC2FC9
:10038000F0E0EE0FFF1FE657FF4FA591B4918FB736
:10039000F894EC91111108C0D095DE23DC938FBF47
:1003A000DF91CF911F910895DE2BF8CF1092F501C8
:1003B0001092F40110921E0210924002EEE7F0E05B
:1003C00080818F7C808310921C0281E080931B02CD
:1003D0001092F60161E082E10E94A80161E083E1F0
:1003E0000E94A801E9EBF0E080818E7F808380810C
:1003F0008D7F808388E48093B80085E48093BC007F
:1004000008953FB7F8948091EA019091EB01A09193
:10041000EC01B091ED0126B5A89B05C02F3F19F066
:100420000196A11DB11D3FBFBA2FA92F982F882774
:10043000BC01CD01620F711D811D911D42E0660F4F
:10044000771F881F991F4A95D1F708958F929F9221
:10045000AF92BF92CF92DF92EF92FF926B017C013D
:100460000E9401024B015C01C114D104E104F104BA
:10047000B9F00E940102681979098A099B09683E4E
:1004800073408105910580F321E0C21AD108E1088B
:10049000F10888EE880E83E0981EA11CB11CE4CF01
:1004A000FF90EF90DF90CF90BF90AF909F908F9094
:1004B0000895CF93DF93EC01E0916102F091620225
:1004C0008081882359F088818F3F41F08F5F888336
:1004D0006AE070E080E090E00E942602E091630212
:1004E000F09164028081882369F08881882351F02B
:1004F000815088836AE070E080E090E0DF91CF91E6
:100500000C942602DF91CF9108952FB7F894609153
:10051000E6017091E7018091E8019091E9012FBF18
:100520000895E0916102F091620280818823F9F0E0
:100530008091530220916F0230917002821713064E
:1005400009F0ACF490915402992389F090915502EE
:1005500091110DC08F5F809353020E9485026093BA
:100560005B0270935C0280935D0290935E02E09167
:100570006302F091640280818823C9F08091530264
:100580008230A8F090915402992389F090915502FD
:1005900091110DC08150809353020E948502609397
:1005A0005B0270935C0280935D0290935E02E09127
:1005B0006502F09166028081882371F08091550276
:1005C00081110AC00E94850260935B0270935C02F5
:1005D00080935D0290935E020E948502AB01BC0194
:1005E00080915B0290915C02A0915D02B0915E02ED
:1005F00088539045AF4FBF4F84179507A607B7079D
:1006000058F480915502811107C010925002109247
:10061000510281E080935302E0916102F091620205
:100620008081811107C0E0916302F09164028081B2
:10063000882329F01092540280915302089581E09A
:1006400080935402F9CF21E001C0220F6A95EAF7A6
:10065000DC011C962C931C971A965C934E93199769
:10066000ED91FC910484F585E02D60E00994DC01B6
:10067000ED91FC910684F785E02D41E0099581E03C
:1006800090E00895DC01ED91FC910684F785E02D62
:1006900040E00994CF93DF93CDB7DEB728970FB62C
:1006A000F894DEBF0FBECDBF409106015091070107
:1006B00060910801709109014D835E836F83788793
:1006C00040910A0150910B0160910C0170910D0154
:1006D00049835A836B837C8320919703821710F0A0
:1006E0008FEF820F90E0309198038C0F9D1FFC01DB
:1006F000303181F4243071F46181606880E993E0E5
:1007000028960FB6F894DEBF0FBECDBFDF91CF9114
:100710000C9442036581F1CF61E00E9442038BE3B8
:100720009FE10197F1F708950F931F93CF93DF9304
:10073000EC01423018F08C8188608C834F8368878D
:10074000222329F0413019F48C8184608C8364E683
:1007500070E080E090E00E9426026C8164FD57C04A
:10076000E881F9810684F785E02D42E063E0CE015F
:1007700009958BE496E40197F1F7E881F981068405
:10078000F785E02D42E063E0CE01099503E512E034
:10079000C8010197F1F7E881F9810684F785E02D1A
:1007A00042E063E0CE010995C8010197F1F7E881C5
:1007B000F9810684F785E02D42E062E0CE010995DB
:1007C000C8010197F1F76C816062CE010E9442037B
:1007D0008BEE90E00197F1F784E08D836CE0CE0121
:1007E0000E944203CE010E948C0382E08E8366E069
:1007F000CE010E944203E881F9810484F585E02D51
:100800006FEFCE01DF91CF911F910F91099460623C
:10081000CE010E9442038BE496E40197F1F76C81CC
:100820006062CE010E94420303E512E0C801019715
:10083000F1F76C816062CE010E944203C1CF08953E
:100840000895089585ED8093BC008091BC0084FDDF
:10085000FCCF10921C020895613298F420911C0282
:10086000243089F46093C201282FA2EAB1E0FC0190
:100870008E2F821B861710F080E0089581918D9352
:10088000F7CF81E0089582E00895089581E090E037
:100890003091F5012091F401321710F490E080E0DE
:1008A00091958195910908958091F5019091F401B8
:1008B000891730F48F5F8093F50190E080E0089510
:1008C0008FEF9FEF08958091F4019091F501891BBE
:1008D000990B0895CF92DF92EF92FF920F931F939F
:1008E000CF93DF937C01CB018A0120911D0222234B
:1008F00089F0EB016B01C40ED51ECC15DD0569F046
:100900006991D701ED91FC910190F081E02DC70133
:100910000995F3CF642F0E942C04C801DF91CF9179
:100920001F910F91FF90EF90DF90CF900895CF939C
:10093000DF931F92CDB7DEB7698320911D0222237A
:10094000F9F020914002203258F021E030E0FC0123
:100950003383228390E080E00F90DF91CF91089560
:1009600080911E02E82FF0E0E15EFD4F99819083B7
:100970008F5F80931E028093400281E090E0ECCF75
:1009800061E0CE0101960E942C04F7CFFC01238187
:100990002223F1F0262F618160956223608382819A
:1009A00091E090931D0280933F0210921E021092DC
:1009B000400281E492E00E9497040E949800282F50
:1009C00030E081E090E0232B11F090E080E008958A
:1009D00030E020E0F6CFEF92FF920F931F93CF937A
:1009E0008C01FC0184E0C0E0262F30E060FF02C0F3
:1009F0009589C92BB90175956795815031968111FB
:100A0000F3CF413011F4F8014489F8016585C62B14
:100A1000C42B7801FEE0EF0EF11CF80162896C2B0B
:100A2000C7010E94C604F801628960956C23C70162
:100A3000CF911F910F91FF90EF900C94C6040F93EC
:100A40001F93CF93DF93062F0F70423041F440E0A5
:100A5000602FDF91CF911F910F910C94EB04142F15
:100A6000EC0170E084E0759567958A95E1F7CE0119
:100A70000E94EB04412F602FCE01EBCFFC01848557
:100A80008823A1F0218532852115310521F46111DA
:100A900007C0158606C021303105D9F76111F9CF9D
:100AA00085876585CF010E960C94C6040895EF9254
:100AB000FF920F931F93CF93DF93EC01062FF42E39
:100AC000E22E8B85888B0E94D601888911E01093D5
:100AD0001D0280933F0210921E02109240020E945B
:100AE000980081111CC0198B81E492E00E9454048B
:100AF0008E878989882339F01F861C8260E0CE01A9
:100B00000E960E94C6042E2D4F2D602FCE01DF9130
:100B1000CF911F910F91FF90EF900C949403198A3D
:100B2000E8CF90E080E0089508950895089508952D
:100B30000895FC01448155816081718180E993E0D1
:100B40000C94140181BD917092BDF89A00000000D0
:100B500020B5621761F02FB781BD92BD60BDF894DA
:100B600084E08FBB82E08FBB2FBF81E0089580E0DF
:100B700008958F929F92AF92BF920F931F93CF933E
:100B8000DF93CDB7DEB7A1970FB6F894DEBF0FBEE7
:100B9000CDBF19A2423008F44AE08E010F5D1F4F0D
:100BA000842E912CB12CA12CA50194010E94FF0F41
:100BB000E62FB901CA01EA3044F5E05DD801EE93B1
:100BC0008D01232B242B252B79F790E080E01097C3
:100BD00069F0FD0101900020E9F73197AF014A1B50
:100BE0005B0BBD0180E993E00E941401A1960FB652
:100BF000F894DEBF0FBECDBFDF91CF911F910F9153
:100C0000BF90AF909F908F900895E95CD7CF0F93DE
:100C10001F93CF93DF93EC0188819981009759F05E
:100C20002A813B812617370730F081E0DF91CF9191
:100C30001F910F9108958B016F5F7F4F0E944C11A0
:100C4000009759F0998388831B830A832C813D8107
:100C5000232B59F7FC011082E8CF80E0E7CFCF9338
:100C6000DF93EC0188819981009711F00E94C310F5
:100C7000198218821D821C821B821A82DF91CF91F9
:100C800008950F931F93CF93DF93EC010C811D8187
:100C90000F5F1F4FB8010E940706882391F028813B
:100CA00039818C819D816BE971E0820F931F0E94D5
:100CB00017121D830C83CE01DF91CF911F910F91ED
:100CC0000895CE010E942F06F6CFEF92FF920F9368
:100CD0001F93CF93DF93EC01FB01E080F180E114DF
:100CE000F10411F10481158101151105A9F08C8120
:100CF0009D81080F191FB801CE010E9407068823A5
:100D000099F0288139818C819D81B701820F931FD1
:100D10000E9417121D830C83CE01DF91CF911F918A
:100D20000F91FF90EF900895CE010E942F06F4CF0F
:100D3000EF92FF920F931F93CF93DF93EC017B0110
:100D40008A01BA010E94070681110BC0CE010E94E0
:100D50002F06CE01DF91CF911F910F91FF90EF9061
:100D600008951D830C83B701888199810E94171211
:100D7000F0CFEF92FF920F931F93CF93DF93CDB7F6
:100D8000DEB729970FB6F894DEBF0FBECDBF8C013A
:100D9000862FF8011182108213821282158214822A
:100DA0004AE09E012F5F3F4F7901B90190E00E9418
:100DB0009E0FF70101900020E9F73197AF014E191E
:100DC0005F09B701C8010E94980629960FB6F894EA
:100DD000DEBF0FBECDBFDF91CF911F910F91FF906E
:100DE000EF900895CF93DF93EC01FB0186179707EF
:100DF00049F0608171816115710541F0448155812F
:100E00000E949806CE01DF91CF9108950E942F068F
:100E1000F9CFFC0111821082138212821582148292
:100E20000C94F206FC011182108213821282158248
:100E30001482FB0101900020E9F73197AF01461BB6
:100E4000570B0C949806FC01808191810C94C3107F
:100E50005F926F927F928F929F92AF92BF92CF924A
:100E6000DF92EF92FF920F931F93CF93DF93CDB753
:100E7000DEB72C970FB6F894DEBF0FBECDBF4C0186
:100E80005B013A01502E80E5E82E82E0F82EF70152
:100E9000C78CD0A0B901CE0101960E940907B30109
:100EA000CE0107960E94090783E18C9D80018D9DEC
:100EB000100D1124C801805B9D4F6C01FC0194A2B0
:100EC00083A2BE01695F7F4FC8018B589D4F0E946E
:100ED000F206F601B4A6A3A653AABE016F5F7F4F28
:100EE000C80183589D4F0E94F206CE0107960E94CA
:100EF0002307CE0101960E942307F701878D90A159
:100F0000019690A3878F2C960FB6F894DEBF0FBE84
:100F1000CDBFDF91CF911F910F91FF90EF90DF90A8
:100F2000CF90BF90AF909F908F907F906F905F9089
:100F300008950E9409121F920F920FB60F9211246A
:100F40002F933F938F939F93AF93BF938091E6012D
:100F50009091E701A091E801B091E9013091E5019C
:100F600023E0230F2D3758F50196A11DB11D2093C5
:100F7000E5018093E6019093E701A093E801B09327
:100F8000E9018091EA019091EB01A091EC01B0910F
:100F9000ED010196A11DB11D8093EA019093EB0133
:100FA000A093EC01B093ED01BF91AF919F918F9110
:100FB0003F912F910F900FBE0F901F90189526E82C
:100FC000230F0296A11DB11DD2CF1F920F920FB613
:100FD0000F9211242F933F934F935F936F937F93BF
:100FE0008F939F93AF93BF93EF93FF938091B9003B
:100FF000887F803609F44AC0F0F5883209F4A5C02C
:1010000018F5803109F499C0B8F4882309F4F0C0C8
:10101000883009F492C0FF91EF91BF91AF919F91F9
:101020008F917F916F915F914F913F912F910F9091
:101030000FBE0F901F901895883109F486C080323A
:1010400051F780931A0214C0803409F49BC040F415
:101050008033B9F38833F9F680931A0285ECAEC079
:10106000803509F483C0883509F494C0883499F632
:101070000E942204D0CF883909F48AC038F5883715
:1010800029F050F4883611F0803729F683E08093F8
:101090001C021092E40155C0883809F479C08039E7
:1010A00019F0803809F0B7CF8091E401803208F060
:1010B0006FC0E091E40181E08E0F8093E4018091A4
:1010C000BB00F0E0EC53FE4F80833BC0803B39F027
:1010D000D0F4803A09F477C0883A09F09CCF84E0D4
:1010E00080931C021092C3011092C201F0E0E0E074
:1010F00009958091C20181110FC081E08093C201E6
:101100001092A20109C0803C09F4A8CF883C09F4E0
:10111000A5CF883B09F07FCFE091C30181E08E0F1E
:101120008093C301F0E0EE55FE4F80818093BB00B9
:101130009091C3018091C20129C08091F7018093F1
:10114000BB0085EC8093BC0066CF90911902809122
:101150001802981758F5E091190281E08E0F8093DC
:101160001902F0E0E850FE4F8081E9CFE0911902CA
:1011700081E08E0F809319028091BB00F0E0E8506F
:10118000FE4F808390911902809118029817C8F23F
:1011900085E8D8CFE091190281E08E0F8093190283
:1011A0008091BB00F0E0E850FE4F808380911B02ED
:1011B00081115ECF81E08093F60184EA8093BC00C8
:1011C00010921C0228CF8091E401803230F4E0912B
:1011D000E401F0E0EC53FE4F10826091E40170E016
:1011E00084EC91E0F0E0E0E009951092E40136CF64
:1011F00010921A023DCFCF93DF9380E886BF9CE424
:1012000096BF109244021092430248EE53E060E011
:1012100070E04093450250934602609347027093FA
:10122000480222E131E030934202209341021092C1
:1012300093031092920324E231E0309391032093C0
:1012400090031092A0039FEF90939F0310929E0330
:101250001092A1039FE390939B0310929C03109222
:101260009D0310929A031092990394E09093A20325
:1012700092E09093A303C1E0C093A40390E1909304
:10128000A50390E29093A60390E49093A703809324
:10129000A80350E040E063E080E993E00E9423036C
:1012A000109250021092510210925202C0935302B7
:1012B00010925402109255021092560210925F0240
:1012C000109260021092690210926C028AE090E023
:1012D00090936E0280936D0282E090E09093700292
:1012E00080936F0281E090E090937202809371028C
:1012F000D0E0C0E06FE871E0CE018B589D4F0E94B6
:1013000012076FE871E0CE0183589D4F0E941207CB
:101310006396CD3181E0D80769F78FE492E090932E
:101320006202809361028EE492E090936402809363
:1013300063028DE492E09093660280936502DF91F0
:10134000CF910895CF93DF93CDB7DEB768970FB6EF
:10135000F894DEBF0FBECDBF8091F20080618EBBDE
:1013600080E88093F2009EB39093F2008093610036
:1013700081E080936100789484B5826084BD84B5F7
:10138000816084BD85B5826085BD85B5816085BD80
:1013900080916E00816080936E0010928100809138
:1013A00081008260809381008091810081608093C0
:1013B0008100809180008160809380008091B100E5
:1013C00084608093B1008091B00081608093B00010
:1013D0008091910082608093910080919100816062
:1013E0008093910080919000816080939000809123
:1013F0007A00846080937A0080917A008260809382
:101400007A0080917A00816080937A0080917A00DE
:10141000806880937A001092C1000E94D60182E019
:101420008093B80064EF71E080E090E00E942602B3
:1014300020E042E060E180E993E00E94570568EE19
:1014400073E080E090E00E94260220E042E060E14C
:1014500080E993E00E94570564EF71E080E090E03E
:101460000E94260261E080E993E00E943E05E0E5EB
:10147000F2E081E090E0739620916F02309170026B
:10148000821793079CF420916D0230916E02280F11
:10149000391F21BD232F217022BDF89A00000000C2
:1014A00020B5A3A5B4A52C930196E5CF64EF71E018
:1014B00080E090E00E94260264E371E0CE01019694
:1014C0000E94120768E371E0CE0107960E9412079E
:1014D00001E09E012F5F3F4FAE01495F5F4F63EF19
:1014E00071E088E995E00E942807CE0107960E94E6
:1014F0002307CE0101960E94230764E371E0CE0129
:1015000001960E9412076DE371E0CE0107960E94DA
:1015100012079E012F5F3F4FAE01495F5F4F62EFA1
:1015200071E087E995E00E942807CE0107960E94A6
:101530002307CE0101960E94230762E471E0CE01E9
:1015400001960E94120768E471E0CE0107960E949E
:1015500012079E012F5F3F4FAE01495F5F4F61EF62
:1015600071E086E995E00E942807CE0107960E9467
:101570002307CE0101960E9423076DE471E0CE019E
:1015800001960E94120761E571E0CE0107960E9464
:10159000120700E09E012F5F3F4FAE01495F5F4F92
:1015A00060EF71E085E995E00E942807CE0107967B
:1015B0000E942307CE0101960E9423076DE471E08B
:1015C000CE0101960E94120766E571E0CE010796F2
:1015D0000E94120701E09E012F5F3F4FAE01495F5D
:1015E0005F4F6FEE71E085E995E00E942807CE011C
:1015F00007960E942307CE0101960E94230764E309
:1016000071E0CE010D960E9412076BE571E0CE01EC
:1016100043960E941207E0907102F0907202BE01A0
:10162000635F7F4FCE0107960E940907BE016D5E82
:101630007F4FCE0101960E94090783E18E9D8001B4
:101640008F9D100D11249801205B3D4F790181E49D
:1016500091E0D90194969C938E939397BE016F5F0E
:101660007F4FC8018B589D4F0E94F2068EEE91E08D
:10167000F70194A783A7DD24D394D3AABE01695FA1
:101680007F4FC80183589D4F0E94F206CE010196FC
:101690000E942307CE0107960E942307CE0143969E
:1016A0000E942307CE010D960E94230784E995E04E
:1016B00090936B0280936A02D0926C020E94EF00BA
:1016C0000E94EF000E94EF00CC24C39413E120E0BD
:1016D000E22E20E0F22E01E08EE00E947F0121E068
:1016E000892B09F420E020934F028CE00E947F01B7
:1016F00021E0892B09F420E020934E028DE00E9426
:101700007F0121E0892B09F420E020934D02E09134
:101710006502F09166028081811105C080915002BE
:10172000882309F4E8C30093500280818111DDC051
:10173000809151028111F3C0E0916502F09166023F
:1017400080818111A4C30E948502AB01BC018091FC
:10175000570290915802A0915902B0915A028A51B1
:101760009F4FAF4FBF4F84179507A607B70738F4B1
:10177000E0916502F091660280818111A1C30E940F
:101780008502AB01BC018091570290915802A09153
:101790005902B0915A02845D9F44AF4FBF4F8417E6
:1017A0009507A607B70708F48BC30093520200936E
:1017B000500280915202882309F45BC380E00E94AA
:1017C0004A0369E971E0CE0101960E941207CE0139
:1017D00001960E949905CE0101960E9423078091EF
:1017E000710290917202189FB001199F700D11241F
:1017F0006B587D4FCE0101960E940907CE010196DC
:101800000E949905CE0101960E94230780917102E2
:1018100090917202189FF001199FF00D1124E05B66
:10182000FD4F03A0F4A1E02D0995809171029091E4
:101830007202189FF001199FF00D1124E05BFD4F1B
:1018400083A9882309F441C081E00E944A03809162
:10185000710290917202189FF001199FF00D1124EE
:10186000E05BFD4F03A4F4A5E02D608170E090E003
:1018700080E04AE00E94B905209171023091720225
:10188000129FC001139F900D1124FC01E358FD4FDE
:101890005F016EE871E0CE0101960E941207B5016A
:1018A000CE0101960E946506BC01CE0107960E94FA
:1018B0000907CE0107960E949905CE0107960E945E
:1018C0002307CE0101960E94230780917102909117
:1018D0007202189FF001199FF00D1124E05BFD4F7B
:1018E00083A594A50E945902C4C20E948502AB013F
:1018F000BC018091570290915802A0915902B09179
:101900005A0288579C4EAF4FBF4F84179507A607C2
:10191000B70708F00DCF80915202811109CF0E94C4
:101920008502AB01BC018091570290915802A091B1
:101930005902B0915A028A56964EAF4FBF4F841744
:101940009507A607B70708F4DBC000935102009380
:101950005002E0916502F09166028081811105C01C
:1019600080915102882309F496C280E00E944A03C4
:101970000E94910220916F0230917002821713062B
:101980005CF50E949102682FCE0107960E94B9066D
:1019900067E671E0CE0101960E941207BE01695F01
:1019A0007F4FCE0101960E9465060E944106BC0150
:1019B000CE010D960E940907CE010D960E94990551
:1019C000CE010D960E942307CE0101960E942307A7
:1019D000CE0107960E94230780915502882309F4BF
:1019E00082C11092560280916C02811197C10E94AF
:1019F000910290E00196189FB001199F700D11247B
:101A00006B587D4FCE0101960E940907CE010196C9
:101A10000E949905CE0101960E94230780915502EC
:101A2000882309F4C5C10E94910290E00196189F95
:101A3000F001199FF00D1124E05BFD4F03A0F4A10C
:101A4000E02D099580E00E944A030E94910290E0F7
:101A50000196189FF001199FF00D1124E05BFD4FD6
:101A600083A98823E9F10E94910290E00196189FD2
:101A7000F001199FF00D1124E05BFD4F03A4F4A5C4
:101A8000E02D608170E090E080E04AE00E94B905BE
:101A90000E949102D82E6EE871E0CE0101960E945C
:101AA00012078D2D90E00196189FB001199F700DBF
:101AB000112463587D4FCE0101960E946506BC013A
:101AC000CE0107960E940907CE0107960E9499054C
:101AD000CE0107960E942307CE0101960E9423079C
:101AE0000E94910290E00196189FF001199FF00D5D
:101AF0001124E05BFD4F83A594A50E94590258C1B3
:101B0000E0916502F09166028081882309F41DCF7F
:101B100080915502882309F4E3C00E94910280E578
:101B2000882E82E0982EAA24A394B12CF3E18F0E84
:101B3000911C80916F0290917002A816B9068CF4E6
:101B4000D4019B96ED91FC9180916D0290916E0273
:101B500060818A0D9B1D0E94A205BFEFAB1ABB0AD4
:101B6000E5CF80916002811196C00E949102209180
:101B70006F0230917002821713065CF50E94910289
:101B8000682FCE0107960E94B90667E671E0CE0184
:101B900001960E941207BE01695F7F4FCE01019638
:101BA0000E9465060E944106BC01CE010D960E946E
:101BB0000907CE010D960E949905CE010D960E944F
:101BC0002307CE0101960E942307CE0107960E94AB
:101BD00023076FE871E0CE0101960E941207CE0143
:101BE00001960E949905CE0101960E9423076FE895
:101BF00071E0CE0101960E941207CE0101960E946B
:101C00009905CE0101960E9423076FE871E0CE018D
:101C100001960E941207CE0101960E949905CE01FD
:101C200001960E9423076FE871E0CE0101960E94A1
:101C30001207CE0101960E949905CE0101960E94DD
:101C400023076FE871E0CE0101960E941207CE01D2
:101C500001960E949905CE0101960E9423076FE824
:101C600071E0CE0101960E941207CE0101960E94FA
:101C70009905CE0101960E9423076FE871E0CE011D
:101C800001960E941207CE0101960E949905CE018D
:101C900001960E942307009360026CE370E080E0ED
:101CA00090E00E942602809155028C258093550277
:101CB0000E94910220916F023091700282171306E8
:101CC00041F410925002109251020093530210926C
:101CD000550262E870E080E090E00E94260239CE72
:101CE00010926002E0CF0E94910220916F02309129
:101CF0007002821713060CF074CE009356026AE647
:101D000071E0CE0101960E941207CE0101960E9459
:101D10009905CE0101960E94230765CE0E9491028B
:101D200020916F0230917002215031098217130601
:101D300009F05DCE809155028823D1F166E771E00C
:101D4000CE0101960E941207CE0101960E949905CC
:101D5000CE0101960E942307E0916102F091620298
:101D60008081882329F181E00E944A0368E871E0BC
:101D7000CE0101960E941207CE0101960E9499059C
:101D8000CE0101960E942307E0916A02F0916B0256
:101D9000099560ED77E080E090E00E942602809156
:101DA00055028C258093550280E993E00E948C03B4
:101DB0000E94910220916F023091700282171306E7
:101DC000ECF080E00E944A0360E971E0CE010196E8
:101DD0000E941207CE0101960E949905CE0101963C
:101DE0000E94230780915502882341F010925102EE
:101DF0001092520280E993E00E948C030E949102AB
:101E000020916F0230917002215031098217130620
:101E1000D9F58091600281112AC06FE871E0CE018E
:101E200001960E941207CE0101960E949905CE01EB
:101E300001960E9423076FE871E0CE0101960E948F
:101E40001207CE0101960E949905CE0101960E94CB
:101E500023076FE871E0CE0101960E941207CE01C0
:101E600001960E949905CE0101960E9423070093D6
:101E7000600280915102882371F0E114F10409F4A9
:101E80002BCC0E94000028CC10926002F2CF8091EF
:101E90005202811158CC809152028111EECF0E94E2
:101EA0004A036DE971E0CE0101960E941207CE014E
:101EB00001960E949905CE0101960E942307DDCF6D
:101EC0001092520210925002E0916802F091690261
:101ED00080916D0290916E02608101970E94A2052F
:101EE00080E993E00E948C0364E670E080E090E07B
:101EF0000E9426025ECC0E94850260935702709376
:101F000058028093590290935A02109252021092F2
:101F10005102AFCFCF93DF93C0E9D3E06397CE01F7
:101F20000A960E942307CE0102960E94230782E0B0
:101F3000C337D80799F7DF91CF910895BB27FB01ED
:101F40005527AA27880F991FAA1FA41710F0A41BB2
:101F500083955051B9F7A05DAA3308F0A95DA1930C
:101F6000009779F7B111B1931192CB010C94B80F8E
:101F7000DC01FC01672F71917723E1F7329704C0F0
:101F80007C916D9370836291AE17BF07C8F308957B
:101F90002F923F924F925F926F927F928F929F9279
:101FA000AF92BF92CF92DF92EF92FF920F931F9367
:101FB000CF93DF93CDB7DEB7CA1BDB0B0FB6F89418
:101FC000DEBF0FBECDBF09942A88398848885F8458
:101FD0006E847D848C849B84AA84B984C884DF80C9
:101FE000EE80FD800C811B81AA81B981CE0FD11DAD
:101FF0000FB6F894DEBF0FBECDBFED010895A1E28C
:102000001A2EAA1BBB1BFD010DC0AA1FBB1FEE1F72
:10201000FF1FA217B307E407F50720F0A21BB30BBD
:10202000E40BF50B661F771F881F991F1A9469F739
:1020300060957095809590959B01AC01BD01CF0195
:102040000895EE0FFF1F0590F491E02D09940F9372
:102050001F93CF93DF938230910510F482E090E0DC
:10206000E091AB03F091AC0330E020E0B0E0A0E001
:10207000309799F42115310509F44AC0281B390B12
:1020800024303105D8F58A819B816115710589F16C
:10209000FB0193838283FE0111C040815181028143
:1020A000138148175907E0F04817590799F410971A
:1020B00061F012960C93129713961C933296CF01EF
:1020C000DF91CF911F910F9108950093AB0310936F
:1020D000AC03F4CF2115310551F04217530738F006
:1020E000A901DB019A01BD01DF01F801C1CFEF01B8
:1020F000F9CF9093AC038093AB03CDCFFE01E20FF9
:10210000F31F819391932250310939832883D7CFCC
:102110002091A9033091AA03232B41F420910201BD
:10212000309103013093AA032093A9032091000169
:10213000309101012115310541F42DB73EB7409191
:10214000040150910501241B350BE091A903F09186
:10215000AA03E217F307A0F42E1B3F0B2817390739
:1021600078F0AC014E5F5F4F2417350748F04E0FF3
:102170005F1F5093AA034093A903819391939FCF2C
:10218000F0E0E0E09CCFCF93DF930097E9F0FC0113
:10219000329713821282A091AB03B091AC03ED0190
:1021A00030E020E01097A1F420813181820F931F4D
:1021B0002091A9033091AA032817390709F061C0BB
:1021C000F093AA03E093A903DF91CF910895EA0168
:1021D000CE17DF07E8F54A815B819E014115510565
:1021E000B1F7E901FB83EA8349915991C40FD51FE7
:1021F000EC17FD0761F4808191810296840F951F91
:10220000E90199838883828193819B838A83F0E0AB
:10221000E0E012968D919C9113970097B9F52D915E
:102220003C911197CD010296820F931F2091A90333
:102230003091AA032817390739F6309751F51092D3
:10224000AC031092AB03B093AA03A093A903BCCF35
:10225000D383C28340815181840F951FC817D9074A
:1022600061F44E5F5F4F88819981480F591F5183F8
:1022700040838A819B81938382832115310509F0F4
:10228000B0CFF093AC03E093AB039ECFFD01DC0134
:10229000C0CF13821282D7CFB0E0A0E0E2E5F1E137
:1022A0000C94CA0F8C01009751F4CB010E942710A7
:1022B0008C01C801CDB7DEB7E0E10C94E60FFC015C
:1022C000E60FF71F9C0122503109E217F30708F4CB
:1022D0009DC0D901CD91DC911197C617D70798F011
:1022E000C530D10530F3CE0104978617970708F360
:1022F000C61BD70B2297C193D1936D937C93CF01CB
:102300000E94C310D6CF5B01AC1ABD0A4C018C0EE3
:102310009D1EA091AB03B091AC03512C412CF12C2C
:10232000E12C109731F58091A9039091AA038815AB
:10233000990509F05CC04616570608F058C0809110
:10234000000190910101009741F48DB79EB7409133
:10235000040150910501841B950BE817F90708F05B
:1023600055C0F093AA03E093A903F9017183608338
:10237000A0CF8D919C91119712966C901297139605
:102380007C901397A815B90559F56C0142E0C40E6D
:10239000D11CCA14DB0420F1AC014A195B09DA0133
:1023A0001296159780F06282738251834083D9011F
:1023B0006D937C93E114F10471F0D7011396FC93B3
:1023C000EE93129776CF22968C0F9D1FF901918381
:1023D0008083F301EFCFF093AC03E093AB0369CFBD
:1023E0004816590608F42C017D01D3019ACFCB0180
:1023F0000E9427107C01009749F0AE01B8010E94AD
:102400000E12C8010E94C310870153CF10E000E0F4
:1024100050CF81E090E0F8940C941E12FB01DC0197
:1024200002C001900D9241505040D8F70895FB0131
:10243000DC0101900D920020E1F7089510E0CDE657
:10244000D0E004C0FE010E9421102196CE36D107B3
:06245000C9F7F894FFCF6C
:102456000000AD03800000401454004010500000FE
:10246600000097046A049105450463045404460475
:1024760000000000370314019105210457052303CA
:102486003E051F05707369007661723100766172D0
:1024960032006C2F6D696E00766172330076616C66
:1024A6000076617234007661723500517569632079
:1024B600416363657373005B500020202020202059
:1024C6004D454E49550050726573732075702074E2
:1024D6006F2072657365740020446F6E650020007E
:1024E60020205B455849545D005B2D5D00206172DC
:0224F60065007F
:040000000C94003A22
:1074000011248FEF98E09EBF8DBF94B714BE892FD3
:107410008D7011F0892FE0D190E89093F20083E90C
:107420008093F2009093610081E08093610096BFA9
:107430008CE486BF85E08093810088E18093C10061
:1074400086E08093C20080E18093C4008DE0AED1DD
:10745000259A96E020E33CEF51E040E2309385002E
:107460002093840056BBB09BFECF85B1842785B99D
:10747000A895915099F7662477244301CC24DD2404
:1074800064E9A62E51E0252E312C412C512C7DD1C2
:10749000813461F47AD1182F8FD1123829F1113843
:1074A00011F485E001C083E068D164C1823411F435
:1074B00084E103C0853419F485E086D15BC185354C
:1074C00079F463D1E82EFF2460D1082F10E0102F4B
:1074D00000270E291F29000F111F6ED168014AC114
:1074E000863521F484E070D180E0DECF843609F067
:1074F000C5C04BD190E0F82EEE2447D1E80EF11C28
:1075000044D1B82EE70100E011E03FD1F8018193AA
:107510008F012197D1F711BC8D2D992782BD82B59E
:1075200086958695282FD401C301022E04C0B695F6
:10753000A795979587950A94D2F780FD15C0F6E434
:10754000BF1691F4D201C10104C0880F991FAA1F70
:10755000BB1F2A95D2F7682A792A8A2A9B2AAFBAB2
:1075600082E98FBB0000000027D1E5E4BE16B1F42C
:10757000960110C021BD2F5F3F4F832F992782BDF9
:10758000C050DF4F888180BDF4E0FFBB82E08FBB3D
:10759000CF5FD040CE15DF0568F3DBC0C114D10446
:1075A00009F04EC06091000170910101872F90E0B9
:1075B000982F8827262F30E0822B932B90938501DC
:1075C000809384014091020150910301852F90E046
:1075D000982F8827242F30E0822B932B90938701BC
:1075E00080938601209118018091190190E0982FD5
:1075F000882730E0822B932B909389018093880118
:1076000020911A0180911B0190E0982F882730E08B
:10761000822B932B90938B0180938A0160931801A6
:107620007093190140931A0150931B018CE08093D1
:107630000001A092010110920201EAE3E09303012C
:10764000E0E0F1E011BC808180BD81E081BD8181FD
:1076500080BD82E081BD828180BD83E081BD838168
:1076600080BD8E2F8C0D81BD84EA8FBB82EA8FBBDB
:10767000349681E0E038F80729F77CC0843709F0B8
:107680006BC083D090E0F82EEE247FD0E80EF11C82
:107690007CD0182F91D0153489F4E6018701C1BD43
:1076A00021968D2F992782BDE1E0EFBB00000000FD
:1076B00080B563D00150104091F74BC0E6018701BF
:1076C000209729F480918401909185013CC0C130BC
:1076D000D10529F480918401909185010FC0C230B9
:1076E000D10529F480918601909187012CC0C33087
:1076F000D10539F48091860190918701892F9927CE
:1077000022C0C831D10529F4809188019091890166
:107710001AC0C931D10529F480918801909189015D
:10772000EDCFCA31D10529F480918A0190918B0166
:107730000AC0CB31D10529F480918A0190918B0147
:10774000DDCFFE018491219618D00150104009F040
:10775000B7CFCE0CDF1C0EC0853739F42DD08EE1AB
:107760000CD085E90AD08FE09FCE813511F48CE0F2
:107770001DD022D080E101D08ACE982F8091C00008
:1077800085FFFCCF9093C60008958091C00087FFCD
:10779000FCCF8091C00084FD01C0A8958091C600F7
:1077A00008959AE29A95F1F708950895E0E6F0E0D9
:1077B00098E1908380830895E8DF803219F08DE0AE
:1077C000F5DFFFCF84E1D9CF1F93182FDEDF1150F3
:1077D000E9F7F2DF1F910895282E80E0E7DFECE063
:0477E000FF270994E2
:0277FE00000584
:040000030000740085
:00000001FF