:100000000C9401060C9429060C9429060C942906DC
:100010000C9429060C9429060C9429060C942906A4
:100020000C9429060C9429060C9429060C94290694
:100030000C9429060C9429060C9429060C94290684
:100040000C94B21F0C9429060C9429060C942906D2
:100050000C9429060C9429060C9429060C94290664
:100060000C94FC1F0C94290608000000BE92244941
:10007000123EABAAAA2ABECDCCCC4C3E00000080DA
:10008000BEABAAAAAA3E00000000BF000000803F4D
:100090000000000000084178D3BB4387D1133D190D
:1000A0000E3CC3BD4282AD2B3E68EC8276BED98F3A
:1000B000E1A93E4C80EFFFBE01C4FF7F3F0000007E
:1000C000000000407A10F35A00A0724E1809001088
:1000D000A5D4E80000E87648170000E40B540200BD
:1000E00000CA9A3B000000E1F505000080969800E8
:1000F000000040420F000000A08601000000102711
:1001000000000000E80300000000640000000000A0
:100110000A00000000000100000000002C76D888D2
:10012000DC674F0823DFC1DFAE59E1B1B796E5E3E5
:10013000E453C63AE651997696E8E6C28426EB89FE
:100140008C9B62ED407C6FFCEFBC9C9F40F2BAA59B
:100150006FA5F490055A2AF75C936B6CF9676DC133
:100160001BFCE0E40D47FEF520E6B500D0ED902E37
:100170000300943577050080841E080000204E0A95
:10018000000000C80C333333330F986E12831141D3
:10019000EF8D2114893BE65516CFFEE6DB18D1849E
:1001A0004B381BF77C1D901DA4BBE42420328472C5
:1001B0005E228100C9F124ECA1E53D27000000008A
:1001C000003E5B4F5B3E3E6B4F6B3E1C3E7C3E1CDD
:1001D000183C7E3C181C577D571C1C5E7F5E1C0023
:1001E000183C1800FFE7C3E7FF0018241800FFE7DA
:1001F000DBE7FF30483A060E2629792926407F059D
:100200000507407F05253F5A3CE73C5A7F3E1C1CB2
:1002100008081C1C3E7F14227F22145F5F005F5F72
:1002200006097F017F006689956A6060606060945E
:10023000A2FFA29408047E040810207E2010080863
:100240002A1C08081C2A08081E101010100C1E0C6E
:100250001E0C30383E3830060E3E0E060000000000
:100260000000005F00000007000700147F147F14E7
:10027000242A7F2A1223130864623649562050002C
:1002800008070300001C2241000041221C002A1C18
:100290007F1C2A08083E0808008070300008080803
:1002A0000808000060600020100804023E51494523
:1002B0003E00427F400072494949462141494D3341
:1002C0001814127F1027454545393C4A49493141A8
:1002D000211109073649494936464949291E000076
:1002E00014000000403400000008142241141414CB
:1002F0001414004122140802015909063E415D59B7
:100300004E7C1211127C7F494949363E41414122BF
:100310007F4141413E7F494949417F090909013EE9
:10032000414151737F0808087F00417F4100204010
:10033000413F017F081422417F404040407F021C22
:10034000027F7F0408107F3E4141413E7F09090939
:10035000063E4151215E7F09192946264949493205
:1003600003017F01033F4040403F1F2040201F3FCB
:100370004038403F63140814630304780403615950
:10038000494D43007F414141020408102000414192
:10039000417F04020102044040404040000307083E
:1003A0000020545478407F2844443838444444283A
:1003B000384444287F385454541800087E090218E1
:1003C000A4A49C787F0804047800447D4000204069
:1003D000403D007F1028440000417F40007C0478AD
:1003E00004787C080404783844444438FC182424F5
:1003F0001818242418FC7C08040408485454542475
:1004000004043F44243C4040207C1C2040201C3CF1
:100410004030403C44281028444C9090907C4464E8
:10042000544C44000836410000007700000041367B
:10043000080002010204023C2623263C1EA1A16101
:10044000123A4040207A3854545559215555794133
:100450002254547842215554784020545579400C08
:100460001E527212395555555939545454593955EB
:100470005454580000457C410002457D420001452E
:100480007C407D1211127DF0282528F07C545545C2
:10049000002054547C547C0A097F4932494949322E
:1004A0003A4444443A324A4848303A4141217A3A3F
:1004B00042402078009DA0A07D3D4242423D3D400B
:1004C00040403D3C24FF2424487E4943662B2FFCBA
:1004D0002F2BFF0929F620C0887E09032054547968
:1004E000410000447D413048484A32384040227A39
:1004F000007A0A0A727D0D19317D2629292F2826B6
:100500002929292630484D402038080808080808BD
:100510000808382F10C8ACBA2F102834FA00007B16
:10052000000008142A142222142A14085500550029
:1005300055AA55AA55AAFF55FF55FF000000FF0018
:10054000101010FF00141414FF001010FF00FF1013
:1005500010F010F0141414FC001414F700FF000045
:10056000FF00FF1414F404FC141417101F10101FC4
:10057000101F1414141F00101010F0000000001FB2
:10058000101010101F10101010F010000000FF10BD
:100590001010101010101010FF10000000FF1400B9
:1005A00000FF00FF00001F10170000FC04F41414EB
:1005B0001710171414F404F40000FF00F7141414B7
:1005C00014141414F700F7141414171410101F1037
:1005D0001F141414F4141010F010F000001F101F5A
:1005E0000000001F14000000FC140000F010F010C8
:1005F00010FF10FF141414FF141010101F0000003F
:1006000000F010FFFFFFFFFFF0F0F0F0F0FFFFFF42
:100610000000000000FFFF0F0F0F0F0F3844443899
:1006200044FC4A4A4A347E02020606027E027E02E8
:1006300063554941633844443C04407E201E2006F3
:10064000027E020299A5E7A5991C2A492A1C4C7230
:1006500001724C304A4D4D303048784830BC625AB7
:10066000463D3E494949007E0101017E2A2A2A2A47
:100670002A44445F444440514A444040444A514023
:100680000000FF0103E080FF000008086B6B0836E4
:1006900012362436060F090F060000181800000055
:1006A0001010003040FF0101001F01011E00191D44
:1006B0001712003C3C3C3C00000000000001030716
:1006C0000F1F3F7F0080C0E0F0F8FCFE000000003C
:1006D0002300260029002C00000000085002010021
:1006E00000030407000000000000000000000000FC
:1006F0000000240027002A002D00DB40A4A62EAF16
:10070000DA0281DA1281DA02818F2000A1C8D300D7
:10071000408DAED580A8010204081020408001025F
:10072000040810200102040810200208010410200F
:100730004000000000250028002B002E00040404C7
:10074000040404040402020202020203030303037A
:100750000305050505050505000060000000000013
:10076000000000000000000000E0000000000000A9
:100770000000000000000001E00000000000000098
:1007800000000000000001F0000000000000000078
:10079000000000000003F000000000000000000066
:1007A0000000000007F00000000000000000000052
:1007B00000000007F800000000000000000000003A
:1007C00000000FF800000003C0007E000001E00000
:1007D0007F0FF800000003C000FE000001E000FFF2
:1007E000EFF800000003C000FE000001E000FFFF82
:1007F000F800000003C000F00000000F007FFE7F43
:10080000C0000003C000F00000000F003FFE7FF8B2
:100810003FF1FBCFFCFEF3BC3DEFE01FFE7FFF7F0F
:10082000FBFFDFFEFEFFBC3DEFE01FC6FFFF7FFBCF
:10083000FFDFFEFEFFBC3DEFE00FE3C7FE787BC3AA
:10084000DE1EF0FFBC3DEF0007FF87FC787BC3DEB8
:100850001EF0F83C3DEF0001FFFFF0007BC3C01E1F
:10086000F0F03C3DEF0001F37FE03FFBC3CFFEF033
:10087000F03C3DEF0003E33F807FFBC3DFFEF0F081
:100880003C3DEF0007E73C00787BC3DE1EF0F03C08
:100890003DEF0007FFBE00787BC3DE1EF0F03C3D5D
:1008A000EF0007FFFE00787BC3DE1EF0F03C3DEF5B
:1008B000000FFFFE007FFBFFDFFEF0F03FFDEFE0EB
:1008C0000FFFFF007FFBFFDFFEF0F03FFDEFE00FCB
:1008D000F9FF003E79F9CF9EF0F01F3DE7E01FF1F0
:1008E000FF0000000000000000000000001F80FF6B
:1008F000007FFFFFFFFFFFFFFFFFFFE01C007F0007
:100900007FFFFFFFFEB46D888D18E000001F007FA1
:10091000FFFFFFFE95AD7DB577E000000F007FFF84
:10092000FFFFFEA5AD9D8D19E0000006007FFFFFD3
:10093000FFFEB5ADEDB57EE00000000000018000D7
:100940000000000000000000038000000000000024
:1009500000000007C000000000000000000007C009
:100960000000000000000000000FC00000000000B8
:10097000000000001FE00000000000000000001F59
:10098000E00000000000000000003FE00000000068
:1009900000000000003FF000000000000000000028
:1009A0007FF0000000000000001FF87FF000000052
:1009B000000000003FFE7FF0000000000000003F4C
:1009C000FF7FF0000000000000001FFFFBE00000C0
:1009D00000000000000FFFF9FFC000000000000051
:1009E0000FFFF9FFF800000000000007FFF1FFFF14
:1009F00000000000000003FC73FFFF800000000007
:100A00000001FE3FFFFF80000000000000FF1E0FFE
:100A1000FF000000000000007FFE1FFC000000003F
:100A20000000003FFFFFF8000000000000000FDFA3
:100A3000FFE0000000000000001F19FFC0000000E0
:100A4000000000003F3CFF00000000000000007EAE
:100A50007CF800000000000000007FFE7C00000029
:100A60000000000000FFFFFC00000000000000008C
:100A7000FFFFFE0000000000000000FFFFFE00007E
:100A8000000000000001FFEFFE0000000000000079
:100A900001FFCFFE0000000000000003FF07FE0082
:100AA00000000000000003FC07FE00000000000042
:100AB0000003F003FE00000000000000018000FEC3
:100AC000000000000000000000007E0000000000A8
:100AD00000000000003E00000000000000000000D8
:100AE0000C000000000000078000FC000003C000B4
:100AF0000000078001FC000003C000000007800127
:100B0000FC000003C0000000078001E00000001EA0
:100B1000000000078001E00000001E007FE3F79F57
:100B2000F9FDE7787BDFC0FFF7FFBFFDFDFF787BB6
:100B3000DFC0FFF7FFBFFDFDFF787BDFC0F0F78769
:100B4000BC3DE1FF787BDE00F0F787BC3DE1F0784B
:100B50007BDE0000F787803DE1E0787BDE007FF7F9
:100B6000879FFDE1E0787BDE00FFF787BFFDE1E0D6
:100B7000787BDE00F0F787BC3DE1E0787BDE00F0BB
:100B8000F787BC3DE1E0787BDE00F0F787BC3DE114
:100B9000E0787BDE00FFF7FFBFFDE1E07FFBDFC019
:100BA000FFF7FFBFFDE1E07FFBDFC07CF3F39F3D7C
:100BB000E1E03E7BCFC0000000000000000000002C
:100BC00000FFFFFFFFFFFFFFFFFFFFC0FFFFFFFF73
:100BD000FD68DB111A31C0FFFFFFFFFD2B5AFB6AD6
:100BE000EFC0FFFFFFFFFD4B5B3B1A33C0FFFFFF72
:100BF000FFFD6B5BDB6AFDC02200FF2100001221BC
:100C0000FE2411241FBECFEFD8E0DEBFCDBF23E00E
:100C1000AEE7B2E001C01D92A93BB207E1F712E0D6
:100C2000A0E0B1E0ECEBF9E502C005900D92AE3723
:100C3000B107D9F715E0C0E0D6E004C02197FE0166
:100C40000E94CD2ACF3FD107C9F70E94A8210C945A
:100C5000D12C0C94000081BD917092BDF89A0000D7
:100C6000000080B508950895AF92BF92CF92DF92B1
:100C7000EF92FF920F931F93CF93DF936C017B0151
:100C80008B01040F151FEB015E01AE18BF08C017E2
:100C9000D10759F06991D601ED91FC910190F08155
:100CA000E02DC6010995892B79F7C501DF91CF9118
:100CB0001F910F91FF90EF90DF90CF90BF90AF907A
:100CC0000895FC01448155816081718186E793E03C
:100CD0000C94340681508B3088F5E82FF0E0ED5805
:100CE000F94F0C94CD2A88068C067E0684069E0653
:100CF0009E068F06950699069F06A30680918000A2
:100D00008F77809380000895809180008F7DF9CF48
:100D100084B58F7784BD089584B58F7DFBCF809196
:100D2000B0008F778093B00008958091B0008F7DE0
:100D3000F9CF809190008F778093900008958091F3
:100D400090008F7DF9CF80919000877FF5CFCF9372
:100D5000DF93282F30E0F901E852F94F8491F9012F
:100D6000EA5EF84FD491F901E35CF84FC491CC23CB
:100D7000A1F081110E946A06EC2FF0E0EE0FFF1F38
:100D8000E453F94FA591B491EC91ED2381E090E00B
:100D900009F480E0DF91CF91089580E090E0FACFF0
:100DA0001F93CF93DF93282F30E0F901E852F94FDA
:100DB0008491F901EA5EF84FD491F901E35CF84FB0
:100DC000C491CC23A9F0162F81110E946A06EC2F42
:100DD000F0E0EE0FFF1FEF5CF84FA591B4918FB7D5
:100DE000F894EC91111108C0D095DE23DC938FBFED
:100DF000DF91CF911F910895DE2BF8CFCF93DF9332
:100E0000282F30E0F901EA5EF84F4491235C384F17
:100E1000F9012491843011F583E08093A00022230E
:100E2000D1F0822F90E0880F991FFC01E251F94F19
:100E3000A591B491FC01EF5CF84FC591D49161117B
:100E400022C09FB7F8948C91409584238C9388811D
:100E5000482348839FBFDF91CF9108959AEE980F62
:100E6000923020F48FEF84BF84BFD9CF8A31B9F696
:100E70008091F00082608EBB80E88093F0008EB39A
:100E80008093F000CCCF8FB7F894EC914E2B4C931D
:100E90008FBFE1CFCF93DF931F92CDB7DEB719821B
:100EA00080917A00806480937A0080917A0086FD38
:100EB000FCCF8091780089839091790089810F908F
:100EC000DF91CF910895CF93DF939091AD00907F04
:100ED0009093AD00863111F08C3129F49091AD00E2
:100EE00096609093AD008E3008F08E508F718064C4
:100EF00080937C0080917D00806280937D000E94C1
:100F00004A07EC0180917D008F7D80937D000E94D7
:100F10004A078C0F9D1F9C0136952795892F99278D
:100F2000A901481B590BCA01DF91CF9108950C9478
:100F300063073FB7F8948091270390912803A0910D
:100F40002903B0912A0326B5A89B05C02F3F19F0AD
:100F50000196A11DB11D3FBFBA2FA92F982F882739
:100F6000BC01CD01620F711D811D911D42E0660F14
:100F7000771F881F991F4A95D1F708958F929F92E6
:100F8000AF92BF92CF92DF92EF92FF926B017C0102
:100F90000E9499074B015C01C114D104E104F104E2
:100FA000B9F00E949907681979098A099B09683E76
:100FB00073408105910580F321E0C21AD108E10850
:100FC000F10888EE880E83E0981EA11CB11CE4CFC6
:100FD000FF90EF90DF90CF90BF90AF909F908F9059
:100FE00008950F931F93CF93DF938C01C62FD42FB7
:100FF00080913C03882359F0F80180818F3F39F0BC
:101000008F5F808370E090E080E00E94BE07809157
:101010003B03882381F0F8018081D81760F4815068
:1010200080836C2F70E090E080E0DF91CF911F9182
:101030000F910C94BE07DF91CF911F910F910895EE
:101040002FB7F894609123037091240380912503B6
:10105000909126032FBF0895EF92FF920F931F9355
:10106000CF93DF93EC01EC80FD806E157F050CF0D3
:1010700070C057FF04C0240F351F50E040E08E8140
:101080009F81FA01E20FF31F8E179F071CF49C014A
:10109000241B350B121613060CF05BC0922F842F05
:1010A0008695869586958E9DD0018F9DB00D1124D5
:1010B0006A0F7B1FAF8DB8A1A60FB71F477049F10C
:1010C00088E0841B482F682F70E0FB01EC53F94F38
:1010D000E491281708F063C0621B71092FEF30E01C
:1010E00002C0359527956A95E2F7E2230130110594
:1010F00039F0B0F10230110561F58C91E82702C09A
:101100008C91E82BEC93941720F12C813D81A20F58
:10111000B31FE92FE41BE83078F00230110521F508
:101120008E2F9C9190959C932C813D81A20FB31F93
:1011300088508830B0F7E770EE2359F0F0E0E454BF
:10114000F94FE49101301105F9F010F10230110569
:1011500019F1DF91CF911F910F91FF90EF900895BA
:10116000E0958C91E823CECF81E00115110509F4BB
:1011700080E081959E2F8C932C813D81A20FB31F1F
:1011800098509830C0F7D7CF8C91E82BEC93E1CFF3
:10119000E0958C91E823FACF8C91E827F7CF0130C6
:1011A000110509F4ADCFE0F20230110509F4A5CF25
:1011B000AE0DBF1DAECF0F931F93CF93DF9377FF7D
:1011C00004C0260F371F70E060E0DC011496CD915B
:1011D000DC91FB01E20FF31FCE17DF071CF49E0129
:1011E000261B370B121613064CF5FA0157FD3796DE
:1011F000A3E0F595E795AA95E1F7EC9FD001ED9F67
:10120000B00DFC9FB00D11246A0F7B1FDC015F96AF
:10121000ED91FC91E60FF71F4770552781E090E0B4
:1012200001C0880F4A95EAF7482F0130110559F09F
:10123000A8F02E0F3F1F02301105E1F0DF91CF9192
:101240001F910F9108952E0F3F1FE217F307B1F37F
:101250008191DF011197842B8C93F7CF80952E0F0E
:101260003F1FE217F30751F39191DF011197982384
:101270009C93F7CFE217F30709F38191DF011197F0
:1012800084278C93F7CF0F931F93FA01DC015696B6
:101290004C9156974230E9F04330A1F1413061F56D
:1012A00014964D915C91DA01AE1BBF0BFD01E21B60
:1012B000F30B77FD0BC0DC0116964D915C91641722
:1012C000750724F4AB01BF010E94DB081F910F9149
:1012D000089514964D915C91DA01A61BB70BBD01E0
:1012E00061507109DC0116964D915C91DA01AE1BDB
:1012F000BF0BFD01E21BF30B77FDE8CFAF010E94AE
:101300002C08E4CF16964D915C91DA01A61BB70B21
:10131000BD0161507109CDCF0F931F93FA01DC011C
:1013200056964C9156974230A9F0433091F1413096
:1013300019F514964D915C91DA01AE1BBF0BFD01BE
:101340003197F7FD04C0AB01BF010E942C081F912B
:101350000F91089514964D915C91DA01A61BB70B7D
:10136000BD01DC0116964D915C91DA01AE1BBF0BFD
:10137000FD013197621B730BF7FDE9CFDC01169677
:101380004D915C91E417F50714F7AF010E94DB085B
:10139000DECF16964D915C91DA01A61BB70BBD010D
:1013A000621B730BCECFFC0177FD64C080859185F5
:1013B000681779070CF05EC057FD5CC08285938585
:1013C000481759070CF056C086898230B1F0833037
:1013D00029F1813041F484819581841B950BAB0107
:1013E000BC01615071092130310509F108F443C095
:1013F0002230310509F463C0089584819581DC01B0
:10140000A61BB70BBD016150710986819781DC0174
:10141000A41BB50BAD0141505109E5CF86819781E1
:10142000861B970BBA01AC0141505109DCCFCA01B0
:1014300057FD0796A3E095958795AA95E1F7A481B6
:10144000B5818A9F90018B9F300D9A9F300D11249A
:10145000620F731F078CF0A1E02DE60FF71F477096
:10146000552721E030E001C0220F4A95EAF780813C
:10147000822B80830895CA0157FD079633E0959526
:1014800087953A95E1F7A481B5818A9F90018B9F5A
:10149000300D9A9F300D1124620F731F078CF0A13D
:1014A000E02DE60FF71F4770552781E090E001C05F
:1014B000880F4A95EAF7809590818923DACFCA018F
:1014C00057FD079623E0959587952A95E1F7A48126
:1014D000B5818A9F90018B9F300D9A9F300D11240A
:1014E000620F731F078CF0A1E02DE60FF71F477006
:1014F000552721E030E001C0220F4A95EAF78081AC
:101500008227B7CF08958EBD0000CE99FECF8EB54D
:1015100094E499BB08958CBD9DBD08950895FC0188
:101520006370668B8481958126813781613039F0C3
:10153000633029F091878087338722870895318728
:1015400020879387828708952F923F924F925F92D0
:101550006F927F928F929F92AF92BF92CF92DF92C3
:10156000EF92FF920F931F93CF93DF93CDB7DEB728
:101570006A970FB6F894DEBF0FBECDBF9A8F898FE2
:101580007A8369834A01D22E18870F833701BC2CD6
:10159000DC0159962D913C915A972115310509F09E
:1015A00015C118968D919C911997681779070CF0C1
:1015B000D7C11A968D919C91481759070CF0D0C14C
:1015C0004C2C512CB6E0CB9E600D711D11247C87F4
:1015D0006B87161617060CF0C3C1EA2DF0E0FA87E8
:1015E000E98793E0EE0FFF1F9A95E1F7F88BEF87FD
:1015F000CF01840F951F181619060CF0B1C1A98DE3
:10160000BA8D58968C91811104C0BFEABD1508F4BB
:10161000D394A98DBA8DED91FC9111970284F38535
:10162000E02DCD010995B5E0DB9EC0011124E981D3
:10163000FA81FC83EB83312C212C9C0124543E4FF6
:10164000388F2F8B4A2D50E05E8B4D8BEF89F88DB4
:10165000E20DF31D44919E828D82D12CC12C6981B3
:101660007A81620D731D7A8B698B842F90E09C8B3D
:101670008B8BE98DFA8DA081B18140FF82C0F1E0B2
:10168000BF126FC0AF126DC01C96ED91FC912F81FF
:101690003885A4014C0D5D1D69897A89898D9A8DE3
:1016A0000995EB89FC89F595E7954E2F5FEFC51AF3
:1016B000D50A6D817E818D899E89680F791F7E8311
:1016C0006D8398E0C916D10481F6AFEF2A1A3A0A61
:1016D000EB81FC81E40DF51DFC83EB83F5E02F1617
:1016E000310409F0B3CF2F81388526153705B9F0BD
:1016F000A98DBA8DED91FC91B1E0BB1257C0AB1230
:1017000055C069817A816B5F7F4F0088F189E02D38
:10171000830128E030E0A401898D9A8D0995A98D77
:10172000BA8DED91FC9111970688F789E02DCD01D6
:101730006A960FB6F894DEBF0FBECDBFDF91CF9192
:101740001F910F91FF90EF90DF90CF90BF90AF90DF
:101750009F908F907F906F905F904F903F902F90D1
:1017600009941E96ED91FC91EF80F88409851A8505
:1017700092014D815E816B817C81898D9A8D099565
:1017800090CF2F8138852615370509F48ACF31E0AF
:10179000B31207C0A31205C01C96ED91FC919301F2
:1017A00078CF1E96ED91FC917301E0CF6B857C851F
:1017B000641975090684F785E02D73010F85188972
:1017C0009201A401898D9A8D0995A9CFF9013496CA
:1017D0009491329745915491D91AB7E0DB9E400D10
:1017E000511D1124F901259134913C8B2B8BFA0169
:1017F00025903490FA013296749031963491398B59
:10180000329664903196449041E04C1518F04A1598
:1018100008F07FC0662D062C000C770B7C836B8351
:10182000842D042C000C990B9E838D83A98DBA8D79
:10183000ED91FC9111970284F385E02DCD0109957E
:10184000512CD12CC12CEA2DF0E0FA87E9872B2D01
:1018500030E03C872B87A401440D511D47FC5A956D
:10186000588F4F8B69817A81660D711D67FC7A955F
:101870007E876D877989C71608F051CF2C2D30E00F
:101880004D815E81420F531FA985BA854A9FC001D1
:101890004B9F900D5A9F900D1124FC01E80DF91DEE
:1018A000F88BEF87852D612C4F89588D420F531F80
:1018B0005E8B4D8B671408F050C044244394480E4F
:1018C000877041F4C1010196EB89FC89E20DF31D9B
:1018D000D4901C01D7FE19C0A98DBA8DED91FC9151
:1018E000662D70E0B1E0BB1219C0AB1217C02D8598
:1018F0003E85620F731F0484F585E02D2F813885A6
:101900004D895E89898D9A8D0995DD0C6394842DAE
:10191000D1CF1E821D821C821B8288CF4B815C81AD
:10192000640F751FAB85BC856A9FC0016B9F900DCE
:101930007A9F900D112469817A81680F791F06843E
:10194000F785E02DEF80F88409851A859D014F8584
:101950005889898D9A8D0995D8CF570CC3948ACF11
:101960006A960FB6F894DEBF0FBECDBFDF91CF9160
:101970001F910F91FF90EF90DF90CF90BF90AF90AD
:101980009F908F907F906F905F904F903F902F909F
:1019900008958F929F92AF92CF92EF92FF920F9302
:1019A0001F93CF93DF93EC01262F898D9A8D00979B
:1019B00009F051C06A30D1F41D861C868D8948E03B
:1019C000849F900111248E859F85820F931F9F878E
:1019D0008E8781E090E0DF91CF911F910F91FF9072
:1019E000EF90CF90AF909F908F9008956D3089F3D6
:1019F000CC88AD888F898823C1F08C859D8536E0A1
:101A0000C39E800D911D112448855985481759079B
:101A100064F44E855F851D861C8638E0A39EC00158
:101A20001124840F951F9F878E87EA88FB88088979
:101A300019894E855F856C857D85CE010E94A40A3B
:101A40002C898C859D8546E0249F800D911D112455
:101A50009D878C87BECF6A3069F41D861C86FC0189
:101A60003696E4912D898E859F85E29F800D911D8C
:101A70001124ADCF6D3009F4ACCFFC013496349114
:101A8000631708F4A6CF3196E491E61708F4A1CFC6
:101A9000FC01329685909490462F431B342F47E0EB
:101AA000349F800C911C1124F401329634913196AC
:101AB000E4913323A9F1EE2399F1CC88F401359612
:101AC000E491AD884F89442301F10E2E000CFF0BE9
:101AD000E30FF11DCE9EA001CF9E500D11246C8509
:101AE0007D85460F571F68857985641775076CF4E7
:101AF0004E855F851D861C86FC013696E491AE9E60
:101B0000400D511D11245F874E87EA88FB880889A4
:101B100019894E855F856C857D85CE010E94A40A5A
:101B2000F4013496E4912C898C859D85E29F800D8B
:101B3000911D11248DCF6F927F928F929F92AF92C1
:101B4000BF92CF92DF92EF92FF920F931F93CF93AA
:101B5000DF93EC016B015A0139014801E881F981F9
:101B60000284F385E02D0995E881F9810288F389E3
:101B7000E02D87019301A501B601CE010995A501CC
:101B8000480D591D41505109E881F9810288F389B6
:101B9000E02D9301B601CE010995E881F981008815
:101BA000F189E02D9401A501B601CE010995C60C7D
:101BB000D71CB60161507109E881F9810088F1896B
:101BC000E02D9401A501CE010995E881F9810688EF
:101BD000F789E02DCE01DF91CF911F910F91FF90FA
:101BE000EF90DF90CF90BF90AF909F908F907F90BD
:101BF0006F9009946F927F928F929F92AF92BF9253
:101C0000CF92DF92EF92FF920F931F93CF93DF93C8
:101C10005C01EB016A01490138018701DC01ED91AA
:101C2000FC916217730719F5641675062CF0962D52
:101C3000872D3A01C92ED82E9601261937092F5F14
:101C40003F4F048CF58DE02DA301BE01C501099520
:101C5000DF91CF911F910F91FF90EF90DF90CF9088
:101C6000BF90AF909F908F907F906F900895461592
:101C7000570591F42617370724F0892D4B01C22F01
:101C8000D82F9E01281939092F5F3F4F068CF78DF9
:101C9000E02DA601B401DACF0284F385E02D099589
:101CA000D501ED91FC910488F589E02D8301940123
:101CB000A601BE01C5010995D501ED91FC910688EB
:101CC000F789E02DC501DF91CF911F910F91FF9012
:101CD000EF90DF90CF90BF90AF909F908F907F90CC
:101CE0006F900994EF92FF920F931F93DC011A9665
:101CF0000D911C911B9718962D913C911997ED9180
:101D0000FC9100A0F1A1E02D7B0150E040E070E0EB
:101D100060E009951F910F91FF90EF9008954F9209
:101D20005F926F927F928F929F92AF92BF92CF926B
:101D3000DF92EF92FF920F931F93CF93DF936C018B
:101D40002B015A0139014801DC01ED91FC9102841B
:101D5000F385E02D0995E201640C751CD601ED9127
:101D6000FC91C615D7055CF40088F189E02D870148
:101D70009401A501BE01C60109952196EFCF068801
:101D8000F789E02DC601DF91CF911F910F91FF9050
:101D9000EF90DF90CF90BF90AF909F908F907F900B
:101DA0006F905F904F9009948F929F92AF92BF92E5
:101DB000CF92DF92EF92FF920F931F93CF93DF9317
:101DC000EC015B014A016901E881F9810284F38534
:101DD000E02D099595012C0D3D1D21503109E8811B
:101DE000F9810488F589E02D78018401A401B50109
:101DF000CE010995E881F9810688F789E02DCE01A9
:101E0000DF91CF911F910F91FF90EF90DF90CF90D6
:101E1000BF90AF909F908F9009948F929F92AF92B6
:101E2000BF92CF92DF92EF92FF920F931F93CF93C7
:101E3000DF93EC015B014A0169017801E881F981D6
:101E40000284F385E02D0995C80CD91C8601015048
:101E50001109E881F9810488F589E02D9501A40133
:101E6000B501CE010995E881F9810688F789E02D51
:101E7000CE01DF91CF911F910F91FF90EF90DF90F6
:101E8000CF90BF90AF909F908F900994EF92FF9268
:101E90000F931F93DC01ED91FC9100A0F1A1E02DC7
:101EA00009951F910F91FF90EF9008950F931F9345
:101EB000DC01ED91FC91068CF78DE02D09951F91C9
:101EC0000F9108950F931F93DC01ED91FC91048C09
:101ED000F58DE02D09951F910F910895DC01ED918D
:101EE000FC910084F185E02D09943F924F925F921E
:101EF0006F927F928F929F92AF92BF92CF92DF921A
:101F0000EF92FF920F931F93CF93DF935C017B01BE
:101F10004A016901390187E0680E711C93E07594EC
:101F200067949A95E1F72B01400E511E10E000E0F6
:101F3000312CD0E0C0E0CE0187709927330C892B7B
:101F400059F4FE0183E0F595E7958A95E1F7E00FF6
:101F5000F11FE80DF91D349037FE0AC021E030E092
:101F6000A701B5016C0F7D1F86E793E00E946E0FFD
:101F70002196CC16DD06F9F68FEFE81AF80A060D61
:101F8000171DE414F504A9F6DF91CF911F910F916D
:101F9000FF90EF90DF90CF90BF90AF909F908F9089
:101FA0007F906F905F904F903F9008952F923F9257
:101FB0004F925F926F927F928F929F92AF92BF9259
:101FC000CF92DF92EF92FF920F931F93CF93DF9305
:101FD00000D000D000D0CDB7DEB73C016A013E830F
:101FE0002D83FC82EB825801A41AB50AB7FE03C008
:101FF000B194A194B1088D809E80861A970A97FEAD
:1020000003C09194819491088A149B045CF0902FF2
:10201000812F0D811E819D838E839C2D8D2D6B01C3
:10202000692F782F0C151D055CF09D818E817E83B4
:102030006D83692F782F902F812F8601C92ED82E7E
:102040001601201A310A2B012D813E81421A530AB2
:1020500057FE03C0519441945108710137FE03C0EB
:102060003FEFE31AF30AF594E7948D819E8186177A
:1020700097075CF5A1E0B0E0BA83A983C016D1064A
:102080004CF1D301ED91FC910484F585E02D2B8179
:102090003C81A8016D817E818A149B041CF04D81D6
:1020A0005E81B801C3010995E418F508F7FE0AC07E
:1020B0002D813E8189819A81280F391F3E832D838E
:1020C000E20CF31C0F5F1F4FD9CF2FEF3FEF3A8386
:1020D0002983D4CF26960FB6F894DEBF0FBECDBFAE
:1020E000DF91CF911F910F91FF90EF90DF90CF90F4
:1020F000BF90AF909F908F907F906F905F904F9028
:102100003F902F900895089585ED8093BC008091B5
:10211000BC0084FDFCCF10922E030895613298F428
:1021200020912E03243089F46093DB02282FABEB3F
:10213000B2E0FC018E2F821B861710F080E008951C
:1021400081918D93F7CF81E0089582E0089581E039
:1021500090E03091300320912F03321710F490E07B
:1021600080E0919581959109089580913003909137
:102170002F03891730F48F5F8093300390E080E065
:1021800008958FEF9FEF089580912F039091300372
:10219000891B990B0895CF92DF92EF92FF920F93D4
:1021A0001F93CF93DF937C01CB018A0120913A03E7
:1021B000222389F0EB016B01C40ED51ECC15DD0581
:1021C00069F06991D701ED91FC910190F081E02DCA
:1021D000C7010995F3CF642F0E948E10C801DF91CB
:1021E000CF911F910F91FF90EF90DF90CF900895C6
:1021F000CF93DF931F92CDB7DEB7698320913A0367
:102200002223F9F020913703203258F021E030E00A
:10221000FC013383228390E080E00F90DF91CF9127
:10222000089580913803E82FF0E0E556FD4F99813D
:1022300090838F5F809338038093370381E090E031
:10224000ECCF61E0CE0101960E948E10F7CF209175
:10225000370381E0213208F040C080912E038111C4
:10226000FCCF8091390392E090932E0391E09093FC
:102270002D039FEF9093FE021092200320931F03E3
:10228000ABE9B2E0EFEFF2E090E029132DC010923D
:10229000210390912103880F892B80932103809142
:1022A0002C03813031F410922C0380912103809310
:1022B000BB0085EE8093BC0080912E038230E1F359
:1022C0008091FE028F3FA1F08091FE02803291F05A
:1022D0008091FE02803381F084E0109238031092E6
:1022E000370310923A0308953D9131939F5FCDCF0C
:1022F00080E0F3CF82E0F1CF83E0EFCFFF920F9346
:102300001F93CF93DF93F82ED92FC62F809193037D
:1023100090919403009709F452C02091970331E003
:1023200030933A0320933903109238031092370305
:10233000DC01ED91FC910190F081E02D60E00995C8
:102340000F2D1D2FD1E0FF24F394C15080919303F2
:1023500090919403CF3F61F1D032C8F00E942711D1
:10236000809193039091940320919703F0923A0304
:10237000209339031092380310923703DC01ED915A
:10238000FC910190F081E02D60E00995D1E0809111
:10239000930390919403F8016491DC01ED91FC9119
:1023A0000190F081E02D0995DF5F0F5F1F4FCDCFCA
:1023B000DF91CF911F910F91FF900C942711E09125
:1023C000A303F091A40390818091A90380958923B0
:1023D00080830F2D1D2FC15008F438C0F80184915F
:1023E0002091910330919203232B29F00E94830ABC
:1023F0000F5F1F4FF0CF28E030E040E8E0919F03EF
:10240000F091A0039091A703582F5423D9F0508145
:10241000952B9083E091A103F091A20390815091BC
:10242000A803952B9083E091A103F091A203508122
:102430009091A8039095952390834695215031095A
:10244000E9F6D6CF508190959523E3CFDF91CF91D8
:102450001F910F91FF9008951F93CF93DF93EC018D
:102460008D8D9E8D009721F1162F29A131E030939B
:102470003A03209339031092380310923703DC019A
:10248000ED91FC910190F081E02D60E009958D8D3A
:102490009E8DDC01ED91FC910190F081E02D612F8A
:1024A00009958D8D9E8DDF91CF911F910C942711F1
:1024B000ADA5BEA59C918BA9809589238C938B8D0E
:1024C0009C8D892B31F0862FDF91CF911F910C9439
:1024D000830A28E030E080E8A9A5BAA599A9462F8B
:1024E0004823C1F04C91942B9C93ABA5BCA59C9127
:1024F0004AA9942B9C93ABA5BCA54C919AA9909505
:1025000094239C9386952150310931F7DF91CF9127
:102510001F9108954C9190959423E6CFEF92FF92EE
:102520000F931F93CF93DF93809193039091940324
:10253000892B09F493C02091AD033091AE034091F3
:10254000AF035091B00360E074E284EF90E00E942A
:10255000AB2A2051310941095109569547953795C4
:1025600027952093B80065E088EF9BE00E947E11DC
:1025700060917A03615086E793E00E942C122091CB
:102580007C0330917D03C901079697FD079623E0F0
:10259000959587952A95E1F720917A0330917B03F1
:1025A000829F8001839F100D929F100D1124C09176
:1025B0009503D091960380919303909194030C0F0F
:1025C0001D1F009709F489C02091970331E03093D3
:1025D0003A03209339031092380310923703DC0139
:1025E000ED91FC910190F081E02D60E40995FF24CC
:1025F000F394EE24E39480919303909194030C1749
:102600001D0709F442C0BFE1BF15D0F40E94271195
:10261000809193039091940320919703E0923A0361
:10262000209339031092380310923703DC01ED91A7
:10263000FC910190F081E02D60E40995FF24F39472
:1026400080919303909194036991DC01ED91FC9149
:102650000190F081E02D0995F394CDCF8091910305
:1026600090919203892B31F08091AB039091AC0350
:102670000E948B0AE091A503F091A60390818091BE
:10268000AA038095892380836ECF0E9427118091B1
:10269000930390919403892B09F460C02091B103B6
:1026A0003091B2034091B3035091B40360E074E2FF
:1026B00084EF90E00E94AB2A205131094109510971
:1026C00056954795379527952093B800DF91CF9180
:1026D0001F910F91FF90EF900895E091A303F09167
:1026E000A40380819091A903892B80830C171D0777
:1026F00071F289912091910330919203232B19F06B
:102700000E94830AF3CF28E030E040E8E0919F0385
:10271000F091A0039091A703582F5423D9F0508132
:10272000952B9083E091A103F091A20390815091A9
:10273000A803952B9083E091A103F091A20350810F
:102740009091A80390959523908346952150310947
:10275000E9F6CCCF508190959523E3CFE091A50386
:10276000F091A60380819091AA03892B8083AECF3C
:102770001F93CF93DF93EC01162F8D8D9E8D892BA8
:10278000B1F12FA938AD49AD5AAD60E074E284EFE4
:1027900090E00E94AB2A2051310941095109569518
:1027A0004795379527952093B80066EA111167EA97
:1027B000CE010E942C128D8D9E8D892B41F12BAD67
:1027C0003CAD4DAD5EAD60E074E284EF90E00E9400
:1027D000AB2A205131094109510956954795379542
:1027E00027952093B800DF91CF911F9108958B8D8D
:1027F0009C8D892B21F08DA99EA90E948B0AEFA5A3
:10280000F8A990818CA9809589238083CECFEFA5EC
:10281000F8A980819CA9892B8083E5CF90E080E096
:1028200008956091310370E090E080E00E949C2761
:1028300020E030E040E05FE30E94FD279B01AC0117
:1028400060E070E08CE792E40E940C290895CF9339
:10285000DF93D0913C03DD23C9F0809101018830E2
:10286000A8F490919A02992389F09091990291117C
:102870000DC08F5F809301010E9420086093950234
:10288000709396028093970290939802C0913B03B5
:10289000CC23C9F0809101018230A8F090919A0276
:1028A000992389F09091990291110DC081508093E4
:1028B00001010E9420086093950270939602809314
:1028C00097029093980280919402882371F08091EE
:1028D000990281110AC00E942008609395027093AA
:1028E000960280939702909398020E942008AB0171
:1028F000BC018091950290919602A0919702B091AF
:10290000980288559E49AF4FBF4F84179507A60779
:10291000B70758F480919902811107C01092930271
:102920001092920281E080930101D11102C0CC2368
:1029300039F010929A0280910101DF91CF910895B0
:1029400081E080939A02F7CFCF93DF93D82FC62FE1
:102950000E942B068C1771F08FB7D1BD12BCC0BD81
:10296000F89494E09FBB92E09FBB8FBF81E0DF9122
:10297000CF91089580E0FBCF6091360381E090E035
:102980000E94A4146091350382E090E00E94A41498
:102990006091340383E090E00E94A41460913303BB
:1029A00084E090E00E94A4146091320385E090E0FE
:1029B0000E94A4146091310386E090E00C94A4146A
:1029C00081E08093360385E08093350384E0809333
:1029D000340389E1809333038AE08093320384E1F6
:1029E000809331030C94BC148F929F92AF92BF924C
:1029F000CF92DF92EF92FF92CF93DF930E94EB2969
:102A0000CDE3D3E07B836A83072E000C880B990B00
:102A10000E949E279B01AC0160E070EC8FE795E47B
:102A20000E94792920E030E040E85FE30E940C2911
:102A30002D853E854F8558890E94FD276D8B7E8BA5
:102A40008F8B988F0E942E2A6B017C01C98ADA8AAB
:102A5000EB8AFC8A29A13AA14BA15CA10E94FD2727
:102A60002D8D3E8D4F8D58A10E940D294B015C018B
:102A70002DA13EA14FA158A5C701B6010E94FD2777
:102A8000A70196010E94FD27A70196010E94FD273C
:102A90009B01AC01C501B4010E940D299B01AC0151
:102AA00060E070E080E89FE30E947929698F7A8F67
:102AB0008B8F9C8F23E333E948E853E40E940C2971
:102AC000DF91CF91FF90EF90DF90CF90BF90AF90CC
:102AD0009F908F9008958F929F92AF92BF92CF92C6
:102AE000DF92EF92FF92CF93DF93EC0180913D0351
:102AF0000E949707BC01990F880B990B0E949E2793
:102B0000209141033091420340914303509144038B
:102B10000E940D296B017C01C0924103D0924203B7
:102B2000E0924303F0924403BE01DD0F880B990B42
:102B30000E949E274B015C01AC019B016091450303
:102B40007091460380914703909148030E94212A87
:102B500087FD23C01092450310924603109247034D
:102B600010924803A5019401C701B6010E9479297A
:102B70000E94F41460936603709367038093680364
:102B80009093690310924103109242031092430301
:102B90001092440381E08093490320E030E040E854
:102BA0005FEB6091450370914603809147039091DC
:102BB00048030E949727811114C080913D030E9411
:102BC0009707BC01990F880B990B0E949E270E94C2
:102BD000F414609366037093670380936803909383
:102BE000690320E030E040E85FE3609145037091C5
:102BF000460380914703909148030E940D296093FA
:102C00004503709346038093470390934803809154
:102C10004903DF91CF91FF90EF90DF90CF90BF906D
:102C2000AF909F908F900895FC0101900020E9F7EC
:102C30003197AF01481B590BBC0186E793E00C9418
:102C40003406CF93DF930E946106EC0186E491E0A5
:102C50000E9414168C0F9D1FDF91CF910895E6E717
:102C6000F3E01586148629E030E03787268721E0D7
:102C7000248B258B0C942116CF93DF930E9414167E
:102C8000EC0186E491E00E9414168C0F9D1FDF91E9
:102C9000CF91089520917C0330917D03C90107965F
:102CA00097FD079623E0959587952A95E1F7209162
:102CB0007A0330917B03829FA001839F500D929FE6
:102CC000500D112470E060E080919503909196037F
:102CD0000C94C32C0F931F93CF93DF93EC01888147
:102CE0009981009759F02A813B812617370730F0E8
:102CF00081E0DF91CF911F910F9108958B016F5F5C
:102D00007F4F0E94F82B009759F0998388831B838B
:102D10000A832C813D81232B59F7FC011082E8CFD7
:102D200080E0E7CFEF92FF920F931F93CF93DF9353
:102D30006115710541F480E0DF91CF911F910F91F2
:102D4000FF90EF90089541155105B1F07B01EC0122
:102D50000C811D81040F151FB8010E946A1688237B
:102D600051F3288139818C819D81B701820F931F96
:102D70000E94CA2C1D830C8381E0DECFCF93DF93AA
:102D8000EC0188819981009711F00E946F2B1982C4
:102D900018821D821C821B821A82DF91CF910895B6
:102DA000CF93DF93EC01FB0101900020E9F731970D
:102DB000AF01461B570B0E949216811103C0CE0132
:102DC0000E94BE16CE01DF91CF910895CF93DF937D
:102DD000EC01FB0144815581608171810E94921652
:102DE000811103C0CE010E94BE16CE01DF91CF91AA
:102DF0000895EF92FF920F931F93CF93DF93EC010F
:102E00007B018A01BA010E946A1681110BC0CE01B2
:102E10000E94BE16CE01DF91CF911F910F91FF90BE
:102E2000EF9008951D830C83B701888199810E94DA
:102E3000CA2CF0CFFB0101900020E9F73197AF01D8
:102E4000461B570B0C94F9160F931F93CF93DF93E8
:102E5000CDB7DEB729970FB6F894DEBF0FBECDBF52
:102E60008C01862FF8011182108213821282158242
:102E700014824AE0BE016F5F7F4F90E00E943625CA
:102E8000BE016F5F7F4FC8010E941A1729960FB6C7
:102E9000F894DEBF0FBECDBFDF91CF911F910F9190
:102EA0000895EF92FF920F931F93CF93DF93CDB7C7
:102EB000DEB7A1970FB6F894DEBF0FBECDBF7C0181
:102EC000CB01BA01F701118210821382128215829E
:102ED00014828E010F5F1F4F22E044E00E940D25F7
:102EE000009789F0BC01C7010E941A17A1960FB67E
:102EF000F894DEBF0FBECDBFDF91CF911F910F9130
:102F0000FF90EF900895C7010E94BE16EFCF0F9378
:102F10001F93CF93DF93CDB7DEB762970FB6F894C8
:102F2000DEBF0FBECDBF8C01CB01F8011182108234
:102F300013821282158214824AE0BE016F5F7F4FB6
:102F40000E942B25BE016F5F7F4FC8010E941A1798
:102F500062960FB6F894DEBF0FBECDBFDF91CF9162
:102F60001F910F910895CF93DF93EC01FB0186171A
:102F7000970749F0608171816115710541F04481C5
:102F800055810E94F916CE01DF91CF9108950E94DC
:102F9000BE16F9CFFC0111821082138212821582B3
:102FA0001482FB0101900020E9F73197AF01461B25
:102FB000570B0C94F916CF92DF92EF92FF920F937A
:102FC0001F93CF93DF938C017B016A0168E471E06A
:102FD0000E94CA17D70114968D919C910097D9F041
:102FE000E6018C159D0508F4EC01D701ED91FC91EB
:102FF0001197EC0FFD1FD08010826D917C91C8015C
:103000006115710591F00E941A17F7018081918175
:10301000C80FD91FD882C801DF91CF911F910F919E
:10302000FF90EF90DF90CF9008950E94BE16EDCFF5
:10303000FC01808191810C946F2BEF92FF920F9392
:103040001F93CF93DF9300D000D000D0CDB7DEB771
:103050008C017B0110928303109282038DE190E03A
:10306000909385038093840384E080938A03809304
:103070008B03C8010E9461061A8219821C821B827E
:103080001E821D82B801CE0101960E94B3178D8168
:103090009E810697C8F482E080938A0380938B0315
:1030A000CE0101960E941818C7010E94211626968B
:1030B0000FB6F894DEBF0FBECDBFDF91CF911F9149
:1030C0000F91FF90EF90089581E0E6CF8F929F924D
:1030D000AF92BF92CF92DF92FF920F931F93CF9345
:1030E000DF93CDB7DEB7A1970FB6F894DEBF0FBE62
:1030F000CDBFF82E6B0110928303109282038DE1F5
:1031000090E090938503809384036F2DCE01019608
:103110000E9424178D819E81069708F051C084E09B
:1031200080938A0380938B03CE0101960E94181826
:103130002F2D30E050E040E019A28E010F5D1F4FAF
:103140008AE0882E912CA12CB12CCA01B901A501CD
:1031500094010E94AB2A605DF80162938F012115F2
:1031600031054105510589F7309719F0CF010E94CB
:1031700014166F2DCE0101960E9424178D819E8119
:10318000069700F582E080938A0380938B03CE013B
:1031900001960E941818C6010E942116A1960FB62A
:1031A000F894DEBF0FBECDBFDF91CF911F910F917D
:1031B000FF90DF90CF90BF90AF909F908F90089539
:1031C00083E0AECF81E0DFCFCF92DF92EF92FF922C
:1031D0000F931F93CF93DF93CDB7DEB72C970FB626
:1031E000F894DEBF0FBECDBF6B017C018A01109247
:1031F0008303109282038DE190E090938503809386
:103200008403B701A601CE0101960E9451178D815A
:103210009E81069708F04EC084E080938A038093D5
:103220008B03CE0101960E941818B701A601CE01AA
:1032300001960E9451174D815E8147305105E0F1A2
:1032400042505109BE016F5F7F4FCE0107960E9429
:10325000DB17CE0107960E946106CE0107960E94F9
:103260001818CE0101960E941818B701A601CE01C8
:1032700001960E9451178D819E81069700F582E08C
:1032800080938A0380938B03CE0101960E941818C5
:10329000C8010E9421162C960FB6F894DEBF0FBE0F
:1032A000CDBFDF91CF911F910F91FF90EF90DF90F5
:1032B000CF90089583E0B1CF41505109C3CF81E051
:1032C000DFCF8F929F92AF92BF92CF92DF92EF9219
:1032D000FF920F931F93CF93DF93CDB7DEB7629723
:1032E0000FB6F894DEBF0FBECDBF8BE00E94A706DD
:1032F00021E0892B09F420E020933C038CE00E941C
:10330000A70621E0892B09F420E0209394028AE0AB
:103310000E94A70621E0892B09F420E020933B03BB
:103320008FE00E94970782E390E00E946B1520E0F7
:1033300030E042E852EC609166037091670380913F
:103340006803909169030E94212A1816BCF469E46D
:1033500071E0CE0101960E94CA17609166037091D8
:1033600067038091680390916903AE014F5F5F4FDF
:103370000E94E418CE0101960E941818109283034F
:1033800010928203109285031092840381E080934F
:103390008A0380938B0310919402111105C08091D0
:1033A0009302882309F48BC481E080939302111166
:1033B00068C08091920281117EC011115BC40E948D
:1033C0002008C0908E02D0908F02E0909002F09082
:1033D00091024601570136EE830E911CA11CB11CCF
:1033E00086169706A806B90610F4111149C40E9462
:1033F0002008ECE2CE0EE0EBDE1EE11CF11CC6164E
:10340000D706E806F90608F43BC481E080938D02F4
:1034100080918D02882309F40DC10E944A1681E033
:1034200092E00E943C1641E064E681E393E00E9452
:10343000F10780918B02853108F42FC46DE971E0AA
:10344000CE0107960E94CA176DE971E0CE01019680
:103450000E94CA17BE01695F7F4FCE0101960E948C
:103460001D18CE0101960E941818CE0107960E94E1
:10347000181810928B0280918B028F5F80938B02C1
:10348000D9C00E942008AB01BC0180918E029091AE
:103490008F02A0919002B091910288579C4EAF4F3D
:1034A000BF4F84179507A607B70708F082CF809112
:1034B0008D0281117ECF0E942008AB01BC0180915A
:1034C0008E0290918F02A0919002B0919102825C45
:1034D000984EAF4FBF4F84179507A607B70708F45C
:1034E000A2C281E08093920280939302111105C0E1
:1034F00080919202882309F49DC00E944A1610927E
:1035000083031092820310928503109284038091AA
:103510009902811126C081E080938A0380938B03F6
:1035200088E290E0909383038093820381E090E0AF
:1035300090938503809384038BE491E00E943C1672
:1035400082E080938A0380938B0383E290E09093E0
:1035500083038093820386E190E0909385038093B8
:1035600084030E942714883028F50E942714282FEE
:103570002150330BB901CE0107960E94871761E5F0
:1035800071E0CE0101960E94CA17BE01695F7F4FAC
:10359000CE0101960E94E6166FEF71E00E94D016F0
:1035A0000E942116CE0101960E941818CE0107969E
:1035B0000E9418180E942714813009F05EC264E549
:1035C00071E0CE0101960E94CA17CE0101960E94B9
:1035D0002F16CE0101960E94181880919902882317
:1035E00039F140E061E086E393E00E94F1078091C9
:1035F0003603811139C265E671E0CE0107960E945B
:10360000CA1769E471E0CE0101960E94CA17BE0193
:10361000695F7F4FCE0101960E941D18CE01019671
:103620000E941818CE0107960E94181810928C025A
:103630000E948E120E948E120E944A1681E0809390
:103640008A0380938B03109283031092820310925B
:1036500085031092840381E090E090938903809326
:103660008803909387038093860320E030E042E84C
:1036700052EC6091660370916703809168039091AA
:1036800069030E94212A18160CF03AC4109189028D
:1036900080918A02882309F421C311111FC310925B
:1036A0007F0210927E0210928002C0908502D0901C
:1036B0008602E0908702F090880220E6C20E2AEE91
:1036C000D21EE11CF11C0E942008C616D706E8068F
:1036D000F90610F50E942008609385027093860217
:1036E0008093870290938802112319F01150109350
:1036F00089028091810290918202A0918302B0910F
:1037000084020196A11DB11D8093810290938202D3
:10371000A0938302B09384021092830310928203D9
:1037200089E090E0909385038093840360918902FF
:1037300061111CC380918002882309F408C3609141
:103740003203CE010D960E94241760917F02CE01B4
:1037500007960E94241764E172E0CE0101960E9450
:10376000CA17BE01695F7F4FCE0101960E94E6161F
:103770006EE172E00E94D016BE01635F7F4F0E942F
:10378000E6166FE971E00E94D0160E942116CE0164
:1037900001960E941818CE0107960E941818CE01B3
:1037A0000D960E94181868E471E0CE010D960E94F3
:1037B000CA17C0908102D0908202E0908302F090FC
:1037C0008402A0E1BEE0A70196010E94BB2828E187
:1037D00030E040E050E00E94AB2ACE0101960E940A
:1037E000871718861F821A8619861C861B86BE01BB
:1037F0006F5F7F4FCE0107960E94B31762E372E0BE
:10380000CE0107960E94D016FC014481558160814B
:103810007181CE010D960E949216CE0107960E94EC
:103820001818CE0101960E941818ACE3B0E0A70169
:1038300096010E94BB282CE3822E912CA12CB12C46
:10384000A50194010E94AB2ACE0101960E94871720
:1038500018861F821A8619861C861B86BE016F5F1A
:103860007F4FCE0107960E94B31764E372E0CE014A
:1038700007960E94D016FC014481558160817181B8
:10388000CE010D960E949216CE0107960E9418183E
:10389000CE0101960E941818C701B601A501940136
:1038A0000E94AB2ACE0101960E94871718861F82BC
:1038B0001A8619861C861B86BE016F5F7F4FCE015C
:1038C00007960E94B31766E372E0CE0107960E9446
:1038D000D016FC014481558160817181CE010D9625
:1038E0000E949216CE0107960E941818CE010196EA
:1038F0000E941818CE010D960E942116CE010D9639
:103900000E9418181092830310928203109285036C
:103910001092840380913603811164C288E392E09F
:103920000E94141680918C0281113EC20E941114D3
:10393000AB01BC01CE0107960E9451176DE372E006
:10394000CE0101960E94CA17BE01695F7F4FCE016A
:1039500001960E94E6160E946106CE0101960E9421
:103960001818CE0107960E9418188BE492E00E9466
:103970003C16C0906603D0906703E0906803F09017
:1039800069030E9411144B015C016091350370E0E2
:1039900090E080E00E949C2720E030E040E251E48B
:1039A0000E947929A50194010E940D299B01AC0177
:1039B000C701B6010E94212A181614F410928C0235
:1039C0000E9411149B01AC01C701B6010E94212A7B
:1039D00018160CF064C280918C02811160C21092A2
:1039E0008A0280918002811169C2809189028111CD
:1039F00065C281E0809300016FEF8DE00E94D006E8
:103A000062960FB6F894DEBF0FBECDBFDF91CF91A7
:103A10001F910F91FF90EF90DF90CF90BF90AF90EC
:103A20009F908F900895112309F45BCDF090990237
:103A3000F1100E94BC1401E0F026F09299020E945D
:103A40002714883041F4109293021092920200934E
:103A50000101109299020E94BC146FE670E080E0B0
:103A600090E00E94BE0742CD6CE671E0CE01079661
:103A70000E94CA1763E771E0C6CD0E942714823006
:103A8000B1F565E771E0CE0101960E94CA17CE013B
:103A900001960E942F16CE0101960E94181880915F
:103AA0009902882309F4C4CD41E06AE085E393E0FC
:103AB0000E94F10769E471E0CE0101960E94CA17E5
:103AC0006091350370E090E080E00E949C2720E048
:103AD00030E040E251E40E947929AE014F5F5F4F30
:103AE0000E94E418CE0101960E941818A1CD0E94F0
:103AF0002714833039F56AE871E0CE0101960E94FF
:103B0000CA17CE0101960E942F16CE0101960E947F
:103B1000181880919902882309F48ACD40E06AE060
:103B200084E393E00E94F1076FE971E0CE01019612
:103B30000E94CA17BE016F5F7F4F809134030E94BD
:103B40006618D0CF0E942714843029F563EA71E00B
:103B5000CE0101960E94CA17CE0101960E942F162F
:103B6000CE0101960E94181880919902882309F4C9
:103B70005FCD41E06AE083E393E00E94F1076FE9E3
:103B800071E0CE0101960E94CA17BE016F5F7F4FA0
:103B900080913303D4CF0E942714853029F569EB37
:103BA00071E0CE0101960E94CA17CE0101960E94D3
:103BB0002F16CE0101960E94181880919902882331
:103BC00009F436CD41E06AE082E393E00E94F10718
:103BD0006FE971E0CE0101960E94CA17BE016F5FC6
:103BE0007F4F80913203ABCF0E9427148630C1F5FE
:103BF0006FEC71E0CE0101960E94CA17CE010196CA
:103C00000E942F16CE0101960E94181880919902E9
:103C1000882309F40DCD82EE91E00E943C1680913C
:103C20003C03882309F404CD84E080938A038093C5
:103C30008B0384EF91E00E943C160E948E120E943A
:103C4000E0140E94BC1460ED77E080E090E00E94F8
:103C5000BE078091990291E0892780939902E8CC70
:103C60000E942714883009F0E3CC8AEF91E00E948B
:103C70003C16DECC80918D02882309F4DBCC9FCBEF
:103C800010928D02109293020E94BC1464E670E0C0
:103C900080E090E00E94BE07BBCB69E471E0CE01FA
:103CA00001960E94CA170E941114AE014F5F5F4F28
:103CB0000E94E418CE0101960E941818DCCB0E94E5
:103CC000200860938E0270938F02809390029093ED
:103CD000910210928D0210929202ACCCC09085029B
:103CE000D0908602E0908702F0908802F0E6CF0E36
:103CF000FAEEDF1EE11CF11C0E942008C616D70652
:103D0000E806F90608F0D1CC80918002882379F08A
:103D100080917F028F5F80937F0290913203891799
:103D200008F4C3CC1092800210927F02BECC809126
:103D30007E0290913303891730F081E080938002F6
:103D400010927E02B2CC8F5F80937E02AECC6091E7
:103D50003303CE010D960E94241760917E02CE019E
:103D600007960E94241760E272E0F7CCCE01079616
:103D70000E94241769E272E0CE0101960E94CA17E0
:103D8000BE01695F7F4FCE0101960E94E6166FE982
:103D900071E00E94D0160E942116CE0101960E9469
:103DA0001818CE010796FDCC0E9411146B017C01FE
:103DB0006091350370E090E080E00E949C2720E055
:103DC00030E040E251E40E947929A70196010E9467
:103DD0000D29AB01BC01CE0107960E94511762E488
:103DE00072E0AECD8DE492E00E94141680918C02B8
:103DF000811166C00E941114AB01BC01CE0107966F
:103E00000E9451176DE372E0CE0101960E94CA171D
:103E1000BE01695F7F4FCE0101960E94E6160E94A7
:103E20006106CE0101960E941818CE0107960E94E5
:103E300018188BE492E00E943C16C0906603D09064
:103E40006703E0906803F09069030E9411144B012E
:103E50005C016091350370E090E080E00E949C2757
:103E600020E030E040E251E40E9479299B01AC015E
:103E7000C501B4010E940C299B01AC01C701B60128
:103E80000E94972787FD10928C020E9411149B01BB
:103E9000AC01C701B6010E94972787FD9CCD809198
:103EA0000001882331F080913403809389021092BD
:103EB000000181E080938C0280938A0260E09DCDB6
:103EC0000E9411146B017C016091350370E090E059
:103ED00080E00E949C2720E030E040E251E40E9414
:103EE00079299B01AC01C701B6010E940C29AB01E5
:103EF000BC01CE0107960E94511762E472E084CFA4
:103F000082E592E00E943C1687E592E00E943C1612
:103F100081E692E00E943C1640916603509167034F
:103F20006091680370916903CE0107960E94511752
:103F300069E672E0CE0101960E94CA17BE01695F70
:103F40007F4FCE0101960E94E6160E942116CE01F7
:103F500001960E941818CE0107960E941818AECF3D
:103F60000E94B52C1F920F920FB60F9211242F931F
:103F70003F938F939F93AF93BF938091230390912F
:103F80002403A0912503B09126033091220323E05E
:103F9000230F2D3758F50196A11DB11D2093220343
:103FA0008093230390932403A0932503B0932603C7
:103FB0008091270390912803A0912903B0912A03AF
:103FC0000196A11DB11D8093270390932803A09310
:103FD0002903B0932A03BF91AF919F918F913F9195
:103FE0002F910F900FBE0F901F90189526E8230F6A
:103FF0000296A11DB11DD2CF1F920F920FB60F9244
:1040000011242F933F934F935F936F937F938F93DD
:104010009F93AF93BF93EF93FF938091B900887FF5
:10402000803609F44AC0F0F5883209F4A5C018F5C5
:10403000803109F499C0B8F4882309F4F0C08830BD
:1040400009F492C0FF91EF91BF91AF919F918F9131
:104050007F916F915F914F913F912F910F900FBE84
:104060000F901F901895883109F486C0803251F75F
:104070008093FE0214C0803409F49BC040F4803366
:10408000B9F38833F9F68093FE0285ECAEC0803533
:1040900009F483C0883509F494C0883499F60E94E5
:1040A0008410D0CF883909F48AC038F5883729F0D0
:1040B00050F4883611F0803729F683E080932E0380
:1040C0001092FD0255C0883809F479C0803919F082
:1040D000803809F0B7CF8091FD02803208F06FC0C0
:1040E000E091FD0281E08E0F8093FD028091BB0084
:1040F000F0E0E352FD4F80833BC0803B39F0D0F4C9
:10410000803A09F477C0883A09F09CCF84E0809324
:104110002E031092DC021092DB02F0E0E0E0099541
:104120008091DB0281110FC081E08093DB0210924D
:10413000BB0209C0803C09F4A8CF883C09F4A5CF94
:10414000883B09F07FCFE091DC0281E08E0F809305
:10415000DC02F0E0E554FD4F80818093BB0090913C
:10416000DC028091DB0229C0809121038093BB0097
:1041700085EC8093BC0066CF9091200380911F0353
:10418000981758F5E091200381E08E0F809320036B
:10419000F0E0E150FD4F8081E9CFE091200381E024
:1041A0008E0F809320038091BB00F0E0E150FD4F23
:1041B00080839091200380911F039817C8F285E8AF
:1041C000D8CFE091200381E08E0F8093200380916F
:1041D000BB00F0E0E150FD4F808380912D03811101
:1041E0005ECF81E080932C0384EA8093BC00109220
:1041F0002E0328CF8091FD02803230F4E091FD0241
:10420000F0E0E352FD4F10826091FD0270E08DED11
:1042100092E0F0E0E0E009951092FD0236CF1092B6
:10422000FE023DCF80E886BF8CE486BFAAE6B3E0FD
:1042300013961C921E92129748EE53E060E070E0D5
:1042400014964D935D936D937C9317978CE091E05A
:1042500011969C938E93E6E7F3E01382128220E896
:1042600030E03583248380E490E097838683318730
:10427000208793878287168A158614861786168666
:1042800081E0858B848B2FEF3FEF338B228B318B3B
:10429000208B878B108E128E118E2EE131E03183B0
:1042A0002083148E138EB68FA58F10A2178E9FEFCA
:1042B00094A395A396A397A380A780E585AB16AAA0
:1042C00080E89AE1A6E0B0E087AB90AFA1AFB2AFD3
:1042D00080EA96E8A1E0B0E083AF94AFA5AFB6AFB7
:1042E000EDE3F3E0148215821682178280E090E0FD
:1042F000A0E8BFEB80879187A287B38714868BECF9
:1043000098E4A4E8BAE3858F968FA78FB0A386EDD3
:1043100094E6A9E7B9E381A392A3A3A3B4A38CE68F
:104320009FECA8E5B4E385A396A3A7A3B0A711A625
:1043300012A613A614A68FE090E09183808380E0FC
:1043400098E6A2E1B6E485879687A787B08B0895A3
:10435000CF93DF9300D000D000D0CDB7DEB78091EF
:10436000F20080618EBB80E88093F2009EB3909350
:10437000F2008093610081E080936100789484B5BD
:10438000826084BD84B5816084BD85B5826085BD51
:1043900085B5816085BD80916E00816080936E00DF
:1043A00010928100809181008260809381008091D1
:1043B0008100816080938100809180008160809382
:1043C00080008091B10084608093B1008091B00042
:1043D00081608093B0008091910082608093910011
:1043E0008091910081608093910080919000816024
:1043F0008093900080917A00846080937A0080910D
:104400007A00826080937A0080917A008160809344
:104410007A0080917A00806880937A001092C100BF
:104420008091950390919603892B11F520917C033F
:1044300030917D03C901079697FD0796B3E09595E6
:104440008795BA95E1F720917A0330917B03AC010F
:10445000429FC001439F900D529F900D11240E94D6
:10446000D32A9093960380939503892B09F4A0C2D5
:104470000E944A1620917C0330917D0380917A033B
:1044800090917B03B901213231050CF473C1605462
:10449000710977FF02C06F5F7F4F759567958255F1
:1044A000910997FD019600E410E022E530E048E331
:1044B00059E0959587950E94750F82E08093980347
:1044C0008091930390919403892B09F466C18CE346
:1044D000809397031092300310922F0310923803A9
:1044E0001092370380917E008F7C80937E00109223
:1044F0002E0381E080932D0310922C0361E082E172
:104500000E94D00661E083E10E94D0068091B9004C
:104510008E7F8093B9008091B9008D7F8093B90020
:1045200088E48093B80085E48093BC0080919E036A
:1045300087FD1EC061E00E94FE0661E080919E033F
:104540000E94D00661E070E080E090E00E94BE072B
:1045500060E080919E030E94D0066AE070E080E0F7
:1045600090E00E94BE0761E080919E030E94D00609
:104570008091930390919403892B09F4CDC12091EC
:10458000AD033091AE034091AF035091B00360E0B2
:1045900074E284EF90E00E94AB2A20513109410976
:1045A000510956954795379527952093B80064E0B3
:1045B00082E197E00E947E1160917C03615086E762
:1045C00093E00E942C1264E08EE097E00E947E113E
:1045D0008091980364E1813009F460E186E793E01B
:1045E0000E942C1264E08AE097E00E947E11809184
:1045F0007A0390917B038038910509F0B8C18091CE
:104600007C0390917D038032910509F09CC164E0A8
:1046100086E097E00E947E1169ED86E793E00E94B4
:104620002C128091980361EF813009F462E286E7F1
:1046300093E00E942C1266E08AEF96E00E947E11C1
:104640008091930390919403892B09F4A7C1209141
:10465000B1033091B2034091B3035091B40360E0D1
:1046600074E284EF90E00E94AB2A205131094109A5
:10467000510956954795379527952093B80064E6DC
:1046800070E080E090E00E94BE070E948E120E94BF
:104690004A1618E28AE090E00E946B1564E670E02A
:1046A00080E090E00E94BE071150A1F769E471E03C
:1046B000CE0101960E94CA1760916603709167034C
:1046C0008091680390916903AE014F5F5F4F0E9434
:1046D000E418CE0101960E94181860E08AE00E945A
:1046E000FE0660E08CE00E94FE0660E08BE00E9427
:1046F000FE0660E08FE00E94FE0661E08DE00E9411
:10470000FE0660E082E10E94FE0690E080E00E94EA
:104710002B068F3F09F04DC10E94BC140E94E0148B
:1047200060E090E080E00E94A4140E944A1610927B
:10473000830310928203109285031092840381E018
:1047400080938A0380938B038CE692E00E943C1650
:104750000E948E1268EA71E680E090E00E94BE0737
:1047600000E010E00E94611901151105D9F30E94C3
:104770000000F8CF6052710977FF02C06F5F7F4F72
:10478000759567958357910997FD019600E210E0B2
:1047900023E730E048E557E08CCE61E080919C0350
:1047A0000E94FE0661E080919D030E94FE068091BA
:1047B0009C03082E000C990BFC01E35CF84FE4917C
:1047C000F0E0EE0FFF1FEF5CF84F2591349130932E
:1047D000A4032093A303FC01EA5EF84FE491E09365
:1047E000A90380919D03082E000C990BFC01E35C4A
:1047F000F84FE491F0E0EE0FFF1FEF5CF84FA5914A
:10480000B491B093A603A093A503FC01EA5EF84F10
:10481000E491E093AA038C91E82BEC9380919103AF
:1048200090919203892B09F434C01FB7F8948091BA
:104830002B03811127C0E7E4F7E08491E0E2F7E081
:104840009491E82FF0E0EE0FFF1FE251F94FA59190
:10485000B491EC91E92321F461E08AE00E94D00652
:1048600061E08AE00E94FE068CB580618CBD8CB54B
:1048700080648CBD61E08DE00E94FE0661E08BE00B
:104880000E94FE0680912B038F5F80932B031FBF36
:104890004DCE61E080919A030E94FE0661E0809116
:1048A0009B030E94FE0680919A03082E000C990B30
:1048B000FC01E35CF84FE491F0E0EE0FFF1FEF5CCA
:1048C000F84F259134913093A00320939F03FC016E
:1048D000EA5EF84FE491E093A70380919B03082ED2
:1048E000000C990BFC01E35CF84FE491F0E0EE0F53
:1048F000FF1FEF5CF84FA591B491B093A203A09372
:10490000A103FC01EA5EF84FE491E093A8038C91C7
:10491000E095E823EC930ACE809191039091920365
:10492000892B31F08091AB039091AC030E948B0AEC
:10493000E091A503F091A60390818091AA03809550
:104940008923808334CE8034910509F065CE63E0FD
:1049500083E097E00E947E11809198036FEC813094
:1049600009F46FE986E793E00E942C1255CE803659
:10497000910509F051CE80917C0390917D03409781
:1049800009F04ACE63E080E097E00E947E118091BA
:1049900098036FEA813031F760E1E4CFE091A5033D
:1049A000F091A60380819091AA03892B808367CE22
:1049B000FFCF81E090E00E942B068093360382E0D7
:1049C00090E00E942B068093350383E090E00E94E4
:1049D0002B068093340384E090E00E942B068093A2
:1049E000330385E090E00E942B068093320386E03B
:1049F00090E00E942B0680933103B2CE8EE191E0CD
:104A0000909377038093760380919503909196031A
:104A1000009711F00C946F2B0895EF920F931F9352
:104A2000CF93DF93E80134E047FD34E1042E000C1E
:104A3000550B57FF03C0519541955109E32E022FA5
:104A4000242FAE010E945025CE01DF91CF911F91FE
:104A50000F91EF900895BB274A3031F4992322F447
:104A6000BDE2909581959F4F0C943725BB27FB01A4
:104A70005527AA27880F991FAA1FA41710F0A41B57
:104A800083955051B9F7A05DAA3308F0A95DA193B1
:104A9000009779F7B111B1931192CB010C9487274C
:104AA000A9E0B0E0E6E5F5E20C94CC286A01F22E2C
:104AB000B02E102FFBE3AF2EA01608F41BE31F5FF0
:104AC000012F27E0AE014F5F5F4F0E94AF26BC0170
:104AD0008981982F9970913009F43FC09BE2E1FCE5
:104AE00004C09E2D9170E0FC3AC05E2D5071E82FFD
:104AF000E87083FF46C084E0911101C083E0EF2D90
:104B0000E81B8F1508F0E0E0D6018E2F20E2552338
:104B100051F1992329F0D6019C93C60101966C01AD
:104B200096012D5F3F4FE2FE24C08EE4D6018C93A8
:104B300091E411969C93119712968C93D9018E2F24
:104B400090E281111BC0E20FF32FF11D10828EEF56
:104B50009FEF2996ECE00C94E8289DE2C6CF90E206
:104B6000C4CF2D9381508111FCCFCE0ED11CE0E03B
:104B7000D0CF8EE6D6018C9391E6DBCF9D9381500A
:104B8000E0CF482F447082FF3DC084E0911101C006
:104B900083E08F1510F4EF2DE81BD6018E2F20E255
:104BA000552309F1992329F0D6019C93C60101965A
:104BB0006C0196012D5F3F4FE2FE1BC089E4D601D8
:104BC0008C938EE411968C93119786E412968C93B5
:104BD000D9018E2F90E2882309F4B5CF9D9381509F
:104BE000FACF2D9381508111FCCFCE0ED11CE0E085
:104BF000D9CF89E6D6018C938EE611968C931197C6
:104C000086E6E4CF9B0177FF02C030E020E0A1E020
:104C1000B0E0911102C0B0E0A0E0F9013196AE0F12
:104C2000BF1F8B2C912CBB2009F461C05401EFEF06
:104C3000AE1ABE0AAA0DBB1DFA161B0619F014F017
:104C40004F2D4A1B511188C0E3FC59C07601A42F97
:104C5000B0E2A1114FC0C40ED11C992309F45BC06E
:104C600040E0D6011196F60190836D01552309F4B9
:104C700048C0012F060F9A81582F507184FF03C03E
:104C8000913309F4015010160CF047C0093008F0B8
:104C900008E0EEE2FE2E5B01A01AB10885019194B6
:104CA000819491082F3F320729F4D601FC92F60136
:104CB00031966F016217730794F1021713077CF5A1
:104CC000DB01A21BB30BAA24A394B12CAC0EBD1E16
:104CD000AA0DBB1D11968C9121503109D601119658
:104CE00028153905F4F0F60180836D01DBCFB12C76
:104CF000A12CA0CFF701B1937F01A150AACF9111B0
:104D0000B0CFD601942F50E302C05D939150911122
:104D1000FCCFC40ED11C40E0ACCF01E0BACF80E3A1
:104D2000DBCF6217730731F4963388F4953311F4AF
:104D3000552369F0F6018083FD01842F90E28111F3
:104D400008C0A40FB11D1C9290E080E002CF81E367
:104D5000F1CF91938150F3CF911183CF8ACF283037
:104D600008F027E03327DA01990F311D87FD9160A4
:104D700000966105710539F432602E5F3D9330E392
:104D80002A95E1F708959F3F30F08038710561055D
:104D900009F03C5F3C5F3D93913008F08068911DC5
:104DA000DF93CF931F930F93FF92EF92192F987F6A
:104DB0009695E92F96959695E90FFF27E45EFE4FAD
:104DC00099273327EE24FF24A701E70105900894D3
:104DD000079428F4360FE71EF81E491F511D660F71
:104DE000771F881F991F0694A1F70590079428F450
:104DF000E70EF81E491F561FC11D770F881F991F08
:104E0000661F0694A1F70590079428F4F80E491F31
:104E1000561FC71FD11D880F991F661F771F069445
:104E2000A1F70590079420F4490F561FC71FD81FFC
:104E3000990F661F771F881F0694A9F78491109514
:104E4000177041F0D695C79557954795F794E79415
:104E50001A95C1F7E2ECF0E0689415901591359140
:104E60006591959105907FE27395E118F10A430BE6
:104E7000560BC90BD009C0F7E10CF11E431F561F9A
:104E8000C91FD01D7EF4703311F48A95E6CFE894E3
:104E9000015030F0080F0AF40027021708F4202F01
:104EA0002395022F7A3328F079E37D932A95E9F749
:104EB00010C07D932A9589F6069497956795379546
:104EC00017951794E118F10A430B560BC90BD0093B
:104ED00098F023957E9173957A3308F070E37C9374
:104EE0002013B8F77E9170617D9330F0839571E364
:104EF0007D9370E32A95E1F71124EF90FF900F91D5
:104F00001F91CF91DF91992787FD90950895DC013E
:104F1000FC01672F71917723E1F7329704C07C91F0
:104F20006D9370836291AE17BF07C8F308950E9416
:104F3000D92708F481E00895E89409C097FB3EF46E
:104F400090958095709561957F4F8F4F9F4F9923D6
:104F5000A9F0F92F96E9BB279395F6958795779554
:104F60006795B795F111F8CFFAF4BB0F11F460FF14
:104F70001BC06F5F7F4F8F4F9F4F16C0882311F06C
:104F800096E911C0772321F09EE8872F762F05C080
:104F9000662371F096E8862F70E060E02AF09A951B
:104FA000660F771F881FDAF7880F9695879597F910
:104FB0000895990F0008550FAA0BE0E8FEEF1616AA
:104FC0001706E807F907C0F012161306E407F507FD
:104FD00098F0621B730B840B950B39F40A2661F071
:104FE000232B242B252B21F408950A2609F4A14014
:104FF000A6958FEF811D811D08950E9410280C94A5
:1050000081280E94732838F00E947A2820F0952386
:1050100011F00C946A280C94702811240C94B52873
:105020000E94922870F3959FC1F3950F50E0551F91
:10503000629FF001729FBB27F00DB11D639FAA27ED
:10504000F00DB11DAA1F649F6627B00DA11D661F3C
:10505000829F2227B00DA11D621F739FB00DA11D5D
:10506000621F839FA00D611D221F749F3327A00D17
:10507000611D231F849F600D211D822F762F6A2FB3
:1050800011249F5750409AF0F1F088234AF0EE0F18
:10509000FF1FBB1F661F771F881F91505040A9F745
:1050A0009E3F510580F00C946A280C94B5285F3F10
:1050B000E4F3983ED4F3869577956795B795F79581
:1050C000E7959F5FC1F7FE2B880F911D96958795F9
:1050D00097F9089597F99F6780E870E060E0089578
:1050E0009FEF80EC089500240A9416161706180600
:1050F0000906089500240A941216130614060506DC
:105100000895092E0394000C11F4882352F0BB0F6C
:1051100040F4BF2B11F460FF04C06F5F7F4F8F4FCF
:105120009F4F089557FD9058440F551F59F05F3F0A
:1051300071F04795880F97FB991F61F09F3F79F0B9
:1051400087950895121613061406551FF2CF46953B
:10515000F1DF08C0161617061806991FF1CF8695BD
:105160007105610508940895E894BB2766277727A1
:10517000CB0197F908950E94FD28A59F900DB49F3B
:10518000900DA49F800D911D112408952F923F92A0
:105190004F925F926F927F928F929F92AF92BF9247
:1051A000CF92DF92EF92FF920F931F93CF93DF93F3
:1051B000CDB7DEB7CA1BDB0B0FB6F894DEBF0FBE50
:1051C000CDBF09942A88398848885F846E847D849D
:1051D0008C849B84AA84B984C884DF80EE80FD809F
:1051E0000C811B81AA81B981CE0FD11D0FB6F89415
:1051F000DEBF0FBECDBFED010895A29FB001B39FEA
:10520000C001A39F700D811D1124911DB29F700DCF
:10521000811D1124911D08955058BB27AA270E9473
:1052200024290C9481280E94732838F00E947A283F
:1052300020F039F49F3F19F426F40C9470280EF4F2
:10524000E095E7FB0C946A28E92F0E94922858F316
:10525000BA17620773078407950720F079F4A6F55B
:105260000C94B4280EF4E0950B2EBA2FA02D0B0150
:10527000B90190010C01CA01A0011124FF27591B9B
:1052800099F0593F50F4503E68F11A16F040A22FA1
:10529000232F342F4427585FF3CF46953795279512
:1052A000A795F0405395C9F77EF41F16BA0B620B11
:1052B000730B840BBAF09150A1F0FF0FBB1F661F58
:1052C000771F881FC2F70EC0BA0F621F731F841F9B
:1052D00048F4879577956795B795F7959E3F08F0C1
:1052E000B0CF9395880F08F09927EE0F9795879583
:1052F00008950E948D290C9481280E947A2858F0E4
:105300000E94732840F029F45F3F29F00C946A282A
:1053100051110C94B5280C9470280E94922868F3BF
:105320009923B1F3552391F3951B550BBB27AA275E
:1053300062177307840738F09F5F5F4F220F331F98
:10534000441FAA1FA9F335D00E2E3AF0E0E832D060
:1053500091505040E695001CCAF72BD0FE2F29D063
:10536000660F771F881FBB1F261737074807AB0735
:10537000B0E809F0BB0B802DBF01FF2793585F4FAA
:105380003AF09E3F510578F00C946A280C94B528A9
:105390005F3FE4F3983ED4F3869577956795B7958C
:1053A000F7959F5FC9F7880F911D9695879597F997
:1053B0000895E1E0660F771F881FBB1F6217730710
:1053C0008407BA0720F0621B730B840BBA0BEE1F25
:1053D00088F7E09508950E94F2296894B1110C9421
:1053E000B52808950E949A2888F09F5798F0B92F01
:1053F0009927B751B0F0E1F0660F771F881F991F0A
:105400001AF0BA95C9F714C0B13091F00E94B428CF
:10541000B1E008950C94B428672F782F8827B85FDF
:1054200039F0B93FCCF3869577956795B395D9F761
:105430003EF490958095709561957F4F8F4F9F4F6B
:1054400008950E94D92708F48FEF089516F00C9460
:10545000762A0C94702868940C946A280E949A28E2
:10546000A8F39923C1F3AEF3DF93CF931F930F9368
:10547000FF92C92FDD2788232AF02197660F771F17
:10548000881FDAF720E030E040E85FEB9FE38839DF
:1054900020F0803E38F021968F770E940D29E8E6B3
:1054A000F0E004C00E940D29E5E9F0E00E94842AA2
:1054B0008B01BE01EC01FB2E6F5771097595771FAB
:1054C000880B990B0E949E2728E132E741E35FE3B6
:1054D0000E941028AF2D9801AE01FF900F911F91EF
:1054E000CF91DF910E9424290C9481289F3F31F0B5
:1054F000915020F4879577956795B795880F911D02
:105500009695879597F90895DF93CF931F930F93FF
:10551000FF92EF92DF927B018C01689406C0DA2E35
:10552000EF010E941028FE01E894A5912591359184
:1055300045915591A6F3EF010E942429FE019701A0
:10554000A801DA9469F7DF90EF90FF900F911F9117
:10555000CF91DF910895A1E21A2EAA1BBB1BFD017A
:105560000DC0AA1FBB1FEE1FFF1FA217B307E40742
:10557000F50720F0A21BB30BE40BF50B661F771F9A
:10558000881F991F1A9469F760957095809590957A
:105590009B01AC01BD01CF010895EE0FFF1F0590E7
:1055A000F491E02D09940F931F93CF93DF938230F2
:1055B000910510F482E090E0E091B703F091B80318
:1055C00030E020E0B0E0A0E0309799F421153105FB
:1055D00009F44AC0281B390B24303105D8F58A81DB
:1055E0009B816115710589F1FB0193838283FE0123
:1055F00011C0408151810281138148175907E0F0A1
:105600004817590799F4109761F012960C93129766
:1056100013961C933296CF01DF91CF911F910F917A
:1056200008950093B7031093B803F4CF2115310503
:1056300051F04217530738F0A901DB019A01BD016F
:10564000DF01F801C1CFEF01F9CF9093B803809348
:10565000B703CDCFFE01E20FF31F81939193225048
:10566000310939832883D7CF2091B5033091B60310
:10567000232B41F420910401309105013093B603AE
:105680002093B503209102013091030121153105CA
:1056900041F42DB73EB74091060150910701241BFC
:1056A000350BE091B503F091B603E217F307A0F4D0
:1056B0002E1B3F0B2817390778F0AC014E5F5F4F68
:1056C0002417350748F04E0F5F1F5093B6034093E1
:1056D000B503819391939FCFF0E0E0E09CCFCF930F
:1056E000DF930097E9F0FC01329713821282A091B8
:1056F000B703B091B803ED0130E020E01097A1F4BA
:1057000020813181820F931F2091B5033091B60320
:105710002817390709F061C0F093B603E093B50389
:10572000DF91CF910895EA01CE17DF07E8F54A81AE
:105730005B819E0141155105B1F7E901FB83EA83C5
:1057400049915991C40FD51FEC17FD0761F4808171
:1057500091810296840F951FE90199838883828144
:1057600093819B838A83F0E0E0E012968D919C9177
:1057700013970097B9F52D913C911197CD010296A1
:10578000820F931F2091B5033091B6032817390774
:1057900039F6309751F51092B8031092B703B093D1
:1057A000B603A093B503BCCFD383C283408151819C
:1057B000840F951FC817D90761F44E5F5F4F88812A
:1057C0009981480F591F518340838A819B8193831C
:1057D00082832115310509F0B0CFF093B803E0932F
:1057E000B7039ECFFD01DC01C0CF13821282D7CF59
:1057F000B0E0A0E0EEEFFBE20C94C8288C0100972B
:1058000051F4CB010E94D32A8C01C801CDB7DEB779
:10581000E0E10C94E428FC01E60FF71F9C01225004
:105820003109E217F30708F49DC0D901CD91DC914D
:105830001197C617D70798F0C530D10530F3CE01C0
:1058400004978617970708F3C61BD70B2297C193B7
:10585000D1936D937C93CF010E946F2BD6CF5B01C8
:10586000AC1ABD0A4C018C0E9D1EA091B703B091DD
:10587000B803512C412CF12CE12C109731F580917B
:10588000B5039091B6038815990509F05CC04616DA
:10589000570608F058C080910201909103010097CB
:1058A00041F48DB79EB74091060150910701841BCA
:1058B000950BE817F90708F055C0F093B603E0938D
:1058C000B503F90171836083A0CF8D919C911197ED
:1058D00012966C90129713967C901397A815B905A1
:1058E00059F56C0142E0C40ED11CCA14DB0420F14E
:1058F000AC014A195B09DA011296159780F06282B1
:10590000738251834083D9016D937C93E114F10438
:1059100071F0D7011396FC93EE93129776CF2296EF
:105920008C0F9D1FF90191838083F301EFCFF093DA
:10593000B803E093B70369CF4816590608F42C0161
:105940007D01D3019ACFCB010E94D32A7C0100971D
:1059500049F0AE01B8010E94BA2CC8010E946F2B19
:10596000870153CF10E000E050CF81E090E0F89441
:105970000C94D12CFB01DC0102C001900D9241502E
:105980005040D8F70895DC0101C06D93415050405C
:10599000E0F70895FB01DC0101900D920020E1F792
:1059A000089516E0C0E0D6E004C0FE010E94CD2AB2
:0C59B0002196C130D107C9F7F894FFCF51
:1059BC0001010000B903800000000000F810CB10BA
:1059CC000E143306C410B510A71000000000C90C4B
:1059DC0034060E148310D30933066E0F460F620F74
:1059EC00560FD60F33068F0AB81343098C098F0E46
:1059FC00720EFA0D9B0D0D0A0043004D454E495594
:105A0C00005B50003C4D6F64653A436F6F6C2C48E3
:105A1C006561743E006F6F6C696E670065617469D7
:105A2C006E670048003C4C6F6769632054656D706D
:105A3C002E204F66667365743E00467265717565FF
:105A4C006E74206F6E2074696D656F757420006DB7
:105A5C00696E003C4F766572776F726B696E67206A
:105A6C0074696D656F75743E003C4F766572776F27
:105A7C00726B696E6720636F6F6C646F776E003C3E
:105A8C00526573657420746F2064656661756C74FF
:105A9C003E00507265737320757020746F207265B0
:105AAC007365740020446F6E65005B455849545D06
:105ABC00004B65697374692074656D7065726174EF
:105ACC0075726100436F6F6C646F776E3A002F00D4
