:100000000C94F6050C941E060C941E060C941E0609
:100010000C941E060C941E060C941E060C941E06D0
:100020000C941E060C941E060C941E060C941E06C0
:100030000C941E060C941E060C941E060C941E06B0
:100040000C94851F0C941E060C941E060C941E0620
:100050000C941E060C941E060C941E060C941E0690
:100060000C94CF1F0C941E0608000000BE92244979
:10007000123EABAAAA2ABECDCCCC4C3E00000080DA
:10008000BEABAAAAAA3E00000000BF000000803F4D
:100090000000000000084178D3BB4387D1133D190D
:1000A0000E3CC3BD4282AD2B3E68EC8276BED98F3A
:1000B000E1A93E4C80EFFFBE01C4FF7F3F0000007E
:1000C000000000407A10F35A00A0724E1809001088
:1000D000A5D4E80000E87648170000E40B540200BD
:1000E00000CA9A3B000000E1F505000080969800E8
:1000F000000040420F000000A08601000000102711
:1001000000000000E80300000000640000000000A0
:100110000A00000000000100000000002C76D888D2
:10012000DC674F0823DFC1DFAE59E1B1B796E5E3E5
:10013000E453C63AE651997696E8E6C28426EB89FE
:100140008C9B62ED407C6FFCEFBC9C9F40F2BAA59B
:100150006FA5F490055A2AF75C936B6CF9676DC133
:100160001BFCE0E40D47FEF520E6B500D0ED902E37
:100170000300943577050080841E080000204E0A95
:10018000000000C80C333333330F986E12831141D3
:10019000EF8D2114893BE65516CFFEE6DB18D1849E
:1001A0004B381BF77C1D901DA4BBE42420328472C5
:1001B0005E228100C9F124ECA1E53D27000000008A
:1001C000003E5B4F5B3E3E6B4F6B3E1C3E7C3E1CDD
:1001D000183C7E3C181C577D571C1C5E7F5E1C0023
:1001E000183C1800FFE7C3E7FF0018241800FFE7DA
:1001F000DBE7FF30483A060E2629792926407F059D
:100200000507407F05253F5A3CE73C5A7F3E1C1CB2
:1002100008081C1C3E7F14227F22145F5F005F5F72
:1002200006097F017F006689956A6060606060945E
:10023000A2FFA29408047E040810207E2010080863
:100240002A1C08081C2A08081E101010100C1E0C6E
:100250001E0C30383E3830060E3E0E060000000000
:100260000000005F00000007000700147F147F14E7
:10027000242A7F2A1223130864623649562050002C
:1002800008070300001C2241000041221C002A1C18
:100290007F1C2A08083E0808008070300008080803
:1002A0000808000060600020100804023E51494523
:1002B0003E00427F400072494949462141494D3341
:1002C0001814127F1027454545393C4A49493141A8
:1002D000211109073649494936464949291E000076
:1002E00014000000403400000008142241141414CB
:1002F0001414004122140802015909063E415D59B7
:100300004E7C1211127C7F494949363E41414122BF
:100310007F4141413E7F494949417F090909013EE9
:10032000414151737F0808087F00417F4100204010
:10033000413F017F081422417F404040407F021C22
:10034000027F7F0408107F3E4141413E7F09090939
:10035000063E4151215E7F09192946264949493205
:1003600003017F01033F4040403F1F2040201F3FCB
:100370004038403F63140814630304780403615950
:10038000494D43007F414141020408102000414192
:10039000417F04020102044040404040000307083E
:1003A0000020545478407F2844443838444444283A
:1003B000384444287F385454541800087E090218E1
:1003C000A4A49C787F0804047800447D4000204069
:1003D000403D007F1028440000417F40007C0478AD
:1003E00004787C080404783844444438FC182424F5
:1003F0001818242418FC7C08040408485454542475
:1004000004043F44243C4040207C1C2040201C3CF1
:100410004030403C44281028444C9090907C4464E8
:10042000544C44000836410000007700000041367B
:10043000080002010204023C2623263C1EA1A16101
:10044000123A4040207A3854545559215555794133
:100450002254547842215554784020545579400C08
:100460001E527212395555555939545454593955EB
:100470005454580000457C410002457D420001452E
:100480007C407D1211127DF0282528F07C545545C2
:10049000002054547C547C0A097F4932494949322E
:1004A0003A4444443A324A4848303A4141217A3A3F
:1004B00042402078009DA0A07D3D4242423D3D400B
:1004C00040403D3C24FF2424487E4943662B2FFCBA
:1004D0002F2BFF0929F620C0887E09032054547968
:1004E000410000447D413048484A32384040227A39
:1004F000007A0A0A727D0D19317D2629292F2826B6
:100500002929292630484D402038080808080808BD
:100510000808382F10C8ACBA2F102834FA00007B16
:10052000000008142A142222142A14085500550029
:1005300055AA55AA55AAFF55FF55FF000000FF0018
:10054000101010FF00141414FF001010FF00FF1013
:1005500010F010F0141414FC001414F700FF000045
:10056000FF00FF1414F404FC141417101F10101FC4
:10057000101F1414141F00101010F0000000001FB2
:10058000101010101F10101010F010000000FF10BD
:100590001010101010101010FF10000000FF1400B9
:1005A00000FF00FF00001F10170000FC04F41414EB
:1005B0001710171414F404F40000FF00F7141414B7
:1005C00014141414F700F7141414171410101F1037
:1005D0001F141414F4141010F010F000001F101F5A
:1005E0000000001F14000000FC140000F010F010C8
:1005F00010FF10FF141414FF141010101F0000003F
:1006000000F010FFFFFFFFFFF0F0F0F0F0FFFFFF42
:100610000000000000FFFF0F0F0F0F0F3844443899
:1006200044FC4A4A4A347E02020606027E027E02E8
:1006300063554941633844443C04407E201E2006F3
:10064000027E020299A5E7A5991C2A492A1C4C7230
:1006500001724C304A4D4D303048784830BC625AB7
:10066000463D3E494949007E0101017E2A2A2A2A47
:100670002A44445F444440514A444040444A514023
:100680000000FF0103E080FF000008086B6B0836E4
:1006900012362436060F090F060000181800000055
:1006A0001010003040FF0101001F01011E00191D44
:1006B0001712003C3C3C3C00000000000001030716
:1006C0000F1F3F7F0080C0E0F0F8FCFE000000003C
:1006D000230026002900000000080002010000039A
:1006E00004070000000000000000000000002400DB
:1006F00027002A00DB40A4A62EAFDA0281DA12819D
:10070000DA02818F2000A1C8D300408DAED580A829
:100710000102040810204080010204081020010298
:100720000408102000000000250028002B0004040D
:100730000404040404040202020202020303030389
:100740000303000060000000000000000000000043
:10075000000000E0000000000000000000000000B9
:100760000001E000000000000000000000000000A8
:1007700001F0000000000000000000000000000385
:10078000F00000000000000000000000000007F082
:100790000000000000000000000000000007F8005A
:1007A0000000000000000000000000000FF8000042
:1007B0000003C0007E000001E0007F0FF800000091
:1007C00003C000FE000001E000FFEFF8000000039E
:1007D000C000FE000001E000FFFFF800000003C0C1
:1007E00000F00000000F007FFE7FC0000003C0008B
:1007F000F00000000F003FFE7FF83FF1FBCFFCFE52
:10080000F3BC3DEFE01FFE7FFF7FFBFFDFFEFEFF3F
:10081000BC3DEFE01FC6FFFF7FFBFFDFFEFEFFBC1E
:100820003DEFE00FE3C7FE787BC3DE1EF0FFBC3D6B
:10083000EF0007FF87FC787BC3DE1EF0F83C3DEF3E
:100840000001FFFFF0007BC3C01EF0F03C3DEF0055
:1008500001F37FE03FFBC3CFFEF0F03C3DEF000330
:10086000E33F807FFBC3DFFEF0F03C3DEF0007E796
:100870003C00787BC3DE1EF0F03C3DEF0007FFBE7E
:1008800000787BC3DE1EF0F03C3DEF0007FFFE006A
:10089000787BC3DE1EF0F03C3DEF000FFFFE007FD3
:1008A000FBFFDFFEF0F03FFDEFE00FFFFF007FFBFF
:1008B000FFDFFEF0F03FFDEFE00FF9FF003E79F9BA
:1008C000CF9EF0F01F3DE7E01FF1FF0000000000A9
:1008D000000000000000001F80FF007FFFFFFFFFFF
:1008E000FFFFFFFFFFE01C007F007FFFFFFFFEB464
:1008F0006D888D18E000001F007FFFFFFFFE95ADA3
:100900007DB577E000000F007FFFFFFFFEA5AD9DE6
:100910008D19E0000006007FFFFFFFFEB5ADEDB5CD
:100920007EE00000000000018000000000000000E8
:100930000000038000000000000000000007C0006D
:10094000000000000000000007C0000000000000E0
:100950000000000FC00000000000000000001FE0C9
:100960000000000000000000001FE0000000000088
:10097000000000003FE00000000000000000003F19
:10098000F00000000000000000007FF00000000008
:100990000000001FF87FF0000000000000003FFE94
:1009A0007FF0000000000000003FFF7FF00000002B
:1009B000000000001FFFFBE0000000000000000F2F
:1009C000FFF9FFC00000000000000FFFF9FFF80072
:1009D000000000000007FFF1FFFF00000000000022
:1009E00003FC73FFFF80000000000001FE3FFFFFDB
:1009F00080000000000000FF1E0FFF00000000004C
:100A000000007FFE1FFC000000000000003FFFFF11
:100A1000F8000000000000000FDFFFE00000000011
:100A20000000001F19FFC0000000000000003F3C54
:100A3000FF00000000000000007E7CF800000000C5
:100A4000000000007FFE7C0000000000000000FFAE
:100A5000FFFC0000000000000000FFFFFE0000009F
:100A60000000000000FFFFFE000000000000000189
:100A7000FFEFFE0000000000000001FFCFFE0000BD
:100A8000000000000003FF07FE000000000000005F
:100A900003FC07FE0000000000000003F003FE005E
:100AA000000000000000018000FE000000000000C7
:100AB000000000007E000000000000000000003E7A
:100AC000000000000000000000000C00000000001A
:100AD00000078000FC000003C0000000078001FC4C
:100AE000000003C0000000078001FC000003C000FC
:100AF0000000078001E00000001E000000078001E8
:100B0000E00000001E007FE3F79FF9FDE7787BDF40
:100B1000C0FFF7FFBFFDFDFF787BDFC0FFF7FFBF22
:100B2000FDFDFF787BDFC0F0F787BC3DE1FF787B00
:100B3000DE00F0F787BC3DE1F0787BDE0000F78750
:100B4000803DE1E0787BDE007FF7879FFDE1E07884
:100B50007BDE00FFF787BFFDE1E0787BDE00F0F78A
:100B600087BC3DE1E0787BDE00F0F787BC3DE1E04B
:100B7000787BDE00F0F787BC3DE1E0787BDE00FFAC
:100B8000F7FFBFFDE1E07FFBDFC0FFF7FFBFFDE147
:100B9000E07FFBDFC07CF3F39F3DE1E03E7BCFC015
:100BA0000000000000000000000000FFFFFFFFFF4A
:100BB000FFFFFFFFFFC0FFFFFFFFFD68DB111A31E2
:100BC000C0FFFFFFFFFD2B5AFB6AEFC0FFFFFFFFD7
:100BD000FD4B5B3B1A33C0FFFFFFFFFD6B5BDB6A26
:100BE000FDC02200FF210000EE20D02411241FBEF2
:100BF000CFEFD8E0DEBFCDBF23E0A4E5B2E001C077
:100C00001D92A93CB207E1F712E0A0E0B1E0EEE6E8
:100C1000F9E502C005900D92A435B107D9F715E0AA
:100C2000C5EFD5E004C02197FE010E94A62AC43F6B
:100C3000D107C9F70E9491210C94AA2C0C940000B2
:100C40000895AF92BF92CF92DF92EF92FF920F93EF
:100C50001F93CF93DF936C017B018B01040F151F52
:100C6000EB015E01AE18BF08C017D10759F06991BA
:100C7000D601ED91FC910190F081E02DC60109951E
:100C8000892B79F7C501DF91CF911F910F91FF90CB
:100C9000EF90DF90CF90BF90AF900895FC0144811A
:100CA00055816081718184E793E00C942106089559
:100CB0000895833081F028F4813099F08230A9F0D2
:100CC00008958730A9F08830C9F08430B1F480915C
:100CD00080008F7D03C0809180008F77809380009B
:100CE000089584B58F7784BD089584B58F7DFBCF3B
:100CF0008091B0008F778093B00008958091B0000C
:100D00008F7DF9CFCF93DF93282F30E0F901EA529E
:100D1000F94F8491F901E05FF84FD491F901E25D58
:100D2000F84FC491CC23A1F081110E945906EC2FF9
:100D3000F0E0EE0FFF1FE453F94FA591B491EC9151
:100D4000ED2381E090E009F480E0DF91CF910895F8
:100D500080E090E0FACF1F93CF93DF93282F30E00D
:100D6000F901EA52F94F8491F901E05FF84FD4910B
:100D7000F901E25DF84FC491CC23A9F0162F81113F
:100D80000E945906EC2FF0E0EE0FFF1FEC5DF84FCC
:100D9000A591B4918FB7F894EC91111108C0D0953A
:100DA000DE23DC938FBFDF91CF911F910895DE2B5F
:100DB000F8CFCF93DF9390E0FC01E05FF84F2491F0
:100DC000825D984FFC0184918823D1F090E0880FD8
:100DD000991FFC01E651F94FA591B491FC01EC5D1E
:100DE000F84FC591D49161110EC09FB7F8948C91C2
:100DF000E22FE0958E238C932881E223E8839FBF26
:100E0000DF91CF9108958FB7F894EC91E22BEC939A
:100E10008FBFF6CF8E3008F08E508770806480933D
:100E20007C0080917A00806480937A0080917A00BF
:100E300086FDFCCF809178009091790008953FB7AE
:100E4000F8948091210390912203A0912303B09103
:100E5000240326B5A89B05C02F3F19F00196A11DBC
:100E6000B11D3FBFBA2FA92F982F8827BC01CD01F4
:100E7000620F711D811D911D42E0660F771F881F53
:100E8000991F4A95D1F708958F929F92AF92BF9282
:100E9000CF92DF92EF92FF926B017C010E941F07BD
:100EA0004B015C01C114D104E104F104B9F00E94CA
:100EB0001F07681979098A099B09683E73408105F3
:100EC000910580F321E0C21AD108E108F10888EE0B
:100ED000880E83E0981EA11CB11CE4CFFF90EF9018
:100EE000DF90CF90BF90AF909F908F9008950F9319
:100EF0001F93CF93DF938C01C62FD42F80913A0399
:100F0000882359F0F80180818F3F39F08F5F80830B
:100F100070E090E080E00E944407809139038823CC
:100F200081F0F8018081D81760F4815080836C2FA4
:100F300070E090E080E0DF91CF911F910F910C94D1
:100F40004407DF91CF911F910F9108952FB7F89427
:100F500060911D0370911E0380911F0390912003E7
:100F60002FBF0895EF92FF920F931F93CF93DF93BC
:100F7000EC01EC80FD806E157F050CF070C057FF12
:100F800004C0240F351F50E040E08E819F81FA019C
:100F9000E20FF31F8E179F071CF49C01241B350BD7
:100FA000121613060CF05BC0922F842F869586953F
:100FB00086958E9DD0018F9DB00D11246A0F7B1FE9
:100FC000AF8DB8A1A60FB71F477049F188E0841B09
:100FD000482F682F70E0FB01EC53F94FE49128177C
:100FE00008F063C0621B71092FEF30E002C0359535
:100FF00027956A95E2F7E2230130110539F0B0F147
:101000000230110561F58C91E82702C08C91E82B24
:10101000EC93941720F12C813D81A20FB31FE92F8F
:10102000E41BE83078F00230110521F58E2F9C91F9
:1010300090959C932C813D81A20FB31F88508830DE
:10104000B0F7E770EE2359F0F0E0E454F94FE49183
:1010500001301105F9F010F10230110519F1DF919D
:10106000CF911F910F91FF90EF900895E0958C9193
:10107000E823CECF81E00115110509F480E08195C8
:101080009E2F8C932C813D81A20FB31F98509830D6
:10109000C0F7D7CF8C91E82BEC93E1CFE0958C9102
:1010A000E823FACF8C91E827F7CF0130110509F436
:1010B000ADCFE0F20230110509F4A5CFAE0DBF1D92
:1010C000AECF0F931F93CF93DF9377FF04C0260F0C
:1010D000371F70E060E0DC011496CD91DC91FB01DC
:1010E000E20FF31FCE17DF071CF49E01261B370B00
:1010F000121613064CF5FA0157FD3796A3E0F59545
:10110000E795AA95E1F7EC9FD001ED9FB00DFC9F0C
:10111000B00D11246A0F7B1FDC015F96ED91FC91ED
:10112000E60FF71F4770552781E090E001C0880F58
:101130004A95EAF7482F0130110559F0A8F02E0F13
:101140003F1F02301105E1F0DF91CF911F910F9108
:1011500008952E0F3F1FE217F307B1F38191DF01CE
:101160001197842B8C93F7CF80952E0F3F1FE2179A
:10117000F30751F39191DF01119798239C93F7CFD7
:10118000E217F30709F38191DF01119784278C930C
:10119000F7CF0F931F93FA01DC0156964C915697A7
:1011A0004230E9F04330A1F1413061F514964D91A0
:1011B0005C91DA01AE1BBF0BFD01E21BF30B77FD67
:1011C0000BC0DC0116964D915C916417750724F4F1
:1011D000AB01BF010E9461081F910F910895149601
:1011E0004D915C91DA01A61BB70BBD0161507109ED
:1011F000DC0116964D915C91DA01AE1BBF0BFD012F
:10120000E21BF30B77FDE8CFAF010E94B207E4CFFA
:1012100016964D915C91DA01A61BB70BBD0161508A
:101220007109CDCF0F931F93FA01DC0156964C91B3
:1012300056974230A9F0433091F1413019F5149698
:101240004D915C91DA01AE1BBF0BFD013197F7FDAB
:1012500004C0AB01BF010E94B2071F910F91089516
:1012600014964D915C91DA01A61BB70BBD01DC0110
:1012700016964D915C91DA01AE1BBF0BFD013197C3
:10128000621B730BF7FDE9CFDC0116964D915C9163
:10129000E417F50714F7AF010E946108DECF169638
:1012A0004D915C91DA01A61BB70BBD01621B730B5C
:1012B000CECFFC0177FD64C08085918568177907E2
:1012C0000CF05EC057FD5CC08285938548175907B6
:1012D0000CF056C086898230B1F0833029F181301C
:1012E00041F484819581841B950BAB01BC01615055
:1012F00071092130310509F108F443C0223031056C
:1013000009F463C0089584819581DC01A61BB70BA5
:10131000BD016150710986819781DC01A41BB50B69
:10132000AD0141505109E5CF86819781861B970B0E
:10133000BA01AC0141505109DCCFCA0157FD0796F3
:10134000A3E095958795AA95E1F7A481B5818A9F39
:1013500090018B9F300D9A9F300D1124620F731FE7
:10136000078CF0A1E02DE60FF71F4770552721E00D
:1013700030E001C0220F4A95EAF78081822B8083FA
:101380000895CA0157FD079633E0959587953A95DC
:10139000E1F7A481B5818A9F90018B9F300D9A9FC0
:1013A000300D1124620F731F078CF0A1E02DE60FA2
:1013B000F71F4770552781E090E001C0880F4A95DC
:1013C000EAF7809590818923DACFCA0157FD079605
:1013D00023E0959587952A95E1F7A481B5818A9FA9
:1013E00090018B9F300D9A9F300D1124620F731F57
:1013F000078CF0A1E02DE60FF71F4770552721E07D
:1014000030E001C0220F4A95EAF780818227B7CFEA
:1014100008958EBD00000DB407FEFDCF8EB5089572
:101420008CBD9DBD08950895FC016370668B848119
:10143000958126813781613039F0633029F09187B9
:101440008087338722870895318720879387828713
:1014500008952F923F924F925F926F927F928F9258
:101460009F92AF92BF92CF92DF92EF92FF920F9333
:101470001F93CF93DF93CDB7DEB76A970FB6F8947B
:10148000DEBF0FBECDBF9A8F898F7A8369834A01F1
:10149000D22E18870F833701BC2CDC0159962D9171
:1014A0003C915A972115310509F015C118968D9177
:1014B0009C911997681779070CF0D7C11A968D91EE
:1014C0009C91481759070CF0D0C14C2C512CB6E018
:1014D000CB9E600D711D11247C876B871616170635
:1014E0000CF0C3C1EA2DF0E0FA87E98793E0EE0F34
:1014F000FF1F9A95E1F7F88BEF87CF01840F951FB7
:10150000181619060CF0B1C1A98DBA8D58968C9198
:10151000811104C0BFEABD1508F4D394A98DBA8D1A
:10152000ED91FC9111970284F385E02DCD01099591
:10153000B5E0DB9EC0011124E981FA81FC83EB83D5
:10154000312C212C9C0124543E4F388F2F8B4A2D57
:1015500050E05E8B4D8BEF89F88DE20DF31D4491C9
:101560009E828D82D12CC12C69817A81620D731D7E
:101570007A8B698B842F90E09C8B8B8BE98DFA8D15
:10158000A081B18140FF82C0F1E0BF126FC0AF12F5
:101590006DC01C96ED91FC912F813885A4014C0DF6
:1015A0005D1D69897A89898D9A8D0995EB89FC89F8
:1015B000F595E7954E2F5FEFC51AD50A6D817E81AF
:1015C0008D899E89680F791F7E836D8398E0C91687
:1015D000D10481F6AFEF2A1A3A0AEB81FC81E40DBF
:1015E000F51DFC83EB83F5E02F16310409F0B3CF32
:1015F0002F81388526153705B9F0A98DBA8DED9163
:10160000FC91B1E0BB1257C0AB1255C069817A8121
:101610006B5F7F4F0088F189E02D830128E030E087
:10162000A401898D9A8D0995A98DBA8DED91FC91B2
:1016300011970688F789E02DCD016A960FB6F894C8
:10164000DEBF0FBECDBFDF91CF911F910F91FF90F5
:10165000EF90DF90CF90BF90AF909F908F907F9052
:101660006F905F904F903F902F9009941E96ED9150
:10167000FC91EF80F88409851A8592014D815E8185
:101680006B817C81898D9A8D099590CF2F813885CA
:101690002615370509F48ACF31E0B31207C0A3122B
:1016A00005C01C96ED91FC91930178CF1E96ED91AB
:1016B000FC917301E0CF6B857C8564197509068404
:1016C000F785E02D73010F8518899201A401898D9A
:1016D0009A8D0995A9CFF901349694913297459145
:1016E0005491D91AB7E0DB9E400D511D1124F90128
:1016F000259134913C8B2B8BFA0125903490FA0183
:101700003296749031963491398B3296649031963A
:10171000449041E04C1518F04A1508F07FC0662D42
:10172000062C000C770B7C836B83842D042C000C1F
:10173000990B9E838D83A98DBA8DED91FC911197A4
:101740000284F385E02DCD010995512CD12CC12CBB
:10175000EA2DF0E0FA87E9872B2D30E03C872B87D4
:10176000A401440D511D47FC5A95588F4F8B698138
:101770007A81660D711D67FC7A957E876D87798900
:10178000C71608F051CF2C2D30E04D815E81420FFD
:10179000531FA985BA854A9FC0014B9F900D5A9F40
:1017A000900D1124FC01E80DF91DF88BEF87852DB4
:1017B000612C4F89588D420F531F5E8B4D8B6714E0
:1017C00008F050C044244394480E877041F4C1018E
:1017D0000196EB89FC89E20DF31DD4901C01D7FE24
:1017E00019C0A98DBA8DED91FC91662D70E0B1E024
:1017F000BB1219C0AB1217C02D853E85620F731F37
:101800000484F585E02D2F8138854D895E89898D89
:101810009A8D0995DD0C6394842DD1CF1E821D8293
:101820001C821B8288CF4B815C81640F751FAB8546
:10183000BC856A9FC0016B9F900D7A9F900D11240B
:1018400069817A81680F791F0684F785E02DEF8022
:10185000F88409851A859D014F855889898D9A8D4F
:101860000995D8CF570CC3948ACF6A960FB6F894CF
:10187000DEBF0FBECDBFDF91CF911F910F91FF90C3
:10188000EF90DF90CF90BF90AF909F908F907F9020
:101890006F905F904F903F902F9008958F929F92FE
:1018A000AF92CF92EF92FF920F931F93CF93DF935C
:1018B000EC01262F898D9A8D009709F051C06A306E
:1018C000D1F41D861C868D8948E0849F90011124E7
:1018D0008E859F85820F931F9F878E8781E090E082
:1018E000DF91CF911F910F91FF90EF90CF90AF902C
:1018F0009F908F9008956D3089F3CC88AD888F8943
:101900008823C1F08C859D8536E0C39E800D911D96
:101910001124488559854817590764F44E855F8519
:101920001D861C8638E0A39EC0011124840F951FDC
:101930009F878E87EA88FB88088919894E855F858D
:101940006C857D85CE010E94290A2C898C859D8518
:1019500046E0249F800D911D11249D878C87BECF6A
:101960006A3069F41D861C86FC013696E4912D8947
:101970008E859F85E29F800D911D1124ADCF6D3026
:1019800009F4ACCFFC0134963491631708F4A6CF68
:101990003196E491E61708F4A1CFFC0132968590C8
:1019A0009490462F431B342F47E0349F800C911CAA
:1019B0001124F401329634913196E4913323A9F144
:1019C000EE2399F1CC88F4013596E491AD884F89E6
:1019D000442301F10E2E000CFF0BE30FF11DCE9EF0
:1019E000A001CF9E500D11246C857D85460F571F99
:1019F00068857985641775076CF44E855F851D864B
:101A00001C86FC013696E491AE9E400D511D1124BA
:101A10005F874E87EA88FB88088919894E855F852C
:101A20006C857D85CE010E94290AF4013496E491EB
:101A30002C898C859D85E29F800D911D11248DCF71
:101A40006F927F928F929F92AF92BF92CF92DF92CE
:101A5000EF92FF920F931F93CF93DF93EC016B01F3
:101A60005A0139014801E881F9810284F385E02DAA
:101A70000995E881F9810288F389E02D87019301B6
:101A8000A501B601CE010995A501480D591D41508A
:101A90005109E881F9810288F389E02D9301B601AB
:101AA000CE010995E881F9810088F189E02D940142
:101AB000A501B601CE010995C60CD71CB60161502F
:101AC0007109E881F9810088F189E02D9401A5016F
:101AD000CE010995E881F9810688F789E02DCE01CC
:101AE000DF91CF911F910F91FF90EF90DF90CF90FA
:101AF000BF90AF909F908F907F906F9009946F925E
:101B00007F928F929F92AF92BF92CF92DF92EF928D
:101B1000FF920F931F93CF93DF935C01EB016A0158
:101B2000490138018701DC01ED91FC9162177307CF
:101B300019F5641675062CF0962D872D3A01C92EDD
:101B4000D82E9601261937092F5F3F4F048CF58D4B
:101B5000E02DA301BE01C5010995DF91CF911F9131
:101B60000F91FF90EF90DF90CF90BF90AF909F903C
:101B70008F907F906F9008954615570591F4261722
:101B8000370724F0892D4B01C22FD82F9E01281929
:101B900039092F5F3F4F068CF78DE02DA601B40168
:101BA000DACF0284F385E02D0995D501ED91FC9102
:101BB0000488F589E02D83019401A601BE01C501C9
:101BC0000995D501ED91FC910688F789E02DC501B5
:101BD000DF91CF911F910F91FF90EF90DF90CF9009
:101BE000BF90AF909F908F907F906F900994EF92ED
:101BF000FF920F931F93DC011A960D911C911B9776
:101C000018962D913C911997ED91FC9100A0F1A1AE
:101C1000E02D7B0150E040E070E060E009951F910D
:101C20000F91FF90EF9008954F925F926F927F9285
:101C30008F929F92AF92BF92CF92DF92EF92FF92DC
:101C40000F931F93CF93DF936C012B015A0139013E
:101C50004801DC01ED91FC910284F385E02D0995AA
:101C6000E201640C751CD601ED91FC91C615D705F7
:101C70005CF40088F189E02D87019401A501BE0183
:101C8000C60109952196EFCF0688F789E02DC60198
:101C9000DF91CF911F910F91FF90EF90DF90CF9048
:101CA000BF90AF909F908F907F906F905F904F907C
:101CB00009948F929F92AF92BF92CF92DF92EF9250
:101CC000FF920F931F93CF93DF93EC015B014A01C7
:101CD0006901E881F9810284F385E02D0995950178
:101CE0002C0D3D1D21503109E881F9810488F589C9
:101CF000E02D78018401A401B501CE010995E881A8
:101D0000F9810688F789E02DCE01DF91CF911F91EF
:101D10000F91FF90EF90DF90CF90BF90AF909F908A
:101D20008F9009948F929F92AF92BF92CF92DF9241
:101D3000EF92FF920F931F93CF93DF93EC015B0120
:101D40004A0169017801E881F9810284F385E02D77
:101D50000995C80CD91C860101501109E881F98147
:101D60000488F589E02D9501A401B501CE010995FE
:101D7000E881F9810688F789E02DCE01DF91CF91C6
:101D80001F910F91FF90EF90DF90CF90BF90AF9099
:101D90009F908F900994EF92FF920F931F93DC0115
:101DA000ED91FC9100A0F1A1E02D09951F910F91FB
:101DB000FF90EF9008950F931F93DC01ED91FC913C
:101DC000068CF78DE02D09951F910F9108950F93C3
:101DD0001F93DC01ED91FC91048CF58DE02D0995AC
:101DE0001F910F910895DC01ED91FC910084F18524
:101DF000E02D09943F924F925F926F927F928F9263
:101E00009F92AF92BF92CF92DF92EF92FF920F9389
:101E10001F93CF93DF935C017B014A016901390174
:101E200087E0680E711C93E0759467949A95E1F7CA
:101E30002B01400E511E10E000E0312CD0E0C0E03C
:101E4000CE0187709927330C892B59F4FE0183E06A
:101E5000F595E7958A95E1F7E00FF11FE80DF91D7B
:101E6000349037FE0AC021E030E0A701B5016C0FC5
:101E70007D1F84E793E00E94F30E2196CC16DD06C9
:101E8000F9F68FEFE81AF80A060D171DE414F504A9
:101E9000A9F6DF91CF911F910F91FF90EF90DF9006
:101EA000CF90BF90AF909F908F907F906F905F90FA
:101EB0004F903F9008952F923F924F925F926F9272
:101EC0007F928F929F92AF92BF92CF92DF92EF92CA
:101ED000FF920F931F93CF93DF9300D000D000D0D9
:101EE000CDB7DEB73C016A013E832D83FC82EB82D5
:101EF0005801A41AB50AB7FE03C0B194A194B10861
:101F00008D809E80861A970A97FE03C091948194D3
:101F100091088A149B045CF0902F812F0D811E8103
:101F20009D838E839C2D8D2D6B01692F782F0C1531
:101F30001D055CF09D818E817E836D83692F782FD6
:101F4000902F812F8601C92ED82E1601201A310A12
:101F50002B012D813E81421A530A57FE03C0519432
:101F600041945108710137FE03C03FEFE31AF30AB1
:101F7000F594E7948D819E81861797075CF5A1E023
:101F8000B0E0BA83A983C016D1064CF1D301ED911C
:101F9000FC910484F585E02D2B813C81A8016D81A5
:101FA0007E818A149B041CF04D815E81B801C301BF
:101FB0000995E418F508F7FE0AC02D813E81898154
:101FC0009A81280F391F3E832D83E20CF31C0F5F8B
:101FD0001F4FD9CF2FEF3FEF3A832983D4CF2696D7
:101FE0000FB6F894DEBF0FBECDBFDF91CF911F912A
:101FF0000F91FF90EF90DF90CF90BF90AF909F90A8
:102000008F907F906F905F904F903F902F900895AA
:10201000089585ED8093BC008091BC0084FDFCCFC9
:1020200010922C0308952091D502260F3327331FD9
:1020300021323105ECF420912C03FC0190E080E08A
:10204000243069F082E00895A091D5022191AC017D
:102050004B545D4FA40FB52FB11D2C9301968617DD
:1020600098F38091D502680F6093D50280E00895BF
:1020700081E00895E0912E0380912D03E81730F45C
:10208000F0E0EB56FD4F808190E008958FEF9FEFD9
:10209000089590912E0380912D032FEF3FEF981715
:1020A00048F4E92FF0E0EB56FD4F208130E09F5FD0
:1020B00090932E03C901089580912D0390912E03D2
:1020C000891B990B0895CF92DF92EF92FF920F93A5
:1020D0001F93CF93DF937C01CB018A0120913803BA
:1020E000222389F0EB016B01C40ED51ECC15DD0552
:1020F00069F06991D701ED91FC910190F081E02D9B
:10210000C7010995F3CF642F0E941310C801DF9116
:10211000CF911F910F91FF90EF90DF90CF90089596
:10212000CF93DF931F92CDB7DEB769832091380339
:102130002223F9F020913503203258F021E030E0DD
:10214000FC013383228390E080E00F90DF91CF91F8
:10215000089580913603E82FF0E0EB58FD4F998108
:1021600090838F5F809336038093350381E090E006
:10217000ECCF61E0CE0101960E941310F7CF2091C1
:10218000350381E0213208F044C080912C03811195
:10219000FCCF8091370392E090932C0391E09093D1
:1021A0002B039FEF9093F80210921A0320931903C8
:1021B000A5E7B2E0E9EFF2E090E0291331C0109218
:1021C0001B0390911B03880F892B80931B03809125
:1021D0002A03813049F510922A0380911B038093D2
:1021E000BB008091BC0083FDF8CF85EC8093BC00E0
:1021F00080912C038230E1F38091F8028F3FB1F09F
:102200008091F8028032A1F08091F802803391F041
:1022100084E010923603109235031092380308952B
:102220003D9131939F5FC9CF85EEE0CF80E0F1CF44
:1022300082E0EFCF83E0EDCFFF920F931F93CF9318
:10224000DF93F82ED92FC62F80919103909192039E
:10225000009709F452C02091950331E03093380380
:10226000209337031092360310923503DC01ED9171
:10227000FC910190F081E02D60E009950F2D1D2F5C
:10228000D1E0FF24F394C150809191039091920387
:10229000CF3F61F1D032C8F00E94BF10809191030E
:1022A0009091920320919503F09238032093370385
:1022B0001092360310923503DC01ED91FC910190F0
:1022C000F081E02D60E00995D1E08091910390913B
:1022D0009203F8016491DC01ED91FC910190F08191
:1022E000E02D0995DF5F0F5F1F4FCDCFDF91CF91BD
:1022F0001F910F91FF900C94BF10E091A103F091FA
:10230000A20390818091A7038095892380830F2D5C
:102310001D2FC15008F438C0F801849120918F031B
:1023200030919003232B29F00E94090A0F5F1F4F61
:10233000F0CF28E030E040E8E0919D03F0919E036B
:102340009091A503582F5423D9F05081952B908359
:10235000E0919F03F091A00390815091A603952BEB
:102360009083E0919F03F091A00350819091A60388
:10237000909595239083469521503109E9F6D6CF63
:10238000508190959523E3CFDF91CF911F910F91CD
:10239000FF9008951F93CF93DF93EC018D8D9E8D59
:1023A000009721F1162F29A131E0309338032093B3
:1023B00037031092360310923503DC01ED91FC9146
:1023C0000190F081E02D60E009958D8D9E8DDC01FE
:1023D000ED91FC910190F081E02D612F09958D8D9B
:1023E0009E8DDF91CF911F910C94BF10ADA5BEA51E
:1023F0009C918BA9809589238C938B8D9C8D892BA7
:1024000031F0862FDF91CF911F910C94090A28E0BB
:1024100030E080E8A9A5BAA599A9462F4823C1F0C4
:102420004C91942B9C93ABA5BCA59C914AA9942B51
:102430009C93ABA5BCA54C919AA9909594239C9391
:1024400086952150310931F7DF91CF911F91089581
:102450004C9190959423E6CFEF92FF920F931F93A8
:10246000CF93DF938091910390919203892B09F48C
:1024700093C02091AB033091AC034091AD035091D8
:10248000AE0360E074E284EF90E00E94842A205161
:10249000310941095109569547953795279520935C
:1024A000B80065E082EE9BE00E941C116091780309
:1024B000615084E793E00E94CA1120917A03309121
:1024C0007B03C901079697FD079623E095958795AD
:1024D0002A95E1F72091780330917903829F80015A
:1024E000839F100D929F100D1124C0919303D091E2
:1024F000940380919103909192030C0F1D1F0097FC
:1025000009F489C02091950331E03093380320937A
:1025100037031092360310923503DC01ED91FC91E4
:102520000190F081E02D60E40995FF24F394EE24FE
:10253000E39480919103909192030C171D0709F485
:1025400042C0BFE1BF15D0F40E94BF10809191033B
:102550009091920320919503E092380320933703E2
:102560001092360310923503DC01ED91FC9101903D
:10257000F081E02D60E40995FF24F39480919103AC
:10258000909192036991DC01ED91FC910190F081B1
:10259000E02D0995F394CDCF80918F039091900316
:1025A000892B31F08091A9039091AA030E94100A0F
:1025B000E091A303F091A40390818091A8038095FA
:1025C000892380836ECF0E94BF10809191039091E8
:1025D0009203892B09F460C02091AF033091B003BE
:1025E0004091B1035091B20360E074E284EF90E057
:1025F0000E94842A20513109410951095695479575
:10260000379527952093B800DF91CF911F910F91B7
:10261000FF90EF900895E091A103F091A2038081D3
:102620009091A703892B80830C171D0771F2899164
:1026300020918F0330919003232B19F00E94090AF7
:10264000F3CF28E030E040E8E0919D03F0919E0355
:102650009091A503582F5423D9F05081952B908346
:10266000E0919F03F091A00390815091A603952BD8
:102670009083E0919F03F091A00350819091A60375
:10268000909595239083469521503109E9F6CCCF5A
:10269000508190959523E3CFE091A303F091A4039B
:1026A00080819091A803892B8083AECF1F93CF9315
:1026B000DF93EC01162F8D8D9E8D892BB1F12FA903
:1026C00038AD49AD5AAD60E074E284EF90E00E940D
:1026D000842A20513109410951095695479537956A
:1026E00027952093B80066EA111167EACE010E948F
:1026F000CA118D8D9E8D892B41F12BAD3CAD4DAD19
:102700005EAD60E074E284EF90E00E94842A205184
:1027100031094109510956954795379527952093D9
:10272000B800DF91CF911F9108958B8D9C8D892BDF
:1027300021F08DA99EA90E94100AEFA5F8A9908109
:102740008CA9809589238083CECFEFA5F8A98081BD
:102750009CA9892B8083E5CF90E080E0089560916B
:102760002F0370E090E080E00E94792720E030E0C5
:1027700040E05FE30E94DA279B01AC0160E070E07B
:102780008CE792E40E94E5280895CF93DF93D091DF
:102790003A03DD23C9F0809101018830A8F49091BB
:1027A0007402992389F09091730291110DC08F5F8B
:1027B000809301010E94A60760936F0270937002DC
:1027C0008093710290937202C0913903CC23C9F0B7
:1027D000809101018230A8F090917402992389F0D0
:1027E0009091730291110DC08150809301010E945C
:1027F000A60760936F0270937002809371029093AA
:10280000720280916E02882371F0809173028111AF
:102810000AC00E94A60760936F02709370028093B3
:102820007102909372020E94A607AB01BC018091D5
:102830006F0290917002A0917102B091720288555E
:102840009E49AF4FBF4F84179507A607B70758F4A7
:1028500080917302811107C010926D0210926C0278
:1028600081E080930101D11102C0CC2339F0109294
:10287000740280910101DF91CF91089581E08093EE
:102880007402F7CF8F929F92AF92BF92CF92DF9256
:10289000EF92FF92CF93DF930E94C429CBE3D3E062
:1028A0007B836A83072E000C880B990B0E947B2781
:1028B0009B01AC0160E070EC8FE795E40E94522927
:1028C00020E030E040E85FE30E94E5282D853E856A
:1028D0004F8558890E94DA276D8B7E8B8F8B988F5E
:1028E0000E94072A6B017C01C98ADA8AEB8AFC8A7A
:1028F00029A13AA14BA15CA10E94DA272D8D3E8D22
:102900004F8D58A10E94E6284B015C012DA13EA1EC
:102910004FA158A5C701B6010E94DA27A701960169
:102920000E94DA27A70196010E94DA279B01AC01D9
:10293000C501B4010E94E6289B01AC0160E070E093
:1029400080E89FE30E945229698F7A8F8B8F9C8F3A
:1029500023E333E948E853E40E94E528DF91CF916F
:10296000FF90EF90DF90CF90BF90AF909F908F90AF
:1029700008958F929F92AF92BF92CF92DF92EF9283
:10298000FF92CF93DF93EC0180913B030E940A07F3
:10299000BC01990F880B990B0E947B2720913F0364
:1029A0003091400340914103509142030E94E62838
:1029B0006B017C01C0923F03D0924003E09241033F
:1029C000F0924203BE01DD0F880B990B0E947B271A
:1029D0004B015C01AC019B01609143037091440386
:1029E00080914503909146030E94FA2987FD23C0F8
:1029F0001092430310924403109245031092460331
:102A0000A5019401C701B6010E9452290E944214F7
:102A100060936403709365038093660390936703E8
:102A200010923F0310924003109241031092420310
:102A300081E08093470320E030E040E85FEB609165
:102A400043037091440380914503909146030E9493
:102A50007427811114C080913B030E940A07BC01B6
:102A6000990F880B990B0E947B270E944214609358
:102A7000640370936503809366039093670320E07B
:102A800030E040E85FE3609143037091440380913C
:102A90004503909146030E94E62860934303709398
:102AA0004403809345039093460380914703DF914D
:102AB000CF91FF90EF90DF90CF90BF90AF909F901D
:102AC0008F900895FC0101900020E9F73197AF0144
:102AD000481B590BBC0184E793E00C942106CF936B
:102AE000DF930E944E06EC0186E491E00E9462159D
:102AF0008C0F9D1FDF91CF910895E4E7F3E01586D9
:102B0000148629E030E03787268721E0248B258B47
:102B10000C946F15CF93DF930E946215EC0186E44D
:102B200091E00E9462158C0F9D1FDF91CF91089557
:102B300020917A0330917B03C901079697FD079690
:102B400023E0959587952A95E1F7209178033091B8
:102B50007903829FA001839F500D929F500D1124F5
:102B600070E060E080919303909194030C949C2C0E
:102B70000F931F93CF93DF93EC0188819981009786
:102B800059F02A813B812617370730F081E0DF9129
:102B9000CF911F910F9108958B016F5F7F4F0E941E
:102BA000D12B009759F0998388831B830A832C814A
:102BB0003D81232B59F7FC011082E8CF80E0E7CF5D
:102BC000EF92FF920F931F93CF93DF9361157105DF
:102BD00041F480E0DF91CF911F910F91FF90EF9032
:102BE000089541155105B1F07B01EC010C811D8167
:102BF000040F151FB8010E94B815882351F32881CE
:102C000039818C819D81B701820F931F0E94A32C73
:102C10001D830C8381E0DECFCF93DF93EC018881AD
:102C20009981009711F00E94482B198218821D8209
:102C30001C821B821A82DF91CF910895CF93DF937C
:102C4000EC01FB0101900020E9F73197AF01461B31
:102C5000570B0E94E015811103C0CE010E940C1693
:102C6000CE01DF91CF910895CF93DF93EC01FB016B
:102C700044815581608171810E94E015811103C0FA
:102C8000CE010E940C16CE01DF91CF910895EF92F4
:102C9000FF920F931F93CF93DF93EC017B018A0187
:102CA000BA010E94B81581110BC0CE010E940C160A
:102CB000CE01DF91CF911F910F91FF90EF9008957A
:102CC0001D830C83B701888199810E94A32CF0CFCA
:102CD000FB0101900020E9F73197AF01461B570B2C
:102CE0000C9447160F931F93CF93DF93CDB7DEB7A6
:102CF00029970FB6F894DEBF0FBECDBF8C01862F8B
:102D0000F8011182108213821282158214824AE025
:102D1000BE016F5F7F4F90E00E941325BE016F5F81
:102D20007F4FC8010E94681629960FB6F894DEBF3F
:102D30000FBECDBFDF91CF911F910F910895EF92FC
:102D4000FF920F931F93CF93DF93CDB7DEB7A19779
:102D50000FB6F894DEBF0FBECDBF7C01CB01BA0128
:102D6000F7011182108213821282158214828E0161
:102D70000F5F1F4F22E044E00E94EA24009789F091
:102D8000BC01C7010E946816A1960FB6F894DEBF79
:102D90000FBECDBFDF91CF911F910F91FF90EF90AC
:102DA0000895C7010E940C16EFCF0F931F93CF9386
:102DB000DF93CDB7DEB762970FB6F894DEBF0FBED4
:102DC000CDBF8C01CB01F8011182108213821282D7
:102DD000158214824AE0BE016F5F7F4F0E94082572
:102DE000BE016F5F7F4FC8010E94681662960FB6E2
:102DF000F894DEBF0FBECDBFDF91CF911F910F9131
:102E00000895FB01DC0111961C921E9213961C92F0
:102E10001E92129715961C921E921497861797076A
:102E200049F0608171816115710521F044815581FE
:102E30000C9447160895FC011182108213821282AD
:102E400015821482FB0101900020E9F73197AF0150
:102E5000461B570B0C944716CF92DF92EF92FF92CE
:102E60000F931F93CF93DF938C017B016A0168E47A
:102E700071E00E941B17D70114968D919C910097C9
:102E8000D9F0E6018C159D0508F4EC01D701ED9110
:102E9000FC911197EC0FFD1FD08010826D917C91F9
:102EA000C8016115710591F00E946816F7018081D3
:102EB0009181C80FD91FD882C801DF91CF911F918E
:102EC0000F91FF90EF90DF90CF9008950E940C1625
:102ED000EDCFFC01808191810C94482BEF92FF9201
:102EE0000F931F93CF93DF9300D000D000D0CDB7C6
:102EF000DEB78C017B0110928103109280038DE17B
:102F000090E0909383038093820384E0809388030E
:102F100080938903C8010E944E06B801CE01019634
:102F20000E9401178D819E810697C8F482E08093EC
:102F3000880380938903CE0101960E946917C70117
:102F40000E946F1526960FB6F894DEBF0FBECDBF58
:102F5000DF91CF911F910F91FF90EF90089581E045
:102F6000E6CF8F929F92AF92BF92CF92DF92FF9265
:102F70000F931F93CF93DF93CDB7DEB7A1970FB613
:102F8000F894DEBF0FBECDBFF82E6B011092810307
:102F9000109280038DE190E09093830380938203ED
:102FA0006F2DCE0101960E9472168D819E8106972B
:102FB00008F051C084E08093880380938903CE0198
:102FC00001960E9469172F2D30E050E040E019A2D1
:102FD0008E010F5D1F4F8AE0882E912CA12CB12C01
:102FE000CA01B901A50194010E94842A605DF8011B
:102FF00062938F01211531054105510589F73097FD
:1030000019F0CF010E9462156F2DCE0101960E942A
:1030100072168D819E81069700F582E08093880369
:1030200080938903CE0101960E946917C6010E9410
:103030006F15A1960FB6F894DEBF0FBECDBFDF911E
:10304000CF911F910F91FF90DF90CF90BF90AF90E5
:103050009F908F90089583E0AECF81E0DFCFCF9235
:10306000DF92EF92FF920F931F93CF93DF93CDB731
:10307000DEB72C970FB6F894DEBF0FBECDBF6B0145
:103080007C018A0110928103109280038DE190E00F
:103090009093830380938203B701A601CE0101962A
:1030A0000E949F168D819E81069708F04EC084E095
:1030B0008093880380938903CE0101960E9469174B
:1030C000B701A601CE0101960E949F164D815E8137
:1030D00047305105E0F142505109BE016F5F7F4F0B
:1030E000CE0107960E942C17CE0107960E944E062D
:1030F000CE0107960E946917CE0101960E946917BA
:10310000B701A601CE0101960E949F168D819E8176
:10311000069700F582E08093880380938903CE01AF
:1031200001960E946917C8010E946F152C960FB670
:10313000F894DEBF0FBECDBFDF91CF911F910F91ED
:10314000FF90EF90DF90CF90089583E0B1CF415092
:103150005109C3CF81E0DFCF0E948E2C0C949828B8
:103160001F93CF93DF93EC01162F0E94AE188117A7
:1031700049F0612FCE010E94A02881E0DF91CF911C
:103180001F91089580E0FACF6091340381E090E0D0
:103190000E94B0186091330382E090E00E94B01862
:1031A0006091320383E090E00E94B0186091310397
:1031B00084E090E00E94B0186091300385E090E0D8
:1031C0000E94B01860912F0386E090E00C94B01834
:1031D00081E08093340385E08093330384E080931F
:1031E000320389E1809331038AE08093300384E1E4
:1031F00080932F030C94C4188F929F92AF92BF922A
:10320000CF92DF92EF92FF920F931F93CF93DF93B2
:10321000CDB7DEB768970FB6F894DEBF0FBECDBF4F
:103220008BE00E94820621E0892B09F420E02093A4
:103230003A038CE00E94820621E0892B09F420E009
:1032400020936E028AE00E94820621E0892B09F415
:1032500020E0209339038FE00E940A0782E390E088
:103260000E94B91420E030E042E852EC609164031F
:103270007091650380916603909167030E94FA291B
:103280001816BCF469E471E0CE0101960E941B1788
:103290006091640370916503809166039091670368
:1032A000AE014F5F5F4F0E942F18CE0101960E9422
:1032B0006917109281031092800310928303109279
:1032C000820381E0809388038093890310916E02CA
:1032D000111105C080916D02882309F4CBC481E0EF
:1032E00080936D02111168C080916C0281117EC0C3
:1032F00011119BC40E94A607C0906802D090690279
:10330000E0906A02F0906B024601570136EE830EA0
:10331000911CA11CB11C86169706A806B90610F4CC
:10332000111189C40E94A607ECE2CE0EE0EBDE1E6E
:10333000E11CF11CC616D706E806F90608F47BC4A2
:1033400081E08093670280916702882309F426C197
:103350000E94981581EF91E00E948A1541E064E691
:103360008FE293E00E94770780916502853108F42F
:103370006FC46DEB71E0CE0107960E941B176DEBD9
:1033800071E0CE0101960E941B17BE01695F7F4F5D
:10339000CE0101960E946E17CE0101960E94691718
:1033A000CE0107960E94691710926502809165020E
:1033B0008F5F80936502F2C00E94A607AB01BC013B
:1033C0008091680290916902A0916A02B0916B02AB
:1033D00088579C4EAF4FBF4F84179507A607B70776
:1033E00008F082CF8091670281117ECF0E94A607EC
:1033F000AB01BC018091680290916902A0916A02C0
:10340000B0916B02825C984EAF4FBF4F8417950707
:10341000A607B70708F4C8C281E080936C028093C6
:103420006D0280916E02811105C080916C0288232B
:1034300009F4B4C00E949815109281031092800381
:10344000109283031092820380917302811126C02F
:1034500081E0809388038093890388E290E09093D1
:1034600081038093800381E090E0909383038093B5
:1034700082038BE491E00E948A1582E080938803A6
:103480008093890383E290E090938103809380038B
:1034900086E190E090938303809382030E94C5139A
:1034A000883028F50E94C513282F2150330BB9010D
:1034B000CE0107960E94D51661E571E0CE01019616
:1034C0000E941B17BE01695F7F4FCE0101960E94CB
:1034D00034166FEE71E00E941E160E946F15CE0129
:1034E00001960E946917CE0107960E9469170E94F3
:1034F000C513813009F084C264E571E0CE01019604
:103500000E941B176FEB73E0CE0101960E943416E8
:103510006BE571E00E941E1669EB73E00E943416A1
:10352000BC01CE0107960E940117CE0107960E94AA
:103530007D15CE0107960E946917CE0101960E9463
:10354000691780917302882339F140E061E084E3D8
:1035500093E00E94770780913403811148C26DE5A2
:1035600071E0CE0107960E941B1769E471E0CE015D
:1035700001960E941B17BE01695F7F4FCE01019625
:103580000E946E17CE0101960E946917CE01079620
:103590000E946917109266020E942C120E942C123F
:1035A0000E94981501E0009388030093890310920C
:1035B000810310928003109283031092820381E0B2
:1035C00090E0909387038093860390938503809384
:1035D0008403C0906403D0906503E0906603F0908C
:1035E000670320E030E042E852ECC701B6010E94D8
:1035F000FA2918160CF06BC410916302C0905F0298
:10360000D0906002E0906102F0906202F0E6CF0E8E
:10361000FAEEDF1EE11CF11C80916402811139C3B6
:10362000111137C30E94A607C616D706E806F90689
:1036300008F436C30E94A607C616D706E806F906A0
:1036400010F50E94A60760935F027093600280935A
:10365000610290936202112319F0115010936302DA
:1036600080915B0290915C02A0915D02B0915E023C
:103670000196A11DB11D80935B0290935C02A09303
:103680005D02B0935E02109281031092800389E084
:1036900090E09093830380938203609163026111B1
:1036A0004CC380915A02882309F42FC360913003E0
:1036B000CE010D960E94721660915902CE010796B6
:1036C0000E9472166FEB73E0CE0101960E94011703
:1036D00063EB73E0CE0101960E94341662E372E060
:1036E0000E941E16BE01695F7F4F0E94341664E07F
:1036F00072E00E941E16BE01635F7F4F0E94341667
:1037000067E971E00E941E160E946F15CE010196B6
:103710000E946917CE0107960E946917CE010D9687
:103720000E9469176091540270915502809156026F
:10373000909157020E9479270E94C429CE01439696
:103740000E94D51668E471E0CE010D960E941B1709
:10375000C0905B02D0905C02E0905D02F0905E024F
:10376000C701B60120EA35E040E050E00E94842A1B
:10377000B901CE0101960E94D516BE016F5F7F4F41
:10378000CE0107960E94011768E172E0CE0107960C
:103790000E941E16FC014481558160817181CE0119
:1037A0000D960E94E015CE0107960E946917CE0182
:1037B00001960E946917C701B6012CE330E040E092
:1037C00050E00E94842A6B01CA01B90128E130E06F
:1037D00040E050E00E94842ACE0101960E94D51656
:1037E000BE016F5F7F4FCE0107960E9401176AE10D
:1037F00072E0CE0107960E941E16FC01448155819D
:1038000060817181CE010D960E94E015CE01079670
:103810000E946917CE0101960E946917B601CE0178
:1038200001960E94D5164D815E8169817A81CE0113
:103830000D960E94E015CE0101960E946917BE0107
:10384000635F7F4FCE0101960E9401176CE172E029
:10385000CE0101960E941E16BE016D5E7F4F0E9432
:1038600034166FE172E00E941E160E946F15CE01A1
:1038700001960E946917CE010D960E946917CE012C
:1038800043960E9469171092810310928003109250
:103890008303109282038091340381118AC28FEBDB
:1038A00093E00E944E0680916602811164C20E94DC
:1038B000AF13AB01BC01CE0107960E949F1661E2D7
:1038C00072E0CE0101960E941B17BE01695F7F4F17
:1038D000CE0101960E9434160E944E06CE0101963A
:1038E0000E946917CE0107960E9469178FE292E045
:1038F0000E948A15C0906403D0906503E09066032F
:10390000F09067030E94AF134B015C016091330399
:1039100070E090E080E00E94792720E030E040E213
:1039200051E40E945229A50194010E94E6289B01BE
:10393000AC01C701B6010E94FA29181614F41092BE
:1039400066020E94AF139B01AC01C701B6010E9441
:10395000FA2918160CF08AC280916602811186C27B
:103960001092640280915A0281118FC28091630289
:1039700081118BC281E0809300016FEF8DE00E9486
:10398000AB0668960FB6F894DEBF0FBECDBFDF91D1
:10399000CF911F910F91FF90EF90DF90CF90BF904C
:1039A000AF909F908F900895112309F435CD8091A9
:1039B000730281110E94C4188091730211E0812763
:1039C000809373020E94C513883041F410926D02F7
:1039D00010926C0210930101109273020E94C4189D
:1039E0006FE670E080E090E00E9444071ACD64E644
:1039F00071E0CE0107960E941B176BE671E0B7CD10
:103A00000E94C5138230B1F56DE671E0CE010196DA
:103A10000E941B17CE0101960E947D15CE010196D2
:103A20000E94691780917302882309F4B5CD41E0A3
:103A30006AE083E393E00E94770769E471E0CE01D6
:103A400001960E941B176091330370E090E080E0C4
:103A50000E94792720E030E040E251E40E945229A0
:103A6000AE014F5F5F4F0E942F18CE0101960E945A
:103A7000691792CD0E94C513833039F562E871E071
:103A8000CE0101960E941B17CE0101960E947D1562
:103A9000CE0101960E94691780917302882309F470
:103AA0007BCD40E06AE082E393E00E94770767E91C
:103AB00071E0CE0101960E941B17BE016F5F7F4F20
:103AC000809132030E94B117D0CF0E94C513843079
:103AD00029F56BE971E0CE0101960E941B17CE011A
:103AE00001960E947D15CE0101960E946917809172
:103AF0007302882309F450CD41E06AE081E393E04A
:103B00000E94770767E971E0CE0101960E941B17BA
:103B1000BE016F5F7F4F80913103D4CF0E94C513E8
:103B20008530C1F561EB71E0CE0101960E941B1753
:103B30006FEB73E0CE0101960E94341663EB73E0E5
:103B40000E943416BC01CE0107960E940117CE01D7
:103B500007960E947D15CE0107960E946917CE0137
:103B600001960E94691780917302882309F414CD8D
:103B700041E06AE080E393E00E94770767E971E043
:103B8000CE0101960E941B17BE016F5F7F4F80918F
:103B9000300398CF0E94C5138630C1F56FEB71E0FA
:103BA000CE0101960E941B17CE0101960E947D1541
:103BB000CE0101960E94691780917302882309F44F
:103BC000EBCC82ED91E00E948A1580913A03882324
:103BD00009F4E2CC84E0809388038093890384EE27
:103BE00091E00E948A150E942C120E94E8180E94FF
:103BF000C41860ED77E080E090E00E944407809177
:103C0000730291E0892780937302C6CC0E94C5138A
:103C1000873009F4C1CC0E94C513883009F0BCCCB0
:103C20008AEE91E00E948A15B7CC809167028823C2
:103C300009F4B4CC5FCB1092670210926D020E941F
:103C4000C41864E670E080E090E00E9444077BCBFB
:103C500069E471E0CE0101960E941B170E94AF1328
:103C6000AE014F5F5F4F0E942F18CE0101960E9458
:103C700069179CCB0E94A607609368027093690243
:103C800080936A0290936B021092670210926C020A
:103C900085CC109259021092580210925A02CACC46
:103CA00080915A02882379F0809159028F5F809326
:103CB000590290913003891708F4BCCC10925A0233
:103CC00010925902B7CC8091580290913103891714
:103CD00028F000935A0210925802ACCC8F5F809368
:103CE00058028091540290915502A0915602B091D1
:103CF00057020196A11DB11D809354029093550265
:103D0000A0935602B093570295CC60913103CE0137
:103D10000D960E94721660915802CE0107960E947D
:103D2000721666E072E0CE0101960E941B17BE017A
:103D3000695F7F4FCE010196D8CCCE0107960E94D5
:103D400072166FE072E0CE0101960E941B17BE0151
:103D5000695F7F4FCE0101960E94341667E971E0DA
:103D60000E941E160E946F15CE0101960E946917CF
:103D7000CE010796D5CC0E94AF136B017C016091F8
:103D8000330370E090E080E00E94792720E030E08B
:103D900040E251E40E945229A70196010E94E628C0
:103DA000AB01BC01CE0107960E949F1666E272E04D
:103DB00088CD89EB93E00E944E06809166028111C6
:103DC00066C00E94AF13AB01BC01CE0107960E94F2
:103DD0009F1661E272E0CE0101960E941B17BE01A0
:103DE000695F7F4FCE0101960E9434160E944E06F5
:103DF000CE0101960E946917CE0107960E946917AD
:103E00008FE292E00E948A15C0906403D09065030F
:103E1000E0906603F09067030E94AF134B015C01D2
:103E20006091330370E090E080E00E94792720E009
:103E300030E040E251E40E9452299B01AC01C501EF
:103E4000B4010E94E5289B01AC01C701B6010E94A4
:103E5000742787FD109266020E94AF139B01AC018C
:103E6000C701B6010E94742787FD76CD80910001BD
:103E7000882331F080913203809363021092000115
:103E800081E0809366028093640260E077CD0E94B7
:103E9000AF136B017C016091330370E090E080E030
:103EA0000E94792720E030E040E251E40E9452294C
:103EB0009B01AC01C701B6010E94E528AB01BC0122
:103EC000CE0107960E949F1666E272E084CFB7018A
:103ED000A601CE0107960E949F1661E372E0CE0113
:103EE00001960E941B17BE01695F7F4FCE010196AC
:103EF0000E9434160E946F15CE0101960E94691728
:103F0000CE0107960E946917C0CF1F920F920FB67D
:103F10000F9211242F933F938F939F93AF93BF934F
:103F200080911D0390911E03A0911F03B091200367
:103F300030911C0323E0230F2D3758F50196A11D66
:103F4000B11D20931C0380931D0390931E03A09327
:103F50001F03B09320038091210390912203A0912D
:103F60002303B09124030196A11DB11D8093210369
:103F700090932203A0932303B0932403BF91AF91A6
:103F80009F918F913F912F910F900FBE0F901F9097
:103F9000189526E8230F0296A11DB11DD2CF1F92BE
:103FA0000F920FB60F9211242F933F934F935F936D
:103FB0006F937F938F939F93AF93BF93EF93FF93F1
:103FC0008091B900887F803609F44AC0F0F58832C4
:103FD00009F4A7C018F5803109F49BC0B8F4882310
:103FE00009F4F9C0883009F494C0FF91EF91BF91B2
:103FF000AF919F918F917F916F915F914F913F9181
:104000002F910F900FBE0F901F901895883109F4D3
:1040100088C0803251F78093F80214C0803409F4CC
:104020009DC040F48033B9F38833F9F68093F802E9
:1040300085ECB0C0803509F485C0883509F496C098
:10404000883499F60E940910D0CF883909F48CC0C1
:1040500038F5883729F050F4883611F0803729F682
:1040600083E080932C031092F70257C0883809F43C
:104070007BC0803919F0803809F0B7CF8091F70202
:10408000803208F071C0E091F70281E08E0F8093DA
:10409000F7028091BB00F0E0E952FD4F80833DC004
:1040A000803B39F0E0F4803A09F479C0883A09F0AD
:1040B0009CCF84E080932C031092D6021092D502FC
:1040C000E0912803F091290309958091D50281118F
:1040D0000FC081E08093D5021092B50209C0803CE8
:1040E00009F4A6CF883C09F4A3CF883B09F07DCF23
:1040F000E091D60281E08E0F8093D602F0E0EB547F
:10410000FD4F80818093BB009091D6028091D502B3
:1041100029C080911B038093BB0085EC8093BC0079
:1041200064CF90911A0380911903981758F5E09184
:104130001A0381E08E0F80931A03F0E0E750FD4FE1
:104140008081E9CFE0911A0381E08E0F80931A03FA
:104150008091BB00F0E0E750FD4F808390911A03FF
:10416000809119039817C8F285E8D8CFE0911A0317
:1041700081E08E0F80931A038091BB00F0E0E7503E
:10418000FD4F808380912B0381115CCF81E0809370
:104190002A0384EA8093BC0010922C0326CF85EC7E
:1041A0008093BC0010922C038091F702803230F48F
:1041B000E091F702F0E0E952FD4F10826091F702C2
:1041C00070E0E0912603F091270387ED92E00995D6
:1041D0001092F7020ACF1092F80234CFCF93DF93F8
:1041E000C8E6D3E01B821A8288EE93E0A0E0B0E03C
:1041F0008C839D83AE83BF838CE091E09983888319
:1042000064E372E08FEB93E00E941B1769E372E0B6
:1042100089EB93E00E941B176EE372E083EB93E05F
:104220000E941B17E4E7F3E01382128220E830E0DB
:104230003583248380E490E09783868331872087C9
:1042400093878287168A158614861786168681E0DC
:10425000858B848B2FEF3FEF338B228B318B208B21
:10426000878B108E128E118E2EE131E031832083E8
:10427000148E138ED68FC58F10A2178E9FEF94A326
:1042800095A396A397A380A780E585AB16AA80E89F
:104290009AE1A6E0B0E087AB90AFA1AFB2AF80EA01
:1042A00096E8A1E0B0E083AF94AFA5AFB6AFEBE383
:1042B000F3E0148215821682178280E090E0A0E875
:1042C000BFEB80879187A287B38714868BEC98E435
:1042D000A4E8BAE3858F968FA78FB0A386ED94E606
:1042E000A9E7B9E381A392A3A3A3B4A38CE69FECAF
:1042F000A8E5B4E385A396A3A7A3B0A711A612A629
:1043000013A614A68FE090E09183808380E098E666
:10431000A2E1B6E485879687A787B08BDF91CF911E
:104320000895CF93DF9300D000D000D0CDB7DEB793
:10433000789484B5826084BD84B5816084BD85B580
:10434000826085BD85B5816085BD80916E0081608C
:1043500080936E0010928100809181008260809332
:104360008100809181008160809381008091800034
:104370008160809380008091B10084608093B1005F
:104380008091B00081608093B00080917A00846059
:1043900080937A0080917A00826080937A00809185
:1043A0007A00816080937A0080917A00806880939F
:1043B0007A001092C1008091930390919403892B0D
:1043C00011F520917A0330917B03C901079697FD7F
:1043D0000796B3E095958795BA95E1F72091780314
:1043E00030917903AC01429FC001439F900D529FD1
:1043F000900D11240E94AC2A909394038093930310
:10440000892B09F4A7C20E94981520917A03309154
:104410007B038091780390917903B90121323105B2
:104420000CF47AC16054710977FF02C06F5F7F4F4F
:10443000759567958255910997FD019600E410E006
:1044400022E530E042E259E0959587950E94FA0E08
:1044500082E0809396038091910390919203892B3F
:1044600009F46DC18CE38093950310922E03109292
:104470002D03109236031092350310922C0381E025
:1044800080932B0310922A0361E082E10E94AB0625
:1044900061E083E10E94AB068091B9008E7F80933A
:1044A000B9008091B9008D7F8093B90088E4809332
:1044B000B80085E48093BC0087E596E090932903DB
:1044C0008093280388E596E0909327038093260342
:1044D00080919C0387FD1EC061E00E94D90661E0C7
:1044E00080919C030E94AB0661E070E080E090E068
:1044F0000E94440760E080919C030E94AB066AE042
:1045000070E080E090E00E94440761E080919C03AD
:104510000E94AB068091910390919203892B09F43C
:10452000CDC12091AB033091AC034091AD035091CC
:10453000AE0360E074E284EF90E00E94842A205190
:10454000310941095109569547953795279520938B
:10455000B80064E08CE097E00E941C1160917A033F
:10456000615084E793E00E94CA1164E088E097E01C
:104570000E941C118091960364E1813009F460E18E
:1045800084E793E00E94CA1164E084E097E00E940F
:104590001C1180917803909179038038910509F07E
:1045A000B8C180917A0390917B038032910509F024
:1045B0009CC164E080E097E00E941C1169ED84E7F3
:1045C00093E00E94CA118091960361EF813009F453
:1045D00062E284E793E00E94CA1166E084EF96E00D
:1045E0000E941C118091910390919203892B09F4F0
:1045F000A7C12091AF033091B0034091B103509116
:10460000B20360E074E284EF90E00E94842A2051BB
:1046100031094109510956954795379527952093BA
:10462000B80064E670E080E090E00E9444070E94D9
:104630002C120E94981518E28AE090E00E94B914AA
:1046400064E670E080E090E00E9444071150A1F71A
:1046500069E471E0CE0101960E941B17609164032A
:10466000709165038091660390916703AE014F5F7F
:104670005F4F0E942F18CE0101960E94691760E0DB
:104680008AE00E94D90660E08CE00E94D90660E0D2
:104690008BE00E94D90660E08FE00E94D90661E0BD
:1046A0008DE00E94D90660E082E10E94D90690E088
:1046B00080E00E94AE188F3F09F04DC10E94C418DF
:1046C0000E94E81860E090E080E00E94B0180E942C
:1046D0009815109281031092800310928303109218
:1046E000820381E0809388038093890383E492E0CE
:1046F0000E948A150E942C1268EA71E680E090E020
:104700000E94440700E010E00E94FC18011511050A
:10471000D9F30E940000F8CF6052710977FF02C000
:104720006F5F7F4F759567958357910997FD019648
:1047300000E210E023E730E042E457E085CE61E09C
:1047400080919A030E94D90661E080919B030E94A8
:10475000D90680919A03082E000C990BFC01E25DAA
:10476000F84FE491F0E0EE0FFF1FEC5DF84F25915C
:1047700034913093A2032093A103FC01E05FF84F32
:10478000E491E093A70380919B03082E000C990B02
:10479000FC01E25DF84FE491F0E0EE0FFF1FEC5DED
:1047A000F84FA591B491B093A403A093A303FC0187
:1047B000E05FF84FE491E093A8038C91E82BEC9331
:1047C00080918F0390919003892B09F434C01FB717
:1047D000F89480912503811127C0E8E3F7E08491E4
:1047E000EAE1F7E09491E82FF0E0EE0FFF1FE651C9
:1047F000F94FA591B491EC91E92321F461E08AE0AD
:104800000E94AB0661E08AE00E94D9068CB5806107
:104810008CBD8CB580648CBD61E08DE00E94D906B2
:1048200061E08BE00E94D906809125038F5F809321
:1048300025031FBF4DCE61E0809198030E94D906E9
:1048400061E0809199030E94D90680919803082E17
:10485000000C990BFC01E25DF84FE491F0E0EE0FE3
:10486000FF1FEC5DF84F2591349130939E03209308
:104870009D03FC01E05FF84FE491E093A503809174
:104880009903082E000C990BFC01E25DF84FE491AE
:10489000F0E0EE0FFF1FEC5DF84FA591B491B093DF
:1048A000A003A0939F03FC01E05FF84FE491E09325
:1048B000A6038C91E095E823EC930ACE80918F03B8
:1048C00090919003892B31F08091A9039091AA03D4
:1048D0000E94100AE091A303F091A40390818091BB
:1048E000A80380958923808334CE8034910509F014
:1048F00065CE63E08DEF96E00E941C1180919603D7
:104900006FEC813009F46FE984E793E00E94CA11EB
:1049100055CE8036910509F051CE80917A03909161
:104920007B03409709F04ACE63E08AEF96E00E944D
:104930001C11809196036FEA813031F760E1E4CF7A
:10494000E091A303F091A40380819091A803892BA7
:10495000808367CEFFCF81E090E00E94AE18809305
:10496000340382E090E00E94AE188093330383E02A
:1049700090E00E94AE188093320384E090E00E94A1
:10498000AE188093310385E090E00E94AE188093CA
:10499000300386E090E00E94AE1880932F03B2CEE1
:1049A0008EE191E09093750380937403809193035B
:1049B00090919403009711F00E94482B83EB93E0B1
:1049C0000E94691789EB93E00E9469178FEB93E0CF
:1049D0000C946917EF920F931F93CF93DF93E80125
:1049E00034E047FD34E1042E000C550B57FF03C0A3
:1049F000519541955109E32E022F242FAE010E94BB
:104A00002D25CE01DF91CF911F910F91EF90089549
:104A1000BB274A3031F4992322F4BDE29095819569
:104A20009F4F0C941425BB27FB015527AA27880FFD
:104A3000991FAA1FA41710F0A41B83955051B9F712
:104A4000A05DAA3308F0A95DA193009779F7B11191
:104A5000B1931192CB010C946427A9E0B0E0E3E399
:104A6000F5E20C94B4286A01F22EB02E102FFBE36D
:104A7000AF2EA01608F41BE31F5F012F27E0AE0145
:104A80004F5F5F4F0E948C26BC018981982F9970DF
:104A9000913009F43FC09BE2E1FC04C09E2D91706F
:104AA000E0FC3AC05E2D5071E82FE87083FF46C0ED
:104AB00084E0911101C083E0EF2DE81B8F1508F011
:104AC000E0E0D6018E2F20E2552351F1992329F001
:104AD000D6019C93C60101966C0196012D5F3F4F54
:104AE000E2FE24C08EE4D6018C9391E411969C934F
:104AF000119712968C93D9018E2F90E281111BC0D1
:104B0000E20FF32FF11D10828EEF9FEF2996ECE05C
:104B10000C94D0289DE2C6CF90E2C4CF2D93815053
:104B20008111FCCFCE0ED11CE0E0D0CF8EE6D601B5
:104B30008C9391E6DBCF9D938150E0CF482F44705A
:104B400082FF3DC084E0911101C083E08F1510F415
:104B5000EF2DE81BD6018E2F20E2552309F1992372
:104B600029F0D6019C93C60101966C0196012D5F38
:104B70003F4FE2FE1BC089E4D6018C938EE4119670
:104B80008C93119786E412968C93D9018E2F90E224
:104B9000882309F4B5CF9D938150FACF2D9381508E
:104BA0008111FCCFCE0ED11CE0E0D9CF89E6D60131
:104BB0008C938EE611968C93119786E6E4CF9B0139
:104BC00077FF02C030E020E0A1E0B0E0911102C028
:104BD000B0E0A0E0F9013196AE0FBF1F8B2C912CF5
:104BE000BB2009F461C05401EFEFAE1ABE0AAA0D52
:104BF000BB1DFA161B0619F014F04F2D4A1B51115C
:104C000088C0E3FC59C07601A42FB0E2A1114FC0C7
:104C1000C40ED11C992309F45BC040E0D601119663
:104C2000F60190836D01552309F448C0012F060F4A
:104C30009A81582F507184FF03C0913309F40150B9
:104C400010160CF047C0093008F008E0EEE2FE2E26
:104C50005B01A01AB10885019194819491082F3FBE
:104C6000320729F4D601FC92F60131966F016217E2
:104C7000730794F1021713077CF5DB01A21BB30B3A
:104C8000AA24A394B12CAC0EBD1EAA0DBB1D119677
:104C90008C9121503109D601119628153905F4F06F
:104CA000F60180836D01DBCFB12CA12CA0CFF701E1
:104CB000B1937F01A150AACF9111B0CFD601942F0B
:104CC00050E302C05D9391509111FCCFC40ED11CF2
:104CD00040E0ACCF01E0BACF80E3DBCF62177307CF
:104CE00031F4963388F4953311F4552369F0F601C5
:104CF0008083FD01842F90E2811108C0A40FB11DB3
:104D00001C9290E080E002CF81E3F1CF919381503B
:104D1000F3CF911183CF8ACF283008F027E03327D3
:104D2000DA01990F311D87FD9160009661057105CB
:104D300039F432602E5F3D9330E32A95E1F7089510
:104D40009F3F30F080387105610509F03C5F3C5FA2
:104D50003D93913008F08068911DDF93CF931F93AE
:104D60000F93FF92EF92192F987F9695E92F9695C2
:104D70009695E90FFF27E45EFE4F99273327EE242F
:104D8000FF24A701E70105900894079428F4360F43
:104D9000E71EF81E491F511D660F771F881F991FB8
:104DA0000694A1F70590079428F4E70EF81E491F12
:104DB000561FC11D770F881F991F661F0694A1F704
:104DC0000590079428F4F80E491F561FC71FD11DE0
:104DD000880F991F661F771F0694A1F70590079407
:104DE00020F4490F561FC71FD81F990F661F771F42
:104DF000881F0694A9F784911095177041F0D695F5
:104E0000C79557954795F794E7941A95C1F7E2EC43
:104E1000F0E0689415901591359165919591059004
:104E20007FE27395E118F10A430B560BC90BD009C9
:104E3000C0F7E10CF11E431F561FC91FD01D7EF4A1
:104E4000703311F48A95E6CFE894015030F0080FE2
:104E50000AF40027021708F4202F2395022F7A3333
:104E600028F079E37D932A95E9F710C07D932A9580
:104E700089F6069497956795379517951794E118D5
:104E8000F10A430B560BC90BD00998F023957E917C
:104E900073957A3308F070E37C932013B8F77E9112
:104EA00070617D9330F0839571E37D9370E32A9573
:104EB000E1F71124EF90FF900F911F91CF91DF91B7
:104EC000992787FD90950895DC01FC01672F71916A
:104ED0007723E1F7329704C07C916D9370836291E0
:104EE000AE17BF07C8F308950E94B62708F481E003
:104EF0000895E89409C097FB3EF4909580957095CD
:104F000061957F4F8F4F9F4F9923A9F0F92F96E915
:104F1000BB279395F695879577956795B795F1118A
:104F2000F8CFFAF4BB0F11F460FF1BC06F5F7F4F27
:104F30008F4F9F4F16C0882311F096E911C0772339
:104F400021F09EE8872F762F05C0662371F096E842
:104F5000862F70E060E02AF09A95660F771F881F11
:104F6000DAF7880F9695879597F90895990F0008B5
:104F7000550FAA0BE0E8FEEF16161706E807F9072B
:104F8000C0F012161306E407F50798F0621B730BC6
:104F9000840B950B39F40A2661F0232B242B252B47
:104FA00021F408950A2609F4A140A6958FEF811DEA
:104FB000811D08950E94ED270C945E280E945028C0
:104FC00038F00E94572820F0952311F00C944728C0
:104FD0000C944D2811240C9492280E946F2870F391
:104FE000959FC1F3950F50E0551F629FF001729F8E
:104FF000BB27F00DB11D639FAA27F00DB11DAA1F9D
:10500000649F6627B00DA11D661F829F2227B00DE9
:10501000A11D621F739FB00DA11D621F839FA00D74
:10502000611D221F749F3327A00D611D231F849FC4
:10503000600D211D822F762F6A2F11249F5750401B
:105040009AF0F1F088234AF0EE0FFF1FBB1F661F96
:10505000771F881F91505040A9F79E3F510580F05F
:105060000C9447280C9492285F3FE4F3983ED4F3C5
:10507000869577956795B795F795E7959F5FC1F703
:10508000FE2B880F911D9695879597F9089597F9AE
:105090009F6780E870E060E008959FEF80EC0895DE
:1050A00000240A9416161706180609060895002407
:1050B0000A9412161306140605060895092E039481
:1050C000000C11F4882352F0BB0F40F4BF2B11F4F5
:1050D00060FF04C06F5F7F4F8F4F9F4F089557FD54
:1050E0009058440F551F59F05F3F71F04795880F56
:1050F00097FB991F61F09F3F79F0879508951216ED
:1051000013061406551FF2CF4695F1DF08C0161698
:1051100017061806991FF1CF869571056105089449
:105120000895E894BB2766277727CB0197F9089560
:10513000F999FECF92BD81BDF89A992780B508955F
:10514000262FF999FECF1FBA92BD81BD20BD0FB6A3
:10515000F894FA9AF99A0FBE019608952F923F9209
:105160004F925F926F927F928F929F92AF92BF9277
:10517000CF92DF92EF92FF920F931F93CF93DF9323
:10518000CDB7DEB7CA1BDB0B0FB6F894DEBF0FBE80
:10519000CDBF09942A88398848885F846E847D84CD
:1051A0008C849B84AA84B984C884DF80EE80FD80CF
:1051B0000C811B81AA81B981CE0FD11D0FB6F89445
:1051C000DEBF0FBECDBFED0108955058BB27AA2703
:1051D0000E94FD280C945E280E94502838F00E94FE
:1051E000572820F039F49F3F19F426F40C944D28E9
:1051F0000EF4E095E7FB0C944728E92F0E946F28F6
:1052000058F3BA17620773078407950720F079F4FB
:10521000A6F50C9491280EF4E0950B2EBA2FA02D34
:105220000B01B90190010C01CA01A0011124FF2753
:10523000591B99F0593F50F4503E68F11A16F0404E
:10524000A22F232F342F4427585FF3CF469537954D
:105250002795A795F0405395C9F77EF41F16BA0B12
:10526000620B730B840BBAF09150A1F0FF0FBB1FC0
:10527000661F771F881FC2F70EC0BA0F621F731F09
:10528000841F48F4879577956795B795F7959E3F66
:1052900008F0B0CF9395880F08F09927EE0F9795F7
:1052A000879508950E9466290C945E280E945728CD
:1052B00058F00E94502840F029F45F3F29F00C94E8
:1052C000472851110C9492280C944D280E946F2865
:1052D00068F39923B1F3552391F3951B550BBB2725
:1052E000AA2762177307840738F09F5F5F4F220F6A
:1052F000331F441FAA1FA9F335D00E2E3AF0E0E861
:1053000032D091505040E695001CCAF72BD0FE2FAA
:1053100029D0660F771F881FBB1F2617370748073E
:10532000AB07B0E809F0BB0B802DBF01FF279358F6
:105330005F4F3AF09E3F510578F00C9447280C944B
:1053400092285F3FE4F3983ED4F38695779567956E
:10535000B795F7959F5FC9F7880F911D969587952B
:1053600097F90895E1E0660F771F881FBB1F62174A
:1053700073078407BA0720F0621B730B840BBA0B08
:10538000EE1F88F7E09508950E94CB296894B1112B
:105390000C94922808950E94772888F09F5798F0DF
:1053A000B92F9927B751B0F0E1F0660F771F881F2A
:1053B000991F1AF0BA95C9F714C0B13091F00E9444
:1053C0009128B1E008950C949128672F782F8827B1
:1053D000B85F39F0B93FCCF3869577956795B3956B
:1053E000D9F73EF490958095709561957F4F8F4FDA
:1053F0009F4F08950E94B62708F48FEF089516F086
:105400000C944F2A0C944D2868940C9447280E94C1
:105410007728A8F39923C1F3AEF3DF93CF931F93BB
:105420000F93FF92C92FDD2788232AF02197660F5B
:10543000771F881FDAF720E030E040E85FEB9FE35A
:10544000883920F0803E38F021968F770E94E62838
:10545000E8E6F0E004C00E94E628E5E9F0E00E94FA
:105460005D2A8B01BE01EC01FB2E6F57710975950A
:10547000771F880B990B0E947B2728E132E741E3D5
:105480005FE30E94ED27AF2D9801AE01FF900F91D1
:105490001F91CF91DF910E94FD280C945E289F3FC1
:1054A00031F0915020F4879577956795B795880FDF
:1054B000911D9695879597F90895DF93CF931F9344
:1054C0000F93FF92EF92DF927B018C01689406C0EC
:1054D000DA2EEF010E94ED27FE01E894A5912591B7
:1054E000359145915591A6F3EF010E94FD28FE01EB
:1054F0009701A801DA9469F7DF90EF90FF900F9180
:105500001F91CF91DF910895A1E21A2EAA1BBB1B18
:10551000FD010DC0AA1FBB1FEE1FFF1FA217B3077F
:10552000E407F50720F0A21BB30BE40BF50B661F95
:10553000771F881F991F1A9469F760957095809559
:1055400090959B01AC01BD01CF010895EE0FFF1FA7
:105550000590F491E02D09940F931F93CF93DF935F
:105560008230910510F482E090E0E091C703F09161
:10557000C80330E020E0B0E0A0E0309799F42115B6
:10558000310509F44AC0281B390B24303105D8F500
:105590008A819B816115710589F1FB019383828367
:1055A000FE0111C0408151810281138148175907C2
:1055B000E0F04817590799F4109761F012960C9390
:1055C000129713961C933296CF01DF91CF911F91C2
:1055D0000F9108950093C7031093C803F4CF2115CA
:1055E000310551F04217530738F0A901DB019A0148
:1055F000BD01DF01F801C1CFEF01F9CF9093C803DE
:105600008093C703CDCFFE01E20FF31F81939193E7
:105610002250310939832883D7CF2091C503309197
:10562000C603232B41F420910401309105013093EE
:10563000C6032093C5032091020130910301211577
:10564000310541F42DB73EB7409106015091070155
:10565000241B350BE091C503F091C603E217F30755
:10566000A0F42E1B3F0B2817390778F0AC014E5FD2
:105670005F4F2417350748F04E0F5F1F5093C60346
:105680004093C503819391939FCFF0E0E0E09CCFDE
:10569000CF93DF930097E9F0FC01329713821282D7
:1056A000A091C703B091C803ED0130E020E010974E
:1056B000A1F420813181820F931F2091C503309185
:1056C000C6032817390709F061C0F093C603E093B9
:1056D000C503DF91CF910895EA01CE17DF07E8F502
:1056E0004A815B819E0141155105B1F7E901FB83B8
:1056F000EA8349915991C40FD51FEC17FD0761F456
:10570000808191810296840F951FE9019983888396
:10571000828193819B838A83F0E0E0E012968D91F1
:105720009C9113970097B9F52D913C911197CD015C
:105730000296820F931F2091C5033091C60328174C
:10574000390739F6309751F51092C8031092C70304
:10575000B093C603A093C503BCCFD383C28340815B
:105760005181840F951FC817D90761F44E5F5F4FB1
:1057700088819981480F591F518340838A819B8179
:10578000938382832115310509F0B0CFF093C803CC
:10579000E093C7039ECFFD01DC01C0CF13821282CC
:1057A000D7CFB0E0A0E0E7EDFBE20C94B0288C018D
:1057B000009751F4CB010E94AC2A8C01C801CDB7EF
:1057C000DEB7E0E10C94CC28FC01E60FF71F9C014A
:1057D00022503109E217F30708F49DC0D901CD9199
:1057E000DC911197C617D70798F0C530D10530F373
:1057F000CE0104978617970708F3C61BD70B22978D
:10580000C193D1936D937C93CF010E94482BD6CF47
:105810005B01AC1ABD0A4C018C0E9D1EA091C70302
:10582000B091C803512C412CF12CE12C109731F58B
:105830008091C5039091C6038815990509F05CC055
:105840004616570608F058C0809102019091030156
:10585000009741F48DB79EB7409106015091070122
:10586000841B950BE817F90708F055C0F093C603A1
:10587000E093C503F90171836083A0CF8D919C9162
:10588000119712966C90129713967C901397A81507
:10589000B90559F56C0142E0C40ED11CCA14DB04F1
:1058A00020F1AC014A195B09DA011296159780F0D4
:1058B0006282738251834083D9016D937C93E1149A
:1058C000F10471F0D7011396FC93EE93129776CF03
:1058D00022968C0F9D1FF90191838083F301EFCFF6
:1058E000F093C803E093C70369CF4816590608F43C
:1058F0002C017D01D3019ACFCB010E94AC2A7C01FF
:10590000009749F0AE01B8010E94932CC8010E9493
:10591000482B870153CF10E000E050CF81E090E0AA
:10592000F8940C94AA2CFB01DC0102C001900D92AA
:1059300041505040D8F70895DC0101C06D934150AB
:105940005040E0F70895FB01DC0101900D9200202A
:10595000E1F7089515E0C5EFD5E004C0FE010E940F
:0E596000A62A2196C63FD107C9F7F894FFCFBB
:10596E0001010000C90380000000000090106310C8
:10597E00AC1320065C1049103A10000000004E0CCB
:10598E002106AC13081059092006F30ECB0EE70EB4
:10599E00DB0E5B0F2006140A5613C9081209140EEB
:1059AE00F70D7F0D200D0D0A0043004D454E495554
:1059BE00005B50003C4D6F64653A002C006F6F6CBD
:1059CE00696E6700656174696E670048003C4C6FD4
:1059DE006769632054656D702E204F66667365741B
:1059EE003E004672657175656E74206F6E20746927
:1059FE006D656F757420006D696E003C4F76657233
:105A0E00776F726B696E672074696D656F75743E22
:105A1E00003C4F766572776F726B696E6720003C43
:105A2E00526573657420746F2064656661756C745D
:105A3E003E00507265737320757020746F2072650E
:105A4E007365740020446F6E65005B455849545D64
:105A5E00004B65697374692074656D70657261744D
:105A6E00757261002F0054696D656F75743A004E42
:105A7E00657874204F6E3A00640068002D3E007702
:105A8E0000696E673A002D73746F7065643A006337
:105A9E00003F3A00436F6F6C004865617400646F9D
:105AAE00776E004D454D4F52595F46495253544201
:045ABE004F4F5400F2
:107E0000112484B714BE81FFF0D085E080938100F7
:107E100082E08093C00088E18093C10086E0809377
