:100000000C9439060C9461060C9461060C946106FC
:100010000C9461060C9461060C9461060C946106C4
:100020000C9461060C94610D0C9461060C946106AD
:100030000C9461060C9461060C9461060C946106A4
:100040000C9461060C9461060C9461060C94610694
:100050000C9461060C9461060C9461060C94610684
:100060000C94740E0C9461066D0C700C6D0C700C7D
:100070008F0C8F0C8F0C8F0C8F0C8F0C8F0C8F0CA8
:100080008F0C8F0C8F0C8F0C610C670C8F0C5F0C1E
:10009000650C8F0C8F0C8F0C8F0C8F0C8F0C8F0CB2
:1000A0008F0C8F0C8F0C8F0C8F0C740C780C740CC5
:1000B000780C8F0C8F0C8F0C8F0C8F0C8F0C8F0C7F
:1000C0008F0C8F0C8F0C8F0C7E0C840C8A0C800C88
:1000D000860C800C08000000BE922449123EABAA98
:1000E000AA2ABECDCCCC4C3E00000080BEABAAAA52
:1000F000AA3E00000000BF000000803F000000009A
:1001000000084178D3BB4387D1133D190E3CC3BDD2
:100110004282AD2B3E68EC8276BED98FE1A93E4C7F
:1001200080EFFFBE01C4FF7F3F00000000000040E1
:100130007A10F35A00A0724E18090010A5D4E800F6
:1001400000E87648170000E40B54020000CA9A3B0E
:10015000000000E1F5050000809698000000404294
:100160000F000000A0860100000010270000000022
:10017000E803000000006400000000000A00000026
:1001800000000100000000002C76D888DC674F08D2
:1001900023DFC1DFAE59E1B1B796E5E3E453C63AD8
:1001A000E651997696E8E6C28426EB898C9B62ED4F
:1001B000407C6FFCEFBC9C9F40F2BAA56FA5F49009
:1001C000055A2AF75C936B6CF9676DC11BFCE0E480
:1001D0000D47FEF520E6B500D0ED902E03009435D6
:1001E00077050080841E080000204E0A000000C829
:1001F0000C333333330F986E12831141EF8D21147A
:10020000893BE65516CFFEE6DB18D1844B381BF749
:100210007C1D901DA4BBE424203284725E228100E8
:10022000C9F124ECA1E53D2700404132F011100056
:10023000002021310000000000000000000000004C
:10024000242300000000002300260029002C0000C9
:10025000000000240027002A002D00DB40A4A62E69
:10026000AFDA0281DA1281DA02818F2000A1C8D3CD
:1002700000408DAED580A801020408102040800106
:1002800002040810200102040810200208010410D2
:10029000204000000000250028002B002E00040450
:1002A000040404040404020202020202030303031E
:1002B00003030505050505050500006000000000B5
:1002C00000000000000000000000E000000000004E
:1002D000000000000000000001E00000000000003D
:1002E0000000000000000001F0000000000000001D
:1002F00000000000000003F000000000000000000B
:10030000000000000007F0000000000000000000F6
:100310000000000007F800000000000000000000DE
:100320000000000FF800000003C0007E000001E0A4
:10033000007F0FF800000003C000FE000001E00095
:10034000FFEFF800000003C000FE000001E000FF26
:10035000FFF800000003C000F00000000F007FFE67
:100360007FC0000003C000F00000000F003FFE7FD0
:10037000F83FF1FBCFFCFEF3BC3DEFE01FFE7FFF3B
:100380007FFBFFDFFEFEFFBC3DEFE01FC6FFFF7FF0
:10039000FBFFDFFEFEFFBC3DEFE00FE3C7FE787B17
:1003A000C3DE1EF0FFBC3DEF0007FF87FC787BC378
:1003B000DE1EF0F83C3DEF0001FFFFF0007BC3C004
:1003C0001EF0F03C3DEF0001F37FE03FFBC3CFFEAA
:1003D000F0F03C3DEF0003E33F807FFBC3DFFEF026
:1003E000F03C3DEF0007E73C00787BC3DE1EF0F0F9
:1003F0003C3DEF0007FFBE00787BC3DE1EF0F03C03
:100400003DEF0007FFFE00787BC3DE1EF0F03C3DB1
:10041000EF000FFFFE007FFBFFDFFEF0F03FFDEF80
:10042000E00FFFFF007FFBFFDFFEF0F03FFDEFE09E
:100430000FF9FF003E79F9CF9EF0F01F3DE7E01F76
:10044000F1FF0000000000000000000000001F801D
:10045000FF007FFFFFFFFFFFFFFFFFFFE01C007FAC
:10046000007FFFFFFFFEB46D888D18E000001F00C5
:100470007FFFFFFFFE95AD7DB577E000000F007FA9
:10048000FFFFFFFEA5AD9D8D19E0000006007FFF78
:10049000FFFFFEB5ADEDB57EE0000000000001807D
:1004A00000000000000000000003800000000000C9
:1004B0000000000007C0000000000000000000076E
:1004C000C00000000000000000000FC0000000009D
:1004D00000000000001FE00000000000000000001D
:1004E0001FE00000000000000000003FE0000000EE
:1004F0000000000000003FF00000000000000000CD
:10050000007FF0000000000000001FF87FF00000F6
:1005100000000000003FFE7FF0000000000000002F
:100520003FFF7FF0000000000000001FFFFBE00025
:100530000000000000000FFFF9FFC00000000000F5
:10054000000FFFF9FFF800000000000007FFF1FFB7
:10055000FF00000000000003FC73FFFF80000000AC
:10056000000001FE3FFFFF80000000000000FF1EB2
:100570000FFF000000000000007FFE1FFC000000D5
:10058000000000003FFFFFF8000000000000000F27
:10059000DFFFE0000000000000001F19FFC00000A6
:1005A00000000000003F3CFF0000000000000000D1
:1005B0007E7CF800000000000000007FFE7C000050
:1005C000000000000000FFFFFC0000000000000031
:1005D00000FFFFFE0000000000000000FFFFFE0023
:1005E00000000000000001FFEFFE0000000000001E
:1005F0000001FFCFFE0000000000000003FF07FE27
:100600000000000000000003FC07FE0000000000E6
:10061000000003F003FE0000000000000001800065
:10062000FE000000000000000000007E000000004E
:100630000000000000003E0000000000000000007C
:10064000000C000000000000078000FC000003C058
:10065000000000078001FC000003C00000000780CC
:1006600001FC000003C0000000078001E000000062
:100670001E000000078001E00000001E007FE3F77D
:100680009FF9FDE7787BDFC0FFF7FFBFFDFDFF7837
:100690007BDFC0FFF7FFBFFDFDFF787BDFC0F0F71A
:1006A00087BC3DE1FF787BDE00F0F787BC3DE1F0E1
:1006B000787BDE0000F787803DE1E0787BDE007F1D
:1006C000F7879FFDE1E0787BDE00FFF787BFFDE164
:1006D000E0787BDE00F0F787BC3DE1E0787BDE0070
:1006E000F0F787BC3DE1E0787BDE00F0F787BC3DAA
:1006F000E1E0787BDE00FFF7FFBFFDE1E07FFBDF9D
:10070000C0FFF7FFBFFDE1E07FFBDFC07CF3F39F9D
:100710003DE1E03E7BCFC000000000000000000093
:100720000000FFFFFFFFFFFFFFFFFFFFC0FFFFFF16
:10073000FFFD68DB111A31C0FFFFFFFFFD2B5AFBE5
:100740006AEFC0FFFFFFFFFD4B5B3B1A33C0FFFFAB
:10075000FFFFFD6B5BDB6AFDC0000103070F1F3F5E
:100760007F0080C0E0F0F8FCFE00000000003E5B6F
:100770004F5B3E3E6B4F6B3E1C3E7C3E1C183C7EEE
:100780003C181C577D571C1C5E7F5E1C00183C18D3
:1007900000FFE7C3E7FF0018241800FFE7DBE7FFCF
:1007A00030483A060E2629792926407F050507405C
:1007B0007F05253F5A3CE73C5A7F3E1C1C08081C1D
:1007C0001C3E7F14227F22145F5F005F5F06097F5B
:1007D000017F006689956A606060606094A2FFA2F4
:1007E0009408047E040810207E201008082A1C08A3
:1007F000081C2A08081E101010100C1E0C1E0C30AD
:10080000383E3830060E3E0E0600000000000000A4
:100810005F00000007000700147F147F14242A7F64
:100820002A12231308646236495620500008070331
:1008300000001C2241000041221C002A1C7F1C2AAF
:1008400008083E0808008070300008080808080002
:100850000060600020100804023E5149453E0042FD
:100860007F400072494949462141494D33181412CD
:100870007F1027454545393C4A49493141211109F5
:10088000073649494936464949291E0000140000E7
:100890000040340000000814224114141414140001
:1008A0004122140802015909063E415D594E7C124D
:1008B00011127C7F494949363E414141227F4141E5
:1008C000413E7F494949417F090909013E41415162
:1008D000737F0808087F00417F41002040413F01AD
:1008E0007F081422417F404040407F021C027F7FEE
:1008F0000408107F3E4141413E7F090909063E41FF
:1009000051215E7F09192946264949493203017F51
:1009100001033F4040403F1F2040201F3F403840E0
:100920003F631408146303047804036159494D4379
:10093000007F4141410204081020004141417F04F1
:1009400002010204404040404000030708002054D8
:100950005478407F28444438384444442838444438
:10096000287F385454541800087E090218A4A49C07
:10097000787F0804047800447D40002040403D001A
:100980007F1028440000417F40007C047804787C7C
:10099000080404783844444438FC182424181824E3
:1009A0002418FC7C08040408485454542404043FCC
:1009B00044243C4040207C1C2040201C3C403040D3
:1009C0003C44281028444C9090907C4464544C44FF
:1009D00000083641000000770000004136080002A0
:1009E000010204023C2623263C1EA1A161123A40CA
:1009F00040207A3854545559215555794122545440
:100A00007842215554784020545579400C1E52723A
:100A10001239555555593954545459395554545817
:100A20000000457C410002457D420001457C407D3F
:100A30001211127DF0282528F07C545545002054D1
:100A4000547C547C0A097F4932494949323A44442A
:100A5000443A324A4848303A4141217A3A424020A9
:100A600078009DA0A07D3D4242423D3D4040403D3A
:100A70003C24FF2424487E4943662B2FFC2F2BFF68
:100A80000929F620C0887E090320545479410000CA
:100A9000447D413048484A32384040227A007A0A40
:100AA0000A727D0D19317D2629292F282629292909
:100AB0002630484D4020380808080808080808383B
:100AC0002F10C8ACBA2F102834FA00007B000008A1
:100AD000142A142222142A14085500550055AA5528
:100AE000AA55AAFF55FF55FF000000FF0010101087
:100AF000FF00141414FF001010FF00FF1010F0107E
:100B0000F0141414FC001414F700FF0000FF00FFA1
:100B10001414F404FC141417101F10101F101F14C9
:100B200014141F00101010F0000000001F1010100F
:100B3000101F10101010F010000000FF1010101007
:100B40001010101010FF10000000FF140000FF0034
:100B5000FF00001F10170000FC04F41414171017F6
:100B60001414F404F40000FF00F714141414141403
:100B700014F700F7141414171410101F101F141476
:100B800014F4141010F010F000001F101F000000EB
:100B90001F14000000FC140000F010F01010FF10F3
:100BA000FF141414FF141010101F00000000F010A8
:100BB000FFFFFFFFFFF0F0F0F0F0FFFFFF0000008D
:100BC0000000FFFF0F0F0F0F0F3844443844FC4A5A
:100BD0004A4A347E02020606027E027E02635549BC
:100BE00041633844443C04407E201E2006027E02BD
:100BF0000299A5E7A5991C2A492A1C4C7201724C3E
:100C0000304A4D4D303048784830BC625A463D3EFF
:100C1000494949007E0101017E2A2A2A2A2A4444A0
:100C20005F444440514A444040444A51400000FF20
:100C30000103E080FF000008086B6B0836123624C1
:100C400036060F090F0600001818000000101000EB
:100C50003040FF0101001F01011E00191D17120085
:100C60003C3C3C3C00000000002200FF21000F241F
:100C70005C1B11241FBECFEFD8E0DEBFCDBF23E049
:100C8000A6E5B2E001C01D92AD38B207E1F712E06F
:100C9000A0E0B1E0ECEBF8E502C005900D92A635BE
:100CA000B107D9F716E0C8E3D6E004C02197FE01EA
:100CB0000E94482AC733D107C9F70E947E1B0C94B3
:100CC000512C0C940000CF93DF931F92CDB7DEB769
:100CD000198280917A00806480937A0080917A00F2
:100CE00086FDFCCF809178008983209179008981ED
:100CF00090E0922B0F90DF91CF9108953FB7F89439
:100D00008091A3029091A402A091A502B091A602A5
:100D10002091B200B89B05C02F3F19F00196A11D8C
:100D2000B11D3FBFBA2FA92F982F8827820F911D81
:100D3000A11DB11DBC01CD0142E0660F771F881FC8
:100D4000991F4A95D1F70895FC0177FDB9C08085B8
:100D50009185681779070CF0B3C057FDB1C0828543
:100D60009385481759070CF008958689823079F4E5
:100D700084819581DC01A61BB70BBD01615071090F
:100D800086819781DC01A41BB50BAD010EC08330B9
:100D900009F084C064277527CA018627972768272A
:100DA000792746815781481B590B41505109213001
:100DB000310531F048F12230310509F44AC0089577
:100DC000CA0157FD07969C01A3E035952795AA9582
:100DD000E1F7A481B5812A9FC0012B9F900D3A9F16
:100DE000900D1124680F791F078CF0A1E02DE60FFC
:100DF000F71F4770552781E090E001C0880F4A95A2
:100E0000EAF79081892B48C0CA0157FD07969C01DB
:100E100093E0359527959A95E1F7A481B5812A9FAE
:100E2000C0012B9F900D3A9F900D1124680F791FE0
:100E3000078CF0A1E02DE60FF71F4770552781E0E2
:100E400090E001C0880F4A95EAF780959081892348
:100E500023C0CA0157FD07969C0183E0359527956D
:100E60008A95E1F7A481B5812A9FC0012B9F900D3F
:100E70003A9F900D1124680F791F078CF0A1E02D87
:100E8000E60FF71F4770552781E090E001C0880FFB
:100E90004A95EAF79081892780830895813009F087
:100EA00086CF6427752746275727642775278481AF
:100EB0009581DC01A61BB70BBD016150710977CF8D
:100EC00008950895FC016370668B84819581268165
:100ED0003781613039F0633029F09187808733871B
:100EE00022870895318720879387828708956F929C
:100EF0007F928F929F92AF92BF92CF92DF92EF92AA
:100F0000FF920F931F93CF93DF93EC014B015A0194
:100F100069013801E881F9810680F781E02D0995A2
:100F2000E881F9810684F785E02D87019601A50106
:100F3000B401CE010995A501460D571D4150510937
:100F4000E881F9810684F785E02D9601B401CE0190
:100F50000995E881F9810484F585E02D9301A501C7
:100F6000B401CE010995C80CD91CB60161507109B4
:100F7000E881F9810484F585E02D9301A501CE0176
:100F80000995E881F9810288F389E02DCE01DF918E
:100F9000CF911F910F91FF90EF90DF90CF90BF9076
:100FA000AF909F908F907F906F9009948F929F92B7
:100FB000AF92BF92CF92DF92EF92FF920F931F9367
:100FC000CF93DF934C016B015A01E901DC01ED91F4
:100FD000FC916217730781F40417150724F48B2D15
:100FE0005801042F182F0A191B0998012F5F3F4F32
:100FF000008CF18DE02D12C04017510709F526171E
:10100000370724F48D2D6901C62FD82F9E012C1986
:101010003D092F5F3F4F028CF38DE02D8701A50125
:10102000B601C4010995DF91CF911F910F91FF90F7
:10103000EF90DF90CF90BF90AF909F908F900895EA
:101040000680F781E02D0995D401ED91FC9100888F
:10105000F189E02D9E01A501B601C4010995D401D5
:10106000ED91FC910288F389E02DC401DF91CF91CD
:101070001F910F91FF90EF90DF90CF90BF90AF90B6
:101080009F908F900994EF92FF920F931F93DC0132
:101090001A960D911C911B9718962D913C911997BA
:1010A000ED91FC91048CF58DE02D7B0140E050E04A
:1010B00060E070E009951F910F91FF90EF90089507
:1010C0004F925F926F927F928F929F92AF92BF9258
:1010D000CF92DF92EF92FF920F931F93CF93DF9304
:1010E0006C012B015A0139014801DC01ED91FC91A1
:1010F0000680F781E02D0995E201640C751CD6018C
:10110000ED91FC91C615D7055CF40484F585E02DBE
:1011100087019401A501BE01C60109952196EFCF73
:101120000288F389E02DC601DF91CF911F910F91C5
:10113000FF90EF90DF90CF90BF90AF909F908F90F7
:101140007F906F905F904F9009948F929F92AF9293
:10115000BF92CF92DF92EF92FF920F931F93CF93A4
:10116000DF93EC015B014A016901E881F9810680A6
:10117000F781E02D099595012C0D3D1D2150310978
:10118000E881F9810088F189E02D78018401A401CA
:10119000B501CE010995E881F9810288F389E02D36
:1011A000CE01DF91CF911F910F91FF90EF90DF90D3
:1011B000CF90BF90AF909F908F9009948F929F9205
:1011C000AF92BF92CF92DF92EF92FF920F931F9355
:1011D000CF93DF93EC015B014A0169017801E8815B
:1011E000F9810680F781E02D0995C80CD91C86018C
:1011F00001501109E881F9810088F189E02D9501FC
:10120000A401B501CE010995E881F9810288F3892D
:10121000E02DCE01DF91CF911F910F91FF90EF90C4
:10122000DF90CF90BF90AF909F908F9009940895DA
:10123000EF92FF920F931F93DC01ED91FC91048CD0
:10124000F58DE02D09951F910F91FF90EF90089576
:101250000F931F93DC01ED91FC91028CF38DE02D37
:1012600009951F910F9108950F931F93DC01ED9144
:10127000FC91008CF18DE02D09951F910F9108953F
:10128000DC01ED91FC910480F581E02D09942F9211
:101290003F924F925F926F927F928F929F92AF9206
:1012A000BF92CF92DF92EF92FF920F931F93CF9353
:1012B000DF9300D000D000D0CDB7DEB72C017E8305
:1012C0006D836A015901C801FC82EB824801841ACE
:1012D000950A97FE03C091948194910835012D8160
:1012E0003E81621A730A77FE03C07194619471089B
:1012F000681479045CF43A2D2B2D5C01832F922F16
:101300003D812E81DE82CD82C32ED22EAD81BE8163
:10131000AA16BB065CF43C2D2D2D6C01832F922F59
:101320003D812E81BE82AD82A32EB22E85012D81FC
:101330003E81021B130B1C012C183D0837FE03C015
:10134000319421943108780117FF03C03FEFE31A6D
:10135000F30AF594E794C816D9062CF08FEF9FEFA7
:101360009A83898304C0A1E0B0E0BA83A9832D8168
:101370003E81A216B30624F1D201ED91FC910084C6
:10138000F185E02D2B813C816814790424F44D8192
:101390005E81B60103C0A6016D817E81C2010995FF
:1013A000E218F308F7FE06C029813A81C20ED31E67
:1013B000E00EF11E8D819E8101969E838D83D7CF95
:1013C00026960FB6F894DEBF0FBECDBFDF91CF914A
:1013D0001F910F91FF90EF90DF90CF90BF90AF9053
:1013E0009F908F907F906F905F904F903F902F9045
:1013F000089585ED8093BC008091BC0084FDFCCFF6
:101400001092E9020895613298F42091E9022430A3
:1014100089F460937B02282FABE5B2E0FC018E2FAC
:10142000821B861718F481918D93F9CF80E008957F
:1014300081E0089582E0089581E090E03091A80273
:101440002091A702321710F480E090E091958195E9
:10145000910908958091A8029091A702891730F40C
:101460008F5F8093A80280E090E008958FEF9FEF58
:1014700008958091A70290E02091A802821B910913
:101480000895CF92DF92EF92FF920F931F93CF9325
:10149000DF937C01CB018A012091EA02222389F0AB
:1014A000EB016B01C40ED51ECC15DD0569F0699109
:1014B000D701ED91FC910190F081E02DC7010995D4
:1014C000F3CF642F0E94030AC801DF91CF911F91CF
:1014D0000F91FF90EF90DF90CF900895CF93DF931F
:1014E0001F92CDB7DEB769832091EA022223D1F0A3
:1014F00020910D03203240F021E030E0FC013383E5
:10150000228380E090E015C08091EB02E82FF0E0AC
:10151000E451FD4F998190838F5F8093EB0280931C
:101520000D0305C061E0CE0101960E94030A81E02F
:1015300090E00F90DF91CF9108950E94352C0F938A
:101540001F93CF93DF93DC015696EC915697E230D0
:1015500071F0E330E9F0E13079F5FB0114960D907C
:10156000BC91A02DA41BB50BA21BB30B18C0EC01A2
:10157000EC81FD81E61BF70BBF0161507109EE8123
:10158000FF81DF01A41BB50BAD01421B530B14C03F
:10159000DA01EC01EE81FF81E61BF70B3197F7FDD5
:1015A0000DC0EC014E815F81E417F5073CF4AF01FB
:1015B000BD010E94EB1502C00E945216DF91CF912F
:1015C0001F910F9108950F931F93DC015696EC9194
:1015D0005697E23061F0E33009F1E13081F514967D
:1015E000ED91FC911597E41BF50B319723C0DC01BD
:1015F0001496ED91FC911597DF01A61BB70BBD0169
:10160000DC011696ED91FC911797DF01A41BB50B39
:10161000AD0141505109621B730B11C0FA01DC018D
:1016200016964D915C911797DA01A61BB70BBD0179
:10163000621B730BAB01BF010E9452160CC057FD19
:101640000AC0DC011696ED91FC9117974E175F07C3
:1016500014F40E94EB151F910F9108958F929F92A1
:10166000AF92CF92EF92FF920F931F93CF93DF939E
:10167000EC01262F898D9A8D009709F042C06A30BF
:1016800059F41D861C862D898E859F8538E0239F01
:10169000800D911D112443C06D3009F4AAC08F89BB
:1016A0008823C9F03C898C859D8546E0349F800D58
:1016B000911D1124488559854817590764F41D86E2
:1016C0001C863D898E859F8548E0349F800D911D45
:1016D00011249F878E87EA88FB88088919894E859F
:1016E0005F856C857D85AD88CC88CE010E94B7135F
:1016F0002C898C859D8536E0239F800D911D1124BA
:101700003EC06A3079F41D861C862D89FC01369610
:10171000E4918E859F852E9F800D911D11249F87BA
:101720008E8767C06D3009F464C0FC013496349133
:10173000631708F45EC03196E491E61708F459C0C7
:10174000462F431B342FFC0132968590949047E03E
:10175000349F800C911C1124F401329634913196FF
:10176000E491332311F0E1110DC0F4013496E491BA
:101770002C898C859D85E29F800D911D11249D876C
:101780008C8737C0F401359644915F89552319F150
:101790005C89E32FF0E0E40FF11D47FDFA955E9FB1
:1017A000B0015F9F700D11244C855D85460F571F5A
:1017B000688579856417750774F41D861C863D89D4
:1017C000FC013696E4918E859F853E9F800D911D8C
:1017D00011249F878E87EA88FB88088919894E859E
:1017E0005F856C857D85AD88CC88CE010E94B7135E
:1017F000BCCF81E090E0DF91CF911F910F91FF90DE
:10180000EF90CF90AF909F908F90089590E0FC0163
:10181000E958FD4F2491FC01E256FD4FE491EE237F
:1018200071F0F0E0EE0FFF1FED5BFD4FA591B4915D
:10183000EC91E22381E090E021F480E0089580E0E3
:1018400090E0089590E0FC01E958FD4F2491FC01DF
:10185000E256FD4FE491EE23A1F0F0E0EE0FFF1F02
:10186000EE56FD4FA591B4919FB7F894611105C054
:101870008C91E22FE095E82302C0EC91E22BEC93EF
:101880009FBF0895CF93C62F482F50E0FA01E95823
:10189000FD4F9491FA01E256FD4F2491FA01E85D63
:1018A000FD4FE491EE23D9F14E2F50E0FA017097ED
:1018B000E633F105A0F5EC5CFF4F0C94482A9D98A7
:1018C0006D9A309180003F7705C09C986C9A30915A
:1018D00080003F7D3093800022C034B53F7702C046
:1018E00034B53F7D34BD1BC03091B0003F7703C09D
:1018F0003091B0003F7D3093B00011C09998519A5B
:10190000309190003F7709C09A98529A3091900098
:101910003F7D03C030919000377F30939000C330FB
:1019200031F4843051F43091A0003C6003C0843025
:1019300021F433E03093A00014C03AEE380F323077
:1019400020F43FEF34BF34BF0CC08A3151F43091E2
:10195000F00032603EBB30E83093F0003EB330938D
:10196000F000222391F130E0220F331FF901E15BF7
:10197000FD4FA591B491F901EE56FD4F259134919B
:10198000C1110AC04FB7F8948C91909589238C931C
:10199000D901EC919E230CC0C23069F44FB7F89482
:1019A0008C91592F509585238C93D901EC919E2BC6
:1019B0009C934FBF0AC0843011F4C13031F48FB70B
:1019C000F894EC919E2B9C938FBFCF910895CF9369
:1019D000DF939091AD00907F9093AD00863111F030
:1019E0008C3129F49091AD0096609093AD008E30CB
:1019F00008F08E508F71806480937C0080917D0010
:101A0000806280937D000E946306EC0180917D00DE
:101A10008F7D80937D000E9463068C0F9D1F9C012B
:101A200036952795892F9927A901481B590BCA017B
:101A3000DF91CF9108958F929F92AF92BF92CF92F4
:101A4000DF92EF92FF926B017C010E947E064B01B8
:101A50005C01C114D104E104F104F1F00E947E069E
:101A6000DC01CB0188199909AA09BB09883E93407A
:101A7000A105B10570F321E0C21AD108E108F1080F
:101A800088EE880E83E0981EA11CB11CC114D104FD
:101A9000E104F10419F7DDCFFF90EF90DF90CF90D4
:101AA000BF90AF909F908F9008952FB7F89460915A
:101AB0009F027091A0028091A1029091A2022FBF7B
:101AC00008951F920F920FB60F9211242F933F93F8
:101AD0008F939F93AF93BF9380919F029091A002A9
:101AE000A091A102B091A20230919E0223E0230FA7
:101AF0002D3720F40196A11DB11D05C026E8230F46
:101B00000296A11DB11D20939E0280939F02909387
:101B1000A002A093A102B093A2028091A30290918F
:101B2000A402A091A502B091A6020196A11DB11D2B
:101B30008093A3029093A402A093A502B093A6025F
:101B4000BF91AF919F918F913F912F910F900FBEB9
:101B50000F901F90189508958EBD0000CE99FECF6E
:101B60008EB594E499BB08951F93CF93DF93FC0146
:101B7000858D968D009729F1162FEF0121A131E077
:101B80003093EA0220930C031092EB0210920D03A3
:101B9000DC01ED91FC910190F081E02D60E0099570
:101BA0008D8D9E8DDC01ED91FC910190F081E02DF9
:101BB000612F09958D8D9E8DDF91CF911F910C9492
:101BC000DE10A5A5B6A59C9183A9809589238C9349
:101BD000838D948D892B31F0862FDF91CF911F91CA
:101BE0000C94AC0D28E030E080E8A1A5B2A591A945
:101BF000462F482319F04C91942B03C04C9190959B
:101C000094239C93A3A5B4A54C9192A9942B9C9347
:101C1000A3A5B4A54C9192A9909594239C938695E5
:101C20002150310911F7DF91CF911F9108958CBD9B
:101C30009DBD08951F93CF93DF93EC01162F8D8DDB
:101C40009E8D892BB1F02FA938AD49AD5AAD60E01A
:101C500074E284EF90E00E94262ADA01C9014097DD
:101C6000A109B109B695A795979587958093B80076
:101C70000FC08B8D9C8D892B21F08DA99EA90E9470
:101C8000170EEFA5F8A990818CA9809589238083F0
:101C9000111102C066EA01C067EACE010E94B40DCC
:101CA0008D8D9E8D892BB1F02BAD3CAD4DAD5EADD4
:101CB00060E074E284EF90E00E94262ADA01C90114
:101CC0004097A109B109B695A795979587958093F7
:101CD000B80006C0EFA5F8A990818CA9892B808354
:101CE000DF91CF911F9108951F920F920FB60F921F
:101CF00011242F933F934F935F936F937F938F9311
:101D00009F93AF93BF93EF93FF938091B900887F28
:101D1000803609F49CC068F5883209F45BC090F401
:101D2000803109F454C038F4882309F4EDC08830B8
:101D300009F44DC0EDC0883109F44CC0803209F47B
:101D40005DC0E6C0803409F468C048F4803309F40B
:101D500055C0883309F0DCC08093E702CFC08035DE
:101D600009F44FC0883509F45DC0883409F0D0C04B
:101D7000CDC0883909F4BEC0A8F4883709F467C01B
:101D800038F4883609F463C0803709F460C0C0C0F5
:101D9000883809F4AFC0803909F45FC0803809F091
:101DA000B7C05BC0803B09F47FC038F4803A09F4C7
:101DB00066C0883A09F478C0ABC0803C09F49EC084
:101DC000883C09F49BC0883B09F481C0A1C0809184
:101DD000C40210C09091E6028091E502981770F558
:101DE000E091E60281E08E0F8093E602F0E0EB5393
:101DF000FD4F80818093BB0085EC7DC08093E7021E
:101E000085C0E091E60281E08E0F8093E60280912A
:101E1000BB00F0E0EB53FD4F80839091E602809190
:101E2000E50265C0E091E60281E08E0F8093E60254
:101E30008091BB00F0E0EB53FD4F80838091E8027E
:101E4000811164C081E08093C30284EA58C083E0BA
:101E50008093E90210929D02CFCF80919D02803243
:101E600008F048C0E0919D0281E08E0F80939D02B2
:101E70008091BB00F0E0E358FD4F8083BDCF80919F
:101E80009D02803230F4E0919D02F0E0E358FD4F76
:101E9000108260919D0270E08DE792E0E0E0F0E05A
:101EA000099510929D022AC084E08093E902109265
:101EB0007C0210927B02E0E0F0E0099580917B02C9
:101EC000811105C081E080937B0210925B02E0915A
:101ED0007C0281E08E0F80937C02F0E0E55AFD4F9A
:101EE00080818093BB0090917C0280917B02981747
:101EF00008F482CF85E88093BC000AC085EC80930B
:101F0000BC001092E90204C01092E7020E94F90995
:101F1000FF91EF91BF91AF919F918F917F916F91C1
:101F20005F914F913F912F910F900FBE0F901F9097
:101F300018956091AA0270E080E090E00E9431273D
:101F400020E030E040E05FE30E9492279B01AC017B
:101F500060E070E08CE792E40E94872808951F9368
:101F6000CF93DF93182FD92FC62F0E94A9108C175B
:101F700061F08FB711BDD2BDC0BDF89494E09FBB96
:101F800092E09FBB8FBF81E001C080E0DF91CF91E5
:101F90001F9108956091AE0281E090E00E94AF0F22
:101FA0006091AD0282E090E00E94AF0F6091A902C3
:101FB00083E090E00E94AF0F6091AC0284E090E07B
:101FC0000E94AF0F6091AB0285E090E00E94AF0FDE
:101FD0006091AA0286E090E00C94AF0F0F931F93DC
:101FE000809110038823C9F0809100018730A8F404
:101FF00090915A02992389F09091AF0291110DC0EE
:102000008F5F809300010E94550D6093560270937C
:102010005702809358029093590280910F038823AE
:10202000C9F0809100018230A8F090915A02992362
:1020300089F09091AF0291110DC081508093000101
:102040000E94550D60935602709357028093580278
:10205000909359028091B202882371F08091AF026F
:1020600081110AC00E94550D609356027093570269
:1020700080935802909359020E94550D0091560288
:1020800010915702209158023091590208551E496B
:102090002F4F3F4F061717072807390720F4809165
:1020A000AF02882399F080911003811104C08091C0
:1020B0000F03882319F010925A0203C081E0809325
:1020C0005A02809100011F910F9108951092B10260
:1020D0001092B00281E080930001E5CFEF92FF9271
:1020E0000F931F93CF93DF936115710511F480E077
:1020F0001CC041155105C1F07B01EC018C819D8113
:102100008A01080F191FB801CE010E94091B8823FC
:1021100071F3288139818C819D81B701820F931FD2
:102120000E944A2C1D830C8381E0DF91CF911F9187
:102130000F91FF90EF900895EEE3F3E0158614867B
:1021400029E030E03787268721E0248B258B0C940B
:10215000A81981BD92BDF89A0000000080B50895CD
:102160002091440330914503C901079697FD0796D6
:1021700023E0959587952A95E1F7209142033091C8
:102180004303829FA001839F500D929F500D112405
:1021900060E070E080915D0390915E030C94432CAD
:1021A000CF93DF930E948D19EC0182E592E00E94AB
:1021B0008D198C0F9D1FDF91CF91089530910D03E4
:1021C000313208F045C08091E9028111FCCF909135
:1021D0000C0322E02093E90221E02093E8022FEF94
:1021E0002093E7021092E6023093E502ECEEF2E073
:1021F000A5ECB2E020E0321721F041914D932F5F22
:10220000FACF1092C4022091C402990F922B90939E
:10221000C4029091C302913031F41092C3029091A4
:10222000C4029093BB0095EE9093BC009091E9029C
:102230009230E1F39091E7029F3F79F08091E702BD
:10224000803241F08091E702803331F084E005C0B4
:1022500081E003C082E001C083E01092EB021092A3
:102260000D031092EA020895DF92EF92FF920F930E
:102270001F93CF93DF93D82ED92FC62F80915B0366
:1022800090915C03009709F454C020915F0331E002
:102290003093EA0220930C031092EB0210920D038C
:1022A000DC01ED91FC910190F081E02D60E0099559
:1022B000ED2CFD2E11E0D1E080915B0390915C0349
:1022C000CC2371F11032C8F00E94DE1080915F03C0
:1022D000D093EA0280930C031092EB0210920D034C
:1022E00080915B0390915C03DC01ED91FC91019086
:1022F000F081E02D60E0099511E080915B03909101
:102300005C03F7016491DC01ED91FC910190F08197
:10231000E02D09951F5FC150BFEFEB1AFB0ACCCF30
:10232000DF91CF911F910F91FF90EF90DF900C9470
:10233000DE10E0916B03F0916C039081809171034A
:102340008095892380830D2D1D2FCC2309F439C05E
:10235000F80184912091590330915A03232B31F0D5
:102360000E94AC0DC1500F5F1F4FEFCF28E030E04F
:1023700040E8E0916703F091680390916F03582F54
:10238000542319F05081952B03C0508190959523CB
:102390009083E0916903F0916A03508190917003FA
:1023A000952B9083E0916903F0916A03508190919D
:1023B0007003909595239083469521503109C9F675
:1023C000D1CFDF91CF911F910F91FF90EF90DF90D0
:1023D0000895EF92FF920F931F93CF93DF93809115
:1023E0005B0390915C03892BD1F0209175033091B0
:1023F0007603409177035091780360E074E284EFB4
:1024000090E00E94262ADA01C9014097A109B1098A
:10241000B695A795979587958093B80016C080913B
:10242000590390915A03892B31F080917303909155
:1024300074030E94170EE0916D03F0916E0390817A
:102440008091720380958923808365E089E69CE012
:102450000E9434116091420361508EE393E00E9428
:10246000B40D2091440330914503C901079697FDAF
:10247000079633E0959587953A95E1F720914203C9
:1024800030914303829F8001839F100D929F100D16
:102490001124C0915D03D0915E0380915B03909104
:1024A0005C030C0F1D1F009709F44CC020915F03C3
:1024B00031E03093EA0220930C031092EB02109269
:1024C0000D03DC01ED91FC910190F081E02D60E4C1
:1024D0000995FF24F394EE24E39480915B0390919B
:1024E0005C030C171D0759F1BFE1BF15D0F40E9422
:1024F000DE1080915F03E092EA0280930C03109259
:10250000EB0210920D0380915B0390915C03DC0160
:10251000ED91FC910190F081E02D60E40995FF249C
:10252000F39480915B0390915C036991DC01ED91E0
:10253000FC910190F081E02D0995F394CECF0E949B
:10254000DE1041C0E0916B03F0916C0390818091AB
:102550007103892B80830C171D07A9F189912091A4
:10256000590330915A03232B19F00E94AC0DF3CF7D
:1025700028E030E040E8E0916703F0916803909133
:102580006F03582F542319F05081952B03C05081AD
:10259000909595239083E0916903F0916A035081AF
:1025A00090917003952B9083E0916903F0916A03F9
:1025B000508190917003909595239083469521507A
:1025C0003109C9F6C8CF80915B0390915C03892BD8
:1025D000D1F02091790330917A0340917B0350919F
:1025E0007C0360E074E284EF90E00E94262ADA0126
:1025F000C9014097A109B109B695A7959795879507
:102600008093B80017C0E0916D03F0916E03908144
:1026100080917203892B80838091590390915A0392
:10262000892B41F0DF91CF911F910F91FF90EF9097
:102630000C94AB0DDF91CF911F910F91FF90EF9014
:1026400008953F924F925F926F927F928F929F92E6
:10265000AF92BF92CF92DF92EF92FF920F931F93B0
:10266000CF93DF9300D000D000D0CDB7DEB72C01E0
:102670003B014A015901C901079697FD07969C0144
:1026800093E0359527959A95E1F73C832B83C12CF0
:10269000D12CE12CF12C312CC3018E0D9F1D9A837E
:1026A0008983E016F106C4F51E821D822D813E81CC
:1026B0002A153B054CF5C90187709927892B11F024
:1026C000330C0EC0ED81FE81F7FD379683E0F59562
:1026D000E7958A95E1F7EC0DFD1DE80DF91D3490A5
:1026E00037FE0CC021E030E049815A816D817E8146
:1026F000640D751D8EE393E00E9440098D819E81DB
:1027000001969E838D83D2CF9FEFE91AF90A2B8120
:102710003C81C20ED31EC0CF26960FB6F894DEBF02
:102720000FBECDBFDF91CF911F910F91FF90EF9022
:10273000DF90CF90BF90AF909F908F907F906F90E1
:102740005F904F903F900895CF93DF93EC01FB0192
:1027500044815581608171810E946E10811103C096
:10276000CE010E94301BCE01DF91CF9108952F92B0
:102770003F924F925F926F927F928F929F92AF9211
:10278000BF92CF92DF92EF92FF920F931F93CF935E
:10279000DF93CDB7DEB76B970FB6F894DEBF0FBEF1
:1027A000CDBF9B8F8A8F1B014A01D22E19870887C4
:1027B0003701A982DC0159962D913C915A97211538
:1027C000310509F0FFC018968D919C9119976817F3
:1027D00079070CF0E7C11A968D919C911B974817C9
:1027E00059070CF0DFC1EC2DF0E0FB83EA839B017D
:1027F00046E0C49E200D311D11243D872C87121602
:1028000013060CF0CFC16A2D70E07B876A8783E0E6
:10281000660F771F8A95E1F77F876E87CB01880D5A
:10282000991D181619060CF0BDC158968C9181118E
:1028300004C08FEA8D1508F4D394AA8DBB8DED9159
:10284000FC9111970680F781E02DCD010995B5E047
:10285000DB9EC0011124EC2DF0E0F98BE88B910197
:102860002B5F3F4F3B8B2A8B3D822C822101AC0199
:10287000421953095D8B4C8B7981672F70E07F8BF8
:102880006E8BC4010896998F888FEC89FD89E40DC1
:10289000F51DE759F84FD49054019F828E82D0FEE7
:1028A00016C0AA8DBB8DED91FC91B1E0CB1209C091
:1028B0002981213031F40084F185E02D2885398586
:1028C00019C00284F385E02DE884F9841DC0488591
:1028D00059854615570519F1AA8DBB8DED91FC91CF
:1028E000B1E0CB120DC02981213051F40084F18573
:1028F000E02D9301A501B2018A8D9B8D09950FC032
:102900000284F385E02D73010A851B852A813B81B2
:102910004E815F816C817D818A8D9B8D0995D694D6
:102920003FEFA31AB30A4E815F816E897F89460FFC
:10293000571F5F834E83888D998DA816B90609F0BD
:10294000AECF9FEF491A590AAC81BD81E889F98958
:10295000AE0FBF1FBD83AC832A893B894216530645
:1029600009F093CF488559854615570509F4F8C0F5
:10297000AA8DBB8DED91FC91B1E0CB1211C02981E4
:10298000213071F4B1016B5F7F4F0484F585E02D38
:10299000830128E030E0A4018A8D9B8D0995E0C079
:1029A0006C857D854A815B81641B750B0284F38590
:1029B000E02D73010E851F859A01A4018A8D9B8DE0
:1029C0000995CEC0F9013496E491DE1AF9013296E8
:1029D00085919491B7E0DB9E800D911D1124F90142
:1029E000259134913B8B2A8BFC012591349159011F
:1029F000FC0132965490319634913C873296749013
:102A00003196149141E04C1518F05981523068F01C
:102A1000672D072C000C770B7D836C83812F012E93
:102A2000000C990B9B838A8304C01B821A821D822F
:102A30001C82AA8DBB8DED91FC9111970680F781C8
:102A4000E02DCD010995412CD12C612CF981EF2F7E
:102A5000F0E0FF83EE832C2D30E03B872A87A40132
:102A6000410F511D17FD5A955F8B4E8BB101670DBC
:102A7000711D77FC7A95798F688F7C85671608F0D1
:102A80006FC0262D30E04A815B81420F531FAE811B
:102A9000BF81A49FC001A59F900DB49F900D1124EC
:102AA000F401E80FF91FF98BE88B842D712C4E8906
:102AB0005F89420F531F5D8B4C8B751408F04DC01E
:102AC00051E0580F5E87877041F4C5010196EA898D
:102AD000FB89EA0DFB1DD4905C01D7FE3AC061E092
:102AE000C61216C07981713099F4AA8DBB8DED9113
:102AF000FC9111970084F185E02D288539854C895A
:102B00005D89688D798D670D711DCD01099521C095
:102B10008C819D81870D911DEA85FB858E9FB0017B
:102B20008F9F700D9E9F700D1124620D731DAA8DD5
:102B3000BB8DED91FC9111970284F385E02DE88423
:102B4000F9840E811F812A853B8548895989CD01E9
:102B50000995DD0C73948E85B0CF450C63948DCFB1
:102B6000AA8DBB8DED91FC9111970288F389E02D20
:102B7000CD016B960FB6F894DEBF0FBECDBFDF91CF
:102B8000CF911F910F91FF90EF90DF90CF90BF906A
:102B9000AF909F908F907F906F905F904F903F90FD
:102BA0002F9009946B960FB6F894DEBF0FBECDBF81
:102BB000DF91CF911F910F91FF90EF90DF90CF9019
:102BC000BF90AF909F908F907F906F905F904F904D
:102BD0003F902F9008950F931F93CF93DF9377FF2C
:102BE00004C0260F371F60E070E0DC011496CD9121
:102BF000DC911597FB01E20FF31FCE17DF071CF4E2
:102C00009E01261B370B121613060CF046C0FA0164
:102C100057FD3796DF01E3E0B595A795EA95E1F713
:102C2000AC9FF001AD9FF00DBC9FF00D11246E0F15
:102C30007F1FDC015F96ED91FC919097E60FF71FE7
:102C40004770552781E090E001C0880F4A95EAF768
:102C5000482F0130110539F078F002301105E9F400
:102C60002E0F3F1F13C02E0F3F1FE217F307A9F0CF
:102C70008081842B8193F9CF80952E0F3F1FE2171F
:102C8000F30759F0908198239193F9CFE217F30756
:102C900021F0808184278193F9CFDF91CF911F911B
:102CA0000F910895EF92FF920F931F93CF93DF93AD
:102CB000EC0177FDA5C0EC80FD806E157F050CF062
:102CC0009FC057FF04C0240F351F40E050E08E81A5
:102CD0009F81FA01E20FF31F8E179F071CF49C01DE
:102CE000241B350B121613060CF08AC0922F842F6A
:102CF0008695869586958E9DD0018F9DB00D112469
:102D00006A0F7B1FAF8DB8A1A60FB71F4770B1F137
:102D100088E0841B482F682F70E0FB01EF59F84FC3
:102D2000E491281798F4621B71092FEF30E002C07C
:102D3000359527956A95E2F7E2230130110549F0B0
:102D400078F00230110509F05BC00EC001301105AA
:102D500019F48C91E82B0AC00130110508F049C024
:102D6000E0958C91E82302C08C91E827EC939417AE
:102D700008F446C02C813D81A20FB31FE92FE41B4C
:102D8000E830F8F00230110561F48E2F9C91909597
:102D90009C932C813D81A20FB31F88508830B0F7DF
:102DA0000FC081E00115110509F480E081959E2F87
:102DB0008C932C813D81A20FB31F98509830C0F79F
:102DC000E770EE23E9F0F0E0E75AF84FE4910130C4
:102DD000110539F048F00230110591F48C91E82783
:102DE00006C08C91E82B03C0E0958C91E823EC930E
:102DF00007C00230110509F4B7CFAE0DBF1DBECF1D
:102E0000DF91CF911F910F91FF90EF900895CF9395
:102E1000DF93EC016115710561F0FB010190002069
:102E2000E9F73197AF01461B570B0E946E108111D5
:102E300003C0CE010E94301BCE01DF91CF910895D7
:102E4000EF92FF920F931F93CF93DF93EC017B01DF
:102E50008A01BA010E94091B811104C0CE010E949F
:102E6000301B07C01D830C83B701888199810E94A4
:102E70004A2CCE01DF91CF911F910F91FF90EF90DF
:102E80000895CF93DF93EC016115710559F0FB01B3
:102E900001900020E9F73197AF01461B570B0E94C4
:102EA000201702C00E94301BCE01DF91CF91089500
:102EB0000F931F93CF93DF93CDB7DEB762970FB613
:102EC000F894DEBF0FBECDBF8C01CB01F80111829B
:102ED000108213821282158214824AE0BE016F5F53
:102EE0007F4F0E94C524BE016F5F7F4FC8010E94C3
:102EF000411762960FB6F894DEBF0FBECDBFDF91CB
:102F0000CF911F910F9108958F929F92AF92BF9290
:102F1000CF92DF92EF92FF920F931F93CF93DF93A5
:102F2000CDB7DEB72C970FB6F894DEBF0FBECDBF7E
:102F30004B015C016A0110924B0310924A038DE130
:102F400090E090934D0380934C03B501A401CE0112
:102F500001960E94E3198D819E81069710F484E00A
:102F600001C083E08093520380935303CE01019606
:102F70000E94421BB501A401CE0107960E94E319ED
:102F80000B851C8564E572E0CE01019607301105C2
:102F900000F10E94471BEB84FC84E114F104B9F1B9
:102FA000025011090E151F0508F47801EF81F8850C
:102FB000EE0DFF1D108110826F817885CE01019684
:102FC0000E9441178F819885FC01EE0DFF1D108333
:102FD0001EC00E94471B8B859C850097C1F0015045
:102FE00011098017910708F48C01EF81F885E00F33
:102FF000F11FF08010826F817885CE0101960E94CA
:1030000041178F819885FC01E00FF11FF082CE01FE
:1030100001960E949F19CE0101960E94421BCE018B
:1030200007960E94421BB501A401CE0101960E94A1
:10303000E3198D819E81069710F482E001C081E042
:103040008093520380935303CE0101960E94421B4A
:10305000C6010E94A8192C960FB6F894DEBF0FBEC9
:10306000CDBFDF91CF911F910F91FF90EF90DF9037
:10307000CF90BF90AF909F908F9008958F929F9226
:10308000AF92BF92CF92DF92EF92FF92CF93DF93F6
:103090000E946629C1E1D3E07B836A83072E000C7E
:1030A000880B990B0E9433279B01AC0160E070EC08
:1030B0008FE795E40E94F42820E030E040E85FE3E9
:1030C0000E9487282D853E854F8558890E9492272A
:1030D0006D8B7E8B8F8B988F0E94A9296B017C0151
:1030E000698B7A8B8B8B9C8B29A13AA14BA15CA11C
:1030F0000E9492272D8D3E8D4F8D58A10E948828C9
:103100004B015C012DA13EA14FA158A5C701B601FD
:103110000E949227A70196010E949227A70196017B
:103120000E9492279B01AC01C501B4010E9488282E
:103130009B01AC0160E070E080E89FE30E94F4280E
:10314000698F7A8F8B8F9C8F23E333E948E853E4B0
:103150000E948728DF91CF91FF90EF90DF90CF9072
:10316000BF90AF909F908F9008958F929F92AF9253
:10317000BF92CF92DF92EF92FF92CF93DF93EC0159
:10318000809111030E94E70CBC01990F880B990BE9
:103190000E943327209115033091160340911703A5
:1031A000509118030E9488286B017C0160931503DD
:1031B000709316038093170390931803BE01DD0FDD
:1031C000880B990B0E9433274B015C019B01AC01DA
:1031D0006091190370911A0380911B0390911C0355
:1031E0000E949C2987FD23C01092190310921A0394
:1031F00010921B0310921C03A5019401C701B60194
:103200000E94F4280E943E1860933A0370933B0397
:1032100080933C0390933D03109215031092160384
:10322000109217031092180381E080931D0320E091
:1032300030E040E85FEB6091190370911A038091D0
:103240001B0390911C030E942C27811114C08091B4
:1032500011030E94E70CBC01990F880B990B0E9487
:1032600033270E943E1860933A0370933B03809388
:103270003C0390933D0320E030E040E85FE3609141
:10328000190370911A0380911B0390911C030E94F3
:1032900088286093190370931A0380931B039093FB
:1032A0001C0380911D03DF91CF91FF90EF90DF9081
:1032B000CF90BF90AF909F908F9008950F931F93E2
:1032C000CF93DF938C01C62FD42F809110038823D6
:1032D00059F0F80180818F3F39F08F5F808370E073
:1032E00080E090E00E941B0D80910F03882381F005
:1032F000F8018081D81760F4815080836C2F70E0D2
:1033000080E090E0DF91CF911F910F910C941B0D05
:10331000DF91CF911F910F910895009769F0FC0103
:1033200001900020E9F73197AF01481B590BBC0110
:103330008EE393E00C94DF1A80E090E00895FC01A6
:1033400044815581608171818EE393E00C94DF1A92
:10335000CF93DF930E949F19EC0182E592E00E94D7
:103360008D198C0F9D1FDF91CF9108950F931F939F
:10337000CF93DF93CDB7DEB729970FB6F894DEBFB2
:103380000FBECDBF8C01862FF801118210821382EF
:103390001282158214824AE0BE016F5F7F4F90E077
:1033A0000E94D024BE016F5F7F4FC8010E94411769
:1033B00029960FB6F894DEBF0FBECDBFDF91CF9137
:1033C0001F910F910895EF92FF920F931F93CF9348
:1033D000DF93CDB7DEB7A1970FB6F894DEBF0FBE6F
:1033E000CDBF7C01CB01BA01F7011182108213829B
:1033F0001282158214828E010F5F1F4F22E044E07B
:103400000E94A524BC01C7010E944117A1960FB6D6
:10341000F894DEBF0FBECDBFDF91CF911F910F910A
:10342000FF90EF9008958F929F92AF92BF92CF92AC
:10343000DF92EF92FF921F93CF93DF93CDB7DEB76A
:10344000A1970FB6F894DEBF0FBECDBF182F6B014A
:1034500010924B0310924A038DE190E090934D033C
:1034600080934C03612FCE0101960E94B6198D8185
:103470009E81069710F484E001C083E0809352039C
:1034800080935303CE0101960E94421B212F30E00E
:1034900040E050E019A27E0181E2E80EF11C8AE0D2
:1034A000882E912CA12CB12CCA01B901A50194013F
:1034B0000E94262A605DF70162937F012115310584
:1034C0004105510589F7CF010E948D19612FCE0169
:1034D00001960E94B6198D819E81069710F482E0B4
:1034E00001C081E08093520380935303CE01019683
:1034F0000E94421BC6010E94A819A1960FB6F8941B
:10350000DEBF0FBECDBFDF91CF911F91FF90EF9037
:10351000DF90CF90BF90AF909F908F900895EF92E3
:10352000FF920F931F93CF93DF9300D000D000D072
:10353000CDB7DEB78C017B0110924B0310924A038A
:103540008DE190E090934D0380934C0384E0809351
:10355000520380935303C8010E949F191A82198253
:103560001C821B821E821D82F8016081718161159F
:10357000710531F044815581CE0101960E942017DA
:103580008D819E81069710F482E001C081E08093D6
:10359000520380935303CE0101960E94421BC70140
:1035A0000E94A81926960FB6F894DEBF0FBECDBFB5
:1035B000DF91CF911F910F91FF90EF900895CF92DF
:1035C000DF92EF92FF920F931F93CF93DF936C01E3
:1035D0007A018B01C0E0D0E0CE15DF0581F0D80183
:1035E0006D918D01D601ED91FC910190F081E02D5E
:1035F000C6010995892B11F02196EECF7E01C701F6
:10360000DF91CF911F910F91FF90EF90DF90CF90BE
:1036100008950F931F93CF93DF93EC0188819981D5
:10362000009729F02A813B812617370788F48B0100
:103630006F5F7F4F0E946F2B009761F099838883A3
:103640001B830A832C813D81232B11F4FC01108202
:1036500081E001C080E0DF91CF911F910F9108952B
:10366000CF93DF93EC0188819981009711F00E943C
:10367000E62A198218821D821C821B821A82DF911F
:10368000CF910895FC01808191810C94E62AFC0180
:1036900011821082138212821582148261157105C3
:1036A00051F0FB0101900020E9F73197AF01461B73
:1036B000570B0C94201708958BE191E090933F03F2
:1036C00080933E0380915D0390915E03009711F01B
:1036D0000C94E62A089581E08093AE0285E0809301
:1036E000AD0284E18093A90298E79093AC0299E13E
:1036F0009093AB028093AA020C94CA0FCF93DF93EE
:10370000CDB7DEB762970FB6F894DEBF0FBECDBF60
:103710008091F20080618EBB80E88093F2009EB3BE
:103720009093F2008093610081E08093610078942F
:1037300084B5826084BD84B5816084BD85B58260B6
:1037400085BD85B5816085BD109281008091810025
:1037500081608093810080918100806180938100ED
:10376000809180008260809380008FE38093870047
:103770009FEF909386008091B10084608093B100A8
:103780008091B00082608093B0008091B000816031
:103790008093B00080917000816080937000809170
:1037A000910081608093910080919100806180936D
:1037B0009100809190008260809390009093960099
:1037C00080917A00846080937A0080917A00826090
:1037D00080937A0080917A00816080937A00809152
:1037E0007A00806880937A001092C10080915D0316
:1037F00090915E03892B11F520914403309145038C
:10380000C901079697FD0796B3E095958795BA95F8
:10381000E1F72091420330914303AC01429FC00184
:10382000439F900D529F900D11240E944E2A909319
:103830005E0380935D03892B09F4FFCF0E94B010D3
:1038400020914403309145038091420390914303BA
:1038500021323105A4F0B9016054710977FF02C02B
:103860006F5F7F4F759567958255910997FD01961A
:1038700000E410E022E530E049E954E013C0B9016A
:103880006052710977FF02C06F5F7F4F7595679532
:103890008357910997FD019600E210E023E730E09D
:1038A00049EB52E0959587950E94211382E0809321
:1038B000600380915B0390915C03892B81F18CE321
:1038C00080935F031092A8021092A7021092EB025D
:1038D00010920D0380917E008F7C80937E00109269
:1038E000E90281E08093E8021092C30261E082E184
:1038F0000E94220C61E083E10E94220C8091B900B9
:103900008E7F8093B9008091B9008D7F8093B9003C
:1039100088E48093B80085E48093BC00BEC061E079
:10392000809164030E94420C61E0809165030E94D3
:10393000420C80916403082E000C990BFC01E256A6
:10394000FD4FE491F0E0EE0FFF1FEE56FD4F259185
:10395000349130936C0320936B03FC01E958FD4FC5
:10396000E491E093710380916503082E000C990B9C
:10397000FC01E256FD4FE491F0E0EE0FFF1FEE5622
:10398000FD4FA591B491B0936E03A0936D03FC011C
:10399000E958FD4FE491E09372038C91E82BEC938E
:1039A0008091590390915A03892B09F434C01FB7B1
:1039B000F8948091B302811127C0E8EAF2E0849183
:1039C000E1E8F2E09491E82FF0E0EE0FFF1FE15BF9
:1039D000FD4FA591B491EC91E92321F461E08AE0D7
:1039E0000E94220C61E08AE00E94420C8CB580614A
:1039F0008CBD8CB580648CBD61E08DE00E94420C72
:103A000061E08BE00E94420C8091B3028F5F809353
:103A1000B3021FBF42C061E0809162030E94420C6A
:103A200061E0809163030E94420C80916203082E42
:103A3000000C990BFC01E256FD4FE491F0E0EE0F13
:103A4000FF1FEE56FD4F259134913093680320936C
:103A50006703FC01E958FD4FE491E0936F03809107
:103A60006303082E000C990BFC01E256FD4FE49114
:103A7000F0E0EE0FFF1FEE56FD4FA591B491B0930D
:103A80006A03A0936903FC01E958FD4FE491E093B8
:103A900070038C91E095E823EC938091660387FD99
:103AA0001EC061E00E94420C61E0809166030E94AA
:103AB000220C61E070E080E090E00E941B0D60E06D
:103AC000809166030E94220C6AE070E080E090E042
:103AD0000E941B0D61E0809166030E94220C809180
:103AE0005B0390915C03892BD1F020917503309199
:103AF0007603409177035091780360E074E284EF9D
:103B000090E00E94262ADA01C9014097A109B10973
:103B1000B695A795979587958093B80016C0809124
:103B2000590390915A03892B31F08091730390913E
:103B300074030E94170EE0916D03F0916E03908163
:103B40008091720380958923808364E083E792E00B
:103B50000E9434116091440361508EE393E00E940F
:103B6000B40D64E08FE692E00E943411809160030E
:103B7000813011F460E101C064E18EE393E00E94C2
:103B8000B40D64E08BE692E00E9434118091420310
:103B90009091430380389105E9F48091440390911A
:103BA00045038032910531F464E087E692E00E949B
:103BB000341129C08034910531F563E084E692E048
:103BC0000E94341180916003813011F46FE917C0B5
:103BD0006FEC15C080369105B1F48091440390914B
:103BE0004503409781F463E081E692E00E9434113E
:103BF00080916003813011F460E101C06FEA8EE3CF
:103C000093E00E94B40D69ED8EE393E00E94B40D41
:103C100080916003813011F462E201C061EF8EE3B4
:103C200093E00E94B40D66E08BE592E00E943411AF
:103C300080915B0390915C03892BD1F020917903F3
:103C400030917A0340917B0350917C0360E074E2F1
:103C500084EF90E00E94262ADA01C9014097A10969
:103C6000B109B695A795979587958093B80011C02F
:103C7000E0916D03F0916E03908180917203892B26
:103C800080838091590390915A03892B11F00E94EF
:103C9000AB0D64E670E080E090E00E941B0D0E9496
:103CA000E9110E94B01018E28AE090E00E94B51875
:103CB00064E670E080E090E00E941B0D1150A1F7D7
:103CC0006FE371E0CE0101960E94471B60913A03B9
:103CD00070913B0380913C0390913D03AE014F5F97
:103CE0005F4F0E948417CE0101960E94421B60E044
:103CF0008AE00E94420C60E08CE00E94420C60E08E
:103D00008BE00E94420C60E08FE00E94420C61E078
:103D10008DE00E94420C60E082E10E94420C80E053
:103D200090E00E94A9108F3F29F50E94CA0F0E94BF
:103D30006B1B60E080E090E00E94AF0F0E94B0102B
:103D400010924B0310924A0310924D0310924C03B1
:103D500081E0809352038093530381E491E00E94B9
:103D6000D0100E94E91168EA71E680E090E00E94BC
:103D70001B0D24C081E090E00E94A9108093AE0248
:103D800082E090E00E94A9108093AD0283E090E071
:103D90000E94A9108093A90284E090E00E94A910DB
:103DA0008093AC0285E090E00E94A9108093AB0262
:103DB00086E090E00E94A9108093AA02CC24C394CC
:103DC00011E0EE24E394F12C04E082E0D82E99E097
:103DD000292E312C8BE00E94060C21E0892B09F45E
:103DE00020E0209310038CE00E94060C21E0892B38
:103DF00009F420E02093B2028AE00E94060C21E040
:103E0000892B09F420E020930F038FE00E94E70C38
:103E100082E390E00E94B51820E030E042E852ECE6
:103E200060913A0370913B0380913C0390913D0374
:103E30000E949C291816BCF46FE371E0CE01019634
:103E40000E94471B60913A0370913B0380913C03B1
:103E500090913D03AE014F5F5F4F0E948417CE01EA
:103E600001960E94421B10924B0310924A0310923B
:103E70004D0310924C031093520310935303B090D0
:103E8000B202B11004C08091B102882319F11093DD
:103E9000B102B11005C08091B002811195C267C214
:103EA0000E94550D4090BF025090C0026090C10228
:103EB0007090C20258E8450E53E1551E611C711CFA
:103EC000461657066806790630F78091BE028111C2
:103ED000E2CF7AC20E94550D6093BF027093C00278
:103EE0008093C1029093C2021092BE021092B0025F
:103EF0000E94E9110E94B0101093520310935303D3
:103F000010924B0310924A0310924D0310924C03EF
:103F1000F0925103E0925003F0924F03E0924E036F
:103F200020E030E042E852EC60913A0370913B03AC
:103F300080913C0390913D030E949C2918160CF03F
:103F4000DBC18091BB02882339F01092B902109234
:103F5000B8021092BA023FC08090B4029090B502AD
:103F6000A090B602B090B70240E6840E4AEE941ECE
:103F7000A11CB11C0E94550D86169706A806B9060D
:103F800050F50E94550D6093B4027093B502809372
:103F9000B6029093B7028091BA02882371F08091A3
:103FA000B9028F5F8093B9029091AB028917B8F084
:103FB0001092BA021092B9020EC08091B80290918C
:103FC000AC02891728F01093BA021092B80203C00D
:103FD0008F5F8093B8028091BA028823B9F0109263
:103FE0004B0310924A0330924D0320924C03609190
:103FF000AB02CE0101960E94B6196091B902CE01C2
:1040000007960E94B6196AE072E016C010924B0340
:1040100010924A0330924D0320924C036091AC02FF
:10402000CE0101960E94B6196091B802CE010796A2
:104030000E94B61966E172E0CE010D960E94471B00
:10404000BE01695F7F4FCE010D960E94A41364E10B
:1040500072E00E940717BE016F5F7F4F0E94A4139A
:104060000E94A819CE010D960E94421BCE01079610
:104070000E94421BCE0101960E94421B10924B03EC
:1040800010924A0310924D0310924C038091AE029D
:10409000811196C08FE192E00E948D198091BD023E
:1040A00081110BC00E94990FAB01BC01CE0101969A
:1040B0000E94E31964E272E01DC00E94990F4B0157
:1040C0005C016091AD0270E080E090E00E943127D9
:1040D00020E030E040E251E40E94F428A501940180
:1040E0000E948828AB01BC01CE0101960E94E31911
:1040F00069E272E0CE0107960E94471BBE016F5F26
:104100007F4FCE0107960E94A4130E949F19CE01F3
:1041100007960E94421BCE0101960E94421B6091AD
:10412000BA0270E0CE0101960E94581760E372E077
:10413000CE0107960E94471BBE016F5F7F4FCE01E5
:1041400007960E94A4130E94A819CE0107960E9408
:10415000421BCE0101960E94421B80903A03909030
:104160003B03A0903C03B0903D030E94990F2B01AC
:104170003C016091AD0270E080E090E00E94312748
:1041800020E030E040E251E40E94F428A3019201D3
:104190000E9488289B01AC01C501B4010E949C29A2
:1041A000181614F41092BD020E94990F9B01AC01E5
:1041B000C501B4010E949C2918160CF023C397C0B6
:1041C00083E392E00E948D198091BD0281110BC0A2
:1041D0000E94990FAB01BC01CE0101960E94E31928
:1041E00064E272E01FC00E94990F4B015C01609174
:1041F000AD0270E080E090E00E94312720E030E0E6
:1042000040E251E40E94F4289B01AC01C501B401D5
:104210000E948728AB01BC01CE0101960E94E319E0
:1042200069E272E0CE0107960E94471BBE016F5FF4
:104230007F4FCE0107960E94A4130E949F19CE01C2
:1042400007960E94421BCE0101960E94421B60917C
:10425000BA0270E0CE0101960E94581760E372E046
:10426000CE0107960E94471BBE016F5F7F4FCE01B4
:1042700007960E94A4130E94A819CE0107960E94D7
:10428000421BCE0101960E94421B80903A039090FF
:104290003B03A0903C03B0903D030E94990F2B017B
:1042A0003C016091AD0270E080E090E00E94312717
:1042B00020E030E040E251E40E94F4289B01AC0190
:1042C000C301B2010E9487289B01AC01C501B40162
:1042D0000E942C2787FD1092BD020E94990F9B011E
:1042E000AC01C501B4010E942C2787FF8BC28091CD
:1042F000BD02811187C28BC288E392E00E94D01078
:104300008DE392E00E94D01087E492E00E94D010EA
:1043100040913A0350913B0360913C0370913D03FF
:10432000CE0101960E94E3196FE472E0CE01079678
:104330000E94471BBE016F5F7F4FCE0107960E9410
:10434000A4130E94A819CE0107960E94421BCE0119
:1043500001960E94421B60E08DE00E94220C80E0EA
:1043600090E0892B09F436CD0E9400002DCDBB20B2
:1043700029F08091BE02882309F4BACD0E94550D20
:104380004090BF025090C0026090C1027090C20283
:10439000A30192012A513F4F4F4F5F4F2617370716
:1043A0004807590710F4B110D4C10E94550D2CE2F2
:1043B000420E20EB521E611C711C46165706680601
:1043C000790608F4C6C11BC20E94550D4090BF0279
:1043D0005090C0026090C1027090C2022EE3420E63
:1043E00027E1521E611C711C4616570668067906A5
:1043F00008F0AAC1BB2009F4A7C1B090AF02B11068
:104400000E94CA0FBC24B092AF020E94EE0F873008
:1044100041F41092B1021092B00210930001109278
:10442000AF020E94CA0F6FE670E080E090E00E9449
:104430001B0D8091B202811105C08091B0028823CA
:1044400009F456CD0E94B01010924B0310924A030B
:1044500010924D0310924C038091AF02811122C043
:10446000109352031093530388E290E090934B0310
:1044700080934A03F0924D03E0924C0382E591E071
:104480000E94D010D0925203D092530343E250E0E6
:1044900050934B0340934A0386E190E090934D0381
:1044A00080934C030E94EE0F873028F50E94EE0F98
:1044B000682F70E061507109CE0101960E94581773
:1044C00068E571E0CE0107960E94471BBE016F5F51
:1044D0007F4FCE0107960E94A41363EF71E00E9404
:1044E00007170E94A819CE0107960E94421BCE0111
:1044F00001960E94421B0E94EE0F813009F044C0D9
:104500006BE571E0CE0101960E94471BCE0101963A
:104510000E949C10CE0101960E94421B8091AF0226
:10452000882309F40EC140E061E08EEA92E00E9427
:104530005E198091AE02811109C06CE671E0CE0176
:1045400001960E94471B6FE371E008C063E771E0CA
:10455000CE0101960E94471B6AE771E0CE010796E3
:104560000E94471BBE016F5F7F4FCE0107960E94DE
:104570008F1ACE0107960E94421BCE0101960E941F
:10458000421B1092BD02DDC00E94EE0F823091F5F9
:104590006CE771E0CE0101960E94471BCE010196A7
:1045A0000E949C10CE0101960E94421B8091AF0296
:1045B000882309F4C6C041E06AE08DEA92E00E94D7
:1045C0005E196FE371E0CE0101960E94471B609176
:1045D000AD0270E080E090E00E94312720E030E002
:1045E00040E251E40E94F428AE014F5F5F4F0E9409
:1045F000841739C00E94EE0F833059F461E971E0ED
:10460000CE0101960E94471BCE0101960E949C108C
:104610002AC00E94EE0F843059F563E971E0CE01A3
:1046200001960E94471BCE0101960E949C10CE016C
:1046300001960E94421B8091AF02882309F481C039
:1046400041E06AE08CEA92E00E945E1969EA71E05A
:10465000CE0101960E94471BBE016F5F7F4F809184
:10466000AC020E94131ACE0101960E94421B69C03F
:104670000E94EE0F853029F56DEA71E0CE010196BA
:104680000E94471BCE0101960E949C10CE0101960C
:104690000E94421B8091AF02882309F452C041E07E
:1046A0006AE08BEA92E00E945E1969EA71E0CE014D
:1046B00001960E94471BBE016F5F7F4F8091AB0246
:1046C000D0CF0E94EE0F8630A1F563EC71E0CE01F1
:1046D00001960E94471BCE0101960E949C10CE01BC
:1046E00001960E94421B8091AF02882351F186ED12
:1046F00091E00E94D01080911003882311F1009363
:1047000052030093530388EE91E00E94D0100E9460
:10471000E9110E946B1B0E94CA0F60ED77E080E0F8
:1047200090E00E941B0D8091AF028C258093AF0218
:1047300008C00E94EE0F873021F48EEE91E00E94B7
:10474000D0100E94E911D4CB1093B0021093B102A3
:1047500070CE1092BE021092B1020E94CA0F64E69F
:1047600070E080E090E00E941B0D8091BE028823E3
:1047700009F4BECB0E94B01085EF91E00E94D010EA
:1047800041E064E68AEA92E00E945E198091BC02F0
:104790008531F0F068E072E0CE0101960E94471B7F
:1047A00068E072E0CE0107960E94471BBE016F5F72
:1047B0007F4FCE0107960E948F1ACE0107960E9466
:1047C000421BCE0101960E94421B1092BC0211C0F6
:1047D0006FE371E0CE0101960E94471B0E94990F82
:1047E000AE014F5F5F4F0E948417CE0101960E9479
:1047F000421B8091BC028F5F8093BC0279CB1093E7
:10480000BE02B3CF1093BD021093BB02A4CD109291
:10481000BB028091BA0281119ECD6FEF9DCD80E8E1
:1048200086BF8CE486BFADE7B3E013961C921E9260
:10483000129748EE53E060E070E014964D935D935C
:104840006D937C9317978BE091E011969C938E93D8
:10485000EEE3F3E01382128220E830E03583248314
:1048600080E490E0978386833187208793878287CF
:10487000168A158614861786168681E0858B848BAA
:104880002FEF3FEF338B228B318B208B878B108E5A
:10489000128E118E2BE131E031832083148E138E22
:1048A000B68FA58F10A2178E9FEF94A395A396A302
:1048B00097A380A780E585AB16AA80E89AE1A6E0D9
:1048C000B0E087AB90AFA1AFB2AF80EA96E8A1E0CD
:1048D000B0E083AF94AFA5AFB6AFE1E1F3E01482EF
:1048E00015821682178280E090E0A0E8BFEB8087F7
:1048F0009187A287B38714868BEC98E4A4E8BAE387
:10490000858F968FA78FB0A386ED94E6A9E7B9E3CC
:1049100081A392A3A3A3B4A38CE69FECA8E5B4E380
:1049200085A396A3A7A3B0A711A612A613A614A6A3
:104930008FE090E09183808380E098E6A2E1B6E486
:1049400085879687A787B08B0895EF920F931F9363
:10495000CF93DF93E80147FD02C034E001C034E1AA
:10496000042E000C550B57FF03C05195419551097A
:10497000E32E022F242FAE010E94EA24CE01DF9104
:10498000CF911F910F91EF900895BB274A3031F4DA
:10499000992322F4BDE2909581959F4F0C94D124E8
:1049A000BB27FB015527AA27880F991FAA1FA41709
:1049B00010F0A41B83955051B9F7A05DAA3308F0FD
:1049C000A95DA193009779F7B111B1931192CB0131
:1049D0000C941C27A9E0B0E0E0EFF4E20C94562818
:1049E0006A01122FB02E2BE3201720F0FF24F3943E
:1049F000F00E02C02CE3F22E0F2D27E0AE014F5F28
:104A00005F4F0E944426BC014981842F8970813008
:104A100031F0E1FC06C0E0FE06C090E205C09DE278
:104A200003C09BE201C090E05E2D507143FF3CC08B
:104A3000911102C083E001C084E0811718F4212F96
:104A4000281B01C020E051110BC0F601822F30E27B
:104A5000882319F031938150FBCFC20ED11C20E086
:104A6000992329F0D6019C93F60131966F01C60176
:104A70000396E2FE0AC03EE4D6013C9341E411965F
:104A80004C93119712963C9306C03EE6F601308394
:104A900041E641833283FC01322F40E2332309F4A3
:104AA00042C041933150FACF42FF44C0911102C03D
:104AB00083E001C084E0811718F4212F281B01C076
:104AC00020E051110BC0F601822F30E2882319F04B
:104AD00031938150FBCFC20ED11C20E0992329F0E5
:104AE000D6019C93F60131966F01C6010396E2FE52
:104AF0000BC039E4D6013C933EE411963C931197E8
:104B000036E412963C9307C039E6F60130833EE660
:104B1000318336E63283FC01322F40E2332319F031
:104B200041933150FBCFFC01E20FF11D10828EEF5B
:104B30009FEFA6C021E030E0911102C020E030E0FC
:104B4000161617061CF4FB01319602C0E1E0F0E0F6
:104B50002E0F3F1FBB2021F0EB2DF0E0319602C05D
:104B6000E0E0F0E02E0F3F1FE12FF0E02E173F07AF
:104B70001CF4121B212F01C020E08E2D887159F4E6
:104B8000F601822F30E2882319F031938150FBCF58
:104B9000C20ED11C20E0992329F0D6019C93F60186
:104BA00031966F0151110BC0F601822F90E38823DB
:104BB00019F091938150FBCFC20ED11C20E00F2D34
:104BC000060F9A81342F307144FF03C0913309F4EA
:104BD0000150101624F4093018F008E001C001E07B
:104BE000AB0177FF02C040E050E0FB01E41BF50B96
:104BF000A1E0B0E0AC0FBD1FEA0FFB1F8EE2A82EB4
:104C00004B01801A91080B2D10E0119501951109A7
:104C10004F3FBFEF5B0721F4D601AC9211966D01B7
:104C2000641775072CF08416950614F4818101C071
:104C300080E3415051093196D60111967D0140170C
:104C4000510724F0D6018C936701E2CF64177507F2
:104C500039F4963320F4953319F4311101C081E30E
:104C6000F6018083F701822F90E2882319F0919357
:104C70008150FBCFF701E20FF11D108280E090E040
:104C80002996ECE00C947228283008F027E03327AE
:104C9000DA01990F311D87FD91600096610571055C
:104CA00039F432602E5F3D9330E32A95E1F70895A1
:104CB0009F3F30F080387105610509F03C5F3C5F33
:104CC0003D93913008F08068911DDF93CF931F933F
:104CD0000F93FF92EF92192F987F9695E92F969553
:104CE0009695E90FFF27E857FE4F99273327EE24C3
:104CF000FF24A701E70105900894079428F4360FD4
:104D0000E71EF81E491F511D660F771F881F991F48
:104D10000694A1F70590079428F4E70EF81E491FA2
:104D2000561FC11D770F881F991F661F0694A1F794
:104D30000590079428F4F80E491F561FC71FD11D70
:104D4000880F991F661F771F0694A1F70590079497
:104D500020F4490F561FC71FD81F990F661F771FD2
:104D6000881F0694A9F784911095177041F0D69585
:104D7000C79557954795F794E7941A95C1F7EEE2D2
:104D8000F1E0689415901591359165919591059094
:104D90007FE27395E118F10A430B560BC90BD0095A
:104DA000C0F7E10CF11E431F561FC91FD01D7EF432
:104DB000703311F48A95E6CFE894015030F0080F73
:104DC0000AF40027021708F4202F2395022F7A33C4
:104DD00028F079E37D932A95E9F710C07D932A9511
:104DE00089F6069497956795379517951794E11866
:104DF000F10A430B560BC90BD00998F023957E910D
:104E000073957A3308F070E37C932013B8F77E91A2
:104E100070617D9330F0839571E37D9370E32A9503
:104E2000E1F71124EF90FF900F911F91CF91DF9147
:104E3000992787FD90950895DC01FC01672F7191FA
:104E40007723E1F7329704C07C916D937083629170
:104E5000AE17BF07C8F308950E946E2708F481E0DB
:104E60000895E89409C097FB3EF49095809570955D
:104E700061957F4F8F4F9F4F9923A9F0F92F96E9A6
:104E8000BB279395F695879577956795B795F1111B
:104E9000F8CFFAF4BB0F11F460FF1BC06F5F7F4FB8
:104EA0008F4F9F4F16C0882311F096E911C07723CA
:104EB00021F09EE8872F762F05C0662371F096E8D3
:104EC000862F70E060E02AF09A95660F771F881FA2
:104ED000DAF7880F9695879597F90895990F000846
:104EE000550FAA0BE0E8FEEF16161706E807F907BC
:104EF000C0F012161306E407F50798F0621B730B57
:104F0000840B950B39F40A2661F0232B242B252BD7
:104F100021F408950A2609F4A140A6958FEF811D7A
:104F2000811D08950E94A5270C9416280E94082828
:104F300038F00E940F2820F0952311F00C94FF27E1
:104F40000C94052811240C944A280E94272870F3F9
:104F5000959FC1F3950F50E0551F629FF001729F1E
:104F6000BB27F00DB11D639FAA27F00DB11DAA1F2D
:104F7000649F6627B00DA11D661F829F2227B00D7A
:104F8000A11D621F739FB00DA11D621F839FA00D05
:104F9000611D221F749F3327A00D611D231F849F55
:104FA000600D211D822F762F6A2F11249F575040AC
:104FB0009AF0F1F088234AF0EE0FFF1FBB1F661F27
:104FC000771F881F91505040A9F79E3F510580F0F0
:104FD0000C94FF270C944A285F3FE4F3983ED4F3E7
:104FE000869577956795B795F795E7959F5FC1F794
:104FF000FE2B880F911D9695879597F9089597F93F
:105000009F6780E870E060E008959FEF80EC08956E
:1050100000240A9416161706180609060895002497
:105020000A9412161306140605060895092E039411
:10503000000C11F4882352F0BB0F40F4BF2B11F485
:1050400060FF04C06F5F7F4F8F4F9F4F089557FDE4
:105050009058440F551F59F05F3F71F04795880FE6
:1050600097FB991F61F09F3F79F08795089512167D
:1050700013061406551FF2CF4695F1DF08C0161629
:1050800017061806991FF1CF8695710561050894DA
:105090000895E894BB2766277727CB0197F90895F1
:1050A0002F923F924F925F926F927F928F929F9238
:1050B000AF92BF92CF92DF92EF92FF920F931F9326
:1050C000CF93DF93CDB7DEB7CA1BDB0B0FB6F894D7
:1050D000DEBF0FBECDBF09942A88398848885F8417
:1050E0006E847D848C849B84AA84B984C884DF8088
:1050F000EE80FD800C811B81AA81B981CE0FD11D6C
:105100000FB6F894DEBF0FBECDBFED010895505825
:10511000BB27AA270E949F280C9416280E940828C3
:1051200038F00E940F2820F039F49F3F19F426F43C
:105130000C9405280EF4E095E7FB0C94FF27E92F6B
:105140000E94272858F3BA17620773078407950748
:1051500020F079F4A6F50C9449280EF4E0950B2E76
:10516000BA2FA02D0B01B90190010C01CA01A001B9
:105170001124FF27591B99F0593F50F4503E68F114
:105180001A16F040A22F232F342F4427585FF3CF55
:10519000469537952795A795F0405395C9F77EF426
:1051A0001F16BA0B620B730B840BBAF09150A1F06F
:1051B000FF0FBB1F661F771F881FC2F70EC0BA0FF5
:1051C000621F731F841F48F4879577956795B7957D
:1051D000F7959E3F08F0B0CF9395880F08F0992778
:1051E000EE0F9795879508950E9408290C9416282C
:1051F0000E940F2858F00E94082840F029F45F3FD1
:1052000029F00C94FF2751110C944A280C9405287E
:105210000E94272868F39923B1F3552391F3951B36
:10522000550BBB27AA2762177307840738F09F5FC7
:105230005F4F220F331F441FAA1FA9F335D00E2E34
:105240003AF0E0E832D091505040E695001CCAF7A1
:105250002BD0FE2F29D0660F771F881FBB1F261764
:1052600037074807AB07B0E809F0BB0B802DBF013B
:10527000FF2793585F4F3AF09E3F510578F00C940A
:10528000FF270C944A285F3FE4F3983ED4F38695B9
:1052900077956795B795F7959F5FC9F7880F911D2B
:1052A0009695879597F90895E1E0660F771F881F17
:1052B000BB1F621773078407BA0720F0621B730BCA
:1052C000840BBA0BEE1F88F7E09508950E946D29B4
:1052D0006894B1110C944A2808950E942F2888F0F0
:1052E0009F5798F0B92F9927B751B0F0E1F0660FAA
:1052F000771F881F991F1AF0BA95C9F714C0B130EB
:1053000091F00E944928B1E008950C944928672F34
:10531000782F8827B85F39F0B93FCCF38695779519
:105320006795B395D9F73EF4909580957095619502
:105330007F4F8F4F9F4F08950E946E2708F48FEF85
:10534000089516F00C94F1290C94052868940C9497
:10535000FF270E942F28A8F39923C1F3AEF3DF9310
:10536000CF931F930F93FF92C92FDD2788232AF035
:105370002197660F771F881FDAF720E030E040E8BA
:105380005FEB9FE3883920F0803E38F021968F77DD
:105390000E948828E4EDF0E004C00E948828E1E043
:1053A000F1E00E94FF298B01BE01EC01FB2E6F573B
:1053B00071097595771F880B990B0E94332728E197
:1053C00032E741E35FE30E94A527AF2D9801AE01CC
:1053D000FF900F911F91CF91DF910E949F280C9415
:1053E00016289F3F31F0915020F487957795679567
:1053F000B795880F911D9695879597F90895DF9336
:10540000CF931F930F93FF92EF92DF927B018C015A
:10541000689406C0DA2EEF010E94A527FE01E894E9
:10542000A5912591359145915591A6F3EF010E94E3
:105430009F28FE019701A801DA9469F7DF90EF90A9
:10544000FF900F911F91CF91DF910895A1E21A2E45
:10545000AA1BBB1BFD010DC0AA1FBB1FEE1FFF1F18
:10546000A217B307E407F50720F0A21BB30BE40B68
:10547000F50B661F771F881F991F1A9469F76095AF
:105480007095809590959B01AC01BD01CF01089569
:10549000EE0FFF1F0590F491E02D09940F931F93D9
:1054A000CF93DF938230910510F482E090E0E09199
:1054B0008B03F0918C0320E030E0A0E0B0E0309767
:1054C00019F1408151810281138148175907C8F0B1
:1054D0008417950769F4109731F012960C93129780
:1054E00013961C9327C000938B0310938C0322C048
:1054F0002115310519F04217530718F49A01BD011F
:10550000EF01DF01F801DBCF21153105F9F0281B90
:10551000390B2430310580F48A819B816115710536
:1055200021F0FB019383828304C090938C038093CA
:105530008B03FE01329644C0FE01E20FF31F8193FC
:10554000919322503109398328833AC020918903ED
:1055500030918A03232B41F42091030130910401FF
:1055600030938A0320938903209101013091020135
:105570002115310541F42DB73EB7409105015091F9
:105580000601241B350BE0918903F0918A03E21791
:10559000F307A0F42E1B3F0B2817390778F0AC0156
:1055A0004E5F5F4F2417350748F04E0F5F1F509333
:1055B0008A03409389038193919302C0E0E0F0E075
:1055C000CF01DF91CF911F910F910895CF93DF937A
:1055D000009709F481C0FC01329713821282A091D6
:1055E0008B03B0918C03109781F420813181820F5D
:1055F000931F2091890330918A032817390751F5A9
:10560000F0938A03E093890367C0ED0120E030E066
:10561000CE17DF0740F44A815B819E014115510599
:10562000F1F0EA01F5CFD383C28340815181840F29
:10563000951FC817D90759F488819981840F951F40
:105640000296918380838A819B8193838283211533
:10565000310529F4F0938C03E0938B033DC0E901FD
:10566000FB83EA8349915991C40FD51FEC17FD07BD
:1056700061F480819181840F951F0296E9019983DD
:105680008883828193819B838A83E0E0F0E0129695
:105690008D919C911397009719F0FD01DC01F7CFD4
:1056A0008D919C9111979D012E5F3F4F820F931F0B
:1056B0002091890330918A032817390769F43097BC
:1056C00029F410928C0310928B0302C01382128271
:1056D000B0938A03A0938903DF91CF910895A0E04E
:1056E000B0E0E5E7FBE20C945428EC01009721F4CC
:1056F000CB010E944E2AB4C0FC01E60FF71F9C01AB
:1057000022503109E217F30708F4A8C0D9010D911E
:105710001C91119706171707B0F00530110508F412
:105720009BC0C80104978617970708F495C00250DC
:105730001109061B170B019311936D937C93CF01F5
:105740000E94E62A89C05B01A01AB10A4C01800EB2
:10575000911EA0918B03B0918C03612C712CE12CD4
:10576000F12C109709F446C08D919C911197A815C2
:10577000B905B1F56C0142E0C40ED11CCA14DB04BA
:1057800078F14C018A189B08640142E0C40ED11CD8
:105790001296BC9012971396AC91B5E0CB16D1043B
:1057A00040F0B282A38391828082D9016D937C9371
:1057B00009C00E5F1F4F800F911FF90191838083F5
:1057C000EB2DFA2FE114F10431F0D7011396FC937D
:1057D000EE93129741C0F0938C03E0938B033CC08F
:1057E0006816790608F43C017D0112960D90BC9173
:1057F000A02DB7CF8091890390918A0388169906CE
:10580000E1F466167706C8F48091010190910201D7
:10581000009741F48DB79EB7409105015091060164
:10582000841B950BE817F907C8F4F0938A03E093FB
:105830008903F901718360830FC0CB010E944E2A56
:105840007C01009759F0A801BE010E943A2CCE01BC
:105850000E94E62AC70104C0CE0102C080E090E0A9
:10586000CDB7DEB7EEE00C94702881E090E0F894BC
:105870000C94512CFB01DC0102C001900D924150AF
:105880005040D8F70895DC0101C06D93415050405D
:10589000E0F70895FB01DC0101900D920020E1F793
:1058A000089516E0C8E3D6E004C0FE010E94482A2D
:0C58B0002196C933D107C9F7F894FFCF47
:1058BC000100008D038000000000006E0A410A39CF
:1058CC000A2A0A1C0A1709000000002E0BDF1AA472
:1058DC0006170940091809340928094709170962EC
:1058EC00071A0E9F0AE30A60084308D60777074396
:1058FC00004D454D4F52595F4649525354424F4FFC
:10590C0054004D454E4955005B50003C4D6F64654D
:10591C003A436F6F6C2C486561743E006F6F6C6915
:10592C006E6700656174696E670048003C4C6F6778
:10593C0069632054656D702E204F66667365743EE6
:10594C00002D003C4F766572776F726B696E672025
:10595C0074696D656F75743E006D696E003C4F76B1
:10596C006572776F726B696E6720636F6F6C646FB3
:10597C00776E003C526573657420746F20646566A5
:10598C0061756C743E005072657373207570207471
:10599C006F2072657365740020446F6E65005B4503
:1059AC005849545D004B65697374692074656D705A
:1059BC0065726174757261002000436F6F6C646F67
:1059CC00776E3A002F0054696D656F75743A004319
:1059DC006F6F6C00696E673A002D73746F703A00CC
:1059EC00633A0048656174004E6572610054656DE0
:1059FC0070657261742E0053656E736F722E003F6A
:065A0C003A000D0A000043
:00000001FF
