:100000000C946E010C9496010C9496010C9496013C
:100010000C9496010C9496010C9496010C94960104
:100020000C9496010C9496010C9496010C949601F4
:100030000C9496010C9496010C9496010C949601E4
:100040000C944A0B0C9496010C9496010C94960116
:100050000C9496010C9496010C9496010C949601C4
:100060000C94940B0C949601AED580A83FD300401D
:100070008D142002A1C8DA12817FD9F1DB40A4A639
:10008000AF00030C0F30333C3FC0C3CCCFF0F3FCC8
:10009000FF000000002300260029000000050720C3
:1000A00060000000000000005F0000000700070083
:1000B000147F147F14242A7F2A12231308646236C3
:1000C000495620500008070300001C22410000414F
:1000D000221C002A1C7F1C2A08083E080800807089
:1000E00030000808080808000060600020100804BC
:1000F000023E5149453E00427F400072494949460F
:100100002141494D331814127F1027454545393C8C
:100110004A49493141211109073649494936464979
:1001200049291E000014000000403400000008149B
:100130002241141414141400412214080201590914
:10014000063E415D594E7C1211127C7F4949493669
:100150003E414141227F4141413E7F494949417FE2
:10016000090909013E414151737F0808087F004198
:100170007F41002040413F017F081422417F4040E1
:1001800040407F021C027F7F0408107F3E414141B6
:100190003E7F090909063E4151215E7F0919294622
:1001A000264949493203017F01033F4040403F1F38
:1001B0002040201F3F4038403F631408146303046D
:1001C0007804036159494D43007F414141020408CD
:1001D0001020004141417F040201020440404040A0
:1001E00040000307080020545478407F28444438D6
:1001F0003844444428384444287F38545454180020
:10020000087E090218A4A49C787F0804047800449E
:100210007D40002040403D007F1028440000417F89
:1002200040007C047804787C080404783844444412
:1002300038FC1824241818242418FC7C080404080A
:10024000485454542404043F44243C4040207C1C23
:100250002040201C3C4030403C44281028444C9016
:1002600090907C4464544C44000836410000007770
:100270000000004136080002010204023C26232649
:100280003C68001980400000000000240027002A7C
:100290000000000000250028002B000404040404D2
:1002A0000404040202020202020303030303030123
:1002B00002040810204080010204081020010204FA
:1002C00008102000000008000201000003040700DD
:1002D0000000000000000000B30C9E1311241FBE9C
:1002E000CFEFD8E0DEBFCDBF12E0A0E0B1E0E4E0A8
:1002F000FDE202C005900D92A431B107D9F724E0C8
:10030000A4E1B2E001C01D92A834B207E1F711E008
:10031000CDE6D1E004C02197FE010E947814CC36CE
:10032000D107C9F70E943C0D0C9475160C9400007F
:10033000CF93DF9390E0FC01E155FD4F249185566A
:100340009D4FFC0184918823C1F090E0880F991F94
:10035000FC01E957FD4FC591D491FC01EF56FD4FCB
:10036000A591B4919FB7F8948881E22FE0958E23F0
:1003700088838C91E823EC939FBFDF91CF91089500
:100380002091D90281E0213208F044C08091B50269
:100390008111FCCF8091D80292E09093B50291E058
:1003A0009093B4029FEF9093B3021092B202209305
:1003B000B102A8EBB2E0E1E9F2E090E0291331C02C
:1003C0001092900290919002880F892B8093900256
:1003D00080918F02813049F510928F0280919002B6
:1003E0008093BB008091BC0083FDF8CF85EC8093A7
:1003F000BC008091B5028230E1F38091B3028F3F5F
:10040000B1F08091B3028032A1F08091B3028033C9
:1004100091F084E01092B7021092D9021092B602C5
:1004200008953D9131939F5FC9CF85EEE0CF80E085
:10043000F1CF82E0EFCF83E0EDCFAF92BF92CF92CA
:10044000DF92EF92FF920F931F93CF93DF936C0194
:100450007B018B01040F151FEB015E01AE18BF0875
:10046000C017D10759F06991D601ED91FC91019027
:10047000F081E02DC6010995892B79F7C501DF913F
:10048000CF911F910F91FF90EF90DF90CF90BF9091
:10049000AF9008958AE080938A0286E18093890272
:1004A00081E2809388028CE28093870287E38093C5
:1004B0008602089508950895833081F028F48130EC
:1004C00099F08230A9F008958730A9F08830C9F0FA
:1004D0008430B1F4809180008F7D03C080918000D2
:1004E0008F7780938000089584B58F7784BD0895B9
:1004F00084B58F7DFBCF8091B0008F778093B00063
:1005000008958091B0008F7DF9CFCF93DF93282F8E
:1005100030E0F901ED53FD4F8491F901E155FD4FB4
:10052000D491F901E556FD4FC491CC2389F0811196
:100530000E945C02EC2FF0E0EE0FFF1FEF56FD4F24
:10054000A591B4918FB7F894EC91DE2BDC938FBF1B
:10055000DF91CF910895CF93DF93282F30E0F901F9
:10056000ED53FD4F8491F901E155FD4FD491F9010F
:10057000E556FD4FC491CC23A1F081110E945C028D
:10058000EC2FF0E0EE0FFF1FEF56FF4FA591B49157
:10059000EC91ED2381E090E009F480E0DF91CF91D0
:1005A000089580E090E0FACF3FB7F89480917C0204
:1005B00090917D02A0917E02B0917F0226B5A89B0A
:1005C00005C02F3F19F00196A11DB11D3FBFBA2FE5
:1005D000A92F982F8827BC01CD01620F711D811DA5
:1005E000911D42E0660F771F881F991F4A95D1F72A
:1005F00008958F929F92AF92BF92CF92DF92EF9227
:10060000FF926B017C010E94D4024B015C01C1147A
:10061000D104E104F104B9F00E94D4026819790907
:100620008A099B09683E73408105910580F321E0AA
:10063000C21AD108E108F10888EE880E83E0981EFE
:10064000A11CB11CE4CFFF90EF90DF90CF90BF9042
:10065000AF909F908F900895CF93DF93EC01E0913E
:10066000FB02F091FC028081882359F088818F3F42
:1006700041F08F5F88836AE070E080E090E00E9444
:10068000F902E091FD02F091FE028081882369F079
:100690008881882351F0815088836AE070E080E08F
:1006A00090E0DF91CF910C94F902DF91CF91089502
:1006B0002FB7F894609178027091790280917A0254
:1006C00090917B022FBF0895E091FB02F091FC0214
:1006D00080818823F9F08091EC0220910B03309106
:1006E0000C038217130609F0ACF49091ED029923E4
:1006F00089F09091EE0291110DC08F5F8093EC0212
:100700000E9458036093F4027093F5028093F602FE
:100710009093F702E091FD02F091FE028081882320
:10072000C9F08091EC028230A8F09091ED029923FB
:1007300089F09091EE0291110DC081508093EC02EE
:100740000E9458036093F4027093F5028093F602BE
:100750009093F702E091FF02F091000380818823DB
:1007600071F08091EE0281110AC00E9458036093DB
:10077000F4027093F5028093F6029093F7020E94C0
:100780005803AB01BC018091F4029091F502A09155
:10079000F602B091F70288559E49AF4FBF4F8417BC
:1007A0009507A607B70768F48091EE02811109C08A
:1007B0001092E9021092EA0281E08093EC0210921A
:1007C000F902E091FB02F091FC028081811107C0E7
:1007D000E091FD02F091FE028081882329F01092C1
:1007E000ED028091EC02089581E08093ED02F9CF53
:1007F000CF93DF93EC018D85882329F081508D877D
:10080000DF91CF9108959C818E819817C8F78889D0
:100810006827E881F9810084F185E02D42E0CE016E
:1008200009958C818F5F8C83EBCFDC01ED91FC917E
:100830000084F185E02D40E009940F931F93CF933E
:100840008C01FC016483C085C60F6C2F6F700E9401
:1008500015046C2F62956F706061C801CF911F9174
:100860000F910C941504FC01278126952695269559
:10087000621738F465832385620F6770606B0C9490
:10088000150408951F93CF93DF93EC01142F8E81ED
:10089000681718F4CE010E941D04612FCE01DF916C
:1008A000CF911F910C943304CF92DF92EF92FF927D
:1008B0000F931F93CF93DF93EC01F62EC42ED22E0D
:1008C0001D868F81869586958695081710F00FEF07
:1008D000080F1D2D011780F0412F6F2DCE010E94B2
:1008E0004204EF2CCE1430F06889CE010E94F80348
:1008F000E394F8CF1F5FEECF4D2D6F2DCE01DF912A
:10090000CF911F910F91FF90EF90DF90CF900C94BB
:1009100042040F93CF93DF93C0E3D4E01B861A8683
:1009200060E4CE010E9415040F8106950695069598
:1009300001504E81415020E060E0CE010E945404FD
:10094000DF91CF910F9108952F923F924F925F9236
:100950006F927F928F929F92AF92BF92CF92DF92CF
:10096000EF92FF920F931F93CF93DF9300D000D0AD
:1009700000D0CDB7DEB7DC011E962D913C9121153C
:10098000310509F478C19E838D83F9013296649014
:1009900031964491E42EF12CB7E0EB0EF11C53E0BC
:1009A000F594E7945A95E1F7E9823196549131969E
:1009B000E491651748F08E2F90E0FC01E50FF11DE2
:1009C0006E171F060CF492C06D3031F5ED81FE817B
:1009D000868181111BC081E090E026960FB6F894C5
:1009E000DEBF0FBECDBFDF91CF911F910F91FF9062
:1009F000EF90DF90CF90BF90AF909F908F907F90BF
:100A00006F905F904F903F902F90089560E08D81A0
:100A10009E810E941D04DFCF6A3009F02CC1AD8198
:100A2000BE8116968C911697882321F060E0CD0147
:100A30000E941D04ED81FE8101890E9DE02C112490
:100A400065816E0D8485882349F02781269526953A
:100A500026958E2D821B860F18162CF08D819E8177
:100A60000E943304B8CFAD81BE811B969C911B9729
:100A7000890F87701B968C931B972E1915962C93B4
:100A800015971E96ED91FC91309771F13396E49194
:100A9000F0E0379633E0F595E7953A95E1F70E9F4C
:100AA000002D1124EFEFE20F0E0FED81FE81468144
:100AB00041506481CF010E945404AD81BE811C96D7
:100AC0008C911C97813009F086CF1B966C911B97F7
:100AD000660F660F660F6F731A966C931A976064B1
:100AE000CD010E94150477CF00E0DCCF89010A5FB9
:100AF0001F4F651BED81FE8171855189759F502DBA
:100B000011245C83F90154912F5F3F4FF901249127
:100B1000352F2230310508F070C06E9CC0016F9CEB
:100B2000900D1124689FF001699FF00D11240E0FA4
:100B30001F1F512CAD81BE811496BC91BA83ED81EB
:100B4000FE812580F585FB83862C912CAA24A39415
:100B5000B12C312C8981381608F08BC0412CAD8125
:100B6000BE8151968C915197481608F07BC0EB815D
:100B70001D96EC93311002C0442051F0AD81BE812E
:100B800015964C9115974F5F6A81CD010E944204E2
:100B9000D12CC12CC61408F058C0F801EC0DFD1D75
:100BA0007490552061F0EA14FB0449F4E72DF0E05D
:100BB000052C02C0F595E7950A94E2F77E2EED81AB
:100BC000FE818189823081F4442009F43AC0729414
:100BD0008FE07822E72DF0E0EF57FF4F7490672DFC
:100BE0008D819E810E94F803672D8D819E810E94D8
:100BF000F8038FEFC81AD80ACDCF477028E0522EDD
:100C0000541A411101C0512CF801612C30E020E050
:100C1000661631F04491240F311D63943196F8CF5C
:100C2000600E712E711CF3016490E29EF001E39E50
:100C3000F00DF29EF00D11248E0F9F1F080F191F4B
:100C400079CFF72DFF707F2EC5CFD12CAC81DA166E
:100C500039F060E08D819E810E94F803D394F6CF35
:100C600043947DCF3394080D191DBFEFAB1ABB0A17
:100C700071CF622DF3CE90E080E0AFCE85ED809312
:100C8000BC008091BC0084FDFCCF1092B502089599
:100C900020915402260F3327331F21323105ECF403
:100CA0002091B502FC0190E080E0243069F082E000
:100CB0000895A09154022191AC014C5C5D4FA40FAA
:100CC000B52FB11D2C930196861798F3809154028D
:100CD000680F6093540280E0089581E008950895BC
:100CE000E091850280918402E81730F4F0E0EC5E38
:100CF000FD4F808190E008958FEF9FEF08959091D0
:100D00008502809184022FEF3FEF981748F4E92F76
:100D1000F0E0EC5EFD4F208130E09F5F9093850214
:100D2000C90108958091840290918502891B990BD5
:100D30000895CF92DF92EF92FF920F931F93CF937C
:100D4000DF937C01CB018A012091B602222389F036
:100D5000EB016B01C40ED51ECC15DD0569F0699160
:100D6000D701ED91FC910190F081E02DC70109952B
:100D7000F3CF642F0E944806C801DF91CF911F91E5
:100D80000F91FF90EF90DF90CF900895CF93DF9376
:100D90001F92CDB7DEB769832091B6022223F9F006
:100DA0002091D902203258F021E030E0FC01338359
:100DB000228390E080E00F90DF91CF9108958091A1
:100DC000B702E82FF0E0E854FD4F998190838F5FE0
:100DD0008093B7028093D90281E090E0ECCF61E08C
:100DE000CE0101960E944806F7CF0F931F93CF9331
:100DF000DF93EC01062F142F8B89813120F4882397
:100E000029F0411103C00E94C0011B8A8B89811106
:100E100012C08A8991E09093B6028093D802109212
:100E2000B7021092D90260E4111101C060E08AEDAE
:100E300092E00E94C606602F8AED92E00E94C606EC
:100E4000123041F48B898F5F8B8BDF91CF911F9193
:100E50000F9108950E94C0011B8AF7CF089590E07A
:100E600080E008958F929F92AF92BF920F931F934D
:100E7000CF93DF93CDB7DEB7A1970FB6F894DEBF5F
:100E80000FBECDBF19A2423008F44AE08E010F5DBB
:100E90001F4F842E912CB12CA12CA50194010E94EE
:100EA0005614E62FB901CA01EA3044F5E05DD801D5
:100EB000EE938D01232B242B252B79F790E080E0F6
:100EC000109769F0FD0101900020E9F73197AF011B
:100ED0004A1B5B0BBD0180E394E00E941D02A196BA
:100EE0000FB6F894DEBF0FBECDBFDF91CF911F913B
:100EF0000F91BF90AF909F908F900895E95CD7CFEE
:100F0000CF92DF92EF92FF926C01990FEE08FF08EB
:100F10004AE0C701B601F7FE0DC06DE280E394E040
:100F20000E94A40466277727CB016C197D098E09DE
:100F30009F094AE0FF90EF90DF90CF900C9432072A
:100F4000FC01448155816081718180E394E00E94BD
:100F50001D02EAE2F4E0448155816081718180E301
:100F600094E00E941D0242E050E066E271E080E3FE
:100F700094E00C941D020F931F93CF93DF93EC0129
:100F800088819981009759F02A813B81261737077C
:100F900030F081E0DF91CF911F910F9108958B0187
:100FA0006F5F7F4F0E94A315009759F09983888344
:100FB0001B830A832C813D81232B59F7FC0110826E
:100FC000E8CF80E0E7CFEF92FF920F931F93CF938C
:100FD000DF936115710541F480E0DF91CF911F919E
:100FE0000F91FF90EF90089541155105B1F07B01ED
:100FF000EC010C811D81040F151FB8010E94BB0775
:10100000882351F3288139818C819D81B701820F1A
:10101000931F0E946E161D830C8381E0DECFCF9359
:10102000DF93EC0188819981009711F00E941A15D5
:10103000198218821D821C821B821A82DF91CF9135
:101040000895CF93DF93EC01FB0101900020E9F7B5
:101050003197AF01461B570B0E94E307811103C074
:10106000CE010E940F08CE01DF91CF910895CF935A
:10107000DF93EC01FB0144815581608171810E9405
:10108000E307811103C0CE010E940F08CE01DF915A
:10109000CF910895EF92FF920F931F93CF93DF9319
:1010A000EC017B018A01BA010E94BB0781110BC0D0
:1010B000CE010E940F08CE01DF91CF911F910F91B9
:1010C000FF90EF9008951D830C83B701888199816B
:1010D0000E946E16F0CFEF92FF920F931F93CF9363
:1010E000DF93CDB7DEB729970FB6F894DEBF0FBEFA
:1010F000CDBF8C01862FF8011182108213821282DB
:10110000158214824AE09E012F5F3F4F7901B90199
:1011100090E00E94C013F70101900020E9F7319799
:10112000AF014E195F09B701C8010E944A0829960C
:101130000FB6F894DEBF0FBECDBFDF91CF911F91E8
:101140000F91FF90EF900895CF93DF93EC01FB0197
:101150008617970749F0608171816115710541F02B
:10116000448155810E944A08CE01DF91CF910895B4
:101170000E940F08F9CFFC011182108213821282A3
:10118000158214820C94A408FC011182108213822F
:10119000128215821482FB0101900020E9F7319739
:1011A000AF01461B570B0C944A08FC0180819181CA
:1011B0000C941A155F926F927F928F929F92AF92CA
:1011C000BF92CF92DF92EF92FF920F931F93CF9334
:1011D000DF93CDB7DEB72C970FB6F894DEBF0FBE06
:1011E000CDBF4C015B013A01502E89EEE82E82E022
:1011F000F82EF701C2A0D3A0B901CE0101960E943A
:10120000BB08B301CE0107960E94BB0883E18C9D09
:1012100080018D9D100D1124C80187519D4F6C01D7
:10122000FC0195A284A2BE01695F7F4FC801815F66
:101230009C4F0E94A408F601B5A6A4A654AABE011C
:101240006F5F7F4FC801895E9C4F0E94A408CE014A
:1012500007960E94D508CE0101960E94D508F70195
:1012600082A193A1019693A382A32C960FB6F89422
:10127000DEBF0FBECDBFDF91CF911F910F91FF90C9
:10128000EF90DF90CF90BF90AF909F908F907F9026
:101290006F905F900895CF93DF9300D000D000D07F
:1012A000CDB7DEB769E271E0CE0101960E94C408B5
:1012B000CE0101960E94A007CE0101960E94D5089A
:1012C00026960FB6F894DEBF0FBECDBFDF91CF914B
:1012D0000895FF920F931F93CF93DF93CDB7DEB79F
:1012E0002C970FB6F894DEBF0FBECDBF8C010E94C5
:1012F000640390E0019623E1F22EF89EF001F99E3E
:10130000F00D1124E751FD4F84A9811131C082E015
:1013100080934104C8010E94800781E080934104CA
:101320000E946403182F6FE771E0CE0107960E94B8
:10133000C408812F90E00196F89EB001F99E700DCF
:101340001124695E7C4FCE0107960E943708BC01CC
:10135000CE0101960E94BB08CE0101960E94A00713
:10136000CE0101960E94D508CE0107960E94D508AD
:101370002C960FB6F894DEBF0FBECDBFDF91CF9194
:101380001F910F91FF900895CF93DF9300D000D06D
:1013900000D0CDB7DEB760E371E0CE0101960E94C8
:1013A000C408CE0101960E94A007CE0101960E94BA
:1013B000D5088DE491E00E94690926960FB6F8944D
:1013C000DEBF0FBECDBFDF91CF910895CF93DF93E6
:1013D000CDB7DEB762970FB6F894DEBF0FBECDBFB4
:1013E00060918A02CE0107960E946B086FE371E05C
:1013F000CE0101960E94C408BE01695F7F4FCE01F5
:1014000001960E943708BC01CE010D960E94BB08D0
:10141000CE010D960E94A007CE010D960E94D50820
:10142000CE0101960E94D508CE0107960E94D508EC
:1014300060918A0270E090E080E02AE0660F771FFA
:10144000881F991F2A95D1F72FEF30E040E050E038
:101450000E940014C9010E94690962960FB6F894AF
:10146000DEBF0FBECDBFDF91CF910895CF93DF9345
:10147000CDB7DEB762970FB6F894DEBF0FBECDBF13
:1014800060918902CE0107960E946B0866E471E0C4
:10149000CE0101960E94C408BE01695F7F4FCE0154
:1014A00001960E943708BC01CE010D960E94BB0830
:1014B000CE010D960E94A007CE010D960E94D50880
:1014C000CE0101960E94D508CE0107960E94D5084C
:1014D00062960FB6F894DEBF0FBECDBFDF91CF91FD
:1014E0000895FF920F931F93CF93DF93CDB7DEB78D
:1014F0002C970FB6F894DEBF0FBECDBF6DE471E040
:10150000CE0101960E94C408CE0101960E94A00758
:10151000CE0101960E94D5088091090390910A039B
:1015200033E1F32EF89EF001F99EF00D1124E751FE
:10153000FD4F84A9811142C06091860282E08093B0
:10154000410470E090E080E02AE0660F771F881F7A
:10155000991F2A95D1F72FEF30E040E050E00E942C
:101560000014C9010E94800781E0809341048091AA
:10157000090390910A03F89E8001F99E100D112431
:10158000095E1C4F6FE771E0CE0107960E94C40808
:10159000B801CE0107960E943708BC01CE01019622
:1015A0000E94BB08CE0101960E94A007CE010196C1
:1015B0000E94D508CE0107960E94D5082C960FB63A
:1015C000F894DEBF0FBECDBFDF91CF911F910F9179
:1015D000FF9008950C94EA131F93CF93DF93EC01CF
:1015E000162F0E94EA0A811749F0612FCE010E944E
:1015F000F21381E0DF91CF911F91089580E0FACF3F
:10160000EF92FF920F931F93CF93DF9300D000D000
:1016100000D0CDB7DEB70E94890463E571E0CE014A
:1016200001960E94C408CE0101960E94A007CE0137
:1016300001960E94D50889EEE82E82E0F82E01E09E
:1016400010E083E1E80EF11C80910B0390910C03F4
:101650000817190784F4D7019C96ED91FC918091AD
:101660000703909108036081800F911F0E94EC0A8C
:101670000F5F1F4FE6CF26960FB6F894DEBF0FBE62
:10168000CDBFDF91CF911F910F91FF90EF90089503
:101690000E9460161F920F920FB60F9211242F9383
:1016A0003F938F939F93AF93BF93809178029091D4
:1016B0007902A0917A02B0917B023091770223E007
:1016C000230F2D3758F50196A11DB11D20937702E8
:1016D0008093780290937902A0937A02B0937B0270
:1016E00080917C0290917D02A0917E02B0917F0258
:1016F0000196A11DB11D80937C0290937D02A09361
:101700007E02B0937F02BF91AF919F918F913F91E5
:101710002F910F900FBE0F901F90189526E8230F62
:101720000296A11DB11DD2CF1F920F920FB60F923C
:1017300011242F933F934F935F936F937F938F93D6
:101740009F93AF93BF93EF93FF938091B900887FEE
:10175000803609F44AC0F0F5883209F4A7C018F5BC
:10176000803109F49BC0B8F4882309F4F9C08830AB
:1017700009F494C0FF91EF91BF91AF919F918F9128
:101780007F916F915F914F913F912F910F900FBE7D
:101790000F901F901895883109F488C0803251F756
:1017A0008093B30214C0803409F49DC040F48033A8
:1017B000B9F38833F9F68093B30285ECB0C0803575
:1017C00009F485C0883509F496C0883499F60E94DA
:1017D0003E06D0CF883909F48CC038F5883729F017
:1017E00050F4883611F0803729F683E08093B502F3
:1017F0001092760257C0883809F47BC0803919F0FE
:10180000803809F0B7CF80917602803208F071C03D
:10181000E091760281E08E0F809376028091BB008A
:10182000F0E0EA5AFD4F80833DC0803B39F0E0F4A0
:10183000803A09F479C0883A09F09CCF84E080931B
:10184000B5021092550210925402E0918202F0917A
:10185000830209958091540281110FC081E0809329
:1018600054021092340209C0803C09F4A6CF883C8F
:1018700009F4A3CF883B09F07DCFE091550281E0C8
:101880008E0F80935502F0E0EC5CFD4F80818093D9
:10189000BB00909155028091540229C08091900222
:1018A0008093BB0085EC8093BC0064CF9091B20222
:1018B0008091B102981758F5E091B20281E08E0F45
:1018C0008093B202F0E0EF56FD4F8081E9CFE091C6
:1018D000B20281E08E0F8093B2028091BB00F0E0F3
:1018E000EF56FD4F80839091B2028091B10298171C
:1018F000C8F285E8D8CFE091B20281E08E0F8093E4
:10190000B2028091BB00F0E0EF56FD4F80838091E2
:10191000B40281115CCF81E080938F0284EA8093CE
:10192000BC001092B50226CF85EC8093BC001092CB
:10193000B50280917602803230F4E0917602F0E0D8
:10194000EA5AFD4F10826091760270E0E0918002C9
:10195000F091810286E592E00995109276020ACF15
:101960001092B30234CFCF93DF931092DD02109226
:10197000DC0288EE93E0A0E0B0E08093DE0290937A
:10198000DF02A093E002B093E1028AE091E090933D
:10199000DB028093DA021092330410923204109228
:1019A0003C0410923D0410923F0410923E041092A9
:1019B0004004C1E0C09341048CE191E09093310474
:1019C0008093300468E671E08AE294E00E94C408E3
:1019D0001092E9021092EA021092EB02C093EC021C
:1019E0001092ED021092EE021092EF021092F802A5
:1019F0001092F9021092FA02109203031092060359
:101A00008AE090E0909308038093070381E090E0E0
:101A100090930A038093090382E090E090930C0373
:101A200080930B03D0E0C0E068E271E0CE01815FFB
:101A30009C4F0E94C40868E271E0CE01895E9C4F11
:101A40000E94C4086396CD3181E0D80769F788EE1B
:101A500092E09093FC028093FB0287EE92E09093D9
:101A6000FE028093FD0286EE92E090930003809345
:101A7000FF02DF91CF910895CF93DF93CDB7DEB70B
:101A80006B970FB6F894DEBF0FBECDBF789484B5C8
:101A9000826084BD84B5816084BD85B5826085BD6A
:101AA00085B5816085BD80916E00816080936E00F8
:101AB00010928100809181008260809381008091EA
:101AC000810081608093810080918000816080939B
:101AD00080008091B10084608093B1008091B0005B
:101AE00081608093B00080917A00846080937A0056
:101AF00080917A00826080937A0080917A00816080
:101B000080937A0080917A00806880937A001092A6
:101B1000C10061E871E0CE0101967C010E94C40819
:101B200065E871E0CE0109960E94C40800E09701C3
:101B3000AE01475F5F4F6AE872E086EE99E00E946F
:101B4000DA08CE0109960E94D508C7010E94D5087F
:101B500061E871E0C7010E94C4086DE871E0CE0140
:101B600009960E94C40801E09701AE01475F5F4FEC
:101B700069E872E086E39AE00E94DA08CE010996ED
:101B80000E94D508C7010E94D50865E971E0C70128
:101B90000E94C4086BE971E0CE0109960E94C40856
:101BA0009701AE01475F5F4F68E872E084EC99E00F
:101BB0000E94DA08CE0109960E94D508C7010E944A
:101BC000D50865EA71E0C7010E94C40869EA71E0BE
:101BD000CE0109960E94C4089701AE01475F5F4F8E
:101BE00067E872E08BE499E00E94DA08CE0109967A
:101BF0000E94D508C7010E94D50861E871E0CE01B6
:101C00000F960E94C40862EB71E0CE0145960E94D7
:101C1000C408C0900903D0900A03BE01615F7F4FE2
:101C2000CE0109960E94BB08BE016B5E7F4FC701C3
:101C30000E94BB0883E18C9D80018D9D100D1124B5
:101C4000D801A751BD4F6D0181E79AE095969C930D
:101C50008E939497B701C801815F9C4F0E94A4089E
:101C600086E892E0F60195A784A714AABE01675FF3
:101C70007F4FC801895E9C4F0E94A408C7010E9443
:101C8000D508CE0109960E94D508CE0145960E943E
:101C9000D508CE010F960E94D5088AE492E0909371
:101CA00005038093040381E080930603109285026C
:101CB000109284021092B7021092D9021092B502CB
:101CC0008093B40210928F0282E10E94850283E128
:101CD0000E9485028091B9008E7F8093B900809127
:101CE000B9008D7F8093B90088E48093B80085E4C3
:101CF0008093BC008AE592E09093830280938202F5
:101D00008BE592E0909381028093800282E0809341
:101D1000B800109243048CE3809342041092340480
:101D200010923504E1E8F2E085919491C82EE3E841
:101D3000F2E0D490E4E8F2E0E491E0933604E5E8E0
:101D4000F2E0E491E0933704E6E8F2E0E491E09316
:101D500038048C01802F8C198D1548F4F80164919A
:101D600080E394E00E9415040F5F1F4FF3CF0E94A1
:101D70008904EBE9F0E0F0933F04E0933E048491A2
:101D8000ECE9F0E0E491F82F319709F045C01092AA
:101D9000390490E080E00E94EA0A8130E9F06EEBBD
:101DA00071E0C7010E94C408C7010E94A007C701D3
:101DB0000E94D50890E080E00E94EA0A813029F074
:101DC00061E090E080E00E94F213E0910403F09162
:101DD000050309950E94000B49EEC42E42E0D42E63
:101DE00001E010E0F3E1CF0ED11C80910B03909144
:101DF0000C0308171907A4F48091070390910803B6
:101E0000800F911F0E94EA13D6019C96ED91FC91E0
:101E100080830F5F1F4FE6CF81E080933904B9CFF5
:101E200085E00E94980186E00E94980184E00E946B
:101E300098012224239423E1422E5524539432E026
:101E4000332E86E00E94AB0221E0892B09F420E0CA
:101E50002093E60285E00E94AB0221E0892B09F481
:101E600020E02093E70284E00E94AB0221E0892B6E
:101E700009F420E02093E80280908B0290908C027D
:101E8000A0908D02B0908E02B0E68B0EBAEE9B1E33
:101E9000A11CB11C0E94580386169706A806B90615
:101EA00050F40E94580360938B0270938C028093CD
:101EB0008D0290938E0240E060E080E394E00E9407
:101EC0004204E091FF02F09100038081811105C07E
:101ED0008091FA0281111092FA028081811105C06D
:101EE0008091E902882309F4E8C35092E9028091C5
:101EF000EE02882321F0808181111092F902808105
:101F00008111CCC08091EA028111E2C0E091FF0210
:101F1000F09100038081811112C30E945803AB012C
:101F2000BC018091F0029091F102A091F202B09177
:101F3000F3028A519F4FAF4FBF4F84179507A607F3
:101F4000B70738F4E091FF02F0910003808181111E
:101F5000A3C30E945803AB01BC018091F002909191
:101F6000F102A091F202B091F302845D9F44AF4F61
:101F7000BF4F84179507A607B70708F48DC3509283
:101F8000EB025092E9028091EB02882309F467C1C9
:101F90008091F902811104C05092F9020E948904D3
:101FA0006CE072E0C7010E94C408C7010E94A0074C
:101FB000C7010E94D5088091090390910A03489EA9
:101FC000B001499E700D1124615F7C4FC7010E94D2
:101FD000BB08C7010E94A007C7010E94D5088091D5
:101FE000090390910A03489EF001499EF00D1124C7
:101FF000E751FD4F04A0F5A1E02D0995809109035B
:1020000090910A03489EF001499EF00D1124E7517A
:10201000FD4F84A9882391F13092410404A4F5A5D1
:10202000E02D608170E090E080E04AE00E9432079D
:10203000509241048091090390910A03489E8001C7
:10204000499E100D1124095E1C4F6FE771E0C70116
:102050000E94C408B801C7010E943708BC01CE0124
:1020600009960E94BB08CE0109960E94A007CE01E6
:1020700009960E94D508C7010E94D50880910903DE
:1020800090910A03489EF001499EF00D1124E751FA
:10209000FD4F84A595A50E942C03E1C00E94580322
:1020A000AB01BC018091F0029091F102A091F2028B
:1020B000B091F30288579C4EAF4FBF4F84179507DE
:1020C000A607B70708F01ECF8091EB0281111ACF47
:1020D0008091F902811104C05092F9020E94890492
:1020E0000E945803AB01BC018091F0029091F10273
:1020F000A091F202B091F3028A56964EAF4FBF4FB5
:1021000084179507A607B70708F4B6C05092EA02ED
:102110005092E902E091FF02F09100038081811169
:1021200005C08091EA02882309F40DC240E060E016
:1021300080E394E00E944204509241040E946403B0
:1021400020910B0330910C038217130654F50E9463
:102150006403682FCE0109960E946B086AEC71E057
:10216000C7010E94C408BE01675F7F4FC7010E947C
:1021700037086EE072E00E942108BC01CE010F9684
:102180000E94BB08CE010F960E94A007CE010F96B9
:102190000E94D508C7010E94D508CE0109960E9469
:1021A000D5088091EE02882309F4E6C01092EF0270
:1021B000809106038111F8C00E94640390E00196AB
:1021C000489EB001499E700D1124615F7C4FC7018C
:1021D0000E94BB08C7010E94A007C7010E94D50842
:1021E0008091EE0281113CC10E94640320910B0397
:1021F00030910C038217130684F140E060E080E325
:1022000094E00E9442043092410468E271E0C70108
:102210000E94C408C7010E94A007C7010E94D508F8
:1022200063E072E0C7010E94C408C7010E94A007D2
:10223000C7010E94D5088091EE02882371F01092A8
:10224000EA021092EB021092F9020E94890440E027
:1022500060E080E394E00E94420450924104809147
:10226000EA02882309F46FC1A0E0B0E0AB2B09F4C7
:10227000E8CD0E940000E5CDE091FF02F09100035F
:102280008081882309F442CF8091EE02882309F4EB
:102290004CC00E94640390E00196489EF001499E64
:1022A000F00D1124E751FD4F04A4F5A5E02D209178
:1022B0000703309108036081820F931F0E94EC0A8C
:1022C000509241040E94640320910B0330910C034F
:1022D0008217130654F50E946403682FCE010996F5
:1022E0000E946B086AEC71E0C7010E94C408BE013D
:1022F000675F7F4FC7010E9437086EE072E00E945F
:102300002108BC01CE010F960E94BB08CE010F969A
:102310000E94A007CE010F960E94D508C7010E9417
:10232000D508CE0109960E94D5088091FA02811144
:1023300007C08091EE0282258093EE025092FA024D
:102340000E94640320910B0330910C038217130643
:1023500061F41092E9021092EA025092EC0210929B
:10236000EE021092F9025092410462E870E080E0BF
:1023700090E00E94F902CECE0E94640320910B03EC
:1023800030910C03821713060CF010CF5092EF021D
:102390006DEC71E0C7010E94C408C7010E94A0074C
:1023A000C7010E94D50804CF0E94640320910B034B
:1023B00030910C03215031098217130609F0FCCE2D
:1023C00068ED71E0C7010E94C408C7010E94A00720
:1023D000C7010E94D50868E271E0C7010E94C408E5
:1023E000C7010E94A007C7010E94D5088091EE0294
:1023F000882309F4F9CE6BEE71E0C7010E94C4088E
:10240000C7010E94A007C7010E94D508E091FB0206
:10241000F091FC028081882309F4E6CE30924104D9
:102420006DEF71E0C7010E94C408C7010E94A007B8
:10243000C7010E94D50850924104E0910403F09135
:102440000503099560ED77E080E090E00E94F902D5
:102450008091EE0282258093EE020E948904C4CE10
:102460008091FA028111C0CE0E94640390E001962F
:10247000489EF001499EF00D1124E751FD4F04A044
:10248000F5A1E02D0995309241040E94640390E08B
:102490000196489EF001499EF00D1124E751FD4F31
:1024A00084A98823E1F10E94640390E00196489E8C
:1024B000F001499EF00D1124E751FD4F04A4F5A54C
:1024C000E02D608170E090E080E04AE00E943207F9
:1024D000509241040E946403182F6FE771E0C70116
:1024E0000E94C408812F90E00196489EB001499E49
:1024F000700D1124695E7C4FC7010E943708BC0132
:10250000CE0109960E94BB08CE0109960E94A00741
:10251000CE0109960E94D508C7010E94D5080E94E5
:10252000640390E00196489EF001499EF00D11244D
:10253000E751FD4F84A595A50E942C0355CE8091AF
:10254000EB028111EACC8091EB0281118DCE02E287
:1025500013E0AA24A394B12C80910B0390910C0357
:10256000A816B9060CF0BDC03801E8E06E0E711C6B
:10257000D8011696ED91FC916081CE0145960E949E
:102580006B08F8018684912C68E271E0CE0109960F
:102590000E94C408D8011496CD90DC90C114D104D7
:1025A00051F1B8E0CB16D10418F088E0C82ED12C38
:1025B000D801ED91FC91EC0DFD1DB081BB8F108217
:1025C000F801608171816115710509F485C0FB0115
:1025D00001900020E9F73197AF01461B570BCE0160
:1025E00009960E944A08D8018D919C91C80ED91E67
:1025F0008B8DF6018083BE01675F7F4FCE010F9602
:102600000E94BB0860E172E0CE010F960E94210893
:102610006C014AE0B701C4010E94B513F7010190B3
:102620000020E9F73197AF014E195F09B701C601E4
:102630000E94E307811103C0C6010E940F0862E1F6
:1026400072E0C6010E942108BE016B5E7F4F0E94AE
:1026500037086FE771E00E942108B3010E94370834
:10266000BC01C7010E94BB08C7010E94A007C701A7
:102670000E94D508CE010F960E94D508CE0109967A
:102680000E94D508CE0145960E94D5089FEFA91A51
:10269000B90A0D5E1F4F60CF1092EB021092E90253
:1026A0001092F9020E94000B0E94890464E670E017
:1026B00080E090E00E94F90266CC0E94580360938B
:1026C000F0027093F1028093F2029093F302109261
:1026D000EB021092EA02C3CDCE0109960E940F08C8
:1026E00082CF68E271E0C7010E94C408C7010E945E
:1026F000A007C7010E94D50868E271E0C7010E94E7
:10270000C408C7010E94A007C7010E94D50868E25B
:1027100071E0C7010E94C408C7010E94A007C70159
:102720000E94D50868E271E0C7010E94C408C70191
:102730000E94A007C7010E94D50896CDCF93DF93D2
:10274000CAE2D4E06397CE010A960E94D508CE0172
:1027500002960E94D50883E0CD30D80799F78AE227
:1027600094E0DF91CF910C94D508BB274A3031F427
:10277000992322F4BDE2909581959F4F0C94C1134B
:10278000BB27FB015527AA27880F991FAA1FA4174B
:1027900010F0A41B83955051B9F7A05DAA3308F03F
:1027A000A95DA193009779F7B111B1931192CB0173
:1027B0000C94DA13DC01FC01672F71917723E1F7A8
:1027C000329704C07C916D9370836291AE17BF07FE
:1027D000C8F30895F999FECF92BD81BDF89A992763
:1027E00080B50895262FF999FECF1FBA92BD81BDFD
:1027F00020BD0FB6F894FA9AF99A0FBE0196089583
:10280000052E97FB1EF400940E94171457FD07D065
:102810000E94561407FC03D04EF40C9417145095E4
:102820004095309521953F4F4F4F5F4F08959095BC
:102830008095709561957F4F8F4F9F4F08952F9290
:102840003F924F925F926F927F928F929F92AF9240
:10285000BF92CF92DF92EF92FF920F931F93CF938D
:10286000DF93CDB7DEB7CA1BDB0B0FB6F894DEBF24
:102870000FBECDBF09942A88398848885F846E844A
:102880007D848C849B84AA84B984C884DF80EE8094
:10289000FD800C811B81AA81B981CE0FD11D0FB69D
:1028A000F894DEBF0FBECDBFED010895A1E21A2E50
:1028B000AA1BBB1BFD010DC0AA1FBB1FEE1FFF1FE4
:1028C000A217B307E407F50720F0A21BB30BE40B34
:1028D000F50B661F771F881F991F1A9469F760957B
:1028E0007095809590959B01AC01BD01CF01089535
:1028F000EE0FFF1F0590F491E02D09940F931F93A5
:10290000CF93DF938230910510F482E090E0E09164
:102910004604F091470430E020E0B0E0A0E03097BA
:1029200099F42115310509F44AC0281B390B2430CC
:102930003105D8F58A819B816115710589F1FB010B
:1029400093838283FE0111C04081518102811381F2
:1029500048175907E0F04817590799F4109761F0A4
:1029600012960C93129713961C933296CF01DF9117
:10297000CF911F910F91089500934604109347043F
:10298000F4CF2115310551F04217530738F0A90152
:10299000DB019A01BD01DF01F801C1CFEF01F9CFE1
:1029A0009093470480934604CDCFFE01E20FF31FBE
:1029B000819391932250310939832883D7CF209175
:1029C000440430914504232B41F4209102013091BD
:1029D0000301309345042093440420910001309179
:1029E00001012115310541F42DB73EB74091040195
:1029F00050910501241B350BE0914404F0914504EE
:102A0000E217F307A0F42E1B3F0B2817390778F0C5
:102A1000AC014E5F5F4F2417350748F04E0F5F1F24
:102A20005093450440934404819391939FCFF0E0E9
:102A3000E0E09CCFCF93DF930097E9F0FC01329761
:102A400013821282A0914604B0914704ED0130E058
:102A500020E01097A1F420813181820F931F2091F3
:102A60004404309145042817390709F061C0F093F8
:102A70004504E0934404DF91CF910895EA01CE1715
:102A8000DF07E8F54A815B819E0141155105B1F7E9
:102A9000E901FB83EA8349915991C40FD51FEC17D3
:102AA000FD0761F4808191810296840F951FE901F1
:102AB00099838883828193819B838A83F0E0E0E01D
:102AC00012968D919C9113970097B9F52D913C9199
:102AD0001197CD010296820F931F209144043091EB
:102AE00045042817390739F6309751F510924704F5
:102AF00010924604B0934504A0934404BCCFD38302
:102B0000C28340815181840F951FC817D90761F492
:102B10004E5F5F4F88819981480F591F51834083D1
:102B20008A819B81938382832115310509F0B0CF7F
:102B3000F0934704E09346049ECFFD01DC01C0CF33
:102B400013821282D7CFB0E0A0E0E9EAF5E10C945D
:102B500021148C01009751F4CB010E947E148C014A
:102B6000C801CDB7DEB7E0E10C943D14FC01E60FDF
:102B7000F71F9C0122503109E217F30708F49DC0AA
:102B8000D901CD91DC911197C617D70798F0C530C0
:102B9000D10530F3CE0104978617970708F3C61BBB
:102BA000D70B2297C193D1936D937C93CF010E9451
:102BB0001A15D6CF5B01AC1ABD0A4C018C0E9D1EB6
:102BC000A0914604B0914704512C412CF12CE12CEA
:102BD000109731F58091440490914504881599052A
:102BE00009F05CC04616570608F058C080910001F5
:102BF00090910101009741F48DB79EB74091040177
:102C000050910501841B950BE817F90708F055C092
:102C1000F0934504E0934404F90171836083A0CFED
:102C20008D919C91119712966C90129713967C90AF
:102C30001397A815B90559F56C0142E0C40ED11CD3
:102C4000CA14DB0420F1AC014A195B09DA011296BF
:102C5000159780F06282738251834083D9016D930E
:102C60007C93E114F10471F0D7011396FC93EE9379
:102C7000129776CF22968C0F9D1FF9019183808346
:102C8000F301EFCFF0934704E093460469CF481671
:102C9000590608F42C017D01D3019ACFCB010E9483
:102CA0007E147C01009749F0AE01B8010E946516C0
:102CB000C8010E941A15870153CF10E000E050CFE1
:102CC00081E090E0F8940C947516FB01DC0102C0E1
:102CD00001900D9241505040D8F70895FB01DC015E
:102CE00001900D920020E1F7089511E0CDE6D1E0CA
:102CF00004C0FE010E9478142196CE36D107C9F790
:042D0000F894FFCF75
:102D040000004804800000000000C60699062F0752
:102D14006F0692067F06700600000000A4041D02E0
:102D24002F072E07F5060D0A0066756E6334200022
:102D340066756E63332069676E6F72652120006665
:102D4400756E6331200066756E63322000666976A5
:102D54006520004D756C7479706C6520706F696EB8
:102D640074206465627567002020202020202020C4
:102D7400202020202020202020202020202020204F
:102D840000707369007661725F6F6E6500766172C0
:102D94005F74776F006C2F6D696E007661725F747B
:102DA400687265650076616C007661725F666F7546
:102DB40072005175696320416363657373004D4507
:102DC4004D4F52592053455421005B500020202080
:102DD4002020204D454E55003C5265736574207487
:102DE4006F2064656661756C743E00507265737320
:102DF40020757020746F2072657365740020446FB1
:102E04006E650020205B455849545D005B2D5D00D4
:042E14002C003A0054
:00000001FF
