:100000000C946E010C9496010C9496010C9496013C
:100010000C9496010C9496010C9496010C94960104
:100020000C9496010C9496010C9496010C949601F4
:100030000C9496010C9496010C9496010C949601E4
:100040000C94590B0C9496010C9496010C94960107
:100050000C9496010C9496010C9496010C949601C4
:100060000C94A30B0C949601AED580A83FD300400E
:100070008D142002A1C8DA12817FD9F1DB40A4A639
:10008000AF00030C0F30333C3FC0C3CCCFF0F3FCC8
:10009000FF000000002300260029000000050720C3
:1000A00060000000000000005F0000000700070083
:1000B000147F147F14242A7F2A12231308646236C3
:1000C000495620500008070300001C22410000414F
:1000D000221C002A1C7F1C2A08083E080800807089
:1000E00030000808080808000060600020100804BC
:1000F000023E5149453E00427F400072494949460F
:100100002141494D331814127F1027454545393C8C
:100110004A49493141211109073649494936464979
:1001200049291E000014000000403400000008149B
:100130002241141414141400412214080201590914
:10014000063E415D594E7C1211127C7F4949493669
:100150003E414141227F4141413E7F494949417FE2
:10016000090909013E414151737F0808087F004198
:100170007F41002040413F017F081422417F4040E1
:1001800040407F021C027F7F0408107F3E414141B6
:100190003E7F090909063E4151215E7F0919294622
:1001A000264949493203017F01033F4040403F1F38
:1001B0002040201F3F4038403F631408146303046D
:1001C0007804036159494D43007F414141020408CD
:1001D0001020004141417F040201020440404040A0
:1001E00040000307080020545478407F28444438D6
:1001F0003844444428384444287F38545454180020
:10020000087E090218A4A49C787F0804047800449E
:100210007D40002040403D007F1028440000417F89
:1002200040007C047804787C080404783844444412
:1002300038FC1824241818242418FC7C080404080A
:10024000485454542404043F44243C4040207C1C23
:100250002040201C3C4030403C44281028444C9016
:1002600090907C4464544C44000836410000007770
:100270000000004136080002010204023C26232649
:100280003C68001980400000000000240027002A7C
:100290000000000000250028002B000404040404D2
:1002A0000404040202020202020303030303030123
:1002B00002040810204080010204081020010204FA
:1002C00008102000000008000201000003040700DD
:1002D0000000000000000000C20C381411241FBEF2
:1002E000CFEFD8E0DEBFCDBF12E0A0E0B1E0ECE799
:1002F000FEE202C005900D92AE31B107D9F724E0BD
:10030000AEE1B2E001C01D92A835B207E1F711E0FD
:10031000CDE6D1E004C02197FE010E943415CC3611
:10032000D107C9F70E944D0D0C9431170C940000B1
:10033000CF93DF9390E0FC01E155FD4F249185566A
:100340009D4FFC0184918823C1F090E0880F991F94
:10035000FC01E957FD4FC591D491FC01EF56FD4FCB
:10036000A591B4919FB7F8948881E22FE0958E23F0
:1003700088838C91E823EC939FBFDF91CF91089500
:100380002091E80281E0213208F044C08091C4024B
:100390008111FCCF8091E70292E09093C40291E03A
:1003A0009093C3029FEF9093C2021092C1022093D8
:1003B000C002A7ECB2E0E0EAF2E090E0291331C01D
:1003C00010929F0290919F02880F892B80939F0229
:1003D00080919E02813049F510929E0280919F0289
:1003E0008093BB008091BC0083FDF8CF85EC8093A7
:1003F000BC008091C4028230E1F38091C2028F3F41
:10040000B1F08091C2028032A1F08091C2028033AB
:1004100091F084E01092C6021092E8021092C50298
:1004200008953D9131939F5FC9CF85EEE0CF80E085
:10043000F1CF82E0EFCF83E0EDCFAF92BF92CF92CA
:10044000DF92EF92FF920F931F93CF93DF936C0194
:100450007B018B01040F151FEB015E01AE18BF0875
:10046000C017D10759F06991D601ED91FC91019027
:10047000F081E02DC6010995892B79F7C501DF913F
:10048000CF911F910F91FF90EF90DF90CF90BF9091
:10049000AF900895FC01448155816081718180E4B1
:1004A00094E00C941D02CF93DF938AE394E00E94C2
:1004B0004A02EC0142E050E066E271E080E494E040
:1004C0000E941D028C0F9D1FDF91CF9108958AE03D
:1004D0008093940286E18093930281E2809392025A
:1004E0008CE28093910287E38093900208950895AF
:1004F0000895833081F028F4813099F08230A9F09A
:1005000008958730A9F08830C9F08430B1F4809123
:1005100080008F7D03C0809180008F778093800062
:10052000089584B58F7784BD089584B58F7DFBCF02
:100530008091B0008F778093B00008958091B000D3
:100540008F7DF9CFCF93DF93282F30E0F901ED5362
:10055000FD4F8491F901E155FD4FD491F901E55624
:10056000FD4FC491CC2389F081110E947902EC2FB8
:10057000F0E0EE0FFF1FEF56FD4FA591B4918FB73E
:10058000F894EC91DE2BDC938FBFDF91CF9108952F
:10059000CF93DF93282F30E0F901ED53FD4F849185
:1005A000F901E155FD4FD491F901E556FD4FC49194
:1005B000CC23A1F081110E947902EC2FF0E0EE0F24
:1005C000FF1FEF56FF4FA591B491EC91ED2381E011
:1005D00090E009F480E0DF91CF91089580E090E011
:1005E000FACF3FB7F8948091860290918702A0914C
:1005F0008802B091890226B5A89B05C02F3F19F04B
:100600000196A11DB11D3FBFBA2FA92F982F882792
:10061000BC01CD01620F711D811D911D42E0660F6D
:10062000771F881F991F4A95D1F708958F929F923F
:10063000AF92BF92CF92DF92EF92FF926B017C015B
:100640000E94F1024B015C01C114D104E104F104E8
:10065000B9F00E94F102681979098A099B09683E7C
:1006600073408105910580F321E0C21AD108E108A9
:10067000F10888EE880E83E0981EA11CB11CE4CF1F
:10068000FF90EF90DF90CF90BF90AF909F908F90B2
:100690000895CF93DF93EC01E0910B03F0910C03ED
:1006A0008081882359F088818F3F41F08F5F888354
:1006B0006AE070E080E090E00E941603E0910D0394
:1006C000F0910E038081882369F08881882351F09E
:1006D000815088836AE070E080E090E0DF91CF9104
:1006E0000C941603DF91CF9108952FB7F894609181
:1006F00082027091830280918402909185022FBFC3
:100700000895E0910B03F0910C0380818823F1F0B0
:100710008091FB0220911B0330911C03821713066A
:10072000ACF49091FC02992389F09091FD02911113
:100730000DC08F5F8093FB020E94750360930303DB
:10074000709304038093050390930603E0910D03D7
:10075000F0910E0380818823C9F08091FB028230E2
:10076000A8F09091FC02992389F09091FD029111DB
:100770000DC081508093FB020E94750360930303B8
:10078000709304038093050390930603E0910F0395
:10079000F09110038081882371F08091FD02811116
:1007A0000AC00E947503609303037093040380934F
:1007B0000503909306030E947503AB01BC01809171
:1007C000030390910403A0910503B091060388559B
:1007D0009E49AF4FBF4F84179507A607B70768F428
:1007E0008091FD02811109C01092F8021092F90265
:1007F00081E08093FB0210920903E0910B03F091DA
:100800000C038081811107C0E0910D03F0910E036C
:100810008081882329F01092FC028091FB020895C8
:1008200081E08093FC02F9CFCF93DF93EC018D85BB
:10083000882329F081508D87DF91CF9108959C8185
:100840008E819817C8F788896827E881F981008424
:10085000F185E02D42E0CE0109958C818F5F8C837C
:10086000EBCFDC01ED91FC910084F185E02D40E0BF
:1008700009940F931F93CF938C01FC016483C0856F
:10088000C60F6C2F6F700E9431046C2F62956F70D1
:100890006061C801CF911F910F910C943104FC014C
:1008A0002781269526952695621738F4658323853A
:1008B000620F6770606B0C94310408951F93CF939F
:1008C000DF93EC01142F8E81681718F4CE010E947B
:1008D0003904612FCE01DF91CF911F910C944F0409
:1008E000CF92DF92EF92FF920F931F93CF93DF93FC
:1008F000EC01F62EC42ED22E1D868F81869586950C
:100900008695081710F00FEF080F1D2D011780F0C6
:10091000412F6F2DCE010E945E04EF2CCE1430F0DB
:100920006889CE010E941404E394F8CF1F5FEECFD4
:100930004D2D6F2DCE01DF91CF911F910F91FF9023
:10094000EF90DF90CF900C945E040F93CF93DF93E2
:10095000C0E4D4E01B861A8660E4CE010E94310414
:100960000F8106950695069501504E81415020E075
:1009700060E0CE010E947004DF91CF910F91089545
:100980002F923F924F925F926F927F928F929F929F
:10099000AF92BF92CF92DF92EF92FF920F931F938D
:1009A000CF93DF9300D000D000D0CDB7DEB7DC010D
:1009B0001E962D913C912115310509F478C19E8335
:1009C0008D83F9013296649031964491E42EF12C96
:1009D000B7E0EB0EF11C53E0F594E7945A95E1F77C
:1009E000E982319654913196E491651748F08E2F43
:1009F00090E0FC01E50FF11D6E171F060CF492C08C
:100A00006D3031F5ED81FE81868181111BC081E061
:100A100090E026960FB6F894DEBF0FBECDBFDF91F3
:100A2000CF911F910F91FF90EF90DF90CF90BF90EB
:100A3000AF909F908F907F906F905F904F903F907E
:100A40002F90089560E08D819E810E943904DFCF50
:100A50006A3009F02CC1AD81BE8116968C91169733
:100A6000882321F060E0CD010E943904ED81FE81F0
:100A700001890E9DE02C112465816E0D84858823EB
:100A800049F027812695269526958E2D821B860F67
:100A900018162CF08D819E810E944F04B8CFAD8135
:100AA000BE811B969C911B97890F87701B968C9318
:100AB0001B972E1915962C9315971E96ED91FC9168
:100AC000309771F13396E491F0E0379633E0F59585
:100AD000E7953A95E1F70E9F002D1124EFEFE20F15
:100AE0000E0FED81FE81468141506481CF010E944D
:100AF0007004AD81BE811C968C911C97813009F0E9
:100B000086CF1B966C911B97660F660F660F6F73EF
:100B10001A966C931A976064CD010E94310477CFC6
:100B200000E0DCCF89010A5F1F4F651BED81FE816C
:100B300071855189759F502D11245C83F901549161
:100B40002F5F3F4FF9012491352F2230310508F0F6
:100B500070C06E9CC0016F9C900D1124689FF001C5
:100B6000699FF00D11240E0F1F1F512CAD81BE8106
:100B70001496BC91BA83ED81FE812580F585FB83B7
:100B8000862C912CAA24A394B12C312C898138165F
:100B900008F08BC0412CAD81BE8151968C9151974C
:100BA000481608F07BC0EB811D96EC93311002C013
:100BB000442051F0AD81BE8115964C9115974F5F41
:100BC0006A81CD010E945E04D12CC12CC61408F0AC
:100BD00058C0F801EC0DFD1D7490552061F0EA1429
:100BE000FB0449F4E72DF0E0052C02C0F595E795EC
:100BF0000A94E2F77E2EED81FE818189823081F4B4
:100C0000442009F43AC072948FE07822E72DF0E096
:100C1000EF57FF4F7490672D8D819E810E941404C1
:100C2000672D8D819E810E9414048FEFC81AD80A07
:100C3000CDCF477028E0522E541A411101C0512CDB
:100C4000F801612C30E020E0661631F04491240F69
:100C5000311D63943196F8CF600E712E711CF30133
:100C60006490E29EF001E39EF00DF29EF00D1124DF
:100C70008E0F9F1F080F191F79CFF72DFF707F2E42
:100C8000C5CFD12CAC81DA1639F060E08D819E8120
:100C90000E941404D394F6CF43947DCF3394080D6F
:100CA000191DBFEFAB1ABB0A71CF622DF3CE90E0D6
:100CB00080E0AFCE85ED8093BC008091BC0084FDC8
:100CC000FCCF1092C402089520915E02260F3327B4
:100CD000331F21323105ECF42091C402FC0190E075
:100CE00080E0243069F082E00895A0915E022191B5
:100CF000AC01425C5D4FA40FB52FB11D2C93019642
:100D0000861798F380915E02680F60935E0280E020
:100D1000089581E008950895E0918F0280918E02F8
:100D2000E81730F4F0E0E25EFD4F808190E0089536
:100D30008FEF9FEF089590918F0280918E022FEF99
:100D40003FEF981748F4E92FF0E0E25EFD4F208175
:100D500030E09F5F90938F02C901089580918E02C9
:100D600090918F02891B990B0895CF92DF92EF9299
:100D7000FF920F931F93CF93DF937C01CB018A01E6
:100D80002091C502222389F0EB016B01C40ED51E10
:100D9000CC15DD0569F06991D701ED91FC910190C9
:100DA000F081E02DC7010995F3CF642F0E946406FE
:100DB000C801DF91CF911F910F91FF90EF90DF90CD
:100DC000CF900895CF93DF931F92CDB7DEB769839D
:100DD0002091C5022223F9F02091E802203258F038
:100DE00021E030E0FC013383228390E080E00F902B
:100DF000DF91CF9108958091C602E82FF0E0E9538A
:100E0000FD4F998190838F5F8093C6028093E802A3
:100E100081E090E0ECCF61E0CE0101960E94640693
:100E2000F7CF0E944A020C9453020E944A020C948B
:100E300053020F931F93CF93DF93EC01062F142FD0
:100E40008B89813120F4882329F0411103C00E944D
:100E5000C0011B8A8B89811112C08A8991E090930D
:100E6000C5028093E7021092C6021092E80260E485
:100E7000111101C060E089EE92E00E94E206602F4D
:100E800089EE92E00E94E206123041F48B898F5F76
:100E90008B8BDF91CF911F910F9108950E94C0011C
:100EA0001B8AF7CF089590E080E008950F931F9379
:100EB000CF93DF93EC0188819981009759F02A81C3
:100EC0003B812617370730F081E0DF91CF911F91EA
:100ED0000F9108958B016F5F7F4F0E945F160097FF
:100EE00059F0998388831B830A832C813D81232BAE
:100EF00059F7FC011082E8CF80E0E7CFEF92FF9234
:100F00000F931F93CF93DF936115710541F480E038
:100F1000DF91CF911F910F91FF90EF9008954115B0
:100F20005105B1F07B01EC010C811D81040F151FEF
:100F3000B8010E945607882351F3288139818C819A
:100F40009D81B701820F931F0E942A171D830C8376
:100F500081E0DECFCF93DF93EC0188819981009708
:100F600011F00E94D615198218821D821C821B82E4
:100F70001A82DF91CF910895CF93DF93EC01FB01AB
:100F800001900020E9F73197AF01461B570B0E94F3
:100F90007E07811103C0CE010E94AA07CE01DF9116
:100FA000CF910895CF93DF93EC01FB0144815581EC
:100FB000608171810E947E07811103C0CE010E9471
:100FC000AA07CE01DF91CF910895EF92FF920F9380
:100FD0001F93CF93DF93EC017B018A01BA010E943A
:100FE000560781110BC0CE010E94AA07CE01DF91E6
:100FF000CF911F910F91FF90EF9008951D830C8367
:10100000B701888199810E942A17F0CFFB010190D6
:101010000020E9F73197AF01461B570B0C94E50709
:101020000F931F93CF93DF93CDB7DEB729970FB6FA
:10103000F894DEBF0FBECDBF8C01862FF801118260
:10104000108213821282158214824AE0BE016F5F01
:101050007F4F90E00E947C14BE016F5F7F4FC801FC
:101060000E94060829960FB6F894DEBF0FBECDBFCA
:10107000DF91CF911F910F9108950F931F93CF93FD
:10108000DF93CDB7DEB762970FB6F894DEBF0FBE21
:10109000CDBF8C01CB01F801118210821382128224
:1010A000158214824AE0BE016F5F7F4F0E944F1489
:1010B000BE016F5F7F4FC8010E94060862960FB69F
:1010C000F894DEBF0FBECDBFDF91CF911F910F917E
:1010D0000895CF93DF93EC01FB018617970749F042
:1010E000608171816115710541F0448155810E94D3
:1010F000E507CE01DF91CF9108950E94AA07F9CFAD
:10110000FC011182108213821282158214820C94C7
:101110006908FC01118210821382128215821482E6
:10112000FB0101900020E9F73197AF01461B570BF7
:101130000C94E507FC01808191810C94D6155F9297
:101140006F927F928F929F92AF92BF92CF92DF92D7
:10115000EF92FF920F931F93CF93DF93CDB7DEB73C
:101160002C970FB6F894DEBF0FBECDBF4C015B01CC
:101170003A01502E88EFE82E82E0F82EF701C3A046
:10118000D4A0B901CE0101960E948008B301CE011E
:1011900007960E94800883E18C9D80018D9D100D33
:1011A0001124C80188509D4F6C01FC0196A285A2B4
:1011B000BE01695F7F4FC801815E9C4F0E94690834
:1011C000F601B6A6A5A655AABE016F5F7F4FC8015E
:1011D000895D9C4F0E946908CE0107960E949A087B
:1011E000CE0101960E949A08F70183A194A101966D
:1011F00094A383A32C960FB6F894DEBF0FBECDBF89
:10120000DF91CF911F910F91FF90EF90DF90CF90E2
:10121000BF90AF909F908F907F906F905F90089558
:10122000CF93DF9300D000D000D0CDB7DEB769E216
:1012300071E0CE0101960E948908CE0101960E94BC
:101240001507CE0101960E949A0826960FB6F894CB
:10125000DEBF0FBECDBFDF91CF910895CF93DF9357
:1012600000D000D000D0CDB7DEB720919902222364
:1012700089F0BC01CE0101960E948008809108038C
:10128000811104C0CE0101960E944A02CE0101964E
:101290000E949A0826960FB6F894DEBF0FBECDBF07
:1012A000DF91CF9108950F931F93CF93DF93CDB725
:1012B000DEB762970FB6F894DEBF0FBECDBF00E475
:1012C00014E022E0F801218BBC01CE0101960E94BE
:1012D0003D08BE016F5F7F4FCE0107960E948008D8
:1012E0006BE671E0CE0107960E94BC07BC01CE01FF
:1012F0000D960E948008CE010D960E944A02CE01F2
:101300000D960E949A08CE0107960E949A08CE0177
:1013100001960E949A0881E0F801818B8091FB027E
:1013200090E0019623E1289FB001299F700D1124C0
:10133000695D7C4FCE0101960E948008CE01019626
:101340000E941507CE0101960E949A0862960FB678
:10135000F894DEBF0FBECDBFDF91CF911F910F91EB
:101360000895CF93DF9300D000D000D0CDB7DEB783
:1013700060E371E0CE0101960E948908CE010196DA
:101380000E941507CE0101960E949A088091FB02E7
:1013900090E0019623E1289FF001299FF00D112490
:1013A000E850FD4F85A9811104C08DE491E00E94B1
:1013B000530926960FB6F894DEBF0FBECDBFDF915E
:1013C000CF910895CF93DF93CDB7DEB762970FB675
:1013D000F894DEBF0FBECDBF60919402CE01079698
:1013E0000E9410086FE371E0CE0101960E94890807
:1013F000BE01695F7F4FCE0101960E94D207BC01FA
:10140000CE010D960E948008CE010D960E94150710
:10141000CE010D960E949A08CE0101960E949A086C
:10142000CE0107960E949A088091FB0290E00196F7
:1014300023E1289FF001299FF00D1124E850FD4F72
:1014400085A9811115C06091940270E090E080E060
:101450002AE0660F771F881F991F2A95D1F72FEF73
:1014600030E040E050E00E94BC14C9010E945309E2
:1014700062960FB6F894DEBF0FBECDBFDF91CF915D
:101480000895CF93DF93CDB7DEB762970FB6F89488
:10149000DEBF0FBECDBF60919302CE0107960E94C2
:1014A000100866E471E0CE0101960E948908BE0131
:1014B000695F7F4FCE0101960E94D207BC01CE0129
:1014C0000D960E948008CE010D960E941507CE0150
:1014D0000D960E949A08CE0101960E949A08CE01AC
:1014E00007960E949A0862960FB6F894DEBF0FBE68
:1014F000CDBFDF91CF9108951F93CF93DF93CDB7E9
:10150000DEB762970FB6F894DEBF0FBECDBF609115
:101510009002CE0107960E9410086DE471E0CE01A2
:1015200001960E948908BE01695F7F4FCE01019636
:101530000E94D207BC01CE010D960E948008CE0108
:101540000D960E941507CE010D960E949A08CE01B5
:1015500001960E949A08CE0107960E949A088091EF
:10156000190390911A0313E1189FF001199FF00DD0
:101570001124E850FD4F85A9811156C06091900259
:1015800082E08093510470E090E080E02AE0660FF2
:10159000771F881F991F2A95D1F72FEF30E040E081
:1015A00050E00E94BC14B901CE010D960E943D0886
:1015B000BE01635F7F4FCE0107960E9480086BE6F5
:1015C00071E0CE0107960E94BC07BC01CE010196D6
:1015D0000E948008CE0101960E944A02CE01019627
:1015E0000E949A08CE0107960E949A08CE010D9695
:1015F0000E949A0881E08093510480911903909190
:101600001A03189FB001199F700D1124695D7C4F5A
:10161000CE0101960E948008CE0101960E94150716
:10162000CE0101960E949A0862960FB6F894DEBF2A
:101630000FBECDBFDF91CF911F9108951F93CF9320
:10164000DF93EC01162F0E94A614181749F0612FA2
:10165000CE010E94AE1481E0DF91CF911F910895D9
:1016600080E0FACF0F931F93CF93DF9308EF12E040
:10167000C1E0D0E00D5E1F4F80911B0390911C03D1
:10168000C817D9077CF4D8019D96ED91FC91809103
:1016900017039091180360818C0F9D1F0E941E0BF1
:1016A0002196E8CFDF91CF911F910F9108950E946D
:1016B0001C171F920F920FB60F9211242F933F9376
:1016C0008F939F93AF93BF938091820290918302F7
:1016D000A0918402B09185023091810223E0230F12
:1016E0002D3758F50196A11DB11D209381028093DD
:1016F000820290938302A0938402B093850280912A
:10170000860290918702A0918802B0918902019689
:10171000A11DB11D8093860290938702A093880239
:10172000B0938902BF91AF919F918F913F912F917B
:101730000F900FBE0F901F90189526E8230F02966A
:10174000A11DB11DD2CF1F920F920FB60F9211247F
:101750002F933F934F935F936F937F938F939F93B9
:10176000AF93BF93EF93FF938091B900887F80364A
:1017700009F44AC0F0F5883209F4A7C018F58031A1
:1017800009F49BC0B8F4882309F4F9C0883009F43F
:1017900094C0FF91EF91BF91AF919F918F917F91F5
:1017A0006F915F914F913F912F910F900FBE0F90CE
:1017B0001F901895883109F488C0803251F78093C2
:1017C000C20214C0803409F49DC040F48033B9F3E0
:1017D0008833F9F68093C20285ECB0C0803509F4F5
:1017E00085C0883509F496C0883499F60E945A0657
:1017F000D0CF883909F48CC038F5883729F050F4F7
:10180000883611F0803729F683E08093C402109265
:10181000800257C0883809F47BC0803919F08038BD
:1018200009F0B7CF80918002803208F071C0E0915A
:10183000800281E08E0F809380028091BB00F0E0F7
:10184000E05AFD4F80833DC0803B39F0E0F4803AA0
:1018500009F479C0883A09F09CCF84E08093C402EF
:1018600010925F0210925E02E0918C02F0918D0264
:10187000099580915E0281110FC081E080935E0224
:1018800010923E0209C0803C09F4A6CF883C09F4BE
:10189000A3CF883B09F07DCFE0915F0281E08E0FFE
:1018A00080935F02F0E0E25CFD4F80818093BB009B
:1018B00090915F0280915E0229C080919F02809387
:1018C000BB0085EC8093BC0064CF9091C1028091F5
:1018D000C002981758F5E091C10281E08E0F809305
:1018E000C102F0E0E056FD4F8081E9CFE091C102F6
:1018F00081E08E0F8093C1028091BB00F0E0E05642
:10190000FD4F80839091C1028091C0029817C8F268
:1019100085E8D8CFE091C10281E08E0F8093C102AB
:101920008091BB00F0E0E056FD4F80838091C302C0
:1019300081115CCF81E080939E0284EA8093BC0099
:101940001092C40226CF85EC8093BC001092C40292
:1019500080918002803230F4E0918002F0E0E05A21
:10196000FD4F10826091800270E0E0918A02F09158
:101970008B0280E692E00995109280020ACF1092C5
:10198000C20234CFCF93DF931092EC021092EB029D
:1019900088EE93E0A0E0B0E08093ED029093EE0239
:1019A000A093EF02B093F0028AE091E09093EA02F4
:1019B0008093E902109243041092420410924C0466
:1019C00010924D0410924F0410924E041092500445
:1019D000C1E0C09351048CE191E090934104809365
:1019E000400464E571E08AE394E00E948908109263
:1019F000F8021092F9021092FA02C093FB021092C0
:101A0000FC021092FD021092FE0210920703109247
:101A100008031092090310920A0310921303109204
:101A200016038AE090E0909318038093170381E0F7
:101A300090E090931A038093190382E090E09093D2
:101A40001C0380931B03D0E0C0E068E271E0CE018C
:101A5000815E9C4F0E94890868E271E0CE01895D39
:101A60009C4F0E9489086396CD3181E0D80769F7C1
:101A700087EF92E090930C0380930B0386EF92E044
:101A800090930E0380930D0385EF92E090931003E3
:101A900080930F03DF91CF910895CF93DF93CDB75C
:101AA000DEB7E3970FB6F894DEBF0FBECDBF7894D4
:101AB00084B5826084BD84B5816084BD85B5826053
:101AC00085BD85B5816085BD80916E008160809304
:101AD0006E0010928100809181008260809381006D
:101AE000809181008160809381008091800081607D
:101AF000809380008091B10084608093B1008091D8
:101B0000B00081608093B00080917A0084608093FF
:101B10007A0080917A00826080937A0080917A00C6
:101B2000816080937A0080917A00806880937A0047
:101B30001092C1006DE671E0CE0101960E94890805
:101B400061E771E0CE0182960E94890800E09E0163
:101B50002F5F3F4FAE014E5D5F4F64E972E082EE52
:101B600099E00E949F08CE0182960E949A08CE01B9
:101B700001960E949A086DE671E0CE0101960E94DE
:101B8000890869E771E0CE0182960E94890801E028
:101B90009E012F5F3F4FAE014E5D5F4F63E972E0E4
:101BA00081E49AE00E949F08CE0182960E949A08E2
:101BB000CE0101960E949A0861E871E0CE0101967B
:101BC0000E94890867E871E0CE0182960E94890828
:101BD0009E012F5F3F4FAE014E5D5F4F62E972E0A5
:101BE00081EB99E00E949F08CE0182960E949A089C
:101BF000CE0101960E949A0861E971E0CE0101963A
:101C00000E94890865E971E0CE0182960E948908E8
:101C10009E012F5F3F4FAE014E5D5F4F61E972E065
:101C200080E199E00E949F08CE0182960E949A0866
:101C3000CE0101960E949A086DE671E0CE01889669
:101C40000E9489086EE971E0CE018E960E94890893
:101C5000E0901903F0901A03BE01685D7F4FCE013A
:101C600082960E948008BE01625D7F4FCE01019680
:101C70000E94800883E18E9D80018F9D100D1124AC
:101C8000C80188509D4F7C018CE79AE0D701969659
:101C90009C938E939597BE016F5F7F4FC801815EC5
:101CA0009C4F0E94690880E992E0F70196A785A7FA
:101CB00015AABE016E5D7F4FC801895D9C4F0E94D1
:101CC0006908CE0101960E949A08CE0182960E9470
:101CD0009A08CE018E960E949A08CE0188960E949C
:101CE0009A0887E692E0909315038093140381E0AD
:101CF0008093160310928F0210928E021092C602E9
:101D00001092E8021092C4028093C30210929E02C5
:101D100082E10E94A20283E10E94A2028091B900A6
:101D20008E7F8093B9008091B9008D7F8093B90038
:101D300088E48093B80085E48093BC0087E792E054
:101D400090938D0280938C0288E792E090938B02AF
:101D500080938A0282E08093B800109253048CE34F
:101D6000809352041092440410924504E1E8F2E09A
:101D700085919491E82EE3E8F2E0F490E4E8F2E053
:101D8000E491E0934604E5E8F2E0E491E09347044F
:101D9000E6E8F2E0E491E09348048C01802F8E198C
:101DA0008F1548F4F801649180E494E00E943104B6
:101DB0000F5F1F4FF3CF0E94A504EBE9F0E0F09313
:101DC0004F04E0934E048491ECE9F0E0E491F82FA5
:101DD000319709F048C01092490490E080E00E94D9
:101DE000A614813001F16AEA71E0CE0101960E94E9
:101DF0008908CE0101960E941507CE0101960E9426
:101E00009A0890E080E00E94A614813029F061E0F9
:101E100090E080E00E94AE14E0911403F09115036D
:101E200009950E94320B28EFE22E22E0F22E01E00B
:101E300010E0F3E1EF0EF11C80911B0390911C0365
:101E400008171907A4F48091170390911803800FC5
:101E5000911F0E94A614D7019D96ED91FC9180835D
:101E60000F5F1F4FE6CF81E080934904B6CF85E036
:101E70000E94980184E00E94980186E00E949801E7
:101E8000CC24C39403E180E0E82E80E0F82E11E03A
:101E900092E0D92E84E00E94C80221E0892B09F04B
:101EA00020E02093F50285E00E94C80221E0892B02
:101EB00009F020E02093F60286E00E94C80221E0AB
:101EC000892B09F020E02093F70280909A029090ED
:101ED0009B02A0909C02B0909D02B0E68B0EBAEEE1
:101EE0009B1EA11CB11C0E94750386169706A806AE
:101EF000B90670F40E94750360939A0270939B0276
:101F000080939C0290939D020E94A50410939902D5
:101F10008090950290909602A0909702B0909802BF
:101F2000E8EE8E0EE3E09E1EA11CB11C0E9475031C
:101F300086169706A806B90660F40E94750360939A
:101F40009502709396028093970290939802109353
:101F5000990240E060E080E494E00E945E04E09139
:101F60000F03F09110038081811105C080910A0355
:101F7000811110920A038081811105C08091F802BD
:101F8000882309F466C41093F8028091FD02882327
:101F900021F0808181111092090380818111E6C0B6
:101FA0008091F9028111FCC0E0910F03F0911003C0
:101FB0008081811132C40E947503AB01BC01809104
:101FC000FF0290910003A0910103B0910203865299
:101FD0009D4FAF4FBF4F84179507A607B70738F43B
:101FE000E0910F03F09110038081811121C40E94C0
:101FF0007503AB01BC018091FF0290910003A09199
:102000000103B0910203845D9F44AF4FBF4F84171B
:102010009507A607B70708F40BC41093FA021093AC
:10202000F8028091FA02882309F48DC18091090396
:10203000811104C0109309030E94A50468EF71E0A8
:10204000CE0101960E948908CE0101960E941507D3
:10205000CE0101960E949A088091190390911A036B
:10206000089FB001099F700D1124615E7C4FCE0165
:1020700001960E948008CE0101960E941507CE01AC
:1020800001960E949A088091190390911A03089F63
:10209000F001099FF00D1124E850FD4F05A0F6A1B5
:1020A000E02D09958091190390911A03089FF00182
:1020B000099FF00D1124E850FD4F85A9882309F4EC
:1020C00045C0D092510405A4F6A5E02D6081CE0153
:1020D00001960E941008BE016F5F7F4FCE0182966D
:1020E0000E9480086BE671E0CE0182960E94BC07D8
:1020F000BC01CE0188960E948008CE0188960E947D
:102100004A02CE0188960E949A08CE0182960E94C9
:102110009A08CE0101960E949A081093510480916A
:10212000190390911A03089FB001099F700D1124A3
:10213000695D7C4FCE0101960E948008CE01019618
:102140000E941507CE0101960E949A0880911903FA
:1021500090911A03089FF001099FF00D1124E85097
:10216000FD4F85A596A50E944903EDC00E94750309
:10217000AB01BC018091FF0290910003A09101038B
:10218000B091020388579C4EAF4FBF4F84179507FD
:10219000A607B70708F004CF8091FA02811100CF9B
:1021A00080910903811104C0109309030E94A504C2
:1021B0000E947503AB01BC018091FF029091000366
:1021C000A0910103B09102038A56964EAF4FBF4FC4
:1021D00084179507A607B70708F4A2C11093F90260
:1021E0001093F802E0910F03F091100380818111A8
:1021F00005C08091F902882309F413C340E060E030
:1022000080E494E00E945E04109351040E948103D4
:1022100020911B0330911C03821713066CF50E945A
:102220008103682FCE0182960E94100866EB71E050
:10223000CE0101960E948908BE016E5D7F4FCE01DE
:1022400001960E94D2076AEF71E00E94BC07BC01B0
:10225000CE0188960E948008CE0188960E941507BC
:10226000CE0188960E949A08CE0101960E949A0893
:10227000CE0182960E949A088091FD02882309F47B
:10228000D2C11092FE02809116038111E7C10E9413
:10229000810390E00196089FB001099F700D112401
:1022A000615E7C4FCE0101960E948008CE010196AE
:1022B0000E941507CE0101960E949A088091FD02A6
:1022C000811134C20E94810320911B0330911C03B1
:1022D00082171306B4F140E060E080E494E00E94CD
:1022E0005E04D092510468E271E0CE0101960E9432
:1022F0008908CE0101960E941507CE0101960E9421
:102300009A086FEE71E0CE0101960E948908CE0115
:1023100001960E941507CE0101960E949A088091AD
:10232000FD02882371F01092F9021092FA021092C5
:1023300009030E94A50440E060E080E494E00E946C
:102340005E04109351048091F902882309F469C254
:1023500010930803E0910F03F0911003608170E087
:10236000CE0182960E943D086CEF71E0CE0101968D
:102370000E948908BE016E5D7F4FCE0101960E94CA
:10238000D207BC01CE0188960E9480088091080384
:10239000811104C0CE0188960E941107CE01889653
:1023A0000E949A08CE0101960E949A08CE01829658
:1023B0000E949A08E0910B03F0910C03608170E099
:1023C000CE0182960E943D0867E072E0CE01019640
:1023D0000E948908BE016E5D7F4FCE0101960E946A
:1023E000D207BC01CE0188960E9480088091080324
:1023F000811104C0CE0188960E941107CE018896F3
:102400000E949A08CE0101960E949A08CE018296F7
:102410000E949A08E0910D03F0910E03608170E034
:10242000CE0182960E943D0861E172E0CE010196E4
:102430000E948908BE016E5D7F4FCE0101960E9409
:10244000D207BC01CE0188960E94800880910803C3
:10245000811104C0CE0188960E941107CE01889692
:102460000E949A08CE0101960E949A08CE01829697
:102470000E949A086091950270919602809197024D
:10248000909198021BA21AA21DA21CA21FA21EA21A
:102490002AE0AE014F5F5F4F0E945A14BE016F5F8A
:1024A0007F4FCE0182960E940608CE0182960E943E
:1024B0002E09CE0182960E949A0868E271E0CE0150
:1024C00001960E948908CE0101960E942E09CE0134
:1024D00001960E949A0868E271E0CE0101960E947E
:1024E0008908CE0101960E942E09CE0101960E9414
:1024F0009A0868E271E0CE0101960E948908CE0137
:1025000001960E942E09CE0101960E949A0810920F
:102510009902E114F10409F4BDCC0E940000BACC88
:10252000E0910F03F09110038081882309F456CEC7
:102530008091FD02882309F44FC00E94810390E03E
:102540000196089FF001099FF00D1124E850FD4FFE
:1025500005A4F6A5E02D20911703309118036081A2
:10256000820F931F0E941E0B109351040E9481033F
:1025700020911B0330911C03821713066CF50E94F7
:102580008103682FCE0182960E94100866EB71E0ED
:10259000CE0101960E948908BE016E5D7F4FCE017B
:1025A00001960E94D2076AEF71E00E94BC07BC014D
:1025B000CE0188960E948008CE0188960E94150759
:1025C000CE0188960E949A08CE0101960E949A0830
:1025D000CE0182960E949A0880910A03811107C059
:1025E0008091FD028C258093FD0210930A030E94C6
:1025F000810320911B0330911C038217130661F4A1
:102600001092F8021092F9021093FB021092FD0250
:10261000109209031093510462E870E080E090E0AA
:102620000E941603DFCD0E94810320911B0330918D
:102630001C03821713060CF024CE1093FE0269EBE4
:1026400071E0CE0101960E948908CE0101960E9498
:102650001507CE0101960E949A0815CE0E948103AB
:1026600020911B0330911C0321503109821713065E
:1026700009F00DCE64EC71E0CE0101960E9489084C
:10268000CE0101960E941507CE0101960E949A087C
:1026900068E271E0CE0101960E948908CE010196A0
:1026A0000E941507CE0101960E949A088091FD02B2
:1026B000882309F407CE67ED71E0CE0101960E94F0
:1026C0008908CE0101960E941507CE0101960E944D
:1026D0009A08E0910B03F0910C038081882309F4A0
:1026E000F1CDD092510469EE71E0CE0101960E94C5
:1026F0008908CE0101960E941507CE0101960E941D
:102700009A0810935104E0911403F0911503099570
:1027100060ED77E080E090E00E9416038091FD027A
:102720008C258093FD020E94A504CCCD80910A03E4
:102730008111C8CD8091FB0290E00196089FF001C5
:10274000099FF00D1124E850FD4F05A0F6A1E02DE2
:102750000995D09251048091FB0290E00196089F68
:10276000F001099FF00D1124E850FD4F85A9882341
:1027700009F443C005A4F6A5E02D6081CE010196C1
:102780000E941008BE016F5F7F4FCE0182960E94AB
:1027900080086BE671E0CE0182960E94BC07BC0106
:1027A000CE0188960E948008CE0188960E944A0237
:1027B000CE0188960E949A08CE0182960E949A08BD
:1027C000CE0101960E949A08109351048091FB0259
:1027D00090E00196089FB001099F700D1124695D7A
:1027E0007C4FCE0101960E948008CE0101960E9486
:1027F0001507CE0101960E949A088091FB0290E095
:102800000196089FF001099FF00D1124E850FD4F3B
:1028100085A596A50E94490355CD8091FA028111A4
:10282000CACB8091FA02811193CD1092080392CD08
:102830001092FA021092F802109209030E94320BD1
:102840000E94A50464E670E080E090E00E94160318
:10285000E8CB0E9475036093FF027093000380939E
:102860000103909302031092FA021092F9026BCDC9
:10287000CF93DF93CAE3D4E06397CE010A960E9418
:102880009A08CE0102960E949A0883E0CD31D807BB
:1028900099F78AE394E0DF91CF910C949A08BB27D3
:1028A0004A3031F4992322F4BDE2909581959F4FEF
:1028B0000C947D14BB27FA01A62F621771058105C0
:1028C0009105330B30FB66F0AA27660F771F881F30
:1028D000991FAA1FA21710F0A21B63953850A9F7E1
:1028E000A05DAA3308F0A95DA19336F7B111B193A9
:1028F0001082CA010C949614BB27FB015527AA2706
:10290000880F991FAA1FA41710F0A41B839550517C
:10291000B9F7A05DAA3308F0A95DA193009779F7F4
:10292000B111B1931192CB010C949614DC01FC010E
:10293000672F71917723E1F7329704C07C916D93F3
:1029400070836291AE17BF07C8F30895F999FECF5F
:1029500092BD81BDF89A992780B50895262FF999DF
:10296000FECF1FBA92BD81BD20BD0FB6F894FA9A72
:10297000F99A0FBE01960895052E97FB1EF4009458
:102980000E94D31457FD07D00E94121507FC03D0F4
:102990004EF40C94D31450954095309521953F4FAB
:1029A0004F4F5F4F089590958095709561957F4F3B
:1029B0008F4F9F4F08952F923F924F925F926F9249
:1029C0007F928F929F92AF92BF92CF92DF92EF92BF
:1029D000FF920F931F93CF93DF93CDB7DEB7CA1B40
:1029E000DB0B0FB6F894DEBF0FBECDBF09942A886B
:1029F000398848885F846E847D848C849B84AA8413
:102A0000B984C884DF80EE80FD800C811B81AA819F
:102A1000B981CE0FD11D0FB6F894DEBF0FBECDBF6A
:102A2000ED010895A1E21A2EAA1BBB1BFD010DC0EA
:102A3000AA1FBB1FEE1FFF1FA217B307E407F5076E
:102A400020F0A21BB30BE40BF50B661F771F881F4A
:102A5000991F1A9469F760957095809590959B01E0
:102A6000AC01BD01CF010895EE0FFF1F0590F49159
:102A7000E02D09940F931F93CF93DF93823091053C
:102A800010F482E090E0E0915604F091570430E0B9
:102A900020E0B0E0A0E0309799F42115310509F469
:102AA0004AC0281B390B24303105D8F58A819B8117
:102AB0006115710589F1FB0193838283FE0111C0C9
:102AC000408151810281138148175907E0F048176E
:102AD000590799F4109761F012960C931297139678
:102AE0001C933296CF01DF91CF911F910F910895E2
:102AF0000093560410935704F4CF2115310551F07B
:102B00004217530738F0A901DB019A01BD01DF012B
:102B1000F801C1CFEF01F9CF909357048093560489
:102B2000CDCFFE01E20FF31F819391932250310923
:102B300039832883D7CF2091540430915504232B17
:102B400041F4209102013091030130935504209308
:102B5000540420910001309101012115310541F407
:102B60002DB73EB74091040150910501241B350B50
:102B7000E0915404F0915504E217F307A0F42E1BE2
:102B80003F0B2817390778F0AC014E5F5F4F2417D1
:102B9000350748F04E0F5F1F50935504409354047F
:102BA000819391939FCFF0E0E0E09CCFCF93DF93B0
:102BB0000097E9F0FC01329713821282A09156042B
:102BC000B0915704ED0130E020E01097A1F420818E
:102BD0003181820F931F209154043091550428179E
:102BE000390709F061C0F0935504E0935404DF9174
:102BF000CF910895EA01CE17DF07E8F54A815B819E
:102C00009E0141155105B1F7E901FB83EA83499122
:102C10005991C40FD51FEC17FD0761F48081918194
:102C20000296840F951FE90199838883828193819D
:102C30009B838A83F0E0E0E012968D919C9113973C
:102C40000097B9F52D913C911197CD010296820F15
:102C5000931F20915404309155042817390739F6F1
:102C6000309751F51092570410925604B0935504C2
:102C7000A0935404BCCFD383C28340815181840F7D
:102C8000951FC817D90761F44E5F5F4F88819981FE
:102C9000480F591F518340838A819B81938382838C
:102CA0002115310509F0B0CFF0935704E093560495
:102CB0009ECFFD01DC01C0CF13821282D7CFB0E0DE
:102CC000A0E0E5E6F6E10C94DD148C01009751F4E8
:102CD000CB010E943A158C01C801CDB7DEB7E0E107
:102CE0000C94F914FC01E60FF71F9C0122503109E6
:102CF000E217F30708F49DC0D901CD91DC9111973B
:102D0000C617D70798F0C530D10530F3CE01049728
:102D10008617970708F3C61BD70B2297C193D19349
:102D20006D937C93CF010E94D615D6CF5B01AC1A70
:102D3000BD0A4C018C0E9D1EA0915604B091570403
:102D4000512C412CF12CE12C109731F58091540439
:102D5000909155048815990509F05CC046165706F0
:102D600008F058C08091000190910101009741F452
:102D70008DB79EB74091040150910501841B950BBE
:102D8000E817F90708F055C0F0935504E093540490
:102D9000F90171836083A0CF8D919C911197129658
:102DA0006C90129713967C901397A815B90559F556
:102DB0006C0142E0C40ED11CCA14DB0420F1AC014A
:102DC0004A195B09DA011296159780F062827382C4
:102DD00051834083D9016D937C93E114F10471F028
:102DE000D7011396FC93EE93129776CF22968C0F11
:102DF0009D1FF90191838083F301EFCFF093570476
:102E0000E093560469CF4816590608F42C017D0159
:102E1000D3019ACFCB010E943A157C01009749F06B
:102E2000AE01B8010E942117C8010E94D615870182
:102E300053CF10E000E050CF81E090E0F8940C9484
:102E40003117FB01DC0102C001900D92415050404E
:102E5000D8F70895FB01DC0101900D920020E1F705
:102E6000089511E0CDE6D1E004C0FE010E943415C2
:0C2E70002196CE36D107C9F7F894FFCFA9
:102E7C0000005804800000000000E206B50653076D
:102E8C008B06AE069B068C0600000000C0041D02DB
:102E9C005307520719070D0A0066756E633420003C
:102EAC0066756E63332069676E6F726521200066EC
:102EBC00756E6331200066756E6332200066756E28
:102ECC0063352000202020202020202020202020BE
:102EDC00202020202020202020202020007073691A
:102EEC00007661725F6F6E65007661725F74776FEA
:102EFC00006C2F6D696E007661725F746872656527
:102F0C000076616C007661725F666F757200517548
:102F1C00696320416363657373004D454D4F52598E
:102F2C002053455421005B50002020202020204DB0
:102F3C00454E55003C526573657420746F20646572
:102F4C006661756C743E00507265737320757020E9
:102F5C00746F2072657365740020446F6E65002079
:102F6C00205B455849545D005B2D5D00627574749F
:102F7C006F6E5345543A00627574746F6E55503AC7
:0E2F8C0000627574746F6E444F574E3A000029
:107E0000112484B714BE81FFF0D085E080938100F7
:107E100082E08093C00088E18093C10086E0809377
:107E2000C20080E18093C4008EE0C9D0259A86E02C
:107E300020E33CEF91E0309385002093840096BBD3
:107E4000B09BFECF1D9AA8958150A9F7CC24DD24C4
:107E500088248394B5E0AB2EA1E19A2EF3E0BF2EE7
:107E6000A2D0813461F49FD0082FAFD0023811F036
:107E7000013811F484E001C083E08DD089C08234E0
:107E800011F484E103C0853419F485E0A6D080C0E4
:107E9000853579F488D0E82EFF2485D0082F10E0AE
:107EA000102F00270E291F29000F111F8ED06801E7
:107EB0006FC0863521F484E090D080E0DECF843638
:107EC00009F040C070D06FD0082F6DD080E0C81688
:107ED00080E7D80618F4F601B7BEE895C0E0D1E017
:107EE00062D089930C17E1F7F0E0CF16F0E7DF06D8
:107EF00018F0F601B7BEE89568D007B600FCFDCFD4
:107F0000A601A0E0B1E02C9130E011968C91119780
:107F100090E0982F8827822B932B1296FA010C0160
:107F200087BEE89511244E5F5F4FF1E0A038BF0790
:107F300051F7F601A7BEE89507B600FCFDCF97BE46
:107F4000E89526C08437B1F42ED02DD0F82E2BD052
:107F50003CD0F601EF2C8F010F5F1F4F84911BD097
:107F6000EA94F801C1F70894C11CD11CFA94CF0C13
:107F7000D11C0EC0853739F428D08EE10CD085E9AC
:107F80000AD08FE07ACF813511F488E018D01DD067
:107F900080E101D065CF982F8091C00085FFFCCF94
:107FA0009093C60008958091C00087FFFCCF809118
:107FB000C00084FD01C0A8958091C6000895E0E648
:107FC000F0E098E1908380830895EDDF803219F02E
:107FD00088E0F5DFFFCF84E1DECF1F93182FE3DFCA
:107FE0001150E9F7F2DF1F91089580E0E8DFEE27F6
:047FF000FF270994CA
:027FFE00040479
:0400000300007E007B
:00000001FF