:100000000C9401060C9429060C9429060C942906DC
:100010000C9429060C9429060C9429060C942906A4
:100020000C9429060C9429060C9429060C94290694
:100030000C9429060C9429060C9429060C94290684
:100040000C94F0160C9429060C9429060C9429069D
:100050000C9429060C9429060C9429060C94290664
:100060000C943A170C94290608000000BE9224490B
:10007000123EABAAAA2ABECDCCCC4C3E00000080DA
:10008000BEABAAAAAA3E00000000BF000000803F4D
:100090000000000000084178D3BB4387D1133D190D
:1000A0000E3CC3BD4282AD2B3E68EC8276BED98F3A
:1000B000E1A93E4C80EFFFBE01C4FF7F3F0000007E
:1000C000000000407A10F35A00A0724E1809001088
:1000D000A5D4E80000E87648170000E40B540200BD
:1000E00000CA9A3B000000E1F505000080969800E8
:1000F000000040420F000000A08601000000102711
:1001000000000000E80300000000640000000000A0
:100110000A00000000000100000000002C76D888D2
:10012000DC674F0823DFC1DFAE59E1B1B796E5E3E5
:10013000E453C63AE651997696E8E6C28426EB89FE
:100140008C9B62ED407C6FFCEFBC9C9F40F2BAA59B
:100150006FA5F490055A2AF75C936B6CF9676DC133
:100160001BFCE0E40D47FEF520E6B500D0ED902E37
:100170000300943577050080841E080000204E0A95
:10018000000000C80C333333330F986E12831141D3
:10019000EF8D2114893BE65516CFFEE6DB18D1849E
:1001A0004B381BF77C1D901DA4BBE42420328472C5
:1001B0005E228100C9F124ECA1E53D27000000008A
:1001C000003E5B4F5B3E3E6B4F6B3E1C3E7C3E1CDD
:1001D000183C7E3C181C577D571C1C5E7F5E1C0023
:1001E000183C1800FFE7C3E7FF0018241800FFE7DA
:1001F000DBE7FF30483A060E2629792926407F059D
:100200000507407F05253F5A3CE73C5A7F3E1C1CB2
:1002100008081C1C3E7F14227F22145F5F005F5F72
:1002200006097F017F006689956A6060606060945E
:10023000A2FFA29408047E040810207E2010080863
:100240002A1C08081C2A08081E101010100C1E0C6E
:100250001E0C30383E3830060E3E0E060000000000
:100260000000005F00000007000700147F147F14E7
:10027000242A7F2A1223130864623649562050002C
:1002800008070300001C2241000041221C002A1C18
:100290007F1C2A08083E0808008070300008080803
:1002A0000808000060600020100804023E51494523
:1002B0003E00427F400072494949462141494D3341
:1002C0001814127F1027454545393C4A49493141A8
:1002D000211109073649494936464949291E000076
:1002E00014000000403400000008142241141414CB
:1002F0001414004122140802015909063E415D59B7
:100300004E7C1211127C7F494949363E41414122BF
:100310007F4141413E7F494949417F090909013EE9
:10032000414151737F0808087F00417F4100204010
:10033000413F017F081422417F404040407F021C22
:10034000027F7F0408107F3E4141413E7F09090939
:10035000063E4151215E7F09192946264949493205
:1003600003017F01033F4040403F1F2040201F3FCB
:100370004038403F63140814630304780403615950
:10038000494D43007F414141020408102000414192
:10039000417F04020102044040404040000307083E
:1003A0000020545478407F2844443838444444283A
:1003B000384444287F385454541800087E090218E1
:1003C000A4A49C787F0804047800447D4000204069
:1003D000403D007F1028440000417F40007C0478AD
:1003E00004787C080404783844444438FC182424F5
:1003F0001818242418FC7C08040408485454542475
:1004000004043F44243C4040207C1C2040201C3CF1
:100410004030403C44281028444C9090907C4464E8
:10042000544C44000836410000007700000041367B
:10043000080002010204023C2623263C1EA1A16101
:10044000123A4040207A3854545559215555794133
:100450002254547842215554784020545579400C08
:100460001E527212395555555939545454593955EB
:100470005454580000457C410002457D420001452E
:100480007C407D1211127DF0282528F07C545545C2
:10049000002054547C547C0A097F4932494949322E
:1004A0003A4444443A324A4848303A4141217A3A3F
:1004B00042402078009DA0A07D3D4242423D3D400B
:1004C00040403D3C24FF2424487E4943662B2FFCBA
:1004D0002F2BFF0929F620C0887E09032054547968
:1004E000410000447D413048484A32384040227A39
:1004F000007A0A0A727D0D19317D2629292F2826B6
:100500002929292630484D402038080808080808BD
:100510000808382F10C8ACBA2F102834FA00007B16
:10052000000008142A142222142A14085500550029
:1005300055AA55AA55AAFF55FF55FF000000FF0018
:10054000101010FF00141414FF001010FF00FF1013
:1005500010F010F0141414FC001414F700FF000045
:10056000FF00FF1414F404FC141417101F10101FC4
:10057000101F1414141F00101010F0000000001FB2
:10058000101010101F10101010F010000000FF10BD
:100590001010101010101010FF10000000FF1400B9
:1005A00000FF00FF00001F10170000FC04F41414EB
:1005B0001710171414F404F40000FF00F7141414B7
:1005C00014141414F700F7141414171410101F1037
:1005D0001F141414F4141010F010F000001F101F5A
:1005E0000000001F14000000FC140000F010F010C8
:1005F00010FF10FF141414FF141010101F0000003F
:1006000000F010FFFFFFFFFFF0F0F0F0F0FFFFFF42
:100610000000000000FFFF0F0F0F0F0F3844443899
:1006200044FC4A4A4A347E02020606027E027E02E8
:1006300063554941633844443C04407E201E2006F3
:10064000027E020299A5E7A5991C2A492A1C4C7230
:1006500001724C304A4D4D303048784830BC625AB7
:10066000463D3E494949007E0101017E2A2A2A2A47
:100670002A44445F444440514A444040444A514023
:100680000000FF0103E080FF000008086B6B0836E4
:1006900012362436060F090F060000181800000055
:1006A0001010003040FF0101001F01011E00191D44
:1006B0001712003C3C3C3C00000000000001030716
:1006C0000F1F3F7F0080C0E0F0F8FCFE000000003C
:1006D0002300260029002C00000000085002010021
:1006E00000030407000000000000000000000000FC
:1006F0000000240027002A002D00DB40A4A62EAF16
:10070000DA0281DA1281DA02818F2000A1C8D300D7
:10071000408DAED580A8010204081020408001025F
:10072000040810200102040810200208010410200F
:100730004000000000250028002B002E00040404C7
:10074000040404040402020202020203030303037A
:100750000305050505050505000060000000000013
:10076000000000000000000000E0000000000000A9
:100770000000000000000001E00000000000000098
:1007800000000000000001F0000000000000000078
:10079000000000000003F000000000000000000066
:1007A0000000000007F00000000000000000000052
:1007B00000000007F800000000000000000000003A
:1007C00000000FF800000003C0007E000001E00000
:1007D0007F0FF800000003C000FE000001E000FFF2
:1007E000EFF800000003C000FE000001E000FFFF82
:1007F000F800000003C000F00000000F007FFE7F43
:10080000C0000003C000F00000000F003FFE7FF8B2
:100810003FF1FBCFFCFEF3BC3DEFE01FFE7FFF7F0F
:10082000FBFFDFFEFEFFBC3DEFE01FC6FFFF7FFBCF
:10083000FFDFFEFEFFBC3DEFE00FE3C7FE787BC3AA
:10084000DE1EF0FFBC3DEF0007FF87FC787BC3DEB8
:100850001EF0F83C3DEF0001FFFFF0007BC3C01E1F
:10086000F0F03C3DEF0001F37FE03FFBC3CFFEF033
:10087000F03C3DEF0003E33F807FFBC3DFFEF0F081
:100880003C3DEF0007E73C00787BC3DE1EF0F03C08
:100890003DEF0007FFBE00787BC3DE1EF0F03C3D5D
:1008A000EF0007FFFE00787BC3DE1EF0F03C3DEF5B
:1008B000000FFFFE007FFBFFDFFEF0F03FFDEFE0EB
:1008C0000FFFFF007FFBFFDFFEF0F03FFDEFE00FCB
:1008D000F9FF003E79F9CF9EF0F01F3DE7E01FF1F0
:1008E000FF0000000000000000000000001F80FF6B
:1008F000007FFFFFFFFFFFFFFFFFFFE01C007F0007
:100900007FFFFFFFFEB46D888D18E000001F007FA1
:10091000FFFFFFFE95AD7DB577E000000F007FFF84
:10092000FFFFFEA5AD9D8D19E0000006007FFFFFD3
:10093000FFFEB5ADEDB57EE00000000000018000D7
:100940000000000000000000038000000000000024
:1009500000000007C000000000000000000007C009
:100960000000000000000000000FC00000000000B8
:10097000000000001FE00000000000000000001F59
:10098000E00000000000000000003FE00000000068
:1009900000000000003FF000000000000000000028
:1009A0007FF0000000000000001FF87FF000000052
:1009B000000000003FFE7FF0000000000000003F4C
:1009C000FF7FF0000000000000001FFFFBE00000C0
:1009D00000000000000FFFF9FFC000000000000051
:1009E0000FFFF9FFF800000000000007FFF1FFFF14
:1009F00000000000000003FC73FFFF800000000007
:100A00000001FE3FFFFF80000000000000FF1E0FFE
:100A1000FF000000000000007FFE1FFC000000003F
:100A20000000003FFFFFF8000000000000000FDFA3
:100A3000FFE0000000000000001F19FFC0000000E0
:100A4000000000003F3CFF00000000000000007EAE
:100A50007CF800000000000000007FFE7C00000029
:100A60000000000000FFFFFC00000000000000008C
:100A7000FFFFFE0000000000000000FFFFFE00007E
:100A8000000000000001FFEFFE0000000000000079
:100A900001FFCFFE0000000000000003FF07FE0082
:100AA00000000000000003FC07FE00000000000042
:100AB0000003F003FE00000000000000018000FEC3
:100AC000000000000000000000007E0000000000A8
:100AD00000000000003E00000000000000000000D8
:100AE0000C000000000000078000FC000003C000B4
:100AF0000000078001FC000003C000000007800127
:100B0000FC000003C0000000078001E00000001EA0
:100B1000000000078001E00000001E007FE3F79F57
:100B2000F9FDE7787BDFC0FFF7FFBFFDFDFF787BB6
:100B3000DFC0FFF7FFBFFDFDFF787BDFC0F0F78769
:100B4000BC3DE1FF787BDE00F0F787BC3DE1F0784B
:100B50007BDE0000F787803DE1E0787BDE007FF7F9
:100B6000879FFDE1E0787BDE00FFF787BFFDE1E0D6
:100B7000787BDE00F0F787BC3DE1E0787BDE00F0BB
:100B8000F787BC3DE1E0787BDE00F0F787BC3DE114
:100B9000E0787BDE00FFF7FFBFFDE1E07FFBDFC019
:100BA000FFF7FFBFFDE1E07FFBDFC07CF3F39F3D7C
:100BB000E1E03E7BCFC0000000000000000000002C
:100BC00000FFFFFFFFFFFFFFFFFFFFC0FFFFFFFF73
:100BD000FD68DB111A31C0FFFFFFFFFD2B5AFB6AD6
:100BE000EFC0FFFFFFFFFD4B5B3B1A33C0FFFFFF72
:100BF000FFFD6B5BDB6AFDC02200FF210000941843
:100C0000D41D11241FBECFEFD8E0DEBFCDBF22E040
:100C1000ACE9B1E001C01D92AE3CB207E1F711E0D2
:100C2000A0E0B1E0EAE4FBE402C005900D92AC392B
:100C3000B107D9F715E0C0E0D6E004C02197FE0166
:100C40000E949423CF3FD107C9F70E943B190C940F
:100C500098250C9400000895AF92BF92CF92DF9236
:100C6000EF92FF920F931F93CF93DF936C017B0161
:100C70008B01040F151FEB015E01AE18BF08C017F2
:100C8000D10759F06991D601ED91FC910190F08165
:100C9000E02DC6010995892B79F7C501DF91CF9128
:100CA0001F910F91FF90EF90DF90CF90BF90AF908A
:100CB000089581508B3088F5E82FF0E0EE59F94F18
:100CC0000C94942377067B066D0673068D068D06BD
:100CD0007E06840688068E069206809180008F77B5
:100CE000809380000895809180008F7DF9CF84B536
:100CF0008F7784BD089584B58F7DFBCF8091B00040
:100D00008F778093B00008958091B0008F7DF9CFE8
:100D1000809190008F77809390000895809190004B
:100D20008F7DF9CF80919000877FF5CFCF93DF93B0
:100D3000282F30E0F901E852F94F8491F901EA5E79
:100D4000F84FD491F901E35CF84FC491CC23A1F0A2
:100D500081110E945906EC2FF0E0EE0FFF1FE453C3
:100D6000F94FA591B491EC91ED2381E090E009F465
:100D700080E0DF91CF91089580E090E0FACF1F935B
:100D8000CF93DF93282F30E0F901E852F94F849197
:100D9000F901EA5EF84FD491F901E35CF84FC49190
:100DA000CC23A9F0162F81110E945906EC2FF0E0F8
:100DB000EE0FFF1FEF5CF84FA591B4918FB7F89439
:100DC000EC91111108C0D095DE23DC938FBFDF9129
:100DD000CF911F910895DE2BF8CFCF93DF93282F6B
:100DE00030E0F901EA5EF84F4491235C384FF90195
:100DF0002491843011F583E08093A0002223D1F068
:100E0000822F90E0880F991FFC01E251F94FA591C4
:100E1000B491FC01EF5CF84FC591D491611122C0EF
:100E20009FB7F8948C91409584238C9388814823B4
:100E300048839FBFDF91CF9108959AEE980F92302B
:100E400020F48FEF84BF84BFD9CF8A31B9F6809167
:100E5000F00082608EBB80E88093F0008EB38093B8
:100E6000F000CCCF8FB7F894EC914E2B4C938FBF02
:100E7000E1CFCF93DF931F92CDB7DEB71982809178
:100E80007A00806480937A0080917A0086FDFCCF9E
:100E90008091780089839091790089810F90DF910A
:100EA000CF910895CF93DF939091AD00907F909371
:100EB000AD00863111F08C3129F49091AD0096602F
:100EC0009093AD008E3008F08E508F7180648093C7
:100ED0007C0080917D00806280937D000E943907B4
:100EE000EC0180917D008F7D80937D000E94390709
:100EF0008C0F9D1F9C0136952795892F9927A90155
:100F0000481B590BCA01DF91CF9108950C945207E9
:100F10003FB7F8948091280290912902A0912A026B
:100F2000B0912B0226B5A89B05C02F3F19F0019662
:100F3000A11DB11D3FBFBA2FA92F982F8827BC0133
:100F4000CD01620F711D811D911D42E0660F771F5B
:100F5000881F991F4A95D1F708958F929F92AF925B
:100F6000BF92CF92DF92EF92FF924B015C010E9401
:100F700088076B017C010E9488076C197D098E0926
:100F80009F09683E734081059105A8F321E0821A0C
:100F90009108A108B10888EEC80E83E0D81EE11CB4
:100FA000F11C81149104A104B10429F7FF90EF9082
:100FB000DF90CF90BF90AF909F908F900895EF9269
:100FC000FF920F931F93CF93DF93EC01EC80FD8092
:100FD0006E157F050CF070C057FF04C0240F351F3D
:100FE00050E040E08E819F81FA01E20FF31F8E17DF
:100FF0009F071CF49C01241B350B121613060CF0E2
:101000005BC0922F842F8695869586958E9DD00104
:101010008F9DB00D11246A0F7B1FAF8DB8A1A60F55
:10102000B71F477049F188E0841B482F682F70E094
:10103000FB01EC53F94FE491281708F063C0621BE1
:1010400071092FEF30E002C0359527956A95E2F7D8
:10105000E2230130110539F0B0F10230110561F5DC
:101060008C91E82702C08C91E82BEC93941720F127
:101070002C813D81A20FB31FE92FE41BE83078F0EB
:101080000230110521F58E2F9C9190959C932C8117
:101090003D81A20FB31F88508830B0F7E770EE2370
:1010A00059F0F0E0E454F94FE49101301105F9F002
:1010B00010F10230110519F1DF91CF911F910F91BD
:1010C000FF90EF900895E0958C91E823CECF81E0DA
:1010D0000115110509F480E081959E2F8C932C81D8
:1010E0003D81A20FB31F98509830C0F7D7CF8C9195
:1010F000E82BEC93E1CFE0958C91E823FACF8C912B
:10110000E827F7CF0130110509F4ADCFE0F2023046
:10111000110509F4A5CFAE0DBF1DAECF0F931F93E0
:10112000CF93DF9377FF04C0260F371F70E060E096
:10113000DC011496CD91DC91FB01E20FF31FCE1779
:10114000DF071CF49E01261B370B121613064CF505
:10115000FA0157FD3796A3E0F595E795AA95E1F7D3
:10116000EC9FD001ED9FB00DFC9FB00D11246A0FD4
:101170007B1FDC015F96ED91FC91E60FF71F477036
:10118000552781E090E001C0880F4A95EAF7482F83
:101190000130110559F0A8F02E0F3F1F0230110544
:1011A000E1F0DF91CF911F910F9108952E0F3F1F16
:1011B000E217F307B1F38191DF011197842B8C9330
:1011C000F7CF80952E0F3F1FE217F30751F3919150
:1011D000DF01119798239C93F7CFE217F30709F3E8
:1011E0008191DF01119784278C93F7CF0F931F9381
:1011F000FA01DC0156964C9156974230E9F04330A3
:10120000A1F1413061F514964D915C91DA01AE1B6C
:10121000BF0BFD01E21BF30B77FD0BC0DC01169643
:101220004D915C916417750724F4AB01BF010E94D6
:101230008E081F910F91089514964D915C91DA01DB
:10124000A61BB70BBD0161507109DC0116964D91CB
:101250005C91DA01AE1BBF0BFD01E21BF30B77FDC6
:10126000E8CFAF010E94DF07E4CF16964D915C9165
:10127000DA01A61BB70BBD0161507109CDCF0F93E9
:101280001F93FA01DC0156964C9156974230A9F013
:10129000433091F1413019F514964D915C91DA018A
:1012A000AE1BBF0BFD013197F7FD04C0AB01BF01C1
:1012B0000E94DF071F910F91089514964D915C9144
:1012C000DA01A61BB70BBD01DC0116964D915C91AE
:1012D000DA01AE1BBF0BFD013197621B730BF7FDEB
:1012E000E9CFDC0116964D915C91E417F50714F7F0
:1012F000AF010E948E08DECF16964D915C91DA0107
:10130000A61BB70BBD01621B730BCECFFC0177FD93
:1013100064C080859185681779070CF05EC057FD21
:101320005CC082859385481759070CF056C08689A2
:101330008230B1F0833029F1813041F4848195818C
:10134000841B950BAB01BC01615071092130310543
:1013500009F108F443C02230310509F463C008954F
:1013600084819581DC01A61BB70BBD016150710919
:1013700086819781DC01A41BB50BAD014150510959
:10138000E5CF86819781861B970BBA01AC0141504E
:101390005109DCCFCA0157FD0796A3E095958795C3
:1013A000AA95E1F7A481B5818A9F90018B9F300DAA
:1013B0009A9F300D1124620F731F078CF0A1E02D4E
:1013C000E60FF71F4770552721E030E001C0220FDC
:1013D0004A95EAF78081822B80830895CA0157FDE0
:1013E000079633E0959587953A95E1F7A481B58105
:1013F0008A9F90018B9F300D9A9F300D1124620FB0
:10140000731F078CF0A1E02DE60FF71F47705527DB
:1014100081E090E001C0880F4A95EAF780959081BD
:101420008923DACFCA0157FD079623E09595879562
:101430002A95E1F7A481B5818A9F90018B9F300D99
:101440009A9F300D1124620F731F078CF0A1E02DBD
:10145000E60FF71F4770552721E030E001C0220F4B
:101460004A95EAF780818227B7CF08958EBD0000A4
:10147000CE99FECF8EB594E499BB08958CBD9DBDE9
:1014800008950895FC016370668B8481958126819F
:101490003781613039F0633029F091878087338755
:1014A00022870895318720879387828708952F9216
:1014B0003F924F925F926F927F928F929F92AF92E4
:1014C000BF92CF92DF92EF92FF920F931F93CF9331
:1014D000DF93CDB7DEB76A970FB6F894DEBF0FBEC5
:1014E000CDBF9A8F898F7A8369834A01D22E18875C
:1014F0000F833701BC2CDC0159962D913C915A97F2
:101500002115310509F015C118968D919C911997F7
:10151000681779070CF0D7C11A968D919C914817DE
:1015200059070CF0D0C14C2C512CB6E0CB9E600D6D
:10153000711D11247C876B87161617060CF0C3C12A
:10154000EA2DF0E0FA87E98793E0EE0FFF1F9A9506
:10155000E1F7F88BEF87CF01840F951F1816190656
:101560000CF0B1C1A98DBA8D58968C91811104C02F
:10157000BFEABD1508F4D394A98DBA8DED91FC9105
:1015800011970284F385E02DCD010995B5E0DB9E2E
:10159000C0011124E981FA81FC83EB83312C212CD9
:1015A0009C0124543E4F388F2F8B4A2D50E05E8B88
:1015B0004D8BEF89F88DE20DF31D44919E828D8253
:1015C000D12CC12C69817A81620D731D7A8B698B54
:1015D000842F90E09C8B8B8BE98DFA8DA081B1815B
:1015E00040FF82C0F1E0BF126FC0AF126DC01C9609
:1015F000ED91FC912F813885A4014C0D5D1D698909
:101600007A89898D9A8D0995EB89FC89F595E795FD
:101610004E2F5FEFC51AD50A6D817E818D899E8917
:10162000680F791F7E836D8398E0C916D10481F617
:10163000AFEF2A1A3A0AEB81FC81E40DF51DFC8319
:10164000EB83F5E02F16310409F0B3CF2F813885F5
:1016500026153705B9F0A98DBA8DED91FC91B1E051
:10166000BB1257C0AB1255C069817A816B5F7F4F47
:101670000088F189E02D830128E030E0A401898D04
:101680009A8D0995A98DBA8DED91FC9111970688D7
:10169000F789E02DCD016A960FB6F894DEBF0FBE34
:1016A000CDBFDF91CF911F910F91FF90EF90DF9011
:1016B000CF90BF90AF909F908F907F906F905F90F2
:1016C0004F903F902F9009941E96ED91FC91EF80E2
:1016D000F88409851A8592014D815E816B817C8138
:1016E000898D9A8D099590CF2F81388526153705DC
:1016F00009F48ACF31E0B31207C0A31205C01C96CB
:10170000ED91FC91930178CF1E96ED91FC917301C0
:10171000E0CF6B857C85641975090684F785E02D1B
:1017200073010F8518899201A401898D9A8D0995FD
:10173000A9CFF90134969491329745915491D91AD1
:10174000B7E0DB9E400D511D1124F9012591349124
:101750003C8B2B8BFA0125903490FA0132967490D1
:1017600031963491398B329664903196449041E0B1
:101770004C1518F04A1508F07FC0662D062C000C99
:10178000770B7C836B83842D042C000C990B9E8338
:101790008D83A98DBA8DED91FC9111970284F3850B
:1017A000E02DCD010995512CD12CC12CEA2DF0E072
:1017B000FA87E9872B2D30E03C872B87A401440D65
:1017C000511D47FC5A95588F4F8B69817A81660D60
:1017D000711D67FC7A957E876D877989C71608F039
:1017E00051CF2C2D30E04D815E81420F531FA985D2
:1017F000BA854A9FC0014B9F900D5A9F900D1124AE
:10180000FC01E80DF91DF88BEF87852D612C4F89C0
:10181000588D420F531F5E8B4D8B671408F050C0DC
:1018200044244394480E877041F4C1010196EB892A
:10183000FC89E20DF31DD4901C01D7FE19C0A98DBF
:10184000BA8DED91FC91662D70E0B1E0BB1219C02C
:10185000AB1217C02D853E85620F731F0484F5857A
:10186000E02D2F8138854D895E89898D9A8D099566
:10187000DD0C6394842DD1CF1E821D821C821B82BD
:1018800088CF4B815C81640F751FAB85BC856A9FD7
:10189000C0016B9F900D7A9F900D112469817A8110
:1018A000680F791F0684F785E02DEF80F88409859D
:1018B0001A859D014F855889898D9A8D0995D8CFB4
:1018C000570CC3948ACF6A960FB6F894DEBF0FBE4A
:1018D000CDBFDF91CF911F910F91FF90EF90DF90DF
:1018E000CF90BF90AF909F908F907F906F905F90C0
:1018F0004F903F902F9008958F929F92AF92CF92EA
:10190000EF92FF920F931F93CF93DF93EC01262F5B
:10191000898D9A8D009709F051C06A30D1F41D86E7
:101920001C868D8948E0849F900111248E859F85B7
:10193000820F931F9F878E8781E090E0DF91CF9188
:101940001F910F91FF90EF90CF90AF909F908F904D
:1019500008956D3089F3CC88AD888F898823C1F0D4
:101960008C859D8536E0C39E800D911D1124488590
:1019700059854817590764F44E855F851D861C8676
:1019800038E0A39EC0011124840F951F9F878E8786
:10199000EA88FB88088919894E855F856C857D8575
:1019A000CE010E94570A2C898C859D8546E0249F94
:1019B000800D911D11249D878C87BECF6A3069F4FC
:1019C0001D861C86FC013696E4912D898E859F85A7
:1019D000E29F800D911D1124ADCF6D3009F4ACCF85
:1019E000FC0134963491631708F4A6CF3196E49144
:1019F000E61708F4A1CFFC01329685909490462F0B
:101A0000431B342F47E0349F800C911C1124F401B8
:101A1000329634913196E4913323A9F1EE2399F172
:101A2000CC88F4013596E491AD884F89442301F1C7
:101A30000E2E000CFF0BE30FF11DCE9EA001CF9EDA
:101A4000500D11246C857D85460F571F688579855B
:101A5000641775076CF44E855F851D861C86FC0136
:101A60003696E491AE9E400D511D11245F874E873E
:101A7000EA88FB88088919894E855F856C857D8594
:101A8000CE010E94570AF4013496E4912C898C858A
:101A90009D85E29F800D911D11248DCF6F927F92C5
:101AA0008F929F92AF92BF92CF92DF92EF92FF926E
:101AB0000F931F93CF93DF93EC016B015A01390110
:101AC0004801E881F9810284F385E02D0995E881D8
:101AD000F9810288F389E02D87019301A501B60100
:101AE000CE010995A501480D591D41505109E881C4
:101AF000F9810288F389E02D9301B601CE010995A1
:101B0000E881F9810088F189E02D9401A501B601F1
:101B1000CE010995C60CD71CB60161507109E88148
:101B2000F9810088F189E02D9401A501CE01099584
:101B3000E881F9810688F789E02DCE01DF91CF9108
:101B40001F910F91FF90EF90DF90CF90BF90AF90DB
:101B50009F908F907F906F9009946F927F928F9259
:101B60009F92AF92BF92CF92DF92EF92FF920F932C
:101B70001F93CF93DF935C01EB016A0149013801A8
:101B80008701DC01ED91FC916217730719F564166A
:101B900075062CF0962D872D3A01C92ED82E960168
:101BA000261937092F5F3F4F048CF58DE02DA301D7
:101BB000BE01C5010995DF91CF911F910F91FF9053
:101BC000EF90DF90CF90BF90AF909F908F907F90DD
:101BD0006F9008954615570591F42617370724F09E
:101BE000892D4B01C22FD82F9E01281939092F5F4B
:101BF0003F4F068CF78DE02DA601B401DACF0284A9
:101C0000F385E02D0995D501ED91FC910488F589C6
:101C1000E02D83019401A601BE01C5010995D501FE
:101C2000ED91FC910688F789E02DC501DF91CF91F8
:101C30001F910F91FF90EF90DF90CF90BF90AF90EA
:101C40009F908F907F906F900994EF92FF920F93E7
:101C50001F93DC011A960D911C911B9718962D91DC
:101C60003C911997ED91FC9100A0F1A1E02D7B0131
:101C700050E040E070E060E009951F910F91FF9007
:101C8000EF9008954F925F926F927F928F929F9202
:101C9000AF92BF92CF92DF92EF92FF920F931F937A
:101CA000CF93DF936C012B015A0139014801DC010C
:101CB000ED91FC910284F385E02D0995E201640C1D
:101CC000751CD601ED91FC91C615D7055CF4008812
:101CD000F189E02D87019401A501BE01C601099596
:101CE0002196EFCF0688F789E02DC601DF91CF91CD
:101CF0001F910F91FF90EF90DF90CF90BF90AF902A
:101D00009F908F907F906F905F904F9009948F92EB
:101D10009F92AF92BF92CF92DF92EF92FF920F937A
:101D20001F93CF93DF93EC015B014A016901E881C6
:101D3000F9810284F385E02D099595012C0D3D1D57
:101D400021503109E881F9810488F589E02D780175
:101D50008401A401B501CE010995E881F9810688C5
:101D6000F789E02DCE01DF91CF911F910F91FF9068
:101D7000EF90DF90CF90BF90AF909F908F9009949D
:101D80008F929F92AF92BF92CF92DF92EF92FF928B
:101D90000F931F93CF93DF93EC015B014A0169011D
:101DA0007801E881F9810284F385E02D0995C80C5A
:101DB000D91C860101501109E881F9810488F5894F
:101DC000E02D9501A401B501CE010995E881F981C5
:101DD0000688F789E02DCE01DF91CF911F910F91F9
:101DE000FF90EF90DF90CF90BF90AF909F908F903B
:101DF0000994EF92FF920F931F93DC01ED91FC91F8
:101E000000A0F1A1E02D09951F910F91FF90EF9097
:101E100008950F931F93DC01ED91FC91068CF78DD3
:101E2000E02D09951F910F9108950F931F93DC01E9
:101E3000ED91FC91048CF58DE02D09951F910F918A
:101E40000895DC01ED91FC910084F185E02D099469
:101E50003F924F925F926F927F928F929F92AF923A
:101E6000BF92CF92DF92EF92FF920F931F93CF9387
:101E7000DF935C017B014A016901390187E0680E4B
:101E8000711C93E0759467949A95E1F72B01400ECD
:101E9000511E10E000E0312CD0E0C0E0CE01877090
:101EA0009927330C892B59F4FE0183E0F595E795CA
:101EB0008A95E1F7E00FF11FE80DF91D349037FE28
:101EC0000AC021E030E0A701B5016C0F7D1F89E752
:101ED00092E00E94210F2196CC16DD06F9F68FEFD5
:101EE000E81AF80A060D171DE414F504A9F6DF91A7
:101EF000CF911F910F91FF90EF90DF90CF90BF9007
:101F0000AF909F908F907F906F905F904F903F9099
:101F100008952F923F924F925F926F927F928F928D
:101F20009F92AF92BF92CF92DF92EF92FF920F9368
:101F30001F93CF93DF9300D000D000D0CDB7DEB792
:101F40003C016A013E832D83FC82EB825801A41A76
:101F5000B50AB7FE03C0B194A194B1088D809E80EC
:101F6000861A970A97FE03C09194819491088A1467
:101F70009B045CF0902F812F0D811E819D838E83A9
:101F80009C2D8D2D6B01692F782F0C151D055CF094
:101F90009D818E817E836D83692F782F902F812F75
:101FA0008601C92ED82E1601201A310A2B012D8147
:101FB0003E81421A530A57FE03C05194419451087E
:101FC000710137FE03C03FEFE31AF30AF594E7947B
:101FD0008D819E81861797075CF5A1E0B0E0BA83FA
:101FE000A983C016D1064CF1D301ED91FC91048474
:101FF000F585E02D2B813C81A8016D817E818A14BD
:102000009B041CF04D815E81B801C3010995E41861
:10201000F508F7FE0AC02D813E8189819A81280F3B
:10202000391F3E832D83E20CF31C0F5F1F4FD9CF66
:102030002FEF3FEF3A832983D4CF26960FB6F8943B
:10204000DEBF0FBECDBFDF91CF911F910F91FF90EB
:10205000EF90DF90CF90BF90AF909F908F907F9048
:102060006F905F904F903F902F900895089585ED69
:102070008093BC008091BC0084FDFCCF10922F02A5
:102080000895613298F420912F02243089F46093EE
:10209000DC01282FACEBB1E0FC018E2F821B8617F0
:1020A00010F080E0089581918D93F7CF81E008953D
:1020B00082E0089581E090E0309131022091300279
:1020C000321710F490E080E0919581959109089580
:1020D0008091310290913002891730F48F5F8093A4
:1020E000310290E080E008958FEF9FEF0895809196
:1020F000300290913102891B990B0895CF92DF92A3
:10210000EF92FF920F931F93CF93DF937C01CB014C
:102110008A0120913F02222389F0EB016B01C40E5A
:10212000D51ECC15DD0569F06991D701ED91FC91C3
:102130000190F081E02DC7010995F3CF642F0E9433
:102140004110C801DF91CF911F910F91FF90EF9047
:10215000DF90CF900895CF93DF931F92CDB7DEB776
:10216000698320913F022223F9F020913C02203222
:1021700058F021E030E0FC013383228390E080E0DE
:102180000F90DF91CF91089580913D02E82FF0E00C
:10219000E456FE4F998190838F5F80933D02809338
:1021A0003C0281E090E0ECCF61E0CE0101960E941C
:1021B0004110F7CF20913C0281E0213208F040C06D
:1021C00080912F028111FCCF80913E0292E090938A
:1021D0002F0291E090932E029FEF9093FF011092B7
:1021E000210220932002ACE9B1E0E0E0F2E090E0CF
:1021F00029132DC01092220290912202880F892B60
:102200008093220280912D02813031F410922D02B0
:10221000809122028093BB0085EE8093BC00809168
:102220002F028230E1F38091FF018F3FA1F0809176
:10223000FF01803291F08091FF01803381F084E0D2
:1022400010923D0210923C0210923F0208953D917F
:1022500031939F5FCDCF80E0F3CF82E0F1CF83E079
:10226000EFCFFF920F931F93CF93DF93F82ED92FC9
:10227000C62F8091960290919702009709F452C060
:1022800020919A0231E030933F0220933E02109257
:102290003D0210923C02DC01ED91FC910190F08135
:1022A000E02D60E009950F2D1D2FD1E0FF24F39460
:1022B000C1508091960290919702CF3F61F1D03248
:1022C000C8F00E94DA1080919602909197022091B6
:1022D0009A02F0923F0220933E0210923D02109229
:1022E0003C02DC01ED91FC910190F081E02D60E079
:1022F0000995D1E08091960290919702F80164913E
:10230000DC01ED91FC910190F081E02D0995DF5FFA
:102310000F5F1F4FCDCFDF91CF911F910F91FF9096
:102320000C94DA10E091A602F091A70290818091BE
:10233000AC028095892380830F2D1D2FC15008F496
:1023400038C0F80184912091940230919502232B9A
:1023500029F00E94360A0F5F1F4FF0CF28E030E0CF
:1023600040E8E091A202F091A3029091AA02582FB6
:102370005423D9F05081952B9083E091A402F091E1
:10238000A50290815091AB02952B9083E091A4021D
:10239000F091A50250819091AB0290959523908386
:1023A000469521503109E9F6D6CF50819095952375
:1023B000E3CFDF91CF911F910F91FF9008951F936D
:1023C000CF93DF93EC018D8D9E8D009721F1162F19
:1023D00029A131E030933F0220933E0210923D024A
:1023E00010923C02DC01ED91FC910190F081E02D16
:1023F00060E009958D8D9E8DDC01ED91FC91019041
:10240000F081E02D612F09958D8D9E8DDF91CF910B
:102410001F910C94DA10ADA5BEA59C918BA9809557
:1024200089238C938B8D9C8D892B31F0862FDF91A6
:10243000CF911F910C94360A28E030E080E8A9A5DE
:10244000BAA599A9462F4823C1F04C91942B9C938F
:10245000ABA5BCA59C914AA9942B9C93ABA5BCA50C
:102460004C919AA9909594239C938695215031097B
:1024700031F7DF91CF911F9108954C91909594235E
:10248000E6CFEF92FF920F931F93CF93DF9380914C
:10249000960290919702892B09F493C02091B00283
:1024A0003091B1024091B2025091B30260E074E207
:1024B00084EF90E00E9472232051310941095109B3
:1024C00056954795379527952093B80065E088EF96
:1024D0009BE00E94311160917D02615089E792E09A
:1024E0000E94DF1120917F0230918002C90107967E
:1024F00097FD079623E0959587952A95E1F720911A
:102500007D0230917E02829F8001839F100D929FF9
:10251000100D1124C0919802D091990280919602D9
:10252000909197020C0F1D1F009709F489C020910C
:102530009A0231E030933F0220933E0210923D0216
:1025400010923C02DC01ED91FC910190F081E02DB4
:1025500060E40995FF24F394EE24E39480919602BD
:10256000909197020C171D0709F442C0BFE1BF15F7
:10257000D0F40E94DA1080919602909197022091F7
:102580009A02E0923F0220933E0210923D02109286
:102590003C02DC01ED91FC910190F081E02D60E4C2
:1025A0000995FF24F3948091960290919702699186
:1025B000DC01ED91FC910190F081E02D0995F394FF
:1025C000CDCF8091940290919502892B31F080912A
:1025D000AE029091AF020E943E0AE091A802F091F3
:1025E000A90290818091AD028095892380836ECF6E
:1025F0000E94DA108091960290919702892B09F43B
:1026000060C02091B4023091B5024091B602509161
:10261000B70260E074E284EF90E00E9472232051E0
:1026200031094109510956954795379527952093CA
:10263000B800DF91CF911F910F91FF90EF90089517
:10264000E091A602F091A70280819091AC02892BC3
:1026500080830C171D0771F28991209194023091AB
:102660009502232B19F00E94360AF3CF28E030E0C0
:1026700040E8E091A202F091A3029091AA02582FA3
:102680005423D9F05081952B9083E091A402F091CE
:10269000A50290815091AB02952B9083E091A4020A
:1026A000F091A50250819091AB0290959523908373
:1026B000469521503109E9F6CCCF5081909595236C
:1026C000E3CFE091A802F091A90280819091AD0240
:1026D000892B8083AECF1F93CF93DF93EC01162F0E
:1026E0008D8D9E8D892BB1F12FA938AD49AD5AAD95
:1026F00060E074E284EF90E00E947223205131097F
:102700004109510956954795379527952093B8006B
:1027100066EA111167EACE010E94DF118D8D9E8D50
:10272000892B41F12BAD3CAD4DAD5EAD60E074E267
:1027300084EF90E00E947223205131094109510930
:1027400056954795379527952093B800DF91CF91FF
:102750001F9108958B8D9C8D892B21F08DA99EA9A9
:102760000E943E0AEFA5F8A990818CA98095892343
:102770008083CECFEFA5F8A980819CA9892B808387
:10278000E5CF90E080E008958F929F92AF92BF9244
:10279000CF92DF92EF92FF92CF93DF930E94B2220B
:1027A000C0E4D2E07B836A83072E000C880B990B70
:1027B0000E947F209B01AC0160E070EC8FE795E404
:1027C0000E94402220E030E040E85FE30E94D321F5
:1027D0002D853E854F8558890E94DE206D8B7E8B2E
:1027E0008F8B988F0E94F5226B017C01C98ADA8A4F
:1027F000EB8AFC8A29A13AA14BA15CA10E94DE20B0
:102800002D8D3E8D4F8D58A10E94D4214B015C012E
:102810002DA13EA14FA158A5C701B6010E94DE20FF
:10282000A70196010E94DE20A70196010E94DE20EA
:102830009B01AC01C501B4010E94D4219B01AC01F4
:1028400060E070E080E89FE30E944022698F7A8F09
:102850008B8F9C8F23E333E948E853E40E94D32114
:10286000DF91CF91FF90EF90DF90CF90BF90AF902E
:102870009F908F9008958F929F92AF92BF92CF9228
:10288000DF92EF92FF92CF93DF93EC0180914002B1
:102890000E948607BC01990F880B990B0E947F202C
:1028A00020914402309145024091460250914702E6
:1028B0000E94D4216B017C01C0924402D092450257
:1028C000E0924602F0924702BE01DD0F880B990BA1
:1028D0000E947F204B015C01AC019B01609148028A
:1028E0007091490280914A0290914B020E94E82225
:1028F00087FD23C0109248021092490210924A02AA
:1029000010924B02A5019401C701B6010E9440221A
:102910000E94C4136093690270936A0280936B02F1
:1029200090936C021092440210924502109246025B
:102930001092470281E080934C0220E030E040E8B2
:102940005FEB609148027091490280914A02909138
:102950004B020E947820811114C0809140020E9495
:102960008607BC01990F880B990B0E947F200E945B
:10297000C4136093690270936A0280936B02909310
:102980006C0220E030E040E85FE360914802709123
:10299000490280914A0290914B020E94D421609397
:1029A00048027093490280934A0290934B028091AF
:1029B0004C02DF91CF91FF90EF90DF90CF90BF90CE
:1029C000AF909F908F90089542E050E064E471E0F2
:1029D00089E792E00C942C06CF93DF93FC014481AD
:1029E00055816081718189E792E00E942C06EC019B
:1029F0000E94E4148C0F9D1FDF91CF9108952091C8
:102A00007F0230918002C901079697FD079623E067
:102A1000959587952A95E1F720917D0230917E0268
:102A2000829FA001839F500D929F500D112470E052
:102A300060E080919802909199020C948A250F93FE
:102A40001F93CF93DF93EC0188819981009759F010
:102A50002A813B812617370730F081E0DF91CF9143
:102A60001F910F9108958B016F5F7F4F0E94BF24CC
:102A7000009759F0998388831B830A832C813D81B9
:102A8000232B59F7FC011082E8CF80E0E7CFCF93EA
:102A9000DF93EC0188819981009711F00E94362420
:102AA000198218821D821C821B821A82DF91CF91AB
:102AB0000895EF92FF920F931F93CF93DF93EC0152
:102AC000FB01E080F180E114F10411F10481158132
:102AD00001151105A9F08C819D81080F191FB801FE
:102AE000CE010E941F15882399F0288139818C819D
:102AF0009D81B701820F931F0E9491251D830C8336
:102B0000CE01DF91CF911F910F91FF90EF9008952B
:102B1000CE010E944715F4CFEF92FF920F931F93BF
:102B2000CF93DF93EC017B018A01BA010E941F154C
:102B300081110BC0CE010E944715CE01DF91CF91CC
:102B40001F910F91FF90EF9008951D830C83B701A3
:102B5000888199810E949125F0CFFB01019000208E
:102B6000E9F73197AF01461B570B0C948C15EF9288
:102B7000FF920F931F93CF93DF93CDB7DEB7A1974B
:102B80000FB6F894DEBF0FBECDBF7C01CB01BA01FA
:102B9000F7011182108213821282158214828E0133
:102BA0000F5F1F4F22E044E00E94EE1D009789F066
:102BB000BC01C7010E94AD15A1960FB6F894DEBF07
:102BC0000FBECDBFDF91CF911F910F91FF90EF907E
:102BD0000895C7010E944715EFCF0F931F93CF931E
:102BE000DF93CDB7DEB762970FB6F894DEBF0FBEA6
:102BF000CDBF8C01CB01F8011182108213821282A9
:102C0000158214824AE0BE016F5F7F4F0E940C1E46
:102C1000BE016F5F7F4FC8010E94AD1562960FB66F
:102C2000F894DEBF0FBECDBFDF91CF911F910F9102
:102C30000895FC011182108213821282158214827F
:102C4000FB0101900020E9F73197AF01461B570BBC
:102C50000C948C15CF92DF92EF92FF920F931F93FB
:102C6000CF93DF938C017B016A0166E471E00E94DF
:102C70001916D70114968D919C910097D9F0E60111
:102C80008C159D0508F4EC01D701ED91FC9111978D
:102C9000EC0FFD1FD08010826D917C91C8016115F1
:102CA000710591F00E94AD15F70180819181C80FE7
:102CB000D91FD882C801DF91CF911F910F91FF904A
:102CC000EF90DF90CF9008950E944715EDCFFC0163
:102CD000808191810C943624CF92DF92EF92FF9203
:102CE0000F931F93CF93DF93CDB7DEB72C970FB61B
:102CF000F894DEBF0FBECDBF6B017C018A0110923C
:102D00008602109285028DE190E090938802809374
:102D10008702B701A601CE0101960E94B7158D81E9
:102D20009E81069708F053C084E080938D028093C3
:102D30008E02CE0101960E946716B701A601CE0150
:102D400001960E94B7154D815E814730510508F408
:102D500040C042505109BE016F5F7F4FCE010796C0
:102D60000E942A164B855C856F81788589E792E001
:102D70000E942C06CE0107960E946716CE0101968E
:102D80000E946716B701A601CE0101960E94B715F1
:102D90008D819E81069700F582E080938D0280935D
:102DA0008E02CE0101960E946716C8010E94EC14A3
:102DB0002C960FB6F894DEBF0FBECDBFDF91CF913A
:102DC0001F910F91FF90EF90DF90CF90089583E0D7
:102DD000ACCF41505109BFCF81E0DFCF0E947C25AD
:102DE0001F920F920FB60F9211242F933F938F9340
:102DF0009F93AF93BF938091240290912502A0915D
:102E00002602B09127023091230223E0230F2D37B1
:102E100058F50196A11DB11D209323028093240231
:102E200090932502A0932602B09327028091280256
:102E300090912902A0912A02B0912B020196A11D26
:102E4000B11D8093280290932902A0932A02B09387
:102E50002B02BF91AF919F918F913F912F910F9036
:102E60000FBE0F901F90189526E8230F0296A11D04
:102E7000B11DD2CF1F920F920FB60F9211242F9334
:102E80003F934F935F936F937F938F939F93AF93F2
:102E9000BF93EF93FF938091B900887F803609F448
:102EA0004AC0F0F5883209F4A5C018F5803109F45C
:102EB00099C0B8F4882309F4F0C0883009F492C0AE
:102EC000FF91EF91BF91AF919F918F917F916F9102
:102ED0005F914F913F912F910F900FBE0F901F90D8
:102EE0001895883109F486C0803251F78093FF012C
:102EF00014C0803409F49BC040F48033B9F38833A4
:102F0000F9F68093FF0185ECAEC0803509F483C0EB
:102F1000883509F494C0883499F60E943710D0CFD0
:102F2000883909F48AC038F5883729F050F4883692
:102F300011F0803729F683E080932F021092FE0172
:102F400055C0883809F479C0803919F0803809F003
:102F5000B7CF8091FE01803208F06FC0E091FE0192
:102F600081E08E0F8093FE018091BB00F0E0E25281
:102F7000FE4F80833BC0803B39F0D0F4803A09F4A7
:102F800077C0883A09F09CCF84E080932F0210929A
:102F9000DD011092DC01F0E0E0E009958091DC01B8
:102FA00081110FC081E08093DC011092BC0109C047
:102FB000803C09F4A8CF883C09F4A5CF883B09F0F0
:102FC0007FCFE091DD0181E08E0F8093DD01F0E0A5
:102FD000E454FE4F80818093BB009091DD0180918D
:102FE000DC0129C0809122028093BB0085EC809394
:102FF000BC0066CF9091210280912002981758F56D
:10300000E091210281E08E0F80932102F0E0E050F8
:10301000FE4F8081E9CFE091210281E08E0F809305
:1030200021028091BB00F0E0E050FE4F8083909140
:103030002102809120029817C8F285E8D8CFE0914C
:10304000210281E08E0F809321028091BB00F0E08D
:10305000E050FE4F808380912E0281115ECF81E08F
:1030600080932D0284EA8093BC0010922F0228CF17
:103070008091FE01803230F4E091FE01F0E0E252F6
:10308000FE4F10826091FE0170E08EED91E0F0E065
:10309000E0E009951092FE0136CF1092FF013DCF7E
:1030A00081BD917092BDF89A0000000080B508952E
:1030B000CF93DF93D82FC62F0E9450188C1771F032
:1030C0008FB7D1BD12BCC0BDF89494E09FBB92E015
:1030D0009FBB8FBF81E0DF91CF91089580E0FBCF50
:1030E0006091370281E090E00E94581860913602AA
:1030F00082E090E00E9458186091350283E090E0F1
:103100000E9458186091340284E090E00E945818A0
:103110006091330285E090E00E945818609132027D
:1031200086E090E00C945818CF93DF9380E886BF38
:103130008CE486BFCDE6D2E01B821A8288EE93E053
:10314000A0E0B0E08C839D83AE83BF838AE091E0F2
:103150009983888367E471E084EC92E00E941916F9
:103160006CE471E08EEB92E00E94191661E571E06B
:1031700088EB92E00E941916E9E7F2E013821282CE
:1031800020E830E03583248380E490E097838683D1
:103190003187208793878287168A1586148617863B
:1031A000168681E0858B848B2FEF3FEF338B228B4C
:1031B000318B208B878B108E128E118E2CE131E09B
:1031C00031832083148E138ED68FC58F10A2178E55
:1031D0009FEF94A395A396A397A380A780E585ABC3
:1031E00016AA80E89AE1A6E0B0E087AB90AFA1AF65
:1031F000B2AF80EA96E8A1E0B0E083AF94AFA5AFAC
:10320000B6AFE0E4F2E0148215821682178280E005
:1032100090E0A0E8BFEB80879187A287B3871486F0
:103220008BEC98E4A4E8BAE3858F968FA78FB0A3C0
:1032300086ED94E6A9E7B9E381A392A3A3A3B4A37F
:103240008CE69FECA8E5B4E385A396A3A7A3B0A75B
:1032500011A612A613A614A68FE090E09183808396
:1032600080E098E6A2E1B6E485879687A787B08BD1
:10327000DF91CF910895CF93DF93CDB7DEB76297FB
:103280000FB6F894DEBF0FBECDBF8091F200806113
:103290008EBB80E88093F2009EB39093F2008093FF
:1032A000610081E080936100789484B5826084BD80
:1032B00084B5816084BD85B5826085BD85B581603A
:1032C00085BD80916E00816080936E0010928100B8
:1032D0008091810082608093810080918100816073
:1032E0008093810080918000816080938000809134
:1032F000B10084608093B1008091B00081608093C0
:10330000B000809191008260809391008091910043
:103310008160809391008091900081608093900003
:1033200080917A00846080937A0080917A00826034
:1033300080937A0080917A00816080937A008091F6
:103340007A00806880937A001092C1008091980280
:1033500090919902892B11F520917F023091800282
:10336000C901079697FD0796B3E095958795BA959D
:10337000E1F720917D0230917E02AC01429FC001B5
:10338000439F900D529F900D11240E949A23909379
:10339000990280939802892B09F4C8C30E94FF14F4
:1033A00020917F023091800280917D0290917E0277
:1033B000B901213231050CF49BC26054710977FFC9
:1033C00002C06F5F7F4F759567958255910997FD94
:1033D000019600E410E022E530E048E359E09595DD
:1033E00087950E94280F82E080939B02809196022D
:1033F00090919702892B09F48EC28CE380939A02F4
:10340000109231021092300210923D0210923C0252
:1034100080917E008F7C80937E0010922F0281E04D
:1034200080932E0210922D0261E082E10E94BF067D
:1034300061E083E10E94BF068091B9008E7F809396
:10344000B9008091B9008D7F8093B90088E48093A2
:10345000B80085E48093BC008091A10287FD1EC066
:1034600061E00E94ED0661E08091A1020E94BF062A
:1034700061E070E080E090E00E94AD0760E0809144
:10348000A1020E94BF066AE070E080E090E00E9426
:10349000AD0761E08091A1020E94BF068091960273
:1034A00090919702892B09F4F5C22091B0023091D6
:1034B000B1024091B2025091B30260E074E284EF35
:1034C00090E00E947223205131094109510956951B
:1034D0004795379527952093B80064E082E197E0FF
:1034E0000E94311160917F02615089E792E00E9451
:1034F000DF1164E08EE097E00E94311180919B0221
:1035000060E1813009F064E189E792E00E94DF1117
:1035100064E08AE097E00E94311180917D029091F1
:103520007E028038910509F0E0C280917F0290917F
:1035300080028032910509F0C4C264E086E097E021
:103540000E94311169ED89E792E00E94DF118091BC
:103550009B0262E2813009F061EF89E792E00E940C
:10356000DF1166E08AEF96E00E94311180919602A9
:1035700090919702892B09F4CFC22091B402309127
:10358000B5024091B6025091B70260E074E284EF58
:1035900090E00E947223205131094109510956954A
:1035A0004795379527952093B80064E670E080E052
:1035B00090E00E94AD070E9441120E94FF1418E2A1
:1035C0008AE090E00E943B1464E670E080E090E0C6
:1035D0000E94AD071150A1F766E571E0CE0101969A
:1035E0000E9419166091690270916A0280916B02C3
:1035F00090916C02AE014F5F5F4F0E946C16CE013E
:1036000001960E94671660E085E00E94ED0660E08A
:1036100084E00E94ED0660E086E00E94ED0660E036
:103620008FE00E94ED0661E08DE00E94ED0660E013
:1036300082E10E94ED0690E080E00E9450188F3FEA
:1036400009F075C20E94701811E01093370285E0EE
:103650008093360284E08093350289E180933402BE
:103660008AE08093330284E1809332020E947018D2
:1036700060E090E080E00E9458180E94FF141092D1
:10368000860210928502109288021092870210938F
:103690008D0210938E0240E150E068E571E089E709
:1036A00092E00E942C060E94E4140E94411268EAF3
:1036B00071E680E090E00E94AD07EE24E394F12CE7
:1036C00090E0C92E90E0D92E11E002E086E00E9441
:1036D000960621E0892B09F020E020933B0284E04C
:1036E0000E94960621E0892B09F020E020933A02FF
:1036F00085E00E94960621E0892B09F020E02093C6
:1037000039028FE00E94860782E390E00E943B141A
:1037100020E030E042E852EC6091690270916A0268
:1037200080916B0290916C020E94E8221816BCF402
:1037300066E571E0CE0101960E941916609169025A
:1037400070916A0280916B0290916C02AE014F5FA2
:103750005F4F0E946C16CE0101960E946716109270
:1037600086021092850210928802109287021093AE
:103770008D0210938E0266E471E0CE010D960E94D8
:1037800019168091380290913B02811109C08091F5
:103790003902992309F4F0C1811102C01093380253
:1037A000992309F4ECC160913B0270E0CE010796C9
:1037B0000E94ED1564E771E0CE0101960E94191692
:1037C000BE01695F7F4FCE0101960E9459150E948C
:1037D000EC14CE0101960E946716CE0107960E9456
:1037E000671660913A0270E0CE0107960E94ED15CF
:1037F0006EE771E0CE0101960E941916BE01695F65
:103800007F4FCE0101960E9459150E94EC14CE0103
:1038100001960E946716CE0107960E946716609176
:10382000390270E0CE0107960E94ED1569E871E05B
:10383000CE0101960E941916BE01695F7F4FCE012D
:1038400001960E9459150E94EC14CE0101960E9427
:103850006716CE0107960E94671618861F821A8681
:1038600019861C861B866D857E856115710531F074
:1038700049895A89CE0107960E948C1565E971E045
:10388000CE0101960E941916BE01695F7F4FCE01DD
:1038900001960E9459150E94EC14CE0101960E94D7
:1038A0006716CE0107960E946716CE010D960E94FC
:1038B00067160E9441120E94FF1410938D0210930C
:1038C0008E02109286021092850210928802109247
:1038D0008702F0928C02E0928B02F0928A02E092D0
:1038E0008902C114D10409F4F1CE0E940000EECE89
:1038F0006052710977FF02C06F5F7F4F75956795C2
:103900008357910997FD019600E210E023E730E02C
:1039100048E557E064CD61E080919F020E94ED068A
:1039200061E08091A0020E94ED0680919F02082E26
:10393000000C990BFC01E35CF84FE491F0E0EE0F12
:10394000FF1FEF5CF84F259134913093A70220932D
:10395000A602FC01EA5EF84FE491E093AC0280918C
:10396000A002082E000C990BFC01E35CF84FE491D7
:10397000F0E0EE0FFF1FEF5CF84FA591B491B0930C
:10398000A902A093A802FC01EA5EF84FE491E0933B
:10399000AD028C91E82BEC9380919402909195026A
:1039A000892B09F434C01FB7F89480912C0281113F
:1039B00027C0E7E4F7E08491E0E2F7E09491E82F94
:1039C000F0E0EE0FFF1FE251F94FA591B491EC9199
:1039D000E92321F461E08AE00E94BF0661E08AE009
:1039E0000E94ED068CB580618CBD8CB580648CBD69
:1039F00061E08DE00E94ED0661E08BE00E94ED0643
:103A000080912C028F5F80932C021FBF25CD61E037
:103A100080919D020E94ED0661E080919E020E94CD
:103A2000ED0680919D02082E000C990BFC01E35CD1
:103A3000F84FE491F0E0EE0FFF1FEF5CF84F259197
:103A400034913093A3022093A202FC01EA5EF84F66
:103A5000E491E093AA0280919E02082E000C990B3B
:103A6000FC01E35CF84FE491F0E0EE0FFF1FEF5C28
:103A7000F84FA591B491B093A502A093A402FC01C4
:103A8000EA5EF84FE491E093AB028C91E095E82375
:103A9000EC93E2CC8091940290919502892B31F0C5
:103AA0008091AE029091AF020E943E0AE091A8027E
:103AB000F091A90290818091AD0280958923808345
:103AC0000CCD8034910509F03DCD63E083E097E0B3
:103AD0000E94311180919B026FE9813009F06FECF7
:103AE00089E792E00E94DF112DCD8036910509F023
:103AF00029CD80917F0290918002409709F022CDDC
:103B000063E080E097E00E94311180919B0260E1C8
:103B1000813031F36FEAE4CFE091A802F091A9027D
:103B200080819091AD02892B80833FCDFFCF81E0D2
:103B300090E00E9450188093370282E090E00E944B
:103B400050188093360283E090E00E9450188093D2
:103B5000350284E090E00E9450188093340285E0A2
:103B600090E00E9450188093330286E090E00E941B
:103B7000501880933202A1CD8111009338028091B8
:103B80003902811110CE8091380269E671E08130EE
:103B900021F0823031F46FE671E0CE010D960E9483
:103BA000AD1510923802FFCD8CE191E090937A022E
:103BB000809379028091980290919902009711F078
:103BC0000E94362488EB92E00E9467168EEB92E00A
:103BD0000E94671684EC92E00C946716EF920F93A4
:103BE0001F93CF93DF93E80134E047FD34E1042EC7
:103BF000000C550B57FF03C0519541955109E32E19
:103C0000022F242FAE010E94311ECE01DF91CF91F1
:103C10001F910F91EF900895BB274A3031F49923FB
:103C200022F4BDE2909581959F4F0C94181EBB27FE
:103C3000FB015527AA27880F991FAA1FA41710F068
:103C4000A41B83955051B9F7A05DAA3308F0A95D74
:103C5000A193009779F7B111B1931192CB010C9414
:103C60006820A9E0B0E0E7E3FEE10C94A2216A013C
:103C7000F22EB02E102FFBE3AF2EA01608F41BE39C
:103C80001F5F012F27E0AE014F5F5F4F0E94901F23
:103C9000BC018981982F9970913009F43FC09BE253
:103CA000E1FC04C09E2D9170E0FC3AC05E2D507185
:103CB000E82FE87083FF46C084E0911101C083E0E3
:103CC000EF2DE81B8F1508F0E0E0D6018E2F20E2E3
:103CD000552351F1992329F0D6019C93C6010196F1
:103CE0006C0196012D5F3F4FE2FE24C08EE4D601A9
:103CF0008C9391E411969C93119712968C93D90111
:103D00008E2F90E281111BC0E20FF32FF11D108264
:103D10008EEF9FEF2996ECE00C94BE219DE2C6CF7A
:103D200090E2C4CF2D9381508111FCCFCE0ED11CD7
:103D3000E0E0D0CF8EE6D6018C9391E6DBCF9D9369
:103D40008150E0CF482F447082FF3DC084E0911144
:103D500001C083E08F1510F4EF2DE81BD6018E2FE4
:103D600020E2552309F1992329F0D6019C93C6013D
:103D700001966C0196012D5F3F4FE2FE1BC089E466
:103D8000D6018C938EE411968C93119786E412964B
:103D90008C93D9018E2F90E2882309F4B5CF9D939F
:103DA0008150FACF2D9381508111FCCFCE0ED11CC2
:103DB000E0E0D9CF89E6D6018C938EE611968C93FC
:103DC000119786E6E4CF9B0177FF02C030E020E048
:103DD000A1E0B0E0911102C0B0E0A0E0F90131969D
:103DE000AE0FBF1F8B2C912CBB2009F461C0540176
:103DF000EFEFAE1ABE0AAA0DBB1DFA161B0619F08C
:103E000014F04F2D4A1B511188C0E3FC59C07601B4
:103E1000A42FB0E2A1114FC0C40ED11C992309F404
:103E20005BC040E0D6011196F60190836D015523E9
:103E300009F448C0012F060F9A81582F507184FF52
:103E400003C0913309F4015010160CF047C009303B
:103E500008F008E0EEE2FE2E5B01A01AB108850131
:103E60009194819491082F3F320729F4D601FC9256
:103E7000F60131966F016217730794F10217130769
:103E80007CF5DB01A21BB30BAA24A394B12CAC0ECE
:103E9000BD1EAA0DBB1D11968C9121503109D60172
:103EA000119628153905F4F0F60180836D01DBCFFA
:103EB000B12CA12CA0CFF701B1937F01A150AACFC3
:103EC0009111B0CFD601942F50E302C05D93915071
:103ED0009111FCCFC40ED11C40E0ACCF01E0BACFB1
:103EE00080E3DBCF6217730731F4963388F49533A0
:103EF00011F4552369F0F6018083FD01842F90E2CF
:103F0000811108C0A40FB11D1C9290E080E002CF87
:103F100081E3F1CF91938150F3CF911183CF8ACF79
:103F2000283008F027E03327DA01990F311D87FD8B
:103F3000916000966105710539F432602E5F3D9302
:103F400030E32A95E1F708959F3F30F080387105FE
:103F5000610509F03C5F3C5F3D93913008F080685B
:103F6000911DDF93CF931F930F93FF92EF92192F21
:103F7000987F9695E92F96959695E90FFF27E45E31
:103F8000FE4F99273327EE24FF24A701E701059070
:103F90000894079428F4360FE71EF81E491F511D98
:103FA000660F771F881F991F0694A1F70590079445
:103FB00028F4E70EF81E491F561FC11D770F881FF2
:103FC000991F661F0694A1F70590079428F4F80E30
:103FD000491F561FC71FD11D880F991F661F771FC6
:103FE0000694A1F70590079420F4490F561FC71FA8
:103FF000D81F990F661F771F881F0694A9F7849111
:104000001095177041F0D695C79557954795F79439
:10401000E7941A95C1F7E2ECF0E0689415901591D9
:1040200035916591959105907FE27395E118F10ABC
:10403000430B560BC90BD009C0F7E10CF11E431F0F
:10404000561FC91FD01D7EF4703311F48A95E6CF38
:10405000E894015030F0080F0AF40027021708F422
:10406000202F2395022F7A3328F079E37D932A9528
:10407000E9F710C07D932A9589F606949795679580
:10408000379517951794E118F10A430B560BC90B96
:10409000D00998F023957E9173957A3308F070E3F8
:1040A0007C932013B8F77E9170617D9330F08395F7
:1040B00071E37D9370E32A95E1F71124EF90FF906F
:1040C0000F911F91CF91DF91992787FD90950895CA
:1040D000DC01FC01672F71917723E1F7329704C06F
:1040E0007C916D9370836291AE17BF07C8F30895FA
:1040F0000E94BA2008F481E00895E89409C097FB73
:104100003EF490958095709561957F4F8F4F9F4FAE
:104110009923A9F0F92F96E9BB279395F6958795F2
:1041200077956795B795F111F8CFFAF4BB0F11F4B5
:1041300060FF1BC06F5F7F4F8F4F9F4F16C088235C
:1041400011F096E911C0772321F09EE8872F762F92
:1041500005C0662371F096E8862F70E060E02AF0D3
:104160009A95660F771F881FDAF7880F96958795BF
:1041700097F90895990F0008550FAA0BE0E8FEEF94
:1041800016161706E807F907C0F012161306E4071B
:10419000F50798F0621B730B840B950B39F40A2614
:1041A00061F0232B242B252B21F408950A2609F4F2
:1041B000A140A6958FEF811D811D08950E94F120D9
:1041C0000C9462210E94542138F00E945B2120F05F
:1041D000952311F00C944B210C94512111240C9433
:1041E00096210E94732170F3959FC1F3950F50E0C3
:1041F000551F629FF001729FBB27F00DB11D639F99
:10420000AA27F00DB11DAA1F649F6627B00DA11D3E
:10421000661F829F2227B00DA11D621F739FB00DE4
:10422000A11D621F839FA00D611D221F749F332754
:10423000A00D611D231F849F600D211D822F762FED
:104240006A2F11249F5750409AF0F1F088234AF0CA
:10425000EE0FFF1FBB1F661F771F881F9150504036
:10426000A9F79E3F510580F00C944B210C949621A8
:104270005F3FE4F3983ED4F3869577956795B795BD
:10428000F795E7959F5FC1F7FE2B880F911D9695D7
:10429000879597F9089597F99F6780E870E060E047
:1042A00008959FEF80EC089500240A9416161706CF
:1042B00018060906089500240A9412161306140617
:1042C00005060895092E0394000C11F4882352F07A
:1042D000BB0F40F4BF2B11F460FF04C06F5F7F4F32
:1042E0008F4F9F4F089557FD9058440F551F59F019
:1042F0005F3F71F04795880F97FB991F61F09F3FD3
:1043000079F087950895121613061406551FF2CFFB
:104310004695F1DF08C0161617061806991FF1CF4B
:1043200086957105610508940895E894BB27662772
:104330007727CB0197F908952F923F924F925F9282
:104340006F927F928F929F92AF92BF92CF92DF92A5
:10435000EF92FF920F931F93CF93DF93CDB7DEB70A
:10436000CA1BDB0B0FB6F894DEBF0FBECDBF09949E
:104370002A88398848885F846E847D848C849B84F5
:10438000AA84B984C884DF80EE80FD800C811B8103
:10439000AA81B981CE0FD11D0FB6F894DEBF0FBE32
:1043A000CDBFED0108955058BB27AA270E94EB21ED
:1043B0000C9462210E94542138F00E945B2120F06D
:1043C00039F49F3F19F426F40C9451210EF4E09532
:1043D000E7FB0C944B21E92F0E94732158F3BA1785
:1043E000620773078407950720F079F4A6F50C940B
:1043F00095210EF4E0950B2EBA2FA02D0B01B901DB
:1044000090010C01CA01A0011124FF27591B99F04A
:10441000593F50F4503E68F11A16F040A22F232F56
:10442000342F4427585FF3CF469537952795A795A6
:10443000F0405395C9F77EF41F16BA0B620B730B4D
:10444000840BBAF09150A1F0FF0FBB1F661F771FBE
:10445000881FC2F70EC0BA0F621F731F841F48F473
:10446000879577956795B795F7959E3F08F0B0CFFC
:104470009395880F08F09927EE0F979587950895E3
:104480000E9454220C9462210E945B2158F00E94E9
:10449000542140F029F45F3F29F00C944B21511135
:1044A0000C9496210C9451210E94732168F3992356
:1044B000B1F3552391F3951B550BBB27AA27621720
:1044C0007307840738F09F5F5F4F220F331F441F2D
:1044D000AA1FA9F335D00E2E3AF0E0E832D0915061
:1044E0005040E695001CCAF72BD0FE2F29D0660F4E
:1044F000771F881FBB1F261737074807AB07B0E891
:1045000009F0BB0B802DBF01FF2793585F4F3AF096
:104510009E3F510578F00C944B210C9496215F3FFF
:10452000E4F3983ED4F3869577956795B795F7951C
:104530009F5FC9F7880F911D9695879597F9089504
:10454000E1E0660F771F881FBB1F621773078407A0
:10455000BA0720F0621B730B840BBA0BEE1F88F7AF
:10456000E09508950E94B9226894B1110C949621A7
:1045700008950E947B2188F09F5798F0B92F9927C2
:10458000B751B0F0E1F0660F771F881F991F1AF03E
:10459000BA95C9F714C0B13091F00E949521B1E0ED
:1045A00008950C949521672F782F8827B85F39F0EC
:1045B000B93FCCF3869577956795B395D9F73EF4D7
:1045C00090958095709561957F4F8F4F9F4F08957F
:1045D0000E94BA2008F48FEF089516F00C943D2342
:1045E0000C94512168940C944B210E947B21A8F3D8
:1045F0009923C1F3AEF3DF93CF931F930F93FF92F1
:10460000C92FDD2788232AF02197660F771F881F7F
:10461000DAF720E030E040E85FEB9FE3883920F0F4
:10462000803E38F021968F770E94D421E8E6F0E0B2
:1046300004C00E94D421E5E9F0E00E944B238B01E5
:10464000BE01EC01FB2E6F5771097595771F880B22
:10465000990B0E947F2028E132E741E35FE30E944B
:10466000F120AF2D9801AE01FF900F911F91CF91D6
:10467000DF910E94EB210C9462219F3F31F0915019
:1046800020F4879577956795B795880F911D969536
:10469000879597F90895DF93CF931F930F93FF9218
:1046A000EF92DF927B018C01689406C0DA2EEF0155
:1046B0000E94F120FE01E894A59125913591459144
:1046C0005591A6F3EF010E94EB21FE019701A8018D
:1046D000DA9469F7DF90EF90FF900F911F91CF91DF
:1046E000DF910895A1E21A2EAA1BBB1BFD010DC08C
:1046F000AA1FBB1FEE1FFF1FA217B307E407F50792
:1047000020F0A21BB30BE40BF50B661F771F881F6D
:10471000991F1A9469F760957095809590959B0103
:10472000AC01BD01CF010895EE0FFF1F0590F4917C
:10473000E02D09940F931F93CF93DF93823091055F
:1047400010F482E090E0E091CC02F091CD0230E0F4
:1047500020E0B0E0A0E0309799F42115310509F48C
:104760004AC0281B390B24303105D8F58A819B813A
:104770006115710589F1FB0193838283FE0111C0EC
:10478000408151810281138148175907E0F0481791
:10479000590799F4109761F012960C93129713969B
:1047A0001C933296CF01DF91CF911F910F91089505
:1047B0000093CC021093CD02F4CF2115310551F0B6
:1047C0004217530738F0A901DB019A01BD01DF014F
:1047D000F801C1CFEF01F9CF9093CD028093CC02C5
:1047E000CDCFFE01E20FF31F819391932250310947
:1047F00039832883D7CF2091CA023091CB02232B53
:1048000041F420910201309103013093CB022093B7
:10481000CA0220910001309101012115310541F4B6
:104820002DB73EB74091040150910501241B350B73
:10483000E091CA02F091CB02E217F307A0F42E1B1D
:104840003F0B2817390778F0AC014E5F5F4F2417F4
:10485000350748F04E0F5F1F5093CB024093CA02BA
:10486000819391939FCFF0E0E0E09CCFCF93DF93D3
:104870000097E9F0FC01329713821282A091CC02DA
:10488000B091CD02ED0130E020E01097A1F420813D
:104890003181820F931F2091CA023091CB022817D9
:1048A000390709F061C0F093CB02E093CA02DF91AF
:1048B000CF910895EA01CE17DF07E8F54A815B81C1
:1048C0009E0141155105B1F7E901FB83EA83499146
:1048D0005991C40FD51FEC17FD0761F480819181B8
:1048E0000296840F951FE9019983888382819381C1
:1048F0009B838A83F0E0E0E012968D919C91139760
:104900000097B9F52D913C911197CD010296820F38
:10491000931F2091CA023091CB022817390739F62C
:10492000309751F51092CD021092CC02B093CB0289
:10493000A093CA02BCCFD383C28340815181840F2C
:10494000951FC817D90761F44E5F5F4F8881998121
:10495000480F591F518340838A819B8193838283AF
:104960002115310509F0B0CFF093CD02E093CC02D0
:104970009ECFFD01DC01C0CF13821282D7CFB0E001
:10498000A0E0E5ECF4E20C949E218C01009751F438
:10499000CB010E949A238C01C801CDB7DEB7E0E1BC
:1049A0000C94BA21FC01E60FF71F9C01225031093B
:1049B000E217F30708F49DC0D901CD91DC9111975E
:1049C000C617D70798F0C530D10530F3CE0104974C
:1049D0008617970708F3C61BD70B2297C193D1936D
:1049E0006D937C93CF010E943624D6CF5B01AC1A25
:1049F000BD0A4C018C0E9D1EA091CC02B091CD023F
:104A0000512C412CF12CE12C109731F58091CA02E8
:104A10009091CB028815990509F05CC0461657069F
:104A200008F058C08091000190910101009741F475
:104A30008DB79EB74091040150910501841B950BE1
:104A4000E817F90708F055C0F093CB02E093CA02CB
:104A5000F90171836083A0CF8D919C91119712967B
:104A60006C90129713967C901397A815B90559F579
:104A70006C0142E0C40ED11CCA14DB0420F1AC016D
:104A80004A195B09DA011296159780F062827382E7
:104A900051834083D9016D937C93E114F10471F04B
:104AA000D7011396FC93EE93129776CF22968C0F34
:104AB0009D1FF90191838083F301EFCFF093CD0225
:104AC000E093CC0269CF4816590608F42C017D0109
:104AD000D3019ACFCB010E949A237C01009749F021
:104AE000AE01B8010E948125C8010E9436248701C9
:104AF00053CF10E000E050CF81E090E0F8940C94A8
:104B00009825FB01DC0102C001900D9241505040FC
:104B1000D8F70895DC0101C06D9341505040E0F793
:104B20000895FB01DC0101900D920020E1F708954A
:104B300016E0C0E0D6E004C0FE010E949423219656
:0A4B4000C130D107C9F7F894FFCF88
:104B4A000000CE02800000000000AB107E10C113EE
:104B5A002B06771068105A10000000007C0C2C06F7
:104B6A00C113361086092B06210FF90E150F090FEE
:104B7A00890F2B06420A6B13F6083F09420E250ECF
:104B8A00AD0D4E0D0D0A00436F6F6C0048656174E0
:104B9A0000646F776E0043004D454D4F52595F4692
:104BAA0049525354424F4F54007269676874006CFB
:104BBA0065667400627574746F6E55503A0062755A
:104BCA0074746F6E5345543A00627574746F6E4410
:0C4BDA004F574E3A00736964653A0000C2
:040000000C94003A22
:1074000011248FEF98E09EBF8DBF94B714BE892FD3
:107410008D7011F0892FE0D190E89093F20083E90C
:107420008093F2009093610081E08093610096BFA9
:107430008CE486BF85E08093810088E18093C10061
:1074400086E08093C20080E18093C4008DE0AED1DD
:10745000259A96E020E33CEF51E040E2309385002E
:107460002093840056BBB09BFECF85B1842785B99D
:10747000A895915099F7662477244301CC24DD2404
:1074800064E9A62E51E0252E312C412C512C7DD1C2
:10749000813461F47AD1182F8FD1123829F1113843
:1074A00011F485E001C083E068D164C1823411F435
:1074B00084E103C0853419F485E086D15BC185354C
:1074C00079F463D1E82EFF2460D1082F10E0102F4B
:1074D00000270E291F29000F111F6ED168014AC114
:1074E000863521F484E070D180E0DECF843609F067
:1074F000C5C04BD190E0F82EEE2447D1E80EF11C28
:1075000044D1B82EE70100E011E03FD1F8018193AA
:107510008F012197D1F711BC8D2D992782BD82B59E
:1075200086958695282FD401C301022E04C0B695F6
:10753000A795979587950A94D2F780FD15C0F6E434
:10754000BF1691F4D201C10104C0880F991FAA1F70
:10755000BB1F2A95D2F7682A792A8A2A9B2AAFBAB2
:1075600082E98FBB0000000027D1E5E4BE16B1F42C
:10757000960110C021BD2F5F3F4F832F992782BDF9
:10758000C050DF4F888180BDF4E0FFBB82E08FBB3D
:10759000CF5FD040CE15DF0568F3DBC0C114D10446
:1075A00009F04EC06091000170910101872F90E0B9
:1075B000982F8827262F30E0822B932B90938501DC
:1075C000809384014091020150910301852F90E046
:1075D000982F8827242F30E0822B932B90938701BC
:1075E00080938601209118018091190190E0982FD5
:1075F000882730E0822B932B909389018093880118
:1076000020911A0180911B0190E0982F882730E08B
:10761000822B932B90938B0180938A0160931801A6
:107620007093190140931A0150931B018CE08093D1
:107630000001A092010110920201EAE3E09303012C
:10764000E0E0F1E011BC808180BD81E081BD8181FD
:1076500080BD82E081BD828180BD83E081BD838168
:1076600080BD8E2F8C0D81BD84EA8FBB82EA8FBBDB
:10767000349681E0E038F80729F77CC0843709F0B8
:107680006BC083D090E0F82EEE247FD0E80EF11C82
:107690007CD0182F91D0153489F4E6018701C1BD43
:1076A00021968D2F992782BDE1E0EFBB00000000FD
:1076B00080B563D00150104091F74BC0E6018701BF
:1076C000209729F480918401909185013CC0C130BC
:1076D000D10529F480918401909185010FC0C230B9
:1076E000D10529F480918601909187012CC0C33087
:1076F000D10539F48091860190918701892F9927CE
:1077000022C0C831D10529F4809188019091890166
:107710001AC0C931D10529F480918801909189015D
:10772000EDCFCA31D10529F480918A0190918B0166
:107730000AC0CB31D10529F480918A0190918B0147
:10774000DDCFFE018491219618D00150104009F040
:10775000B7CFCE0CDF1C0EC0853739F42DD08EE1AB
:107760000CD085E90AD08FE09FCE813511F48CE0F2
:107770001DD022D080E101D08ACE982F8091C00008
:1077800085FFFCCF9093C60008958091C00087FFCD
:10779000FCCF8091C00084FD01C0A8958091C600F7
:1077A00008959AE29A95F1F708950895E0E6F0E0D9
:1077B00098E1908380830895E8DF803219F08DE0AE
:1077C000F5DFFFCF84E1D9CF1F93182FDEDF1150F3
:1077D000E9F7F2DF1F910895282E80E0E7DFECE063
:0477E000FF270994E2
:0277FE00000584
:040000030000740085
:00000001FF